{
	"data": {
		"bytecode": {
			"linkReferences": {},
			"object": "6080604052348015600e575f80fd5b50610aec8061001c5f395ff3fe608060405234801561000f575f80fd5b506004361061004a575f3560e01c80634017b86d1461004e5780639e195b901461006c578063a0a1a7d71461009c578063cf4eacaf146100bc575b5f80fd5b6100566100d8565b6040516100639190610335565b60405180910390f35b61008660048036038101906100819190610492565b6100e7565b6040516100939190610335565b60405180910390f35b6100a4610121565b6040516100b393929190610520565b60405180910390f35b6100d660048036038101906100d1919061058d565b610243565b005b60606100e261029b565b905090565b60605f83836040516020016100fd92919061069b565b60405160208183030381529060405290506101166100d8565b508091505092915050565b5f805f01805461013090610709565b80601f016020809104026020016040519081016040528092919081815260200182805461015c90610709565b80156101a75780601f1061017e576101008083540402835291602001916101a7565b820191905f5260205f20905b81548152906001019060200180831161018a57829003601f168201915b5050505050908060010180546101bc90610709565b80601f01602080910402602001604051908101604052809291908181526020018280546101e890610709565b80156102335780601f1061020a57610100808354040283529160200191610233565b820191905f5260205f20905b81548152906001019060200180831161021657829003601f168201915b5050505050908060020154905083565b6040518060600160405280848152602001838152602001828152505f80820151815f01908161027291906108d6565b50602082015181600101908161028891906108d6565b5060408201518160020155905050505050565b60605f6001016040516020016102b19190610a95565b604051602081830303815290604052905090565b5f81519050919050565b5f82825260208201905092915050565b8281835e5f83830152505050565b5f601f19601f8301169050919050565b5f610307826102c5565b61031181856102cf565b93506103218185602086016102df565b61032a816102ed565b840191505092915050565b5f6020820190508181035f83015261034d81846102fd565b905092915050565b5f604051905090565b5f80fd5b5f80fd5b5f80fd5b5f80fd5b7f4e487b71000000000000000000000000000000000000000000000000000000005f52604160045260245ffd5b6103a4826102ed565b810181811067ffffffffffffffff821117156103c3576103c261036e565b5b80604052505050565b5f6103d5610355565b90506103e1828261039b565b919050565b5f67ffffffffffffffff821115610400576103ff61036e565b5b610409826102ed565b9050602081019050919050565b828183375f83830152505050565b5f610436610431846103e6565b6103cc565b9050828152602081018484840111156104525761045161036a565b5b61045d848285610416565b509392505050565b5f82601f83011261047957610478610366565b5b8135610489848260208601610424565b91505092915050565b5f80604083850312156104a8576104a761035e565b5b5f83013567ffffffffffffffff8111156104c5576104c4610362565b5b6104d185828601610465565b925050602083013567ffffffffffffffff8111156104f2576104f1610362565b5b6104fe85828601610465565b9150509250929050565b5f819050919050565b61051a81610508565b82525050565b5f6060820190508181035f83015261053881866102fd565b9050818103602083015261054c81856102fd565b905061055b6040830184610511565b949350505050565b61056c81610508565b8114610576575f80fd5b50565b5f8135905061058781610563565b92915050565b5f805f606084860312156105a4576105a361035e565b5b5f84013567ffffffffffffffff8111156105c1576105c0610362565b5b6105cd86828701610465565b935050602084013567ffffffffffffffff8111156105ee576105ed610362565b5b6105fa86828701610465565b925050604061060b86828701610579565b9150509250925092565b7f54686520656d706c6f79656520776974682069643a2000000000000000000000815250565b5f81905092915050565b5f61064f826102c5565b610659818561063b565b93506106698185602086016102df565b80840191505092915050565b7f2c20697320616464656420746f2070726f6a65637420776974682069643a2000815250565b5f6106a582610615565b6016820191506106b58285610645565b91506106c082610675565b601f820191506106d08284610645565b91508190509392505050565b7f4e487b71000000000000000000000000000000000000000000000000000000005f52602260045260245ffd5b5f600282049050600182168061072057607f821691505b602082108103610733576107326106dc565b5b50919050565b5f819050815f5260205f209050919050565b5f6020601f8301049050919050565b5f82821b905092915050565b5f600883026107957fffffffffffffffffffffffffffffffffffffffffffffffffffffffffffffffff8261075a565b61079f868361075a565b95508019841693508086168417925050509392505050565b5f819050919050565b5f6107da6107d56107d084610508565b6107b7565b610508565b9050919050565b5f819050919050565b6107f3836107c0565b6108076107ff826107e1565b848454610766565b825550505050565b5f90565b61081b61080f565b6108268184846107ea565b505050565b5b818110156108495761083e5f82610813565b60018101905061082c565b5050565b601f82111561088e5761085f81610739565b6108688461074b565b81016020851015610877578190505b61088b6108838561074b565b83018261082b565b50505b505050565b5f82821c905092915050565b5f6108ae5f1984600802610893565b1980831691505092915050565b5f6108c6838361089f565b9150826002028217905092915050565b6108df826102c5565b67ffffffffffffffff8111156108f8576108f761036e565b5b6109028254610709565b61090d82828561084d565b5f60209050601f83116001811461093e575f841561092c578287015190505b61093685826108bb565b86555061099d565b601f19841661094c86610739565b5f5b828110156109735784890151825560018201915060208501945060208101905061094e565b86831015610990578489015161098c601f89168261089f565b8355505b6001600288020188555050505b505050505050565b7f53656e742077656c636f6d6520656d61696c20746f20656d706c6f79656520775f8201527f69746820656d61696c3a20000000000000000000000000000000000000000000602082015250565b5f6109ff602b8361063b565b9150610a0a826109a5565b602b82019050919050565b5f8154610a2181610709565b610a2b818661063b565b9450600182165f8114610a455760018114610a5a57610a8c565b60ff1983168652811515820286019350610a8c565b610a6385610739565b5f5b83811015610a8457815481890152600182019150602081019050610a65565b838801955050505b50505092915050565b5f610a9f826109f3565b9150610aab8284610a15565b91508190509291505056fea26469706673582212203cf90eb8a7b52ec6259047430e11b1812f3b9e6a9a013421c3d336ee83a1497d64736f6c634300081a0033",
			"opcodes": "PUSH1 0x80 PUSH1 0x40 MSTORE CALLVALUE DUP1 ISZERO PUSH1 0xE JUMPI PUSH0 DUP1 REVERT JUMPDEST POP PUSH2 0xAEC DUP1 PUSH2 0x1C PUSH0 CODECOPY PUSH0 RETURN INVALID PUSH1 0x80 PUSH1 0x40 MSTORE CALLVALUE DUP1 ISZERO PUSH2 0xF JUMPI PUSH0 DUP1 REVERT JUMPDEST POP PUSH1 0x4 CALLDATASIZE LT PUSH2 0x4A JUMPI PUSH0 CALLDATALOAD PUSH1 0xE0 SHR DUP1 PUSH4 0x4017B86D EQ PUSH2 0x4E JUMPI DUP1 PUSH4 0x9E195B90 EQ PUSH2 0x6C JUMPI DUP1 PUSH4 0xA0A1A7D7 EQ PUSH2 0x9C JUMPI DUP1 PUSH4 0xCF4EACAF EQ PUSH2 0xBC JUMPI JUMPDEST PUSH0 DUP1 REVERT JUMPDEST PUSH2 0x56 PUSH2 0xD8 JUMP JUMPDEST PUSH1 0x40 MLOAD PUSH2 0x63 SWAP2 SWAP1 PUSH2 0x335 JUMP JUMPDEST PUSH1 0x40 MLOAD DUP1 SWAP2 SUB SWAP1 RETURN JUMPDEST PUSH2 0x86 PUSH1 0x4 DUP1 CALLDATASIZE SUB DUP2 ADD SWAP1 PUSH2 0x81 SWAP2 SWAP1 PUSH2 0x492 JUMP JUMPDEST PUSH2 0xE7 JUMP JUMPDEST PUSH1 0x40 MLOAD PUSH2 0x93 SWAP2 SWAP1 PUSH2 0x335 JUMP JUMPDEST PUSH1 0x40 MLOAD DUP1 SWAP2 SUB SWAP1 RETURN JUMPDEST PUSH2 0xA4 PUSH2 0x121 JUMP JUMPDEST PUSH1 0x40 MLOAD PUSH2 0xB3 SWAP4 SWAP3 SWAP2 SWAP1 PUSH2 0x520 JUMP JUMPDEST PUSH1 0x40 MLOAD DUP1 SWAP2 SUB SWAP1 RETURN JUMPDEST PUSH2 0xD6 PUSH1 0x4 DUP1 CALLDATASIZE SUB DUP2 ADD SWAP1 PUSH2 0xD1 SWAP2 SWAP1 PUSH2 0x58D JUMP JUMPDEST PUSH2 0x243 JUMP JUMPDEST STOP JUMPDEST PUSH1 0x60 PUSH2 0xE2 PUSH2 0x29B JUMP JUMPDEST SWAP1 POP SWAP1 JUMP JUMPDEST PUSH1 0x60 PUSH0 DUP4 DUP4 PUSH1 0x40 MLOAD PUSH1 0x20 ADD PUSH2 0xFD SWAP3 SWAP2 SWAP1 PUSH2 0x69B JUMP JUMPDEST PUSH1 0x40 MLOAD PUSH1 0x20 DUP2 DUP4 SUB SUB DUP2 MSTORE SWAP1 PUSH1 0x40 MSTORE SWAP1 POP PUSH2 0x116 PUSH2 0xD8 JUMP JUMPDEST POP DUP1 SWAP2 POP POP SWAP3 SWAP2 POP POP JUMP JUMPDEST PUSH0 DUP1 PUSH0 ADD DUP1 SLOAD PUSH2 0x130 SWAP1 PUSH2 0x709 JUMP JUMPDEST DUP1 PUSH1 0x1F ADD PUSH1 0x20 DUP1 SWAP2 DIV MUL PUSH1 0x20 ADD PUSH1 0x40 MLOAD SWAP1 DUP2 ADD PUSH1 0x40 MSTORE DUP1 SWAP3 SWAP2 SWAP1 DUP2 DUP2 MSTORE PUSH1 0x20 ADD DUP3 DUP1 SLOAD PUSH2 0x15C SWAP1 PUSH2 0x709 JUMP JUMPDEST DUP1 ISZERO PUSH2 0x1A7 JUMPI DUP1 PUSH1 0x1F LT PUSH2 0x17E JUMPI PUSH2 0x100 DUP1 DUP4 SLOAD DIV MUL DUP4 MSTORE SWAP2 PUSH1 0x20 ADD SWAP2 PUSH2 0x1A7 JUMP JUMPDEST DUP3 ADD SWAP2 SWAP1 PUSH0 MSTORE PUSH1 0x20 PUSH0 KECCAK256 SWAP1 JUMPDEST DUP2 SLOAD DUP2 MSTORE SWAP1 PUSH1 0x1 ADD SWAP1 PUSH1 0x20 ADD DUP1 DUP4 GT PUSH2 0x18A JUMPI DUP3 SWAP1 SUB PUSH1 0x1F AND DUP3 ADD SWAP2 JUMPDEST POP POP POP POP POP SWAP1 DUP1 PUSH1 0x1 ADD DUP1 SLOAD PUSH2 0x1BC SWAP1 PUSH2 0x709 JUMP JUMPDEST DUP1 PUSH1 0x1F ADD PUSH1 0x20 DUP1 SWAP2 DIV MUL PUSH1 0x20 ADD PUSH1 0x40 MLOAD SWAP1 DUP2 ADD PUSH1 0x40 MSTORE DUP1 SWAP3 SWAP2 SWAP1 DUP2 DUP2 MSTORE PUSH1 0x20 ADD DUP3 DUP1 SLOAD PUSH2 0x1E8 SWAP1 PUSH2 0x709 JUMP JUMPDEST DUP1 ISZERO PUSH2 0x233 JUMPI DUP1 PUSH1 0x1F LT PUSH2 0x20A JUMPI PUSH2 0x100 DUP1 DUP4 SLOAD DIV MUL DUP4 MSTORE SWAP2 PUSH1 0x20 ADD SWAP2 PUSH2 0x233 JUMP JUMPDEST DUP3 ADD SWAP2 SWAP1 PUSH0 MSTORE PUSH1 0x20 PUSH0 KECCAK256 SWAP1 JUMPDEST DUP2 SLOAD DUP2 MSTORE SWAP1 PUSH1 0x1 ADD SWAP1 PUSH1 0x20 ADD DUP1 DUP4 GT PUSH2 0x216 JUMPI DUP3 SWAP1 SUB PUSH1 0x1F AND DUP3 ADD SWAP2 JUMPDEST POP POP POP POP POP SWAP1 DUP1 PUSH1 0x2 ADD SLOAD SWAP1 POP DUP4 JUMP JUMPDEST PUSH1 0x40 MLOAD DUP1 PUSH1 0x60 ADD PUSH1 0x40 MSTORE DUP1 DUP5 DUP2 MSTORE PUSH1 0x20 ADD DUP4 DUP2 MSTORE PUSH1 0x20 ADD DUP3 DUP2 MSTORE POP PUSH0 DUP1 DUP3 ADD MLOAD DUP2 PUSH0 ADD SWAP1 DUP2 PUSH2 0x272 SWAP2 SWAP1 PUSH2 0x8D6 JUMP JUMPDEST POP PUSH1 0x20 DUP3 ADD MLOAD DUP2 PUSH1 0x1 ADD SWAP1 DUP2 PUSH2 0x288 SWAP2 SWAP1 PUSH2 0x8D6 JUMP JUMPDEST POP PUSH1 0x40 DUP3 ADD MLOAD DUP2 PUSH1 0x2 ADD SSTORE SWAP1 POP POP POP POP POP JUMP JUMPDEST PUSH1 0x60 PUSH0 PUSH1 0x1 ADD PUSH1 0x40 MLOAD PUSH1 0x20 ADD PUSH2 0x2B1 SWAP2 SWAP1 PUSH2 0xA95 JUMP JUMPDEST PUSH1 0x40 MLOAD PUSH1 0x20 DUP2 DUP4 SUB SUB DUP2 MSTORE SWAP1 PUSH1 0x40 MSTORE SWAP1 POP SWAP1 JUMP JUMPDEST PUSH0 DUP2 MLOAD SWAP1 POP SWAP2 SWAP1 POP JUMP JUMPDEST PUSH0 DUP3 DUP3 MSTORE PUSH1 0x20 DUP3 ADD SWAP1 POP SWAP3 SWAP2 POP POP JUMP JUMPDEST DUP3 DUP2 DUP4 MCOPY PUSH0 DUP4 DUP4 ADD MSTORE POP POP POP JUMP JUMPDEST PUSH0 PUSH1 0x1F NOT PUSH1 0x1F DUP4 ADD AND SWAP1 POP SWAP2 SWAP1 POP JUMP JUMPDEST PUSH0 PUSH2 0x307 DUP3 PUSH2 0x2C5 JUMP JUMPDEST PUSH2 0x311 DUP2 DUP6 PUSH2 0x2CF JUMP JUMPDEST SWAP4 POP PUSH2 0x321 DUP2 DUP6 PUSH1 0x20 DUP7 ADD PUSH2 0x2DF JUMP JUMPDEST PUSH2 0x32A DUP2 PUSH2 0x2ED JUMP JUMPDEST DUP5 ADD SWAP2 POP POP SWAP3 SWAP2 POP POP JUMP JUMPDEST PUSH0 PUSH1 0x20 DUP3 ADD SWAP1 POP DUP2 DUP2 SUB PUSH0 DUP4 ADD MSTORE PUSH2 0x34D DUP2 DUP5 PUSH2 0x2FD JUMP JUMPDEST SWAP1 POP SWAP3 SWAP2 POP POP JUMP JUMPDEST PUSH0 PUSH1 0x40 MLOAD SWAP1 POP SWAP1 JUMP JUMPDEST PUSH0 DUP1 REVERT JUMPDEST PUSH0 DUP1 REVERT JUMPDEST PUSH0 DUP1 REVERT JUMPDEST PUSH0 DUP1 REVERT JUMPDEST PUSH32 0x4E487B7100000000000000000000000000000000000000000000000000000000 PUSH0 MSTORE PUSH1 0x41 PUSH1 0x4 MSTORE PUSH1 0x24 PUSH0 REVERT JUMPDEST PUSH2 0x3A4 DUP3 PUSH2 0x2ED JUMP JUMPDEST DUP2 ADD DUP2 DUP2 LT PUSH8 0xFFFFFFFFFFFFFFFF DUP3 GT OR ISZERO PUSH2 0x3C3 JUMPI PUSH2 0x3C2 PUSH2 0x36E JUMP JUMPDEST JUMPDEST DUP1 PUSH1 0x40 MSTORE POP POP POP JUMP JUMPDEST PUSH0 PUSH2 0x3D5 PUSH2 0x355 JUMP JUMPDEST SWAP1 POP PUSH2 0x3E1 DUP3 DUP3 PUSH2 0x39B JUMP JUMPDEST SWAP2 SWAP1 POP JUMP JUMPDEST PUSH0 PUSH8 0xFFFFFFFFFFFFFFFF DUP3 GT ISZERO PUSH2 0x400 JUMPI PUSH2 0x3FF PUSH2 0x36E JUMP JUMPDEST JUMPDEST PUSH2 0x409 DUP3 PUSH2 0x2ED JUMP JUMPDEST SWAP1 POP PUSH1 0x20 DUP2 ADD SWAP1 POP SWAP2 SWAP1 POP JUMP JUMPDEST DUP3 DUP2 DUP4 CALLDATACOPY PUSH0 DUP4 DUP4 ADD MSTORE POP POP POP JUMP JUMPDEST PUSH0 PUSH2 0x436 PUSH2 0x431 DUP5 PUSH2 0x3E6 JUMP JUMPDEST PUSH2 0x3CC JUMP JUMPDEST SWAP1 POP DUP3 DUP2 MSTORE PUSH1 0x20 DUP2 ADD DUP5 DUP5 DUP5 ADD GT ISZERO PUSH2 0x452 JUMPI PUSH2 0x451 PUSH2 0x36A JUMP JUMPDEST JUMPDEST PUSH2 0x45D DUP5 DUP3 DUP6 PUSH2 0x416 JUMP JUMPDEST POP SWAP4 SWAP3 POP POP POP JUMP JUMPDEST PUSH0 DUP3 PUSH1 0x1F DUP4 ADD SLT PUSH2 0x479 JUMPI PUSH2 0x478 PUSH2 0x366 JUMP JUMPDEST JUMPDEST DUP2 CALLDATALOAD PUSH2 0x489 DUP5 DUP3 PUSH1 0x20 DUP7 ADD PUSH2 0x424 JUMP JUMPDEST SWAP2 POP POP SWAP3 SWAP2 POP POP JUMP JUMPDEST PUSH0 DUP1 PUSH1 0x40 DUP4 DUP6 SUB SLT ISZERO PUSH2 0x4A8 JUMPI PUSH2 0x4A7 PUSH2 0x35E JUMP JUMPDEST JUMPDEST PUSH0 DUP4 ADD CALLDATALOAD PUSH8 0xFFFFFFFFFFFFFFFF DUP2 GT ISZERO PUSH2 0x4C5 JUMPI PUSH2 0x4C4 PUSH2 0x362 JUMP JUMPDEST JUMPDEST PUSH2 0x4D1 DUP6 DUP3 DUP7 ADD PUSH2 0x465 JUMP JUMPDEST SWAP3 POP POP PUSH1 0x20 DUP4 ADD CALLDATALOAD PUSH8 0xFFFFFFFFFFFFFFFF DUP2 GT ISZERO PUSH2 0x4F2 JUMPI PUSH2 0x4F1 PUSH2 0x362 JUMP JUMPDEST JUMPDEST PUSH2 0x4FE DUP6 DUP3 DUP7 ADD PUSH2 0x465 JUMP JUMPDEST SWAP2 POP POP SWAP3 POP SWAP3 SWAP1 POP JUMP JUMPDEST PUSH0 DUP2 SWAP1 POP SWAP2 SWAP1 POP JUMP JUMPDEST PUSH2 0x51A DUP2 PUSH2 0x508 JUMP JUMPDEST DUP3 MSTORE POP POP JUMP JUMPDEST PUSH0 PUSH1 0x60 DUP3 ADD SWAP1 POP DUP2 DUP2 SUB PUSH0 DUP4 ADD MSTORE PUSH2 0x538 DUP2 DUP7 PUSH2 0x2FD JUMP JUMPDEST SWAP1 POP DUP2 DUP2 SUB PUSH1 0x20 DUP4 ADD MSTORE PUSH2 0x54C DUP2 DUP6 PUSH2 0x2FD JUMP JUMPDEST SWAP1 POP PUSH2 0x55B PUSH1 0x40 DUP4 ADD DUP5 PUSH2 0x511 JUMP JUMPDEST SWAP5 SWAP4 POP POP POP POP JUMP JUMPDEST PUSH2 0x56C DUP2 PUSH2 0x508 JUMP JUMPDEST DUP2 EQ PUSH2 0x576 JUMPI PUSH0 DUP1 REVERT JUMPDEST POP JUMP JUMPDEST PUSH0 DUP2 CALLDATALOAD SWAP1 POP PUSH2 0x587 DUP2 PUSH2 0x563 JUMP JUMPDEST SWAP3 SWAP2 POP POP JUMP JUMPDEST PUSH0 DUP1 PUSH0 PUSH1 0x60 DUP5 DUP7 SUB SLT ISZERO PUSH2 0x5A4 JUMPI PUSH2 0x5A3 PUSH2 0x35E JUMP JUMPDEST JUMPDEST PUSH0 DUP5 ADD CALLDATALOAD PUSH8 0xFFFFFFFFFFFFFFFF DUP2 GT ISZERO PUSH2 0x5C1 JUMPI PUSH2 0x5C0 PUSH2 0x362 JUMP JUMPDEST JUMPDEST PUSH2 0x5CD DUP7 DUP3 DUP8 ADD PUSH2 0x465 JUMP JUMPDEST SWAP4 POP POP PUSH1 0x20 DUP5 ADD CALLDATALOAD PUSH8 0xFFFFFFFFFFFFFFFF DUP2 GT ISZERO PUSH2 0x5EE JUMPI PUSH2 0x5ED PUSH2 0x362 JUMP JUMPDEST JUMPDEST PUSH2 0x5FA DUP7 DUP3 DUP8 ADD PUSH2 0x465 JUMP JUMPDEST SWAP3 POP POP PUSH1 0x40 PUSH2 0x60B DUP7 DUP3 DUP8 ADD PUSH2 0x579 JUMP JUMPDEST SWAP2 POP POP SWAP3 POP SWAP3 POP SWAP3 JUMP JUMPDEST PUSH32 0x54686520656D706C6F79656520776974682069643A2000000000000000000000 DUP2 MSTORE POP JUMP JUMPDEST PUSH0 DUP2 SWAP1 POP SWAP3 SWAP2 POP POP JUMP JUMPDEST PUSH0 PUSH2 0x64F DUP3 PUSH2 0x2C5 JUMP JUMPDEST PUSH2 0x659 DUP2 DUP6 PUSH2 0x63B JUMP JUMPDEST SWAP4 POP PUSH2 0x669 DUP2 DUP6 PUSH1 0x20 DUP7 ADD PUSH2 0x2DF JUMP JUMPDEST DUP1 DUP5 ADD SWAP2 POP POP SWAP3 SWAP2 POP POP JUMP JUMPDEST PUSH32 0x2C20697320616464656420746F2070726F6A65637420776974682069643A2000 DUP2 MSTORE POP JUMP JUMPDEST PUSH0 PUSH2 0x6A5 DUP3 PUSH2 0x615 JUMP JUMPDEST PUSH1 0x16 DUP3 ADD SWAP2 POP PUSH2 0x6B5 DUP3 DUP6 PUSH2 0x645 JUMP JUMPDEST SWAP2 POP PUSH2 0x6C0 DUP3 PUSH2 0x675 JUMP JUMPDEST PUSH1 0x1F DUP3 ADD SWAP2 POP PUSH2 0x6D0 DUP3 DUP5 PUSH2 0x645 JUMP JUMPDEST SWAP2 POP DUP2 SWAP1 POP SWAP4 SWAP3 POP POP POP JUMP JUMPDEST PUSH32 0x4E487B7100000000000000000000000000000000000000000000000000000000 PUSH0 MSTORE PUSH1 0x22 PUSH1 0x4 MSTORE PUSH1 0x24 PUSH0 REVERT JUMPDEST PUSH0 PUSH1 0x2 DUP3 DIV SWAP1 POP PUSH1 0x1 DUP3 AND DUP1 PUSH2 0x720 JUMPI PUSH1 0x7F DUP3 AND SWAP2 POP JUMPDEST PUSH1 0x20 DUP3 LT DUP2 SUB PUSH2 0x733 JUMPI PUSH2 0x732 PUSH2 0x6DC JUMP JUMPDEST JUMPDEST POP SWAP2 SWAP1 POP JUMP JUMPDEST PUSH0 DUP2 SWAP1 POP DUP2 PUSH0 MSTORE PUSH1 0x20 PUSH0 KECCAK256 SWAP1 POP SWAP2 SWAP1 POP JUMP JUMPDEST PUSH0 PUSH1 0x20 PUSH1 0x1F DUP4 ADD DIV SWAP1 POP SWAP2 SWAP1 POP JUMP JUMPDEST PUSH0 DUP3 DUP3 SHL SWAP1 POP SWAP3 SWAP2 POP POP JUMP JUMPDEST PUSH0 PUSH1 0x8 DUP4 MUL PUSH2 0x795 PUSH32 0xFFFFFFFFFFFFFFFFFFFFFFFFFFFFFFFFFFFFFFFFFFFFFFFFFFFFFFFFFFFFFFFF DUP3 PUSH2 0x75A JUMP JUMPDEST PUSH2 0x79F DUP7 DUP4 PUSH2 0x75A JUMP JUMPDEST SWAP6 POP DUP1 NOT DUP5 AND SWAP4 POP DUP1 DUP7 AND DUP5 OR SWAP3 POP POP POP SWAP4 SWAP3 POP POP POP JUMP JUMPDEST PUSH0 DUP2 SWAP1 POP SWAP2 SWAP1 POP JUMP JUMPDEST PUSH0 PUSH2 0x7DA PUSH2 0x7D5 PUSH2 0x7D0 DUP5 PUSH2 0x508 JUMP JUMPDEST PUSH2 0x7B7 JUMP JUMPDEST PUSH2 0x508 JUMP JUMPDEST SWAP1 POP SWAP2 SWAP1 POP JUMP JUMPDEST PUSH0 DUP2 SWAP1 POP SWAP2 SWAP1 POP JUMP JUMPDEST PUSH2 0x7F3 DUP4 PUSH2 0x7C0 JUMP JUMPDEST PUSH2 0x807 PUSH2 0x7FF DUP3 PUSH2 0x7E1 JUMP JUMPDEST DUP5 DUP5 SLOAD PUSH2 0x766 JUMP JUMPDEST DUP3 SSTORE POP POP POP POP JUMP JUMPDEST PUSH0 SWAP1 JUMP JUMPDEST PUSH2 0x81B PUSH2 0x80F JUMP JUMPDEST PUSH2 0x826 DUP2 DUP5 DUP5 PUSH2 0x7EA JUMP JUMPDEST POP POP POP JUMP JUMPDEST JUMPDEST DUP2 DUP2 LT ISZERO PUSH2 0x849 JUMPI PUSH2 0x83E PUSH0 DUP3 PUSH2 0x813 JUMP JUMPDEST PUSH1 0x1 DUP2 ADD SWAP1 POP PUSH2 0x82C JUMP JUMPDEST POP POP JUMP JUMPDEST PUSH1 0x1F DUP3 GT ISZERO PUSH2 0x88E JUMPI PUSH2 0x85F DUP2 PUSH2 0x739 JUMP JUMPDEST PUSH2 0x868 DUP5 PUSH2 0x74B JUMP JUMPDEST DUP2 ADD PUSH1 0x20 DUP6 LT ISZERO PUSH2 0x877 JUMPI DUP2 SWAP1 POP JUMPDEST PUSH2 0x88B PUSH2 0x883 DUP6 PUSH2 0x74B JUMP JUMPDEST DUP4 ADD DUP3 PUSH2 0x82B JUMP JUMPDEST POP POP JUMPDEST POP POP POP JUMP JUMPDEST PUSH0 DUP3 DUP3 SHR SWAP1 POP SWAP3 SWAP2 POP POP JUMP JUMPDEST PUSH0 PUSH2 0x8AE PUSH0 NOT DUP5 PUSH1 0x8 MUL PUSH2 0x893 JUMP JUMPDEST NOT DUP1 DUP4 AND SWAP2 POP POP SWAP3 SWAP2 POP POP JUMP JUMPDEST PUSH0 PUSH2 0x8C6 DUP4 DUP4 PUSH2 0x89F JUMP JUMPDEST SWAP2 POP DUP3 PUSH1 0x2 MUL DUP3 OR SWAP1 POP SWAP3 SWAP2 POP POP JUMP JUMPDEST PUSH2 0x8DF DUP3 PUSH2 0x2C5 JUMP JUMPDEST PUSH8 0xFFFFFFFFFFFFFFFF DUP2 GT ISZERO PUSH2 0x8F8 JUMPI PUSH2 0x8F7 PUSH2 0x36E JUMP JUMPDEST JUMPDEST PUSH2 0x902 DUP3 SLOAD PUSH2 0x709 JUMP JUMPDEST PUSH2 0x90D DUP3 DUP3 DUP6 PUSH2 0x84D JUMP JUMPDEST PUSH0 PUSH1 0x20 SWAP1 POP PUSH1 0x1F DUP4 GT PUSH1 0x1 DUP2 EQ PUSH2 0x93E JUMPI PUSH0 DUP5 ISZERO PUSH2 0x92C JUMPI DUP3 DUP8 ADD MLOAD SWAP1 POP JUMPDEST PUSH2 0x936 DUP6 DUP3 PUSH2 0x8BB JUMP JUMPDEST DUP7 SSTORE POP PUSH2 0x99D JUMP JUMPDEST PUSH1 0x1F NOT DUP5 AND PUSH2 0x94C DUP7 PUSH2 0x739 JUMP JUMPDEST PUSH0 JUMPDEST DUP3 DUP2 LT ISZERO PUSH2 0x973 JUMPI DUP5 DUP10 ADD MLOAD DUP3 SSTORE PUSH1 0x1 DUP3 ADD SWAP2 POP PUSH1 0x20 DUP6 ADD SWAP5 POP PUSH1 0x20 DUP2 ADD SWAP1 POP PUSH2 0x94E JUMP JUMPDEST DUP7 DUP4 LT ISZERO PUSH2 0x990 JUMPI DUP5 DUP10 ADD MLOAD PUSH2 0x98C PUSH1 0x1F DUP10 AND DUP3 PUSH2 0x89F JUMP JUMPDEST DUP4 SSTORE POP JUMPDEST PUSH1 0x1 PUSH1 0x2 DUP9 MUL ADD DUP9 SSTORE POP POP POP JUMPDEST POP POP POP POP POP POP JUMP JUMPDEST PUSH32 0x53656E742077656C636F6D6520656D61696C20746F20656D706C6F7965652077 PUSH0 DUP3 ADD MSTORE PUSH32 0x69746820656D61696C3A20000000000000000000000000000000000000000000 PUSH1 0x20 DUP3 ADD MSTORE POP JUMP JUMPDEST PUSH0 PUSH2 0x9FF PUSH1 0x2B DUP4 PUSH2 0x63B JUMP JUMPDEST SWAP2 POP PUSH2 0xA0A DUP3 PUSH2 0x9A5 JUMP JUMPDEST PUSH1 0x2B DUP3 ADD SWAP1 POP SWAP2 SWAP1 POP JUMP JUMPDEST PUSH0 DUP2 SLOAD PUSH2 0xA21 DUP2 PUSH2 0x709 JUMP JUMPDEST PUSH2 0xA2B DUP2 DUP7 PUSH2 0x63B JUMP JUMPDEST SWAP5 POP PUSH1 0x1 DUP3 AND PUSH0 DUP2 EQ PUSH2 0xA45 JUMPI PUSH1 0x1 DUP2 EQ PUSH2 0xA5A JUMPI PUSH2 0xA8C JUMP JUMPDEST PUSH1 0xFF NOT DUP4 AND DUP7 MSTORE DUP2 ISZERO ISZERO DUP3 MUL DUP7 ADD SWAP4 POP PUSH2 0xA8C JUMP JUMPDEST PUSH2 0xA63 DUP6 PUSH2 0x739 JUMP JUMPDEST PUSH0 JUMPDEST DUP4 DUP2 LT ISZERO PUSH2 0xA84 JUMPI DUP2 SLOAD DUP2 DUP10 ADD MSTORE PUSH1 0x1 DUP3 ADD SWAP2 POP PUSH1 0x20 DUP2 ADD SWAP1 POP PUSH2 0xA65 JUMP JUMPDEST DUP4 DUP9 ADD SWAP6 POP POP POP JUMPDEST POP POP POP SWAP3 SWAP2 POP POP JUMP JUMPDEST PUSH0 PUSH2 0xA9F DUP3 PUSH2 0x9F3 JUMP JUMPDEST SWAP2 POP PUSH2 0xAAB DUP3 DUP5 PUSH2 0xA15 JUMP JUMPDEST SWAP2 POP DUP2 SWAP1 POP SWAP3 SWAP2 POP POP JUMP INVALID LOG2 PUSH5 0x6970667358 0x22 SLT KECCAK256 EXTCODECOPY 0xF9 0xE 0xB8 0xA7 0xB5 0x2E 0xC6 0x25 SWAP1 SELFBALANCE NUMBER 0xE GT 0xB1 DUP2 0x2F EXTCODESIZE SWAP15 PUSH11 0x9A013421C3D336EE83A149 PUSH30 0x64736F6C634300081A003300000000000000000000000000000000000000 "
		},
		"gasEstimates": {
			"creation": {
				"codeDepositCost": "559200",
				"executionCost": "592",
				"totalCost": "559792"
			},
			"external": {
				"allocate(string,string)": "infinite",
				"employee()": "infinite",
				"join(string,string,uint256)": "infinite",
				"nextSteps()": "infinite"
			},
			"internal": {
				"sendWelcomeEmail()": "infinite"
			}
		},
		"methodIdentifiers": {
			"allocate(string,string)": "9e195b90",
			"employee()": "a0a1a7d7",
			"join(string,string,uint256)": "cf4eacaf",
			"nextSteps()": "4017b86d"
		}
	},
	"abi": [
		{
			"inputs": [
				{
					"internalType": "string",
					"name": "_employeeId",
					"type": "string"
				},
				{
					"internalType": "string",
					"name": "_projectId",
					"type": "string"
				}
			],
			"name": "allocate",
			"outputs": [
				{
					"internalType": "string",
					"name": "",
					"type": "string"
				}
			],
			"stateMutability": "view",
			"type": "function"
		},
		{
			"inputs": [],
			"name": "employee",
			"outputs": [
				{
					"internalType": "string",
					"name": "name",
					"type": "string"
				},
				{
					"internalType": "string",
					"name": "email",
					"type": "string"
				},
				{
					"internalType": "uint256",
					"name": "salary",
					"type": "uint256"
				}
			],
			"stateMutability": "view",
			"type": "function"
		},
		{
			"inputs": [
				{
					"internalType": "string",
					"name": "_name",
					"type": "string"
				},
				{
					"internalType": "string",
					"name": "_email",
					"type": "string"
				},
				{
					"internalType": "uint256",
					"name": "_salary",
					"type": "uint256"
				}
			],
			"name": "join",
			"outputs": [],
			"stateMutability": "nonpayable",
			"type": "function"
		},
		{
			"inputs": [],
			"name": "nextSteps",
			"outputs": [
				{
					"internalType": "string",
					"name": "",
					"type": "string"
				}
			],
			"stateMutability": "view",
			"type": "function"
		}
	]
}