{
	"contracts/MilestoneMarket.sol": {
		"MilestoneMarket": {
			"abi": [
				{
					"inputs": [
						{
							"internalType": "address",
							"name": "_token",
							"type": "address"
						},
						{
							"internalType": "uint256",
							"name": "_threshold",
							"type": "uint256"
						},
						{
							"internalType": "uint256",
							"name": "_deadline",
							"type": "uint256"
						},
						{
							"internalType": "address",
							"name": "_creator",
							"type": "address"
						},
						{
							"internalType": "uint256",
							"name": "_currentSupply",
							"type": "uint256"
						}
					],
					"stateMutability": "nonpayable",
					"type": "constructor"
				},
				{
					"anonymous": false,
					"inputs": [
						{
							"indexed": true,
							"internalType": "address",
							"name": "user",
							"type": "address"
						},
						{
							"indexed": false,
							"internalType": "uint256",
							"name": "amount",
							"type": "uint256"
						}
					],
					"name": "Claimed",
					"type": "event"
				},
				{
					"anonymous": false,
					"inputs": [
						{
							"indexed": true,
							"internalType": "address",
							"name": "user",
							"type": "address"
						},
						{
							"indexed": false,
							"internalType": "bool",
							"name": "isYes",
							"type": "bool"
						},
						{
							"indexed": false,
							"internalType": "uint256",
							"name": "amount",
							"type": "uint256"
						}
					],
					"name": "Deposited",
					"type": "event"
				},
				{
					"anonymous": false,
					"inputs": [
						{
							"indexed": false,
							"internalType": "bool",
							"name": "reached",
							"type": "bool"
						}
					],
					"name": "Resolved",
					"type": "event"
				},
				{
					"anonymous": false,
					"inputs": [
						{
							"indexed": false,
							"internalType": "uint256",
							"name": "newSupply",
							"type": "uint256"
						}
					],
					"name": "SupplyUpdated",
					"type": "event"
				},
				{
					"inputs": [],
					"name": "checkMilestone",
					"outputs": [
						{
							"internalType": "bool",
							"name": "",
							"type": "bool"
						}
					],
					"stateMutability": "view",
					"type": "function"
				},
				{
					"inputs": [],
					"name": "claim",
					"outputs": [],
					"stateMutability": "nonpayable",
					"type": "function"
				},
				{
					"inputs": [
						{
							"internalType": "address",
							"name": "",
							"type": "address"
						}
					],
					"name": "claimed",
					"outputs": [
						{
							"internalType": "bool",
							"name": "",
							"type": "bool"
						}
					],
					"stateMutability": "view",
					"type": "function"
				},
				{
					"inputs": [],
					"name": "creator",
					"outputs": [
						{
							"internalType": "address",
							"name": "",
							"type": "address"
						}
					],
					"stateMutability": "view",
					"type": "function"
				},
				{
					"inputs": [],
					"name": "deadline",
					"outputs": [
						{
							"internalType": "uint256",
							"name": "",
							"type": "uint256"
						}
					],
					"stateMutability": "view",
					"type": "function"
				},
				{
					"inputs": [],
					"name": "depositNo",
					"outputs": [],
					"stateMutability": "payable",
					"type": "function"
				},
				{
					"inputs": [],
					"name": "depositYes",
					"outputs": [],
					"stateMutability": "payable",
					"type": "function"
				},
				{
					"inputs": [],
					"name": "initialSupply",
					"outputs": [
						{
							"internalType": "uint256",
							"name": "",
							"type": "uint256"
						}
					],
					"stateMutability": "view",
					"type": "function"
				},
				{
					"inputs": [],
					"name": "latestSupply",
					"outputs": [
						{
							"internalType": "uint256",
							"name": "",
							"type": "uint256"
						}
					],
					"stateMutability": "view",
					"type": "function"
				},
				{
					"inputs": [
						{
							"internalType": "address",
							"name": "",
							"type": "address"
						}
					],
					"name": "noDeposits",
					"outputs": [
						{
							"internalType": "uint256",
							"name": "",
							"type": "uint256"
						}
					],
					"stateMutability": "view",
					"type": "function"
				},
				{
					"inputs": [],
					"name": "reached",
					"outputs": [
						{
							"internalType": "bool",
							"name": "",
							"type": "bool"
						}
					],
					"stateMutability": "view",
					"type": "function"
				},
				{
					"inputs": [],
					"name": "resolve",
					"outputs": [],
					"stateMutability": "nonpayable",
					"type": "function"
				},
				{
					"inputs": [],
					"name": "resolved",
					"outputs": [
						{
							"internalType": "bool",
							"name": "",
							"type": "bool"
						}
					],
					"stateMutability": "view",
					"type": "function"
				},
				{
					"inputs": [],
					"name": "threshold",
					"outputs": [
						{
							"internalType": "uint256",
							"name": "",
							"type": "uint256"
						}
					],
					"stateMutability": "view",
					"type": "function"
				},
				{
					"inputs": [],
					"name": "token",
					"outputs": [
						{
							"internalType": "address",
							"name": "",
							"type": "address"
						}
					],
					"stateMutability": "view",
					"type": "function"
				},
				{
					"inputs": [],
					"name": "totalNo",
					"outputs": [
						{
							"internalType": "uint256",
							"name": "",
							"type": "uint256"
						}
					],
					"stateMutability": "view",
					"type": "function"
				},
				{
					"inputs": [],
					"name": "totalYes",
					"outputs": [
						{
							"internalType": "uint256",
							"name": "",
							"type": "uint256"
						}
					],
					"stateMutability": "view",
					"type": "function"
				},
				{
					"inputs": [
						{
							"internalType": "uint256",
							"name": "_newSupply",
							"type": "uint256"
						}
					],
					"name": "updateSupply",
					"outputs": [],
					"stateMutability": "nonpayable",
					"type": "function"
				},
				{
					"inputs": [
						{
							"internalType": "address",
							"name": "",
							"type": "address"
						}
					],
					"name": "yesDeposits",
					"outputs": [
						{
							"internalType": "uint256",
							"name": "",
							"type": "uint256"
						}
					],
					"stateMutability": "view",
					"type": "function"
				}
			],
			"devdoc": {
				"kind": "dev",
				"methods": {},
				"version": 1
			},
			"evm": {
				"assembly": "    /* \"contracts/MilestoneMarket.sol\":127:4058  contract MilestoneMarket is ReentrancyGuard {... */\n  mstore(0x40, 0x0120)\n    /* \"contracts/MilestoneMarket.sol\":922:1448  constructor(... */\n  callvalue\n  dup1\n  iszero\n  tag_1\n  jumpi\n  revert(0x00, 0x00)\ntag_1:\n  pop\n  mload(0x40)\n  sub(codesize, bytecodeSize)\n  dup1\n  bytecodeSize\n  dup4\n  codecopy\n  dup2\n  dup2\n  add\n  0x40\n  mstore\n  dup2\n  add\n  swap1\n  tag_2\n  swap2\n  swap1\n  tag_3\n  jump\t// in\ntag_2:\n    /* \"@openzeppelin/contracts/security/ReentrancyGuard.sol\":1716:1717  1 */\n  0x01\n    /* \"@openzeppelin/contracts/security/ReentrancyGuard.sol\":1821:1828  _status */\n  0x00\n    /* \"@openzeppelin/contracts/security/ReentrancyGuard.sol\":1821:1843  _status = _NOT_ENTERED */\n  dup2\n  swap1\n  sstore\n  pop\n    /* \"contracts/MilestoneMarket.sol\":1114:1129  block.timestamp */\n  timestamp\n    /* \"contracts/MilestoneMarket.sol\":1102:1111  _deadline */\n  dup4\n    /* \"contracts/MilestoneMarket.sol\":1102:1129  _deadline > block.timestamp */\n  gt\n    /* \"contracts/MilestoneMarket.sol\":1094:1150  require(_deadline > block.timestamp, \"Deadline in past\") */\n  tag_8\n  jumpi\n  mload(0x40)\n  0x08c379a000000000000000000000000000000000000000000000000000000000\n  dup2\n  mstore\n  0x04\n  add\n  tag_9\n  swap1\n  tag_10\n  jump\t// in\ntag_9:\n  mload(0x40)\n  dup1\n  swap2\n  sub\n  swap1\n  revert\ntag_8:\n    /* \"contracts/MilestoneMarket.sol\":1182:1196  _currentSupply */\n  dup1\n    /* \"contracts/MilestoneMarket.sol\":1169:1179  _threshold */\n  dup5\n    /* \"contracts/MilestoneMarket.sol\":1169:1196  _threshold > _currentSupply */\n  gt\n    /* \"contracts/MilestoneMarket.sol\":1161:1237  require(_threshold > _currentSupply, \"Threshold must exceed current supply\") */\n  tag_11\n  jumpi\n  mload(0x40)\n  0x08c379a000000000000000000000000000000000000000000000000000000000\n  dup2\n  mstore\n  0x04\n  add\n  tag_12\n  swap1\n  tag_13\n  jump\t// in\ntag_12:\n  mload(0x40)\n  dup1\n  swap2\n  sub\n  swap1\n  revert\ntag_11:\n    /* \"contracts/MilestoneMarket.sol\":1258:1264  _token */\n  dup5\n    /* \"contracts/MilestoneMarket.sol\":1250:1264  token = _token */\n  0xffffffffffffffffffffffffffffffffffffffff\n  and\n  0x80\n  dup2\n  0xffffffffffffffffffffffffffffffffffffffff\n  and\n  dup2\n  mstore\n  pop\n  pop\n    /* \"contracts/MilestoneMarket.sol\":1287:1297  _threshold */\n  dup4\n    /* \"contracts/MilestoneMarket.sol\":1275:1297  threshold = _threshold */\n  0xa0\n  dup2\n  dup2\n  mstore\n  pop\n  pop\n    /* \"contracts/MilestoneMarket.sol\":1319:1328  _deadline */\n  dup3\n    /* \"contracts/MilestoneMarket.sol\":1308:1328  deadline = _deadline */\n  0xc0\n  dup2\n  dup2\n  mstore\n  pop\n  pop\n    /* \"contracts/MilestoneMarket.sol\":1349:1357  _creator */\n  dup2\n    /* \"contracts/MilestoneMarket.sol\":1339:1357  creator = _creator */\n  0xffffffffffffffffffffffffffffffffffffffff\n  and\n  0xe0\n  dup2\n  0xffffffffffffffffffffffffffffffffffffffff\n  and\n  dup2\n  mstore\n  pop\n  pop\n    /* \"contracts/MilestoneMarket.sol\":1386:1400  _currentSupply */\n  dup1\n    /* \"contracts/MilestoneMarket.sol\":1370:1400  initialSupply = _currentSupply */\n  0x0100\n  dup2\n  dup2\n  mstore\n  pop\n  pop\n    /* \"contracts/MilestoneMarket.sol\":1426:1440  _currentSupply */\n  dup1\n    /* \"contracts/MilestoneMarket.sol\":1411:1423  latestSupply */\n  0x01\n    /* \"contracts/MilestoneMarket.sol\":1411:1440  latestSupply = _currentSupply */\n  dup2\n  swap1\n  sstore\n  pop\n    /* \"contracts/MilestoneMarket.sol\":922:1448  constructor(... */\n  pop\n  pop\n  pop\n  pop\n  pop\n    /* \"contracts/MilestoneMarket.sol\":127:4058  contract MilestoneMarket is ReentrancyGuard {... */\n  jump(tag_14)\n    /* \"#utility.yul\":88:205   */\ntag_16:\n    /* \"#utility.yul\":197:198   */\n  0x00\n    /* \"#utility.yul\":194:195   */\n  0x00\n    /* \"#utility.yul\":187:199   */\n  revert\n    /* \"#utility.yul\":334:460   */\ntag_18:\n    /* \"#utility.yul\":371:378   */\n  0x00\n    /* \"#utility.yul\":411:453   */\n  0xffffffffffffffffffffffffffffffffffffffff\n    /* \"#utility.yul\":404:409   */\n  dup3\n    /* \"#utility.yul\":400:454   */\n  and\n    /* \"#utility.yul\":389:454   */\n  swap1\n  pop\n    /* \"#utility.yul\":334:460   */\n  swap2\n  swap1\n  pop\n  jump\t// out\n    /* \"#utility.yul\":466:562   */\ntag_19:\n    /* \"#utility.yul\":503:510   */\n  0x00\n    /* \"#utility.yul\":532:556   */\n  tag_36\n    /* \"#utility.yul\":550:555   */\n  dup3\n    /* \"#utility.yul\":532:556   */\n  tag_18\n  jump\t// in\ntag_36:\n    /* \"#utility.yul\":521:556   */\n  swap1\n  pop\n    /* \"#utility.yul\":466:562   */\n  swap2\n  swap1\n  pop\n  jump\t// out\n    /* \"#utility.yul\":568:690   */\ntag_20:\n    /* \"#utility.yul\":641:665   */\n  tag_38\n    /* \"#utility.yul\":659:664   */\n  dup2\n    /* \"#utility.yul\":641:665   */\n  tag_19\n  jump\t// in\ntag_38:\n    /* \"#utility.yul\":634:639   */\n  dup2\n    /* \"#utility.yul\":631:666   */\n  eq\n    /* \"#utility.yul\":621:684   */\n  tag_39\n  jumpi\n    /* \"#utility.yul\":680:681   */\n  0x00\n    /* \"#utility.yul\":677:678   */\n  0x00\n    /* \"#utility.yul\":670:682   */\n  revert\n    /* \"#utility.yul\":621:684   */\ntag_39:\n    /* \"#utility.yul\":568:690   */\n  pop\n  jump\t// out\n    /* \"#utility.yul\":696:839   */\ntag_21:\n    /* \"#utility.yul\":753:758   */\n  0x00\n    /* \"#utility.yul\":784:790   */\n  dup2\n    /* \"#utility.yul\":778:791   */\n  mload\n    /* \"#utility.yul\":769:791   */\n  swap1\n  pop\n    /* \"#utility.yul\":800:833   */\n  tag_41\n    /* \"#utility.yul\":827:832   */\n  dup2\n    /* \"#utility.yul\":800:833   */\n  tag_20\n  jump\t// in\ntag_41:\n    /* \"#utility.yul\":696:839   */\n  swap3\n  swap2\n  pop\n  pop\n  jump\t// out\n    /* \"#utility.yul\":845:922   */\ntag_22:\n    /* \"#utility.yul\":882:889   */\n  0x00\n    /* \"#utility.yul\":911:916   */\n  dup2\n    /* \"#utility.yul\":900:916   */\n  swap1\n  pop\n    /* \"#utility.yul\":845:922   */\n  swap2\n  swap1\n  pop\n  jump\t// out\n    /* \"#utility.yul\":928:1050   */\ntag_23:\n    /* \"#utility.yul\":1001:1025   */\n  tag_44\n    /* \"#utility.yul\":1019:1024   */\n  dup2\n    /* \"#utility.yul\":1001:1025   */\n  tag_22\n  jump\t// in\ntag_44:\n    /* \"#utility.yul\":994:999   */\n  dup2\n    /* \"#utility.yul\":991:1026   */\n  eq\n    /* \"#utility.yul\":981:1044   */\n  tag_45\n  jumpi\n    /* \"#utility.yul\":1040:1041   */\n  0x00\n    /* \"#utility.yul\":1037:1038   */\n  0x00\n    /* \"#utility.yul\":1030:1042   */\n  revert\n    /* \"#utility.yul\":981:1044   */\ntag_45:\n    /* \"#utility.yul\":928:1050   */\n  pop\n  jump\t// out\n    /* \"#utility.yul\":1056:1199   */\ntag_24:\n    /* \"#utility.yul\":1113:1118   */\n  0x00\n    /* \"#utility.yul\":1144:1150   */\n  dup2\n    /* \"#utility.yul\":1138:1151   */\n  mload\n    /* \"#utility.yul\":1129:1151   */\n  swap1\n  pop\n    /* \"#utility.yul\":1160:1193   */\n  tag_47\n    /* \"#utility.yul\":1187:1192   */\n  dup2\n    /* \"#utility.yul\":1160:1193   */\n  tag_23\n  jump\t// in\ntag_47:\n    /* \"#utility.yul\":1056:1199   */\n  swap3\n  swap2\n  pop\n  pop\n  jump\t// out\n    /* \"#utility.yul\":1205:2182   */\ntag_3:\n    /* \"#utility.yul\":1311:1317   */\n  0x00\n    /* \"#utility.yul\":1319:1325   */\n  0x00\n    /* \"#utility.yul\":1327:1333   */\n  0x00\n    /* \"#utility.yul\":1335:1341   */\n  0x00\n    /* \"#utility.yul\":1343:1349   */\n  0x00\n    /* \"#utility.yul\":1392:1395   */\n  0xa0\n    /* \"#utility.yul\":1380:1389   */\n  dup7\n    /* \"#utility.yul\":1371:1378   */\n  dup9\n    /* \"#utility.yul\":1367:1390   */\n  sub\n    /* \"#utility.yul\":1363:1396   */\n  slt\n    /* \"#utility.yul\":1360:1480   */\n  iszero\n  tag_49\n  jumpi\n    /* \"#utility.yul\":1399:1478   */\n  tag_50\n  tag_16\n  jump\t// in\ntag_50:\n    /* \"#utility.yul\":1360:1480   */\ntag_49:\n    /* \"#utility.yul\":1519:1520   */\n  0x00\n    /* \"#utility.yul\":1544:1608   */\n  tag_51\n    /* \"#utility.yul\":1600:1607   */\n  dup9\n    /* \"#utility.yul\":1591:1597   */\n  dup3\n    /* \"#utility.yul\":1580:1589   */\n  dup10\n    /* \"#utility.yul\":1576:1598   */\n  add\n    /* \"#utility.yul\":1544:1608   */\n  tag_21\n  jump\t// in\ntag_51:\n    /* \"#utility.yul\":1534:1608   */\n  swap6\n  pop\n    /* \"#utility.yul\":1490:1618   */\n  pop\n    /* \"#utility.yul\":1657:1659   */\n  0x20\n    /* \"#utility.yul\":1683:1747   */\n  tag_52\n    /* \"#utility.yul\":1739:1746   */\n  dup9\n    /* \"#utility.yul\":1730:1736   */\n  dup3\n    /* \"#utility.yul\":1719:1728   */\n  dup10\n    /* \"#utility.yul\":1715:1737   */\n  add\n    /* \"#utility.yul\":1683:1747   */\n  tag_24\n  jump\t// in\ntag_52:\n    /* \"#utility.yul\":1673:1747   */\n  swap5\n  pop\n    /* \"#utility.yul\":1628:1757   */\n  pop\n    /* \"#utility.yul\":1796:1798   */\n  0x40\n    /* \"#utility.yul\":1822:1886   */\n  tag_53\n    /* \"#utility.yul\":1878:1885   */\n  dup9\n    /* \"#utility.yul\":1869:1875   */\n  dup3\n    /* \"#utility.yul\":1858:1867   */\n  dup10\n    /* \"#utility.yul\":1854:1876   */\n  add\n    /* \"#utility.yul\":1822:1886   */\n  tag_24\n  jump\t// in\ntag_53:\n    /* \"#utility.yul\":1812:1886   */\n  swap4\n  pop\n    /* \"#utility.yul\":1767:1896   */\n  pop\n    /* \"#utility.yul\":1935:1937   */\n  0x60\n    /* \"#utility.yul\":1961:2025   */\n  tag_54\n    /* \"#utility.yul\":2017:2024   */\n  dup9\n    /* \"#utility.yul\":2008:2014   */\n  dup3\n    /* \"#utility.yul\":1997:2006   */\n  dup10\n    /* \"#utility.yul\":1993:2015   */\n  add\n    /* \"#utility.yul\":1961:2025   */\n  tag_21\n  jump\t// in\ntag_54:\n    /* \"#utility.yul\":1951:2025   */\n  swap3\n  pop\n    /* \"#utility.yul\":1906:2035   */\n  pop\n    /* \"#utility.yul\":2074:2077   */\n  0x80\n    /* \"#utility.yul\":2101:2165   */\n  tag_55\n    /* \"#utility.yul\":2157:2164   */\n  dup9\n    /* \"#utility.yul\":2148:2154   */\n  dup3\n    /* \"#utility.yul\":2137:2146   */\n  dup10\n    /* \"#utility.yul\":2133:2155   */\n  add\n    /* \"#utility.yul\":2101:2165   */\n  tag_24\n  jump\t// in\ntag_55:\n    /* \"#utility.yul\":2091:2165   */\n  swap2\n  pop\n    /* \"#utility.yul\":2045:2175   */\n  pop\n    /* \"#utility.yul\":1205:2182   */\n  swap3\n  swap6\n  pop\n  swap3\n  swap6\n  swap1\n  swap4\n  pop\n  jump\t// out\n    /* \"#utility.yul\":2188:2357   */\ntag_25:\n    /* \"#utility.yul\":2272:2283   */\n  0x00\n    /* \"#utility.yul\":2306:2312   */\n  dup3\n    /* \"#utility.yul\":2301:2304   */\n  dup3\n    /* \"#utility.yul\":2294:2313   */\n  mstore\n    /* \"#utility.yul\":2346:2350   */\n  0x20\n    /* \"#utility.yul\":2341:2344   */\n  dup3\n    /* \"#utility.yul\":2337:2351   */\n  add\n    /* \"#utility.yul\":2322:2351   */\n  swap1\n  pop\n    /* \"#utility.yul\":2188:2357   */\n  swap3\n  swap2\n  pop\n  pop\n  jump\t// out\n    /* \"#utility.yul\":2363:2529   */\ntag_26:\n    /* \"#utility.yul\":2503:2521   */\n  0x446561646c696e6520696e207061737400000000000000000000000000000000\n    /* \"#utility.yul\":2499:2500   */\n  0x00\n    /* \"#utility.yul\":2491:2497   */\n  dup3\n    /* \"#utility.yul\":2487:2501   */\n  add\n    /* \"#utility.yul\":2480:2522   */\n  mstore\n    /* \"#utility.yul\":2363:2529   */\n  pop\n  jump\t// out\n    /* \"#utility.yul\":2535:2901   */\ntag_27:\n    /* \"#utility.yul\":2677:2680   */\n  0x00\n    /* \"#utility.yul\":2698:2765   */\n  tag_59\n    /* \"#utility.yul\":2762:2764   */\n  0x10\n    /* \"#utility.yul\":2757:2760   */\n  dup4\n    /* \"#utility.yul\":2698:2765   */\n  tag_25\n  jump\t// in\ntag_59:\n    /* \"#utility.yul\":2691:2765   */\n  swap2\n  pop\n    /* \"#utility.yul\":2774:2867   */\n  tag_60\n    /* \"#utility.yul\":2863:2866   */\n  dup3\n    /* \"#utility.yul\":2774:2867   */\n  tag_26\n  jump\t// in\ntag_60:\n    /* \"#utility.yul\":2892:2894   */\n  0x20\n    /* \"#utility.yul\":2887:2890   */\n  dup3\n    /* \"#utility.yul\":2883:2895   */\n  add\n    /* \"#utility.yul\":2876:2895   */\n  swap1\n  pop\n    /* \"#utility.yul\":2535:2901   */\n  swap2\n  swap1\n  pop\n  jump\t// out\n    /* \"#utility.yul\":2907:3326   */\ntag_10:\n    /* \"#utility.yul\":3073:3077   */\n  0x00\n    /* \"#utility.yul\":3111:3113   */\n  0x20\n    /* \"#utility.yul\":3100:3109   */\n  dup3\n    /* \"#utility.yul\":3096:3114   */\n  add\n    /* \"#utility.yul\":3088:3114   */\n  swap1\n  pop\n    /* \"#utility.yul\":3160:3169   */\n  dup2\n    /* \"#utility.yul\":3154:3158   */\n  dup2\n    /* \"#utility.yul\":3150:3170   */\n  sub\n    /* \"#utility.yul\":3146:3147   */\n  0x00\n    /* \"#utility.yul\":3135:3144   */\n  dup4\n    /* \"#utility.yul\":3131:3148   */\n  add\n    /* \"#utility.yul\":3124:3171   */\n  mstore\n    /* \"#utility.yul\":3188:3319   */\n  tag_62\n    /* \"#utility.yul\":3314:3318   */\n  dup2\n    /* \"#utility.yul\":3188:3319   */\n  tag_27\n  jump\t// in\ntag_62:\n    /* \"#utility.yul\":3180:3319   */\n  swap1\n  pop\n    /* \"#utility.yul\":2907:3326   */\n  swap2\n  swap1\n  pop\n  jump\t// out\n    /* \"#utility.yul\":3332:3555   */\ntag_28:\n    /* \"#utility.yul\":3472:3506   */\n  0x5468726573686f6c64206d757374206578636565642063757272656e74207375\n    /* \"#utility.yul\":3468:3469   */\n  0x00\n    /* \"#utility.yul\":3460:3466   */\n  dup3\n    /* \"#utility.yul\":3456:3470   */\n  add\n    /* \"#utility.yul\":3449:3507   */\n  mstore\n    /* \"#utility.yul\":3541:3547   */\n  0x70706c7900000000000000000000000000000000000000000000000000000000\n    /* \"#utility.yul\":3536:3538   */\n  0x20\n    /* \"#utility.yul\":3528:3534   */\n  dup3\n    /* \"#utility.yul\":3524:3539   */\n  add\n    /* \"#utility.yul\":3517:3548   */\n  mstore\n    /* \"#utility.yul\":3332:3555   */\n  pop\n  jump\t// out\n    /* \"#utility.yul\":3561:3927   */\ntag_29:\n    /* \"#utility.yul\":3703:3706   */\n  0x00\n    /* \"#utility.yul\":3724:3791   */\n  tag_65\n    /* \"#utility.yul\":3788:3790   */\n  0x24\n    /* \"#utility.yul\":3783:3786   */\n  dup4\n    /* \"#utility.yul\":3724:3791   */\n  tag_25\n  jump\t// in\ntag_65:\n    /* \"#utility.yul\":3717:3791   */\n  swap2\n  pop\n    /* \"#utility.yul\":3800:3893   */\n  tag_66\n    /* \"#utility.yul\":3889:3892   */\n  dup3\n    /* \"#utility.yul\":3800:3893   */\n  tag_28\n  jump\t// in\ntag_66:\n    /* \"#utility.yul\":3918:3920   */\n  0x40\n    /* \"#utility.yul\":3913:3916   */\n  dup3\n    /* \"#utility.yul\":3909:3921   */\n  add\n    /* \"#utility.yul\":3902:3921   */\n  swap1\n  pop\n    /* \"#utility.yul\":3561:3927   */\n  swap2\n  swap1\n  pop\n  jump\t// out\n    /* \"#utility.yul\":3933:4352   */\ntag_13:\n    /* \"#utility.yul\":4099:4103   */\n  0x00\n    /* \"#utility.yul\":4137:4139   */\n  0x20\n    /* \"#utility.yul\":4126:4135   */\n  dup3\n    /* \"#utility.yul\":4122:4140   */\n  add\n    /* \"#utility.yul\":4114:4140   */\n  swap1\n  pop\n    /* \"#utility.yul\":4186:4195   */\n  dup2\n    /* \"#utility.yul\":4180:4184   */\n  dup2\n    /* \"#utility.yul\":4176:4196   */\n  sub\n    /* \"#utility.yul\":4172:4173   */\n  0x00\n    /* \"#utility.yul\":4161:4170   */\n  dup4\n    /* \"#utility.yul\":4157:4174   */\n  add\n    /* \"#utility.yul\":4150:4197   */\n  mstore\n    /* \"#utility.yul\":4214:4345   */\n  tag_68\n    /* \"#utility.yul\":4340:4344   */\n  dup2\n    /* \"#utility.yul\":4214:4345   */\n  tag_29\n  jump\t// in\ntag_68:\n    /* \"#utility.yul\":4206:4345   */\n  swap1\n  pop\n    /* \"#utility.yul\":3933:4352   */\n  swap2\n  swap1\n  pop\n  jump\t// out\n    /* \"contracts/MilestoneMarket.sol\":127:4058  contract MilestoneMarket is ReentrancyGuard {... */\ntag_14:\n  mload(0x80)\n  mload(0xa0)\n  mload(0xc0)\n  mload(0xe0)\n  mload(0x0100)\n  codecopy(0x00, dataOffset(sub_0), dataSize(sub_0))\n  0x00\n  assignImmutable(\"0x73aad4ff595a8813cc7d440d244545017c77098528f010a7caaa7d74c382f6c5\")\n  0x00\n  assignImmutable(\"0x1b6edb65b6c2611a7285cc668f4110f574a7bc3b0d28690b40a16f141eada39a\")\n  0x00\n  assignImmutable(\"0xa65d03add95baf22e482ebcd3423aa9bf9d8b0ec3fca2831960080b84536d360\")\n  0x00\n  assignImmutable(\"0xc7d00ca82740de2eef417cfa47c2970dbdec49b2a6d15c64e85f83cf97939ca5\")\n  0x00\n  assignImmutable(\"0x0330c0d84464f890f3c81afbba7a3a05e0e864ec2e31676dedcb075b2bf855a0\")\n  return(0x00, dataSize(sub_0))\nstop\n\nsub_0: assembly {\n        /* \"contracts/MilestoneMarket.sol\":127:4058  contract MilestoneMarket is ReentrancyGuard {... */\n      mstore(0x40, 0x80)\n      jumpi(tag_1, lt(calldatasize, 0x04))\n      shr(0xe0, calldataload(0x00))\n      dup1\n      0x648d15a9\n      gt\n      tag_21\n      jumpi\n      dup1\n      0xaf008883\n      gt\n      tag_22\n      jumpi\n      dup1\n      0xaf008883\n      eq\n      tag_16\n      jumpi\n      dup1\n      0xbca1e4cb\n      eq\n      tag_17\n      jumpi\n      dup1\n      0xc884ef83\n      eq\n      tag_18\n      jumpi\n      dup1\n      0xd9c0ad60\n      eq\n      tag_19\n      jumpi\n      dup1\n      0xfc0c546a\n      eq\n      tag_20\n      jumpi\n      jump(tag_1)\n    tag_22:\n      dup1\n      0x648d15a9\n      eq\n      tag_11\n      jumpi\n      dup1\n      0x6a40b829\n      eq\n      tag_12\n      jumpi\n      dup1\n      0x6bd08049\n      eq\n      tag_13\n      jumpi\n      dup1\n      0x88ba8dd6\n      eq\n      tag_14\n      jumpi\n      dup1\n      0xa2fea6f7\n      eq\n      tag_15\n      jumpi\n      jump(tag_1)\n    tag_21:\n      dup1\n      0x378dc3dc\n      gt\n      tag_23\n      jumpi\n      dup1\n      0x378dc3dc\n      eq\n      tag_6\n      jumpi\n      dup1\n      0x39a50508\n      eq\n      tag_7\n      jumpi\n      dup1\n      0x3f6fa655\n      eq\n      tag_8\n      jumpi\n      dup1\n      0x42cde4e8\n      eq\n      tag_9\n      jumpi\n      dup1\n      0x4e71d92d\n      eq\n      tag_10\n      jumpi\n      jump(tag_1)\n    tag_23:\n      dup1\n      0x02d05d3f\n      eq\n      tag_2\n      jumpi\n      dup1\n      0x2810e1d6\n      eq\n      tag_3\n      jumpi\n      dup1\n      0x29dcb0cf\n      eq\n      tag_4\n      jumpi\n      dup1\n      0x2ec40ac8\n      eq\n      tag_5\n      jumpi\n    tag_1:\n      revert(0x00, 0x00)\n        /* \"contracts/MilestoneMarket.sol\":296:328  address public immutable creator */\n    tag_2:\n      callvalue\n      dup1\n      iszero\n      tag_24\n      jumpi\n      revert(0x00, 0x00)\n    tag_24:\n      pop\n      tag_25\n      tag_26\n      jump\t// in\n    tag_25:\n      mload(0x40)\n      tag_27\n      swap2\n      swap1\n      tag_28\n      jump\t// in\n    tag_27:\n      mload(0x40)\n      dup1\n      swap2\n      sub\n      swap1\n      return\n        /* \"contracts/MilestoneMarket.sol\":2637:2882  function resolve() external {... */\n    tag_3:\n      callvalue\n      dup1\n      iszero\n      tag_29\n      jumpi\n      revert(0x00, 0x00)\n    tag_29:\n      pop\n      tag_30\n      tag_31\n      jump\t// in\n    tag_30:\n      stop\n        /* \"contracts/MilestoneMarket.sol\":256:289  uint256 public immutable deadline */\n    tag_4:\n      callvalue\n      dup1\n      iszero\n      tag_32\n      jumpi\n      revert(0x00, 0x00)\n    tag_32:\n      pop\n      tag_33\n      tag_34\n      jump\t// in\n    tag_33:\n      mload(0x40)\n      tag_35\n      swap2\n      swap1\n      tag_36\n      jump\t// in\n    tag_35:\n      mload(0x40)\n      dup1\n      swap2\n      sub\n      swap1\n      return\n        /* \"contracts/MilestoneMarket.sol\":445:464  bool public reached */\n    tag_5:\n      callvalue\n      dup1\n      iszero\n      tag_37\n      jumpi\n      revert(0x00, 0x00)\n    tag_37:\n      pop\n      tag_38\n      tag_39\n      jump\t// in\n    tag_38:\n      mload(0x40)\n      tag_40\n      swap2\n      swap1\n      tag_41\n      jump\t// in\n    tag_40:\n      mload(0x40)\n      dup1\n      swap2\n      sub\n      swap1\n      return\n        /* \"contracts/MilestoneMarket.sol\":337:375  uint256 public immutable initialSupply */\n    tag_6:\n      callvalue\n      dup1\n      iszero\n      tag_42\n      jumpi\n      revert(0x00, 0x00)\n    tag_42:\n      pop\n      tag_43\n      tag_44\n      jump\t// in\n    tag_43:\n      mload(0x40)\n      tag_45\n      swap2\n      swap1\n      tag_36\n      jump\t// in\n    tag_45:\n      mload(0x40)\n      dup1\n      swap2\n      sub\n      swap1\n      return\n        /* \"contracts/MilestoneMarket.sol\":2504:2608  function checkMilestone() public view returns (bool) {... */\n    tag_7:\n      callvalue\n      dup1\n      iszero\n      tag_46\n      jumpi\n      revert(0x00, 0x00)\n    tag_46:\n      pop\n      tag_47\n      tag_48\n      jump\t// in\n    tag_47:\n      mload(0x40)\n      tag_49\n      swap2\n      swap1\n      tag_41\n      jump\t// in\n    tag_49:\n      mload(0x40)\n      dup1\n      swap2\n      sub\n      swap1\n      return\n        /* \"contracts/MilestoneMarket.sol\":418:438  bool public resolved */\n    tag_8:\n      callvalue\n      dup1\n      iszero\n      tag_50\n      jumpi\n      revert(0x00, 0x00)\n    tag_50:\n      pop\n      tag_51\n      tag_52\n      jump\t// in\n    tag_51:\n      mload(0x40)\n      tag_53\n      swap2\n      swap1\n      tag_41\n      jump\t// in\n    tag_53:\n      mload(0x40)\n      dup1\n      swap2\n      sub\n      swap1\n      return\n        /* \"contracts/MilestoneMarket.sol\":215:249  uint256 public immutable threshold */\n    tag_9:\n      callvalue\n      dup1\n      iszero\n      tag_54\n      jumpi\n      revert(0x00, 0x00)\n    tag_54:\n      pop\n      tag_55\n      tag_56\n      jump\t// in\n    tag_55:\n      mload(0x40)\n      tag_57\n      swap2\n      swap1\n      tag_36\n      jump\t// in\n    tag_57:\n      mload(0x40)\n      dup1\n      swap2\n      sub\n      swap1\n      return\n        /* \"contracts/MilestoneMarket.sol\":2918:4055  function claim() external nonReentrant {... */\n    tag_10:\n      callvalue\n      dup1\n      iszero\n      tag_58\n      jumpi\n      revert(0x00, 0x00)\n    tag_58:\n      pop\n      tag_59\n      tag_60\n      jump\t// in\n    tag_59:\n      stop\n        /* \"contracts/MilestoneMarket.sol\":494:540  mapping(address => uint256) public yesDeposits */\n    tag_11:\n      callvalue\n      dup1\n      iszero\n      tag_61\n      jumpi\n      revert(0x00, 0x00)\n    tag_61:\n      pop\n      tag_62\n      0x04\n      dup1\n      calldatasize\n      sub\n      dup2\n      add\n      swap1\n      tag_63\n      swap2\n      swap1\n      tag_64\n      jump\t// in\n    tag_63:\n      tag_65\n      jump\t// in\n    tag_62:\n      mload(0x40)\n      tag_66\n      swap2\n      swap1\n      tag_36\n      jump\t// in\n    tag_66:\n      mload(0x40)\n      dup1\n      swap2\n      sub\n      swap1\n      return\n        /* \"contracts/MilestoneMarket.sol\":1727:2084  function depositYes() external payable nonReentrant {... */\n    tag_12:\n      tag_67\n      tag_68\n      jump\t// in\n    tag_67:\n      stop\n        /* \"contracts/MilestoneMarket.sol\":1513:1698  function updateSupply(uint256 _newSupply) external {... */\n    tag_13:\n      callvalue\n      dup1\n      iszero\n      tag_69\n      jumpi\n      revert(0x00, 0x00)\n    tag_69:\n      pop\n      tag_70\n      0x04\n      dup1\n      calldatasize\n      sub\n      dup2\n      add\n      swap1\n      tag_71\n      swap2\n      swap1\n      tag_72\n      jump\t// in\n    tag_71:\n      tag_73\n      jump\t// in\n    tag_70:\n      stop\n        /* \"contracts/MilestoneMarket.sol\":601:624  uint256 public totalYes */\n    tag_14:\n      callvalue\n      dup1\n      iszero\n      tag_74\n      jumpi\n      revert(0x00, 0x00)\n    tag_74:\n      pop\n      tag_75\n      tag_76\n      jump\t// in\n    tag_75:\n      mload(0x40)\n      tag_77\n      swap2\n      swap1\n      tag_36\n      jump\t// in\n    tag_77:\n      mload(0x40)\n      dup1\n      swap2\n      sub\n      swap1\n      return\n        /* \"contracts/MilestoneMarket.sol\":547:592  mapping(address => uint256) public noDeposits */\n    tag_15:\n      callvalue\n      dup1\n      iszero\n      tag_78\n      jumpi\n      revert(0x00, 0x00)\n    tag_78:\n      pop\n      tag_79\n      0x04\n      dup1\n      calldatasize\n      sub\n      dup2\n      add\n      swap1\n      tag_80\n      swap2\n      swap1\n      tag_64\n      jump\t// in\n    tag_80:\n      tag_81\n      jump\t// in\n    tag_79:\n      mload(0x40)\n      tag_82\n      swap2\n      swap1\n      tag_36\n      jump\t// in\n    tag_82:\n      mload(0x40)\n      dup1\n      swap2\n      sub\n      swap1\n      return\n        /* \"contracts/MilestoneMarket.sol\":631:653  uint256 public totalNo */\n    tag_16:\n      callvalue\n      dup1\n      iszero\n      tag_83\n      jumpi\n      revert(0x00, 0x00)\n    tag_83:\n      pop\n      tag_84\n      tag_85\n      jump\t// in\n    tag_84:\n      mload(0x40)\n      tag_86\n      swap2\n      swap1\n      tag_36\n      jump\t// in\n    tag_86:\n      mload(0x40)\n      dup1\n      swap2\n      sub\n      swap1\n      return\n        /* \"contracts/MilestoneMarket.sol\":382:409  uint256 public latestSupply */\n    tag_17:\n      callvalue\n      dup1\n      iszero\n      tag_87\n      jumpi\n      revert(0x00, 0x00)\n    tag_87:\n      pop\n      tag_88\n      tag_89\n      jump\t// in\n    tag_88:\n      mload(0x40)\n      tag_90\n      swap2\n      swap1\n      tag_36\n      jump\t// in\n    tag_90:\n      mload(0x40)\n      dup1\n      swap2\n      sub\n      swap1\n      return\n        /* \"contracts/MilestoneMarket.sol\":662:701  mapping(address => bool) public claimed */\n    tag_18:\n      callvalue\n      dup1\n      iszero\n      tag_91\n      jumpi\n      revert(0x00, 0x00)\n    tag_91:\n      pop\n      tag_92\n      0x04\n      dup1\n      calldatasize\n      sub\n      dup2\n      add\n      swap1\n      tag_93\n      swap2\n      swap1\n      tag_64\n      jump\t// in\n    tag_93:\n      tag_94\n      jump\t// in\n    tag_92:\n      mload(0x40)\n      tag_95\n      swap2\n      swap1\n      tag_41\n      jump\t// in\n    tag_95:\n      mload(0x40)\n      dup1\n      swap2\n      sub\n      swap1\n      return\n        /* \"contracts/MilestoneMarket.sol\":2112:2467  function depositNo() external payable nonReentrant {... */\n    tag_19:\n      tag_96\n      tag_97\n      jump\t// in\n    tag_96:\n      stop\n        /* \"contracts/MilestoneMarket.sol\":178:208  address public immutable token */\n    tag_20:\n      callvalue\n      dup1\n      iszero\n      tag_98\n      jumpi\n      revert(0x00, 0x00)\n    tag_98:\n      pop\n      tag_99\n      tag_100\n      jump\t// in\n    tag_99:\n      mload(0x40)\n      tag_101\n      swap2\n      swap1\n      tag_28\n      jump\t// in\n    tag_101:\n      mload(0x40)\n      dup1\n      swap2\n      sub\n      swap1\n      return\n        /* \"contracts/MilestoneMarket.sol\":296:328  address public immutable creator */\n    tag_26:\n      immutable(\"0x1b6edb65b6c2611a7285cc668f4110f574a7bc3b0d28690b40a16f141eada39a\")\n      dup2\n      jump\t// out\n        /* \"contracts/MilestoneMarket.sol\":2637:2882  function resolve() external {... */\n    tag_31:\n        /* \"contracts/MilestoneMarket.sol\":2703:2711  deadline */\n      immutable(\"0xa65d03add95baf22e482ebcd3423aa9bf9d8b0ec3fca2831960080b84536d360\")\n        /* \"contracts/MilestoneMarket.sol\":2684:2699  block.timestamp */\n      timestamp\n        /* \"contracts/MilestoneMarket.sol\":2684:2711  block.timestamp >= deadline */\n      lt\n      iszero\n        /* \"contracts/MilestoneMarket.sol\":2676:2725  require(block.timestamp >= deadline, \"Not ended\") */\n      tag_103\n      jumpi\n      mload(0x40)\n      0x08c379a000000000000000000000000000000000000000000000000000000000\n      dup2\n      mstore\n      0x04\n      add\n      tag_104\n      swap1\n      tag_105\n      jump\t// in\n    tag_104:\n      mload(0x40)\n      dup1\n      swap2\n      sub\n      swap1\n      revert\n    tag_103:\n        /* \"contracts/MilestoneMarket.sol\":2745:2753  resolved */\n      0x02\n      0x00\n      swap1\n      sload\n      swap1\n      0x0100\n      exp\n      swap1\n      div\n      0xff\n      and\n        /* \"contracts/MilestoneMarket.sol\":2744:2753  !resolved */\n      iszero\n        /* \"contracts/MilestoneMarket.sol\":2736:2774  require(!resolved, \"Already resolved\") */\n      tag_106\n      jumpi\n      mload(0x40)\n      0x08c379a000000000000000000000000000000000000000000000000000000000\n      dup2\n      mstore\n      0x04\n      add\n      tag_107\n      swap1\n      tag_108\n      jump\t// in\n    tag_107:\n      mload(0x40)\n      dup1\n      swap2\n      sub\n      swap1\n      revert\n    tag_106:\n        /* \"contracts/MilestoneMarket.sol\":2797:2813  checkMilestone() */\n      tag_109\n        /* \"contracts/MilestoneMarket.sol\":2797:2811  checkMilestone */\n      tag_48\n        /* \"contracts/MilestoneMarket.sol\":2797:2813  checkMilestone() */\n      jump\t// in\n    tag_109:\n        /* \"contracts/MilestoneMarket.sol\":2787:2794  reached */\n      0x02\n      0x01\n        /* \"contracts/MilestoneMarket.sol\":2787:2813  reached = checkMilestone() */\n      0x0100\n      exp\n      dup2\n      sload\n      dup2\n      0xff\n      mul\n      not\n      and\n      swap1\n      dup4\n      iszero\n      iszero\n      mul\n      or\n      swap1\n      sstore\n      pop\n        /* \"contracts/MilestoneMarket.sol\":2835:2839  true */\n      0x01\n        /* \"contracts/MilestoneMarket.sol\":2824:2832  resolved */\n      0x02\n      0x00\n        /* \"contracts/MilestoneMarket.sol\":2824:2839  resolved = true */\n      0x0100\n      exp\n      dup2\n      sload\n      dup2\n      0xff\n      mul\n      not\n      and\n      swap1\n      dup4\n      iszero\n      iszero\n      mul\n      or\n      swap1\n      sstore\n      pop\n        /* \"contracts/MilestoneMarket.sol\":2857:2874  Resolved(reached) */\n      0xdabf623a6bec72ad159e2d9533e7149ec45bfc657e39f49fb6a9509852dc77dc\n        /* \"contracts/MilestoneMarket.sol\":2866:2873  reached */\n      0x02\n      0x01\n      swap1\n      sload\n      swap1\n      0x0100\n      exp\n      swap1\n      div\n      0xff\n      and\n        /* \"contracts/MilestoneMarket.sol\":2857:2874  Resolved(reached) */\n      mload(0x40)\n      tag_110\n      swap2\n      swap1\n      tag_41\n      jump\t// in\n    tag_110:\n      mload(0x40)\n      dup1\n      swap2\n      sub\n      swap1\n      log1\n        /* \"contracts/MilestoneMarket.sol\":2637:2882  function resolve() external {... */\n      jump\t// out\n        /* \"contracts/MilestoneMarket.sol\":256:289  uint256 public immutable deadline */\n    tag_34:\n      immutable(\"0xa65d03add95baf22e482ebcd3423aa9bf9d8b0ec3fca2831960080b84536d360\")\n      dup2\n      jump\t// out\n        /* \"contracts/MilestoneMarket.sol\":445:464  bool public reached */\n    tag_39:\n      0x02\n      0x01\n      swap1\n      sload\n      swap1\n      0x0100\n      exp\n      swap1\n      div\n      0xff\n      and\n      dup2\n      jump\t// out\n        /* \"contracts/MilestoneMarket.sol\":337:375  uint256 public immutable initialSupply */\n    tag_44:\n      immutable(\"0x73aad4ff595a8813cc7d440d244545017c77098528f010a7caaa7d74c382f6c5\")\n      dup2\n      jump\t// out\n        /* \"contracts/MilestoneMarket.sol\":2504:2608  function checkMilestone() public view returns (bool) {... */\n    tag_48:\n        /* \"contracts/MilestoneMarket.sol\":2551:2555  bool */\n      0x00\n        /* \"contracts/MilestoneMarket.sol\":2591:2600  threshold */\n      immutable(\"0xc7d00ca82740de2eef417cfa47c2970dbdec49b2a6d15c64e85f83cf97939ca5\")\n        /* \"contracts/MilestoneMarket.sol\":2575:2587  latestSupply */\n      sload(0x01)\n        /* \"contracts/MilestoneMarket.sol\":2575:2600  latestSupply >= threshold */\n      lt\n      iszero\n        /* \"contracts/MilestoneMarket.sol\":2568:2600  return latestSupply >= threshold */\n      swap1\n      pop\n        /* \"contracts/MilestoneMarket.sol\":2504:2608  function checkMilestone() public view returns (bool) {... */\n      swap1\n      jump\t// out\n        /* \"contracts/MilestoneMarket.sol\":418:438  bool public resolved */\n    tag_52:\n      0x02\n      0x00\n      swap1\n      sload\n      swap1\n      0x0100\n      exp\n      swap1\n      div\n      0xff\n      and\n      dup2\n      jump\t// out\n        /* \"contracts/MilestoneMarket.sol\":215:249  uint256 public immutable threshold */\n    tag_56:\n      immutable(\"0xc7d00ca82740de2eef417cfa47c2970dbdec49b2a6d15c64e85f83cf97939ca5\")\n      dup2\n      jump\t// out\n        /* \"contracts/MilestoneMarket.sol\":2918:4055  function claim() external nonReentrant {... */\n    tag_60:\n        /* \"@openzeppelin/contracts/security/ReentrancyGuard.sol\":2261:2282  _nonReentrantBefore() */\n      tag_113\n        /* \"@openzeppelin/contracts/security/ReentrancyGuard.sol\":2261:2280  _nonReentrantBefore */\n      tag_114\n        /* \"@openzeppelin/contracts/security/ReentrancyGuard.sol\":2261:2282  _nonReentrantBefore() */\n      jump\t// in\n    tag_113:\n        /* \"contracts/MilestoneMarket.sol\":2976:2984  resolved */\n      0x02\n      0x00\n      swap1\n      sload\n      swap1\n      0x0100\n      exp\n      swap1\n      div\n      0xff\n      and\n        /* \"contracts/MilestoneMarket.sol\":2968:3001  require(resolved, \"Not resolved\") */\n      tag_116\n      jumpi\n      mload(0x40)\n      0x08c379a000000000000000000000000000000000000000000000000000000000\n      dup2\n      mstore\n      0x04\n      add\n      tag_117\n      swap1\n      tag_118\n      jump\t// in\n    tag_117:\n      mload(0x40)\n      dup1\n      swap2\n      sub\n      swap1\n      revert\n    tag_116:\n        /* \"contracts/MilestoneMarket.sol\":3021:3028  claimed */\n      0x07\n        /* \"contracts/MilestoneMarket.sol\":3021:3040  claimed[msg.sender] */\n      0x00\n        /* \"contracts/MilestoneMarket.sol\":3029:3039  msg.sender */\n      caller\n        /* \"contracts/MilestoneMarket.sol\":3021:3040  claimed[msg.sender] */\n      0xffffffffffffffffffffffffffffffffffffffff\n      and\n      0xffffffffffffffffffffffffffffffffffffffff\n      and\n      dup2\n      mstore\n      0x20\n      add\n      swap1\n      dup2\n      mstore\n      0x20\n      add\n      0x00\n      keccak256\n      0x00\n      swap1\n      sload\n      swap1\n      0x0100\n      exp\n      swap1\n      div\n      0xff\n      and\n        /* \"contracts/MilestoneMarket.sol\":3020:3040  !claimed[msg.sender] */\n      iszero\n        /* \"contracts/MilestoneMarket.sol\":3012:3060  require(!claimed[msg.sender], \"Already claimed\") */\n      tag_119\n      jumpi\n      mload(0x40)\n      0x08c379a000000000000000000000000000000000000000000000000000000000\n      dup2\n      mstore\n      0x04\n      add\n      tag_120\n      swap1\n      tag_121\n      jump\t// in\n    tag_120:\n      mload(0x40)\n      dup1\n      swap2\n      sub\n      swap1\n      revert\n    tag_119:\n        /* \"contracts/MilestoneMarket.sol\":3073:3092  uint256 userDeposit */\n      0x00\n        /* \"contracts/MilestoneMarket.sol\":3103:3122  uint256 winningPool */\n      0x00\n        /* \"contracts/MilestoneMarket.sol\":3133:3151  uint256 losingPool */\n      0x00\n        /* \"contracts/MilestoneMarket.sol\":3168:3175  reached */\n      0x02\n      0x01\n      swap1\n      sload\n      swap1\n      0x0100\n      exp\n      swap1\n      div\n      0xff\n      and\n        /* \"contracts/MilestoneMarket.sol\":3164:3503  if (reached) {... */\n      iszero\n      tag_122\n      jumpi\n        /* \"contracts/MilestoneMarket.sol\":3231:3242  yesDeposits */\n      0x03\n        /* \"contracts/MilestoneMarket.sol\":3231:3254  yesDeposits[msg.sender] */\n      0x00\n        /* \"contracts/MilestoneMarket.sol\":3243:3253  msg.sender */\n      caller\n        /* \"contracts/MilestoneMarket.sol\":3231:3254  yesDeposits[msg.sender] */\n      0xffffffffffffffffffffffffffffffffffffffff\n      and\n      0xffffffffffffffffffffffffffffffffffffffff\n      and\n      dup2\n      mstore\n      0x20\n      add\n      swap1\n      dup2\n      mstore\n      0x20\n      add\n      0x00\n      keccak256\n      sload\n        /* \"contracts/MilestoneMarket.sol\":3217:3254  userDeposit = yesDeposits[msg.sender] */\n      swap3\n      pop\n        /* \"contracts/MilestoneMarket.sol\":3283:3291  totalYes */\n      sload(0x05)\n        /* \"contracts/MilestoneMarket.sol\":3269:3291  winningPool = totalYes */\n      swap2\n      pop\n        /* \"contracts/MilestoneMarket.sol\":3319:3326  totalNo */\n      sload(0x06)\n        /* \"contracts/MilestoneMarket.sol\":3306:3326  losingPool = totalNo */\n      swap1\n      pop\n        /* \"contracts/MilestoneMarket.sol\":3164:3503  if (reached) {... */\n      jump(tag_123)\n    tag_122:\n        /* \"contracts/MilestoneMarket.sol\":3397:3407  noDeposits */\n      0x04\n        /* \"contracts/MilestoneMarket.sol\":3397:3419  noDeposits[msg.sender] */\n      0x00\n        /* \"contracts/MilestoneMarket.sol\":3408:3418  msg.sender */\n      caller\n        /* \"contracts/MilestoneMarket.sol\":3397:3419  noDeposits[msg.sender] */\n      0xffffffffffffffffffffffffffffffffffffffff\n      and\n      0xffffffffffffffffffffffffffffffffffffffff\n      and\n      dup2\n      mstore\n      0x20\n      add\n      swap1\n      dup2\n      mstore\n      0x20\n      add\n      0x00\n      keccak256\n      sload\n        /* \"contracts/MilestoneMarket.sol\":3383:3419  userDeposit = noDeposits[msg.sender] */\n      swap3\n      pop\n        /* \"contracts/MilestoneMarket.sol\":3448:3455  totalNo */\n      sload(0x06)\n        /* \"contracts/MilestoneMarket.sol\":3434:3455  winningPool = totalNo */\n      swap2\n      pop\n        /* \"contracts/MilestoneMarket.sol\":3483:3491  totalYes */\n      sload(0x05)\n        /* \"contracts/MilestoneMarket.sol\":3470:3491  losingPool = totalYes */\n      swap1\n      pop\n        /* \"contracts/MilestoneMarket.sol\":3164:3503  if (reached) {... */\n    tag_123:\n        /* \"contracts/MilestoneMarket.sol\":3537:3538  0 */\n      0x00\n        /* \"contracts/MilestoneMarket.sol\":3523:3534  userDeposit */\n      dup4\n        /* \"contracts/MilestoneMarket.sol\":3523:3538  userDeposit > 0 */\n      gt\n        /* \"contracts/MilestoneMarket.sol\":3515:3554  require(userDeposit > 0, \"No winnings\") */\n      tag_124\n      jumpi\n      mload(0x40)\n      0x08c379a000000000000000000000000000000000000000000000000000000000\n      dup2\n      mstore\n      0x04\n      add\n      tag_125\n      swap1\n      tag_126\n      jump\t// in\n    tag_125:\n      mload(0x40)\n      dup1\n      swap2\n      sub\n      swap1\n      revert\n    tag_124:\n        /* \"contracts/MilestoneMarket.sol\":3589:3593  true */\n      0x01\n        /* \"contracts/MilestoneMarket.sol\":3567:3574  claimed */\n      0x07\n        /* \"contracts/MilestoneMarket.sol\":3567:3586  claimed[msg.sender] */\n      0x00\n        /* \"contracts/MilestoneMarket.sol\":3575:3585  msg.sender */\n      caller\n        /* \"contracts/MilestoneMarket.sol\":3567:3586  claimed[msg.sender] */\n      0xffffffffffffffffffffffffffffffffffffffff\n      and\n      0xffffffffffffffffffffffffffffffffffffffff\n      and\n      dup2\n      mstore\n      0x20\n      add\n      swap1\n      dup2\n      mstore\n      0x20\n      add\n      0x00\n      keccak256\n      0x00\n        /* \"contracts/MilestoneMarket.sol\":3567:3593  claimed[msg.sender] = true */\n      0x0100\n      exp\n      dup2\n      sload\n      dup2\n      0xff\n      mul\n      not\n      and\n      swap1\n      dup4\n      iszero\n      iszero\n      mul\n      or\n      swap1\n      sstore\n      pop\n        /* \"contracts/MilestoneMarket.sol\":3606:3623  uint256 totalPool */\n      0x00\n        /* \"contracts/MilestoneMarket.sol\":3640:3650  losingPool */\n      dup2\n        /* \"contracts/MilestoneMarket.sol\":3626:3637  winningPool */\n      dup4\n        /* \"contracts/MilestoneMarket.sol\":3626:3650  winningPool + losingPool */\n      tag_127\n      swap2\n      swap1\n      tag_128\n      jump\t// in\n    tag_127:\n        /* \"contracts/MilestoneMarket.sol\":3606:3650  uint256 totalPool = winningPool + losingPool */\n      swap1\n      pop\n        /* \"contracts/MilestoneMarket.sol\":3741:3742  0 */\n      0x00\n        /* \"contracts/MilestoneMarket.sol\":3727:3737  losingPool */\n      dup3\n        /* \"contracts/MilestoneMarket.sol\":3727:3742  losingPool == 0 */\n      sub\n        /* \"contracts/MilestoneMarket.sol\":3723:3885  if (losingPool == 0) {... */\n      tag_129\n      jumpi\n        /* \"contracts/MilestoneMarket.sol\":3767:3777  msg.sender */\n      caller\n        /* \"contracts/MilestoneMarket.sol\":3759:3787  payable(msg.sender).transfer */\n      0xffffffffffffffffffffffffffffffffffffffff\n      and\n        /* \"contracts/MilestoneMarket.sol\":3759:3800  payable(msg.sender).transfer(userDeposit) */\n      0x08fc\n        /* \"contracts/MilestoneMarket.sol\":3788:3799  userDeposit */\n      dup6\n        /* \"contracts/MilestoneMarket.sol\":3759:3800  payable(msg.sender).transfer(userDeposit) */\n      swap1\n      dup2\n      iszero\n      mul\n      swap1\n      mload(0x40)\n      0x00\n      mload(0x40)\n      dup1\n      dup4\n      sub\n      dup2\n      dup6\n      dup9\n      dup9\n      call\n      swap4\n      pop\n      pop\n      pop\n      pop\n      iszero\n      dup1\n      iszero\n      tag_131\n      jumpi\n      returndatacopy(0x00, 0x00, returndatasize)\n      revert(0x00, returndatasize)\n    tag_131:\n      pop\n        /* \"contracts/MilestoneMarket.sol\":3828:3838  msg.sender */\n      caller\n        /* \"contracts/MilestoneMarket.sol\":3820:3852  Claimed(msg.sender, userDeposit) */\n      0xffffffffffffffffffffffffffffffffffffffff\n      and\n      0xd8138f8a3f377c5259ca548e70e4c2de94f129f5a11036a15b69513cba2b426a\n        /* \"contracts/MilestoneMarket.sol\":3840:3851  userDeposit */\n      dup6\n        /* \"contracts/MilestoneMarket.sol\":3820:3852  Claimed(msg.sender, userDeposit) */\n      mload(0x40)\n      tag_132\n      swap2\n      swap1\n      tag_36\n      jump\t// in\n    tag_132:\n      mload(0x40)\n      dup1\n      swap2\n      sub\n      swap1\n      log2\n        /* \"contracts/MilestoneMarket.sol\":3867:3874  return; */\n      pop\n      pop\n      pop\n      pop\n      jump(tag_115)\n        /* \"contracts/MilestoneMarket.sol\":3723:3885  if (losingPool == 0) {... */\n    tag_129:\n        /* \"contracts/MilestoneMarket.sol\":3897:3911  uint256 payout */\n      0x00\n        /* \"contracts/MilestoneMarket.sol\":3942:3953  winningPool */\n      dup4\n        /* \"contracts/MilestoneMarket.sol\":3929:3938  totalPool */\n      dup3\n        /* \"contracts/MilestoneMarket.sol\":3915:3926  userDeposit */\n      dup7\n        /* \"contracts/MilestoneMarket.sol\":3915:3938  userDeposit * totalPool */\n      tag_133\n      swap2\n      swap1\n      tag_134\n      jump\t// in\n    tag_133:\n        /* \"contracts/MilestoneMarket.sol\":3914:3953  (userDeposit * totalPool) / winningPool */\n      tag_135\n      swap2\n      swap1\n      tag_136\n      jump\t// in\n    tag_135:\n        /* \"contracts/MilestoneMarket.sol\":3897:3953  uint256 payout = (userDeposit * totalPool) / winningPool */\n      swap1\n      pop\n        /* \"contracts/MilestoneMarket.sol\":3974:3984  msg.sender */\n      caller\n        /* \"contracts/MilestoneMarket.sol\":3966:3994  payable(msg.sender).transfer */\n      0xffffffffffffffffffffffffffffffffffffffff\n      and\n        /* \"contracts/MilestoneMarket.sol\":3966:4002  payable(msg.sender).transfer(payout) */\n      0x08fc\n        /* \"contracts/MilestoneMarket.sol\":3995:4001  payout */\n      dup3\n        /* \"contracts/MilestoneMarket.sol\":3966:4002  payable(msg.sender).transfer(payout) */\n      swap1\n      dup2\n      iszero\n      mul\n      swap1\n      mload(0x40)\n      0x00\n      mload(0x40)\n      dup1\n      dup4\n      sub\n      dup2\n      dup6\n      dup9\n      dup9\n      call\n      swap4\n      pop\n      pop\n      pop\n      pop\n      iszero\n      dup1\n      iszero\n      tag_138\n      jumpi\n      returndatacopy(0x00, 0x00, returndatasize)\n      revert(0x00, returndatasize)\n    tag_138:\n      pop\n        /* \"contracts/MilestoneMarket.sol\":4028:4038  msg.sender */\n      caller\n        /* \"contracts/MilestoneMarket.sol\":4020:4047  Claimed(msg.sender, payout) */\n      0xffffffffffffffffffffffffffffffffffffffff\n      and\n      0xd8138f8a3f377c5259ca548e70e4c2de94f129f5a11036a15b69513cba2b426a\n        /* \"contracts/MilestoneMarket.sol\":4040:4046  payout */\n      dup3\n        /* \"contracts/MilestoneMarket.sol\":4020:4047  Claimed(msg.sender, payout) */\n      mload(0x40)\n      tag_139\n      swap2\n      swap1\n      tag_36\n      jump\t// in\n    tag_139:\n      mload(0x40)\n      dup1\n      swap2\n      sub\n      swap1\n      log2\n        /* \"contracts/MilestoneMarket.sol\":2957:4055  {... */\n      pop\n      pop\n      pop\n      pop\n      pop\n        /* \"@openzeppelin/contracts/security/ReentrancyGuard.sol\":2292:2293  _ */\n    tag_115:\n        /* \"@openzeppelin/contracts/security/ReentrancyGuard.sol\":2303:2323  _nonReentrantAfter() */\n      tag_140\n        /* \"@openzeppelin/contracts/security/ReentrancyGuard.sol\":2303:2321  _nonReentrantAfter */\n      tag_141\n        /* \"@openzeppelin/contracts/security/ReentrancyGuard.sol\":2303:2323  _nonReentrantAfter() */\n      jump\t// in\n    tag_140:\n        /* \"contracts/MilestoneMarket.sol\":2918:4055  function claim() external nonReentrant {... */\n      jump\t// out\n        /* \"contracts/MilestoneMarket.sol\":494:540  mapping(address => uint256) public yesDeposits */\n    tag_65:\n      mstore(0x20, 0x03)\n      dup1\n      0x00\n      mstore\n      keccak256(0x00, 0x40)\n      0x00\n      swap2\n      pop\n      swap1\n      pop\n      sload\n      dup2\n      jump\t// out\n        /* \"contracts/MilestoneMarket.sol\":1727:2084  function depositYes() external payable nonReentrant {... */\n    tag_68:\n        /* \"@openzeppelin/contracts/security/ReentrancyGuard.sol\":2261:2282  _nonReentrantBefore() */\n      tag_143\n        /* \"@openzeppelin/contracts/security/ReentrancyGuard.sol\":2261:2280  _nonReentrantBefore */\n      tag_114\n        /* \"@openzeppelin/contracts/security/ReentrancyGuard.sol\":2261:2282  _nonReentrantBefore() */\n      jump\t// in\n    tag_143:\n        /* \"contracts/MilestoneMarket.sol\":1816:1824  deadline */\n      immutable(\"0xa65d03add95baf22e482ebcd3423aa9bf9d8b0ec3fca2831960080b84536d360\")\n        /* \"contracts/MilestoneMarket.sol\":1798:1813  block.timestamp */\n      timestamp\n        /* \"contracts/MilestoneMarket.sol\":1798:1824  block.timestamp < deadline */\n      lt\n        /* \"contracts/MilestoneMarket.sol\":1790:1841  require(block.timestamp < deadline, \"Market ended\") */\n      tag_145\n      jumpi\n      mload(0x40)\n      0x08c379a000000000000000000000000000000000000000000000000000000000\n      dup2\n      mstore\n      0x04\n      add\n      tag_146\n      swap1\n      tag_147\n      jump\t// in\n    tag_146:\n      mload(0x40)\n      dup1\n      swap2\n      sub\n      swap1\n      revert\n    tag_145:\n        /* \"contracts/MilestoneMarket.sol\":1861:1869  resolved */\n      0x02\n      0x00\n      swap1\n      sload\n      swap1\n      0x0100\n      exp\n      swap1\n      div\n      0xff\n      and\n        /* \"contracts/MilestoneMarket.sol\":1860:1869  !resolved */\n      iszero\n        /* \"contracts/MilestoneMarket.sol\":1852:1890  require(!resolved, \"Already resolved\") */\n      tag_148\n      jumpi\n      mload(0x40)\n      0x08c379a000000000000000000000000000000000000000000000000000000000\n      dup2\n      mstore\n      0x04\n      add\n      tag_149\n      swap1\n      tag_108\n      jump\t// in\n    tag_149:\n      mload(0x40)\n      dup1\n      swap2\n      sub\n      swap1\n      revert\n    tag_148:\n        /* \"contracts/MilestoneMarket.sol\":1921:1922  0 */\n      0x00\n        /* \"contracts/MilestoneMarket.sol\":1909:1918  msg.value */\n      callvalue\n        /* \"contracts/MilestoneMarket.sol\":1909:1922  msg.value > 0 */\n      gt\n        /* \"contracts/MilestoneMarket.sol\":1901:1939  require(msg.value > 0, \"Zero deposit\") */\n      tag_150\n      jumpi\n      mload(0x40)\n      0x08c379a000000000000000000000000000000000000000000000000000000000\n      dup2\n      mstore\n      0x04\n      add\n      tag_151\n      swap1\n      tag_152\n      jump\t// in\n    tag_151:\n      mload(0x40)\n      dup1\n      swap2\n      sub\n      swap1\n      revert\n    tag_150:\n        /* \"contracts/MilestoneMarket.sol\":1979:1988  msg.value */\n      callvalue\n        /* \"contracts/MilestoneMarket.sol\":1952:1963  yesDeposits */\n      0x03\n        /* \"contracts/MilestoneMarket.sol\":1952:1975  yesDeposits[msg.sender] */\n      0x00\n        /* \"contracts/MilestoneMarket.sol\":1964:1974  msg.sender */\n      caller\n        /* \"contracts/MilestoneMarket.sol\":1952:1975  yesDeposits[msg.sender] */\n      0xffffffffffffffffffffffffffffffffffffffff\n      and\n      0xffffffffffffffffffffffffffffffffffffffff\n      and\n      dup2\n      mstore\n      0x20\n      add\n      swap1\n      dup2\n      mstore\n      0x20\n      add\n      0x00\n      keccak256\n      0x00\n        /* \"contracts/MilestoneMarket.sol\":1952:1988  yesDeposits[msg.sender] += msg.value */\n      dup3\n      dup3\n      sload\n      tag_153\n      swap2\n      swap1\n      tag_128\n      jump\t// in\n    tag_153:\n      swap3\n      pop\n      pop\n      dup2\n      swap1\n      sstore\n      pop\n        /* \"contracts/MilestoneMarket.sol\":2011:2020  msg.value */\n      callvalue\n        /* \"contracts/MilestoneMarket.sol\":1999:2007  totalYes */\n      0x05\n      0x00\n        /* \"contracts/MilestoneMarket.sol\":1999:2020  totalYes += msg.value */\n      dup3\n      dup3\n      sload\n      tag_154\n      swap2\n      swap1\n      tag_128\n      jump\t// in\n    tag_154:\n      swap3\n      pop\n      pop\n      dup2\n      swap1\n      sstore\n      pop\n        /* \"contracts/MilestoneMarket.sol\":2048:2058  msg.sender */\n      caller\n        /* \"contracts/MilestoneMarket.sol\":2038:2076  Deposited(msg.sender, true, msg.value) */\n      0xffffffffffffffffffffffffffffffffffffffff\n      and\n      0x4e83b47ea16a7c02530416ada08b6c9d3cf014f8771d26a902f298a960489615\n        /* \"contracts/MilestoneMarket.sol\":2060:2064  true */\n      0x01\n        /* \"contracts/MilestoneMarket.sol\":2066:2075  msg.value */\n      callvalue\n        /* \"contracts/MilestoneMarket.sol\":2038:2076  Deposited(msg.sender, true, msg.value) */\n      mload(0x40)\n      tag_155\n      swap3\n      swap2\n      swap1\n      tag_156\n      jump\t// in\n    tag_155:\n      mload(0x40)\n      dup1\n      swap2\n      sub\n      swap1\n      log2\n        /* \"@openzeppelin/contracts/security/ReentrancyGuard.sol\":2303:2323  _nonReentrantAfter() */\n      tag_157\n        /* \"@openzeppelin/contracts/security/ReentrancyGuard.sol\":2303:2321  _nonReentrantAfter */\n      tag_141\n        /* \"@openzeppelin/contracts/security/ReentrancyGuard.sol\":2303:2323  _nonReentrantAfter() */\n      jump\t// in\n    tag_157:\n        /* \"contracts/MilestoneMarket.sol\":1727:2084  function depositYes() external payable nonReentrant {... */\n      jump\t// out\n        /* \"contracts/MilestoneMarket.sol\":1513:1698  function updateSupply(uint256 _newSupply) external {... */\n    tag_73:\n        /* \"contracts/MilestoneMarket.sol\":1584:1592  resolved */\n      0x02\n      0x00\n      swap1\n      sload\n      swap1\n      0x0100\n      exp\n      swap1\n      div\n      0xff\n      and\n        /* \"contracts/MilestoneMarket.sol\":1583:1592  !resolved */\n      iszero\n        /* \"contracts/MilestoneMarket.sol\":1575:1613  require(!resolved, \"Already resolved\") */\n      tag_159\n      jumpi\n      mload(0x40)\n      0x08c379a000000000000000000000000000000000000000000000000000000000\n      dup2\n      mstore\n      0x04\n      add\n      tag_160\n      swap1\n      tag_108\n      jump\t// in\n    tag_160:\n      mload(0x40)\n      dup1\n      swap2\n      sub\n      swap1\n      revert\n    tag_159:\n        /* \"contracts/MilestoneMarket.sol\":1639:1649  _newSupply */\n      dup1\n        /* \"contracts/MilestoneMarket.sol\":1624:1636  latestSupply */\n      0x01\n        /* \"contracts/MilestoneMarket.sol\":1624:1649  latestSupply = _newSupply */\n      dup2\n      swap1\n      sstore\n      pop\n        /* \"contracts/MilestoneMarket.sol\":1665:1690  SupplyUpdated(_newSupply) */\n      0xea4bfee7f9fb38136c61cc04b6e56efc93eaf1beef326dbc47495b358385914c\n        /* \"contracts/MilestoneMarket.sol\":1679:1689  _newSupply */\n      dup2\n        /* \"contracts/MilestoneMarket.sol\":1665:1690  SupplyUpdated(_newSupply) */\n      mload(0x40)\n      tag_161\n      swap2\n      swap1\n      tag_36\n      jump\t// in\n    tag_161:\n      mload(0x40)\n      dup1\n      swap2\n      sub\n      swap1\n      log1\n        /* \"contracts/MilestoneMarket.sol\":1513:1698  function updateSupply(uint256 _newSupply) external {... */\n      pop\n      jump\t// out\n        /* \"contracts/MilestoneMarket.sol\":601:624  uint256 public totalYes */\n    tag_76:\n      sload(0x05)\n      dup2\n      jump\t// out\n        /* \"contracts/MilestoneMarket.sol\":547:592  mapping(address => uint256) public noDeposits */\n    tag_81:\n      mstore(0x20, 0x04)\n      dup1\n      0x00\n      mstore\n      keccak256(0x00, 0x40)\n      0x00\n      swap2\n      pop\n      swap1\n      pop\n      sload\n      dup2\n      jump\t// out\n        /* \"contracts/MilestoneMarket.sol\":631:653  uint256 public totalNo */\n    tag_85:\n      sload(0x06)\n      dup2\n      jump\t// out\n        /* \"contracts/MilestoneMarket.sol\":382:409  uint256 public latestSupply */\n    tag_89:\n      sload(0x01)\n      dup2\n      jump\t// out\n        /* \"contracts/MilestoneMarket.sol\":662:701  mapping(address => bool) public claimed */\n    tag_94:\n      mstore(0x20, 0x07)\n      dup1\n      0x00\n      mstore\n      keccak256(0x00, 0x40)\n      0x00\n      swap2\n      pop\n      sload\n      swap1\n      0x0100\n      exp\n      swap1\n      div\n      0xff\n      and\n      dup2\n      jump\t// out\n        /* \"contracts/MilestoneMarket.sol\":2112:2467  function depositNo() external payable nonReentrant {... */\n    tag_97:\n        /* \"@openzeppelin/contracts/security/ReentrancyGuard.sol\":2261:2282  _nonReentrantBefore() */\n      tag_163\n        /* \"@openzeppelin/contracts/security/ReentrancyGuard.sol\":2261:2280  _nonReentrantBefore */\n      tag_114\n        /* \"@openzeppelin/contracts/security/ReentrancyGuard.sol\":2261:2282  _nonReentrantBefore() */\n      jump\t// in\n    tag_163:\n        /* \"contracts/MilestoneMarket.sol\":2200:2208  deadline */\n      immutable(\"0xa65d03add95baf22e482ebcd3423aa9bf9d8b0ec3fca2831960080b84536d360\")\n        /* \"contracts/MilestoneMarket.sol\":2182:2197  block.timestamp */\n      timestamp\n        /* \"contracts/MilestoneMarket.sol\":2182:2208  block.timestamp < deadline */\n      lt\n        /* \"contracts/MilestoneMarket.sol\":2174:2225  require(block.timestamp < deadline, \"Market ended\") */\n      tag_165\n      jumpi\n      mload(0x40)\n      0x08c379a000000000000000000000000000000000000000000000000000000000\n      dup2\n      mstore\n      0x04\n      add\n      tag_166\n      swap1\n      tag_147\n      jump\t// in\n    tag_166:\n      mload(0x40)\n      dup1\n      swap2\n      sub\n      swap1\n      revert\n    tag_165:\n        /* \"contracts/MilestoneMarket.sol\":2245:2253  resolved */\n      0x02\n      0x00\n      swap1\n      sload\n      swap1\n      0x0100\n      exp\n      swap1\n      div\n      0xff\n      and\n        /* \"contracts/MilestoneMarket.sol\":2244:2253  !resolved */\n      iszero\n        /* \"contracts/MilestoneMarket.sol\":2236:2274  require(!resolved, \"Already resolved\") */\n      tag_167\n      jumpi\n      mload(0x40)\n      0x08c379a000000000000000000000000000000000000000000000000000000000\n      dup2\n      mstore\n      0x04\n      add\n      tag_168\n      swap1\n      tag_108\n      jump\t// in\n    tag_168:\n      mload(0x40)\n      dup1\n      swap2\n      sub\n      swap1\n      revert\n    tag_167:\n        /* \"contracts/MilestoneMarket.sol\":2305:2306  0 */\n      0x00\n        /* \"contracts/MilestoneMarket.sol\":2293:2302  msg.value */\n      callvalue\n        /* \"contracts/MilestoneMarket.sol\":2293:2306  msg.value > 0 */\n      gt\n        /* \"contracts/MilestoneMarket.sol\":2285:2323  require(msg.value > 0, \"Zero deposit\") */\n      tag_169\n      jumpi\n      mload(0x40)\n      0x08c379a000000000000000000000000000000000000000000000000000000000\n      dup2\n      mstore\n      0x04\n      add\n      tag_170\n      swap1\n      tag_152\n      jump\t// in\n    tag_170:\n      mload(0x40)\n      dup1\n      swap2\n      sub\n      swap1\n      revert\n    tag_169:\n        /* \"contracts/MilestoneMarket.sol\":2362:2371  msg.value */\n      callvalue\n        /* \"contracts/MilestoneMarket.sol\":2336:2346  noDeposits */\n      0x04\n        /* \"contracts/MilestoneMarket.sol\":2336:2358  noDeposits[msg.sender] */\n      0x00\n        /* \"contracts/MilestoneMarket.sol\":2347:2357  msg.sender */\n      caller\n        /* \"contracts/MilestoneMarket.sol\":2336:2358  noDeposits[msg.sender] */\n      0xffffffffffffffffffffffffffffffffffffffff\n      and\n      0xffffffffffffffffffffffffffffffffffffffff\n      and\n      dup2\n      mstore\n      0x20\n      add\n      swap1\n      dup2\n      mstore\n      0x20\n      add\n      0x00\n      keccak256\n      0x00\n        /* \"contracts/MilestoneMarket.sol\":2336:2371  noDeposits[msg.sender] += msg.value */\n      dup3\n      dup3\n      sload\n      tag_171\n      swap2\n      swap1\n      tag_128\n      jump\t// in\n    tag_171:\n      swap3\n      pop\n      pop\n      dup2\n      swap1\n      sstore\n      pop\n        /* \"contracts/MilestoneMarket.sol\":2393:2402  msg.value */\n      callvalue\n        /* \"contracts/MilestoneMarket.sol\":2382:2389  totalNo */\n      0x06\n      0x00\n        /* \"contracts/MilestoneMarket.sol\":2382:2402  totalNo += msg.value */\n      dup3\n      dup3\n      sload\n      tag_172\n      swap2\n      swap1\n      tag_128\n      jump\t// in\n    tag_172:\n      swap3\n      pop\n      pop\n      dup2\n      swap1\n      sstore\n      pop\n        /* \"contracts/MilestoneMarket.sol\":2430:2440  msg.sender */\n      caller\n        /* \"contracts/MilestoneMarket.sol\":2420:2459  Deposited(msg.sender, false, msg.value) */\n      0xffffffffffffffffffffffffffffffffffffffff\n      and\n      0x4e83b47ea16a7c02530416ada08b6c9d3cf014f8771d26a902f298a960489615\n        /* \"contracts/MilestoneMarket.sol\":2442:2447  false */\n      0x00\n        /* \"contracts/MilestoneMarket.sol\":2449:2458  msg.value */\n      callvalue\n        /* \"contracts/MilestoneMarket.sol\":2420:2459  Deposited(msg.sender, false, msg.value) */\n      mload(0x40)\n      tag_173\n      swap3\n      swap2\n      swap1\n      tag_156\n      jump\t// in\n    tag_173:\n      mload(0x40)\n      dup1\n      swap2\n      sub\n      swap1\n      log2\n        /* \"@openzeppelin/contracts/security/ReentrancyGuard.sol\":2303:2323  _nonReentrantAfter() */\n      tag_174\n        /* \"@openzeppelin/contracts/security/ReentrancyGuard.sol\":2303:2321  _nonReentrantAfter */\n      tag_141\n        /* \"@openzeppelin/contracts/security/ReentrancyGuard.sol\":2303:2323  _nonReentrantAfter() */\n      jump\t// in\n    tag_174:\n        /* \"contracts/MilestoneMarket.sol\":2112:2467  function depositNo() external payable nonReentrant {... */\n      jump\t// out\n        /* \"contracts/MilestoneMarket.sol\":178:208  address public immutable token */\n    tag_100:\n      immutable(\"0x0330c0d84464f890f3c81afbba7a3a05e0e864ec2e31676dedcb075b2bf855a0\")\n      dup2\n      jump\t// out\n        /* \"@openzeppelin/contracts/security/ReentrancyGuard.sol\":2336:2623  function _nonReentrantBefore() private {... */\n    tag_114:\n        /* \"@openzeppelin/contracts/security/ReentrancyGuard.sol\":1759:1760  2 */\n      0x02\n        /* \"@openzeppelin/contracts/security/ReentrancyGuard.sol\":2468:2475  _status */\n      sload(0x00)\n        /* \"@openzeppelin/contracts/security/ReentrancyGuard.sol\":2468:2487  _status != _ENTERED */\n      sub\n        /* \"@openzeppelin/contracts/security/ReentrancyGuard.sol\":2460:2523  require(_status != _ENTERED, \"ReentrancyGuard: reentrant call\") */\n      tag_176\n      jumpi\n      mload(0x40)\n      0x08c379a000000000000000000000000000000000000000000000000000000000\n      dup2\n      mstore\n      0x04\n      add\n      tag_177\n      swap1\n      tag_178\n      jump\t// in\n    tag_177:\n      mload(0x40)\n      dup1\n      swap2\n      sub\n      swap1\n      revert\n    tag_176:\n        /* \"@openzeppelin/contracts/security/ReentrancyGuard.sol\":1759:1760  2 */\n      0x02\n        /* \"@openzeppelin/contracts/security/ReentrancyGuard.sol\":2598:2605  _status */\n      0x00\n        /* \"@openzeppelin/contracts/security/ReentrancyGuard.sol\":2598:2616  _status = _ENTERED */\n      dup2\n      swap1\n      sstore\n      pop\n        /* \"@openzeppelin/contracts/security/ReentrancyGuard.sol\":2336:2623  function _nonReentrantBefore() private {... */\n      jump\t// out\n        /* \"@openzeppelin/contracts/security/ReentrancyGuard.sol\":2629:2838  function _nonReentrantAfter() private {... */\n    tag_141:\n        /* \"@openzeppelin/contracts/security/ReentrancyGuard.sol\":1716:1717  1 */\n      0x01\n        /* \"@openzeppelin/contracts/security/ReentrancyGuard.sol\":2809:2816  _status */\n      0x00\n        /* \"@openzeppelin/contracts/security/ReentrancyGuard.sol\":2809:2831  _status = _NOT_ENTERED */\n      dup2\n      swap1\n      sstore\n      pop\n        /* \"@openzeppelin/contracts/security/ReentrancyGuard.sol\":2629:2838  function _nonReentrantAfter() private {... */\n      jump\t// out\n        /* \"#utility.yul\":7:133   */\n    tag_180:\n        /* \"#utility.yul\":44:51   */\n      0x00\n        /* \"#utility.yul\":84:126   */\n      0xffffffffffffffffffffffffffffffffffffffff\n        /* \"#utility.yul\":77:82   */\n      dup3\n        /* \"#utility.yul\":73:127   */\n      and\n        /* \"#utility.yul\":62:127   */\n      swap1\n      pop\n        /* \"#utility.yul\":7:133   */\n      swap2\n      swap1\n      pop\n      jump\t// out\n        /* \"#utility.yul\":139:235   */\n    tag_181:\n        /* \"#utility.yul\":176:183   */\n      0x00\n        /* \"#utility.yul\":205:229   */\n      tag_216\n        /* \"#utility.yul\":223:228   */\n      dup3\n        /* \"#utility.yul\":205:229   */\n      tag_180\n      jump\t// in\n    tag_216:\n        /* \"#utility.yul\":194:229   */\n      swap1\n      pop\n        /* \"#utility.yul\":139:235   */\n      swap2\n      swap1\n      pop\n      jump\t// out\n        /* \"#utility.yul\":241:359   */\n    tag_182:\n        /* \"#utility.yul\":328:352   */\n      tag_218\n        /* \"#utility.yul\":346:351   */\n      dup2\n        /* \"#utility.yul\":328:352   */\n      tag_181\n      jump\t// in\n    tag_218:\n        /* \"#utility.yul\":323:326   */\n      dup3\n        /* \"#utility.yul\":316:353   */\n      mstore\n        /* \"#utility.yul\":241:359   */\n      pop\n      pop\n      jump\t// out\n        /* \"#utility.yul\":365:587   */\n    tag_28:\n        /* \"#utility.yul\":458:462   */\n      0x00\n        /* \"#utility.yul\":496:498   */\n      0x20\n        /* \"#utility.yul\":485:494   */\n      dup3\n        /* \"#utility.yul\":481:499   */\n      add\n        /* \"#utility.yul\":473:499   */\n      swap1\n      pop\n        /* \"#utility.yul\":509:580   */\n      tag_220\n        /* \"#utility.yul\":577:578   */\n      0x00\n        /* \"#utility.yul\":566:575   */\n      dup4\n        /* \"#utility.yul\":562:579   */\n      add\n        /* \"#utility.yul\":553:559   */\n      dup5\n        /* \"#utility.yul\":509:580   */\n      tag_182\n      jump\t// in\n    tag_220:\n        /* \"#utility.yul\":365:587   */\n      swap3\n      swap2\n      pop\n      pop\n      jump\t// out\n        /* \"#utility.yul\":593:670   */\n    tag_183:\n        /* \"#utility.yul\":630:637   */\n      0x00\n        /* \"#utility.yul\":659:664   */\n      dup2\n        /* \"#utility.yul\":648:664   */\n      swap1\n      pop\n        /* \"#utility.yul\":593:670   */\n      swap2\n      swap1\n      pop\n      jump\t// out\n        /* \"#utility.yul\":676:794   */\n    tag_184:\n        /* \"#utility.yul\":763:787   */\n      tag_223\n        /* \"#utility.yul\":781:786   */\n      dup2\n        /* \"#utility.yul\":763:787   */\n      tag_183\n      jump\t// in\n    tag_223:\n        /* \"#utility.yul\":758:761   */\n      dup3\n        /* \"#utility.yul\":751:788   */\n      mstore\n        /* \"#utility.yul\":676:794   */\n      pop\n      pop\n      jump\t// out\n        /* \"#utility.yul\":800:1022   */\n    tag_36:\n        /* \"#utility.yul\":893:897   */\n      0x00\n        /* \"#utility.yul\":931:933   */\n      0x20\n        /* \"#utility.yul\":920:929   */\n      dup3\n        /* \"#utility.yul\":916:934   */\n      add\n        /* \"#utility.yul\":908:934   */\n      swap1\n      pop\n        /* \"#utility.yul\":944:1015   */\n      tag_225\n        /* \"#utility.yul\":1012:1013   */\n      0x00\n        /* \"#utility.yul\":1001:1010   */\n      dup4\n        /* \"#utility.yul\":997:1014   */\n      add\n        /* \"#utility.yul\":988:994   */\n      dup5\n        /* \"#utility.yul\":944:1015   */\n      tag_184\n      jump\t// in\n    tag_225:\n        /* \"#utility.yul\":800:1022   */\n      swap3\n      swap2\n      pop\n      pop\n      jump\t// out\n        /* \"#utility.yul\":1028:1118   */\n    tag_185:\n        /* \"#utility.yul\":1062:1069   */\n      0x00\n        /* \"#utility.yul\":1105:1110   */\n      dup2\n        /* \"#utility.yul\":1098:1111   */\n      iszero\n        /* \"#utility.yul\":1091:1112   */\n      iszero\n        /* \"#utility.yul\":1080:1112   */\n      swap1\n      pop\n        /* \"#utility.yul\":1028:1118   */\n      swap2\n      swap1\n      pop\n      jump\t// out\n        /* \"#utility.yul\":1124:1233   */\n    tag_186:\n        /* \"#utility.yul\":1205:1226   */\n      tag_228\n        /* \"#utility.yul\":1220:1225   */\n      dup2\n        /* \"#utility.yul\":1205:1226   */\n      tag_185\n      jump\t// in\n    tag_228:\n        /* \"#utility.yul\":1200:1203   */\n      dup3\n        /* \"#utility.yul\":1193:1227   */\n      mstore\n        /* \"#utility.yul\":1124:1233   */\n      pop\n      pop\n      jump\t// out\n        /* \"#utility.yul\":1239:1449   */\n    tag_41:\n        /* \"#utility.yul\":1326:1330   */\n      0x00\n        /* \"#utility.yul\":1364:1366   */\n      0x20\n        /* \"#utility.yul\":1353:1362   */\n      dup3\n        /* \"#utility.yul\":1349:1367   */\n      add\n        /* \"#utility.yul\":1341:1367   */\n      swap1\n      pop\n        /* \"#utility.yul\":1377:1442   */\n      tag_230\n        /* \"#utility.yul\":1439:1440   */\n      0x00\n        /* \"#utility.yul\":1428:1437   */\n      dup4\n        /* \"#utility.yul\":1424:1441   */\n      add\n        /* \"#utility.yul\":1415:1421   */\n      dup5\n        /* \"#utility.yul\":1377:1442   */\n      tag_186\n      jump\t// in\n    tag_230:\n        /* \"#utility.yul\":1239:1449   */\n      swap3\n      swap2\n      pop\n      pop\n      jump\t// out\n        /* \"#utility.yul\":1536:1653   */\n    tag_188:\n        /* \"#utility.yul\":1645:1646   */\n      0x00\n        /* \"#utility.yul\":1642:1643   */\n      0x00\n        /* \"#utility.yul\":1635:1647   */\n      revert\n        /* \"#utility.yul\":1782:1904   */\n    tag_190:\n        /* \"#utility.yul\":1855:1879   */\n      tag_235\n        /* \"#utility.yul\":1873:1878   */\n      dup2\n        /* \"#utility.yul\":1855:1879   */\n      tag_181\n      jump\t// in\n    tag_235:\n        /* \"#utility.yul\":1848:1853   */\n      dup2\n        /* \"#utility.yul\":1845:1880   */\n      eq\n        /* \"#utility.yul\":1835:1898   */\n      tag_236\n      jumpi\n        /* \"#utility.yul\":1894:1895   */\n      0x00\n        /* \"#utility.yul\":1891:1892   */\n      0x00\n        /* \"#utility.yul\":1884:1896   */\n      revert\n        /* \"#utility.yul\":1835:1898   */\n    tag_236:\n        /* \"#utility.yul\":1782:1904   */\n      pop\n      jump\t// out\n        /* \"#utility.yul\":1910:2049   */\n    tag_191:\n        /* \"#utility.yul\":1956:1961   */\n      0x00\n        /* \"#utility.yul\":1994:2000   */\n      dup2\n        /* \"#utility.yul\":1981:2001   */\n      calldataload\n        /* \"#utility.yul\":1972:2001   */\n      swap1\n      pop\n        /* \"#utility.yul\":2010:2043   */\n      tag_238\n        /* \"#utility.yul\":2037:2042   */\n      dup2\n        /* \"#utility.yul\":2010:2043   */\n      tag_190\n      jump\t// in\n    tag_238:\n        /* \"#utility.yul\":1910:2049   */\n      swap3\n      swap2\n      pop\n      pop\n      jump\t// out\n        /* \"#utility.yul\":2055:2384   */\n    tag_64:\n        /* \"#utility.yul\":2114:2120   */\n      0x00\n        /* \"#utility.yul\":2163:2165   */\n      0x20\n        /* \"#utility.yul\":2151:2160   */\n      dup3\n        /* \"#utility.yul\":2142:2149   */\n      dup5\n        /* \"#utility.yul\":2138:2161   */\n      sub\n        /* \"#utility.yul\":2134:2166   */\n      slt\n        /* \"#utility.yul\":2131:2250   */\n      iszero\n      tag_240\n      jumpi\n        /* \"#utility.yul\":2169:2248   */\n      tag_241\n      tag_188\n      jump\t// in\n    tag_241:\n        /* \"#utility.yul\":2131:2250   */\n    tag_240:\n        /* \"#utility.yul\":2289:2290   */\n      0x00\n        /* \"#utility.yul\":2314:2367   */\n      tag_242\n        /* \"#utility.yul\":2359:2366   */\n      dup5\n        /* \"#utility.yul\":2350:2356   */\n      dup3\n        /* \"#utility.yul\":2339:2348   */\n      dup6\n        /* \"#utility.yul\":2335:2357   */\n      add\n        /* \"#utility.yul\":2314:2367   */\n      tag_191\n      jump\t// in\n    tag_242:\n        /* \"#utility.yul\":2304:2367   */\n      swap2\n      pop\n        /* \"#utility.yul\":2260:2377   */\n      pop\n        /* \"#utility.yul\":2055:2384   */\n      swap3\n      swap2\n      pop\n      pop\n      jump\t// out\n        /* \"#utility.yul\":2390:2512   */\n    tag_192:\n        /* \"#utility.yul\":2463:2487   */\n      tag_244\n        /* \"#utility.yul\":2481:2486   */\n      dup2\n        /* \"#utility.yul\":2463:2487   */\n      tag_183\n      jump\t// in\n    tag_244:\n        /* \"#utility.yul\":2456:2461   */\n      dup2\n        /* \"#utility.yul\":2453:2488   */\n      eq\n        /* \"#utility.yul\":2443:2506   */\n      tag_245\n      jumpi\n        /* \"#utility.yul\":2502:2503   */\n      0x00\n        /* \"#utility.yul\":2499:2500   */\n      0x00\n        /* \"#utility.yul\":2492:2504   */\n      revert\n        /* \"#utility.yul\":2443:2506   */\n    tag_245:\n        /* \"#utility.yul\":2390:2512   */\n      pop\n      jump\t// out\n        /* \"#utility.yul\":2518:2657   */\n    tag_193:\n        /* \"#utility.yul\":2564:2569   */\n      0x00\n        /* \"#utility.yul\":2602:2608   */\n      dup2\n        /* \"#utility.yul\":2589:2609   */\n      calldataload\n        /* \"#utility.yul\":2580:2609   */\n      swap1\n      pop\n        /* \"#utility.yul\":2618:2651   */\n      tag_247\n        /* \"#utility.yul\":2645:2650   */\n      dup2\n        /* \"#utility.yul\":2618:2651   */\n      tag_192\n      jump\t// in\n    tag_247:\n        /* \"#utility.yul\":2518:2657   */\n      swap3\n      swap2\n      pop\n      pop\n      jump\t// out\n        /* \"#utility.yul\":2663:2992   */\n    tag_72:\n        /* \"#utility.yul\":2722:2728   */\n      0x00\n        /* \"#utility.yul\":2771:2773   */\n      0x20\n        /* \"#utility.yul\":2759:2768   */\n      dup3\n        /* \"#utility.yul\":2750:2757   */\n      dup5\n        /* \"#utility.yul\":2746:2769   */\n      sub\n        /* \"#utility.yul\":2742:2774   */\n      slt\n        /* \"#utility.yul\":2739:2858   */\n      iszero\n      tag_249\n      jumpi\n        /* \"#utility.yul\":2777:2856   */\n      tag_250\n      tag_188\n      jump\t// in\n    tag_250:\n        /* \"#utility.yul\":2739:2858   */\n    tag_249:\n        /* \"#utility.yul\":2897:2898   */\n      0x00\n        /* \"#utility.yul\":2922:2975   */\n      tag_251\n        /* \"#utility.yul\":2967:2974   */\n      dup5\n        /* \"#utility.yul\":2958:2964   */\n      dup3\n        /* \"#utility.yul\":2947:2956   */\n      dup6\n        /* \"#utility.yul\":2943:2965   */\n      add\n        /* \"#utility.yul\":2922:2975   */\n      tag_193\n      jump\t// in\n    tag_251:\n        /* \"#utility.yul\":2912:2975   */\n      swap2\n      pop\n        /* \"#utility.yul\":2868:2985   */\n      pop\n        /* \"#utility.yul\":2663:2992   */\n      swap3\n      swap2\n      pop\n      pop\n      jump\t// out\n        /* \"#utility.yul\":2998:3167   */\n    tag_194:\n        /* \"#utility.yul\":3082:3093   */\n      0x00\n        /* \"#utility.yul\":3116:3122   */\n      dup3\n        /* \"#utility.yul\":3111:3114   */\n      dup3\n        /* \"#utility.yul\":3104:3123   */\n      mstore\n        /* \"#utility.yul\":3156:3160   */\n      0x20\n        /* \"#utility.yul\":3151:3154   */\n      dup3\n        /* \"#utility.yul\":3147:3161   */\n      add\n        /* \"#utility.yul\":3132:3161   */\n      swap1\n      pop\n        /* \"#utility.yul\":2998:3167   */\n      swap3\n      swap2\n      pop\n      pop\n      jump\t// out\n        /* \"#utility.yul\":3173:3332   */\n    tag_195:\n        /* \"#utility.yul\":3313:3324   */\n      0x4e6f7420656e6465640000000000000000000000000000000000000000000000\n        /* \"#utility.yul\":3309:3310   */\n      0x00\n        /* \"#utility.yul\":3301:3307   */\n      dup3\n        /* \"#utility.yul\":3297:3311   */\n      add\n        /* \"#utility.yul\":3290:3325   */\n      mstore\n        /* \"#utility.yul\":3173:3332   */\n      pop\n      jump\t// out\n        /* \"#utility.yul\":3338:3703   */\n    tag_196:\n        /* \"#utility.yul\":3480:3483   */\n      0x00\n        /* \"#utility.yul\":3501:3567   */\n      tag_255\n        /* \"#utility.yul\":3565:3566   */\n      0x09\n        /* \"#utility.yul\":3560:3563   */\n      dup4\n        /* \"#utility.yul\":3501:3567   */\n      tag_194\n      jump\t// in\n    tag_255:\n        /* \"#utility.yul\":3494:3567   */\n      swap2\n      pop\n        /* \"#utility.yul\":3576:3669   */\n      tag_256\n        /* \"#utility.yul\":3665:3668   */\n      dup3\n        /* \"#utility.yul\":3576:3669   */\n      tag_195\n      jump\t// in\n    tag_256:\n        /* \"#utility.yul\":3694:3696   */\n      0x20\n        /* \"#utility.yul\":3689:3692   */\n      dup3\n        /* \"#utility.yul\":3685:3697   */\n      add\n        /* \"#utility.yul\":3678:3697   */\n      swap1\n      pop\n        /* \"#utility.yul\":3338:3703   */\n      swap2\n      swap1\n      pop\n      jump\t// out\n        /* \"#utility.yul\":3709:4128   */\n    tag_105:\n        /* \"#utility.yul\":3875:3879   */\n      0x00\n        /* \"#utility.yul\":3913:3915   */\n      0x20\n        /* \"#utility.yul\":3902:3911   */\n      dup3\n        /* \"#utility.yul\":3898:3916   */\n      add\n        /* \"#utility.yul\":3890:3916   */\n      swap1\n      pop\n        /* \"#utility.yul\":3962:3971   */\n      dup2\n        /* \"#utility.yul\":3956:3960   */\n      dup2\n        /* \"#utility.yul\":3952:3972   */\n      sub\n        /* \"#utility.yul\":3948:3949   */\n      0x00\n        /* \"#utility.yul\":3937:3946   */\n      dup4\n        /* \"#utility.yul\":3933:3950   */\n      add\n        /* \"#utility.yul\":3926:3973   */\n      mstore\n        /* \"#utility.yul\":3990:4121   */\n      tag_258\n        /* \"#utility.yul\":4116:4120   */\n      dup2\n        /* \"#utility.yul\":3990:4121   */\n      tag_196\n      jump\t// in\n    tag_258:\n        /* \"#utility.yul\":3982:4121   */\n      swap1\n      pop\n        /* \"#utility.yul\":3709:4128   */\n      swap2\n      swap1\n      pop\n      jump\t// out\n        /* \"#utility.yul\":4134:4300   */\n    tag_197:\n        /* \"#utility.yul\":4274:4292   */\n      0x416c7265616479207265736f6c76656400000000000000000000000000000000\n        /* \"#utility.yul\":4270:4271   */\n      0x00\n        /* \"#utility.yul\":4262:4268   */\n      dup3\n        /* \"#utility.yul\":4258:4272   */\n      add\n        /* \"#utility.yul\":4251:4293   */\n      mstore\n        /* \"#utility.yul\":4134:4300   */\n      pop\n      jump\t// out\n        /* \"#utility.yul\":4306:4672   */\n    tag_198:\n        /* \"#utility.yul\":4448:4451   */\n      0x00\n        /* \"#utility.yul\":4469:4536   */\n      tag_261\n        /* \"#utility.yul\":4533:4535   */\n      0x10\n        /* \"#utility.yul\":4528:4531   */\n      dup4\n        /* \"#utility.yul\":4469:4536   */\n      tag_194\n      jump\t// in\n    tag_261:\n        /* \"#utility.yul\":4462:4536   */\n      swap2\n      pop\n        /* \"#utility.yul\":4545:4638   */\n      tag_262\n        /* \"#utility.yul\":4634:4637   */\n      dup3\n        /* \"#utility.yul\":4545:4638   */\n      tag_197\n      jump\t// in\n    tag_262:\n        /* \"#utility.yul\":4663:4665   */\n      0x20\n        /* \"#utility.yul\":4658:4661   */\n      dup3\n        /* \"#utility.yul\":4654:4666   */\n      add\n        /* \"#utility.yul\":4647:4666   */\n      swap1\n      pop\n        /* \"#utility.yul\":4306:4672   */\n      swap2\n      swap1\n      pop\n      jump\t// out\n        /* \"#utility.yul\":4678:5097   */\n    tag_108:\n        /* \"#utility.yul\":4844:4848   */\n      0x00\n        /* \"#utility.yul\":4882:4884   */\n      0x20\n        /* \"#utility.yul\":4871:4880   */\n      dup3\n        /* \"#utility.yul\":4867:4885   */\n      add\n        /* \"#utility.yul\":4859:4885   */\n      swap1\n      pop\n        /* \"#utility.yul\":4931:4940   */\n      dup2\n        /* \"#utility.yul\":4925:4929   */\n      dup2\n        /* \"#utility.yul\":4921:4941   */\n      sub\n        /* \"#utility.yul\":4917:4918   */\n      0x00\n        /* \"#utility.yul\":4906:4915   */\n      dup4\n        /* \"#utility.yul\":4902:4919   */\n      add\n        /* \"#utility.yul\":4895:4942   */\n      mstore\n        /* \"#utility.yul\":4959:5090   */\n      tag_264\n        /* \"#utility.yul\":5085:5089   */\n      dup2\n        /* \"#utility.yul\":4959:5090   */\n      tag_198\n      jump\t// in\n    tag_264:\n        /* \"#utility.yul\":4951:5090   */\n      swap1\n      pop\n        /* \"#utility.yul\":4678:5097   */\n      swap2\n      swap1\n      pop\n      jump\t// out\n        /* \"#utility.yul\":5103:5265   */\n    tag_199:\n        /* \"#utility.yul\":5243:5257   */\n      0x4e6f74207265736f6c7665640000000000000000000000000000000000000000\n        /* \"#utility.yul\":5239:5240   */\n      0x00\n        /* \"#utility.yul\":5231:5237   */\n      dup3\n        /* \"#utility.yul\":5227:5241   */\n      add\n        /* \"#utility.yul\":5220:5258   */\n      mstore\n        /* \"#utility.yul\":5103:5265   */\n      pop\n      jump\t// out\n        /* \"#utility.yul\":5271:5637   */\n    tag_200:\n        /* \"#utility.yul\":5413:5416   */\n      0x00\n        /* \"#utility.yul\":5434:5501   */\n      tag_267\n        /* \"#utility.yul\":5498:5500   */\n      0x0c\n        /* \"#utility.yul\":5493:5496   */\n      dup4\n        /* \"#utility.yul\":5434:5501   */\n      tag_194\n      jump\t// in\n    tag_267:\n        /* \"#utility.yul\":5427:5501   */\n      swap2\n      pop\n        /* \"#utility.yul\":5510:5603   */\n      tag_268\n        /* \"#utility.yul\":5599:5602   */\n      dup3\n        /* \"#utility.yul\":5510:5603   */\n      tag_199\n      jump\t// in\n    tag_268:\n        /* \"#utility.yul\":5628:5630   */\n      0x20\n        /* \"#utility.yul\":5623:5626   */\n      dup3\n        /* \"#utility.yul\":5619:5631   */\n      add\n        /* \"#utility.yul\":5612:5631   */\n      swap1\n      pop\n        /* \"#utility.yul\":5271:5637   */\n      swap2\n      swap1\n      pop\n      jump\t// out\n        /* \"#utility.yul\":5643:6062   */\n    tag_118:\n        /* \"#utility.yul\":5809:5813   */\n      0x00\n        /* \"#utility.yul\":5847:5849   */\n      0x20\n        /* \"#utility.yul\":5836:5845   */\n      dup3\n        /* \"#utility.yul\":5832:5850   */\n      add\n        /* \"#utility.yul\":5824:5850   */\n      swap1\n      pop\n        /* \"#utility.yul\":5896:5905   */\n      dup2\n        /* \"#utility.yul\":5890:5894   */\n      dup2\n        /* \"#utility.yul\":5886:5906   */\n      sub\n        /* \"#utility.yul\":5882:5883   */\n      0x00\n        /* \"#utility.yul\":5871:5880   */\n      dup4\n        /* \"#utility.yul\":5867:5884   */\n      add\n        /* \"#utility.yul\":5860:5907   */\n      mstore\n        /* \"#utility.yul\":5924:6055   */\n      tag_270\n        /* \"#utility.yul\":6050:6054   */\n      dup2\n        /* \"#utility.yul\":5924:6055   */\n      tag_200\n      jump\t// in\n    tag_270:\n        /* \"#utility.yul\":5916:6055   */\n      swap1\n      pop\n        /* \"#utility.yul\":5643:6062   */\n      swap2\n      swap1\n      pop\n      jump\t// out\n        /* \"#utility.yul\":6068:6233   */\n    tag_201:\n        /* \"#utility.yul\":6208:6225   */\n      0x416c726561647920636c61696d65640000000000000000000000000000000000\n        /* \"#utility.yul\":6204:6205   */\n      0x00\n        /* \"#utility.yul\":6196:6202   */\n      dup3\n        /* \"#utility.yul\":6192:6206   */\n      add\n        /* \"#utility.yul\":6185:6226   */\n      mstore\n        /* \"#utility.yul\":6068:6233   */\n      pop\n      jump\t// out\n        /* \"#utility.yul\":6239:6605   */\n    tag_202:\n        /* \"#utility.yul\":6381:6384   */\n      0x00\n        /* \"#utility.yul\":6402:6469   */\n      tag_273\n        /* \"#utility.yul\":6466:6468   */\n      0x0f\n        /* \"#utility.yul\":6461:6464   */\n      dup4\n        /* \"#utility.yul\":6402:6469   */\n      tag_194\n      jump\t// in\n    tag_273:\n        /* \"#utility.yul\":6395:6469   */\n      swap2\n      pop\n        /* \"#utility.yul\":6478:6571   */\n      tag_274\n        /* \"#utility.yul\":6567:6570   */\n      dup3\n        /* \"#utility.yul\":6478:6571   */\n      tag_201\n      jump\t// in\n    tag_274:\n        /* \"#utility.yul\":6596:6598   */\n      0x20\n        /* \"#utility.yul\":6591:6594   */\n      dup3\n        /* \"#utility.yul\":6587:6599   */\n      add\n        /* \"#utility.yul\":6580:6599   */\n      swap1\n      pop\n        /* \"#utility.yul\":6239:6605   */\n      swap2\n      swap1\n      pop\n      jump\t// out\n        /* \"#utility.yul\":6611:7030   */\n    tag_121:\n        /* \"#utility.yul\":6777:6781   */\n      0x00\n        /* \"#utility.yul\":6815:6817   */\n      0x20\n        /* \"#utility.yul\":6804:6813   */\n      dup3\n        /* \"#utility.yul\":6800:6818   */\n      add\n        /* \"#utility.yul\":6792:6818   */\n      swap1\n      pop\n        /* \"#utility.yul\":6864:6873   */\n      dup2\n        /* \"#utility.yul\":6858:6862   */\n      dup2\n        /* \"#utility.yul\":6854:6874   */\n      sub\n        /* \"#utility.yul\":6850:6851   */\n      0x00\n        /* \"#utility.yul\":6839:6848   */\n      dup4\n        /* \"#utility.yul\":6835:6852   */\n      add\n        /* \"#utility.yul\":6828:6875   */\n      mstore\n        /* \"#utility.yul\":6892:7023   */\n      tag_276\n        /* \"#utility.yul\":7018:7022   */\n      dup2\n        /* \"#utility.yul\":6892:7023   */\n      tag_202\n      jump\t// in\n    tag_276:\n        /* \"#utility.yul\":6884:7023   */\n      swap1\n      pop\n        /* \"#utility.yul\":6611:7030   */\n      swap2\n      swap1\n      pop\n      jump\t// out\n        /* \"#utility.yul\":7036:7197   */\n    tag_203:\n        /* \"#utility.yul\":7176:7189   */\n      0x4e6f2077696e6e696e6773000000000000000000000000000000000000000000\n        /* \"#utility.yul\":7172:7173   */\n      0x00\n        /* \"#utility.yul\":7164:7170   */\n      dup3\n        /* \"#utility.yul\":7160:7174   */\n      add\n        /* \"#utility.yul\":7153:7190   */\n      mstore\n        /* \"#utility.yul\":7036:7197   */\n      pop\n      jump\t// out\n        /* \"#utility.yul\":7203:7569   */\n    tag_204:\n        /* \"#utility.yul\":7345:7348   */\n      0x00\n        /* \"#utility.yul\":7366:7433   */\n      tag_279\n        /* \"#utility.yul\":7430:7432   */\n      0x0b\n        /* \"#utility.yul\":7425:7428   */\n      dup4\n        /* \"#utility.yul\":7366:7433   */\n      tag_194\n      jump\t// in\n    tag_279:\n        /* \"#utility.yul\":7359:7433   */\n      swap2\n      pop\n        /* \"#utility.yul\":7442:7535   */\n      tag_280\n        /* \"#utility.yul\":7531:7534   */\n      dup3\n        /* \"#utility.yul\":7442:7535   */\n      tag_203\n      jump\t// in\n    tag_280:\n        /* \"#utility.yul\":7560:7562   */\n      0x20\n        /* \"#utility.yul\":7555:7558   */\n      dup3\n        /* \"#utility.yul\":7551:7563   */\n      add\n        /* \"#utility.yul\":7544:7563   */\n      swap1\n      pop\n        /* \"#utility.yul\":7203:7569   */\n      swap2\n      swap1\n      pop\n      jump\t// out\n        /* \"#utility.yul\":7575:7994   */\n    tag_126:\n        /* \"#utility.yul\":7741:7745   */\n      0x00\n        /* \"#utility.yul\":7779:7781   */\n      0x20\n        /* \"#utility.yul\":7768:7777   */\n      dup3\n        /* \"#utility.yul\":7764:7782   */\n      add\n        /* \"#utility.yul\":7756:7782   */\n      swap1\n      pop\n        /* \"#utility.yul\":7828:7837   */\n      dup2\n        /* \"#utility.yul\":7822:7826   */\n      dup2\n        /* \"#utility.yul\":7818:7838   */\n      sub\n        /* \"#utility.yul\":7814:7815   */\n      0x00\n        /* \"#utility.yul\":7803:7812   */\n      dup4\n        /* \"#utility.yul\":7799:7816   */\n      add\n        /* \"#utility.yul\":7792:7839   */\n      mstore\n        /* \"#utility.yul\":7856:7987   */\n      tag_282\n        /* \"#utility.yul\":7982:7986   */\n      dup2\n        /* \"#utility.yul\":7856:7987   */\n      tag_204\n      jump\t// in\n    tag_282:\n        /* \"#utility.yul\":7848:7987   */\n      swap1\n      pop\n        /* \"#utility.yul\":7575:7994   */\n      swap2\n      swap1\n      pop\n      jump\t// out\n        /* \"#utility.yul\":8000:8180   */\n    tag_205:\n        /* \"#utility.yul\":8048:8125   */\n      0x4e487b7100000000000000000000000000000000000000000000000000000000\n        /* \"#utility.yul\":8045:8046   */\n      0x00\n        /* \"#utility.yul\":8038:8126   */\n      mstore\n        /* \"#utility.yul\":8145:8149   */\n      0x11\n        /* \"#utility.yul\":8142:8143   */\n      0x04\n        /* \"#utility.yul\":8135:8150   */\n      mstore\n        /* \"#utility.yul\":8169:8173   */\n      0x24\n        /* \"#utility.yul\":8166:8167   */\n      0x00\n        /* \"#utility.yul\":8159:8174   */\n      revert\n        /* \"#utility.yul\":8186:8377   */\n    tag_128:\n        /* \"#utility.yul\":8226:8229   */\n      0x00\n        /* \"#utility.yul\":8245:8265   */\n      tag_285\n        /* \"#utility.yul\":8263:8264   */\n      dup3\n        /* \"#utility.yul\":8245:8265   */\n      tag_183\n      jump\t// in\n    tag_285:\n        /* \"#utility.yul\":8240:8265   */\n      swap2\n      pop\n        /* \"#utility.yul\":8279:8299   */\n      tag_286\n        /* \"#utility.yul\":8297:8298   */\n      dup4\n        /* \"#utility.yul\":8279:8299   */\n      tag_183\n      jump\t// in\n    tag_286:\n        /* \"#utility.yul\":8274:8299   */\n      swap3\n      pop\n        /* \"#utility.yul\":8322:8323   */\n      dup3\n        /* \"#utility.yul\":8319:8320   */\n      dup3\n        /* \"#utility.yul\":8315:8324   */\n      add\n        /* \"#utility.yul\":8308:8324   */\n      swap1\n      pop\n        /* \"#utility.yul\":8343:8346   */\n      dup1\n        /* \"#utility.yul\":8340:8341   */\n      dup3\n        /* \"#utility.yul\":8337:8347   */\n      gt\n        /* \"#utility.yul\":8334:8370   */\n      iszero\n      tag_287\n      jumpi\n        /* \"#utility.yul\":8350:8368   */\n      tag_288\n      tag_205\n      jump\t// in\n    tag_288:\n        /* \"#utility.yul\":8334:8370   */\n    tag_287:\n        /* \"#utility.yul\":8186:8377   */\n      swap3\n      swap2\n      pop\n      pop\n      jump\t// out\n        /* \"#utility.yul\":8383:8793   */\n    tag_134:\n        /* \"#utility.yul\":8423:8430   */\n      0x00\n        /* \"#utility.yul\":8446:8466   */\n      tag_290\n        /* \"#utility.yul\":8464:8465   */\n      dup3\n        /* \"#utility.yul\":8446:8466   */\n      tag_183\n      jump\t// in\n    tag_290:\n        /* \"#utility.yul\":8441:8466   */\n      swap2\n      pop\n        /* \"#utility.yul\":8480:8500   */\n      tag_291\n        /* \"#utility.yul\":8498:8499   */\n      dup4\n        /* \"#utility.yul\":8480:8500   */\n      tag_183\n      jump\t// in\n    tag_291:\n        /* \"#utility.yul\":8475:8500   */\n      swap3\n      pop\n        /* \"#utility.yul\":8535:8536   */\n      dup3\n        /* \"#utility.yul\":8532:8533   */\n      dup3\n        /* \"#utility.yul\":8528:8537   */\n      mul\n        /* \"#utility.yul\":8557:8587   */\n      tag_292\n        /* \"#utility.yul\":8575:8586   */\n      dup2\n        /* \"#utility.yul\":8557:8587   */\n      tag_183\n      jump\t// in\n    tag_292:\n        /* \"#utility.yul\":8546:8587   */\n      swap2\n      pop\n        /* \"#utility.yul\":8736:8737   */\n      dup3\n        /* \"#utility.yul\":8727:8734   */\n      dup3\n        /* \"#utility.yul\":8723:8738   */\n      div\n        /* \"#utility.yul\":8720:8721   */\n      dup5\n        /* \"#utility.yul\":8717:8739   */\n      eq\n        /* \"#utility.yul\":8697:8698   */\n      dup4\n        /* \"#utility.yul\":8690:8699   */\n      iszero\n        /* \"#utility.yul\":8670:8753   */\n      or\n        /* \"#utility.yul\":8647:8786   */\n      tag_293\n      jumpi\n        /* \"#utility.yul\":8766:8784   */\n      tag_294\n      tag_205\n      jump\t// in\n    tag_294:\n        /* \"#utility.yul\":8647:8786   */\n    tag_293:\n        /* \"#utility.yul\":8431:8793   */\n      pop\n        /* \"#utility.yul\":8383:8793   */\n      swap3\n      swap2\n      pop\n      pop\n      jump\t// out\n        /* \"#utility.yul\":8799:8979   */\n    tag_206:\n        /* \"#utility.yul\":8847:8924   */\n      0x4e487b7100000000000000000000000000000000000000000000000000000000\n        /* \"#utility.yul\":8844:8845   */\n      0x00\n        /* \"#utility.yul\":8837:8925   */\n      mstore\n        /* \"#utility.yul\":8944:8948   */\n      0x12\n        /* \"#utility.yul\":8941:8942   */\n      0x04\n        /* \"#utility.yul\":8934:8949   */\n      mstore\n        /* \"#utility.yul\":8968:8972   */\n      0x24\n        /* \"#utility.yul\":8965:8966   */\n      0x00\n        /* \"#utility.yul\":8958:8973   */\n      revert\n        /* \"#utility.yul\":8985:9170   */\n    tag_136:\n        /* \"#utility.yul\":9025:9026   */\n      0x00\n        /* \"#utility.yul\":9042:9062   */\n      tag_297\n        /* \"#utility.yul\":9060:9061   */\n      dup3\n        /* \"#utility.yul\":9042:9062   */\n      tag_183\n      jump\t// in\n    tag_297:\n        /* \"#utility.yul\":9037:9062   */\n      swap2\n      pop\n        /* \"#utility.yul\":9076:9096   */\n      tag_298\n        /* \"#utility.yul\":9094:9095   */\n      dup4\n        /* \"#utility.yul\":9076:9096   */\n      tag_183\n      jump\t// in\n    tag_298:\n        /* \"#utility.yul\":9071:9096   */\n      swap3\n      pop\n        /* \"#utility.yul\":9115:9116   */\n      dup3\n        /* \"#utility.yul\":9105:9140   */\n      tag_299\n      jumpi\n        /* \"#utility.yul\":9120:9138   */\n      tag_300\n      tag_206\n      jump\t// in\n    tag_300:\n        /* \"#utility.yul\":9105:9140   */\n    tag_299:\n        /* \"#utility.yul\":9162:9163   */\n      dup3\n        /* \"#utility.yul\":9159:9160   */\n      dup3\n        /* \"#utility.yul\":9155:9164   */\n      div\n        /* \"#utility.yul\":9150:9164   */\n      swap1\n      pop\n        /* \"#utility.yul\":8985:9170   */\n      swap3\n      swap2\n      pop\n      pop\n      jump\t// out\n        /* \"#utility.yul\":9176:9338   */\n    tag_207:\n        /* \"#utility.yul\":9316:9330   */\n      0x4d61726b657420656e6465640000000000000000000000000000000000000000\n        /* \"#utility.yul\":9312:9313   */\n      0x00\n        /* \"#utility.yul\":9304:9310   */\n      dup3\n        /* \"#utility.yul\":9300:9314   */\n      add\n        /* \"#utility.yul\":9293:9331   */\n      mstore\n        /* \"#utility.yul\":9176:9338   */\n      pop\n      jump\t// out\n        /* \"#utility.yul\":9344:9710   */\n    tag_208:\n        /* \"#utility.yul\":9486:9489   */\n      0x00\n        /* \"#utility.yul\":9507:9574   */\n      tag_303\n        /* \"#utility.yul\":9571:9573   */\n      0x0c\n        /* \"#utility.yul\":9566:9569   */\n      dup4\n        /* \"#utility.yul\":9507:9574   */\n      tag_194\n      jump\t// in\n    tag_303:\n        /* \"#utility.yul\":9500:9574   */\n      swap2\n      pop\n        /* \"#utility.yul\":9583:9676   */\n      tag_304\n        /* \"#utility.yul\":9672:9675   */\n      dup3\n        /* \"#utility.yul\":9583:9676   */\n      tag_207\n      jump\t// in\n    tag_304:\n        /* \"#utility.yul\":9701:9703   */\n      0x20\n        /* \"#utility.yul\":9696:9699   */\n      dup3\n        /* \"#utility.yul\":9692:9704   */\n      add\n        /* \"#utility.yul\":9685:9704   */\n      swap1\n      pop\n        /* \"#utility.yul\":9344:9710   */\n      swap2\n      swap1\n      pop\n      jump\t// out\n        /* \"#utility.yul\":9716:10135   */\n    tag_147:\n        /* \"#utility.yul\":9882:9886   */\n      0x00\n        /* \"#utility.yul\":9920:9922   */\n      0x20\n        /* \"#utility.yul\":9909:9918   */\n      dup3\n        /* \"#utility.yul\":9905:9923   */\n      add\n        /* \"#utility.yul\":9897:9923   */\n      swap1\n      pop\n        /* \"#utility.yul\":9969:9978   */\n      dup2\n        /* \"#utility.yul\":9963:9967   */\n      dup2\n        /* \"#utility.yul\":9959:9979   */\n      sub\n        /* \"#utility.yul\":9955:9956   */\n      0x00\n        /* \"#utility.yul\":9944:9953   */\n      dup4\n        /* \"#utility.yul\":9940:9957   */\n      add\n        /* \"#utility.yul\":9933:9980   */\n      mstore\n        /* \"#utility.yul\":9997:10128   */\n      tag_306\n        /* \"#utility.yul\":10123:10127   */\n      dup2\n        /* \"#utility.yul\":9997:10128   */\n      tag_208\n      jump\t// in\n    tag_306:\n        /* \"#utility.yul\":9989:10128   */\n      swap1\n      pop\n        /* \"#utility.yul\":9716:10135   */\n      swap2\n      swap1\n      pop\n      jump\t// out\n        /* \"#utility.yul\":10141:10303   */\n    tag_209:\n        /* \"#utility.yul\":10281:10295   */\n      0x5a65726f206465706f7369740000000000000000000000000000000000000000\n        /* \"#utility.yul\":10277:10278   */\n      0x00\n        /* \"#utility.yul\":10269:10275   */\n      dup3\n        /* \"#utility.yul\":10265:10279   */\n      add\n        /* \"#utility.yul\":10258:10296   */\n      mstore\n        /* \"#utility.yul\":10141:10303   */\n      pop\n      jump\t// out\n        /* \"#utility.yul\":10309:10675   */\n    tag_210:\n        /* \"#utility.yul\":10451:10454   */\n      0x00\n        /* \"#utility.yul\":10472:10539   */\n      tag_309\n        /* \"#utility.yul\":10536:10538   */\n      0x0c\n        /* \"#utility.yul\":10531:10534   */\n      dup4\n        /* \"#utility.yul\":10472:10539   */\n      tag_194\n      jump\t// in\n    tag_309:\n        /* \"#utility.yul\":10465:10539   */\n      swap2\n      pop\n        /* \"#utility.yul\":10548:10641   */\n      tag_310\n        /* \"#utility.yul\":10637:10640   */\n      dup3\n        /* \"#utility.yul\":10548:10641   */\n      tag_209\n      jump\t// in\n    tag_310:\n        /* \"#utility.yul\":10666:10668   */\n      0x20\n        /* \"#utility.yul\":10661:10664   */\n      dup3\n        /* \"#utility.yul\":10657:10669   */\n      add\n        /* \"#utility.yul\":10650:10669   */\n      swap1\n      pop\n        /* \"#utility.yul\":10309:10675   */\n      swap2\n      swap1\n      pop\n      jump\t// out\n        /* \"#utility.yul\":10681:11100   */\n    tag_152:\n        /* \"#utility.yul\":10847:10851   */\n      0x00\n        /* \"#utility.yul\":10885:10887   */\n      0x20\n        /* \"#utility.yul\":10874:10883   */\n      dup3\n        /* \"#utility.yul\":10870:10888   */\n      add\n        /* \"#utility.yul\":10862:10888   */\n      swap1\n      pop\n        /* \"#utility.yul\":10934:10943   */\n      dup2\n        /* \"#utility.yul\":10928:10932   */\n      dup2\n        /* \"#utility.yul\":10924:10944   */\n      sub\n        /* \"#utility.yul\":10920:10921   */\n      0x00\n        /* \"#utility.yul\":10909:10918   */\n      dup4\n        /* \"#utility.yul\":10905:10922   */\n      add\n        /* \"#utility.yul\":10898:10945   */\n      mstore\n        /* \"#utility.yul\":10962:11093   */\n      tag_312\n        /* \"#utility.yul\":11088:11092   */\n      dup2\n        /* \"#utility.yul\":10962:11093   */\n      tag_210\n      jump\t// in\n    tag_312:\n        /* \"#utility.yul\":10954:11093   */\n      swap1\n      pop\n        /* \"#utility.yul\":10681:11100   */\n      swap2\n      swap1\n      pop\n      jump\t// out\n        /* \"#utility.yul\":11106:11426   */\n    tag_156:\n        /* \"#utility.yul\":11221:11225   */\n      0x00\n        /* \"#utility.yul\":11259:11261   */\n      0x40\n        /* \"#utility.yul\":11248:11257   */\n      dup3\n        /* \"#utility.yul\":11244:11262   */\n      add\n        /* \"#utility.yul\":11236:11262   */\n      swap1\n      pop\n        /* \"#utility.yul\":11272:11337   */\n      tag_314\n        /* \"#utility.yul\":11334:11335   */\n      0x00\n        /* \"#utility.yul\":11323:11332   */\n      dup4\n        /* \"#utility.yul\":11319:11336   */\n      add\n        /* \"#utility.yul\":11310:11316   */\n      dup6\n        /* \"#utility.yul\":11272:11337   */\n      tag_186\n      jump\t// in\n    tag_314:\n        /* \"#utility.yul\":11347:11419   */\n      tag_315\n        /* \"#utility.yul\":11415:11417   */\n      0x20\n        /* \"#utility.yul\":11404:11413   */\n      dup4\n        /* \"#utility.yul\":11400:11418   */\n      add\n        /* \"#utility.yul\":11391:11397   */\n      dup5\n        /* \"#utility.yul\":11347:11419   */\n      tag_184\n      jump\t// in\n    tag_315:\n        /* \"#utility.yul\":11106:11426   */\n      swap4\n      swap3\n      pop\n      pop\n      pop\n      jump\t// out\n        /* \"#utility.yul\":11432:11613   */\n    tag_211:\n        /* \"#utility.yul\":11572:11605   */\n      0x5265656e7472616e637947756172643a207265656e7472616e742063616c6c00\n        /* \"#utility.yul\":11568:11569   */\n      0x00\n        /* \"#utility.yul\":11560:11566   */\n      dup3\n        /* \"#utility.yul\":11556:11570   */\n      add\n        /* \"#utility.yul\":11549:11606   */\n      mstore\n        /* \"#utility.yul\":11432:11613   */\n      pop\n      jump\t// out\n        /* \"#utility.yul\":11619:11985   */\n    tag_212:\n        /* \"#utility.yul\":11761:11764   */\n      0x00\n        /* \"#utility.yul\":11782:11849   */\n      tag_318\n        /* \"#utility.yul\":11846:11848   */\n      0x1f\n        /* \"#utility.yul\":11841:11844   */\n      dup4\n        /* \"#utility.yul\":11782:11849   */\n      tag_194\n      jump\t// in\n    tag_318:\n        /* \"#utility.yul\":11775:11849   */\n      swap2\n      pop\n        /* \"#utility.yul\":11858:11951   */\n      tag_319\n        /* \"#utility.yul\":11947:11950   */\n      dup3\n        /* \"#utility.yul\":11858:11951   */\n      tag_211\n      jump\t// in\n    tag_319:\n        /* \"#utility.yul\":11976:11978   */\n      0x20\n        /* \"#utility.yul\":11971:11974   */\n      dup3\n        /* \"#utility.yul\":11967:11979   */\n      add\n        /* \"#utility.yul\":11960:11979   */\n      swap1\n      pop\n        /* \"#utility.yul\":11619:11985   */\n      swap2\n      swap1\n      pop\n      jump\t// out\n        /* \"#utility.yul\":11991:12410   */\n    tag_178:\n        /* \"#utility.yul\":12157:12161   */\n      0x00\n        /* \"#utility.yul\":12195:12197   */\n      0x20\n        /* \"#utility.yul\":12184:12193   */\n      dup3\n        /* \"#utility.yul\":12180:12198   */\n      add\n        /* \"#utility.yul\":12172:12198   */\n      swap1\n      pop\n        /* \"#utility.yul\":12244:12253   */\n      dup2\n        /* \"#utility.yul\":12238:12242   */\n      dup2\n        /* \"#utility.yul\":12234:12254   */\n      sub\n        /* \"#utility.yul\":12230:12231   */\n      0x00\n        /* \"#utility.yul\":12219:12228   */\n      dup4\n        /* \"#utility.yul\":12215:12232   */\n      add\n        /* \"#utility.yul\":12208:12255   */\n      mstore\n        /* \"#utility.yul\":12272:12403   */\n      tag_321\n        /* \"#utility.yul\":12398:12402   */\n      dup2\n        /* \"#utility.yul\":12272:12403   */\n      tag_212\n      jump\t// in\n    tag_321:\n        /* \"#utility.yul\":12264:12403   */\n      swap1\n      pop\n        /* \"#utility.yul\":11991:12410   */\n      swap2\n      swap1\n      pop\n      jump\t// out\n\n    auxdata: 0xa2646970667358221220eaadc9b241ba6e1df30fb7c3d347526d0230915c4fe523653b47522f86e10a4764736f6c634300081f0033\n}\n",
				"bytecode": {
					"linkReferences": {},
					"object": "610120604052348015610010575f5ffd5b5060405161185c38038061185c833981810160405281019061003291906101e0565b60015f8190555042831161007b576040517f08c379a0000000000000000000000000000000000000000000000000000000008152600401610072906102b1565b60405180910390fd5b8084116100bd576040517f08c379a00000000000000000000000000000000000000000000000000000000081526004016100b49061033f565b60405180910390fd5b8473ffffffffffffffffffffffffffffffffffffffff1660808173ffffffffffffffffffffffffffffffffffffffff16815250508360a081815250508260c081815250508173ffffffffffffffffffffffffffffffffffffffff1660e08173ffffffffffffffffffffffffffffffffffffffff168152505080610100818152505080600181905550505050505061035d565b5f5ffd5b5f73ffffffffffffffffffffffffffffffffffffffff82169050919050565b5f61017c82610153565b9050919050565b61018c81610172565b8114610196575f5ffd5b50565b5f815190506101a781610183565b92915050565b5f819050919050565b6101bf816101ad565b81146101c9575f5ffd5b50565b5f815190506101da816101b6565b92915050565b5f5f5f5f5f60a086880312156101f9576101f861014f565b5b5f61020688828901610199565b9550506020610217888289016101cc565b9450506040610228888289016101cc565b935050606061023988828901610199565b925050608061024a888289016101cc565b9150509295509295909350565b5f82825260208201905092915050565b7f446561646c696e6520696e2070617374000000000000000000000000000000005f82015250565b5f61029b601083610257565b91506102a682610267565b602082019050919050565b5f6020820190508181035f8301526102c88161028f565b9050919050565b7f5468726573686f6c64206d757374206578636565642063757272656e742073755f8201527f70706c7900000000000000000000000000000000000000000000000000000000602082015250565b5f610329602483610257565b9150610334826102cf565b604082019050919050565b5f6020820190508181035f8301526103568161031d565b9050919050565b60805160a05160c05160e051610100516114a66103b65f395f61059301525f61040301525f81816104270152818161055c015281816109cc0152610c6101525f81816105b801526105f501525f610e1901526114a65ff3fe608060405260043610610113575f3560e01c8063648d15a91161009f578063af00888311610063578063af0088831461033d578063bca1e4cb14610367578063c884ef8314610391578063d9c0ad60146103cd578063fc0c546a146103d757610113565b8063648d15a9146102695780636a40b829146102a55780636bd08049146102af57806388ba8dd6146102d7578063a2fea6f71461030157610113565b8063378dc3dc116100e6578063378dc3dc146101ab57806339a50508146101d55780633f6fa655146101ff57806342cde4e8146102295780634e71d92d1461025357610113565b806302d05d3f146101175780632810e1d61461014157806329dcb0cf146101575780632ec40ac814610181575b5f5ffd5b348015610122575f5ffd5b5061012b610401565b6040516101389190610ed0565b60405180910390f35b34801561014c575f5ffd5b50610155610425565b005b348015610162575f5ffd5b5061016b61055a565b6040516101789190610f01565b60405180910390f35b34801561018c575f5ffd5b5061019561057e565b6040516101a29190610f34565b60405180910390f35b3480156101b6575f5ffd5b506101bf610591565b6040516101cc9190610f01565b60405180910390f35b3480156101e0575f5ffd5b506101e96105b5565b6040516101f69190610f34565b60405180910390f35b34801561020a575f5ffd5b506102136105e1565b6040516102209190610f34565b60405180910390f35b348015610234575f5ffd5b5061023d6105f3565b60405161024a9190610f01565b60405180910390f35b34801561025e575f5ffd5b50610267610617565b005b348015610274575f5ffd5b5061028f600480360381019061028a9190610f7b565b6109ad565b60405161029c9190610f01565b60405180910390f35b6102ad6109c2565b005b3480156102ba575f5ffd5b506102d560048036038101906102d09190610fd0565b610b83565b005b3480156102e2575f5ffd5b506102eb610c13565b6040516102f89190610f01565b60405180910390f35b34801561030c575f5ffd5b5061032760048036038101906103229190610f7b565b610c19565b6040516103349190610f01565b60405180910390f35b348015610348575f5ffd5b50610351610c2e565b60405161035e9190610f01565b60405180910390f35b348015610372575f5ffd5b5061037b610c34565b6040516103889190610f01565b60405180910390f35b34801561039c575f5ffd5b506103b760048036038101906103b29190610f7b565b610c3a565b6040516103c49190610f34565b60405180910390f35b6103d5610c57565b005b3480156103e2575f5ffd5b506103eb610e17565b6040516103f89190610ed0565b60405180910390f35b7f000000000000000000000000000000000000000000000000000000000000000081565b7f0000000000000000000000000000000000000000000000000000000000000000421015610488576040517f08c379a000000000000000000000000000000000000000000000000000000000815260040161047f90611055565b60405180910390fd5b60025f9054906101000a900460ff16156104d7576040517f08c379a00000000000000000000000000000000000000000000000000000000081526004016104ce906110bd565b60405180910390fd5b6104df6105b5565b600260016101000a81548160ff021916908315150217905550600160025f6101000a81548160ff0219169083151502179055507fdabf623a6bec72ad159e2d9533e7149ec45bfc657e39f49fb6a9509852dc77dc600260019054906101000a900460ff166040516105509190610f34565b60405180910390a1565b7f000000000000000000000000000000000000000000000000000000000000000081565b600260019054906101000a900460ff1681565b7f000000000000000000000000000000000000000000000000000000000000000081565b5f7f00000000000000000000000000000000000000000000000000000000000000006001541015905090565b60025f9054906101000a900460ff1681565b7f000000000000000000000000000000000000000000000000000000000000000081565b61061f610e3b565b60025f9054906101000a900460ff1661066d576040517f08c379a000000000000000000000000000000000000000000000000000000000815260040161066490611125565b60405180910390fd5b60075f3373ffffffffffffffffffffffffffffffffffffffff1673ffffffffffffffffffffffffffffffffffffffff1681526020019081526020015f205f9054906101000a900460ff16156106f7576040517f08c379a00000000000000000000000000000000000000000000000000000000081526004016106ee9061118d565b60405180910390fd5b5f5f5f600260019054906101000a900460ff161561075e5760035f3373ffffffffffffffffffffffffffffffffffffffff1673ffffffffffffffffffffffffffffffffffffffff1681526020019081526020015f20549250600554915060065490506107a9565b60045f3373ffffffffffffffffffffffffffffffffffffffff1673ffffffffffffffffffffffffffffffffffffffff1681526020019081526020015f20549250600654915060055490505b5f83116107eb576040517f08c379a00000000000000000000000000000000000000000000000000000000081526004016107e2906111f5565b60405180910390fd5b600160075f3373ffffffffffffffffffffffffffffffffffffffff1673ffffffffffffffffffffffffffffffffffffffff1681526020019081526020015f205f6101000a81548160ff0219169083151502179055505f818361084d9190611240565b90505f82036108f1573373ffffffffffffffffffffffffffffffffffffffff166108fc8590811502906040515f60405180830381858888f19350505050158015610899573d5f5f3e3d5ffd5b503373ffffffffffffffffffffffffffffffffffffffff167fd8138f8a3f377c5259ca548e70e4c2de94f129f5a11036a15b69513cba2b426a856040516108e09190610f01565b60405180910390a2505050506109a3565b5f8382866108ff9190611273565b61090991906112e1565b90503373ffffffffffffffffffffffffffffffffffffffff166108fc8290811502906040515f60405180830381858888f1935050505015801561094e573d5f5f3e3d5ffd5b503373ffffffffffffffffffffffffffffffffffffffff167fd8138f8a3f377c5259ca548e70e4c2de94f129f5a11036a15b69513cba2b426a826040516109959190610f01565b60405180910390a250505050505b6109ab610e88565b565b6003602052805f5260405f205f915090505481565b6109ca610e3b565b7f00000000000000000000000000000000000000000000000000000000000000004210610a2c576040517f08c379a0000000000000000000000000000000000000000000000000000000008152600401610a239061135b565b60405180910390fd5b60025f9054906101000a900460ff1615610a7b576040517f08c379a0000000000000000000000000000000000000000000000000000000008152600401610a72906110bd565b60405180910390fd5b5f3411610abd576040517f08c379a0000000000000000000000000000000000000000000000000000000008152600401610ab4906113c3565b60405180910390fd5b3460035f3373ffffffffffffffffffffffffffffffffffffffff1673ffffffffffffffffffffffffffffffffffffffff1681526020019081526020015f205f828254610b099190611240565b925050819055503460055f828254610b219190611240565b925050819055503373ffffffffffffffffffffffffffffffffffffffff167f4e83b47ea16a7c02530416ada08b6c9d3cf014f8771d26a902f298a960489615600134604051610b719291906113e1565b60405180910390a2610b81610e88565b565b60025f9054906101000a900460ff1615610bd2576040517f08c379a0000000000000000000000000000000000000000000000000000000008152600401610bc9906110bd565b60405180910390fd5b806001819055507fea4bfee7f9fb38136c61cc04b6e56efc93eaf1beef326dbc47495b358385914c81604051610c089190610f01565b60405180910390a150565b60055481565b6004602052805f5260405f205f915090505481565b60065481565b60015481565b6007602052805f5260405f205f915054906101000a900460ff1681565b610c5f610e3b565b7f00000000000000000000000000000000000000000000000000000000000000004210610cc1576040517f08c379a0000000000000000000000000000000000000000000000000000000008152600401610cb89061135b565b60405180910390fd5b60025f9054906101000a900460ff1615610d10576040517f08c379a0000000000000000000000000000000000000000000000000000000008152600401610d07906110bd565b60405180910390fd5b5f3411610d52576040517f08c379a0000000000000000000000000000000000000000000000000000000008152600401610d49906113c3565b60405180910390fd5b3460045f3373ffffffffffffffffffffffffffffffffffffffff1673ffffffffffffffffffffffffffffffffffffffff1681526020019081526020015f205f828254610d9e9190611240565b925050819055503460065f828254610db69190611240565b925050819055503373ffffffffffffffffffffffffffffffffffffffff167f4e83b47ea16a7c02530416ada08b6c9d3cf014f8771d26a902f298a9604896155f34604051610e059291906113e1565b60405180910390a2610e15610e88565b565b7f000000000000000000000000000000000000000000000000000000000000000081565b60025f5403610e7f576040517f08c379a0000000000000000000000000000000000000000000000000000000008152600401610e7690611452565b60405180910390fd5b60025f81905550565b60015f81905550565b5f73ffffffffffffffffffffffffffffffffffffffff82169050919050565b5f610eba82610e91565b9050919050565b610eca81610eb0565b82525050565b5f602082019050610ee35f830184610ec1565b92915050565b5f819050919050565b610efb81610ee9565b82525050565b5f602082019050610f145f830184610ef2565b92915050565b5f8115159050919050565b610f2e81610f1a565b82525050565b5f602082019050610f475f830184610f25565b92915050565b5f5ffd5b610f5a81610eb0565b8114610f64575f5ffd5b50565b5f81359050610f7581610f51565b92915050565b5f60208284031215610f9057610f8f610f4d565b5b5f610f9d84828501610f67565b91505092915050565b610faf81610ee9565b8114610fb9575f5ffd5b50565b5f81359050610fca81610fa6565b92915050565b5f60208284031215610fe557610fe4610f4d565b5b5f610ff284828501610fbc565b91505092915050565b5f82825260208201905092915050565b7f4e6f7420656e64656400000000000000000000000000000000000000000000005f82015250565b5f61103f600983610ffb565b915061104a8261100b565b602082019050919050565b5f6020820190508181035f83015261106c81611033565b9050919050565b7f416c7265616479207265736f6c766564000000000000000000000000000000005f82015250565b5f6110a7601083610ffb565b91506110b282611073565b602082019050919050565b5f6020820190508181035f8301526110d48161109b565b9050919050565b7f4e6f74207265736f6c76656400000000000000000000000000000000000000005f82015250565b5f61110f600c83610ffb565b915061111a826110db565b602082019050919050565b5f6020820190508181035f83015261113c81611103565b9050919050565b7f416c726561647920636c61696d656400000000000000000000000000000000005f82015250565b5f611177600f83610ffb565b915061118282611143565b602082019050919050565b5f6020820190508181035f8301526111a48161116b565b9050919050565b7f4e6f2077696e6e696e67730000000000000000000000000000000000000000005f82015250565b5f6111df600b83610ffb565b91506111ea826111ab565b602082019050919050565b5f6020820190508181035f83015261120c816111d3565b9050919050565b7f4e487b71000000000000000000000000000000000000000000000000000000005f52601160045260245ffd5b5f61124a82610ee9565b915061125583610ee9565b925082820190508082111561126d5761126c611213565b5b92915050565b5f61127d82610ee9565b915061128883610ee9565b925082820261129681610ee9565b915082820484148315176112ad576112ac611213565b5b5092915050565b7f4e487b71000000000000000000000000000000000000000000000000000000005f52601260045260245ffd5b5f6112eb82610ee9565b91506112f683610ee9565b925082611306576113056112b4565b5b828204905092915050565b7f4d61726b657420656e64656400000000000000000000000000000000000000005f82015250565b5f611345600c83610ffb565b915061135082611311565b602082019050919050565b5f6020820190508181035f83015261137281611339565b9050919050565b7f5a65726f206465706f73697400000000000000000000000000000000000000005f82015250565b5f6113ad600c83610ffb565b91506113b882611379565b602082019050919050565b5f6020820190508181035f8301526113da816113a1565b9050919050565b5f6040820190506113f45f830185610f25565b6114016020830184610ef2565b9392505050565b7f5265656e7472616e637947756172643a207265656e7472616e742063616c6c005f82015250565b5f61143c601f83610ffb565b915061144782611408565b602082019050919050565b5f6020820190508181035f83015261146981611430565b905091905056fea2646970667358221220eaadc9b241ba6e1df30fb7c3d347526d0230915c4fe523653b47522f86e10a4764736f6c634300081f0033",
					"opcodes": "PUSH2 0x120 PUSH1 0x40 MSTORE CALLVALUE DUP1 ISZERO PUSH2 0x10 JUMPI PUSH0 PUSH0 REVERT JUMPDEST POP PUSH1 0x40 MLOAD PUSH2 0x185C CODESIZE SUB DUP1 PUSH2 0x185C DUP4 CODECOPY DUP2 DUP2 ADD PUSH1 0x40 MSTORE DUP2 ADD SWAP1 PUSH2 0x32 SWAP2 SWAP1 PUSH2 0x1E0 JUMP JUMPDEST PUSH1 0x1 PUSH0 DUP2 SWAP1 SSTORE POP TIMESTAMP DUP4 GT PUSH2 0x7B JUMPI PUSH1 0x40 MLOAD PUSH32 0x8C379A000000000000000000000000000000000000000000000000000000000 DUP2 MSTORE PUSH1 0x4 ADD PUSH2 0x72 SWAP1 PUSH2 0x2B1 JUMP JUMPDEST PUSH1 0x40 MLOAD DUP1 SWAP2 SUB SWAP1 REVERT JUMPDEST DUP1 DUP5 GT PUSH2 0xBD JUMPI PUSH1 0x40 MLOAD PUSH32 0x8C379A000000000000000000000000000000000000000000000000000000000 DUP2 MSTORE PUSH1 0x4 ADD PUSH2 0xB4 SWAP1 PUSH2 0x33F JUMP JUMPDEST PUSH1 0x40 MLOAD DUP1 SWAP2 SUB SWAP1 REVERT JUMPDEST DUP5 PUSH20 0xFFFFFFFFFFFFFFFFFFFFFFFFFFFFFFFFFFFFFFFF AND PUSH1 0x80 DUP2 PUSH20 0xFFFFFFFFFFFFFFFFFFFFFFFFFFFFFFFFFFFFFFFF AND DUP2 MSTORE POP POP DUP4 PUSH1 0xA0 DUP2 DUP2 MSTORE POP POP DUP3 PUSH1 0xC0 DUP2 DUP2 MSTORE POP POP DUP2 PUSH20 0xFFFFFFFFFFFFFFFFFFFFFFFFFFFFFFFFFFFFFFFF AND PUSH1 0xE0 DUP2 PUSH20 0xFFFFFFFFFFFFFFFFFFFFFFFFFFFFFFFFFFFFFFFF AND DUP2 MSTORE POP POP DUP1 PUSH2 0x100 DUP2 DUP2 MSTORE POP POP DUP1 PUSH1 0x1 DUP2 SWAP1 SSTORE POP POP POP POP POP POP PUSH2 0x35D JUMP JUMPDEST PUSH0 PUSH0 REVERT JUMPDEST PUSH0 PUSH20 0xFFFFFFFFFFFFFFFFFFFFFFFFFFFFFFFFFFFFFFFF DUP3 AND SWAP1 POP SWAP2 SWAP1 POP JUMP JUMPDEST PUSH0 PUSH2 0x17C DUP3 PUSH2 0x153 JUMP JUMPDEST SWAP1 POP SWAP2 SWAP1 POP JUMP JUMPDEST PUSH2 0x18C DUP2 PUSH2 0x172 JUMP JUMPDEST DUP2 EQ PUSH2 0x196 JUMPI PUSH0 PUSH0 REVERT JUMPDEST POP JUMP JUMPDEST PUSH0 DUP2 MLOAD SWAP1 POP PUSH2 0x1A7 DUP2 PUSH2 0x183 JUMP JUMPDEST SWAP3 SWAP2 POP POP JUMP JUMPDEST PUSH0 DUP2 SWAP1 POP SWAP2 SWAP1 POP JUMP JUMPDEST PUSH2 0x1BF DUP2 PUSH2 0x1AD JUMP JUMPDEST DUP2 EQ PUSH2 0x1C9 JUMPI PUSH0 PUSH0 REVERT JUMPDEST POP JUMP JUMPDEST PUSH0 DUP2 MLOAD SWAP1 POP PUSH2 0x1DA DUP2 PUSH2 0x1B6 JUMP JUMPDEST SWAP3 SWAP2 POP POP JUMP JUMPDEST PUSH0 PUSH0 PUSH0 PUSH0 PUSH0 PUSH1 0xA0 DUP7 DUP9 SUB SLT ISZERO PUSH2 0x1F9 JUMPI PUSH2 0x1F8 PUSH2 0x14F JUMP JUMPDEST JUMPDEST PUSH0 PUSH2 0x206 DUP9 DUP3 DUP10 ADD PUSH2 0x199 JUMP JUMPDEST SWAP6 POP POP PUSH1 0x20 PUSH2 0x217 DUP9 DUP3 DUP10 ADD PUSH2 0x1CC JUMP JUMPDEST SWAP5 POP POP PUSH1 0x40 PUSH2 0x228 DUP9 DUP3 DUP10 ADD PUSH2 0x1CC JUMP JUMPDEST SWAP4 POP POP PUSH1 0x60 PUSH2 0x239 DUP9 DUP3 DUP10 ADD PUSH2 0x199 JUMP JUMPDEST SWAP3 POP POP PUSH1 0x80 PUSH2 0x24A DUP9 DUP3 DUP10 ADD PUSH2 0x1CC JUMP JUMPDEST SWAP2 POP POP SWAP3 SWAP6 POP SWAP3 SWAP6 SWAP1 SWAP4 POP JUMP JUMPDEST PUSH0 DUP3 DUP3 MSTORE PUSH1 0x20 DUP3 ADD SWAP1 POP SWAP3 SWAP2 POP POP JUMP JUMPDEST PUSH32 0x446561646C696E6520696E207061737400000000000000000000000000000000 PUSH0 DUP3 ADD MSTORE POP JUMP JUMPDEST PUSH0 PUSH2 0x29B PUSH1 0x10 DUP4 PUSH2 0x257 JUMP JUMPDEST SWAP2 POP PUSH2 0x2A6 DUP3 PUSH2 0x267 JUMP JUMPDEST PUSH1 0x20 DUP3 ADD SWAP1 POP SWAP2 SWAP1 POP JUMP JUMPDEST PUSH0 PUSH1 0x20 DUP3 ADD SWAP1 POP DUP2 DUP2 SUB PUSH0 DUP4 ADD MSTORE PUSH2 0x2C8 DUP2 PUSH2 0x28F JUMP JUMPDEST SWAP1 POP SWAP2 SWAP1 POP JUMP JUMPDEST PUSH32 0x5468726573686F6C64206D757374206578636565642063757272656E74207375 PUSH0 DUP3 ADD MSTORE PUSH32 0x70706C7900000000000000000000000000000000000000000000000000000000 PUSH1 0x20 DUP3 ADD MSTORE POP JUMP JUMPDEST PUSH0 PUSH2 0x329 PUSH1 0x24 DUP4 PUSH2 0x257 JUMP JUMPDEST SWAP2 POP PUSH2 0x334 DUP3 PUSH2 0x2CF JUMP JUMPDEST PUSH1 0x40 DUP3 ADD SWAP1 POP SWAP2 SWAP1 POP JUMP JUMPDEST PUSH0 PUSH1 0x20 DUP3 ADD SWAP1 POP DUP2 DUP2 SUB PUSH0 DUP4 ADD MSTORE PUSH2 0x356 DUP2 PUSH2 0x31D JUMP JUMPDEST SWAP1 POP SWAP2 SWAP1 POP JUMP JUMPDEST PUSH1 0x80 MLOAD PUSH1 0xA0 MLOAD PUSH1 0xC0 MLOAD PUSH1 0xE0 MLOAD PUSH2 0x100 MLOAD PUSH2 0x14A6 PUSH2 0x3B6 PUSH0 CODECOPY PUSH0 PUSH2 0x593 ADD MSTORE PUSH0 PUSH2 0x403 ADD MSTORE PUSH0 DUP2 DUP2 PUSH2 0x427 ADD MSTORE DUP2 DUP2 PUSH2 0x55C ADD MSTORE DUP2 DUP2 PUSH2 0x9CC ADD MSTORE PUSH2 0xC61 ADD MSTORE PUSH0 DUP2 DUP2 PUSH2 0x5B8 ADD MSTORE PUSH2 0x5F5 ADD MSTORE PUSH0 PUSH2 0xE19 ADD MSTORE PUSH2 0x14A6 PUSH0 RETURN INVALID PUSH1 0x80 PUSH1 0x40 MSTORE PUSH1 0x4 CALLDATASIZE LT PUSH2 0x113 JUMPI PUSH0 CALLDATALOAD PUSH1 0xE0 SHR DUP1 PUSH4 0x648D15A9 GT PUSH2 0x9F JUMPI DUP1 PUSH4 0xAF008883 GT PUSH2 0x63 JUMPI DUP1 PUSH4 0xAF008883 EQ PUSH2 0x33D JUMPI DUP1 PUSH4 0xBCA1E4CB EQ PUSH2 0x367 JUMPI DUP1 PUSH4 0xC884EF83 EQ PUSH2 0x391 JUMPI DUP1 PUSH4 0xD9C0AD60 EQ PUSH2 0x3CD JUMPI DUP1 PUSH4 0xFC0C546A EQ PUSH2 0x3D7 JUMPI PUSH2 0x113 JUMP JUMPDEST DUP1 PUSH4 0x648D15A9 EQ PUSH2 0x269 JUMPI DUP1 PUSH4 0x6A40B829 EQ PUSH2 0x2A5 JUMPI DUP1 PUSH4 0x6BD08049 EQ PUSH2 0x2AF JUMPI DUP1 PUSH4 0x88BA8DD6 EQ PUSH2 0x2D7 JUMPI DUP1 PUSH4 0xA2FEA6F7 EQ PUSH2 0x301 JUMPI PUSH2 0x113 JUMP JUMPDEST DUP1 PUSH4 0x378DC3DC GT PUSH2 0xE6 JUMPI DUP1 PUSH4 0x378DC3DC EQ PUSH2 0x1AB JUMPI DUP1 PUSH4 0x39A50508 EQ PUSH2 0x1D5 JUMPI DUP1 PUSH4 0x3F6FA655 EQ PUSH2 0x1FF JUMPI DUP1 PUSH4 0x42CDE4E8 EQ PUSH2 0x229 JUMPI DUP1 PUSH4 0x4E71D92D EQ PUSH2 0x253 JUMPI PUSH2 0x113 JUMP JUMPDEST DUP1 PUSH4 0x2D05D3F EQ PUSH2 0x117 JUMPI DUP1 PUSH4 0x2810E1D6 EQ PUSH2 0x141 JUMPI DUP1 PUSH4 0x29DCB0CF EQ PUSH2 0x157 JUMPI DUP1 PUSH4 0x2EC40AC8 EQ PUSH2 0x181 JUMPI JUMPDEST PUSH0 PUSH0 REVERT JUMPDEST CALLVALUE DUP1 ISZERO PUSH2 0x122 JUMPI PUSH0 PUSH0 REVERT JUMPDEST POP PUSH2 0x12B PUSH2 0x401 JUMP JUMPDEST PUSH1 0x40 MLOAD PUSH2 0x138 SWAP2 SWAP1 PUSH2 0xED0 JUMP JUMPDEST PUSH1 0x40 MLOAD DUP1 SWAP2 SUB SWAP1 RETURN JUMPDEST CALLVALUE DUP1 ISZERO PUSH2 0x14C JUMPI PUSH0 PUSH0 REVERT JUMPDEST POP PUSH2 0x155 PUSH2 0x425 JUMP JUMPDEST STOP JUMPDEST CALLVALUE DUP1 ISZERO PUSH2 0x162 JUMPI PUSH0 PUSH0 REVERT JUMPDEST POP PUSH2 0x16B PUSH2 0x55A JUMP JUMPDEST PUSH1 0x40 MLOAD PUSH2 0x178 SWAP2 SWAP1 PUSH2 0xF01 JUMP JUMPDEST PUSH1 0x40 MLOAD DUP1 SWAP2 SUB SWAP1 RETURN JUMPDEST CALLVALUE DUP1 ISZERO PUSH2 0x18C JUMPI PUSH0 PUSH0 REVERT JUMPDEST POP PUSH2 0x195 PUSH2 0x57E JUMP JUMPDEST PUSH1 0x40 MLOAD PUSH2 0x1A2 SWAP2 SWAP1 PUSH2 0xF34 JUMP JUMPDEST PUSH1 0x40 MLOAD DUP1 SWAP2 SUB SWAP1 RETURN JUMPDEST CALLVALUE DUP1 ISZERO PUSH2 0x1B6 JUMPI PUSH0 PUSH0 REVERT JUMPDEST POP PUSH2 0x1BF PUSH2 0x591 JUMP JUMPDEST PUSH1 0x40 MLOAD PUSH2 0x1CC SWAP2 SWAP1 PUSH2 0xF01 JUMP JUMPDEST PUSH1 0x40 MLOAD DUP1 SWAP2 SUB SWAP1 RETURN JUMPDEST CALLVALUE DUP1 ISZERO PUSH2 0x1E0 JUMPI PUSH0 PUSH0 REVERT JUMPDEST POP PUSH2 0x1E9 PUSH2 0x5B5 JUMP JUMPDEST PUSH1 0x40 MLOAD PUSH2 0x1F6 SWAP2 SWAP1 PUSH2 0xF34 JUMP JUMPDEST PUSH1 0x40 MLOAD DUP1 SWAP2 SUB SWAP1 RETURN JUMPDEST CALLVALUE DUP1 ISZERO PUSH2 0x20A JUMPI PUSH0 PUSH0 REVERT JUMPDEST POP PUSH2 0x213 PUSH2 0x5E1 JUMP JUMPDEST PUSH1 0x40 MLOAD PUSH2 0x220 SWAP2 SWAP1 PUSH2 0xF34 JUMP JUMPDEST PUSH1 0x40 MLOAD DUP1 SWAP2 SUB SWAP1 RETURN JUMPDEST CALLVALUE DUP1 ISZERO PUSH2 0x234 JUMPI PUSH0 PUSH0 REVERT JUMPDEST POP PUSH2 0x23D PUSH2 0x5F3 JUMP JUMPDEST PUSH1 0x40 MLOAD PUSH2 0x24A SWAP2 SWAP1 PUSH2 0xF01 JUMP JUMPDEST PUSH1 0x40 MLOAD DUP1 SWAP2 SUB SWAP1 RETURN JUMPDEST CALLVALUE DUP1 ISZERO PUSH2 0x25E JUMPI PUSH0 PUSH0 REVERT JUMPDEST POP PUSH2 0x267 PUSH2 0x617 JUMP JUMPDEST STOP JUMPDEST CALLVALUE DUP1 ISZERO PUSH2 0x274 JUMPI PUSH0 PUSH0 REVERT JUMPDEST POP PUSH2 0x28F PUSH1 0x4 DUP1 CALLDATASIZE SUB DUP2 ADD SWAP1 PUSH2 0x28A SWAP2 SWAP1 PUSH2 0xF7B JUMP JUMPDEST PUSH2 0x9AD JUMP JUMPDEST PUSH1 0x40 MLOAD PUSH2 0x29C SWAP2 SWAP1 PUSH2 0xF01 JUMP JUMPDEST PUSH1 0x40 MLOAD DUP1 SWAP2 SUB SWAP1 RETURN JUMPDEST PUSH2 0x2AD PUSH2 0x9C2 JUMP JUMPDEST STOP JUMPDEST CALLVALUE DUP1 ISZERO PUSH2 0x2BA JUMPI PUSH0 PUSH0 REVERT JUMPDEST POP PUSH2 0x2D5 PUSH1 0x4 DUP1 CALLDATASIZE SUB DUP2 ADD SWAP1 PUSH2 0x2D0 SWAP2 SWAP1 PUSH2 0xFD0 JUMP JUMPDEST PUSH2 0xB83 JUMP JUMPDEST STOP JUMPDEST CALLVALUE DUP1 ISZERO PUSH2 0x2E2 JUMPI PUSH0 PUSH0 REVERT JUMPDEST POP PUSH2 0x2EB PUSH2 0xC13 JUMP JUMPDEST PUSH1 0x40 MLOAD PUSH2 0x2F8 SWAP2 SWAP1 PUSH2 0xF01 JUMP JUMPDEST PUSH1 0x40 MLOAD DUP1 SWAP2 SUB SWAP1 RETURN JUMPDEST CALLVALUE DUP1 ISZERO PUSH2 0x30C JUMPI PUSH0 PUSH0 REVERT JUMPDEST POP PUSH2 0x327 PUSH1 0x4 DUP1 CALLDATASIZE SUB DUP2 ADD SWAP1 PUSH2 0x322 SWAP2 SWAP1 PUSH2 0xF7B JUMP JUMPDEST PUSH2 0xC19 JUMP JUMPDEST PUSH1 0x40 MLOAD PUSH2 0x334 SWAP2 SWAP1 PUSH2 0xF01 JUMP JUMPDEST PUSH1 0x40 MLOAD DUP1 SWAP2 SUB SWAP1 RETURN JUMPDEST CALLVALUE DUP1 ISZERO PUSH2 0x348 JUMPI PUSH0 PUSH0 REVERT JUMPDEST POP PUSH2 0x351 PUSH2 0xC2E JUMP JUMPDEST PUSH1 0x40 MLOAD PUSH2 0x35E SWAP2 SWAP1 PUSH2 0xF01 JUMP JUMPDEST PUSH1 0x40 MLOAD DUP1 SWAP2 SUB SWAP1 RETURN JUMPDEST CALLVALUE DUP1 ISZERO PUSH2 0x372 JUMPI PUSH0 PUSH0 REVERT JUMPDEST POP PUSH2 0x37B PUSH2 0xC34 JUMP JUMPDEST PUSH1 0x40 MLOAD PUSH2 0x388 SWAP2 SWAP1 PUSH2 0xF01 JUMP JUMPDEST PUSH1 0x40 MLOAD DUP1 SWAP2 SUB SWAP1 RETURN JUMPDEST CALLVALUE DUP1 ISZERO PUSH2 0x39C JUMPI PUSH0 PUSH0 REVERT JUMPDEST POP PUSH2 0x3B7 PUSH1 0x4 DUP1 CALLDATASIZE SUB DUP2 ADD SWAP1 PUSH2 0x3B2 SWAP2 SWAP1 PUSH2 0xF7B JUMP JUMPDEST PUSH2 0xC3A JUMP JUMPDEST PUSH1 0x40 MLOAD PUSH2 0x3C4 SWAP2 SWAP1 PUSH2 0xF34 JUMP JUMPDEST PUSH1 0x40 MLOAD DUP1 SWAP2 SUB SWAP1 RETURN JUMPDEST PUSH2 0x3D5 PUSH2 0xC57 JUMP JUMPDEST STOP JUMPDEST CALLVALUE DUP1 ISZERO PUSH2 0x3E2 JUMPI PUSH0 PUSH0 REVERT JUMPDEST POP PUSH2 0x3EB PUSH2 0xE17 JUMP JUMPDEST PUSH1 0x40 MLOAD PUSH2 0x3F8 SWAP2 SWAP1 PUSH2 0xED0 JUMP JUMPDEST PUSH1 0x40 MLOAD DUP1 SWAP2 SUB SWAP1 RETURN JUMPDEST PUSH32 0x0 DUP2 JUMP JUMPDEST PUSH32 0x0 TIMESTAMP LT ISZERO PUSH2 0x488 JUMPI PUSH1 0x40 MLOAD PUSH32 0x8C379A000000000000000000000000000000000000000000000000000000000 DUP2 MSTORE PUSH1 0x4 ADD PUSH2 0x47F SWAP1 PUSH2 0x1055 JUMP JUMPDEST PUSH1 0x40 MLOAD DUP1 SWAP2 SUB SWAP1 REVERT JUMPDEST PUSH1 0x2 PUSH0 SWAP1 SLOAD SWAP1 PUSH2 0x100 EXP SWAP1 DIV PUSH1 0xFF AND ISZERO PUSH2 0x4D7 JUMPI PUSH1 0x40 MLOAD PUSH32 0x8C379A000000000000000000000000000000000000000000000000000000000 DUP2 MSTORE PUSH1 0x4 ADD PUSH2 0x4CE SWAP1 PUSH2 0x10BD JUMP JUMPDEST PUSH1 0x40 MLOAD DUP1 SWAP2 SUB SWAP1 REVERT JUMPDEST PUSH2 0x4DF PUSH2 0x5B5 JUMP JUMPDEST PUSH1 0x2 PUSH1 0x1 PUSH2 0x100 EXP DUP2 SLOAD DUP2 PUSH1 0xFF MUL NOT AND SWAP1 DUP4 ISZERO ISZERO MUL OR SWAP1 SSTORE POP PUSH1 0x1 PUSH1 0x2 PUSH0 PUSH2 0x100 EXP DUP2 SLOAD DUP2 PUSH1 0xFF MUL NOT AND SWAP1 DUP4 ISZERO ISZERO MUL OR SWAP1 SSTORE POP PUSH32 0xDABF623A6BEC72AD159E2D9533E7149EC45BFC657E39F49FB6A9509852DC77DC PUSH1 0x2 PUSH1 0x1 SWAP1 SLOAD SWAP1 PUSH2 0x100 EXP SWAP1 DIV PUSH1 0xFF AND PUSH1 0x40 MLOAD PUSH2 0x550 SWAP2 SWAP1 PUSH2 0xF34 JUMP JUMPDEST PUSH1 0x40 MLOAD DUP1 SWAP2 SUB SWAP1 LOG1 JUMP JUMPDEST PUSH32 0x0 DUP2 JUMP JUMPDEST PUSH1 0x2 PUSH1 0x1 SWAP1 SLOAD SWAP1 PUSH2 0x100 EXP SWAP1 DIV PUSH1 0xFF AND DUP2 JUMP JUMPDEST PUSH32 0x0 DUP2 JUMP JUMPDEST PUSH0 PUSH32 0x0 PUSH1 0x1 SLOAD LT ISZERO SWAP1 POP SWAP1 JUMP JUMPDEST PUSH1 0x2 PUSH0 SWAP1 SLOAD SWAP1 PUSH2 0x100 EXP SWAP1 DIV PUSH1 0xFF AND DUP2 JUMP JUMPDEST PUSH32 0x0 DUP2 JUMP JUMPDEST PUSH2 0x61F PUSH2 0xE3B JUMP JUMPDEST PUSH1 0x2 PUSH0 SWAP1 SLOAD SWAP1 PUSH2 0x100 EXP SWAP1 DIV PUSH1 0xFF AND PUSH2 0x66D JUMPI PUSH1 0x40 MLOAD PUSH32 0x8C379A000000000000000000000000000000000000000000000000000000000 DUP2 MSTORE PUSH1 0x4 ADD PUSH2 0x664 SWAP1 PUSH2 0x1125 JUMP JUMPDEST PUSH1 0x40 MLOAD DUP1 SWAP2 SUB SWAP1 REVERT JUMPDEST PUSH1 0x7 PUSH0 CALLER PUSH20 0xFFFFFFFFFFFFFFFFFFFFFFFFFFFFFFFFFFFFFFFF AND PUSH20 0xFFFFFFFFFFFFFFFFFFFFFFFFFFFFFFFFFFFFFFFF AND DUP2 MSTORE PUSH1 0x20 ADD SWAP1 DUP2 MSTORE PUSH1 0x20 ADD PUSH0 KECCAK256 PUSH0 SWAP1 SLOAD SWAP1 PUSH2 0x100 EXP SWAP1 DIV PUSH1 0xFF AND ISZERO PUSH2 0x6F7 JUMPI PUSH1 0x40 MLOAD PUSH32 0x8C379A000000000000000000000000000000000000000000000000000000000 DUP2 MSTORE PUSH1 0x4 ADD PUSH2 0x6EE SWAP1 PUSH2 0x118D JUMP JUMPDEST PUSH1 0x40 MLOAD DUP1 SWAP2 SUB SWAP1 REVERT JUMPDEST PUSH0 PUSH0 PUSH0 PUSH1 0x2 PUSH1 0x1 SWAP1 SLOAD SWAP1 PUSH2 0x100 EXP SWAP1 DIV PUSH1 0xFF AND ISZERO PUSH2 0x75E JUMPI PUSH1 0x3 PUSH0 CALLER PUSH20 0xFFFFFFFFFFFFFFFFFFFFFFFFFFFFFFFFFFFFFFFF AND PUSH20 0xFFFFFFFFFFFFFFFFFFFFFFFFFFFFFFFFFFFFFFFF AND DUP2 MSTORE PUSH1 0x20 ADD SWAP1 DUP2 MSTORE PUSH1 0x20 ADD PUSH0 KECCAK256 SLOAD SWAP3 POP PUSH1 0x5 SLOAD SWAP2 POP PUSH1 0x6 SLOAD SWAP1 POP PUSH2 0x7A9 JUMP JUMPDEST PUSH1 0x4 PUSH0 CALLER PUSH20 0xFFFFFFFFFFFFFFFFFFFFFFFFFFFFFFFFFFFFFFFF AND PUSH20 0xFFFFFFFFFFFFFFFFFFFFFFFFFFFFFFFFFFFFFFFF AND DUP2 MSTORE PUSH1 0x20 ADD SWAP1 DUP2 MSTORE PUSH1 0x20 ADD PUSH0 KECCAK256 SLOAD SWAP3 POP PUSH1 0x6 SLOAD SWAP2 POP PUSH1 0x5 SLOAD SWAP1 POP JUMPDEST PUSH0 DUP4 GT PUSH2 0x7EB JUMPI PUSH1 0x40 MLOAD PUSH32 0x8C379A000000000000000000000000000000000000000000000000000000000 DUP2 MSTORE PUSH1 0x4 ADD PUSH2 0x7E2 SWAP1 PUSH2 0x11F5 JUMP JUMPDEST PUSH1 0x40 MLOAD DUP1 SWAP2 SUB SWAP1 REVERT JUMPDEST PUSH1 0x1 PUSH1 0x7 PUSH0 CALLER PUSH20 0xFFFFFFFFFFFFFFFFFFFFFFFFFFFFFFFFFFFFFFFF AND PUSH20 0xFFFFFFFFFFFFFFFFFFFFFFFFFFFFFFFFFFFFFFFF AND DUP2 MSTORE PUSH1 0x20 ADD SWAP1 DUP2 MSTORE PUSH1 0x20 ADD PUSH0 KECCAK256 PUSH0 PUSH2 0x100 EXP DUP2 SLOAD DUP2 PUSH1 0xFF MUL NOT AND SWAP1 DUP4 ISZERO ISZERO MUL OR SWAP1 SSTORE POP PUSH0 DUP2 DUP4 PUSH2 0x84D SWAP2 SWAP1 PUSH2 0x1240 JUMP JUMPDEST SWAP1 POP PUSH0 DUP3 SUB PUSH2 0x8F1 JUMPI CALLER PUSH20 0xFFFFFFFFFFFFFFFFFFFFFFFFFFFFFFFFFFFFFFFF AND PUSH2 0x8FC DUP6 SWAP1 DUP2 ISZERO MUL SWAP1 PUSH1 0x40 MLOAD PUSH0 PUSH1 0x40 MLOAD DUP1 DUP4 SUB DUP2 DUP6 DUP9 DUP9 CALL SWAP4 POP POP POP POP ISZERO DUP1 ISZERO PUSH2 0x899 JUMPI RETURNDATASIZE PUSH0 PUSH0 RETURNDATACOPY RETURNDATASIZE PUSH0 REVERT JUMPDEST POP CALLER PUSH20 0xFFFFFFFFFFFFFFFFFFFFFFFFFFFFFFFFFFFFFFFF AND PUSH32 0xD8138F8A3F377C5259CA548E70E4C2DE94F129F5A11036A15B69513CBA2B426A DUP6 PUSH1 0x40 MLOAD PUSH2 0x8E0 SWAP2 SWAP1 PUSH2 0xF01 JUMP JUMPDEST PUSH1 0x40 MLOAD DUP1 SWAP2 SUB SWAP1 LOG2 POP POP POP POP PUSH2 0x9A3 JUMP JUMPDEST PUSH0 DUP4 DUP3 DUP7 PUSH2 0x8FF SWAP2 SWAP1 PUSH2 0x1273 JUMP JUMPDEST PUSH2 0x909 SWAP2 SWAP1 PUSH2 0x12E1 JUMP JUMPDEST SWAP1 POP CALLER PUSH20 0xFFFFFFFFFFFFFFFFFFFFFFFFFFFFFFFFFFFFFFFF AND PUSH2 0x8FC DUP3 SWAP1 DUP2 ISZERO MUL SWAP1 PUSH1 0x40 MLOAD PUSH0 PUSH1 0x40 MLOAD DUP1 DUP4 SUB DUP2 DUP6 DUP9 DUP9 CALL SWAP4 POP POP POP POP ISZERO DUP1 ISZERO PUSH2 0x94E JUMPI RETURNDATASIZE PUSH0 PUSH0 RETURNDATACOPY RETURNDATASIZE PUSH0 REVERT JUMPDEST POP CALLER PUSH20 0xFFFFFFFFFFFFFFFFFFFFFFFFFFFFFFFFFFFFFFFF AND PUSH32 0xD8138F8A3F377C5259CA548E70E4C2DE94F129F5A11036A15B69513CBA2B426A DUP3 PUSH1 0x40 MLOAD PUSH2 0x995 SWAP2 SWAP1 PUSH2 0xF01 JUMP JUMPDEST PUSH1 0x40 MLOAD DUP1 SWAP2 SUB SWAP1 LOG2 POP POP POP POP POP JUMPDEST PUSH2 0x9AB PUSH2 0xE88 JUMP JUMPDEST JUMP JUMPDEST PUSH1 0x3 PUSH1 0x20 MSTORE DUP1 PUSH0 MSTORE PUSH1 0x40 PUSH0 KECCAK256 PUSH0 SWAP2 POP SWAP1 POP SLOAD DUP2 JUMP JUMPDEST PUSH2 0x9CA PUSH2 0xE3B JUMP JUMPDEST PUSH32 0x0 TIMESTAMP LT PUSH2 0xA2C JUMPI PUSH1 0x40 MLOAD PUSH32 0x8C379A000000000000000000000000000000000000000000000000000000000 DUP2 MSTORE PUSH1 0x4 ADD PUSH2 0xA23 SWAP1 PUSH2 0x135B JUMP JUMPDEST PUSH1 0x40 MLOAD DUP1 SWAP2 SUB SWAP1 REVERT JUMPDEST PUSH1 0x2 PUSH0 SWAP1 SLOAD SWAP1 PUSH2 0x100 EXP SWAP1 DIV PUSH1 0xFF AND ISZERO PUSH2 0xA7B JUMPI PUSH1 0x40 MLOAD PUSH32 0x8C379A000000000000000000000000000000000000000000000000000000000 DUP2 MSTORE PUSH1 0x4 ADD PUSH2 0xA72 SWAP1 PUSH2 0x10BD JUMP JUMPDEST PUSH1 0x40 MLOAD DUP1 SWAP2 SUB SWAP1 REVERT JUMPDEST PUSH0 CALLVALUE GT PUSH2 0xABD JUMPI PUSH1 0x40 MLOAD PUSH32 0x8C379A000000000000000000000000000000000000000000000000000000000 DUP2 MSTORE PUSH1 0x4 ADD PUSH2 0xAB4 SWAP1 PUSH2 0x13C3 JUMP JUMPDEST PUSH1 0x40 MLOAD DUP1 SWAP2 SUB SWAP1 REVERT JUMPDEST CALLVALUE PUSH1 0x3 PUSH0 CALLER PUSH20 0xFFFFFFFFFFFFFFFFFFFFFFFFFFFFFFFFFFFFFFFF AND PUSH20 0xFFFFFFFFFFFFFFFFFFFFFFFFFFFFFFFFFFFFFFFF AND DUP2 MSTORE PUSH1 0x20 ADD SWAP1 DUP2 MSTORE PUSH1 0x20 ADD PUSH0 KECCAK256 PUSH0 DUP3 DUP3 SLOAD PUSH2 0xB09 SWAP2 SWAP1 PUSH2 0x1240 JUMP JUMPDEST SWAP3 POP POP DUP2 SWAP1 SSTORE POP CALLVALUE PUSH1 0x5 PUSH0 DUP3 DUP3 SLOAD PUSH2 0xB21 SWAP2 SWAP1 PUSH2 0x1240 JUMP JUMPDEST SWAP3 POP POP DUP2 SWAP1 SSTORE POP CALLER PUSH20 0xFFFFFFFFFFFFFFFFFFFFFFFFFFFFFFFFFFFFFFFF AND PUSH32 0x4E83B47EA16A7C02530416ADA08B6C9D3CF014F8771D26A902F298A960489615 PUSH1 0x1 CALLVALUE PUSH1 0x40 MLOAD PUSH2 0xB71 SWAP3 SWAP2 SWAP1 PUSH2 0x13E1 JUMP JUMPDEST PUSH1 0x40 MLOAD DUP1 SWAP2 SUB SWAP1 LOG2 PUSH2 0xB81 PUSH2 0xE88 JUMP JUMPDEST JUMP JUMPDEST PUSH1 0x2 PUSH0 SWAP1 SLOAD SWAP1 PUSH2 0x100 EXP SWAP1 DIV PUSH1 0xFF AND ISZERO PUSH2 0xBD2 JUMPI PUSH1 0x40 MLOAD PUSH32 0x8C379A000000000000000000000000000000000000000000000000000000000 DUP2 MSTORE PUSH1 0x4 ADD PUSH2 0xBC9 SWAP1 PUSH2 0x10BD JUMP JUMPDEST PUSH1 0x40 MLOAD DUP1 SWAP2 SUB SWAP1 REVERT JUMPDEST DUP1 PUSH1 0x1 DUP2 SWAP1 SSTORE POP PUSH32 0xEA4BFEE7F9FB38136C61CC04B6E56EFC93EAF1BEEF326DBC47495B358385914C DUP2 PUSH1 0x40 MLOAD PUSH2 0xC08 SWAP2 SWAP1 PUSH2 0xF01 JUMP JUMPDEST PUSH1 0x40 MLOAD DUP1 SWAP2 SUB SWAP1 LOG1 POP JUMP JUMPDEST PUSH1 0x5 SLOAD DUP2 JUMP JUMPDEST PUSH1 0x4 PUSH1 0x20 MSTORE DUP1 PUSH0 MSTORE PUSH1 0x40 PUSH0 KECCAK256 PUSH0 SWAP2 POP SWAP1 POP SLOAD DUP2 JUMP JUMPDEST PUSH1 0x6 SLOAD DUP2 JUMP JUMPDEST PUSH1 0x1 SLOAD DUP2 JUMP JUMPDEST PUSH1 0x7 PUSH1 0x20 MSTORE DUP1 PUSH0 MSTORE PUSH1 0x40 PUSH0 KECCAK256 PUSH0 SWAP2 POP SLOAD SWAP1 PUSH2 0x100 EXP SWAP1 DIV PUSH1 0xFF AND DUP2 JUMP JUMPDEST PUSH2 0xC5F PUSH2 0xE3B JUMP JUMPDEST PUSH32 0x0 TIMESTAMP LT PUSH2 0xCC1 JUMPI PUSH1 0x40 MLOAD PUSH32 0x8C379A000000000000000000000000000000000000000000000000000000000 DUP2 MSTORE PUSH1 0x4 ADD PUSH2 0xCB8 SWAP1 PUSH2 0x135B JUMP JUMPDEST PUSH1 0x40 MLOAD DUP1 SWAP2 SUB SWAP1 REVERT JUMPDEST PUSH1 0x2 PUSH0 SWAP1 SLOAD SWAP1 PUSH2 0x100 EXP SWAP1 DIV PUSH1 0xFF AND ISZERO PUSH2 0xD10 JUMPI PUSH1 0x40 MLOAD PUSH32 0x8C379A000000000000000000000000000000000000000000000000000000000 DUP2 MSTORE PUSH1 0x4 ADD PUSH2 0xD07 SWAP1 PUSH2 0x10BD JUMP JUMPDEST PUSH1 0x40 MLOAD DUP1 SWAP2 SUB SWAP1 REVERT JUMPDEST PUSH0 CALLVALUE GT PUSH2 0xD52 JUMPI PUSH1 0x40 MLOAD PUSH32 0x8C379A000000000000000000000000000000000000000000000000000000000 DUP2 MSTORE PUSH1 0x4 ADD PUSH2 0xD49 SWAP1 PUSH2 0x13C3 JUMP JUMPDEST PUSH1 0x40 MLOAD DUP1 SWAP2 SUB SWAP1 REVERT JUMPDEST CALLVALUE PUSH1 0x4 PUSH0 CALLER PUSH20 0xFFFFFFFFFFFFFFFFFFFFFFFFFFFFFFFFFFFFFFFF AND PUSH20 0xFFFFFFFFFFFFFFFFFFFFFFFFFFFFFFFFFFFFFFFF AND DUP2 MSTORE PUSH1 0x20 ADD SWAP1 DUP2 MSTORE PUSH1 0x20 ADD PUSH0 KECCAK256 PUSH0 DUP3 DUP3 SLOAD PUSH2 0xD9E SWAP2 SWAP1 PUSH2 0x1240 JUMP JUMPDEST SWAP3 POP POP DUP2 SWAP1 SSTORE POP CALLVALUE PUSH1 0x6 PUSH0 DUP3 DUP3 SLOAD PUSH2 0xDB6 SWAP2 SWAP1 PUSH2 0x1240 JUMP JUMPDEST SWAP3 POP POP DUP2 SWAP1 SSTORE POP CALLER PUSH20 0xFFFFFFFFFFFFFFFFFFFFFFFFFFFFFFFFFFFFFFFF AND PUSH32 0x4E83B47EA16A7C02530416ADA08B6C9D3CF014F8771D26A902F298A960489615 PUSH0 CALLVALUE PUSH1 0x40 MLOAD PUSH2 0xE05 SWAP3 SWAP2 SWAP1 PUSH2 0x13E1 JUMP JUMPDEST PUSH1 0x40 MLOAD DUP1 SWAP2 SUB SWAP1 LOG2 PUSH2 0xE15 PUSH2 0xE88 JUMP JUMPDEST JUMP JUMPDEST PUSH32 0x0 DUP2 JUMP JUMPDEST PUSH1 0x2 PUSH0 SLOAD SUB PUSH2 0xE7F JUMPI PUSH1 0x40 MLOAD PUSH32 0x8C379A000000000000000000000000000000000000000000000000000000000 DUP2 MSTORE PUSH1 0x4 ADD PUSH2 0xE76 SWAP1 PUSH2 0x1452 JUMP JUMPDEST PUSH1 0x40 MLOAD DUP1 SWAP2 SUB SWAP1 REVERT JUMPDEST PUSH1 0x2 PUSH0 DUP2 SWAP1 SSTORE POP JUMP JUMPDEST PUSH1 0x1 PUSH0 DUP2 SWAP1 SSTORE POP JUMP JUMPDEST PUSH0 PUSH20 0xFFFFFFFFFFFFFFFFFFFFFFFFFFFFFFFFFFFFFFFF DUP3 AND SWAP1 POP SWAP2 SWAP1 POP JUMP JUMPDEST PUSH0 PUSH2 0xEBA DUP3 PUSH2 0xE91 JUMP JUMPDEST SWAP1 POP SWAP2 SWAP1 POP JUMP JUMPDEST PUSH2 0xECA DUP2 PUSH2 0xEB0 JUMP JUMPDEST DUP3 MSTORE POP POP JUMP JUMPDEST PUSH0 PUSH1 0x20 DUP3 ADD SWAP1 POP PUSH2 0xEE3 PUSH0 DUP4 ADD DUP5 PUSH2 0xEC1 JUMP JUMPDEST SWAP3 SWAP2 POP POP JUMP JUMPDEST PUSH0 DUP2 SWAP1 POP SWAP2 SWAP1 POP JUMP JUMPDEST PUSH2 0xEFB DUP2 PUSH2 0xEE9 JUMP JUMPDEST DUP3 MSTORE POP POP JUMP JUMPDEST PUSH0 PUSH1 0x20 DUP3 ADD SWAP1 POP PUSH2 0xF14 PUSH0 DUP4 ADD DUP5 PUSH2 0xEF2 JUMP JUMPDEST SWAP3 SWAP2 POP POP JUMP JUMPDEST PUSH0 DUP2 ISZERO ISZERO SWAP1 POP SWAP2 SWAP1 POP JUMP JUMPDEST PUSH2 0xF2E DUP2 PUSH2 0xF1A JUMP JUMPDEST DUP3 MSTORE POP POP JUMP JUMPDEST PUSH0 PUSH1 0x20 DUP3 ADD SWAP1 POP PUSH2 0xF47 PUSH0 DUP4 ADD DUP5 PUSH2 0xF25 JUMP JUMPDEST SWAP3 SWAP2 POP POP JUMP JUMPDEST PUSH0 PUSH0 REVERT JUMPDEST PUSH2 0xF5A DUP2 PUSH2 0xEB0 JUMP JUMPDEST DUP2 EQ PUSH2 0xF64 JUMPI PUSH0 PUSH0 REVERT JUMPDEST POP JUMP JUMPDEST PUSH0 DUP2 CALLDATALOAD SWAP1 POP PUSH2 0xF75 DUP2 PUSH2 0xF51 JUMP JUMPDEST SWAP3 SWAP2 POP POP JUMP JUMPDEST PUSH0 PUSH1 0x20 DUP3 DUP5 SUB SLT ISZERO PUSH2 0xF90 JUMPI PUSH2 0xF8F PUSH2 0xF4D JUMP JUMPDEST JUMPDEST PUSH0 PUSH2 0xF9D DUP5 DUP3 DUP6 ADD PUSH2 0xF67 JUMP JUMPDEST SWAP2 POP POP SWAP3 SWAP2 POP POP JUMP JUMPDEST PUSH2 0xFAF DUP2 PUSH2 0xEE9 JUMP JUMPDEST DUP2 EQ PUSH2 0xFB9 JUMPI PUSH0 PUSH0 REVERT JUMPDEST POP JUMP JUMPDEST PUSH0 DUP2 CALLDATALOAD SWAP1 POP PUSH2 0xFCA DUP2 PUSH2 0xFA6 JUMP JUMPDEST SWAP3 SWAP2 POP POP JUMP JUMPDEST PUSH0 PUSH1 0x20 DUP3 DUP5 SUB SLT ISZERO PUSH2 0xFE5 JUMPI PUSH2 0xFE4 PUSH2 0xF4D JUMP JUMPDEST JUMPDEST PUSH0 PUSH2 0xFF2 DUP5 DUP3 DUP6 ADD PUSH2 0xFBC JUMP JUMPDEST SWAP2 POP POP SWAP3 SWAP2 POP POP JUMP JUMPDEST PUSH0 DUP3 DUP3 MSTORE PUSH1 0x20 DUP3 ADD SWAP1 POP SWAP3 SWAP2 POP POP JUMP JUMPDEST PUSH32 0x4E6F7420656E6465640000000000000000000000000000000000000000000000 PUSH0 DUP3 ADD MSTORE POP JUMP JUMPDEST PUSH0 PUSH2 0x103F PUSH1 0x9 DUP4 PUSH2 0xFFB JUMP JUMPDEST SWAP2 POP PUSH2 0x104A DUP3 PUSH2 0x100B JUMP JUMPDEST PUSH1 0x20 DUP3 ADD SWAP1 POP SWAP2 SWAP1 POP JUMP JUMPDEST PUSH0 PUSH1 0x20 DUP3 ADD SWAP1 POP DUP2 DUP2 SUB PUSH0 DUP4 ADD MSTORE PUSH2 0x106C DUP2 PUSH2 0x1033 JUMP JUMPDEST SWAP1 POP SWAP2 SWAP1 POP JUMP JUMPDEST PUSH32 0x416C7265616479207265736F6C76656400000000000000000000000000000000 PUSH0 DUP3 ADD MSTORE POP JUMP JUMPDEST PUSH0 PUSH2 0x10A7 PUSH1 0x10 DUP4 PUSH2 0xFFB JUMP JUMPDEST SWAP2 POP PUSH2 0x10B2 DUP3 PUSH2 0x1073 JUMP JUMPDEST PUSH1 0x20 DUP3 ADD SWAP1 POP SWAP2 SWAP1 POP JUMP JUMPDEST PUSH0 PUSH1 0x20 DUP3 ADD SWAP1 POP DUP2 DUP2 SUB PUSH0 DUP4 ADD MSTORE PUSH2 0x10D4 DUP2 PUSH2 0x109B JUMP JUMPDEST SWAP1 POP SWAP2 SWAP1 POP JUMP JUMPDEST PUSH32 0x4E6F74207265736F6C7665640000000000000000000000000000000000000000 PUSH0 DUP3 ADD MSTORE POP JUMP JUMPDEST PUSH0 PUSH2 0x110F PUSH1 0xC DUP4 PUSH2 0xFFB JUMP JUMPDEST SWAP2 POP PUSH2 0x111A DUP3 PUSH2 0x10DB JUMP JUMPDEST PUSH1 0x20 DUP3 ADD SWAP1 POP SWAP2 SWAP1 POP JUMP JUMPDEST PUSH0 PUSH1 0x20 DUP3 ADD SWAP1 POP DUP2 DUP2 SUB PUSH0 DUP4 ADD MSTORE PUSH2 0x113C DUP2 PUSH2 0x1103 JUMP JUMPDEST SWAP1 POP SWAP2 SWAP1 POP JUMP JUMPDEST PUSH32 0x416C726561647920636C61696D65640000000000000000000000000000000000 PUSH0 DUP3 ADD MSTORE POP JUMP JUMPDEST PUSH0 PUSH2 0x1177 PUSH1 0xF DUP4 PUSH2 0xFFB JUMP JUMPDEST SWAP2 POP PUSH2 0x1182 DUP3 PUSH2 0x1143 JUMP JUMPDEST PUSH1 0x20 DUP3 ADD SWAP1 POP SWAP2 SWAP1 POP JUMP JUMPDEST PUSH0 PUSH1 0x20 DUP3 ADD SWAP1 POP DUP2 DUP2 SUB PUSH0 DUP4 ADD MSTORE PUSH2 0x11A4 DUP2 PUSH2 0x116B JUMP JUMPDEST SWAP1 POP SWAP2 SWAP1 POP JUMP JUMPDEST PUSH32 0x4E6F2077696E6E696E6773000000000000000000000000000000000000000000 PUSH0 DUP3 ADD MSTORE POP JUMP JUMPDEST PUSH0 PUSH2 0x11DF PUSH1 0xB DUP4 PUSH2 0xFFB JUMP JUMPDEST SWAP2 POP PUSH2 0x11EA DUP3 PUSH2 0x11AB JUMP JUMPDEST PUSH1 0x20 DUP3 ADD SWAP1 POP SWAP2 SWAP1 POP JUMP JUMPDEST PUSH0 PUSH1 0x20 DUP3 ADD SWAP1 POP DUP2 DUP2 SUB PUSH0 DUP4 ADD MSTORE PUSH2 0x120C DUP2 PUSH2 0x11D3 JUMP JUMPDEST SWAP1 POP SWAP2 SWAP1 POP JUMP JUMPDEST PUSH32 0x4E487B7100000000000000000000000000000000000000000000000000000000 PUSH0 MSTORE PUSH1 0x11 PUSH1 0x4 MSTORE PUSH1 0x24 PUSH0 REVERT JUMPDEST PUSH0 PUSH2 0x124A DUP3 PUSH2 0xEE9 JUMP JUMPDEST SWAP2 POP PUSH2 0x1255 DUP4 PUSH2 0xEE9 JUMP JUMPDEST SWAP3 POP DUP3 DUP3 ADD SWAP1 POP DUP1 DUP3 GT ISZERO PUSH2 0x126D JUMPI PUSH2 0x126C PUSH2 0x1213 JUMP JUMPDEST JUMPDEST SWAP3 SWAP2 POP POP JUMP JUMPDEST PUSH0 PUSH2 0x127D DUP3 PUSH2 0xEE9 JUMP JUMPDEST SWAP2 POP PUSH2 0x1288 DUP4 PUSH2 0xEE9 JUMP JUMPDEST SWAP3 POP DUP3 DUP3 MUL PUSH2 0x1296 DUP2 PUSH2 0xEE9 JUMP JUMPDEST SWAP2 POP DUP3 DUP3 DIV DUP5 EQ DUP4 ISZERO OR PUSH2 0x12AD JUMPI PUSH2 0x12AC PUSH2 0x1213 JUMP JUMPDEST JUMPDEST POP SWAP3 SWAP2 POP POP JUMP JUMPDEST PUSH32 0x4E487B7100000000000000000000000000000000000000000000000000000000 PUSH0 MSTORE PUSH1 0x12 PUSH1 0x4 MSTORE PUSH1 0x24 PUSH0 REVERT JUMPDEST PUSH0 PUSH2 0x12EB DUP3 PUSH2 0xEE9 JUMP JUMPDEST SWAP2 POP PUSH2 0x12F6 DUP4 PUSH2 0xEE9 JUMP JUMPDEST SWAP3 POP DUP3 PUSH2 0x1306 JUMPI PUSH2 0x1305 PUSH2 0x12B4 JUMP JUMPDEST JUMPDEST DUP3 DUP3 DIV SWAP1 POP SWAP3 SWAP2 POP POP JUMP JUMPDEST PUSH32 0x4D61726B657420656E6465640000000000000000000000000000000000000000 PUSH0 DUP3 ADD MSTORE POP JUMP JUMPDEST PUSH0 PUSH2 0x1345 PUSH1 0xC DUP4 PUSH2 0xFFB JUMP JUMPDEST SWAP2 POP PUSH2 0x1350 DUP3 PUSH2 0x1311 JUMP JUMPDEST PUSH1 0x20 DUP3 ADD SWAP1 POP SWAP2 SWAP1 POP JUMP JUMPDEST PUSH0 PUSH1 0x20 DUP3 ADD SWAP1 POP DUP2 DUP2 SUB PUSH0 DUP4 ADD MSTORE PUSH2 0x1372 DUP2 PUSH2 0x1339 JUMP JUMPDEST SWAP1 POP SWAP2 SWAP1 POP JUMP JUMPDEST PUSH32 0x5A65726F206465706F7369740000000000000000000000000000000000000000 PUSH0 DUP3 ADD MSTORE POP JUMP JUMPDEST PUSH0 PUSH2 0x13AD PUSH1 0xC DUP4 PUSH2 0xFFB JUMP JUMPDEST SWAP2 POP PUSH2 0x13B8 DUP3 PUSH2 0x1379 JUMP JUMPDEST PUSH1 0x20 DUP3 ADD SWAP1 POP SWAP2 SWAP1 POP JUMP JUMPDEST PUSH0 PUSH1 0x20 DUP3 ADD SWAP1 POP DUP2 DUP2 SUB PUSH0 DUP4 ADD MSTORE PUSH2 0x13DA DUP2 PUSH2 0x13A1 JUMP JUMPDEST SWAP1 POP SWAP2 SWAP1 POP JUMP JUMPDEST PUSH0 PUSH1 0x40 DUP3 ADD SWAP1 POP PUSH2 0x13F4 PUSH0 DUP4 ADD DUP6 PUSH2 0xF25 JUMP JUMPDEST PUSH2 0x1401 PUSH1 0x20 DUP4 ADD DUP5 PUSH2 0xEF2 JUMP JUMPDEST SWAP4 SWAP3 POP POP POP JUMP JUMPDEST PUSH32 0x5265656E7472616E637947756172643A207265656E7472616E742063616C6C00 PUSH0 DUP3 ADD MSTORE POP JUMP JUMPDEST PUSH0 PUSH2 0x143C PUSH1 0x1F DUP4 PUSH2 0xFFB JUMP JUMPDEST SWAP2 POP PUSH2 0x1447 DUP3 PUSH2 0x1408 JUMP JUMPDEST PUSH1 0x20 DUP3 ADD SWAP1 POP SWAP2 SWAP1 POP JUMP JUMPDEST PUSH0 PUSH1 0x20 DUP3 ADD SWAP1 POP DUP2 DUP2 SUB PUSH0 DUP4 ADD MSTORE PUSH2 0x1469 DUP2 PUSH2 0x1430 JUMP JUMPDEST SWAP1 POP SWAP2 SWAP1 POP JUMP INVALID LOG2 PUSH5 0x6970667358 0x22 SLT KECCAK256 0xEA 0xAD 0xC9 0xB2 COINBASE 0xBA PUSH15 0x1DF30FB7C3D347526D0230915C4FE5 0x23 PUSH6 0x3B47522F86E1 EXP SELFBALANCE PUSH5 0x736F6C6343 STOP ADDMOD 0x1F STOP CALLER "
				},
				"gasEstimates": {
					"creation": {
						"codeDepositCost": "1057200",
						"executionCost": "infinite",
						"totalCost": "infinite"
					},
					"external": {
						"checkMilestone()": "infinite",
						"claim()": "infinite",
						"claimed(address)": "2899",
						"creator()": "infinite",
						"deadline()": "infinite",
						"depositNo()": "infinite",
						"depositYes()": "infinite",
						"initialSupply()": "infinite",
						"latestSupply()": "2469",
						"noDeposits(address)": "2913",
						"reached()": "2607",
						"resolve()": "infinite",
						"resolved()": "2533",
						"threshold()": "infinite",
						"token()": "infinite",
						"totalNo()": "2447",
						"totalYes()": "2514",
						"updateSupply(uint256)": "infinite",
						"yesDeposits(address)": "2825"
					}
				},
				"methodIdentifiers": {
					"checkMilestone()": "39a50508",
					"claim()": "4e71d92d",
					"claimed(address)": "c884ef83",
					"creator()": "02d05d3f",
					"deadline()": "29dcb0cf",
					"depositNo()": "d9c0ad60",
					"depositYes()": "6a40b829",
					"initialSupply()": "378dc3dc",
					"latestSupply()": "bca1e4cb",
					"noDeposits(address)": "a2fea6f7",
					"reached()": "2ec40ac8",
					"resolve()": "2810e1d6",
					"resolved()": "3f6fa655",
					"threshold()": "42cde4e8",
					"token()": "fc0c546a",
					"totalNo()": "af008883",
					"totalYes()": "88ba8dd6",
					"updateSupply(uint256)": "6bd08049",
					"yesDeposits(address)": "648d15a9"
				}
			},
			"storageLayout": {
				"storage": [
					{
						"astId": 10,
						"contract": "contracts/MilestoneMarket.sol:MilestoneMarket",
						"label": "_status",
						"offset": 0,
						"slot": "0",
						"type": "t_uint256"
					},
					{
						"astId": 167,
						"contract": "contracts/MilestoneMarket.sol:MilestoneMarket",
						"label": "latestSupply",
						"offset": 0,
						"slot": "1",
						"type": "t_uint256"
					},
					{
						"astId": 169,
						"contract": "contracts/MilestoneMarket.sol:MilestoneMarket",
						"label": "resolved",
						"offset": 0,
						"slot": "2",
						"type": "t_bool"
					},
					{
						"astId": 171,
						"contract": "contracts/MilestoneMarket.sol:MilestoneMarket",
						"label": "reached",
						"offset": 1,
						"slot": "2",
						"type": "t_bool"
					},
					{
						"astId": 175,
						"contract": "contracts/MilestoneMarket.sol:MilestoneMarket",
						"label": "yesDeposits",
						"offset": 0,
						"slot": "3",
						"type": "t_mapping(t_address,t_uint256)"
					},
					{
						"astId": 179,
						"contract": "contracts/MilestoneMarket.sol:MilestoneMarket",
						"label": "noDeposits",
						"offset": 0,
						"slot": "4",
						"type": "t_mapping(t_address,t_uint256)"
					},
					{
						"astId": 181,
						"contract": "contracts/MilestoneMarket.sol:MilestoneMarket",
						"label": "totalYes",
						"offset": 0,
						"slot": "5",
						"type": "t_uint256"
					},
					{
						"astId": 183,
						"contract": "contracts/MilestoneMarket.sol:MilestoneMarket",
						"label": "totalNo",
						"offset": 0,
						"slot": "6",
						"type": "t_uint256"
					},
					{
						"astId": 187,
						"contract": "contracts/MilestoneMarket.sol:MilestoneMarket",
						"label": "claimed",
						"offset": 0,
						"slot": "7",
						"type": "t_mapping(t_address,t_bool)"
					}
				],
				"types": {
					"t_address": {
						"encoding": "inplace",
						"label": "address",
						"numberOfBytes": "20"
					},
					"t_bool": {
						"encoding": "inplace",
						"label": "bool",
						"numberOfBytes": "1"
					},
					"t_mapping(t_address,t_bool)": {
						"encoding": "mapping",
						"key": "t_address",
						"label": "mapping(address => bool)",
						"numberOfBytes": "32",
						"value": "t_bool"
					},
					"t_mapping(t_address,t_uint256)": {
						"encoding": "mapping",
						"key": "t_address",
						"label": "mapping(address => uint256)",
						"numberOfBytes": "32",
						"value": "t_uint256"
					},
					"t_uint256": {
						"encoding": "inplace",
						"label": "uint256",
						"numberOfBytes": "32"
					}
				}
			},
			"userdoc": {
				"kind": "user",
				"methods": {},
				"version": 1
			}
		}
	}
}