{
	"contracts/token.sol": {
		"Shadow": {
			"abi": [
				{
					"inputs": [
						{
							"internalType": "address",
							"name": "_usdc",
							"type": "address"
						},
						{
							"internalType": "address",
							"name": "_forwarder",
							"type": "address"
						},
						{
							"internalType": "address",
							"name": "_router",
							"type": "address"
						}
					],
					"stateMutability": "nonpayable",
					"type": "constructor"
				},
				{
					"inputs": [
						{
							"internalType": "address",
							"name": "received",
							"type": "address"
						},
						{
							"internalType": "address",
							"name": "expected",
							"type": "address"
						}
					],
					"name": "InvalidAuthor",
					"type": "error"
				},
				{
					"inputs": [],
					"name": "InvalidForwarderAddress",
					"type": "error"
				},
				{
					"inputs": [
						{
							"internalType": "address",
							"name": "router",
							"type": "address"
						}
					],
					"name": "InvalidRouter",
					"type": "error"
				},
				{
					"inputs": [
						{
							"internalType": "address",
							"name": "sender",
							"type": "address"
						},
						{
							"internalType": "address",
							"name": "expected",
							"type": "address"
						}
					],
					"name": "InvalidSender",
					"type": "error"
				},
				{
					"inputs": [
						{
							"internalType": "bytes32",
							"name": "received",
							"type": "bytes32"
						},
						{
							"internalType": "bytes32",
							"name": "expected",
							"type": "bytes32"
						}
					],
					"name": "InvalidWorkflowId",
					"type": "error"
				},
				{
					"inputs": [
						{
							"internalType": "bytes10",
							"name": "received",
							"type": "bytes10"
						},
						{
							"internalType": "bytes10",
							"name": "expected",
							"type": "bytes10"
						}
					],
					"name": "InvalidWorkflowName",
					"type": "error"
				},
				{
					"inputs": [
						{
							"internalType": "address",
							"name": "owner",
							"type": "address"
						}
					],
					"name": "OwnableInvalidOwner",
					"type": "error"
				},
				{
					"inputs": [
						{
							"internalType": "address",
							"name": "account",
							"type": "address"
						}
					],
					"name": "OwnableUnauthorizedAccount",
					"type": "error"
				},
				{
					"inputs": [],
					"name": "WorkflowNameRequiresAuthorValidation",
					"type": "error"
				},
				{
					"anonymous": false,
					"inputs": [
						{
							"indexed": true,
							"internalType": "address",
							"name": "previousAuthor",
							"type": "address"
						},
						{
							"indexed": true,
							"internalType": "address",
							"name": "newAuthor",
							"type": "address"
						}
					],
					"name": "ExpectedAuthorUpdated",
					"type": "event"
				},
				{
					"anonymous": false,
					"inputs": [
						{
							"indexed": true,
							"internalType": "bytes32",
							"name": "previousId",
							"type": "bytes32"
						},
						{
							"indexed": true,
							"internalType": "bytes32",
							"name": "newId",
							"type": "bytes32"
						}
					],
					"name": "ExpectedWorkflowIdUpdated",
					"type": "event"
				},
				{
					"anonymous": false,
					"inputs": [
						{
							"indexed": true,
							"internalType": "bytes10",
							"name": "previousName",
							"type": "bytes10"
						},
						{
							"indexed": true,
							"internalType": "bytes10",
							"name": "newName",
							"type": "bytes10"
						}
					],
					"name": "ExpectedWorkflowNameUpdated",
					"type": "event"
				},
				{
					"anonymous": false,
					"inputs": [
						{
							"indexed": true,
							"internalType": "address",
							"name": "previousForwarder",
							"type": "address"
						},
						{
							"indexed": true,
							"internalType": "address",
							"name": "newForwarder",
							"type": "address"
						}
					],
					"name": "ForwarderAddressUpdated",
					"type": "event"
				},
				{
					"anonymous": false,
					"inputs": [
						{
							"indexed": true,
							"internalType": "address",
							"name": "previousOwner",
							"type": "address"
						},
						{
							"indexed": true,
							"internalType": "address",
							"name": "newOwner",
							"type": "address"
						}
					],
					"name": "OwnershipTransferred",
					"type": "event"
				},
				{
					"anonymous": false,
					"inputs": [
						{
							"indexed": false,
							"internalType": "string",
							"name": "message",
							"type": "string"
						}
					],
					"name": "SecurityWarning",
					"type": "event"
				},
				{
					"anonymous": false,
					"inputs": [
						{
							"indexed": true,
							"internalType": "address",
							"name": "sender",
							"type": "address"
						},
						{
							"indexed": false,
							"internalType": "bytes32",
							"name": "encryptedRecipient",
							"type": "bytes32"
						},
						{
							"indexed": false,
							"internalType": "uint256",
							"name": "amount",
							"type": "uint256"
						}
					],
					"name": "ShieldedDeposit",
					"type": "event"
				},
				{
					"anonymous": false,
					"inputs": [
						{
							"indexed": true,
							"internalType": "address",
							"name": "recipient",
							"type": "address"
						},
						{
							"indexed": false,
							"internalType": "uint256",
							"name": "amount",
							"type": "uint256"
						}
					],
					"name": "ShieldedPayout",
					"type": "event"
				},
				{
					"inputs": [
						{
							"components": [
								{
									"internalType": "bytes32",
									"name": "messageId",
									"type": "bytes32"
								},
								{
									"internalType": "uint64",
									"name": "sourceChainSelector",
									"type": "uint64"
								},
								{
									"internalType": "bytes",
									"name": "sender",
									"type": "bytes"
								},
								{
									"internalType": "bytes",
									"name": "data",
									"type": "bytes"
								},
								{
									"components": [
										{
											"internalType": "address",
											"name": "token",
											"type": "address"
										},
										{
											"internalType": "uint256",
											"name": "amount",
											"type": "uint256"
										}
									],
									"internalType": "struct Client.EVMTokenAmount[]",
									"name": "destTokenAmounts",
									"type": "tuple[]"
								}
							],
							"internalType": "struct Client.Any2EVMMessage",
							"name": "message",
							"type": "tuple"
						}
					],
					"name": "ccipReceive",
					"outputs": [],
					"stateMutability": "nonpayable",
					"type": "function"
				},
				{
					"inputs": [
						{
							"internalType": "bytes32",
							"name": "_encryptedRecipient",
							"type": "bytes32"
						},
						{
							"internalType": "uint256",
							"name": "_amount",
							"type": "uint256"
						}
					],
					"name": "deposit",
					"outputs": [],
					"stateMutability": "nonpayable",
					"type": "function"
				},
				{
					"inputs": [],
					"name": "getExpectedAuthor",
					"outputs": [
						{
							"internalType": "address",
							"name": "",
							"type": "address"
						}
					],
					"stateMutability": "view",
					"type": "function"
				},
				{
					"inputs": [],
					"name": "getExpectedWorkflowId",
					"outputs": [
						{
							"internalType": "bytes32",
							"name": "",
							"type": "bytes32"
						}
					],
					"stateMutability": "view",
					"type": "function"
				},
				{
					"inputs": [],
					"name": "getExpectedWorkflowName",
					"outputs": [
						{
							"internalType": "bytes10",
							"name": "",
							"type": "bytes10"
						}
					],
					"stateMutability": "view",
					"type": "function"
				},
				{
					"inputs": [],
					"name": "getForwarderAddress",
					"outputs": [
						{
							"internalType": "address",
							"name": "",
							"type": "address"
						}
					],
					"stateMutability": "view",
					"type": "function"
				},
				{
					"inputs": [],
					"name": "getRouter",
					"outputs": [
						{
							"internalType": "address",
							"name": "",
							"type": "address"
						}
					],
					"stateMutability": "view",
					"type": "function"
				},
				{
					"inputs": [
						{
							"internalType": "bytes",
							"name": "metadata",
							"type": "bytes"
						},
						{
							"internalType": "bytes",
							"name": "report",
							"type": "bytes"
						}
					],
					"name": "onReport",
					"outputs": [],
					"stateMutability": "nonpayable",
					"type": "function"
				},
				{
					"inputs": [],
					"name": "owner",
					"outputs": [
						{
							"internalType": "address",
							"name": "",
							"type": "address"
						}
					],
					"stateMutability": "view",
					"type": "function"
				},
				{
					"inputs": [],
					"name": "renounceOwnership",
					"outputs": [],
					"stateMutability": "nonpayable",
					"type": "function"
				},
				{
					"inputs": [
						{
							"internalType": "address",
							"name": "_author",
							"type": "address"
						}
					],
					"name": "setExpectedAuthor",
					"outputs": [],
					"stateMutability": "nonpayable",
					"type": "function"
				},
				{
					"inputs": [
						{
							"internalType": "bytes32",
							"name": "_id",
							"type": "bytes32"
						}
					],
					"name": "setExpectedWorkflowId",
					"outputs": [],
					"stateMutability": "nonpayable",
					"type": "function"
				},
				{
					"inputs": [
						{
							"internalType": "string",
							"name": "_name",
							"type": "string"
						}
					],
					"name": "setExpectedWorkflowName",
					"outputs": [],
					"stateMutability": "nonpayable",
					"type": "function"
				},
				{
					"inputs": [
						{
							"internalType": "address",
							"name": "_forwarder",
							"type": "address"
						}
					],
					"name": "setForwarderAddress",
					"outputs": [],
					"stateMutability": "nonpayable",
					"type": "function"
				},
				{
					"inputs": [
						{
							"internalType": "bytes4",
							"name": "interfaceId",
							"type": "bytes4"
						}
					],
					"name": "supportsInterface",
					"outputs": [
						{
							"internalType": "bool",
							"name": "",
							"type": "bool"
						}
					],
					"stateMutability": "view",
					"type": "function"
				},
				{
					"inputs": [
						{
							"internalType": "address",
							"name": "newOwner",
							"type": "address"
						}
					],
					"name": "transferOwnership",
					"outputs": [],
					"stateMutability": "nonpayable",
					"type": "function"
				},
				{
					"inputs": [],
					"name": "usdc",
					"outputs": [
						{
							"internalType": "contract IERC20",
							"name": "",
							"type": "address"
						}
					],
					"stateMutability": "view",
					"type": "function"
				}
			],
			"devdoc": {
				"errors": {
					"OwnableInvalidOwner(address)": [
						{
							"details": "The owner is not a valid owner account. (eg. `address(0)`)"
						}
					],
					"OwnableUnauthorizedAccount(address)": [
						{
							"details": "The caller account is not authorized to perform an operation."
						}
					]
				},
				"kind": "dev",
				"methods": {
					"ccipReceive((bytes32,uint64,bytes,bytes,(address,uint256)[]))": {
						"details": "Note ensure you check the msg.sender is the OffRampRouter",
						"params": {
							"message": "CCIP Message"
						}
					},
					"getExpectedAuthor()": {
						"returns": {
							"_0": "The expected author address (address(0) if not set)"
						}
					},
					"getExpectedWorkflowId()": {
						"returns": {
							"_0": "The expected workflow ID (bytes32(0) if not set)"
						}
					},
					"getExpectedWorkflowName()": {
						"returns": {
							"_0": "The expected workflow name (bytes10(0) if not set)"
						}
					},
					"getForwarderAddress()": {
						"returns": {
							"_0": "The forwarder address (address(0) if disabled)"
						}
					},
					"getRouter()": {
						"returns": {
							"_0": "CCIP router address"
						}
					},
					"onReport(bytes,bytes)": {
						"details": "Performs optional validation checks based on which permission fields are set",
						"params": {
							"metadata": "Report's metadata.",
							"report": "Workflow report."
						}
					},
					"owner()": {
						"details": "Returns the address of the current owner."
					},
					"renounceOwnership()": {
						"details": "Leaves the contract without owner. It will not be possible to call `onlyOwner` functions. Can only be called by the current owner. NOTE: Renouncing ownership will leave the contract without an owner, thereby disabling any functionality that is only available to the owner."
					},
					"setExpectedAuthor(address)": {
						"params": {
							"_author": "The new expected author address (use address(0) to disable this check)"
						}
					},
					"setExpectedWorkflowId(bytes32)": {
						"params": {
							"_id": "The new expected workflow ID (use bytes32(0) to disable this check)"
						}
					},
					"setExpectedWorkflowName(string)": {
						"details": "IMPORTANT: Workflow name validation REQUIRES author validation to be enabled.      The workflow name uses only 40-bit truncation, making collision attacks feasible      when used alone. However, since workflow names are unique per owner, validating      both the name AND the author address provides adequate security.      You must call setExpectedAuthor() before or after calling this function.      The name is hashed using SHA256 and truncated to bytes10.",
						"params": {
							"_name": "The workflow name as a string (use empty string \"\" to disable this check)"
						}
					},
					"setForwarderAddress(address)": {
						"details": "WARNING: Setting to address(0) disables forwarder validation.      This makes your contract INSECURE - anyone can call onReport() with arbitrary data.      Only use address(0) if you fully understand the security implications.",
						"params": {
							"_forwarder": "The new forwarder address"
						}
					},
					"supportsInterface(bytes4)": {
						"details": "Required by Solidity to resolve the conflict between CCIPReceiver and ReceiverTemplate. It ensures the contract correctly identifies that it supports both interfaces."
					},
					"transferOwnership(address)": {
						"details": "Transfers ownership of the contract to a new account (`newOwner`). Can only be called by the current owner."
					}
				},
				"title": "Shadow — Shielded Multi-Chain Pay-by-Human",
				"version": 1
			},
			"evm": {
				"assembly": "    /* \"contracts/token.sol\":437:2994  contract Shadow is CCIPReceiver, ReceiverTemplate {... */\n  mstore(0x40, 0xc0)\n    /* \"contracts/token.sol\":699:1051  constructor(... */\n  callvalue\n  dup1\n  iszero\n  tag_1\n  jumpi\n  revert(0x00, 0x00)\ntag_1:\n  pop\n  mload(0x40)\n  sub(codesize, bytecodeSize)\n  dup1\n  bytecodeSize\n  dup4\n  codecopy\n  dup2\n  dup2\n  add\n  0x40\n  mstore\n  dup2\n  add\n  swap1\n  tag_2\n  swap2\n  swap1\n  tag_3\n  jump\t// in\ntag_2:\n    /* \"contracts/token.sol\":895:905  _forwarder */\n  dup2\n    /* \"contracts/ReceiverTemplate.sol\":2425:2435  msg.sender */\n  caller\n    /* \"contracts/token.sol\":822:829  _router */\n  dup3\n    /* \"@chainlink/contracts-ccip/src/v0.8/ccip/applications/CCIPReceiver.sol\":560:561  0 */\n  0x00\n    /* \"@chainlink/contracts-ccip/src/v0.8/ccip/applications/CCIPReceiver.sol\":542:562  router == address(0) */\n  0xffffffffffffffffffffffffffffffffffffffff\n  and\n    /* \"@chainlink/contracts-ccip/src/v0.8/ccip/applications/CCIPReceiver.sol\":542:548  router */\n  dup2\n    /* \"@chainlink/contracts-ccip/src/v0.8/ccip/applications/CCIPReceiver.sol\":542:562  router == address(0) */\n  0xffffffffffffffffffffffffffffffffffffffff\n  and\n  sub\n    /* \"@chainlink/contracts-ccip/src/v0.8/ccip/applications/CCIPReceiver.sol\":538:596  if (router == address(0)) revert InvalidRouter(address(0)) */\n  tag_9\n  jumpi\n    /* \"@chainlink/contracts-ccip/src/v0.8/ccip/applications/CCIPReceiver.sol\":593:594  0 */\n  0x00\n    /* \"@chainlink/contracts-ccip/src/v0.8/ccip/applications/CCIPReceiver.sol\":571:596  InvalidRouter(address(0)) */\n  mload(0x40)\n  0xd7f7333400000000000000000000000000000000000000000000000000000000\n  dup2\n  mstore\n  0x04\n  add\n  tag_10\n  swap2\n  swap1\n  tag_11\n  jump\t// in\ntag_10:\n  mload(0x40)\n  dup1\n  swap2\n  sub\n  swap1\n  revert\n    /* \"@chainlink/contracts-ccip/src/v0.8/ccip/applications/CCIPReceiver.sol\":538:596  if (router == address(0)) revert InvalidRouter(address(0)) */\ntag_9:\n    /* \"@chainlink/contracts-ccip/src/v0.8/ccip/applications/CCIPReceiver.sol\":617:623  router */\n  dup1\n    /* \"@chainlink/contracts-ccip/src/v0.8/ccip/applications/CCIPReceiver.sol\":602:623  i_ccipRouter = router */\n  0xffffffffffffffffffffffffffffffffffffffff\n  and\n  0x80\n  dup2\n  0xffffffffffffffffffffffffffffffffffffffff\n  and\n  dup2\n  mstore\n  pop\n  pop\n    /* \"@chainlink/contracts-ccip/src/v0.8/ccip/applications/CCIPReceiver.sol\":504:628  constructor(address router) {... */\n  pop\n    /* \"@openzeppelin/contracts/access/Ownable.sol\":1297:1298  0 */\n  0x00\n    /* \"@openzeppelin/contracts/access/Ownable.sol\":1273:1299  initialOwner == address(0) */\n  0xffffffffffffffffffffffffffffffffffffffff\n  and\n    /* \"@openzeppelin/contracts/access/Ownable.sol\":1273:1285  initialOwner */\n  dup2\n    /* \"@openzeppelin/contracts/access/Ownable.sol\":1273:1299  initialOwner == address(0) */\n  0xffffffffffffffffffffffffffffffffffffffff\n  and\n  sub\n    /* \"@openzeppelin/contracts/access/Ownable.sol\":1269:1364  if (initialOwner == address(0)) {... */\n  tag_13\n  jumpi\n    /* \"@openzeppelin/contracts/access/Ownable.sol\":1350:1351  0 */\n  0x00\n    /* \"@openzeppelin/contracts/access/Ownable.sol\":1322:1353  OwnableInvalidOwner(address(0)) */\n  mload(0x40)\n  0x1e4fbdf700000000000000000000000000000000000000000000000000000000\n  dup2\n  mstore\n  0x04\n  add\n  tag_14\n  swap2\n  swap1\n  tag_11\n  jump\t// in\ntag_14:\n  mload(0x40)\n  dup1\n  swap2\n  sub\n  swap1\n  revert\n    /* \"@openzeppelin/contracts/access/Ownable.sol\":1269:1364  if (initialOwner == address(0)) {... */\ntag_13:\n    /* \"@openzeppelin/contracts/access/Ownable.sol\":1373:1405  _transferOwnership(initialOwner) */\n  tag_15\n    /* \"@openzeppelin/contracts/access/Ownable.sol\":1392:1404  initialOwner */\n  dup2\n    /* \"@openzeppelin/contracts/access/Ownable.sol\":1373:1391  _transferOwnership */\n  shl(0x20, tag_16)\n    /* \"@openzeppelin/contracts/access/Ownable.sol\":1373:1405  _transferOwnership(initialOwner) */\n  0x20\n  shr\n  jump\t// in\ntag_15:\n    /* \"@openzeppelin/contracts/access/Ownable.sol\":1225:1412  constructor(address initialOwner) {... */\n  pop\n    /* \"contracts/ReceiverTemplate.sol\":2477:2478  0 */\n  0x00\n    /* \"contracts/ReceiverTemplate.sol\":2448:2479  _forwarderAddress == address(0) */\n  0xffffffffffffffffffffffffffffffffffffffff\n  and\n    /* \"contracts/ReceiverTemplate.sol\":2448:2465  _forwarderAddress */\n  dup2\n    /* \"contracts/ReceiverTemplate.sol\":2448:2479  _forwarderAddress == address(0) */\n  0xffffffffffffffffffffffffffffffffffffffff\n  and\n  sub\n    /* \"contracts/ReceiverTemplate.sol\":2444:2530  if (_forwarderAddress == address(0)) {... */\n  tag_18\n  jumpi\n    /* \"contracts/ReceiverTemplate.sol\":2497:2522  InvalidForwarderAddress() */\n  mload(0x40)\n  0x381dd54000000000000000000000000000000000000000000000000000000000\n  dup2\n  mstore\n  0x04\n  add\n  mload(0x40)\n  dup1\n  swap2\n  sub\n  swap1\n  revert\n    /* \"contracts/ReceiverTemplate.sol\":2444:2530  if (_forwarderAddress == address(0)) {... */\ntag_18:\n    /* \"contracts/ReceiverTemplate.sol\":2557:2574  _forwarderAddress */\n  dup1\n    /* \"contracts/ReceiverTemplate.sol\":2536:2554  s_forwarderAddress */\n  0x01\n  0x00\n    /* \"contracts/ReceiverTemplate.sol\":2536:2574  s_forwarderAddress = _forwarderAddress */\n  0x0100\n  exp\n  dup2\n  sload\n  dup2\n  0xffffffffffffffffffffffffffffffffffffffff\n  mul\n  not\n  and\n  swap1\n  dup4\n  0xffffffffffffffffffffffffffffffffffffffff\n  and\n  mul\n  or\n  swap1\n  sstore\n  pop\n    /* \"contracts/ReceiverTemplate.sol\":2622:2639  _forwarderAddress */\n  dup1\n    /* \"contracts/ReceiverTemplate.sol\":2586:2640  ForwarderAddressUpdated(address(0), _forwarderAddress) */\n  0xffffffffffffffffffffffffffffffffffffffff\n  and\n    /* \"contracts/ReceiverTemplate.sol\":2618:2619  0 */\n  0x00\n    /* \"contracts/ReceiverTemplate.sol\":2586:2640  ForwarderAddressUpdated(address(0), _forwarderAddress) */\n  0xffffffffffffffffffffffffffffffffffffffff\n  and\n  0x039ad854736757070884dd787ef1a7f58db33546639d1f3efddcf4a33fb8997e\n  mload(0x40)\n  mload(0x40)\n  dup1\n  swap2\n  sub\n  swap1\n  log3\n    /* \"contracts/ReceiverTemplate.sol\":2368:2646  constructor(... */\n  pop\n    /* \"contracts/token.sol\":980:981  0 */\n  0x00\n    /* \"contracts/token.sol\":963:982  _usdc != address(0) */\n  0xffffffffffffffffffffffffffffffffffffffff\n  and\n    /* \"contracts/token.sol\":963:968  _usdc */\n  dup4\n    /* \"contracts/token.sol\":963:982  _usdc != address(0) */\n  0xffffffffffffffffffffffffffffffffffffffff\n  and\n  sub\n    /* \"contracts/token.sol\":955:1012  require(_usdc != address(0), \"Shadow: zero USDC address\") */\n  tag_20\n  jumpi\n  mload(0x40)\n  0x08c379a000000000000000000000000000000000000000000000000000000000\n  dup2\n  mstore\n  0x04\n  add\n  tag_21\n  swap1\n  tag_22\n  jump\t// in\ntag_21:\n  mload(0x40)\n  dup1\n  swap2\n  sub\n  swap1\n  revert\ntag_20:\n    /* \"contracts/token.sol\":1037:1042  _usdc */\n  dup3\n    /* \"contracts/token.sol\":1023:1043  usdc = IERC20(_usdc) */\n  0xffffffffffffffffffffffffffffffffffffffff\n  and\n  0xa0\n  dup2\n  0xffffffffffffffffffffffffffffffffffffffff\n  and\n  dup2\n  mstore\n  pop\n  pop\n    /* \"contracts/token.sol\":699:1051  constructor(... */\n  pop\n  pop\n  pop\n    /* \"contracts/token.sol\":437:2994  contract Shadow is CCIPReceiver, ReceiverTemplate {... */\n  jump(tag_23)\n    /* \"@openzeppelin/contracts/access/Ownable.sol\":2912:3099  function _transferOwnership(address newOwner) internal virtual {... */\ntag_16:\n    /* \"@openzeppelin/contracts/access/Ownable.sol\":2985:3001  address oldOwner */\n  0x00\n    /* \"@openzeppelin/contracts/access/Ownable.sol\":3004:3010  _owner */\n  0x00\n  0x00\n  swap1\n  sload\n  swap1\n  0x0100\n  exp\n  swap1\n  div\n  0xffffffffffffffffffffffffffffffffffffffff\n  and\n    /* \"@openzeppelin/contracts/access/Ownable.sol\":2985:3010  address oldOwner = _owner */\n  swap1\n  pop\n    /* \"@openzeppelin/contracts/access/Ownable.sol\":3029:3037  newOwner */\n  dup2\n    /* \"@openzeppelin/contracts/access/Ownable.sol\":3020:3026  _owner */\n  0x00\n  0x00\n    /* \"@openzeppelin/contracts/access/Ownable.sol\":3020:3037  _owner = newOwner */\n  0x0100\n  exp\n  dup2\n  sload\n  dup2\n  0xffffffffffffffffffffffffffffffffffffffff\n  mul\n  not\n  and\n  swap1\n  dup4\n  0xffffffffffffffffffffffffffffffffffffffff\n  and\n  mul\n  or\n  swap1\n  sstore\n  pop\n    /* \"@openzeppelin/contracts/access/Ownable.sol\":3083:3091  newOwner */\n  dup2\n    /* \"@openzeppelin/contracts/access/Ownable.sol\":3052:3092  OwnershipTransferred(oldOwner, newOwner) */\n  0xffffffffffffffffffffffffffffffffffffffff\n  and\n    /* \"@openzeppelin/contracts/access/Ownable.sol\":3073:3081  oldOwner */\n  dup2\n    /* \"@openzeppelin/contracts/access/Ownable.sol\":3052:3092  OwnershipTransferred(oldOwner, newOwner) */\n  0xffffffffffffffffffffffffffffffffffffffff\n  and\n  0x8be0079c531659141344cd1fd0a4f28419497f9722a3daafe3b4186f6b6457e0\n  mload(0x40)\n  mload(0x40)\n  dup1\n  swap2\n  sub\n  swap1\n  log3\n    /* \"@openzeppelin/contracts/access/Ownable.sol\":2975:3099  {... */\n  pop\n    /* \"@openzeppelin/contracts/access/Ownable.sol\":2912:3099  function _transferOwnership(address newOwner) internal virtual {... */\n  pop\n  jump\t// out\n    /* \"#utility.yul\":88:205   */\ntag_26:\n    /* \"#utility.yul\":197:198   */\n  0x00\n    /* \"#utility.yul\":194:195   */\n  0x00\n    /* \"#utility.yul\":187:199   */\n  revert\n    /* \"#utility.yul\":334:460   */\ntag_28:\n    /* \"#utility.yul\":371:378   */\n  0x00\n    /* \"#utility.yul\":411:453   */\n  0xffffffffffffffffffffffffffffffffffffffff\n    /* \"#utility.yul\":404:409   */\n  dup3\n    /* \"#utility.yul\":400:454   */\n  and\n    /* \"#utility.yul\":389:454   */\n  swap1\n  pop\n    /* \"#utility.yul\":334:460   */\n  swap2\n  swap1\n  pop\n  jump\t// out\n    /* \"#utility.yul\":466:562   */\ntag_29:\n    /* \"#utility.yul\":503:510   */\n  0x00\n    /* \"#utility.yul\":532:556   */\n  tag_42\n    /* \"#utility.yul\":550:555   */\n  dup3\n    /* \"#utility.yul\":532:556   */\n  tag_28\n  jump\t// in\ntag_42:\n    /* \"#utility.yul\":521:556   */\n  swap1\n  pop\n    /* \"#utility.yul\":466:562   */\n  swap2\n  swap1\n  pop\n  jump\t// out\n    /* \"#utility.yul\":568:690   */\ntag_30:\n    /* \"#utility.yul\":641:665   */\n  tag_44\n    /* \"#utility.yul\":659:664   */\n  dup2\n    /* \"#utility.yul\":641:665   */\n  tag_29\n  jump\t// in\ntag_44:\n    /* \"#utility.yul\":634:639   */\n  dup2\n    /* \"#utility.yul\":631:666   */\n  eq\n    /* \"#utility.yul\":621:684   */\n  tag_45\n  jumpi\n    /* \"#utility.yul\":680:681   */\n  0x00\n    /* \"#utility.yul\":677:678   */\n  0x00\n    /* \"#utility.yul\":670:682   */\n  revert\n    /* \"#utility.yul\":621:684   */\ntag_45:\n    /* \"#utility.yul\":568:690   */\n  pop\n  jump\t// out\n    /* \"#utility.yul\":696:839   */\ntag_31:\n    /* \"#utility.yul\":753:758   */\n  0x00\n    /* \"#utility.yul\":784:790   */\n  dup2\n    /* \"#utility.yul\":778:791   */\n  mload\n    /* \"#utility.yul\":769:791   */\n  swap1\n  pop\n    /* \"#utility.yul\":800:833   */\n  tag_47\n    /* \"#utility.yul\":827:832   */\n  dup2\n    /* \"#utility.yul\":800:833   */\n  tag_30\n  jump\t// in\ntag_47:\n    /* \"#utility.yul\":696:839   */\n  swap3\n  swap2\n  pop\n  pop\n  jump\t// out\n    /* \"#utility.yul\":845:1508   */\ntag_3:\n    /* \"#utility.yul\":933:939   */\n  0x00\n    /* \"#utility.yul\":941:947   */\n  0x00\n    /* \"#utility.yul\":949:955   */\n  0x00\n    /* \"#utility.yul\":998:1000   */\n  0x60\n    /* \"#utility.yul\":986:995   */\n  dup5\n    /* \"#utility.yul\":977:984   */\n  dup7\n    /* \"#utility.yul\":973:996   */\n  sub\n    /* \"#utility.yul\":969:1001   */\n  slt\n    /* \"#utility.yul\":966:1085   */\n  iszero\n  tag_49\n  jumpi\n    /* \"#utility.yul\":1004:1083   */\n  tag_50\n  tag_26\n  jump\t// in\ntag_50:\n    /* \"#utility.yul\":966:1085   */\ntag_49:\n    /* \"#utility.yul\":1124:1125   */\n  0x00\n    /* \"#utility.yul\":1149:1213   */\n  tag_51\n    /* \"#utility.yul\":1205:1212   */\n  dup7\n    /* \"#utility.yul\":1196:1202   */\n  dup3\n    /* \"#utility.yul\":1185:1194   */\n  dup8\n    /* \"#utility.yul\":1181:1203   */\n  add\n    /* \"#utility.yul\":1149:1213   */\n  tag_31\n  jump\t// in\ntag_51:\n    /* \"#utility.yul\":1139:1213   */\n  swap4\n  pop\n    /* \"#utility.yul\":1095:1223   */\n  pop\n    /* \"#utility.yul\":1262:1264   */\n  0x20\n    /* \"#utility.yul\":1288:1352   */\n  tag_52\n    /* \"#utility.yul\":1344:1351   */\n  dup7\n    /* \"#utility.yul\":1335:1341   */\n  dup3\n    /* \"#utility.yul\":1324:1333   */\n  dup8\n    /* \"#utility.yul\":1320:1342   */\n  add\n    /* \"#utility.yul\":1288:1352   */\n  tag_31\n  jump\t// in\ntag_52:\n    /* \"#utility.yul\":1278:1352   */\n  swap3\n  pop\n    /* \"#utility.yul\":1233:1362   */\n  pop\n    /* \"#utility.yul\":1401:1403   */\n  0x40\n    /* \"#utility.yul\":1427:1491   */\n  tag_53\n    /* \"#utility.yul\":1483:1490   */\n  dup7\n    /* \"#utility.yul\":1474:1480   */\n  dup3\n    /* \"#utility.yul\":1463:1472   */\n  dup8\n    /* \"#utility.yul\":1459:1481   */\n  add\n    /* \"#utility.yul\":1427:1491   */\n  tag_31\n  jump\t// in\ntag_53:\n    /* \"#utility.yul\":1417:1491   */\n  swap2\n  pop\n    /* \"#utility.yul\":1372:1501   */\n  pop\n    /* \"#utility.yul\":845:1508   */\n  swap3\n  pop\n  swap3\n  pop\n  swap3\n  jump\t// out\n    /* \"#utility.yul\":1514:1632   */\ntag_32:\n    /* \"#utility.yul\":1601:1625   */\n  tag_55\n    /* \"#utility.yul\":1619:1624   */\n  dup2\n    /* \"#utility.yul\":1601:1625   */\n  tag_29\n  jump\t// in\ntag_55:\n    /* \"#utility.yul\":1596:1599   */\n  dup3\n    /* \"#utility.yul\":1589:1626   */\n  mstore\n    /* \"#utility.yul\":1514:1632   */\n  pop\n  pop\n  jump\t// out\n    /* \"#utility.yul\":1638:1860   */\ntag_11:\n    /* \"#utility.yul\":1731:1735   */\n  0x00\n    /* \"#utility.yul\":1769:1771   */\n  0x20\n    /* \"#utility.yul\":1758:1767   */\n  dup3\n    /* \"#utility.yul\":1754:1772   */\n  add\n    /* \"#utility.yul\":1746:1772   */\n  swap1\n  pop\n    /* \"#utility.yul\":1782:1853   */\n  tag_57\n    /* \"#utility.yul\":1850:1851   */\n  0x00\n    /* \"#utility.yul\":1839:1848   */\n  dup4\n    /* \"#utility.yul\":1835:1852   */\n  add\n    /* \"#utility.yul\":1826:1832   */\n  dup5\n    /* \"#utility.yul\":1782:1853   */\n  tag_32\n  jump\t// in\ntag_57:\n    /* \"#utility.yul\":1638:1860   */\n  swap3\n  swap2\n  pop\n  pop\n  jump\t// out\n    /* \"#utility.yul\":1866:2035   */\ntag_33:\n    /* \"#utility.yul\":1950:1961   */\n  0x00\n    /* \"#utility.yul\":1984:1990   */\n  dup3\n    /* \"#utility.yul\":1979:1982   */\n  dup3\n    /* \"#utility.yul\":1972:1991   */\n  mstore\n    /* \"#utility.yul\":2024:2028   */\n  0x20\n    /* \"#utility.yul\":2019:2022   */\n  dup3\n    /* \"#utility.yul\":2015:2029   */\n  add\n    /* \"#utility.yul\":2000:2029   */\n  swap1\n  pop\n    /* \"#utility.yul\":1866:2035   */\n  swap3\n  swap2\n  pop\n  pop\n  jump\t// out\n    /* \"#utility.yul\":2041:2216   */\ntag_34:\n    /* \"#utility.yul\":2181:2208   */\n  0x536861646f773a207a65726f2055534443206164647265737300000000000000\n    /* \"#utility.yul\":2177:2178   */\n  0x00\n    /* \"#utility.yul\":2169:2175   */\n  dup3\n    /* \"#utility.yul\":2165:2179   */\n  add\n    /* \"#utility.yul\":2158:2209   */\n  mstore\n    /* \"#utility.yul\":2041:2216   */\n  pop\n  jump\t// out\n    /* \"#utility.yul\":2222:2588   */\ntag_35:\n    /* \"#utility.yul\":2364:2367   */\n  0x00\n    /* \"#utility.yul\":2385:2452   */\n  tag_61\n    /* \"#utility.yul\":2449:2451   */\n  0x19\n    /* \"#utility.yul\":2444:2447   */\n  dup4\n    /* \"#utility.yul\":2385:2452   */\n  tag_33\n  jump\t// in\ntag_61:\n    /* \"#utility.yul\":2378:2452   */\n  swap2\n  pop\n    /* \"#utility.yul\":2461:2554   */\n  tag_62\n    /* \"#utility.yul\":2550:2553   */\n  dup3\n    /* \"#utility.yul\":2461:2554   */\n  tag_34\n  jump\t// in\ntag_62:\n    /* \"#utility.yul\":2579:2581   */\n  0x20\n    /* \"#utility.yul\":2574:2577   */\n  dup3\n    /* \"#utility.yul\":2570:2582   */\n  add\n    /* \"#utility.yul\":2563:2582   */\n  swap1\n  pop\n    /* \"#utility.yul\":2222:2588   */\n  swap2\n  swap1\n  pop\n  jump\t// out\n    /* \"#utility.yul\":2594:3013   */\ntag_22:\n    /* \"#utility.yul\":2760:2764   */\n  0x00\n    /* \"#utility.yul\":2798:2800   */\n  0x20\n    /* \"#utility.yul\":2787:2796   */\n  dup3\n    /* \"#utility.yul\":2783:2801   */\n  add\n    /* \"#utility.yul\":2775:2801   */\n  swap1\n  pop\n    /* \"#utility.yul\":2847:2856   */\n  dup2\n    /* \"#utility.yul\":2841:2845   */\n  dup2\n    /* \"#utility.yul\":2837:2857   */\n  sub\n    /* \"#utility.yul\":2833:2834   */\n  0x00\n    /* \"#utility.yul\":2822:2831   */\n  dup4\n    /* \"#utility.yul\":2818:2835   */\n  add\n    /* \"#utility.yul\":2811:2858   */\n  mstore\n    /* \"#utility.yul\":2875:3006   */\n  tag_64\n    /* \"#utility.yul\":3001:3005   */\n  dup2\n    /* \"#utility.yul\":2875:3006   */\n  tag_35\n  jump\t// in\ntag_64:\n    /* \"#utility.yul\":2867:3006   */\n  swap1\n  pop\n    /* \"#utility.yul\":2594:3013   */\n  swap2\n  swap1\n  pop\n  jump\t// out\n    /* \"contracts/token.sol\":437:2994  contract Shadow is CCIPReceiver, ReceiverTemplate {... */\ntag_23:\n  mload(0x80)\n  mload(0xa0)\n  codecopy(0x00, dataOffset(sub_0), dataSize(sub_0))\n  0x00\n  assignImmutable(\"0x94b72f6d5810c90c68ea7d7f52a48aba033cd0249ea1144a4588f2256d6f57ff\")\n  0x00\n  assignImmutable(\"0x5c4c6aa067b6f8e6cb38e6ab843832a94d1712d661a04d73c517d6a1931a9e5d\")\n  return(0x00, dataSize(sub_0))\nstop\n\nsub_0: assembly {\n        /* \"contracts/token.sol\":437:2994  contract Shadow is CCIPReceiver, ReceiverTemplate {... */\n      mstore(0x40, 0x80)\n      callvalue\n      dup1\n      iszero\n      tag_1\n      jumpi\n      revert(0x00, 0x00)\n    tag_1:\n      pop\n      jumpi(tag_2, lt(calldatasize, 0x04))\n      shr(0xe0, calldataload(0x00))\n      dup1\n      0x8da5cb5b\n      gt\n      tag_20\n      jumpi\n      dup1\n      0xc3c44ac2\n      gt\n      tag_21\n      jumpi\n      dup1\n      0xc3c44ac2\n      eq\n      tag_15\n      jumpi\n      dup1\n      0xd60c884b\n      eq\n      tag_16\n      jumpi\n      dup1\n      0xd777cc6d\n      eq\n      tag_17\n      jumpi\n      dup1\n      0xf2fde38b\n      eq\n      tag_18\n      jumpi\n      dup1\n      0xf5c793ef\n      eq\n      tag_19\n      jumpi\n      jump(tag_2)\n    tag_21:\n      dup1\n      0x8da5cb5b\n      eq\n      tag_11\n      jumpi\n      dup1\n      0xa619d818\n      eq\n      tag_12\n      jumpi\n      dup1\n      0xb0f479a1\n      eq\n      tag_13\n      jumpi\n      dup1\n      0xbc1fc27a\n      eq\n      tag_14\n      jumpi\n      jump(tag_2)\n    tag_20:\n      dup1\n      0x3e413bee\n      gt\n      tag_22\n      jumpi\n      dup1\n      0x3e413bee\n      eq\n      tag_7\n      jumpi\n      dup1\n      0x715018a6\n      eq\n      tag_8\n      jumpi\n      dup1\n      0x805f2132\n      eq\n      tag_9\n      jumpi\n      dup1\n      0x85572ffb\n      eq\n      tag_10\n      jumpi\n      jump(tag_2)\n    tag_22:\n      dup1\n      0x01ffc9a7\n      eq\n      tag_3\n      jumpi\n      dup1\n      0x1de26e16\n      eq\n      tag_4\n      jumpi\n      dup1\n      0x3397cf67\n      eq\n      tag_5\n      jumpi\n      dup1\n      0x3441856f\n      eq\n      tag_6\n      jumpi\n    tag_2:\n      revert(0x00, 0x00)\n        /* \"contracts/token.sol\":1249:1452  function supportsInterface(bytes4 interfaceId)... */\n    tag_3:\n      tag_23\n      0x04\n      dup1\n      calldatasize\n      sub\n      dup2\n      add\n      swap1\n      tag_24\n      swap2\n      swap1\n      tag_25\n      jump\t// in\n    tag_24:\n      tag_26\n      jump\t// in\n    tag_23:\n      mload(0x40)\n      tag_27\n      swap2\n      swap1\n      tag_28\n      jump\t// in\n    tag_27:\n      mload(0x40)\n      dup1\n      swap2\n      sub\n      swap1\n      return\n        /* \"contracts/token.sol\":1496:1795  function deposit(bytes32 _encryptedRecipient, uint256 _amount) external {... */\n    tag_4:\n      tag_29\n      0x04\n      dup1\n      calldatasize\n      sub\n      dup2\n      add\n      swap1\n      tag_30\n      swap2\n      swap1\n      tag_31\n      jump\t// in\n    tag_30:\n      tag_32\n      jump\t// in\n    tag_29:\n      stop\n        /* \"contracts/ReceiverTemplate.sol\":3004:3101  function getExpectedAuthor() external view returns (address) {... */\n    tag_5:\n      tag_33\n      tag_34\n      jump\t// in\n    tag_33:\n      mload(0x40)\n      tag_35\n      swap2\n      swap1\n      tag_36\n      jump\t// in\n    tag_35:\n      mload(0x40)\n      dup1\n      swap2\n      sub\n      swap1\n      return\n        /* \"contracts/ReceiverTemplate.sol\":2770:2871  function getForwarderAddress() external view returns (address) {... */\n    tag_6:\n      tag_37\n      tag_38\n      jump\t// in\n    tag_37:\n      mload(0x40)\n      tag_39\n      swap2\n      swap1\n      tag_36\n      jump\t// in\n    tag_39:\n      mload(0x40)\n      dup1\n      swap2\n      sub\n      swap1\n      return\n        /* \"contracts/token.sol\":494:522  IERC20 public immutable usdc */\n    tag_7:\n      tag_40\n      tag_41\n      jump\t// in\n    tag_40:\n      mload(0x40)\n      tag_42\n      swap2\n      swap1\n      tag_43\n      jump\t// in\n    tag_42:\n      mload(0x40)\n      dup1\n      swap2\n      sub\n      swap1\n      return\n        /* \"@openzeppelin/contracts/access/Ownable.sol\":2293:2394  function renounceOwnership() public virtual onlyOwner {... */\n    tag_8:\n      tag_44\n      tag_45\n      jump\t// in\n    tag_44:\n      stop\n        /* \"contracts/ReceiverTemplate.sol\":3679:5834  function onReport(... */\n    tag_9:\n      tag_46\n      0x04\n      dup1\n      calldatasize\n      sub\n      dup2\n      add\n      swap1\n      tag_47\n      swap2\n      swap1\n      tag_48\n      jump\t// in\n    tag_47:\n      tag_49\n      jump\t// in\n    tag_46:\n      stop\n        /* \"@chainlink/contracts-ccip/src/v0.8/ccip/applications/CCIPReceiver.sol\":1660:1790  function ccipReceive(Client.Any2EVMMessage calldata message) external virtual override onlyRouter {... */\n    tag_10:\n      tag_50\n      0x04\n      dup1\n      calldatasize\n      sub\n      dup2\n      add\n      swap1\n      tag_51\n      swap2\n      swap1\n      tag_52\n      jump\t// in\n    tag_51:\n      tag_53\n      jump\t// in\n    tag_50:\n      stop\n        /* \"@openzeppelin/contracts/access/Ownable.sol\":1638:1723  function owner() public view virtual returns (address) {... */\n    tag_11:\n      tag_54\n      tag_55\n      jump\t// in\n    tag_54:\n      mload(0x40)\n      tag_56\n      swap2\n      swap1\n      tag_36\n      jump\t// in\n    tag_56:\n      mload(0x40)\n      dup1\n      swap2\n      sub\n      swap1\n      return\n        /* \"contracts/ReceiverTemplate.sol\":3223:3332  function getExpectedWorkflowName() external view returns (bytes10) {... */\n    tag_12:\n      tag_57\n      tag_58\n      jump\t// in\n    tag_57:\n      mload(0x40)\n      tag_59\n      swap2\n      swap1\n      tag_60\n      jump\t// in\n    tag_59:\n      mload(0x40)\n      dup1\n      swap2\n      sub\n      swap1\n      return\n        /* \"@chainlink/contracts-ccip/src/v0.8/ccip/applications/CCIPReceiver.sol\":2205:2303  function getRouter() public view virtual returns (address) {... */\n    tag_13:\n      tag_61\n      tag_62\n      jump\t// in\n    tag_61:\n      mload(0x40)\n      tag_63\n      swap2\n      swap1\n      tag_36\n      jump\t// in\n    tag_63:\n      mload(0x40)\n      dup1\n      swap2\n      sub\n      swap1\n      return\n        /* \"contracts/ReceiverTemplate.sol\":7707:8516  function setExpectedWorkflowName(... */\n    tag_14:\n      tag_64\n      0x04\n      dup1\n      calldatasize\n      sub\n      dup2\n      add\n      swap1\n      tag_65\n      swap2\n      swap1\n      tag_66\n      jump\t// in\n    tag_65:\n      tag_67\n      jump\t// in\n    tag_64:\n      stop\n        /* \"contracts/ReceiverTemplate.sol\":8656:8870  function setExpectedWorkflowId(... */\n    tag_15:\n      tag_68\n      0x04\n      dup1\n      calldatasize\n      sub\n      dup2\n      add\n      swap1\n      tag_69\n      swap2\n      swap1\n      tag_70\n      jump\t// in\n    tag_69:\n      tag_71\n      jump\t// in\n    tag_68:\n      stop\n        /* \"contracts/ReceiverTemplate.sol\":6808:7026  function setExpectedAuthor(... */\n    tag_16:\n      tag_72\n      0x04\n      dup1\n      calldatasize\n      sub\n      dup2\n      add\n      swap1\n      tag_73\n      swap2\n      swap1\n      tag_74\n      jump\t// in\n    tag_73:\n      tag_75\n      jump\t// in\n    tag_72:\n      stop\n        /* \"contracts/ReceiverTemplate.sol\":6222:6650  function setForwarderAddress(... */\n    tag_17:\n      tag_76\n      0x04\n      dup1\n      calldatasize\n      sub\n      dup2\n      add\n      swap1\n      tag_77\n      swap2\n      swap1\n      tag_74\n      jump\t// in\n    tag_77:\n      tag_78\n      jump\t// in\n    tag_76:\n      stop\n        /* \"@openzeppelin/contracts/access/Ownable.sol\":2543:2758  function transferOwnership(address newOwner) public virtual onlyOwner {... */\n    tag_18:\n      tag_79\n      0x04\n      dup1\n      calldatasize\n      sub\n      dup2\n      add\n      swap1\n      tag_80\n      swap2\n      swap1\n      tag_74\n      jump\t// in\n    tag_80:\n      tag_81\n      jump\t// in\n    tag_79:\n      stop\n        /* \"contracts/ReceiverTemplate.sol\":3450:3555  function getExpectedWorkflowId() external view returns (bytes32) {... */\n    tag_19:\n      tag_82\n      tag_83\n      jump\t// in\n    tag_82:\n      mload(0x40)\n      tag_84\n      swap2\n      swap1\n      tag_85\n      jump\t// in\n    tag_84:\n      mload(0x40)\n      dup1\n      swap2\n      sub\n      swap1\n      return\n        /* \"contracts/token.sol\":1249:1452  function supportsInterface(bytes4 interfaceId)... */\n    tag_26:\n        /* \"contracts/token.sol\":1391:1395  bool */\n      0x00\n        /* \"contracts/token.sol\":1412:1448  super.supportsInterface(interfaceId) */\n      tag_87\n        /* \"contracts/token.sol\":1436:1447  interfaceId */\n      dup3\n        /* \"contracts/token.sol\":1412:1435  super.supportsInterface */\n      tag_88\n        /* \"contracts/token.sol\":1412:1448  super.supportsInterface(interfaceId) */\n      jump\t// in\n    tag_87:\n        /* \"contracts/token.sol\":1405:1448  return super.supportsInterface(interfaceId) */\n      swap1\n      pop\n        /* \"contracts/token.sol\":1249:1452  function supportsInterface(bytes4 interfaceId)... */\n      swap2\n      swap1\n      pop\n      jump\t// out\n        /* \"contracts/token.sol\":1496:1795  function deposit(bytes32 _encryptedRecipient, uint256 _amount) external {... */\n    tag_32:\n        /* \"contracts/token.sol\":1597:1598  0 */\n      0x00\n        /* \"contracts/token.sol\":1587:1594  _amount */\n      dup2\n        /* \"contracts/token.sol\":1587:1598  _amount > 0 */\n      gt\n        /* \"contracts/token.sol\":1579:1622  require(_amount > 0, \"Shadow: zero amount\") */\n      tag_90\n      jumpi\n      mload(0x40)\n      0x08c379a000000000000000000000000000000000000000000000000000000000\n      dup2\n      mstore\n      0x04\n      add\n      tag_91\n      swap1\n      tag_92\n      jump\t// in\n    tag_91:\n      mload(0x40)\n      dup1\n      swap2\n      sub\n      swap1\n      revert\n    tag_90:\n        /* \"contracts/token.sol\":1641:1645  usdc */\n      immutable(\"0x94b72f6d5810c90c68ea7d7f52a48aba033cd0249ea1144a4588f2256d6f57ff\")\n        /* \"contracts/token.sol\":1641:1658  usdc.transferFrom */\n      0xffffffffffffffffffffffffffffffffffffffff\n      and\n      0x23b872dd\n        /* \"contracts/token.sol\":1659:1669  msg.sender */\n      caller\n        /* \"contracts/token.sol\":1679:1683  this */\n      address\n        /* \"contracts/token.sol\":1686:1693  _amount */\n      dup5\n        /* \"contracts/token.sol\":1641:1694  usdc.transferFrom(msg.sender, address(this), _amount) */\n      mload(0x40)\n      dup5\n      0xffffffff\n      and\n      0xe0\n      shl\n      dup2\n      mstore\n      0x04\n      add\n      tag_93\n      swap4\n      swap3\n      swap2\n      swap1\n      tag_94\n      jump\t// in\n    tag_93:\n      0x20\n      mload(0x40)\n      dup1\n      dup4\n      sub\n      dup2\n      0x00\n      dup8\n      gas\n      call\n      iszero\n      dup1\n      iszero\n      tag_96\n      jumpi\n      returndatacopy(0x00, 0x00, returndatasize)\n      revert(0x00, returndatasize)\n    tag_96:\n      pop\n      pop\n      pop\n      pop\n      mload(0x40)\n      returndatasize\n      not(0x1f)\n      0x1f\n      dup3\n      add\n      and\n      dup3\n      add\n      dup1\n      0x40\n      mstore\n      pop\n      dup2\n      add\n      swap1\n      tag_97\n      swap2\n      swap1\n      tag_98\n      jump\t// in\n    tag_97:\n        /* \"contracts/token.sol\":1633:1714  require(usdc.transferFrom(msg.sender, address(this), _amount), \"Transfer failed\") */\n      tag_99\n      jumpi\n      mload(0x40)\n      0x08c379a000000000000000000000000000000000000000000000000000000000\n      dup2\n      mstore\n      0x04\n      add\n      tag_100\n      swap1\n      tag_101\n      jump\t// in\n    tag_100:\n      mload(0x40)\n      dup1\n      swap2\n      sub\n      swap1\n      revert\n    tag_99:\n        /* \"contracts/token.sol\":1746:1756  msg.sender */\n      caller\n        /* \"contracts/token.sol\":1730:1787  ShieldedDeposit(msg.sender, _encryptedRecipient, _amount) */\n      0xffffffffffffffffffffffffffffffffffffffff\n      and\n      0xa528a5618e16311d917a25d1b6f7d83f001f50e5b4bee369286d16c83784e22a\n        /* \"contracts/token.sol\":1758:1777  _encryptedRecipient */\n      dup4\n        /* \"contracts/token.sol\":1779:1786  _amount */\n      dup4\n        /* \"contracts/token.sol\":1730:1787  ShieldedDeposit(msg.sender, _encryptedRecipient, _amount) */\n      mload(0x40)\n      tag_102\n      swap3\n      swap2\n      swap1\n      tag_103\n      jump\t// in\n    tag_102:\n      mload(0x40)\n      dup1\n      swap2\n      sub\n      swap1\n      log2\n        /* \"contracts/token.sol\":1496:1795  function deposit(bytes32 _encryptedRecipient, uint256 _amount) external {... */\n      pop\n      pop\n      jump\t// out\n        /* \"contracts/ReceiverTemplate.sol\":3004:3101  function getExpectedAuthor() external view returns (address) {... */\n    tag_34:\n        /* \"contracts/ReceiverTemplate.sol\":3056:3063  address */\n      0x00\n        /* \"contracts/ReceiverTemplate.sol\":3079:3095  s_expectedAuthor */\n      0x02\n      0x00\n      swap1\n      sload\n      swap1\n      0x0100\n      exp\n      swap1\n      div\n      0xffffffffffffffffffffffffffffffffffffffff\n      and\n        /* \"contracts/ReceiverTemplate.sol\":3072:3095  return s_expectedAuthor */\n      swap1\n      pop\n        /* \"contracts/ReceiverTemplate.sol\":3004:3101  function getExpectedAuthor() external view returns (address) {... */\n      swap1\n      jump\t// out\n        /* \"contracts/ReceiverTemplate.sol\":2770:2871  function getForwarderAddress() external view returns (address) {... */\n    tag_38:\n        /* \"contracts/ReceiverTemplate.sol\":2824:2831  address */\n      0x00\n        /* \"contracts/ReceiverTemplate.sol\":2847:2865  s_forwarderAddress */\n      0x01\n      0x00\n      swap1\n      sload\n      swap1\n      0x0100\n      exp\n      swap1\n      div\n      0xffffffffffffffffffffffffffffffffffffffff\n      and\n        /* \"contracts/ReceiverTemplate.sol\":2840:2865  return s_forwarderAddress */\n      swap1\n      pop\n        /* \"contracts/ReceiverTemplate.sol\":2770:2871  function getForwarderAddress() external view returns (address) {... */\n      swap1\n      jump\t// out\n        /* \"contracts/token.sol\":494:522  IERC20 public immutable usdc */\n    tag_41:\n      immutable(\"0x94b72f6d5810c90c68ea7d7f52a48aba033cd0249ea1144a4588f2256d6f57ff\")\n      dup2\n      jump\t// out\n        /* \"@openzeppelin/contracts/access/Ownable.sol\":2293:2394  function renounceOwnership() public virtual onlyOwner {... */\n    tag_45:\n        /* \"@openzeppelin/contracts/access/Ownable.sol\":1531:1544  _checkOwner() */\n      tag_107\n        /* \"@openzeppelin/contracts/access/Ownable.sol\":1531:1542  _checkOwner */\n      tag_108\n        /* \"@openzeppelin/contracts/access/Ownable.sol\":1531:1544  _checkOwner() */\n      jump\t// in\n    tag_107:\n        /* \"@openzeppelin/contracts/access/Ownable.sol\":2357:2387  _transferOwnership(address(0)) */\n      tag_110\n        /* \"@openzeppelin/contracts/access/Ownable.sol\":2384:2385  0 */\n      0x00\n        /* \"@openzeppelin/contracts/access/Ownable.sol\":2357:2375  _transferOwnership */\n      tag_111\n        /* \"@openzeppelin/contracts/access/Ownable.sol\":2357:2387  _transferOwnership(address(0)) */\n      jump\t// in\n    tag_110:\n        /* \"@openzeppelin/contracts/access/Ownable.sol\":2293:2394  function renounceOwnership() public virtual onlyOwner {... */\n      jump\t// out\n        /* \"contracts/ReceiverTemplate.sol\":3679:5834  function onReport(... */\n    tag_49:\n        /* \"contracts/ReceiverTemplate.sol\":3910:3911  0 */\n      0x00\n        /* \"contracts/ReceiverTemplate.sol\":3880:3912  s_forwarderAddress != address(0) */\n      0xffffffffffffffffffffffffffffffffffffffff\n      and\n        /* \"contracts/ReceiverTemplate.sol\":3880:3898  s_forwarderAddress */\n      0x01\n      0x00\n      swap1\n      sload\n      swap1\n      0x0100\n      exp\n      swap1\n      div\n      0xffffffffffffffffffffffffffffffffffffffff\n      and\n        /* \"contracts/ReceiverTemplate.sol\":3880:3912  s_forwarderAddress != address(0) */\n      0xffffffffffffffffffffffffffffffffffffffff\n      and\n      eq\n      iszero\n        /* \"contracts/ReceiverTemplate.sol\":3880:3948  s_forwarderAddress != address(0) && msg.sender != s_forwarderAddress */\n      dup1\n      iszero\n      tag_113\n      jumpi\n      pop\n        /* \"contracts/ReceiverTemplate.sol\":3930:3948  s_forwarderAddress */\n      0x01\n      0x00\n      swap1\n      sload\n      swap1\n      0x0100\n      exp\n      swap1\n      div\n      0xffffffffffffffffffffffffffffffffffffffff\n      and\n        /* \"contracts/ReceiverTemplate.sol\":3916:3948  msg.sender != s_forwarderAddress */\n      0xffffffffffffffffffffffffffffffffffffffff\n      and\n        /* \"contracts/ReceiverTemplate.sol\":3916:3926  msg.sender */\n      caller\n        /* \"contracts/ReceiverTemplate.sol\":3916:3948  msg.sender != s_forwarderAddress */\n      0xffffffffffffffffffffffffffffffffffffffff\n      and\n      eq\n      iszero\n        /* \"contracts/ReceiverTemplate.sol\":3880:3948  s_forwarderAddress != address(0) && msg.sender != s_forwarderAddress */\n    tag_113:\n        /* \"contracts/ReceiverTemplate.sol\":3876:4019  if (s_forwarderAddress != address(0) && msg.sender != s_forwarderAddress) {... */\n      iszero\n      tag_114\n      jumpi\n        /* \"contracts/ReceiverTemplate.sol\":3980:3990  msg.sender */\n      caller\n        /* \"contracts/ReceiverTemplate.sol\":3992:4010  s_forwarderAddress */\n      0x01\n      0x00\n      swap1\n      sload\n      swap1\n      0x0100\n      exp\n      swap1\n      div\n      0xffffffffffffffffffffffffffffffffffffffff\n      and\n        /* \"contracts/ReceiverTemplate.sol\":3966:4011  InvalidSender(msg.sender, s_forwarderAddress) */\n      mload(0x40)\n      0xe1130dba00000000000000000000000000000000000000000000000000000000\n      dup2\n      mstore\n      0x04\n      add\n      tag_115\n      swap3\n      swap2\n      swap1\n      tag_116\n      jump\t// in\n    tag_115:\n      mload(0x40)\n      dup1\n      swap2\n      sub\n      swap1\n      revert\n        /* \"contracts/ReceiverTemplate.sol\":3876:4019  if (s_forwarderAddress != address(0) && msg.sender != s_forwarderAddress) {... */\n    tag_114:\n        /* \"contracts/ReceiverTemplate.sol\":4166:4167  0 */\n      0x00\n        /* \"contracts/ReceiverTemplate.sol\":4158:4168  bytes32(0) */\n      0x00\n      shl\n        /* \"contracts/ReceiverTemplate.sol\":4134:4154  s_expectedWorkflowId */\n      sload(0x03)\n        /* \"contracts/ReceiverTemplate.sol\":4134:4168  s_expectedWorkflowId != bytes32(0) */\n      eq\n      iszero\n        /* \"contracts/ReceiverTemplate.sol\":4134:4202  s_expectedWorkflowId != bytes32(0) || s_expectedAuthor != address(0) */\n      dup1\n      tag_117\n      jumpi\n      pop\n        /* \"contracts/ReceiverTemplate.sol\":4200:4201  0 */\n      0x00\n        /* \"contracts/ReceiverTemplate.sol\":4172:4202  s_expectedAuthor != address(0) */\n      0xffffffffffffffffffffffffffffffffffffffff\n      and\n        /* \"contracts/ReceiverTemplate.sol\":4172:4188  s_expectedAuthor */\n      0x02\n      0x00\n      swap1\n      sload\n      swap1\n      0x0100\n      exp\n      swap1\n      div\n      0xffffffffffffffffffffffffffffffffffffffff\n      and\n        /* \"contracts/ReceiverTemplate.sol\":4172:4202  s_expectedAuthor != address(0) */\n      0xffffffffffffffffffffffffffffffffffffffff\n      and\n      eq\n      iszero\n        /* \"contracts/ReceiverTemplate.sol\":4134:4202  s_expectedWorkflowId != bytes32(0) || s_expectedAuthor != address(0) */\n    tag_117:\n        /* \"contracts/ReceiverTemplate.sol\":4134:4242  s_expectedWorkflowId != bytes32(0) || s_expectedAuthor != address(0) || s_expectedWorkflowName != bytes10(0) */\n      dup1\n      tag_118\n      jumpi\n      pop\n        /* \"contracts/ReceiverTemplate.sol\":4240:4241  0 */\n      0x00\n        /* \"contracts/ReceiverTemplate.sol\":4232:4242  bytes10(0) */\n      0xb0\n      shl\n        /* \"contracts/ReceiverTemplate.sol\":4206:4242  s_expectedWorkflowName != bytes10(0) */\n      not(0xffffffffffffffffffffffffffffffffffffffffffff)\n      and\n        /* \"contracts/ReceiverTemplate.sol\":4206:4228  s_expectedWorkflowName */\n      0x02\n      0x14\n      swap1\n      sload\n      swap1\n      0x0100\n      exp\n      swap1\n      div\n      0xb0\n      shl\n        /* \"contracts/ReceiverTemplate.sol\":4206:4242  s_expectedWorkflowName != bytes10(0) */\n      not(0xffffffffffffffffffffffffffffffffffffffffffff)\n      and\n      eq\n      iszero\n        /* \"contracts/ReceiverTemplate.sol\":4134:4242  s_expectedWorkflowId != bytes32(0) || s_expectedAuthor != address(0) || s_expectedWorkflowName != bytes10(0) */\n    tag_118:\n        /* \"contracts/ReceiverTemplate.sol\":4130:5798  if (s_expectedWorkflowId != bytes32(0) || s_expectedAuthor != address(0) || s_expectedWorkflowName != bytes10(0)) {... */\n      iszero\n      tag_119\n      jumpi\n        /* \"contracts/ReceiverTemplate.sol\":4254:4272  bytes32 workflowId */\n      0x00\n        /* \"contracts/ReceiverTemplate.sol\":4274:4294  bytes10 workflowName */\n      0x00\n        /* \"contracts/ReceiverTemplate.sol\":4296:4317  address workflowOwner */\n      0x00\n        /* \"contracts/ReceiverTemplate.sol\":4321:4346  _decodeMetadata(metadata) */\n      tag_120\n        /* \"contracts/ReceiverTemplate.sol\":4337:4345  metadata */\n      dup8\n      dup8\n        /* \"contracts/ReceiverTemplate.sol\":4321:4346  _decodeMetadata(metadata) */\n      dup1\n      dup1\n      0x1f\n      add\n      0x20\n      dup1\n      swap2\n      div\n      mul\n      0x20\n      add\n      mload(0x40)\n      swap1\n      dup2\n      add\n      0x40\n      mstore\n      dup1\n      swap4\n      swap3\n      swap2\n      swap1\n      dup2\n      dup2\n      mstore\n      0x20\n      add\n      dup4\n      dup4\n      dup1\n      dup3\n      dup5\n      calldatacopy\n      0x00\n      dup2\n      dup5\n      add\n      mstore\n      not(0x1f)\n      0x1f\n      dup3\n      add\n      and\n      swap1\n      pop\n      dup1\n      dup4\n      add\n      swap3\n      pop\n      pop\n      pop\n      pop\n      pop\n      pop\n      pop\n        /* \"contracts/ReceiverTemplate.sol\":4321:4336  _decodeMetadata */\n      tag_121\n        /* \"contracts/ReceiverTemplate.sol\":4321:4346  _decodeMetadata(metadata) */\n      jump\t// in\n    tag_120:\n        /* \"contracts/ReceiverTemplate.sol\":4253:4346  (bytes32 workflowId, bytes10 workflowName, address workflowOwner) = _decodeMetadata(metadata) */\n      swap3\n      pop\n      swap3\n      pop\n      swap3\n      pop\n        /* \"contracts/ReceiverTemplate.sol\":4393:4394  0 */\n      0x00\n        /* \"contracts/ReceiverTemplate.sol\":4385:4395  bytes32(0) */\n      0x00\n      shl\n        /* \"contracts/ReceiverTemplate.sol\":4361:4381  s_expectedWorkflowId */\n      sload(0x03)\n        /* \"contracts/ReceiverTemplate.sol\":4361:4395  s_expectedWorkflowId != bytes32(0) */\n      eq\n      iszero\n        /* \"contracts/ReceiverTemplate.sol\":4361:4433  s_expectedWorkflowId != bytes32(0) && workflowId != s_expectedWorkflowId */\n      dup1\n      iszero\n      tag_122\n      jumpi\n      pop\n        /* \"contracts/ReceiverTemplate.sol\":4413:4433  s_expectedWorkflowId */\n      sload(0x03)\n        /* \"contracts/ReceiverTemplate.sol\":4399:4409  workflowId */\n      dup4\n        /* \"contracts/ReceiverTemplate.sol\":4399:4433  workflowId != s_expectedWorkflowId */\n      eq\n      iszero\n        /* \"contracts/ReceiverTemplate.sol\":4361:4433  s_expectedWorkflowId != bytes32(0) && workflowId != s_expectedWorkflowId */\n    tag_122:\n        /* \"contracts/ReceiverTemplate.sol\":4357:4514  if (s_expectedWorkflowId != bytes32(0) && workflowId != s_expectedWorkflowId) {... */\n      iszero\n      tag_123\n      jumpi\n        /* \"contracts/ReceiverTemplate.sol\":4471:4481  workflowId */\n      dup3\n        /* \"contracts/ReceiverTemplate.sol\":4483:4503  s_expectedWorkflowId */\n      sload(0x03)\n        /* \"contracts/ReceiverTemplate.sol\":4453:4504  InvalidWorkflowId(workflowId, s_expectedWorkflowId) */\n      mload(0x40)\n      0x9bfa39ba00000000000000000000000000000000000000000000000000000000\n      dup2\n      mstore\n      0x04\n      add\n      tag_124\n      swap3\n      swap2\n      swap1\n      tag_125\n      jump\t// in\n    tag_124:\n      mload(0x40)\n      dup1\n      swap2\n      sub\n      swap1\n      revert\n        /* \"contracts/ReceiverTemplate.sol\":4357:4514  if (s_expectedWorkflowId != bytes32(0) && workflowId != s_expectedWorkflowId) {... */\n    tag_123:\n        /* \"contracts/ReceiverTemplate.sol\":4554:4555  0 */\n      0x00\n        /* \"contracts/ReceiverTemplate.sol\":4526:4556  s_expectedAuthor != address(0) */\n      0xffffffffffffffffffffffffffffffffffffffff\n      and\n        /* \"contracts/ReceiverTemplate.sol\":4526:4542  s_expectedAuthor */\n      0x02\n      0x00\n      swap1\n      sload\n      swap1\n      0x0100\n      exp\n      swap1\n      div\n      0xffffffffffffffffffffffffffffffffffffffff\n      and\n        /* \"contracts/ReceiverTemplate.sol\":4526:4556  s_expectedAuthor != address(0) */\n      0xffffffffffffffffffffffffffffffffffffffff\n      and\n      eq\n      iszero\n        /* \"contracts/ReceiverTemplate.sol\":4526:4593  s_expectedAuthor != address(0) && workflowOwner != s_expectedAuthor */\n      dup1\n      iszero\n      tag_126\n      jumpi\n      pop\n        /* \"contracts/ReceiverTemplate.sol\":4577:4593  s_expectedAuthor */\n      0x02\n      0x00\n      swap1\n      sload\n      swap1\n      0x0100\n      exp\n      swap1\n      div\n      0xffffffffffffffffffffffffffffffffffffffff\n      and\n        /* \"contracts/ReceiverTemplate.sol\":4560:4593  workflowOwner != s_expectedAuthor */\n      0xffffffffffffffffffffffffffffffffffffffff\n      and\n        /* \"contracts/ReceiverTemplate.sol\":4560:4573  workflowOwner */\n      dup2\n        /* \"contracts/ReceiverTemplate.sol\":4560:4593  workflowOwner != s_expectedAuthor */\n      0xffffffffffffffffffffffffffffffffffffffff\n      and\n      eq\n      iszero\n        /* \"contracts/ReceiverTemplate.sol\":4526:4593  s_expectedAuthor != address(0) && workflowOwner != s_expectedAuthor */\n    tag_126:\n        /* \"contracts/ReceiverTemplate.sol\":4522:4669  if (s_expectedAuthor != address(0) && workflowOwner != s_expectedAuthor) {... */\n      iszero\n      tag_127\n      jumpi\n        /* \"contracts/ReceiverTemplate.sol\":4627:4640  workflowOwner */\n      dup1\n        /* \"contracts/ReceiverTemplate.sol\":4642:4658  s_expectedAuthor */\n      0x02\n      0x00\n      swap1\n      sload\n      swap1\n      0x0100\n      exp\n      swap1\n      div\n      0xffffffffffffffffffffffffffffffffffffffff\n      and\n        /* \"contracts/ReceiverTemplate.sol\":4613:4659  InvalidAuthor(workflowOwner, s_expectedAuthor) */\n      mload(0x40)\n      0xb8a98af800000000000000000000000000000000000000000000000000000000\n      dup2\n      mstore\n      0x04\n      add\n      tag_128\n      swap3\n      swap2\n      swap1\n      tag_116\n      jump\t// in\n    tag_128:\n      mload(0x40)\n      dup1\n      swap2\n      sub\n      swap1\n      revert\n        /* \"contracts/ReceiverTemplate.sol\":4522:4669  if (s_expectedAuthor != address(0) && workflowOwner != s_expectedAuthor) {... */\n    tag_127:\n        /* \"contracts/ReceiverTemplate.sol\":5379:5380  0 */\n      0x00\n        /* \"contracts/ReceiverTemplate.sol\":5371:5381  bytes10(0) */\n      0xb0\n      shl\n        /* \"contracts/ReceiverTemplate.sol\":5345:5381  s_expectedWorkflowName != bytes10(0) */\n      not(0xffffffffffffffffffffffffffffffffffffffffffff)\n      and\n        /* \"contracts/ReceiverTemplate.sol\":5345:5367  s_expectedWorkflowName */\n      0x02\n      0x14\n      swap1\n      sload\n      swap1\n      0x0100\n      exp\n      swap1\n      div\n      0xb0\n      shl\n        /* \"contracts/ReceiverTemplate.sol\":5345:5381  s_expectedWorkflowName != bytes10(0) */\n      not(0xffffffffffffffffffffffffffffffffffffffffffff)\n      and\n      eq\n        /* \"contracts/ReceiverTemplate.sol\":5341:5791  if (s_expectedWorkflowName != bytes10(0)) {... */\n      tag_129\n      jumpi\n        /* \"contracts/ReceiverTemplate.sol\":5489:5490  0 */\n      0x00\n        /* \"contracts/ReceiverTemplate.sol\":5461:5491  s_expectedAuthor == address(0) */\n      0xffffffffffffffffffffffffffffffffffffffff\n      and\n        /* \"contracts/ReceiverTemplate.sol\":5461:5477  s_expectedAuthor */\n      0x02\n      0x00\n      swap1\n      sload\n      swap1\n      0x0100\n      exp\n      swap1\n      div\n      0xffffffffffffffffffffffffffffffffffffffff\n      and\n        /* \"contracts/ReceiverTemplate.sol\":5461:5491  s_expectedAuthor == address(0) */\n      0xffffffffffffffffffffffffffffffffffffffff\n      and\n      sub\n        /* \"contracts/ReceiverTemplate.sol\":5457:5563  if (s_expectedAuthor == address(0)) {... */\n      tag_130\n      jumpi\n        /* \"contracts/ReceiverTemplate.sol\":5513:5551  WorkflowNameRequiresAuthorValidation() */\n      mload(0x40)\n      0x4847901100000000000000000000000000000000000000000000000000000000\n      dup2\n      mstore\n      0x04\n      add\n      mload(0x40)\n      dup1\n      swap2\n      sub\n      swap1\n      revert\n        /* \"contracts/ReceiverTemplate.sol\":5457:5563  if (s_expectedAuthor == address(0)) {... */\n    tag_130:\n        /* \"contracts/ReceiverTemplate.sol\":5669:5691  s_expectedWorkflowName */\n      0x02\n      0x14\n      swap1\n      sload\n      swap1\n      0x0100\n      exp\n      swap1\n      div\n      0xb0\n      shl\n        /* \"contracts/ReceiverTemplate.sol\":5653:5691  workflowName != s_expectedWorkflowName */\n      not(0xffffffffffffffffffffffffffffffffffffffffffff)\n      and\n        /* \"contracts/ReceiverTemplate.sol\":5653:5665  workflowName */\n      dup3\n        /* \"contracts/ReceiverTemplate.sol\":5653:5691  workflowName != s_expectedWorkflowName */\n      not(0xffffffffffffffffffffffffffffffffffffffffffff)\n      and\n      eq\n        /* \"contracts/ReceiverTemplate.sol\":5649:5782  if (workflowName != s_expectedWorkflowName) {... */\n      tag_131\n      jumpi\n        /* \"contracts/ReceiverTemplate.sol\":5733:5745  workflowName */\n      dup2\n        /* \"contracts/ReceiverTemplate.sol\":5747:5769  s_expectedWorkflowName */\n      0x02\n      0x14\n      swap1\n      sload\n      swap1\n      0x0100\n      exp\n      swap1\n      div\n      0xb0\n      shl\n        /* \"contracts/ReceiverTemplate.sol\":5713:5770  InvalidWorkflowName(workflowName, s_expectedWorkflowName) */\n      mload(0x40)\n      0x6c4609a600000000000000000000000000000000000000000000000000000000\n      dup2\n      mstore\n      0x04\n      add\n      tag_132\n      swap3\n      swap2\n      swap1\n      tag_133\n      jump\t// in\n    tag_132:\n      mload(0x40)\n      dup1\n      swap2\n      sub\n      swap1\n      revert\n        /* \"contracts/ReceiverTemplate.sol\":5649:5782  if (workflowName != s_expectedWorkflowName) {... */\n    tag_131:\n        /* \"contracts/ReceiverTemplate.sol\":5341:5791  if (s_expectedWorkflowName != bytes10(0)) {... */\n    tag_129:\n        /* \"contracts/ReceiverTemplate.sol\":4244:5798  {... */\n      pop\n      pop\n      pop\n        /* \"contracts/ReceiverTemplate.sol\":4130:5798  if (s_expectedWorkflowId != bytes32(0) || s_expectedAuthor != address(0) || s_expectedWorkflowName != bytes10(0)) {... */\n    tag_119:\n        /* \"contracts/ReceiverTemplate.sol\":5806:5828  _processReport(report) */\n      tag_134\n        /* \"contracts/ReceiverTemplate.sol\":5821:5827  report */\n      dup3\n      dup3\n        /* \"contracts/ReceiverTemplate.sol\":5806:5820  _processReport */\n      tag_135\n        /* \"contracts/ReceiverTemplate.sol\":5806:5828  _processReport(report) */\n      jump\t// in\n    tag_134:\n        /* \"contracts/ReceiverTemplate.sol\":3679:5834  function onReport(... */\n      pop\n      pop\n      pop\n      pop\n      jump\t// out\n        /* \"@chainlink/contracts-ccip/src/v0.8/ccip/applications/CCIPReceiver.sol\":1660:1790  function ccipReceive(Client.Any2EVMMessage calldata message) external virtual override onlyRouter {... */\n    tag_53:\n        /* \"@chainlink/contracts-ccip/src/v0.8/ccip/applications/CCIPReceiver.sol\":2449:2460  getRouter() */\n      tag_137\n        /* \"@chainlink/contracts-ccip/src/v0.8/ccip/applications/CCIPReceiver.sol\":2449:2458  getRouter */\n      tag_62\n        /* \"@chainlink/contracts-ccip/src/v0.8/ccip/applications/CCIPReceiver.sol\":2449:2460  getRouter() */\n      jump\t// in\n    tag_137:\n        /* \"@chainlink/contracts-ccip/src/v0.8/ccip/applications/CCIPReceiver.sol\":2435:2460  msg.sender != getRouter() */\n      0xffffffffffffffffffffffffffffffffffffffff\n      and\n        /* \"@chainlink/contracts-ccip/src/v0.8/ccip/applications/CCIPReceiver.sol\":2435:2445  msg.sender */\n      caller\n        /* \"@chainlink/contracts-ccip/src/v0.8/ccip/applications/CCIPReceiver.sol\":2435:2460  msg.sender != getRouter() */\n      0xffffffffffffffffffffffffffffffffffffffff\n      and\n      eq\n        /* \"@chainlink/contracts-ccip/src/v0.8/ccip/applications/CCIPReceiver.sol\":2431:2494  if (msg.sender != getRouter()) revert InvalidRouter(msg.sender) */\n      tag_138\n      jumpi\n        /* \"@chainlink/contracts-ccip/src/v0.8/ccip/applications/CCIPReceiver.sol\":2483:2493  msg.sender */\n      caller\n        /* \"@chainlink/contracts-ccip/src/v0.8/ccip/applications/CCIPReceiver.sol\":2469:2494  InvalidRouter(msg.sender) */\n      mload(0x40)\n      0xd7f7333400000000000000000000000000000000000000000000000000000000\n      dup2\n      mstore\n      0x04\n      add\n      tag_139\n      swap2\n      swap1\n      tag_36\n      jump\t// in\n    tag_139:\n      mload(0x40)\n      dup1\n      swap2\n      sub\n      swap1\n      revert\n        /* \"@chainlink/contracts-ccip/src/v0.8/ccip/applications/CCIPReceiver.sol\":2431:2494  if (msg.sender != getRouter()) revert InvalidRouter(msg.sender) */\n    tag_138:\n        /* \"@chainlink/contracts-ccip/src/v0.8/ccip/applications/CCIPReceiver.sol\":1764:1785  _ccipReceive(message) */\n      tag_141\n        /* \"@chainlink/contracts-ccip/src/v0.8/ccip/applications/CCIPReceiver.sol\":1777:1784  message */\n      dup2\n        /* \"@chainlink/contracts-ccip/src/v0.8/ccip/applications/CCIPReceiver.sol\":1764:1785  _ccipReceive(message) */\n      tag_142\n      swap1\n      tag_143\n      jump\t// in\n    tag_142:\n        /* \"@chainlink/contracts-ccip/src/v0.8/ccip/applications/CCIPReceiver.sol\":1764:1776  _ccipReceive */\n      tag_144\n        /* \"@chainlink/contracts-ccip/src/v0.8/ccip/applications/CCIPReceiver.sol\":1764:1785  _ccipReceive(message) */\n      jump\t// in\n    tag_141:\n        /* \"@chainlink/contracts-ccip/src/v0.8/ccip/applications/CCIPReceiver.sol\":1660:1790  function ccipReceive(Client.Any2EVMMessage calldata message) external virtual override onlyRouter {... */\n      pop\n      jump\t// out\n        /* \"@openzeppelin/contracts/access/Ownable.sol\":1638:1723  function owner() public view virtual returns (address) {... */\n    tag_55:\n        /* \"@openzeppelin/contracts/access/Ownable.sol\":1684:1691  address */\n      0x00\n        /* \"@openzeppelin/contracts/access/Ownable.sol\":1710:1716  _owner */\n      0x00\n      0x00\n      swap1\n      sload\n      swap1\n      0x0100\n      exp\n      swap1\n      div\n      0xffffffffffffffffffffffffffffffffffffffff\n      and\n        /* \"@openzeppelin/contracts/access/Ownable.sol\":1703:1716  return _owner */\n      swap1\n      pop\n        /* \"@openzeppelin/contracts/access/Ownable.sol\":1638:1723  function owner() public view virtual returns (address) {... */\n      swap1\n      jump\t// out\n        /* \"contracts/ReceiverTemplate.sol\":3223:3332  function getExpectedWorkflowName() external view returns (bytes10) {... */\n    tag_58:\n        /* \"contracts/ReceiverTemplate.sol\":3281:3288  bytes10 */\n      0x00\n        /* \"contracts/ReceiverTemplate.sol\":3304:3326  s_expectedWorkflowName */\n      0x02\n      0x14\n      swap1\n      sload\n      swap1\n      0x0100\n      exp\n      swap1\n      div\n      0xb0\n      shl\n        /* \"contracts/ReceiverTemplate.sol\":3297:3326  return s_expectedWorkflowName */\n      swap1\n      pop\n        /* \"contracts/ReceiverTemplate.sol\":3223:3332  function getExpectedWorkflowName() external view returns (bytes10) {... */\n      swap1\n      jump\t// out\n        /* \"@chainlink/contracts-ccip/src/v0.8/ccip/applications/CCIPReceiver.sol\":2205:2303  function getRouter() public view virtual returns (address) {... */\n    tag_62:\n        /* \"@chainlink/contracts-ccip/src/v0.8/ccip/applications/CCIPReceiver.sol\":2255:2262  address */\n      0x00\n        /* \"@chainlink/contracts-ccip/src/v0.8/ccip/applications/CCIPReceiver.sol\":2285:2297  i_ccipRouter */\n      immutable(\"0x5c4c6aa067b6f8e6cb38e6ab843832a94d1712d661a04d73c517d6a1931a9e5d\")\n        /* \"@chainlink/contracts-ccip/src/v0.8/ccip/applications/CCIPReceiver.sol\":2270:2298  return address(i_ccipRouter) */\n      swap1\n      pop\n        /* \"@chainlink/contracts-ccip/src/v0.8/ccip/applications/CCIPReceiver.sol\":2205:2303  function getRouter() public view virtual returns (address) {... */\n      swap1\n      jump\t// out\n        /* \"contracts/ReceiverTemplate.sol\":7707:8516  function setExpectedWorkflowName(... */\n    tag_67:\n        /* \"@openzeppelin/contracts/access/Ownable.sol\":1531:1544  _checkOwner() */\n      tag_149\n        /* \"@openzeppelin/contracts/access/Ownable.sol\":1531:1542  _checkOwner */\n      tag_108\n        /* \"@openzeppelin/contracts/access/Ownable.sol\":1531:1544  _checkOwner() */\n      jump\t// in\n    tag_149:\n        /* \"contracts/ReceiverTemplate.sol\":7799:7819  bytes10 previousName */\n      0x00\n        /* \"contracts/ReceiverTemplate.sol\":7822:7844  s_expectedWorkflowName */\n      0x02\n      0x14\n      swap1\n      sload\n      swap1\n      0x0100\n      exp\n      swap1\n      div\n      0xb0\n      shl\n        /* \"contracts/ReceiverTemplate.sol\":7799:7844  bytes10 previousName = s_expectedWorkflowName */\n      swap1\n      pop\n        /* \"contracts/ReceiverTemplate.sol\":7880:7881  0 */\n      0x00\n        /* \"contracts/ReceiverTemplate.sol\":7863:7868  _name */\n      dup4\n      dup4\n        /* \"contracts/ReceiverTemplate.sol\":7857:7876  bytes(_name).length */\n      swap1\n      pop\n        /* \"contracts/ReceiverTemplate.sol\":7857:7881  bytes(_name).length == 0 */\n      sub\n        /* \"contracts/ReceiverTemplate.sol\":7853:8017  if (bytes(_name).length == 0) {... */\n      tag_151\n      jumpi\n        /* \"contracts/ReceiverTemplate.sol\":7925:7926  0 */\n      0x00\n        /* \"contracts/ReceiverTemplate.sol\":7917:7927  bytes10(0) */\n      0xb0\n      shl\n        /* \"contracts/ReceiverTemplate.sol\":7892:7914  s_expectedWorkflowName */\n      0x02\n      0x14\n        /* \"contracts/ReceiverTemplate.sol\":7892:7927  s_expectedWorkflowName = bytes10(0) */\n      0x0100\n      exp\n      dup2\n      sload\n      dup2\n      0xffffffffffffffffffff\n      mul\n      not\n      and\n      swap1\n      dup4\n      0xb0\n      shr\n      mul\n      or\n      swap1\n      sstore\n      pop\n        /* \"contracts/ReceiverTemplate.sol\":7991:7992  0 */\n      0x00\n        /* \"contracts/ReceiverTemplate.sol\":7983:7993  bytes10(0) */\n      0xb0\n      shl\n        /* \"contracts/ReceiverTemplate.sol\":7941:7994  ExpectedWorkflowNameUpdated(previousName, bytes10(0)) */\n      not(0xffffffffffffffffffffffffffffffffffffffffffff)\n      and\n        /* \"contracts/ReceiverTemplate.sol\":7969:7981  previousName */\n      dup2\n        /* \"contracts/ReceiverTemplate.sol\":7941:7994  ExpectedWorkflowNameUpdated(previousName, bytes10(0)) */\n      not(0xffffffffffffffffffffffffffffffffffffffffffff)\n      and\n      0x1e7ddd09d504c82dcfc784a464b167469f5aad967606ec4822d848ef9141dfa5\n      mload(0x40)\n      mload(0x40)\n      dup1\n      swap2\n      sub\n      swap1\n      log3\n        /* \"contracts/ReceiverTemplate.sol\":8003:8010  return; */\n      pop\n      jump(tag_150)\n        /* \"contracts/ReceiverTemplate.sol\":7853:8017  if (bytes(_name).length == 0) {... */\n    tag_151:\n        /* \"contracts/ReceiverTemplate.sol\":8153:8165  bytes32 hash */\n      0x00\n        /* \"contracts/ReceiverTemplate.sol\":8168:8188  sha256(bytes(_name)) */\n      0x02\n        /* \"contracts/ReceiverTemplate.sol\":8181:8186  _name */\n      dup5\n      dup5\n        /* \"contracts/ReceiverTemplate.sol\":8168:8188  sha256(bytes(_name)) */\n      mload(0x40)\n      tag_152\n      swap3\n      swap2\n      swap1\n      tag_153\n      jump\t// in\n    tag_152:\n      0x20\n      mload(0x40)\n      dup1\n      dup4\n      sub\n      dup2\n      dup6\n      gas\n      staticcall\n      iszero\n      dup1\n      iszero\n      tag_155\n      jumpi\n      returndatacopy(0x00, 0x00, returndatasize)\n      revert(0x00, returndatasize)\n    tag_155:\n      pop\n      pop\n      pop\n      mload(0x40)\n      returndatasize\n      not(0x1f)\n      0x1f\n      dup3\n      add\n      and\n      dup3\n      add\n      dup1\n      0x40\n      mstore\n      pop\n      dup2\n      add\n      swap1\n      tag_156\n      swap2\n      swap1\n      tag_157\n      jump\t// in\n    tag_156:\n        /* \"contracts/ReceiverTemplate.sol\":8153:8188  bytes32 hash = sha256(bytes(_name)) */\n      swap1\n      pop\n        /* \"contracts/ReceiverTemplate.sol\":8195:8217  bytes memory hexString */\n      0x00\n        /* \"contracts/ReceiverTemplate.sol\":8220:8261  _bytesToHexString(abi.encodePacked(hash)) */\n      tag_158\n        /* \"contracts/ReceiverTemplate.sol\":8255:8259  hash */\n      dup3\n        /* \"contracts/ReceiverTemplate.sol\":8238:8260  abi.encodePacked(hash) */\n      add(0x20, mload(0x40))\n      tag_159\n      swap2\n      swap1\n      tag_160\n      jump\t// in\n    tag_159:\n      mload(0x40)\n      0x20\n      dup2\n      dup4\n      sub\n      sub\n      dup2\n      mstore\n      swap1\n      0x40\n      mstore\n        /* \"contracts/ReceiverTemplate.sol\":8220:8237  _bytesToHexString */\n      tag_161\n        /* \"contracts/ReceiverTemplate.sol\":8220:8261  _bytesToHexString(abi.encodePacked(hash)) */\n      jump\t// in\n    tag_158:\n        /* \"contracts/ReceiverTemplate.sol\":8195:8261  bytes memory hexString = _bytesToHexString(abi.encodePacked(hash)) */\n      swap1\n      pop\n        /* \"contracts/ReceiverTemplate.sol\":8268:8288  bytes memory first10 */\n      0x00\n        /* \"contracts/ReceiverTemplate.sol\":8301:8303  10 */\n      0x0a\n        /* \"contracts/ReceiverTemplate.sol\":8291:8304  new bytes(10) */\n      0xffffffffffffffff\n      dup2\n      gt\n      iszero\n      tag_162\n      jumpi\n      tag_163\n      tag_164\n      jump\t// in\n    tag_163:\n    tag_162:\n      mload(0x40)\n      swap1\n      dup1\n      dup3\n      mstore\n      dup1\n      0x1f\n      add\n      not(0x1f)\n      and\n      0x20\n      add\n      dup3\n      add\n      0x40\n      mstore\n      dup1\n      iszero\n      tag_165\n      jumpi\n      dup2\n      0x20\n      add\n      0x01\n      dup3\n      mul\n      dup1\n      calldatasize\n      dup4\n      calldatacopy\n      dup1\n      dup3\n      add\n      swap2\n      pop\n      pop\n      swap1\n      pop\n    tag_165:\n      pop\n        /* \"contracts/ReceiverTemplate.sol\":8268:8304  bytes memory first10 = new bytes(10) */\n      swap1\n      pop\n        /* \"contracts/ReceiverTemplate.sol\":8316:8325  uint256 i */\n      0x00\n        /* \"contracts/ReceiverTemplate.sol\":8328:8329  0 */\n      0x00\n        /* \"contracts/ReceiverTemplate.sol\":8316:8329  uint256 i = 0 */\n      swap1\n      pop\n        /* \"contracts/ReceiverTemplate.sol\":8311:8386  for (uint256 i = 0; i < 10; i++) {... */\n    tag_166:\n        /* \"contracts/ReceiverTemplate.sol\":8335:8337  10 */\n      0x0a\n        /* \"contracts/ReceiverTemplate.sol\":8331:8332  i */\n      dup2\n        /* \"contracts/ReceiverTemplate.sol\":8331:8337  i < 10 */\n      lt\n        /* \"contracts/ReceiverTemplate.sol\":8311:8386  for (uint256 i = 0; i < 10; i++) {... */\n      iszero\n      tag_167\n      jumpi\n        /* \"contracts/ReceiverTemplate.sol\":8366:8375  hexString */\n      dup3\n        /* \"contracts/ReceiverTemplate.sol\":8376:8377  i */\n      dup2\n        /* \"contracts/ReceiverTemplate.sol\":8366:8378  hexString[i] */\n      dup2\n      mload\n      dup2\n      lt\n      tag_169\n      jumpi\n      tag_170\n      tag_171\n      jump\t// in\n    tag_170:\n    tag_169:\n      0x20\n      add\n      add\n      mload\n      0xf8\n      shr\n      0xf8\n      shl\n        /* \"contracts/ReceiverTemplate.sol\":8353:8360  first10 */\n      dup3\n        /* \"contracts/ReceiverTemplate.sol\":8361:8362  i */\n      dup3\n        /* \"contracts/ReceiverTemplate.sol\":8353:8363  first10[i] */\n      dup2\n      mload\n      dup2\n      lt\n      tag_172\n      jumpi\n      tag_173\n      tag_171\n      jump\t// in\n    tag_173:\n    tag_172:\n      0x20\n      add\n      add\n        /* \"contracts/ReceiverTemplate.sol\":8353:8378  first10[i] = hexString[i] */\n      swap1\n      not(0xffffffffffffffffffffffffffffffffffffffffffffffffffffffffffffff)\n      and\n      swap1\n      dup2\n      0x00\n      byte\n      swap1\n      mstore8\n      pop\n        /* \"contracts/ReceiverTemplate.sol\":8339:8342  i++ */\n      dup1\n      dup1\n      0x01\n      add\n      swap2\n      pop\n      pop\n        /* \"contracts/ReceiverTemplate.sol\":8311:8386  for (uint256 i = 0; i < 10; i++) {... */\n      jump(tag_166)\n    tag_167:\n      pop\n        /* \"contracts/ReceiverTemplate.sol\":8425:8432  first10 */\n      dup1\n        /* \"contracts/ReceiverTemplate.sol\":8417:8433  bytes10(first10) */\n      tag_174\n      swap1\n      tag_175\n      jump\t// in\n    tag_174:\n        /* \"contracts/ReceiverTemplate.sol\":8392:8414  s_expectedWorkflowName */\n      0x02\n      0x14\n        /* \"contracts/ReceiverTemplate.sol\":8392:8433  s_expectedWorkflowName = bytes10(first10) */\n      0x0100\n      exp\n      dup2\n      sload\n      dup2\n      0xffffffffffffffffffff\n      mul\n      not\n      and\n      swap1\n      dup4\n      0xb0\n      shr\n      mul\n      or\n      swap1\n      sstore\n      pop\n        /* \"contracts/ReceiverTemplate.sol\":8487:8509  s_expectedWorkflowName */\n      0x02\n      0x14\n      swap1\n      sload\n      swap1\n      0x0100\n      exp\n      swap1\n      div\n      0xb0\n      shl\n        /* \"contracts/ReceiverTemplate.sol\":8445:8510  ExpectedWorkflowNameUpdated(previousName, s_expectedWorkflowName) */\n      not(0xffffffffffffffffffffffffffffffffffffffffffff)\n      and\n        /* \"contracts/ReceiverTemplate.sol\":8473:8485  previousName */\n      dup5\n        /* \"contracts/ReceiverTemplate.sol\":8445:8510  ExpectedWorkflowNameUpdated(previousName, s_expectedWorkflowName) */\n      not(0xffffffffffffffffffffffffffffffffffffffffffff)\n      and\n      0x1e7ddd09d504c82dcfc784a464b167469f5aad967606ec4822d848ef9141dfa5\n      mload(0x40)\n      mload(0x40)\n      dup1\n      swap2\n      sub\n      swap1\n      log3\n        /* \"contracts/ReceiverTemplate.sol\":7792:8516  {... */\n      pop\n      pop\n      pop\n      pop\n        /* \"@openzeppelin/contracts/access/Ownable.sol\":1554:1555  _ */\n    tag_150:\n        /* \"contracts/ReceiverTemplate.sol\":7707:8516  function setExpectedWorkflowName(... */\n      pop\n      pop\n      jump\t// out\n        /* \"contracts/ReceiverTemplate.sol\":8656:8870  function setExpectedWorkflowId(... */\n    tag_71:\n        /* \"@openzeppelin/contracts/access/Ownable.sol\":1531:1544  _checkOwner() */\n      tag_177\n        /* \"@openzeppelin/contracts/access/Ownable.sol\":1531:1542  _checkOwner */\n      tag_108\n        /* \"@openzeppelin/contracts/access/Ownable.sol\":1531:1544  _checkOwner() */\n      jump\t// in\n    tag_177:\n        /* \"contracts/ReceiverTemplate.sol\":8736:8754  bytes32 previousId */\n      0x00\n        /* \"contracts/ReceiverTemplate.sol\":8757:8777  s_expectedWorkflowId */\n      sload(0x03)\n        /* \"contracts/ReceiverTemplate.sol\":8736:8777  bytes32 previousId = s_expectedWorkflowId */\n      swap1\n      pop\n        /* \"contracts/ReceiverTemplate.sol\":8807:8810  _id */\n      dup2\n        /* \"contracts/ReceiverTemplate.sol\":8784:8804  s_expectedWorkflowId */\n      0x03\n        /* \"contracts/ReceiverTemplate.sol\":8784:8810  s_expectedWorkflowId = _id */\n      dup2\n      swap1\n      sstore\n      pop\n        /* \"contracts/ReceiverTemplate.sol\":8860:8863  _id */\n      dup2\n        /* \"contracts/ReceiverTemplate.sol\":8848:8858  previousId */\n      dup2\n        /* \"contracts/ReceiverTemplate.sol\":8822:8864  ExpectedWorkflowIdUpdated(previousId, _id) */\n      0x0dbedcdf21925e053b4c574eae180d7f2883235ab4976ecc0873598a2a999b03\n      mload(0x40)\n      mload(0x40)\n      dup1\n      swap2\n      sub\n      swap1\n      log3\n        /* \"contracts/ReceiverTemplate.sol\":8729:8870  {... */\n      pop\n        /* \"contracts/ReceiverTemplate.sol\":8656:8870  function setExpectedWorkflowId(... */\n      pop\n      jump\t// out\n        /* \"contracts/ReceiverTemplate.sol\":6808:7026  function setExpectedAuthor(... */\n    tag_75:\n        /* \"@openzeppelin/contracts/access/Ownable.sol\":1531:1544  _checkOwner() */\n      tag_180\n        /* \"@openzeppelin/contracts/access/Ownable.sol\":1531:1542  _checkOwner */\n      tag_108\n        /* \"@openzeppelin/contracts/access/Ownable.sol\":1531:1544  _checkOwner() */\n      jump\t// in\n    tag_180:\n        /* \"contracts/ReceiverTemplate.sol\":6888:6910  address previousAuthor */\n      0x00\n        /* \"contracts/ReceiverTemplate.sol\":6913:6929  s_expectedAuthor */\n      0x02\n      0x00\n      swap1\n      sload\n      swap1\n      0x0100\n      exp\n      swap1\n      div\n      0xffffffffffffffffffffffffffffffffffffffff\n      and\n        /* \"contracts/ReceiverTemplate.sol\":6888:6929  address previousAuthor = s_expectedAuthor */\n      swap1\n      pop\n        /* \"contracts/ReceiverTemplate.sol\":6955:6962  _author */\n      dup2\n        /* \"contracts/ReceiverTemplate.sol\":6936:6952  s_expectedAuthor */\n      0x02\n      0x00\n        /* \"contracts/ReceiverTemplate.sol\":6936:6962  s_expectedAuthor = _author */\n      0x0100\n      exp\n      dup2\n      sload\n      dup2\n      0xffffffffffffffffffffffffffffffffffffffff\n      mul\n      not\n      and\n      swap1\n      dup4\n      0xffffffffffffffffffffffffffffffffffffffff\n      and\n      mul\n      or\n      swap1\n      sstore\n      pop\n        /* \"contracts/ReceiverTemplate.sol\":7012:7019  _author */\n      dup2\n        /* \"contracts/ReceiverTemplate.sol\":6974:7020  ExpectedAuthorUpdated(previousAuthor, _author) */\n      0xffffffffffffffffffffffffffffffffffffffff\n      and\n        /* \"contracts/ReceiverTemplate.sol\":6996:7010  previousAuthor */\n      dup2\n        /* \"contracts/ReceiverTemplate.sol\":6974:7020  ExpectedAuthorUpdated(previousAuthor, _author) */\n      0xffffffffffffffffffffffffffffffffffffffff\n      and\n      0x3321cda85c145617e47418aa14255e9dcbec53a753778e57591703b89a3cad31\n      mload(0x40)\n      mload(0x40)\n      dup1\n      swap2\n      sub\n      swap1\n      log3\n        /* \"contracts/ReceiverTemplate.sol\":6881:7026  {... */\n      pop\n        /* \"contracts/ReceiverTemplate.sol\":6808:7026  function setExpectedAuthor(... */\n      pop\n      jump\t// out\n        /* \"contracts/ReceiverTemplate.sol\":6222:6650  function setForwarderAddress(... */\n    tag_78:\n        /* \"@openzeppelin/contracts/access/Ownable.sol\":1531:1544  _checkOwner() */\n      tag_183\n        /* \"@openzeppelin/contracts/access/Ownable.sol\":1531:1542  _checkOwner */\n      tag_108\n        /* \"@openzeppelin/contracts/access/Ownable.sol\":1531:1544  _checkOwner() */\n      jump\t// in\n    tag_183:\n        /* \"contracts/ReceiverTemplate.sol\":6307:6332  address previousForwarder */\n      0x00\n        /* \"contracts/ReceiverTemplate.sol\":6335:6353  s_forwarderAddress */\n      0x01\n      0x00\n      swap1\n      sload\n      swap1\n      0x0100\n      exp\n      swap1\n      div\n      0xffffffffffffffffffffffffffffffffffffffff\n      and\n        /* \"contracts/ReceiverTemplate.sol\":6307:6353  address previousForwarder = s_forwarderAddress */\n      swap1\n      pop\n        /* \"contracts/ReceiverTemplate.sol\":6438:6439  0 */\n      0x00\n        /* \"contracts/ReceiverTemplate.sol\":6416:6440  _forwarder == address(0) */\n      0xffffffffffffffffffffffffffffffffffffffff\n      and\n        /* \"contracts/ReceiverTemplate.sol\":6416:6426  _forwarder */\n      dup3\n        /* \"contracts/ReceiverTemplate.sol\":6416:6440  _forwarder == address(0) */\n      0xffffffffffffffffffffffffffffffffffffffff\n      and\n      sub\n        /* \"contracts/ReceiverTemplate.sol\":6412:6539  if (_forwarder == address(0)) {... */\n      tag_185\n      jumpi\n        /* \"contracts/ReceiverTemplate.sol\":6456:6531  SecurityWarning(\"Forwarder address set to zero - contract is now INSECURE\") */\n      0x704da7db165c79c1e33d542c079333bbde970a733032d2f95fec8fb7d770cbf7\n      mload(0x40)\n      tag_186\n      swap1\n      tag_187\n      jump\t// in\n    tag_186:\n      mload(0x40)\n      dup1\n      swap2\n      sub\n      swap1\n      log1\n        /* \"contracts/ReceiverTemplate.sol\":6412:6539  if (_forwarder == address(0)) {... */\n    tag_185:\n        /* \"contracts/ReceiverTemplate.sol\":6568:6578  _forwarder */\n      dup2\n        /* \"contracts/ReceiverTemplate.sol\":6547:6565  s_forwarderAddress */\n      0x01\n      0x00\n        /* \"contracts/ReceiverTemplate.sol\":6547:6578  s_forwarderAddress = _forwarder */\n      0x0100\n      exp\n      dup2\n      sload\n      dup2\n      0xffffffffffffffffffffffffffffffffffffffff\n      mul\n      not\n      and\n      swap1\n      dup4\n      0xffffffffffffffffffffffffffffffffffffffff\n      and\n      mul\n      or\n      swap1\n      sstore\n      pop\n        /* \"contracts/ReceiverTemplate.sol\":6633:6643  _forwarder */\n      dup2\n        /* \"contracts/ReceiverTemplate.sol\":6590:6644  ForwarderAddressUpdated(previousForwarder, _forwarder) */\n      0xffffffffffffffffffffffffffffffffffffffff\n      and\n        /* \"contracts/ReceiverTemplate.sol\":6614:6631  previousForwarder */\n      dup2\n        /* \"contracts/ReceiverTemplate.sol\":6590:6644  ForwarderAddressUpdated(previousForwarder, _forwarder) */\n      0xffffffffffffffffffffffffffffffffffffffff\n      and\n      0x039ad854736757070884dd787ef1a7f58db33546639d1f3efddcf4a33fb8997e\n      mload(0x40)\n      mload(0x40)\n      dup1\n      swap2\n      sub\n      swap1\n      log3\n        /* \"contracts/ReceiverTemplate.sol\":6300:6650  {... */\n      pop\n        /* \"contracts/ReceiverTemplate.sol\":6222:6650  function setForwarderAddress(... */\n      pop\n      jump\t// out\n        /* \"@openzeppelin/contracts/access/Ownable.sol\":2543:2758  function transferOwnership(address newOwner) public virtual onlyOwner {... */\n    tag_81:\n        /* \"@openzeppelin/contracts/access/Ownable.sol\":1531:1544  _checkOwner() */\n      tag_189\n        /* \"@openzeppelin/contracts/access/Ownable.sol\":1531:1542  _checkOwner */\n      tag_108\n        /* \"@openzeppelin/contracts/access/Ownable.sol\":1531:1544  _checkOwner() */\n      jump\t// in\n    tag_189:\n        /* \"@openzeppelin/contracts/access/Ownable.sol\":2647:2648  0 */\n      0x00\n        /* \"@openzeppelin/contracts/access/Ownable.sol\":2627:2649  newOwner == address(0) */\n      0xffffffffffffffffffffffffffffffffffffffff\n      and\n        /* \"@openzeppelin/contracts/access/Ownable.sol\":2627:2635  newOwner */\n      dup2\n        /* \"@openzeppelin/contracts/access/Ownable.sol\":2627:2649  newOwner == address(0) */\n      0xffffffffffffffffffffffffffffffffffffffff\n      and\n      sub\n        /* \"@openzeppelin/contracts/access/Ownable.sol\":2623:2714  if (newOwner == address(0)) {... */\n      tag_191\n      jumpi\n        /* \"@openzeppelin/contracts/access/Ownable.sol\":2700:2701  0 */\n      0x00\n        /* \"@openzeppelin/contracts/access/Ownable.sol\":2672:2703  OwnableInvalidOwner(address(0)) */\n      mload(0x40)\n      0x1e4fbdf700000000000000000000000000000000000000000000000000000000\n      dup2\n      mstore\n      0x04\n      add\n      tag_192\n      swap2\n      swap1\n      tag_36\n      jump\t// in\n    tag_192:\n      mload(0x40)\n      dup1\n      swap2\n      sub\n      swap1\n      revert\n        /* \"@openzeppelin/contracts/access/Ownable.sol\":2623:2714  if (newOwner == address(0)) {... */\n    tag_191:\n        /* \"@openzeppelin/contracts/access/Ownable.sol\":2723:2751  _transferOwnership(newOwner) */\n      tag_193\n        /* \"@openzeppelin/contracts/access/Ownable.sol\":2742:2750  newOwner */\n      dup2\n        /* \"@openzeppelin/contracts/access/Ownable.sol\":2723:2741  _transferOwnership */\n      tag_111\n        /* \"@openzeppelin/contracts/access/Ownable.sol\":2723:2751  _transferOwnership(newOwner) */\n      jump\t// in\n    tag_193:\n        /* \"@openzeppelin/contracts/access/Ownable.sol\":2543:2758  function transferOwnership(address newOwner) public virtual onlyOwner {... */\n      pop\n      jump\t// out\n        /* \"contracts/ReceiverTemplate.sol\":3450:3555  function getExpectedWorkflowId() external view returns (bytes32) {... */\n    tag_83:\n        /* \"contracts/ReceiverTemplate.sol\":3506:3513  bytes32 */\n      0x00\n        /* \"contracts/ReceiverTemplate.sol\":3529:3549  s_expectedWorkflowId */\n      sload(0x03)\n        /* \"contracts/ReceiverTemplate.sol\":3522:3549  return s_expectedWorkflowId */\n      swap1\n      pop\n        /* \"contracts/ReceiverTemplate.sol\":3450:3555  function getExpectedWorkflowId() external view returns (bytes32) {... */\n      swap1\n      jump\t// out\n        /* \"contracts/ReceiverTemplate.sol\":10820:11027  function supportsInterface(... */\n    tag_88:\n        /* \"contracts/ReceiverTemplate.sol\":10915:10919  bool */\n      0x00\n        /* \"contracts/ReceiverTemplate.sol\":10950:10977  type(IReceiver).interfaceId */\n      0x805f213200000000000000000000000000000000000000000000000000000000\n        /* \"contracts/ReceiverTemplate.sol\":10935:10977  interfaceId == type(IReceiver).interfaceId */\n      not(0xffffffffffffffffffffffffffffffffffffffffffffffffffffffff)\n      and\n        /* \"contracts/ReceiverTemplate.sol\":10935:10946  interfaceId */\n      dup3\n        /* \"contracts/ReceiverTemplate.sol\":10935:10977  interfaceId == type(IReceiver).interfaceId */\n      not(0xffffffffffffffffffffffffffffffffffffffffffffffffffffffff)\n      and\n      eq\n        /* \"contracts/ReceiverTemplate.sol\":10935:11021  interfaceId == type(IReceiver).interfaceId || interfaceId == type(IERC165).interfaceId */\n      dup1\n      tag_196\n      jumpi\n      pop\n        /* \"contracts/ReceiverTemplate.sol\":10996:11021  type(IERC165).interfaceId */\n      0x01ffc9a700000000000000000000000000000000000000000000000000000000\n        /* \"contracts/ReceiverTemplate.sol\":10981:11021  interfaceId == type(IERC165).interfaceId */\n      not(0xffffffffffffffffffffffffffffffffffffffffffffffffffffffff)\n      and\n        /* \"contracts/ReceiverTemplate.sol\":10981:10992  interfaceId */\n      dup3\n        /* \"contracts/ReceiverTemplate.sol\":10981:11021  interfaceId == type(IERC165).interfaceId */\n      not(0xffffffffffffffffffffffffffffffffffffffffffffffffffffffff)\n      and\n      eq\n        /* \"contracts/ReceiverTemplate.sol\":10935:11021  interfaceId == type(IReceiver).interfaceId || interfaceId == type(IERC165).interfaceId */\n    tag_196:\n        /* \"contracts/ReceiverTemplate.sol\":10928:11021  return interfaceId == type(IReceiver).interfaceId || interfaceId == type(IERC165).interfaceId */\n      swap1\n      pop\n        /* \"contracts/ReceiverTemplate.sol\":10820:11027  function supportsInterface(... */\n      swap2\n      swap1\n      pop\n      jump\t// out\n        /* \"@openzeppelin/contracts/access/Ownable.sol\":1796:1958  function _checkOwner() internal view virtual {... */\n    tag_108:\n        /* \"@openzeppelin/contracts/access/Ownable.sol\":1866:1878  _msgSender() */\n      tag_198\n        /* \"@openzeppelin/contracts/access/Ownable.sol\":1866:1876  _msgSender */\n      tag_199\n        /* \"@openzeppelin/contracts/access/Ownable.sol\":1866:1878  _msgSender() */\n      jump\t// in\n    tag_198:\n        /* \"@openzeppelin/contracts/access/Ownable.sol\":1855:1878  owner() != _msgSender() */\n      0xffffffffffffffffffffffffffffffffffffffff\n      and\n        /* \"@openzeppelin/contracts/access/Ownable.sol\":1855:1862  owner() */\n      tag_200\n        /* \"@openzeppelin/contracts/access/Ownable.sol\":1855:1860  owner */\n      tag_55\n        /* \"@openzeppelin/contracts/access/Ownable.sol\":1855:1862  owner() */\n      jump\t// in\n    tag_200:\n        /* \"@openzeppelin/contracts/access/Ownable.sol\":1855:1878  owner() != _msgSender() */\n      0xffffffffffffffffffffffffffffffffffffffff\n      and\n      eq\n        /* \"@openzeppelin/contracts/access/Ownable.sol\":1851:1952  if (owner() != _msgSender()) {... */\n      tag_201\n      jumpi\n        /* \"@openzeppelin/contracts/access/Ownable.sol\":1928:1940  _msgSender() */\n      tag_202\n        /* \"@openzeppelin/contracts/access/Ownable.sol\":1928:1938  _msgSender */\n      tag_199\n        /* \"@openzeppelin/contracts/access/Ownable.sol\":1928:1940  _msgSender() */\n      jump\t// in\n    tag_202:\n        /* \"@openzeppelin/contracts/access/Ownable.sol\":1901:1941  OwnableUnauthorizedAccount(_msgSender()) */\n      mload(0x40)\n      0x118cdaa700000000000000000000000000000000000000000000000000000000\n      dup2\n      mstore\n      0x04\n      add\n      tag_203\n      swap2\n      swap1\n      tag_36\n      jump\t// in\n    tag_203:\n      mload(0x40)\n      dup1\n      swap2\n      sub\n      swap1\n      revert\n        /* \"@openzeppelin/contracts/access/Ownable.sol\":1851:1952  if (owner() != _msgSender()) {... */\n    tag_201:\n        /* \"@openzeppelin/contracts/access/Ownable.sol\":1796:1958  function _checkOwner() internal view virtual {... */\n      jump\t// out\n        /* \"@openzeppelin/contracts/access/Ownable.sol\":2912:3099  function _transferOwnership(address newOwner) internal virtual {... */\n    tag_111:\n        /* \"@openzeppelin/contracts/access/Ownable.sol\":2985:3001  address oldOwner */\n      0x00\n        /* \"@openzeppelin/contracts/access/Ownable.sol\":3004:3010  _owner */\n      0x00\n      0x00\n      swap1\n      sload\n      swap1\n      0x0100\n      exp\n      swap1\n      div\n      0xffffffffffffffffffffffffffffffffffffffff\n      and\n        /* \"@openzeppelin/contracts/access/Ownable.sol\":2985:3010  address oldOwner = _owner */\n      swap1\n      pop\n        /* \"@openzeppelin/contracts/access/Ownable.sol\":3029:3037  newOwner */\n      dup2\n        /* \"@openzeppelin/contracts/access/Ownable.sol\":3020:3026  _owner */\n      0x00\n      0x00\n        /* \"@openzeppelin/contracts/access/Ownable.sol\":3020:3037  _owner = newOwner */\n      0x0100\n      exp\n      dup2\n      sload\n      dup2\n      0xffffffffffffffffffffffffffffffffffffffff\n      mul\n      not\n      and\n      swap1\n      dup4\n      0xffffffffffffffffffffffffffffffffffffffff\n      and\n      mul\n      or\n      swap1\n      sstore\n      pop\n        /* \"@openzeppelin/contracts/access/Ownable.sol\":3083:3091  newOwner */\n      dup2\n        /* \"@openzeppelin/contracts/access/Ownable.sol\":3052:3092  OwnershipTransferred(oldOwner, newOwner) */\n      0xffffffffffffffffffffffffffffffffffffffff\n      and\n        /* \"@openzeppelin/contracts/access/Ownable.sol\":3073:3081  oldOwner */\n      dup2\n        /* \"@openzeppelin/contracts/access/Ownable.sol\":3052:3092  OwnershipTransferred(oldOwner, newOwner) */\n      0xffffffffffffffffffffffffffffffffffffffff\n      and\n      0x8be0079c531659141344cd1fd0a4f28419497f9722a3daafe3b4186f6b6457e0\n      mload(0x40)\n      mload(0x40)\n      dup1\n      swap2\n      sub\n      swap1\n      log3\n        /* \"@openzeppelin/contracts/access/Ownable.sol\":2975:3099  {... */\n      pop\n        /* \"@openzeppelin/contracts/access/Ownable.sol\":2912:3099  function _transferOwnership(address newOwner) internal virtual {... */\n      pop\n      jump\t// out\n        /* \"contracts/ReceiverTemplate.sol\":9785:10494  function _decodeMetadata(... */\n    tag_121:\n        /* \"contracts/ReceiverTemplate.sol\":9866:9884  bytes32 workflowId */\n      0x00\n        /* \"contracts/ReceiverTemplate.sol\":9886:9906  bytes10 workflowName */\n      0x00\n        /* \"contracts/ReceiverTemplate.sol\":9908:9929  address workflowOwner */\n      0x00\n        /* \"contracts/ReceiverTemplate.sol\":10309:10311  32 */\n      0x20\n        /* \"contracts/ReceiverTemplate.sol\":10299:10307  metadata */\n      dup5\n        /* \"contracts/ReceiverTemplate.sol\":10295:10312  add(metadata, 32) */\n      add\n        /* \"contracts/ReceiverTemplate.sol\":10289:10313  mload(add(metadata, 32)) */\n      mload\n        /* \"contracts/ReceiverTemplate.sol\":10275:10313  workflowId := mload(add(metadata, 32)) */\n      swap3\n      pop\n        /* \"contracts/ReceiverTemplate.sol\":10357:10359  64 */\n      0x40\n        /* \"contracts/ReceiverTemplate.sol\":10347:10355  metadata */\n      dup5\n        /* \"contracts/ReceiverTemplate.sol\":10343:10360  add(metadata, 64) */\n      add\n        /* \"contracts/ReceiverTemplate.sol\":10337:10361  mload(add(metadata, 64)) */\n      mload\n        /* \"contracts/ReceiverTemplate.sol\":10321:10361  workflowName := mload(add(metadata, 64)) */\n      swap2\n      pop\n        /* \"contracts/ReceiverTemplate.sol\":10422:10424  74 */\n      0x4a\n        /* \"contracts/ReceiverTemplate.sol\":10412:10420  metadata */\n      dup5\n        /* \"contracts/ReceiverTemplate.sol\":10408:10425  add(metadata, 74) */\n      add\n        /* \"contracts/ReceiverTemplate.sol\":10402:10426  mload(add(metadata, 74)) */\n      mload\n        /* \"contracts/ReceiverTemplate.sol\":10398:10399  8 */\n      0x08\n        /* \"contracts/ReceiverTemplate.sol\":10394:10396  12 */\n      0x0c\n        /* \"contracts/ReceiverTemplate.sol\":10390:10400  mul(12, 8) */\n      mul\n        /* \"contracts/ReceiverTemplate.sol\":10386:10427  shr(mul(12, 8), mload(add(metadata, 74))) */\n      shr\n        /* \"contracts/ReceiverTemplate.sol\":10369:10427  workflowOwner := shr(mul(12, 8), mload(add(metadata, 74))) */\n      swap1\n      pop\n        /* \"contracts/ReceiverTemplate.sol\":9785:10494  function _decodeMetadata(... */\n      swap2\n      swap4\n      swap1\n      swap3\n      pop\n      jump\t// out\n        /* \"contracts/token.sol\":1940:2144  function _processReport(bytes calldata report) internal override {... */\n    tag_135:\n        /* \"contracts/token.sol\":2017:2034  address recipient */\n      0x00\n        /* \"contracts/token.sol\":2036:2050  uint256 amount */\n      0x00\n        /* \"contracts/token.sol\":2065:2071  report */\n      dup4\n      dup4\n        /* \"contracts/token.sol\":2054:2092  abi.decode(report, (address, uint256)) */\n      dup2\n      add\n      swap1\n      tag_207\n      swap2\n      swap1\n      tag_208\n      jump\t// in\n    tag_207:\n        /* \"contracts/token.sol\":2016:2092  (address recipient, uint256 amount) = abi.decode(report, (address, uint256)) */\n      swap2\n      pop\n      swap2\n      pop\n        /* \"contracts/token.sol\":2103:2136  _executePayout(recipient, amount) */\n      tag_209\n        /* \"contracts/token.sol\":2118:2127  recipient */\n      dup3\n        /* \"contracts/token.sol\":2129:2135  amount */\n      dup3\n        /* \"contracts/token.sol\":2103:2117  _executePayout */\n      tag_210\n        /* \"contracts/token.sol\":2103:2136  _executePayout(recipient, amount) */\n      jump\t// in\n    tag_209:\n        /* \"contracts/token.sol\":2005:2144  {... */\n      pop\n      pop\n        /* \"contracts/token.sol\":1940:2144  function _processReport(bytes calldata report) internal override {... */\n      pop\n      pop\n      jump\t// out\n        /* \"contracts/token.sol\":2284:2665  function _ccipReceive(Client.Any2EVMMessage memory message) internal override {... */\n    tag_144:\n        /* \"contracts/token.sol\":2424:2441  address recipient */\n      0x00\n        /* \"contracts/token.sol\":2455:2462  message */\n      dup2\n        /* \"contracts/token.sol\":2455:2467  message.data */\n      0x60\n      add\n      mload\n        /* \"contracts/token.sol\":2444:2479  abi.decode(message.data, (address)) */\n      dup1\n      0x20\n      add\n      swap1\n      mload\n      dup2\n      add\n      swap1\n      tag_212\n      swap2\n      swap1\n      tag_213\n      jump\t// in\n    tag_212:\n        /* \"contracts/token.sol\":2424:2479  address recipient = abi.decode(message.data, (address)) */\n      swap1\n      pop\n        /* \"contracts/token.sol\":2552:2566  uint256 amount */\n      0x00\n        /* \"contracts/token.sol\":2569:2576  message */\n      dup3\n        /* \"contracts/token.sol\":2569:2593  message.destTokenAmounts */\n      0x80\n      add\n      mload\n        /* \"contracts/token.sol\":2594:2595  0 */\n      0x00\n        /* \"contracts/token.sol\":2569:2596  message.destTokenAmounts[0] */\n      dup2\n      mload\n      dup2\n      lt\n      tag_214\n      jumpi\n      tag_215\n      tag_171\n      jump\t// in\n    tag_215:\n    tag_214:\n      0x20\n      mul\n      0x20\n      add\n      add\n      mload\n        /* \"contracts/token.sol\":2569:2603  message.destTokenAmounts[0].amount */\n      0x20\n      add\n      mload\n        /* \"contracts/token.sol\":2552:2603  uint256 amount = message.destTokenAmounts[0].amount */\n      swap1\n      pop\n        /* \"contracts/token.sol\":2624:2657  _executePayout(recipient, amount) */\n      tag_216\n        /* \"contracts/token.sol\":2639:2648  recipient */\n      dup3\n        /* \"contracts/token.sol\":2650:2656  amount */\n      dup3\n        /* \"contracts/token.sol\":2624:2638  _executePayout */\n      tag_210\n        /* \"contracts/token.sol\":2624:2657  _executePayout(recipient, amount) */\n      jump\t// in\n    tag_216:\n        /* \"contracts/token.sol\":2362:2665  {... */\n      pop\n      pop\n        /* \"contracts/token.sol\":2284:2665  function _ccipReceive(Client.Any2EVMMessage memory message) internal override {... */\n      pop\n      jump\t// out\n        /* \"contracts/ReceiverTemplate.sol\":9023:9384  function _bytesToHexString(... */\n    tag_161:\n        /* \"contracts/ReceiverTemplate.sol\":9101:9113  bytes memory */\n      0x60\n        /* \"contracts/ReceiverTemplate.sol\":9122:9144  bytes memory hexString */\n      0x00\n        /* \"contracts/ReceiverTemplate.sol\":9171:9172  2 */\n      0x02\n        /* \"contracts/ReceiverTemplate.sol\":9157:9161  data */\n      dup4\n        /* \"contracts/ReceiverTemplate.sol\":9157:9168  data.length */\n      mload\n        /* \"contracts/ReceiverTemplate.sol\":9157:9172  data.length * 2 */\n      tag_218\n      swap2\n      swap1\n      tag_219\n      jump\t// in\n    tag_218:\n        /* \"contracts/ReceiverTemplate.sol\":9147:9173  new bytes(data.length * 2) */\n      0xffffffffffffffff\n      dup2\n      gt\n      iszero\n      tag_220\n      jumpi\n      tag_221\n      tag_164\n      jump\t// in\n    tag_221:\n    tag_220:\n      mload(0x40)\n      swap1\n      dup1\n      dup3\n      mstore\n      dup1\n      0x1f\n      add\n      not(0x1f)\n      and\n      0x20\n      add\n      dup3\n      add\n      0x40\n      mstore\n      dup1\n      iszero\n      tag_222\n      jumpi\n      dup2\n      0x20\n      add\n      0x01\n      dup3\n      mul\n      dup1\n      calldatasize\n      dup4\n      calldatacopy\n      dup1\n      dup3\n      add\n      swap2\n      pop\n      pop\n      swap1\n      pop\n    tag_222:\n      pop\n        /* \"contracts/ReceiverTemplate.sol\":9122:9173  bytes memory hexString = new bytes(data.length * 2) */\n      swap1\n      pop\n        /* \"contracts/ReceiverTemplate.sol\":9187:9196  uint256 i */\n      0x00\n        /* \"contracts/ReceiverTemplate.sol\":9199:9200  0 */\n      0x00\n        /* \"contracts/ReceiverTemplate.sol\":9187:9200  uint256 i = 0 */\n      swap1\n      pop\n        /* \"contracts/ReceiverTemplate.sol\":9182:9354  for (uint256 i = 0; i < data.length; i++) {... */\n    tag_223:\n        /* \"contracts/ReceiverTemplate.sol\":9206:9210  data */\n      dup4\n        /* \"contracts/ReceiverTemplate.sol\":9206:9217  data.length */\n      mload\n        /* \"contracts/ReceiverTemplate.sol\":9202:9203  i */\n      dup2\n        /* \"contracts/ReceiverTemplate.sol\":9202:9217  i < data.length */\n      lt\n        /* \"contracts/ReceiverTemplate.sol\":9182:9354  for (uint256 i = 0; i < data.length; i++) {... */\n      iszero\n      tag_224\n      jumpi\n        /* \"contracts/ReceiverTemplate.sol\":9252:9261  HEX_CHARS */\n      mload(0x40)\n      dup1\n      0x40\n      add\n      0x40\n      mstore\n      dup1\n      0x10\n      dup2\n      mstore\n      0x20\n      add\n      0x3031323334353637383961626364656600000000000000000000000000000000\n      dup2\n      mstore\n      pop\n        /* \"contracts/ReceiverTemplate.sol\":9279:9280  4 */\n      0x04\n        /* \"contracts/ReceiverTemplate.sol\":9268:9272  data */\n      dup6\n        /* \"contracts/ReceiverTemplate.sol\":9273:9274  i */\n      dup4\n        /* \"contracts/ReceiverTemplate.sol\":9268:9275  data[i] */\n      dup2\n      mload\n      dup2\n      lt\n      tag_226\n      jumpi\n      tag_227\n      tag_171\n      jump\t// in\n    tag_227:\n    tag_226:\n      0x20\n      add\n      add\n      mload\n      0xf8\n      shr\n      0xf8\n      shl\n        /* \"contracts/ReceiverTemplate.sol\":9268:9280  data[i] >> 4 */\n      not(0xffffffffffffffffffffffffffffffffffffffffffffffffffffffffffffff)\n      and\n      swap1\n      shr\n        /* \"contracts/ReceiverTemplate.sol\":9262:9281  uint8(data[i] >> 4) */\n      0xf8\n      shr\n        /* \"contracts/ReceiverTemplate.sol\":9252:9282  HEX_CHARS[uint8(data[i] >> 4)] */\n      0xff\n      and\n      dup2\n      mload\n      dup2\n      lt\n      tag_228\n      jumpi\n      tag_229\n      tag_171\n      jump\t// in\n    tag_229:\n    tag_228:\n      0x20\n      add\n      add\n      mload\n      0xf8\n      shr\n      0xf8\n      shl\n        /* \"contracts/ReceiverTemplate.sol\":9233:9242  hexString */\n      dup3\n        /* \"contracts/ReceiverTemplate.sol\":9247:9248  2 */\n      0x02\n        /* \"contracts/ReceiverTemplate.sol\":9243:9244  i */\n      dup4\n        /* \"contracts/ReceiverTemplate.sol\":9243:9248  i * 2 */\n      tag_230\n      swap2\n      swap1\n      tag_219\n      jump\t// in\n    tag_230:\n        /* \"contracts/ReceiverTemplate.sol\":9233:9249  hexString[i * 2] */\n      dup2\n      mload\n      dup2\n      lt\n      tag_231\n      jumpi\n      tag_232\n      tag_171\n      jump\t// in\n    tag_232:\n    tag_231:\n      0x20\n      add\n      add\n        /* \"contracts/ReceiverTemplate.sol\":9233:9282  hexString[i * 2] = HEX_CHARS[uint8(data[i] >> 4)] */\n      swap1\n      not(0xffffffffffffffffffffffffffffffffffffffffffffffffffffffffffffff)\n      and\n      swap1\n      dup2\n      0x00\n      byte\n      swap1\n      mstore8\n      pop\n        /* \"contracts/ReceiverTemplate.sol\":9314:9323  HEX_CHARS */\n      mload(0x40)\n      dup1\n      0x40\n      add\n      0x40\n      mstore\n      dup1\n      0x10\n      dup2\n      mstore\n      0x20\n      add\n      0x3031323334353637383961626364656600000000000000000000000000000000\n      dup2\n      mstore\n      pop\n        /* \"contracts/ReceiverTemplate.sol\":9340:9344  0x0f */\n      0x0f\n        /* \"contracts/ReceiverTemplate.sol\":9330:9344  data[i] & 0x0f */\n      0xf8\n      shl\n        /* \"contracts/ReceiverTemplate.sol\":9330:9334  data */\n      dup6\n        /* \"contracts/ReceiverTemplate.sol\":9335:9336  i */\n      dup4\n        /* \"contracts/ReceiverTemplate.sol\":9330:9337  data[i] */\n      dup2\n      mload\n      dup2\n      lt\n      tag_233\n      jumpi\n      tag_234\n      tag_171\n      jump\t// in\n    tag_234:\n    tag_233:\n      0x20\n      add\n      add\n      mload\n      0xf8\n      shr\n      0xf8\n      shl\n        /* \"contracts/ReceiverTemplate.sol\":9330:9344  data[i] & 0x0f */\n      and\n        /* \"contracts/ReceiverTemplate.sol\":9324:9345  uint8(data[i] & 0x0f) */\n      0xf8\n      shr\n        /* \"contracts/ReceiverTemplate.sol\":9314:9346  HEX_CHARS[uint8(data[i] & 0x0f)] */\n      0xff\n      and\n      dup2\n      mload\n      dup2\n      lt\n      tag_235\n      jumpi\n      tag_236\n      tag_171\n      jump\t// in\n    tag_236:\n    tag_235:\n      0x20\n      add\n      add\n      mload\n      0xf8\n      shr\n      0xf8\n      shl\n        /* \"contracts/ReceiverTemplate.sol\":9291:9300  hexString */\n      dup3\n        /* \"contracts/ReceiverTemplate.sol\":9309:9310  1 */\n      0x01\n        /* \"contracts/ReceiverTemplate.sol\":9305:9306  2 */\n      0x02\n        /* \"contracts/ReceiverTemplate.sol\":9301:9302  i */\n      dup5\n        /* \"contracts/ReceiverTemplate.sol\":9301:9306  i * 2 */\n      tag_237\n      swap2\n      swap1\n      tag_219\n      jump\t// in\n    tag_237:\n        /* \"contracts/ReceiverTemplate.sol\":9301:9310  i * 2 + 1 */\n      tag_238\n      swap2\n      swap1\n      tag_239\n      jump\t// in\n    tag_238:\n        /* \"contracts/ReceiverTemplate.sol\":9291:9311  hexString[i * 2 + 1] */\n      dup2\n      mload\n      dup2\n      lt\n      tag_240\n      jumpi\n      tag_241\n      tag_171\n      jump\t// in\n    tag_241:\n    tag_240:\n      0x20\n      add\n      add\n        /* \"contracts/ReceiverTemplate.sol\":9291:9346  hexString[i * 2 + 1] = HEX_CHARS[uint8(data[i] & 0x0f)] */\n      swap1\n      not(0xffffffffffffffffffffffffffffffffffffffffffffffffffffffffffffff)\n      and\n      swap1\n      dup2\n      0x00\n      byte\n      swap1\n      mstore8\n      pop\n        /* \"contracts/ReceiverTemplate.sol\":9219:9222  i++ */\n      dup1\n      dup1\n      0x01\n      add\n      swap2\n      pop\n      pop\n        /* \"contracts/ReceiverTemplate.sol\":9182:9354  for (uint256 i = 0; i < data.length; i++) {... */\n      jump(tag_223)\n    tag_224:\n      pop\n        /* \"contracts/ReceiverTemplate.sol\":9369:9378  hexString */\n      dup1\n        /* \"contracts/ReceiverTemplate.sol\":9362:9378  return hexString */\n      swap2\n      pop\n      pop\n        /* \"contracts/ReceiverTemplate.sol\":9023:9384  function _bytesToHexString(... */\n      swap2\n      swap1\n      pop\n      jump\t// out\n        /* \"@openzeppelin/contracts/utils/Context.sol\":656:752  function _msgSender() internal view virtual returns (address) {... */\n    tag_199:\n        /* \"@openzeppelin/contracts/utils/Context.sol\":709:716  address */\n      0x00\n        /* \"@openzeppelin/contracts/utils/Context.sol\":735:745  msg.sender */\n      caller\n        /* \"@openzeppelin/contracts/utils/Context.sol\":728:745  return msg.sender */\n      swap1\n      pop\n        /* \"@openzeppelin/contracts/utils/Context.sol\":656:752  function _msgSender() internal view virtual returns (address) {... */\n      swap1\n      jump\t// out\n        /* \"contracts/token.sol\":2721:2991  function _executePayout(address _recipient, uint256 _amount) internal {... */\n    tag_210:\n        /* \"contracts/token.sol\":2832:2833  0 */\n      0x00\n        /* \"contracts/token.sol\":2810:2834  _recipient != address(0) */\n      0xffffffffffffffffffffffffffffffffffffffff\n      and\n        /* \"contracts/token.sol\":2810:2820  _recipient */\n      dup3\n        /* \"contracts/token.sol\":2810:2834  _recipient != address(0) */\n      0xffffffffffffffffffffffffffffffffffffffff\n      and\n      sub\n        /* \"contracts/token.sol\":2802:2861  require(_recipient != address(0), \"Shadow: zero recipient\") */\n      tag_244\n      jumpi\n      mload(0x40)\n      0x08c379a000000000000000000000000000000000000000000000000000000000\n      dup2\n      mstore\n      0x04\n      add\n      tag_245\n      swap1\n      tag_246\n      jump\t// in\n    tag_245:\n      mload(0x40)\n      dup1\n      swap2\n      sub\n      swap1\n      revert\n    tag_244:\n        /* \"contracts/token.sol\":2880:2884  usdc */\n      immutable(\"0x94b72f6d5810c90c68ea7d7f52a48aba033cd0249ea1144a4588f2256d6f57ff\")\n        /* \"contracts/token.sol\":2880:2893  usdc.transfer */\n      0xffffffffffffffffffffffffffffffffffffffff\n      and\n      0xa9059cbb\n        /* \"contracts/token.sol\":2894:2904  _recipient */\n      dup4\n        /* \"contracts/token.sol\":2906:2913  _amount */\n      dup4\n        /* \"contracts/token.sol\":2880:2914  usdc.transfer(_recipient, _amount) */\n      mload(0x40)\n      dup4\n      0xffffffff\n      and\n      0xe0\n      shl\n      dup2\n      mstore\n      0x04\n      add\n      tag_247\n      swap3\n      swap2\n      swap1\n      tag_248\n      jump\t// in\n    tag_247:\n      0x20\n      mload(0x40)\n      dup1\n      dup4\n      sub\n      dup2\n      0x00\n      dup8\n      gas\n      call\n      iszero\n      dup1\n      iszero\n      tag_250\n      jumpi\n      returndatacopy(0x00, 0x00, returndatasize)\n      revert(0x00, returndatasize)\n    tag_250:\n      pop\n      pop\n      pop\n      pop\n      mload(0x40)\n      returndatasize\n      not(0x1f)\n      0x1f\n      dup3\n      add\n      and\n      dup3\n      add\n      dup1\n      0x40\n      mstore\n      pop\n      dup2\n      add\n      swap1\n      tag_251\n      swap2\n      swap1\n      tag_98\n      jump\t// in\n    tag_251:\n        /* \"contracts/token.sol\":2872:2932  require(usdc.transfer(_recipient, _amount), \"Payout failed\") */\n      tag_252\n      jumpi\n      mload(0x40)\n      0x08c379a000000000000000000000000000000000000000000000000000000000\n      dup2\n      mstore\n      0x04\n      add\n      tag_253\n      swap1\n      tag_254\n      jump\t// in\n    tag_253:\n      mload(0x40)\n      dup1\n      swap2\n      sub\n      swap1\n      revert\n    tag_252:\n        /* \"contracts/token.sol\":2963:2973  _recipient */\n      dup2\n        /* \"contracts/token.sol\":2948:2983  ShieldedPayout(_recipient, _amount) */\n      0xffffffffffffffffffffffffffffffffffffffff\n      and\n      0x0f406fe54e7c193e129427f5d405f4b20ed911c3a00285118711b015cd0d1414\n        /* \"contracts/token.sol\":2975:2982  _amount */\n      dup3\n        /* \"contracts/token.sol\":2948:2983  ShieldedPayout(_recipient, _amount) */\n      mload(0x40)\n      tag_255\n      swap2\n      swap1\n      tag_256\n      jump\t// in\n    tag_255:\n      mload(0x40)\n      dup1\n      swap2\n      sub\n      swap1\n      log2\n        /* \"contracts/token.sol\":2721:2991  function _executePayout(address _recipient, uint256 _amount) internal {... */\n      pop\n      pop\n      jump\t// out\n        /* \"#utility.yul\":7:82   */\n    tag_257:\n        /* \"#utility.yul\":40:46   */\n      0x00\n        /* \"#utility.yul\":73:75   */\n      0x40\n        /* \"#utility.yul\":67:76   */\n      mload\n        /* \"#utility.yul\":57:76   */\n      swap1\n      pop\n        /* \"#utility.yul\":7:82   */\n      swap1\n      jump\t// out\n        /* \"#utility.yul\":88:205   */\n    tag_258:\n        /* \"#utility.yul\":197:198   */\n      0x00\n        /* \"#utility.yul\":194:195   */\n      0x00\n        /* \"#utility.yul\":187:199   */\n      revert\n        /* \"#utility.yul\":211:328   */\n    tag_259:\n        /* \"#utility.yul\":320:321   */\n      0x00\n        /* \"#utility.yul\":317:318   */\n      0x00\n        /* \"#utility.yul\":310:322   */\n      revert\n        /* \"#utility.yul\":334:483   */\n    tag_260:\n        /* \"#utility.yul\":370:377   */\n      0x00\n        /* \"#utility.yul\":410:476   */\n      0xffffffff00000000000000000000000000000000000000000000000000000000\n        /* \"#utility.yul\":403:408   */\n      dup3\n        /* \"#utility.yul\":399:477   */\n      and\n        /* \"#utility.yul\":388:477   */\n      swap1\n      pop\n        /* \"#utility.yul\":334:483   */\n      swap2\n      swap1\n      pop\n      jump\t// out\n        /* \"#utility.yul\":489:609   */\n    tag_261:\n        /* \"#utility.yul\":561:584   */\n      tag_343\n        /* \"#utility.yul\":578:583   */\n      dup2\n        /* \"#utility.yul\":561:584   */\n      tag_260\n      jump\t// in\n    tag_343:\n        /* \"#utility.yul\":554:559   */\n      dup2\n        /* \"#utility.yul\":551:585   */\n      eq\n        /* \"#utility.yul\":541:603   */\n      tag_344\n      jumpi\n        /* \"#utility.yul\":599:600   */\n      0x00\n        /* \"#utility.yul\":596:597   */\n      0x00\n        /* \"#utility.yul\":589:601   */\n      revert\n        /* \"#utility.yul\":541:603   */\n    tag_344:\n        /* \"#utility.yul\":489:609   */\n      pop\n      jump\t// out\n        /* \"#utility.yul\":615:752   */\n    tag_262:\n        /* \"#utility.yul\":660:665   */\n      0x00\n        /* \"#utility.yul\":698:704   */\n      dup2\n        /* \"#utility.yul\":685:705   */\n      calldataload\n        /* \"#utility.yul\":676:705   */\n      swap1\n      pop\n        /* \"#utility.yul\":714:746   */\n      tag_346\n        /* \"#utility.yul\":740:745   */\n      dup2\n        /* \"#utility.yul\":714:746   */\n      tag_261\n      jump\t// in\n    tag_346:\n        /* \"#utility.yul\":615:752   */\n      swap3\n      swap2\n      pop\n      pop\n      jump\t// out\n        /* \"#utility.yul\":758:1085   */\n    tag_25:\n        /* \"#utility.yul\":816:822   */\n      0x00\n        /* \"#utility.yul\":865:867   */\n      0x20\n        /* \"#utility.yul\":853:862   */\n      dup3\n        /* \"#utility.yul\":844:851   */\n      dup5\n        /* \"#utility.yul\":840:863   */\n      sub\n        /* \"#utility.yul\":836:868   */\n      slt\n        /* \"#utility.yul\":833:952   */\n      iszero\n      tag_348\n      jumpi\n        /* \"#utility.yul\":871:950   */\n      tag_349\n      tag_258\n      jump\t// in\n    tag_349:\n        /* \"#utility.yul\":833:952   */\n    tag_348:\n        /* \"#utility.yul\":991:992   */\n      0x00\n        /* \"#utility.yul\":1016:1068   */\n      tag_350\n        /* \"#utility.yul\":1060:1067   */\n      dup5\n        /* \"#utility.yul\":1051:1057   */\n      dup3\n        /* \"#utility.yul\":1040:1049   */\n      dup6\n        /* \"#utility.yul\":1036:1058   */\n      add\n        /* \"#utility.yul\":1016:1068   */\n      tag_262\n      jump\t// in\n    tag_350:\n        /* \"#utility.yul\":1006:1068   */\n      swap2\n      pop\n        /* \"#utility.yul\":962:1078   */\n      pop\n        /* \"#utility.yul\":758:1085   */\n      swap3\n      swap2\n      pop\n      pop\n      jump\t// out\n        /* \"#utility.yul\":1091:1181   */\n    tag_263:\n        /* \"#utility.yul\":1125:1132   */\n      0x00\n        /* \"#utility.yul\":1168:1173   */\n      dup2\n        /* \"#utility.yul\":1161:1174   */\n      iszero\n        /* \"#utility.yul\":1154:1175   */\n      iszero\n        /* \"#utility.yul\":1143:1175   */\n      swap1\n      pop\n        /* \"#utility.yul\":1091:1181   */\n      swap2\n      swap1\n      pop\n      jump\t// out\n        /* \"#utility.yul\":1187:1296   */\n    tag_264:\n        /* \"#utility.yul\":1268:1289   */\n      tag_353\n        /* \"#utility.yul\":1283:1288   */\n      dup2\n        /* \"#utility.yul\":1268:1289   */\n      tag_263\n      jump\t// in\n    tag_353:\n        /* \"#utility.yul\":1263:1266   */\n      dup3\n        /* \"#utility.yul\":1256:1290   */\n      mstore\n        /* \"#utility.yul\":1187:1296   */\n      pop\n      pop\n      jump\t// out\n        /* \"#utility.yul\":1302:1512   */\n    tag_28:\n        /* \"#utility.yul\":1389:1393   */\n      0x00\n        /* \"#utility.yul\":1427:1429   */\n      0x20\n        /* \"#utility.yul\":1416:1425   */\n      dup3\n        /* \"#utility.yul\":1412:1430   */\n      add\n        /* \"#utility.yul\":1404:1430   */\n      swap1\n      pop\n        /* \"#utility.yul\":1440:1505   */\n      tag_355\n        /* \"#utility.yul\":1502:1503   */\n      0x00\n        /* \"#utility.yul\":1491:1500   */\n      dup4\n        /* \"#utility.yul\":1487:1504   */\n      add\n        /* \"#utility.yul\":1478:1484   */\n      dup5\n        /* \"#utility.yul\":1440:1505   */\n      tag_264\n      jump\t// in\n    tag_355:\n        /* \"#utility.yul\":1302:1512   */\n      swap3\n      swap2\n      pop\n      pop\n      jump\t// out\n        /* \"#utility.yul\":1518:1595   */\n    tag_265:\n        /* \"#utility.yul\":1555:1562   */\n      0x00\n        /* \"#utility.yul\":1584:1589   */\n      dup2\n        /* \"#utility.yul\":1573:1589   */\n      swap1\n      pop\n        /* \"#utility.yul\":1518:1595   */\n      swap2\n      swap1\n      pop\n      jump\t// out\n        /* \"#utility.yul\":1601:1723   */\n    tag_266:\n        /* \"#utility.yul\":1674:1698   */\n      tag_358\n        /* \"#utility.yul\":1692:1697   */\n      dup2\n        /* \"#utility.yul\":1674:1698   */\n      tag_265\n      jump\t// in\n    tag_358:\n        /* \"#utility.yul\":1667:1672   */\n      dup2\n        /* \"#utility.yul\":1664:1699   */\n      eq\n        /* \"#utility.yul\":1654:1717   */\n      tag_359\n      jumpi\n        /* \"#utility.yul\":1713:1714   */\n      0x00\n        /* \"#utility.yul\":1710:1711   */\n      0x00\n        /* \"#utility.yul\":1703:1715   */\n      revert\n        /* \"#utility.yul\":1654:1717   */\n    tag_359:\n        /* \"#utility.yul\":1601:1723   */\n      pop\n      jump\t// out\n        /* \"#utility.yul\":1729:1868   */\n    tag_267:\n        /* \"#utility.yul\":1775:1780   */\n      0x00\n        /* \"#utility.yul\":1813:1819   */\n      dup2\n        /* \"#utility.yul\":1800:1820   */\n      calldataload\n        /* \"#utility.yul\":1791:1820   */\n      swap1\n      pop\n        /* \"#utility.yul\":1829:1862   */\n      tag_361\n        /* \"#utility.yul\":1856:1861   */\n      dup2\n        /* \"#utility.yul\":1829:1862   */\n      tag_266\n      jump\t// in\n    tag_361:\n        /* \"#utility.yul\":1729:1868   */\n      swap3\n      swap2\n      pop\n      pop\n      jump\t// out\n        /* \"#utility.yul\":1874:1951   */\n    tag_268:\n        /* \"#utility.yul\":1911:1918   */\n      0x00\n        /* \"#utility.yul\":1940:1945   */\n      dup2\n        /* \"#utility.yul\":1929:1945   */\n      swap1\n      pop\n        /* \"#utility.yul\":1874:1951   */\n      swap2\n      swap1\n      pop\n      jump\t// out\n        /* \"#utility.yul\":1957:2079   */\n    tag_269:\n        /* \"#utility.yul\":2030:2054   */\n      tag_364\n        /* \"#utility.yul\":2048:2053   */\n      dup2\n        /* \"#utility.yul\":2030:2054   */\n      tag_268\n      jump\t// in\n    tag_364:\n        /* \"#utility.yul\":2023:2028   */\n      dup2\n        /* \"#utility.yul\":2020:2055   */\n      eq\n        /* \"#utility.yul\":2010:2073   */\n      tag_365\n      jumpi\n        /* \"#utility.yul\":2069:2070   */\n      0x00\n        /* \"#utility.yul\":2066:2067   */\n      0x00\n        /* \"#utility.yul\":2059:2071   */\n      revert\n        /* \"#utility.yul\":2010:2073   */\n    tag_365:\n        /* \"#utility.yul\":1957:2079   */\n      pop\n      jump\t// out\n        /* \"#utility.yul\":2085:2224   */\n    tag_270:\n        /* \"#utility.yul\":2131:2136   */\n      0x00\n        /* \"#utility.yul\":2169:2175   */\n      dup2\n        /* \"#utility.yul\":2156:2176   */\n      calldataload\n        /* \"#utility.yul\":2147:2176   */\n      swap1\n      pop\n        /* \"#utility.yul\":2185:2218   */\n      tag_367\n        /* \"#utility.yul\":2212:2217   */\n      dup2\n        /* \"#utility.yul\":2185:2218   */\n      tag_269\n      jump\t// in\n    tag_367:\n        /* \"#utility.yul\":2085:2224   */\n      swap3\n      swap2\n      pop\n      pop\n      jump\t// out\n        /* \"#utility.yul\":2230:2704   */\n    tag_31:\n        /* \"#utility.yul\":2298:2304   */\n      0x00\n        /* \"#utility.yul\":2306:2312   */\n      0x00\n        /* \"#utility.yul\":2355:2357   */\n      0x40\n        /* \"#utility.yul\":2343:2352   */\n      dup4\n        /* \"#utility.yul\":2334:2341   */\n      dup6\n        /* \"#utility.yul\":2330:2353   */\n      sub\n        /* \"#utility.yul\":2326:2358   */\n      slt\n        /* \"#utility.yul\":2323:2442   */\n      iszero\n      tag_369\n      jumpi\n        /* \"#utility.yul\":2361:2440   */\n      tag_370\n      tag_258\n      jump\t// in\n    tag_370:\n        /* \"#utility.yul\":2323:2442   */\n    tag_369:\n        /* \"#utility.yul\":2481:2482   */\n      0x00\n        /* \"#utility.yul\":2506:2559   */\n      tag_371\n        /* \"#utility.yul\":2551:2558   */\n      dup6\n        /* \"#utility.yul\":2542:2548   */\n      dup3\n        /* \"#utility.yul\":2531:2540   */\n      dup7\n        /* \"#utility.yul\":2527:2549   */\n      add\n        /* \"#utility.yul\":2506:2559   */\n      tag_267\n      jump\t// in\n    tag_371:\n        /* \"#utility.yul\":2496:2559   */\n      swap3\n      pop\n        /* \"#utility.yul\":2452:2569   */\n      pop\n        /* \"#utility.yul\":2608:2610   */\n      0x20\n        /* \"#utility.yul\":2634:2687   */\n      tag_372\n        /* \"#utility.yul\":2679:2686   */\n      dup6\n        /* \"#utility.yul\":2670:2676   */\n      dup3\n        /* \"#utility.yul\":2659:2668   */\n      dup7\n        /* \"#utility.yul\":2655:2677   */\n      add\n        /* \"#utility.yul\":2634:2687   */\n      tag_270\n      jump\t// in\n    tag_372:\n        /* \"#utility.yul\":2624:2687   */\n      swap2\n      pop\n        /* \"#utility.yul\":2579:2697   */\n      pop\n        /* \"#utility.yul\":2230:2704   */\n      swap3\n      pop\n      swap3\n      swap1\n      pop\n      jump\t// out\n        /* \"#utility.yul\":2710:2836   */\n    tag_271:\n        /* \"#utility.yul\":2747:2754   */\n      0x00\n        /* \"#utility.yul\":2787:2829   */\n      0xffffffffffffffffffffffffffffffffffffffff\n        /* \"#utility.yul\":2780:2785   */\n      dup3\n        /* \"#utility.yul\":2776:2830   */\n      and\n        /* \"#utility.yul\":2765:2830   */\n      swap1\n      pop\n        /* \"#utility.yul\":2710:2836   */\n      swap2\n      swap1\n      pop\n      jump\t// out\n        /* \"#utility.yul\":2842:2938   */\n    tag_272:\n        /* \"#utility.yul\":2879:2886   */\n      0x00\n        /* \"#utility.yul\":2908:2932   */\n      tag_375\n        /* \"#utility.yul\":2926:2931   */\n      dup3\n        /* \"#utility.yul\":2908:2932   */\n      tag_271\n      jump\t// in\n    tag_375:\n        /* \"#utility.yul\":2897:2932   */\n      swap1\n      pop\n        /* \"#utility.yul\":2842:2938   */\n      swap2\n      swap1\n      pop\n      jump\t// out\n        /* \"#utility.yul\":2944:3062   */\n    tag_273:\n        /* \"#utility.yul\":3031:3055   */\n      tag_377\n        /* \"#utility.yul\":3049:3054   */\n      dup2\n        /* \"#utility.yul\":3031:3055   */\n      tag_272\n      jump\t// in\n    tag_377:\n        /* \"#utility.yul\":3026:3029   */\n      dup3\n        /* \"#utility.yul\":3019:3056   */\n      mstore\n        /* \"#utility.yul\":2944:3062   */\n      pop\n      pop\n      jump\t// out\n        /* \"#utility.yul\":3068:3290   */\n    tag_36:\n        /* \"#utility.yul\":3161:3165   */\n      0x00\n        /* \"#utility.yul\":3199:3201   */\n      0x20\n        /* \"#utility.yul\":3188:3197   */\n      dup3\n        /* \"#utility.yul\":3184:3202   */\n      add\n        /* \"#utility.yul\":3176:3202   */\n      swap1\n      pop\n        /* \"#utility.yul\":3212:3283   */\n      tag_379\n        /* \"#utility.yul\":3280:3281   */\n      0x00\n        /* \"#utility.yul\":3269:3278   */\n      dup4\n        /* \"#utility.yul\":3265:3282   */\n      add\n        /* \"#utility.yul\":3256:3262   */\n      dup5\n        /* \"#utility.yul\":3212:3283   */\n      tag_273\n      jump\t// in\n    tag_379:\n        /* \"#utility.yul\":3068:3290   */\n      swap3\n      swap2\n      pop\n      pop\n      jump\t// out\n        /* \"#utility.yul\":3296:3356   */\n    tag_274:\n        /* \"#utility.yul\":3324:3327   */\n      0x00\n        /* \"#utility.yul\":3345:3350   */\n      dup2\n        /* \"#utility.yul\":3338:3350   */\n      swap1\n      pop\n        /* \"#utility.yul\":3296:3356   */\n      swap2\n      swap1\n      pop\n      jump\t// out\n        /* \"#utility.yul\":3362:3504   */\n    tag_275:\n        /* \"#utility.yul\":3412:3421   */\n      0x00\n        /* \"#utility.yul\":3445:3498   */\n      tag_382\n        /* \"#utility.yul\":3463:3497   */\n      tag_383\n        /* \"#utility.yul\":3472:3496   */\n      tag_384\n        /* \"#utility.yul\":3490:3495   */\n      dup5\n        /* \"#utility.yul\":3472:3496   */\n      tag_271\n      jump\t// in\n    tag_384:\n        /* \"#utility.yul\":3463:3497   */\n      tag_274\n      jump\t// in\n    tag_383:\n        /* \"#utility.yul\":3445:3498   */\n      tag_271\n      jump\t// in\n    tag_382:\n        /* \"#utility.yul\":3432:3498   */\n      swap1\n      pop\n        /* \"#utility.yul\":3362:3504   */\n      swap2\n      swap1\n      pop\n      jump\t// out\n        /* \"#utility.yul\":3510:3636   */\n    tag_276:\n        /* \"#utility.yul\":3560:3569   */\n      0x00\n        /* \"#utility.yul\":3593:3630   */\n      tag_386\n        /* \"#utility.yul\":3624:3629   */\n      dup3\n        /* \"#utility.yul\":3593:3630   */\n      tag_275\n      jump\t// in\n    tag_386:\n        /* \"#utility.yul\":3580:3630   */\n      swap1\n      pop\n        /* \"#utility.yul\":3510:3636   */\n      swap2\n      swap1\n      pop\n      jump\t// out\n        /* \"#utility.yul\":3642:3782   */\n    tag_277:\n        /* \"#utility.yul\":3706:3715   */\n      0x00\n        /* \"#utility.yul\":3739:3776   */\n      tag_388\n        /* \"#utility.yul\":3770:3775   */\n      dup3\n        /* \"#utility.yul\":3739:3776   */\n      tag_276\n      jump\t// in\n    tag_388:\n        /* \"#utility.yul\":3726:3776   */\n      swap1\n      pop\n        /* \"#utility.yul\":3642:3782   */\n      swap2\n      swap1\n      pop\n      jump\t// out\n        /* \"#utility.yul\":3788:3947   */\n    tag_278:\n        /* \"#utility.yul\":3889:3940   */\n      tag_390\n        /* \"#utility.yul\":3934:3939   */\n      dup2\n        /* \"#utility.yul\":3889:3940   */\n      tag_277\n      jump\t// in\n    tag_390:\n        /* \"#utility.yul\":3884:3887   */\n      dup3\n        /* \"#utility.yul\":3877:3941   */\n      mstore\n        /* \"#utility.yul\":3788:3947   */\n      pop\n      pop\n      jump\t// out\n        /* \"#utility.yul\":3953:4203   */\n    tag_43:\n        /* \"#utility.yul\":4060:4064   */\n      0x00\n        /* \"#utility.yul\":4098:4100   */\n      0x20\n        /* \"#utility.yul\":4087:4096   */\n      dup3\n        /* \"#utility.yul\":4083:4101   */\n      add\n        /* \"#utility.yul\":4075:4101   */\n      swap1\n      pop\n        /* \"#utility.yul\":4111:4196   */\n      tag_392\n        /* \"#utility.yul\":4193:4194   */\n      0x00\n        /* \"#utility.yul\":4182:4191   */\n      dup4\n        /* \"#utility.yul\":4178:4195   */\n      add\n        /* \"#utility.yul\":4169:4175   */\n      dup5\n        /* \"#utility.yul\":4111:4196   */\n      tag_278\n      jump\t// in\n    tag_392:\n        /* \"#utility.yul\":3953:4203   */\n      swap3\n      swap2\n      pop\n      pop\n      jump\t// out\n        /* \"#utility.yul\":4209:4326   */\n    tag_279:\n        /* \"#utility.yul\":4318:4319   */\n      0x00\n        /* \"#utility.yul\":4315:4316   */\n      0x00\n        /* \"#utility.yul\":4308:4320   */\n      revert\n        /* \"#utility.yul\":4332:4449   */\n    tag_280:\n        /* \"#utility.yul\":4441:4442   */\n      0x00\n        /* \"#utility.yul\":4438:4439   */\n      0x00\n        /* \"#utility.yul\":4431:4443   */\n      revert\n        /* \"#utility.yul\":4455:4572   */\n    tag_281:\n        /* \"#utility.yul\":4564:4565   */\n      0x00\n        /* \"#utility.yul\":4561:4562   */\n      0x00\n        /* \"#utility.yul\":4554:4566   */\n      revert\n        /* \"#utility.yul\":4591:5143   */\n    tag_282:\n        /* \"#utility.yul\":4648:4656   */\n      0x00\n        /* \"#utility.yul\":4658:4664   */\n      0x00\n        /* \"#utility.yul\":4708:4711   */\n      dup4\n        /* \"#utility.yul\":4701:4705   */\n      0x1f\n        /* \"#utility.yul\":4693:4699   */\n      dup5\n        /* \"#utility.yul\":4689:4706   */\n      add\n        /* \"#utility.yul\":4685:4712   */\n      slt\n        /* \"#utility.yul\":4675:4797   */\n      tag_397\n      jumpi\n        /* \"#utility.yul\":4716:4795   */\n      tag_398\n      tag_279\n      jump\t// in\n    tag_398:\n        /* \"#utility.yul\":4675:4797   */\n    tag_397:\n        /* \"#utility.yul\":4829:4835   */\n      dup3\n        /* \"#utility.yul\":4816:4836   */\n      calldataload\n        /* \"#utility.yul\":4806:4836   */\n      swap1\n      pop\n        /* \"#utility.yul\":4859:4877   */\n      0xffffffffffffffff\n        /* \"#utility.yul\":4851:4857   */\n      dup2\n        /* \"#utility.yul\":4848:4878   */\n      gt\n        /* \"#utility.yul\":4845:4962   */\n      iszero\n      tag_399\n      jumpi\n        /* \"#utility.yul\":4881:4960   */\n      tag_400\n      tag_280\n      jump\t// in\n    tag_400:\n        /* \"#utility.yul\":4845:4962   */\n    tag_399:\n        /* \"#utility.yul\":4995:4999   */\n      0x20\n        /* \"#utility.yul\":4987:4993   */\n      dup4\n        /* \"#utility.yul\":4983:5000   */\n      add\n        /* \"#utility.yul\":4971:5000   */\n      swap2\n      pop\n        /* \"#utility.yul\":5049:5052   */\n      dup4\n        /* \"#utility.yul\":5041:5045   */\n      0x01\n        /* \"#utility.yul\":5033:5039   */\n      dup3\n        /* \"#utility.yul\":5029:5046   */\n      mul\n        /* \"#utility.yul\":5019:5027   */\n      dup4\n        /* \"#utility.yul\":5015:5047   */\n      add\n        /* \"#utility.yul\":5012:5053   */\n      gt\n        /* \"#utility.yul\":5009:5137   */\n      iszero\n      tag_401\n      jumpi\n        /* \"#utility.yul\":5056:5135   */\n      tag_402\n      tag_281\n      jump\t// in\n    tag_402:\n        /* \"#utility.yul\":5009:5137   */\n    tag_401:\n        /* \"#utility.yul\":4591:5143   */\n      swap3\n      pop\n      swap3\n      swap1\n      pop\n      jump\t// out\n        /* \"#utility.yul\":5149:6019   */\n    tag_48:\n        /* \"#utility.yul\":5239:5245   */\n      0x00\n        /* \"#utility.yul\":5247:5253   */\n      0x00\n        /* \"#utility.yul\":5255:5261   */\n      0x00\n        /* \"#utility.yul\":5263:5269   */\n      0x00\n        /* \"#utility.yul\":5312:5314   */\n      0x40\n        /* \"#utility.yul\":5300:5309   */\n      dup6\n        /* \"#utility.yul\":5291:5298   */\n      dup8\n        /* \"#utility.yul\":5287:5310   */\n      sub\n        /* \"#utility.yul\":5283:5315   */\n      slt\n        /* \"#utility.yul\":5280:5399   */\n      iszero\n      tag_404\n      jumpi\n        /* \"#utility.yul\":5318:5397   */\n      tag_405\n      tag_258\n      jump\t// in\n    tag_405:\n        /* \"#utility.yul\":5280:5399   */\n    tag_404:\n        /* \"#utility.yul\":5466:5467   */\n      0x00\n        /* \"#utility.yul\":5455:5464   */\n      dup6\n        /* \"#utility.yul\":5451:5468   */\n      add\n        /* \"#utility.yul\":5438:5469   */\n      calldataload\n        /* \"#utility.yul\":5496:5514   */\n      0xffffffffffffffff\n        /* \"#utility.yul\":5488:5494   */\n      dup2\n        /* \"#utility.yul\":5485:5515   */\n      gt\n        /* \"#utility.yul\":5482:5599   */\n      iszero\n      tag_406\n      jumpi\n        /* \"#utility.yul\":5518:5597   */\n      tag_407\n      tag_259\n      jump\t// in\n    tag_407:\n        /* \"#utility.yul\":5482:5599   */\n    tag_406:\n        /* \"#utility.yul\":5631:5695   */\n      tag_408\n        /* \"#utility.yul\":5687:5694   */\n      dup8\n        /* \"#utility.yul\":5678:5684   */\n      dup3\n        /* \"#utility.yul\":5667:5676   */\n      dup9\n        /* \"#utility.yul\":5663:5685   */\n      add\n        /* \"#utility.yul\":5631:5695   */\n      tag_282\n      jump\t// in\n    tag_408:\n        /* \"#utility.yul\":5613:5695   */\n      swap5\n      pop\n      swap5\n      pop\n        /* \"#utility.yul\":5409:5705   */\n      pop\n        /* \"#utility.yul\":5772:5774   */\n      0x20\n        /* \"#utility.yul\":5761:5770   */\n      dup6\n        /* \"#utility.yul\":5757:5775   */\n      add\n        /* \"#utility.yul\":5744:5776   */\n      calldataload\n        /* \"#utility.yul\":5803:5821   */\n      0xffffffffffffffff\n        /* \"#utility.yul\":5795:5801   */\n      dup2\n        /* \"#utility.yul\":5792:5822   */\n      gt\n        /* \"#utility.yul\":5789:5906   */\n      iszero\n      tag_409\n      jumpi\n        /* \"#utility.yul\":5825:5904   */\n      tag_410\n      tag_259\n      jump\t// in\n    tag_410:\n        /* \"#utility.yul\":5789:5906   */\n    tag_409:\n        /* \"#utility.yul\":5938:6002   */\n      tag_411\n        /* \"#utility.yul\":5994:6001   */\n      dup8\n        /* \"#utility.yul\":5985:5991   */\n      dup3\n        /* \"#utility.yul\":5974:5983   */\n      dup9\n        /* \"#utility.yul\":5970:5992   */\n      add\n        /* \"#utility.yul\":5938:6002   */\n      tag_282\n      jump\t// in\n    tag_411:\n        /* \"#utility.yul\":5920:6002   */\n      swap3\n      pop\n      swap3\n      pop\n        /* \"#utility.yul\":5715:6012   */\n      pop\n        /* \"#utility.yul\":5149:6019   */\n      swap3\n      swap6\n      swap2\n      swap5\n      pop\n      swap3\n      pop\n      jump\t// out\n        /* \"#utility.yul\":6025:6142   */\n    tag_283:\n        /* \"#utility.yul\":6134:6135   */\n      0x00\n        /* \"#utility.yul\":6131:6132   */\n      0x00\n        /* \"#utility.yul\":6124:6136   */\n      revert\n        /* \"#utility.yul\":6184:6422   */\n    tag_284:\n        /* \"#utility.yul\":6263:6268   */\n      0x00\n        /* \"#utility.yul\":6304:6307   */\n      0xa0\n        /* \"#utility.yul\":6295:6301   */\n      dup3\n        /* \"#utility.yul\":6290:6293   */\n      dup5\n        /* \"#utility.yul\":6286:6302   */\n      sub\n        /* \"#utility.yul\":6282:6308   */\n      slt\n        /* \"#utility.yul\":6279:6392   */\n      iszero\n      tag_414\n      jumpi\n        /* \"#utility.yul\":6311:6390   */\n      tag_415\n      tag_283\n      jump\t// in\n    tag_415:\n        /* \"#utility.yul\":6279:6392   */\n    tag_414:\n        /* \"#utility.yul\":6410:6416   */\n      dup2\n        /* \"#utility.yul\":6401:6416   */\n      swap1\n      pop\n        /* \"#utility.yul\":6184:6422   */\n      swap3\n      swap2\n      pop\n      pop\n      jump\t// out\n        /* \"#utility.yul\":6428:6983   */\n    tag_52:\n        /* \"#utility.yul\":6520:6526   */\n      0x00\n        /* \"#utility.yul\":6569:6571   */\n      0x20\n        /* \"#utility.yul\":6557:6566   */\n      dup3\n        /* \"#utility.yul\":6548:6555   */\n      dup5\n        /* \"#utility.yul\":6544:6567   */\n      sub\n        /* \"#utility.yul\":6540:6572   */\n      slt\n        /* \"#utility.yul\":6537:6656   */\n      iszero\n      tag_417\n      jumpi\n        /* \"#utility.yul\":6575:6654   */\n      tag_418\n      tag_258\n      jump\t// in\n    tag_418:\n        /* \"#utility.yul\":6537:6656   */\n    tag_417:\n        /* \"#utility.yul\":6723:6724   */\n      0x00\n        /* \"#utility.yul\":6712:6721   */\n      dup3\n        /* \"#utility.yul\":6708:6725   */\n      add\n        /* \"#utility.yul\":6695:6726   */\n      calldataload\n        /* \"#utility.yul\":6753:6771   */\n      0xffffffffffffffff\n        /* \"#utility.yul\":6745:6751   */\n      dup2\n        /* \"#utility.yul\":6742:6772   */\n      gt\n        /* \"#utility.yul\":6739:6856   */\n      iszero\n      tag_419\n      jumpi\n        /* \"#utility.yul\":6775:6854   */\n      tag_420\n      tag_259\n      jump\t// in\n    tag_420:\n        /* \"#utility.yul\":6739:6856   */\n    tag_419:\n        /* \"#utility.yul\":6880:6966   */\n      tag_421\n        /* \"#utility.yul\":6958:6965   */\n      dup5\n        /* \"#utility.yul\":6949:6955   */\n      dup3\n        /* \"#utility.yul\":6938:6947   */\n      dup6\n        /* \"#utility.yul\":6934:6956   */\n      add\n        /* \"#utility.yul\":6880:6966   */\n      tag_284\n      jump\t// in\n    tag_421:\n        /* \"#utility.yul\":6870:6966   */\n      swap2\n      pop\n        /* \"#utility.yul\":6666:6976   */\n      pop\n        /* \"#utility.yul\":6428:6983   */\n      swap3\n      swap2\n      pop\n      pop\n      jump\t// out\n        /* \"#utility.yul\":6989:7139   */\n    tag_285:\n        /* \"#utility.yul\":7026:7033   */\n      0x00\n        /* \"#utility.yul\":7066:7132   */\n      0xffffffffffffffffffff00000000000000000000000000000000000000000000\n        /* \"#utility.yul\":7059:7064   */\n      dup3\n        /* \"#utility.yul\":7055:7133   */\n      and\n        /* \"#utility.yul\":7044:7133   */\n      swap1\n      pop\n        /* \"#utility.yul\":6989:7139   */\n      swap2\n      swap1\n      pop\n      jump\t// out\n        /* \"#utility.yul\":7145:7263   */\n    tag_286:\n        /* \"#utility.yul\":7232:7256   */\n      tag_424\n        /* \"#utility.yul\":7250:7255   */\n      dup2\n        /* \"#utility.yul\":7232:7256   */\n      tag_285\n      jump\t// in\n    tag_424:\n        /* \"#utility.yul\":7227:7230   */\n      dup3\n        /* \"#utility.yul\":7220:7257   */\n      mstore\n        /* \"#utility.yul\":7145:7263   */\n      pop\n      pop\n      jump\t// out\n        /* \"#utility.yul\":7269:7491   */\n    tag_60:\n        /* \"#utility.yul\":7362:7366   */\n      0x00\n        /* \"#utility.yul\":7400:7402   */\n      0x20\n        /* \"#utility.yul\":7389:7398   */\n      dup3\n        /* \"#utility.yul\":7385:7403   */\n      add\n        /* \"#utility.yul\":7377:7403   */\n      swap1\n      pop\n        /* \"#utility.yul\":7413:7484   */\n      tag_426\n        /* \"#utility.yul\":7481:7482   */\n      0x00\n        /* \"#utility.yul\":7470:7479   */\n      dup4\n        /* \"#utility.yul\":7466:7483   */\n      add\n        /* \"#utility.yul\":7457:7463   */\n      dup5\n        /* \"#utility.yul\":7413:7484   */\n      tag_286\n      jump\t// in\n    tag_426:\n        /* \"#utility.yul\":7269:7491   */\n      swap3\n      swap2\n      pop\n      pop\n      jump\t// out\n        /* \"#utility.yul\":7511:8064   */\n    tag_287:\n        /* \"#utility.yul\":7569:7577   */\n      0x00\n        /* \"#utility.yul\":7579:7585   */\n      0x00\n        /* \"#utility.yul\":7629:7632   */\n      dup4\n        /* \"#utility.yul\":7622:7626   */\n      0x1f\n        /* \"#utility.yul\":7614:7620   */\n      dup5\n        /* \"#utility.yul\":7610:7627   */\n      add\n        /* \"#utility.yul\":7606:7633   */\n      slt\n        /* \"#utility.yul\":7596:7718   */\n      tag_428\n      jumpi\n        /* \"#utility.yul\":7637:7716   */\n      tag_429\n      tag_279\n      jump\t// in\n    tag_429:\n        /* \"#utility.yul\":7596:7718   */\n    tag_428:\n        /* \"#utility.yul\":7750:7756   */\n      dup3\n        /* \"#utility.yul\":7737:7757   */\n      calldataload\n        /* \"#utility.yul\":7727:7757   */\n      swap1\n      pop\n        /* \"#utility.yul\":7780:7798   */\n      0xffffffffffffffff\n        /* \"#utility.yul\":7772:7778   */\n      dup2\n        /* \"#utility.yul\":7769:7799   */\n      gt\n        /* \"#utility.yul\":7766:7883   */\n      iszero\n      tag_430\n      jumpi\n        /* \"#utility.yul\":7802:7881   */\n      tag_431\n      tag_280\n      jump\t// in\n    tag_431:\n        /* \"#utility.yul\":7766:7883   */\n    tag_430:\n        /* \"#utility.yul\":7916:7920   */\n      0x20\n        /* \"#utility.yul\":7908:7914   */\n      dup4\n        /* \"#utility.yul\":7904:7921   */\n      add\n        /* \"#utility.yul\":7892:7921   */\n      swap2\n      pop\n        /* \"#utility.yul\":7970:7973   */\n      dup4\n        /* \"#utility.yul\":7962:7966   */\n      0x01\n        /* \"#utility.yul\":7954:7960   */\n      dup3\n        /* \"#utility.yul\":7950:7967   */\n      mul\n        /* \"#utility.yul\":7940:7948   */\n      dup4\n        /* \"#utility.yul\":7936:7968   */\n      add\n        /* \"#utility.yul\":7933:7974   */\n      gt\n        /* \"#utility.yul\":7930:8058   */\n      iszero\n      tag_432\n      jumpi\n        /* \"#utility.yul\":7977:8056   */\n      tag_433\n      tag_281\n      jump\t// in\n    tag_433:\n        /* \"#utility.yul\":7930:8058   */\n    tag_432:\n        /* \"#utility.yul\":7511:8064   */\n      swap3\n      pop\n      swap3\n      swap1\n      pop\n      jump\t// out\n        /* \"#utility.yul\":8070:8599   */\n    tag_66:\n        /* \"#utility.yul\":8141:8147   */\n      0x00\n        /* \"#utility.yul\":8149:8155   */\n      0x00\n        /* \"#utility.yul\":8198:8200   */\n      0x20\n        /* \"#utility.yul\":8186:8195   */\n      dup4\n        /* \"#utility.yul\":8177:8184   */\n      dup6\n        /* \"#utility.yul\":8173:8196   */\n      sub\n        /* \"#utility.yul\":8169:8201   */\n      slt\n        /* \"#utility.yul\":8166:8285   */\n      iszero\n      tag_435\n      jumpi\n        /* \"#utility.yul\":8204:8283   */\n      tag_436\n      tag_258\n      jump\t// in\n    tag_436:\n        /* \"#utility.yul\":8166:8285   */\n    tag_435:\n        /* \"#utility.yul\":8352:8353   */\n      0x00\n        /* \"#utility.yul\":8341:8350   */\n      dup4\n        /* \"#utility.yul\":8337:8354   */\n      add\n        /* \"#utility.yul\":8324:8355   */\n      calldataload\n        /* \"#utility.yul\":8382:8400   */\n      0xffffffffffffffff\n        /* \"#utility.yul\":8374:8380   */\n      dup2\n        /* \"#utility.yul\":8371:8401   */\n      gt\n        /* \"#utility.yul\":8368:8485   */\n      iszero\n      tag_437\n      jumpi\n        /* \"#utility.yul\":8404:8483   */\n      tag_438\n      tag_259\n      jump\t// in\n    tag_438:\n        /* \"#utility.yul\":8368:8485   */\n    tag_437:\n        /* \"#utility.yul\":8517:8582   */\n      tag_439\n        /* \"#utility.yul\":8574:8581   */\n      dup6\n        /* \"#utility.yul\":8565:8571   */\n      dup3\n        /* \"#utility.yul\":8554:8563   */\n      dup7\n        /* \"#utility.yul\":8550:8572   */\n      add\n        /* \"#utility.yul\":8517:8582   */\n      tag_287\n      jump\t// in\n    tag_439:\n        /* \"#utility.yul\":8499:8582   */\n      swap3\n      pop\n      swap3\n      pop\n        /* \"#utility.yul\":8295:8592   */\n      pop\n        /* \"#utility.yul\":8070:8599   */\n      swap3\n      pop\n      swap3\n      swap1\n      pop\n      jump\t// out\n        /* \"#utility.yul\":8605:8934   */\n    tag_70:\n        /* \"#utility.yul\":8664:8670   */\n      0x00\n        /* \"#utility.yul\":8713:8715   */\n      0x20\n        /* \"#utility.yul\":8701:8710   */\n      dup3\n        /* \"#utility.yul\":8692:8699   */\n      dup5\n        /* \"#utility.yul\":8688:8711   */\n      sub\n        /* \"#utility.yul\":8684:8716   */\n      slt\n        /* \"#utility.yul\":8681:8800   */\n      iszero\n      tag_441\n      jumpi\n        /* \"#utility.yul\":8719:8798   */\n      tag_442\n      tag_258\n      jump\t// in\n    tag_442:\n        /* \"#utility.yul\":8681:8800   */\n    tag_441:\n        /* \"#utility.yul\":8839:8840   */\n      0x00\n        /* \"#utility.yul\":8864:8917   */\n      tag_443\n        /* \"#utility.yul\":8909:8916   */\n      dup5\n        /* \"#utility.yul\":8900:8906   */\n      dup3\n        /* \"#utility.yul\":8889:8898   */\n      dup6\n        /* \"#utility.yul\":8885:8907   */\n      add\n        /* \"#utility.yul\":8864:8917   */\n      tag_267\n      jump\t// in\n    tag_443:\n        /* \"#utility.yul\":8854:8917   */\n      swap2\n      pop\n        /* \"#utility.yul\":8810:8927   */\n      pop\n        /* \"#utility.yul\":8605:8934   */\n      swap3\n      swap2\n      pop\n      pop\n      jump\t// out\n        /* \"#utility.yul\":8940:9062   */\n    tag_288:\n        /* \"#utility.yul\":9013:9037   */\n      tag_445\n        /* \"#utility.yul\":9031:9036   */\n      dup2\n        /* \"#utility.yul\":9013:9037   */\n      tag_272\n      jump\t// in\n    tag_445:\n        /* \"#utility.yul\":9006:9011   */\n      dup2\n        /* \"#utility.yul\":9003:9038   */\n      eq\n        /* \"#utility.yul\":8993:9056   */\n      tag_446\n      jumpi\n        /* \"#utility.yul\":9052:9053   */\n      0x00\n        /* \"#utility.yul\":9049:9050   */\n      0x00\n        /* \"#utility.yul\":9042:9054   */\n      revert\n        /* \"#utility.yul\":8993:9056   */\n    tag_446:\n        /* \"#utility.yul\":8940:9062   */\n      pop\n      jump\t// out\n        /* \"#utility.yul\":9068:9207   */\n    tag_289:\n        /* \"#utility.yul\":9114:9119   */\n      0x00\n        /* \"#utility.yul\":9152:9158   */\n      dup2\n        /* \"#utility.yul\":9139:9159   */\n      calldataload\n        /* \"#utility.yul\":9130:9159   */\n      swap1\n      pop\n        /* \"#utility.yul\":9168:9201   */\n      tag_448\n        /* \"#utility.yul\":9195:9200   */\n      dup2\n        /* \"#utility.yul\":9168:9201   */\n      tag_288\n      jump\t// in\n    tag_448:\n        /* \"#utility.yul\":9068:9207   */\n      swap3\n      swap2\n      pop\n      pop\n      jump\t// out\n        /* \"#utility.yul\":9213:9542   */\n    tag_74:\n        /* \"#utility.yul\":9272:9278   */\n      0x00\n        /* \"#utility.yul\":9321:9323   */\n      0x20\n        /* \"#utility.yul\":9309:9318   */\n      dup3\n        /* \"#utility.yul\":9300:9307   */\n      dup5\n        /* \"#utility.yul\":9296:9319   */\n      sub\n        /* \"#utility.yul\":9292:9324   */\n      slt\n        /* \"#utility.yul\":9289:9408   */\n      iszero\n      tag_450\n      jumpi\n        /* \"#utility.yul\":9327:9406   */\n      tag_451\n      tag_258\n      jump\t// in\n    tag_451:\n        /* \"#utility.yul\":9289:9408   */\n    tag_450:\n        /* \"#utility.yul\":9447:9448   */\n      0x00\n        /* \"#utility.yul\":9472:9525   */\n      tag_452\n        /* \"#utility.yul\":9517:9524   */\n      dup5\n        /* \"#utility.yul\":9508:9514   */\n      dup3\n        /* \"#utility.yul\":9497:9506   */\n      dup6\n        /* \"#utility.yul\":9493:9515   */\n      add\n        /* \"#utility.yul\":9472:9525   */\n      tag_289\n      jump\t// in\n    tag_452:\n        /* \"#utility.yul\":9462:9525   */\n      swap2\n      pop\n        /* \"#utility.yul\":9418:9535   */\n      pop\n        /* \"#utility.yul\":9213:9542   */\n      swap3\n      swap2\n      pop\n      pop\n      jump\t// out\n        /* \"#utility.yul\":9548:9666   */\n    tag_290:\n        /* \"#utility.yul\":9635:9659   */\n      tag_454\n        /* \"#utility.yul\":9653:9658   */\n      dup2\n        /* \"#utility.yul\":9635:9659   */\n      tag_265\n      jump\t// in\n    tag_454:\n        /* \"#utility.yul\":9630:9633   */\n      dup3\n        /* \"#utility.yul\":9623:9660   */\n      mstore\n        /* \"#utility.yul\":9548:9666   */\n      pop\n      pop\n      jump\t// out\n        /* \"#utility.yul\":9672:9894   */\n    tag_85:\n        /* \"#utility.yul\":9765:9769   */\n      0x00\n        /* \"#utility.yul\":9803:9805   */\n      0x20\n        /* \"#utility.yul\":9792:9801   */\n      dup3\n        /* \"#utility.yul\":9788:9806   */\n      add\n        /* \"#utility.yul\":9780:9806   */\n      swap1\n      pop\n        /* \"#utility.yul\":9816:9887   */\n      tag_456\n        /* \"#utility.yul\":9884:9885   */\n      0x00\n        /* \"#utility.yul\":9873:9882   */\n      dup4\n        /* \"#utility.yul\":9869:9886   */\n      add\n        /* \"#utility.yul\":9860:9866   */\n      dup5\n        /* \"#utility.yul\":9816:9887   */\n      tag_290\n      jump\t// in\n    tag_456:\n        /* \"#utility.yul\":9672:9894   */\n      swap3\n      swap2\n      pop\n      pop\n      jump\t// out\n        /* \"#utility.yul\":9900:10069   */\n    tag_291:\n        /* \"#utility.yul\":9984:9995   */\n      0x00\n        /* \"#utility.yul\":10018:10024   */\n      dup3\n        /* \"#utility.yul\":10013:10016   */\n      dup3\n        /* \"#utility.yul\":10006:10025   */\n      mstore\n        /* \"#utility.yul\":10058:10062   */\n      0x20\n        /* \"#utility.yul\":10053:10056   */\n      dup3\n        /* \"#utility.yul\":10049:10063   */\n      add\n        /* \"#utility.yul\":10034:10063   */\n      swap1\n      pop\n        /* \"#utility.yul\":9900:10069   */\n      swap3\n      swap2\n      pop\n      pop\n      jump\t// out\n        /* \"#utility.yul\":10075:10244   */\n    tag_292:\n        /* \"#utility.yul\":10215:10236   */\n      0x536861646f773a207a65726f20616d6f756e7400000000000000000000000000\n        /* \"#utility.yul\":10211:10212   */\n      0x00\n        /* \"#utility.yul\":10203:10209   */\n      dup3\n        /* \"#utility.yul\":10199:10213   */\n      add\n        /* \"#utility.yul\":10192:10237   */\n      mstore\n        /* \"#utility.yul\":10075:10244   */\n      pop\n      jump\t// out\n        /* \"#utility.yul\":10250:10616   */\n    tag_293:\n        /* \"#utility.yul\":10392:10395   */\n      0x00\n        /* \"#utility.yul\":10413:10480   */\n      tag_460\n        /* \"#utility.yul\":10477:10479   */\n      0x13\n        /* \"#utility.yul\":10472:10475   */\n      dup4\n        /* \"#utility.yul\":10413:10480   */\n      tag_291\n      jump\t// in\n    tag_460:\n        /* \"#utility.yul\":10406:10480   */\n      swap2\n      pop\n        /* \"#utility.yul\":10489:10582   */\n      tag_461\n        /* \"#utility.yul\":10578:10581   */\n      dup3\n        /* \"#utility.yul\":10489:10582   */\n      tag_292\n      jump\t// in\n    tag_461:\n        /* \"#utility.yul\":10607:10609   */\n      0x20\n        /* \"#utility.yul\":10602:10605   */\n      dup3\n        /* \"#utility.yul\":10598:10610   */\n      add\n        /* \"#utility.yul\":10591:10610   */\n      swap1\n      pop\n        /* \"#utility.yul\":10250:10616   */\n      swap2\n      swap1\n      pop\n      jump\t// out\n        /* \"#utility.yul\":10622:11041   */\n    tag_92:\n        /* \"#utility.yul\":10788:10792   */\n      0x00\n        /* \"#utility.yul\":10826:10828   */\n      0x20\n        /* \"#utility.yul\":10815:10824   */\n      dup3\n        /* \"#utility.yul\":10811:10829   */\n      add\n        /* \"#utility.yul\":10803:10829   */\n      swap1\n      pop\n        /* \"#utility.yul\":10875:10884   */\n      dup2\n        /* \"#utility.yul\":10869:10873   */\n      dup2\n        /* \"#utility.yul\":10865:10885   */\n      sub\n        /* \"#utility.yul\":10861:10862   */\n      0x00\n        /* \"#utility.yul\":10850:10859   */\n      dup4\n        /* \"#utility.yul\":10846:10863   */\n      add\n        /* \"#utility.yul\":10839:10886   */\n      mstore\n        /* \"#utility.yul\":10903:11034   */\n      tag_463\n        /* \"#utility.yul\":11029:11033   */\n      dup2\n        /* \"#utility.yul\":10903:11034   */\n      tag_293\n      jump\t// in\n    tag_463:\n        /* \"#utility.yul\":10895:11034   */\n      swap1\n      pop\n        /* \"#utility.yul\":10622:11041   */\n      swap2\n      swap1\n      pop\n      jump\t// out\n        /* \"#utility.yul\":11047:11165   */\n    tag_294:\n        /* \"#utility.yul\":11134:11158   */\n      tag_465\n        /* \"#utility.yul\":11152:11157   */\n      dup2\n        /* \"#utility.yul\":11134:11158   */\n      tag_268\n      jump\t// in\n    tag_465:\n        /* \"#utility.yul\":11129:11132   */\n      dup3\n        /* \"#utility.yul\":11122:11159   */\n      mstore\n        /* \"#utility.yul\":11047:11165   */\n      pop\n      pop\n      jump\t// out\n        /* \"#utility.yul\":11171:11613   */\n    tag_94:\n        /* \"#utility.yul\":11320:11324   */\n      0x00\n        /* \"#utility.yul\":11358:11360   */\n      0x60\n        /* \"#utility.yul\":11347:11356   */\n      dup3\n        /* \"#utility.yul\":11343:11361   */\n      add\n        /* \"#utility.yul\":11335:11361   */\n      swap1\n      pop\n        /* \"#utility.yul\":11371:11442   */\n      tag_467\n        /* \"#utility.yul\":11439:11440   */\n      0x00\n        /* \"#utility.yul\":11428:11437   */\n      dup4\n        /* \"#utility.yul\":11424:11441   */\n      add\n        /* \"#utility.yul\":11415:11421   */\n      dup7\n        /* \"#utility.yul\":11371:11442   */\n      tag_273\n      jump\t// in\n    tag_467:\n        /* \"#utility.yul\":11452:11524   */\n      tag_468\n        /* \"#utility.yul\":11520:11522   */\n      0x20\n        /* \"#utility.yul\":11509:11518   */\n      dup4\n        /* \"#utility.yul\":11505:11523   */\n      add\n        /* \"#utility.yul\":11496:11502   */\n      dup6\n        /* \"#utility.yul\":11452:11524   */\n      tag_273\n      jump\t// in\n    tag_468:\n        /* \"#utility.yul\":11534:11606   */\n      tag_469\n        /* \"#utility.yul\":11602:11604   */\n      0x40\n        /* \"#utility.yul\":11591:11600   */\n      dup4\n        /* \"#utility.yul\":11587:11605   */\n      add\n        /* \"#utility.yul\":11578:11584   */\n      dup5\n        /* \"#utility.yul\":11534:11606   */\n      tag_294\n      jump\t// in\n    tag_469:\n        /* \"#utility.yul\":11171:11613   */\n      swap5\n      swap4\n      pop\n      pop\n      pop\n      pop\n      jump\t// out\n        /* \"#utility.yul\":11619:11735   */\n    tag_295:\n        /* \"#utility.yul\":11689:11710   */\n      tag_471\n        /* \"#utility.yul\":11704:11709   */\n      dup2\n        /* \"#utility.yul\":11689:11710   */\n      tag_263\n      jump\t// in\n    tag_471:\n        /* \"#utility.yul\":11682:11687   */\n      dup2\n        /* \"#utility.yul\":11679:11711   */\n      eq\n        /* \"#utility.yul\":11669:11729   */\n      tag_472\n      jumpi\n        /* \"#utility.yul\":11725:11726   */\n      0x00\n        /* \"#utility.yul\":11722:11723   */\n      0x00\n        /* \"#utility.yul\":11715:11727   */\n      revert\n        /* \"#utility.yul\":11669:11729   */\n    tag_472:\n        /* \"#utility.yul\":11619:11735   */\n      pop\n      jump\t// out\n        /* \"#utility.yul\":11741:11878   */\n    tag_296:\n        /* \"#utility.yul\":11795:11800   */\n      0x00\n        /* \"#utility.yul\":11826:11832   */\n      dup2\n        /* \"#utility.yul\":11820:11833   */\n      mload\n        /* \"#utility.yul\":11811:11833   */\n      swap1\n      pop\n        /* \"#utility.yul\":11842:11872   */\n      tag_474\n        /* \"#utility.yul\":11866:11871   */\n      dup2\n        /* \"#utility.yul\":11842:11872   */\n      tag_295\n      jump\t// in\n    tag_474:\n        /* \"#utility.yul\":11741:11878   */\n      swap3\n      swap2\n      pop\n      pop\n      jump\t// out\n        /* \"#utility.yul\":11884:12229   */\n    tag_98:\n        /* \"#utility.yul\":11951:11957   */\n      0x00\n        /* \"#utility.yul\":12000:12002   */\n      0x20\n        /* \"#utility.yul\":11988:11997   */\n      dup3\n        /* \"#utility.yul\":11979:11986   */\n      dup5\n        /* \"#utility.yul\":11975:11998   */\n      sub\n        /* \"#utility.yul\":11971:12003   */\n      slt\n        /* \"#utility.yul\":11968:12087   */\n      iszero\n      tag_476\n      jumpi\n        /* \"#utility.yul\":12006:12085   */\n      tag_477\n      tag_258\n      jump\t// in\n    tag_477:\n        /* \"#utility.yul\":11968:12087   */\n    tag_476:\n        /* \"#utility.yul\":12126:12127   */\n      0x00\n        /* \"#utility.yul\":12151:12212   */\n      tag_478\n        /* \"#utility.yul\":12204:12211   */\n      dup5\n        /* \"#utility.yul\":12195:12201   */\n      dup3\n        /* \"#utility.yul\":12184:12193   */\n      dup6\n        /* \"#utility.yul\":12180:12202   */\n      add\n        /* \"#utility.yul\":12151:12212   */\n      tag_296\n      jump\t// in\n    tag_478:\n        /* \"#utility.yul\":12141:12212   */\n      swap2\n      pop\n        /* \"#utility.yul\":12097:12222   */\n      pop\n        /* \"#utility.yul\":11884:12229   */\n      swap3\n      swap2\n      pop\n      pop\n      jump\t// out\n        /* \"#utility.yul\":12235:12400   */\n    tag_297:\n        /* \"#utility.yul\":12375:12392   */\n      0x5472616e73666572206661696c65640000000000000000000000000000000000\n        /* \"#utility.yul\":12371:12372   */\n      0x00\n        /* \"#utility.yul\":12363:12369   */\n      dup3\n        /* \"#utility.yul\":12359:12373   */\n      add\n        /* \"#utility.yul\":12352:12393   */\n      mstore\n        /* \"#utility.yul\":12235:12400   */\n      pop\n      jump\t// out\n        /* \"#utility.yul\":12406:12772   */\n    tag_298:\n        /* \"#utility.yul\":12548:12551   */\n      0x00\n        /* \"#utility.yul\":12569:12636   */\n      tag_481\n        /* \"#utility.yul\":12633:12635   */\n      0x0f\n        /* \"#utility.yul\":12628:12631   */\n      dup4\n        /* \"#utility.yul\":12569:12636   */\n      tag_291\n      jump\t// in\n    tag_481:\n        /* \"#utility.yul\":12562:12636   */\n      swap2\n      pop\n        /* \"#utility.yul\":12645:12738   */\n      tag_482\n        /* \"#utility.yul\":12734:12737   */\n      dup3\n        /* \"#utility.yul\":12645:12738   */\n      tag_297\n      jump\t// in\n    tag_482:\n        /* \"#utility.yul\":12763:12765   */\n      0x20\n        /* \"#utility.yul\":12758:12761   */\n      dup3\n        /* \"#utility.yul\":12754:12766   */\n      add\n        /* \"#utility.yul\":12747:12766   */\n      swap1\n      pop\n        /* \"#utility.yul\":12406:12772   */\n      swap2\n      swap1\n      pop\n      jump\t// out\n        /* \"#utility.yul\":12778:13197   */\n    tag_101:\n        /* \"#utility.yul\":12944:12948   */\n      0x00\n        /* \"#utility.yul\":12982:12984   */\n      0x20\n        /* \"#utility.yul\":12971:12980   */\n      dup3\n        /* \"#utility.yul\":12967:12985   */\n      add\n        /* \"#utility.yul\":12959:12985   */\n      swap1\n      pop\n        /* \"#utility.yul\":13031:13040   */\n      dup2\n        /* \"#utility.yul\":13025:13029   */\n      dup2\n        /* \"#utility.yul\":13021:13041   */\n      sub\n        /* \"#utility.yul\":13017:13018   */\n      0x00\n        /* \"#utility.yul\":13006:13015   */\n      dup4\n        /* \"#utility.yul\":13002:13019   */\n      add\n        /* \"#utility.yul\":12995:13042   */\n      mstore\n        /* \"#utility.yul\":13059:13190   */\n      tag_484\n        /* \"#utility.yul\":13185:13189   */\n      dup2\n        /* \"#utility.yul\":13059:13190   */\n      tag_298\n      jump\t// in\n    tag_484:\n        /* \"#utility.yul\":13051:13190   */\n      swap1\n      pop\n        /* \"#utility.yul\":12778:13197   */\n      swap2\n      swap1\n      pop\n      jump\t// out\n        /* \"#utility.yul\":13203:13535   */\n    tag_103:\n        /* \"#utility.yul\":13324:13328   */\n      0x00\n        /* \"#utility.yul\":13362:13364   */\n      0x40\n        /* \"#utility.yul\":13351:13360   */\n      dup3\n        /* \"#utility.yul\":13347:13365   */\n      add\n        /* \"#utility.yul\":13339:13365   */\n      swap1\n      pop\n        /* \"#utility.yul\":13375:13446   */\n      tag_486\n        /* \"#utility.yul\":13443:13444   */\n      0x00\n        /* \"#utility.yul\":13432:13441   */\n      dup4\n        /* \"#utility.yul\":13428:13445   */\n      add\n        /* \"#utility.yul\":13419:13425   */\n      dup6\n        /* \"#utility.yul\":13375:13446   */\n      tag_290\n      jump\t// in\n    tag_486:\n        /* \"#utility.yul\":13456:13528   */\n      tag_487\n        /* \"#utility.yul\":13524:13526   */\n      0x20\n        /* \"#utility.yul\":13513:13522   */\n      dup4\n        /* \"#utility.yul\":13509:13527   */\n      add\n        /* \"#utility.yul\":13500:13506   */\n      dup5\n        /* \"#utility.yul\":13456:13528   */\n      tag_294\n      jump\t// in\n    tag_487:\n        /* \"#utility.yul\":13203:13535   */\n      swap4\n      swap3\n      pop\n      pop\n      pop\n      jump\t// out\n        /* \"#utility.yul\":13541:13873   */\n    tag_116:\n        /* \"#utility.yul\":13662:13666   */\n      0x00\n        /* \"#utility.yul\":13700:13702   */\n      0x40\n        /* \"#utility.yul\":13689:13698   */\n      dup3\n        /* \"#utility.yul\":13685:13703   */\n      add\n        /* \"#utility.yul\":13677:13703   */\n      swap1\n      pop\n        /* \"#utility.yul\":13713:13784   */\n      tag_489\n        /* \"#utility.yul\":13781:13782   */\n      0x00\n        /* \"#utility.yul\":13770:13779   */\n      dup4\n        /* \"#utility.yul\":13766:13783   */\n      add\n        /* \"#utility.yul\":13757:13763   */\n      dup6\n        /* \"#utility.yul\":13713:13784   */\n      tag_273\n      jump\t// in\n    tag_489:\n        /* \"#utility.yul\":13794:13866   */\n      tag_490\n        /* \"#utility.yul\":13862:13864   */\n      0x20\n        /* \"#utility.yul\":13851:13860   */\n      dup4\n        /* \"#utility.yul\":13847:13865   */\n      add\n        /* \"#utility.yul\":13838:13844   */\n      dup5\n        /* \"#utility.yul\":13794:13866   */\n      tag_273\n      jump\t// in\n    tag_490:\n        /* \"#utility.yul\":13541:13873   */\n      swap4\n      swap3\n      pop\n      pop\n      pop\n      jump\t// out\n        /* \"#utility.yul\":13879:14211   */\n    tag_125:\n        /* \"#utility.yul\":14000:14004   */\n      0x00\n        /* \"#utility.yul\":14038:14040   */\n      0x40\n        /* \"#utility.yul\":14027:14036   */\n      dup3\n        /* \"#utility.yul\":14023:14041   */\n      add\n        /* \"#utility.yul\":14015:14041   */\n      swap1\n      pop\n        /* \"#utility.yul\":14051:14122   */\n      tag_492\n        /* \"#utility.yul\":14119:14120   */\n      0x00\n        /* \"#utility.yul\":14108:14117   */\n      dup4\n        /* \"#utility.yul\":14104:14121   */\n      add\n        /* \"#utility.yul\":14095:14101   */\n      dup6\n        /* \"#utility.yul\":14051:14122   */\n      tag_290\n      jump\t// in\n    tag_492:\n        /* \"#utility.yul\":14132:14204   */\n      tag_493\n        /* \"#utility.yul\":14200:14202   */\n      0x20\n        /* \"#utility.yul\":14189:14198   */\n      dup4\n        /* \"#utility.yul\":14185:14203   */\n      add\n        /* \"#utility.yul\":14176:14182   */\n      dup5\n        /* \"#utility.yul\":14132:14204   */\n      tag_290\n      jump\t// in\n    tag_493:\n        /* \"#utility.yul\":13879:14211   */\n      swap4\n      swap3\n      pop\n      pop\n      pop\n      jump\t// out\n        /* \"#utility.yul\":14217:14549   */\n    tag_133:\n        /* \"#utility.yul\":14338:14342   */\n      0x00\n        /* \"#utility.yul\":14376:14378   */\n      0x40\n        /* \"#utility.yul\":14365:14374   */\n      dup3\n        /* \"#utility.yul\":14361:14379   */\n      add\n        /* \"#utility.yul\":14353:14379   */\n      swap1\n      pop\n        /* \"#utility.yul\":14389:14460   */\n      tag_495\n        /* \"#utility.yul\":14457:14458   */\n      0x00\n        /* \"#utility.yul\":14446:14455   */\n      dup4\n        /* \"#utility.yul\":14442:14459   */\n      add\n        /* \"#utility.yul\":14433:14439   */\n      dup6\n        /* \"#utility.yul\":14389:14460   */\n      tag_286\n      jump\t// in\n    tag_495:\n        /* \"#utility.yul\":14470:14542   */\n      tag_496\n        /* \"#utility.yul\":14538:14540   */\n      0x20\n        /* \"#utility.yul\":14527:14536   */\n      dup4\n        /* \"#utility.yul\":14523:14541   */\n      add\n        /* \"#utility.yul\":14514:14520   */\n      dup5\n        /* \"#utility.yul\":14470:14542   */\n      tag_286\n      jump\t// in\n    tag_496:\n        /* \"#utility.yul\":14217:14549   */\n      swap4\n      swap3\n      pop\n      pop\n      pop\n      jump\t// out\n        /* \"#utility.yul\":14555:14672   */\n    tag_299:\n        /* \"#utility.yul\":14664:14665   */\n      0x00\n        /* \"#utility.yul\":14661:14662   */\n      0x00\n        /* \"#utility.yul\":14654:14666   */\n      revert\n        /* \"#utility.yul\":14678:14780   */\n    tag_300:\n        /* \"#utility.yul\":14719:14725   */\n      0x00\n        /* \"#utility.yul\":14770:14772   */\n      0x1f\n        /* \"#utility.yul\":14766:14773   */\n      not\n        /* \"#utility.yul\":14761:14763   */\n      0x1f\n        /* \"#utility.yul\":14754:14759   */\n      dup4\n        /* \"#utility.yul\":14750:14764   */\n      add\n        /* \"#utility.yul\":14746:14774   */\n      and\n        /* \"#utility.yul\":14736:14774   */\n      swap1\n      pop\n        /* \"#utility.yul\":14678:14780   */\n      swap2\n      swap1\n      pop\n      jump\t// out\n        /* \"#utility.yul\":14786:14966   */\n    tag_164:\n        /* \"#utility.yul\":14834:14911   */\n      0x4e487b7100000000000000000000000000000000000000000000000000000000\n        /* \"#utility.yul\":14831:14832   */\n      0x00\n        /* \"#utility.yul\":14824:14912   */\n      mstore\n        /* \"#utility.yul\":14931:14935   */\n      0x41\n        /* \"#utility.yul\":14928:14929   */\n      0x04\n        /* \"#utility.yul\":14921:14936   */\n      mstore\n        /* \"#utility.yul\":14955:14959   */\n      0x24\n        /* \"#utility.yul\":14952:14953   */\n      0x00\n        /* \"#utility.yul\":14945:14960   */\n      revert\n        /* \"#utility.yul\":14972:15253   */\n    tag_301:\n        /* \"#utility.yul\":15055:15082   */\n      tag_501\n        /* \"#utility.yul\":15077:15081   */\n      dup3\n        /* \"#utility.yul\":15055:15082   */\n      tag_300\n      jump\t// in\n    tag_501:\n        /* \"#utility.yul\":15047:15053   */\n      dup2\n        /* \"#utility.yul\":15043:15083   */\n      add\n        /* \"#utility.yul\":15185:15191   */\n      dup2\n        /* \"#utility.yul\":15173:15183   */\n      dup2\n        /* \"#utility.yul\":15170:15192   */\n      lt\n        /* \"#utility.yul\":15149:15167   */\n      0xffffffffffffffff\n        /* \"#utility.yul\":15137:15147   */\n      dup3\n        /* \"#utility.yul\":15134:15168   */\n      gt\n        /* \"#utility.yul\":15131:15193   */\n      or\n        /* \"#utility.yul\":15128:15216   */\n      iszero\n      tag_502\n      jumpi\n        /* \"#utility.yul\":15196:15214   */\n      tag_503\n      tag_164\n      jump\t// in\n    tag_503:\n        /* \"#utility.yul\":15128:15216   */\n    tag_502:\n        /* \"#utility.yul\":15236:15246   */\n      dup1\n        /* \"#utility.yul\":15232:15234   */\n      0x40\n        /* \"#utility.yul\":15225:15247   */\n      mstore\n        /* \"#utility.yul\":15015:15253   */\n      pop\n        /* \"#utility.yul\":14972:15253   */\n      pop\n      pop\n      jump\t// out\n        /* \"#utility.yul\":15259:15388   */\n    tag_302:\n        /* \"#utility.yul\":15293:15299   */\n      0x00\n        /* \"#utility.yul\":15320:15340   */\n      tag_505\n      tag_257\n      jump\t// in\n    tag_505:\n        /* \"#utility.yul\":15310:15340   */\n      swap1\n      pop\n        /* \"#utility.yul\":15349:15382   */\n      tag_506\n        /* \"#utility.yul\":15377:15381   */\n      dup3\n        /* \"#utility.yul\":15369:15375   */\n      dup3\n        /* \"#utility.yul\":15349:15382   */\n      tag_301\n      jump\t// in\n    tag_506:\n        /* \"#utility.yul\":15259:15388   */\n      swap2\n      swap1\n      pop\n      jump\t// out\n        /* \"#utility.yul\":15394:15511   */\n    tag_303:\n        /* \"#utility.yul\":15503:15504   */\n      0x00\n        /* \"#utility.yul\":15500:15501   */\n      0x00\n        /* \"#utility.yul\":15493:15505   */\n      revert\n        /* \"#utility.yul\":15517:15618   */\n    tag_304:\n        /* \"#utility.yul\":15553:15560   */\n      0x00\n        /* \"#utility.yul\":15593:15611   */\n      0xffffffffffffffff\n        /* \"#utility.yul\":15586:15591   */\n      dup3\n        /* \"#utility.yul\":15582:15612   */\n      and\n        /* \"#utility.yul\":15571:15612   */\n      swap1\n      pop\n        /* \"#utility.yul\":15517:15618   */\n      swap2\n      swap1\n      pop\n      jump\t// out\n        /* \"#utility.yul\":15624:15744   */\n    tag_305:\n        /* \"#utility.yul\":15696:15719   */\n      tag_510\n        /* \"#utility.yul\":15713:15718   */\n      dup2\n        /* \"#utility.yul\":15696:15719   */\n      tag_304\n      jump\t// in\n    tag_510:\n        /* \"#utility.yul\":15689:15694   */\n      dup2\n        /* \"#utility.yul\":15686:15720   */\n      eq\n        /* \"#utility.yul\":15676:15738   */\n      tag_511\n      jumpi\n        /* \"#utility.yul\":15734:15735   */\n      0x00\n        /* \"#utility.yul\":15731:15732   */\n      0x00\n        /* \"#utility.yul\":15724:15736   */\n      revert\n        /* \"#utility.yul\":15676:15738   */\n    tag_511:\n        /* \"#utility.yul\":15624:15744   */\n      pop\n      jump\t// out\n        /* \"#utility.yul\":15750:15887   */\n    tag_306:\n        /* \"#utility.yul\":15795:15800   */\n      0x00\n        /* \"#utility.yul\":15833:15839   */\n      dup2\n        /* \"#utility.yul\":15820:15840   */\n      calldataload\n        /* \"#utility.yul\":15811:15840   */\n      swap1\n      pop\n        /* \"#utility.yul\":15849:15881   */\n      tag_513\n        /* \"#utility.yul\":15875:15880   */\n      dup2\n        /* \"#utility.yul\":15849:15881   */\n      tag_305\n      jump\t// in\n    tag_513:\n        /* \"#utility.yul\":15750:15887   */\n      swap3\n      swap2\n      pop\n      pop\n      jump\t// out\n        /* \"#utility.yul\":15893:16010   */\n    tag_307:\n        /* \"#utility.yul\":16002:16003   */\n      0x00\n        /* \"#utility.yul\":15999:16000   */\n      0x00\n        /* \"#utility.yul\":15992:16004   */\n      revert\n        /* \"#utility.yul\":16016:16323   */\n    tag_308:\n        /* \"#utility.yul\":16077:16081   */\n      0x00\n        /* \"#utility.yul\":16167:16185   */\n      0xffffffffffffffff\n        /* \"#utility.yul\":16159:16165   */\n      dup3\n        /* \"#utility.yul\":16156:16186   */\n      gt\n        /* \"#utility.yul\":16153:16209   */\n      iszero\n      tag_516\n      jumpi\n        /* \"#utility.yul\":16189:16207   */\n      tag_517\n      tag_164\n      jump\t// in\n    tag_517:\n        /* \"#utility.yul\":16153:16209   */\n    tag_516:\n        /* \"#utility.yul\":16227:16256   */\n      tag_518\n        /* \"#utility.yul\":16249:16255   */\n      dup3\n        /* \"#utility.yul\":16227:16256   */\n      tag_300\n      jump\t// in\n    tag_518:\n        /* \"#utility.yul\":16219:16256   */\n      swap1\n      pop\n        /* \"#utility.yul\":16311:16315   */\n      0x20\n        /* \"#utility.yul\":16305:16309   */\n      dup2\n        /* \"#utility.yul\":16301:16316   */\n      add\n        /* \"#utility.yul\":16293:16316   */\n      swap1\n      pop\n        /* \"#utility.yul\":16016:16323   */\n      swap2\n      swap1\n      pop\n      jump\t// out\n        /* \"#utility.yul\":16329:16477   */\n    tag_309:\n        /* \"#utility.yul\":16427:16433   */\n      dup3\n        /* \"#utility.yul\":16422:16425   */\n      dup2\n        /* \"#utility.yul\":16417:16420   */\n      dup4\n        /* \"#utility.yul\":16404:16434   */\n      calldatacopy\n        /* \"#utility.yul\":16468:16469   */\n      0x00\n        /* \"#utility.yul\":16459:16465   */\n      dup4\n        /* \"#utility.yul\":16454:16457   */\n      dup4\n        /* \"#utility.yul\":16450:16466   */\n      add\n        /* \"#utility.yul\":16443:16470   */\n      mstore\n        /* \"#utility.yul\":16329:16477   */\n      pop\n      pop\n      pop\n      jump\t// out\n        /* \"#utility.yul\":16483:16906   */\n    tag_310:\n        /* \"#utility.yul\":16560:16565   */\n      0x00\n        /* \"#utility.yul\":16585:16650   */\n      tag_521\n        /* \"#utility.yul\":16601:16649   */\n      tag_522\n        /* \"#utility.yul\":16642:16648   */\n      dup5\n        /* \"#utility.yul\":16601:16649   */\n      tag_308\n      jump\t// in\n    tag_522:\n        /* \"#utility.yul\":16585:16650   */\n      tag_302\n      jump\t// in\n    tag_521:\n        /* \"#utility.yul\":16576:16650   */\n      swap1\n      pop\n        /* \"#utility.yul\":16673:16679   */\n      dup3\n        /* \"#utility.yul\":16666:16671   */\n      dup2\n        /* \"#utility.yul\":16659:16680   */\n      mstore\n        /* \"#utility.yul\":16711:16715   */\n      0x20\n        /* \"#utility.yul\":16704:16709   */\n      dup2\n        /* \"#utility.yul\":16700:16716   */\n      add\n        /* \"#utility.yul\":16749:16752   */\n      dup5\n        /* \"#utility.yul\":16740:16746   */\n      dup5\n        /* \"#utility.yul\":16735:16738   */\n      dup5\n        /* \"#utility.yul\":16731:16747   */\n      add\n        /* \"#utility.yul\":16728:16753   */\n      gt\n        /* \"#utility.yul\":16725:16837   */\n      iszero\n      tag_523\n      jumpi\n        /* \"#utility.yul\":16756:16835   */\n      tag_524\n      tag_307\n      jump\t// in\n    tag_524:\n        /* \"#utility.yul\":16725:16837   */\n    tag_523:\n        /* \"#utility.yul\":16846:16900   */\n      tag_525\n        /* \"#utility.yul\":16893:16899   */\n      dup5\n        /* \"#utility.yul\":16888:16891   */\n      dup3\n        /* \"#utility.yul\":16883:16886   */\n      dup6\n        /* \"#utility.yul\":16846:16900   */\n      tag_309\n      jump\t// in\n    tag_525:\n        /* \"#utility.yul\":16566:16906   */\n      pop\n        /* \"#utility.yul\":16483:16906   */\n      swap4\n      swap3\n      pop\n      pop\n      pop\n      jump\t// out\n        /* \"#utility.yul\":16925:17263   */\n    tag_311:\n        /* \"#utility.yul\":16980:16985   */\n      0x00\n        /* \"#utility.yul\":17029:17032   */\n      dup3\n        /* \"#utility.yul\":17022:17026   */\n      0x1f\n        /* \"#utility.yul\":17014:17020   */\n      dup4\n        /* \"#utility.yul\":17010:17027   */\n      add\n        /* \"#utility.yul\":17006:17033   */\n      slt\n        /* \"#utility.yul\":16996:17118   */\n      tag_527\n      jumpi\n        /* \"#utility.yul\":17037:17116   */\n      tag_528\n      tag_279\n      jump\t// in\n    tag_528:\n        /* \"#utility.yul\":16996:17118   */\n    tag_527:\n        /* \"#utility.yul\":17154:17160   */\n      dup2\n        /* \"#utility.yul\":17141:17161   */\n      calldataload\n        /* \"#utility.yul\":17179:17257   */\n      tag_529\n        /* \"#utility.yul\":17253:17256   */\n      dup5\n        /* \"#utility.yul\":17245:17251   */\n      dup3\n        /* \"#utility.yul\":17238:17242   */\n      0x20\n        /* \"#utility.yul\":17230:17236   */\n      dup7\n        /* \"#utility.yul\":17226:17243   */\n      add\n        /* \"#utility.yul\":17179:17257   */\n      tag_310\n      jump\t// in\n    tag_529:\n        /* \"#utility.yul\":17170:17257   */\n      swap2\n      pop\n        /* \"#utility.yul\":16986:17263   */\n      pop\n        /* \"#utility.yul\":16925:17263   */\n      swap3\n      swap2\n      pop\n      pop\n      jump\t// out\n        /* \"#utility.yul\":17269:17611   */\n    tag_312:\n        /* \"#utility.yul\":17377:17381   */\n      0x00\n        /* \"#utility.yul\":17467:17485   */\n      0xffffffffffffffff\n        /* \"#utility.yul\":17459:17465   */\n      dup3\n        /* \"#utility.yul\":17456:17486   */\n      gt\n        /* \"#utility.yul\":17453:17509   */\n      iszero\n      tag_531\n      jumpi\n        /* \"#utility.yul\":17489:17507   */\n      tag_532\n      tag_164\n      jump\t// in\n    tag_532:\n        /* \"#utility.yul\":17453:17509   */\n    tag_531:\n        /* \"#utility.yul\":17539:17543   */\n      0x20\n        /* \"#utility.yul\":17531:17537   */\n      dup3\n        /* \"#utility.yul\":17527:17544   */\n      mul\n        /* \"#utility.yul\":17519:17544   */\n      swap1\n      pop\n        /* \"#utility.yul\":17599:17603   */\n      0x20\n        /* \"#utility.yul\":17593:17597   */\n      dup2\n        /* \"#utility.yul\":17589:17604   */\n      add\n        /* \"#utility.yul\":17581:17604   */\n      swap1\n      pop\n        /* \"#utility.yul\":17269:17611   */\n      swap2\n      swap1\n      pop\n      jump\t// out\n        /* \"#utility.yul\":17653:18236   */\n    tag_313:\n        /* \"#utility.yul\":17733:17738   */\n      0x00\n        /* \"#utility.yul\":17777:17781   */\n      0x40\n        /* \"#utility.yul\":17765:17774   */\n      dup3\n        /* \"#utility.yul\":17760:17763   */\n      dup5\n        /* \"#utility.yul\":17756:17775   */\n      sub\n        /* \"#utility.yul\":17752:17782   */\n      slt\n        /* \"#utility.yul\":17749:17866   */\n      iszero\n      tag_534\n      jumpi\n        /* \"#utility.yul\":17785:17864   */\n      tag_535\n      tag_299\n      jump\t// in\n    tag_535:\n        /* \"#utility.yul\":17749:17866   */\n    tag_534:\n        /* \"#utility.yul\":17884:17905   */\n      tag_536\n        /* \"#utility.yul\":17900:17904   */\n      0x40\n        /* \"#utility.yul\":17884:17905   */\n      tag_302\n      jump\t// in\n    tag_536:\n        /* \"#utility.yul\":17875:17905   */\n      swap1\n      pop\n        /* \"#utility.yul\":17965:17966   */\n      0x00\n        /* \"#utility.yul\":18005:18054   */\n      tag_537\n        /* \"#utility.yul\":18050:18053   */\n      dup5\n        /* \"#utility.yul\":18041:18047   */\n      dup3\n        /* \"#utility.yul\":18030:18039   */\n      dup6\n        /* \"#utility.yul\":18026:18048   */\n      add\n        /* \"#utility.yul\":18005:18054   */\n      tag_289\n      jump\t// in\n    tag_537:\n        /* \"#utility.yul\":17998:18002   */\n      0x00\n        /* \"#utility.yul\":17991:17996   */\n      dup4\n        /* \"#utility.yul\":17987:18003   */\n      add\n        /* \"#utility.yul\":17980:18055   */\n      mstore\n        /* \"#utility.yul\":17915:18066   */\n      pop\n        /* \"#utility.yul\":18127:18129   */\n      0x20\n        /* \"#utility.yul\":18168:18217   */\n      tag_538\n        /* \"#utility.yul\":18213:18216   */\n      dup5\n        /* \"#utility.yul\":18204:18210   */\n      dup3\n        /* \"#utility.yul\":18193:18202   */\n      dup6\n        /* \"#utility.yul\":18189:18211   */\n      add\n        /* \"#utility.yul\":18168:18217   */\n      tag_270\n      jump\t// in\n    tag_538:\n        /* \"#utility.yul\":18161:18165   */\n      0x20\n        /* \"#utility.yul\":18154:18159   */\n      dup4\n        /* \"#utility.yul\":18150:18166   */\n      add\n        /* \"#utility.yul\":18143:18218   */\n      mstore\n        /* \"#utility.yul\":18076:18229   */\n      pop\n        /* \"#utility.yul\":17653:18236   */\n      swap3\n      swap2\n      pop\n      pop\n      jump\t// out\n        /* \"#utility.yul\":18280:19083   */\n    tag_314:\n        /* \"#utility.yul\":18407:18412   */\n      0x00\n        /* \"#utility.yul\":18432:18544   */\n      tag_540\n        /* \"#utility.yul\":18448:18543   */\n      tag_541\n        /* \"#utility.yul\":18536:18542   */\n      dup5\n        /* \"#utility.yul\":18448:18543   */\n      tag_312\n      jump\t// in\n    tag_541:\n        /* \"#utility.yul\":18432:18544   */\n      tag_302\n      jump\t// in\n    tag_540:\n        /* \"#utility.yul\":18423:18544   */\n      swap1\n      pop\n        /* \"#utility.yul\":18564:18569   */\n      dup1\n        /* \"#utility.yul\":18593:18599   */\n      dup4\n        /* \"#utility.yul\":18586:18591   */\n      dup3\n        /* \"#utility.yul\":18579:18600   */\n      mstore\n        /* \"#utility.yul\":18627:18631   */\n      0x20\n        /* \"#utility.yul\":18620:18625   */\n      dup3\n        /* \"#utility.yul\":18616:18632   */\n      add\n        /* \"#utility.yul\":18609:18632   */\n      swap1\n      pop\n        /* \"#utility.yul\":18680:18684   */\n      0x40\n        /* \"#utility.yul\":18672:18678   */\n      dup5\n        /* \"#utility.yul\":18668:18685   */\n      mul\n        /* \"#utility.yul\":18660:18666   */\n      dup4\n        /* \"#utility.yul\":18656:18686   */\n      add\n        /* \"#utility.yul\":18709:18712   */\n      dup6\n        /* \"#utility.yul\":18701:18707   */\n      dup2\n        /* \"#utility.yul\":18698:18713   */\n      gt\n        /* \"#utility.yul\":18695:18817   */\n      iszero\n      tag_542\n      jumpi\n        /* \"#utility.yul\":18728:18807   */\n      tag_543\n      tag_281\n      jump\t// in\n    tag_543:\n        /* \"#utility.yul\":18695:18817   */\n    tag_542:\n        /* \"#utility.yul\":18843:18849   */\n      dup4\n        /* \"#utility.yul\":18826:19077   */\n    tag_544:\n        /* \"#utility.yul\":18860:18866   */\n      dup2\n        /* \"#utility.yul\":18855:18858   */\n      dup2\n        /* \"#utility.yul\":18852:18867   */\n      lt\n        /* \"#utility.yul\":18826:19077   */\n      iszero\n      tag_546\n      jumpi\n        /* \"#utility.yul\":18935:18938   */\n      dup1\n        /* \"#utility.yul\":18964:19032   */\n      tag_547\n        /* \"#utility.yul\":19028:19031   */\n      dup9\n        /* \"#utility.yul\":19016:19026   */\n      dup3\n        /* \"#utility.yul\":18964:19032   */\n      tag_313\n      jump\t// in\n    tag_547:\n        /* \"#utility.yul\":18959:18962   */\n      dup5\n        /* \"#utility.yul\":18952:19033   */\n      mstore\n        /* \"#utility.yul\":19062:19066   */\n      0x20\n        /* \"#utility.yul\":19057:19060   */\n      dup5\n        /* \"#utility.yul\":19053:19067   */\n      add\n        /* \"#utility.yul\":19046:19067   */\n      swap4\n      pop\n        /* \"#utility.yul\":18902:19077   */\n      pop\n        /* \"#utility.yul\":18886:18890   */\n      0x40\n        /* \"#utility.yul\":18881:18884   */\n      dup2\n        /* \"#utility.yul\":18877:18891   */\n      add\n        /* \"#utility.yul\":18870:18891   */\n      swap1\n      pop\n        /* \"#utility.yul\":18826:19077   */\n      jump(tag_544)\n    tag_546:\n        /* \"#utility.yul\":18830:18851   */\n      pop\n        /* \"#utility.yul\":18413:19083   */\n      pop\n      pop\n        /* \"#utility.yul\":18280:19083   */\n      swap4\n      swap3\n      pop\n      pop\n      pop\n      jump\t// out\n        /* \"#utility.yul\":19127:19559   */\n    tag_315:\n        /* \"#utility.yul\":19229:19234   */\n      0x00\n        /* \"#utility.yul\":19278:19281   */\n      dup3\n        /* \"#utility.yul\":19271:19275   */\n      0x1f\n        /* \"#utility.yul\":19263:19269   */\n      dup4\n        /* \"#utility.yul\":19259:19276   */\n      add\n        /* \"#utility.yul\":19255:19282   */\n      slt\n        /* \"#utility.yul\":19245:19367   */\n      tag_549\n      jumpi\n        /* \"#utility.yul\":19286:19365   */\n      tag_550\n      tag_279\n      jump\t// in\n    tag_550:\n        /* \"#utility.yul\":19245:19367   */\n    tag_549:\n        /* \"#utility.yul\":19403:19409   */\n      dup2\n        /* \"#utility.yul\":19390:19410   */\n      calldataload\n        /* \"#utility.yul\":19428:19553   */\n      tag_551\n        /* \"#utility.yul\":19549:19552   */\n      dup5\n        /* \"#utility.yul\":19541:19547   */\n      dup3\n        /* \"#utility.yul\":19534:19538   */\n      0x20\n        /* \"#utility.yul\":19526:19532   */\n      dup7\n        /* \"#utility.yul\":19522:19539   */\n      add\n        /* \"#utility.yul\":19428:19553   */\n      tag_314\n      jump\t// in\n    tag_551:\n        /* \"#utility.yul\":19419:19553   */\n      swap2\n      pop\n        /* \"#utility.yul\":19235:19559   */\n      pop\n        /* \"#utility.yul\":19127:19559   */\n      swap3\n      swap2\n      pop\n      pop\n      jump\t// out\n        /* \"#utility.yul\":19601:21252   */\n    tag_316:\n        /* \"#utility.yul\":19681:19686   */\n      0x00\n        /* \"#utility.yul\":19725:19729   */\n      0xa0\n        /* \"#utility.yul\":19713:19722   */\n      dup3\n        /* \"#utility.yul\":19708:19711   */\n      dup5\n        /* \"#utility.yul\":19704:19723   */\n      sub\n        /* \"#utility.yul\":19700:19730   */\n      slt\n        /* \"#utility.yul\":19697:19814   */\n      iszero\n      tag_553\n      jumpi\n        /* \"#utility.yul\":19733:19812   */\n      tag_554\n      tag_299\n      jump\t// in\n    tag_554:\n        /* \"#utility.yul\":19697:19814   */\n    tag_553:\n        /* \"#utility.yul\":19832:19853   */\n      tag_555\n        /* \"#utility.yul\":19848:19852   */\n      0xa0\n        /* \"#utility.yul\":19832:19853   */\n      tag_302\n      jump\t// in\n    tag_555:\n        /* \"#utility.yul\":19823:19853   */\n      swap1\n      pop\n        /* \"#utility.yul\":19917:19918   */\n      0x00\n        /* \"#utility.yul\":19957:20006   */\n      tag_556\n        /* \"#utility.yul\":20002:20005   */\n      dup5\n        /* \"#utility.yul\":19993:19999   */\n      dup3\n        /* \"#utility.yul\":19982:19991   */\n      dup6\n        /* \"#utility.yul\":19978:20000   */\n      add\n        /* \"#utility.yul\":19957:20006   */\n      tag_267\n      jump\t// in\n    tag_556:\n        /* \"#utility.yul\":19950:19954   */\n      0x00\n        /* \"#utility.yul\":19943:19948   */\n      dup4\n        /* \"#utility.yul\":19939:19955   */\n      add\n        /* \"#utility.yul\":19932:20007   */\n      mstore\n        /* \"#utility.yul\":19863:20018   */\n      pop\n        /* \"#utility.yul\":20092:20094   */\n      0x20\n        /* \"#utility.yul\":20133:20181   */\n      tag_557\n        /* \"#utility.yul\":20177:20180   */\n      dup5\n        /* \"#utility.yul\":20168:20174   */\n      dup3\n        /* \"#utility.yul\":20157:20166   */\n      dup6\n        /* \"#utility.yul\":20153:20175   */\n      add\n        /* \"#utility.yul\":20133:20181   */\n      tag_306\n      jump\t// in\n    tag_557:\n        /* \"#utility.yul\":20126:20130   */\n      0x20\n        /* \"#utility.yul\":20119:20124   */\n      dup4\n        /* \"#utility.yul\":20115:20131   */\n      add\n        /* \"#utility.yul\":20108:20182   */\n      mstore\n        /* \"#utility.yul\":20028:20193   */\n      pop\n        /* \"#utility.yul\":20282:20284   */\n      0x40\n        /* \"#utility.yul\":20271:20280   */\n      dup3\n        /* \"#utility.yul\":20267:20285   */\n      add\n        /* \"#utility.yul\":20254:20286   */\n      calldataload\n        /* \"#utility.yul\":20313:20331   */\n      0xffffffffffffffff\n        /* \"#utility.yul\":20305:20311   */\n      dup2\n        /* \"#utility.yul\":20302:20332   */\n      gt\n        /* \"#utility.yul\":20299:20416   */\n      iszero\n      tag_558\n      jumpi\n        /* \"#utility.yul\":20335:20414   */\n      tag_559\n      tag_303\n      jump\t// in\n    tag_559:\n        /* \"#utility.yul\":20299:20416   */\n    tag_558:\n        /* \"#utility.yul\":20455:20513   */\n      tag_560\n        /* \"#utility.yul\":20509:20512   */\n      dup5\n        /* \"#utility.yul\":20500:20506   */\n      dup3\n        /* \"#utility.yul\":20489:20498   */\n      dup6\n        /* \"#utility.yul\":20485:20507   */\n      add\n        /* \"#utility.yul\":20455:20513   */\n      tag_311\n      jump\t// in\n    tag_560:\n        /* \"#utility.yul\":20448:20452   */\n      0x40\n        /* \"#utility.yul\":20441:20446   */\n      dup4\n        /* \"#utility.yul\":20437:20453   */\n      add\n        /* \"#utility.yul\":20430:20514   */\n      mstore\n        /* \"#utility.yul\":20203:20525   */\n      pop\n        /* \"#utility.yul\":20612:20614   */\n      0x60\n        /* \"#utility.yul\":20601:20610   */\n      dup3\n        /* \"#utility.yul\":20597:20615   */\n      add\n        /* \"#utility.yul\":20584:20616   */\n      calldataload\n        /* \"#utility.yul\":20643:20661   */\n      0xffffffffffffffff\n        /* \"#utility.yul\":20635:20641   */\n      dup2\n        /* \"#utility.yul\":20632:20662   */\n      gt\n        /* \"#utility.yul\":20629:20746   */\n      iszero\n      tag_561\n      jumpi\n        /* \"#utility.yul\":20665:20744   */\n      tag_562\n      tag_303\n      jump\t// in\n    tag_562:\n        /* \"#utility.yul\":20629:20746   */\n    tag_561:\n        /* \"#utility.yul\":20785:20843   */\n      tag_563\n        /* \"#utility.yul\":20839:20842   */\n      dup5\n        /* \"#utility.yul\":20830:20836   */\n      dup3\n        /* \"#utility.yul\":20819:20828   */\n      dup6\n        /* \"#utility.yul\":20815:20837   */\n      add\n        /* \"#utility.yul\":20785:20843   */\n      tag_311\n      jump\t// in\n    tag_563:\n        /* \"#utility.yul\":20778:20782   */\n      0x60\n        /* \"#utility.yul\":20771:20776   */\n      dup4\n        /* \"#utility.yul\":20767:20783   */\n      add\n        /* \"#utility.yul\":20760:20844   */\n      mstore\n        /* \"#utility.yul\":20535:20855   */\n      pop\n        /* \"#utility.yul\":20954:20957   */\n      0x80\n        /* \"#utility.yul\":20943:20952   */\n      dup3\n        /* \"#utility.yul\":20939:20958   */\n      add\n        /* \"#utility.yul\":20926:20959   */\n      calldataload\n        /* \"#utility.yul\":20986:21004   */\n      0xffffffffffffffff\n        /* \"#utility.yul\":20978:20984   */\n      dup2\n        /* \"#utility.yul\":20975:21005   */\n      gt\n        /* \"#utility.yul\":20972:21089   */\n      iszero\n      tag_564\n      jumpi\n        /* \"#utility.yul\":21008:21087   */\n      tag_565\n      tag_303\n      jump\t// in\n    tag_565:\n        /* \"#utility.yul\":20972:21089   */\n    tag_564:\n        /* \"#utility.yul\":21128:21233   */\n      tag_566\n        /* \"#utility.yul\":21229:21232   */\n      dup5\n        /* \"#utility.yul\":21220:21226   */\n      dup3\n        /* \"#utility.yul\":21209:21218   */\n      dup6\n        /* \"#utility.yul\":21205:21227   */\n      add\n        /* \"#utility.yul\":21128:21233   */\n      tag_315\n      jump\t// in\n    tag_566:\n        /* \"#utility.yul\":21121:21125   */\n      0x80\n        /* \"#utility.yul\":21114:21119   */\n      dup4\n        /* \"#utility.yul\":21110:21126   */\n      add\n        /* \"#utility.yul\":21103:21234   */\n      mstore\n        /* \"#utility.yul\":20865:21245   */\n      pop\n        /* \"#utility.yul\":19601:21252   */\n      swap3\n      swap2\n      pop\n      pop\n      jump\t// out\n        /* \"#utility.yul\":21258:21487   */\n    tag_143:\n        /* \"#utility.yul\":21372:21381   */\n      0x00\n        /* \"#utility.yul\":21406:21480   */\n      tag_568\n        /* \"#utility.yul\":21465:21479   */\n      calldatasize\n        /* \"#utility.yul\":21458:21463   */\n      dup4\n        /* \"#utility.yul\":21406:21480   */\n      tag_316\n      jump\t// in\n    tag_568:\n        /* \"#utility.yul\":21393:21480   */\n      swap1\n      pop\n        /* \"#utility.yul\":21258:21487   */\n      swap2\n      swap1\n      pop\n      jump\t// out\n        /* \"#utility.yul\":21493:21640   */\n    tag_317:\n        /* \"#utility.yul\":21594:21605   */\n      0x00\n        /* \"#utility.yul\":21631:21634   */\n      dup2\n        /* \"#utility.yul\":21616:21634   */\n      swap1\n      pop\n        /* \"#utility.yul\":21493:21640   */\n      swap3\n      swap2\n      pop\n      pop\n      jump\t// out\n        /* \"#utility.yul\":21668:21995   */\n    tag_318:\n        /* \"#utility.yul\":21782:21785   */\n      0x00\n        /* \"#utility.yul\":21803:21891   */\n      tag_571\n        /* \"#utility.yul\":21884:21890   */\n      dup4\n        /* \"#utility.yul\":21879:21882   */\n      dup6\n        /* \"#utility.yul\":21803:21891   */\n      tag_317\n      jump\t// in\n    tag_571:\n        /* \"#utility.yul\":21796:21891   */\n      swap4\n      pop\n        /* \"#utility.yul\":21901:21957   */\n      tag_572\n        /* \"#utility.yul\":21950:21956   */\n      dup4\n        /* \"#utility.yul\":21945:21948   */\n      dup6\n        /* \"#utility.yul\":21938:21943   */\n      dup5\n        /* \"#utility.yul\":21901:21957   */\n      tag_309\n      jump\t// in\n    tag_572:\n        /* \"#utility.yul\":21982:21988   */\n      dup3\n        /* \"#utility.yul\":21977:21980   */\n      dup5\n        /* \"#utility.yul\":21973:21989   */\n      add\n        /* \"#utility.yul\":21966:21989   */\n      swap1\n      pop\n        /* \"#utility.yul\":21668:21995   */\n      swap4\n      swap3\n      pop\n      pop\n      pop\n      jump\t// out\n        /* \"#utility.yul\":22001:22292   */\n    tag_153:\n        /* \"#utility.yul\":22141:22144   */\n      0x00\n        /* \"#utility.yul\":22163:22266   */\n      tag_574\n        /* \"#utility.yul\":22262:22265   */\n      dup3\n        /* \"#utility.yul\":22253:22259   */\n      dup5\n        /* \"#utility.yul\":22245:22251   */\n      dup7\n        /* \"#utility.yul\":22163:22266   */\n      tag_318\n      jump\t// in\n    tag_574:\n        /* \"#utility.yul\":22156:22266   */\n      swap2\n      pop\n        /* \"#utility.yul\":22283:22286   */\n      dup2\n        /* \"#utility.yul\":22276:22286   */\n      swap1\n      pop\n        /* \"#utility.yul\":22001:22292   */\n      swap4\n      swap3\n      pop\n      pop\n      pop\n      jump\t// out\n        /* \"#utility.yul\":22298:22441   */\n    tag_319:\n        /* \"#utility.yul\":22355:22360   */\n      0x00\n        /* \"#utility.yul\":22386:22392   */\n      dup2\n        /* \"#utility.yul\":22380:22393   */\n      mload\n        /* \"#utility.yul\":22371:22393   */\n      swap1\n      pop\n        /* \"#utility.yul\":22402:22435   */\n      tag_576\n        /* \"#utility.yul\":22429:22434   */\n      dup2\n        /* \"#utility.yul\":22402:22435   */\n      tag_266\n      jump\t// in\n    tag_576:\n        /* \"#utility.yul\":22298:22441   */\n      swap3\n      swap2\n      pop\n      pop\n      jump\t// out\n        /* \"#utility.yul\":22447:22798   */\n    tag_157:\n        /* \"#utility.yul\":22517:22523   */\n      0x00\n        /* \"#utility.yul\":22566:22568   */\n      0x20\n        /* \"#utility.yul\":22554:22563   */\n      dup3\n        /* \"#utility.yul\":22545:22552   */\n      dup5\n        /* \"#utility.yul\":22541:22564   */\n      sub\n        /* \"#utility.yul\":22537:22569   */\n      slt\n        /* \"#utility.yul\":22534:22653   */\n      iszero\n      tag_578\n      jumpi\n        /* \"#utility.yul\":22572:22651   */\n      tag_579\n      tag_258\n      jump\t// in\n    tag_579:\n        /* \"#utility.yul\":22534:22653   */\n    tag_578:\n        /* \"#utility.yul\":22692:22693   */\n      0x00\n        /* \"#utility.yul\":22717:22781   */\n      tag_580\n        /* \"#utility.yul\":22773:22780   */\n      dup5\n        /* \"#utility.yul\":22764:22770   */\n      dup3\n        /* \"#utility.yul\":22753:22762   */\n      dup6\n        /* \"#utility.yul\":22749:22771   */\n      add\n        /* \"#utility.yul\":22717:22781   */\n      tag_319\n      jump\t// in\n    tag_580:\n        /* \"#utility.yul\":22707:22781   */\n      swap2\n      pop\n        /* \"#utility.yul\":22663:22791   */\n      pop\n        /* \"#utility.yul\":22447:22798   */\n      swap3\n      swap2\n      pop\n      pop\n      jump\t// out\n        /* \"#utility.yul\":22804:22883   */\n    tag_320:\n        /* \"#utility.yul\":22843:22850   */\n      0x00\n        /* \"#utility.yul\":22872:22877   */\n      dup2\n        /* \"#utility.yul\":22861:22877   */\n      swap1\n      pop\n        /* \"#utility.yul\":22804:22883   */\n      swap2\n      swap1\n      pop\n      jump\t// out\n        /* \"#utility.yul\":22889:23046   */\n    tag_321:\n        /* \"#utility.yul\":22994:23039   */\n      tag_583\n        /* \"#utility.yul\":23014:23038   */\n      tag_584\n        /* \"#utility.yul\":23032:23037   */\n      dup3\n        /* \"#utility.yul\":23014:23038   */\n      tag_265\n      jump\t// in\n    tag_584:\n        /* \"#utility.yul\":22994:23039   */\n      tag_320\n      jump\t// in\n    tag_583:\n        /* \"#utility.yul\":22989:22992   */\n      dup3\n        /* \"#utility.yul\":22982:23040   */\n      mstore\n        /* \"#utility.yul\":22889:23046   */\n      pop\n      pop\n      jump\t// out\n        /* \"#utility.yul\":23052:23308   */\n    tag_160:\n        /* \"#utility.yul\":23164:23167   */\n      0x00\n        /* \"#utility.yul\":23179:23254   */\n      tag_586\n        /* \"#utility.yul\":23250:23253   */\n      dup3\n        /* \"#utility.yul\":23241:23247   */\n      dup5\n        /* \"#utility.yul\":23179:23254   */\n      tag_321\n      jump\t// in\n    tag_586:\n        /* \"#utility.yul\":23279:23281   */\n      0x20\n        /* \"#utility.yul\":23274:23277   */\n      dup3\n        /* \"#utility.yul\":23270:23282   */\n      add\n        /* \"#utility.yul\":23263:23282   */\n      swap2\n      pop\n        /* \"#utility.yul\":23299:23302   */\n      dup2\n        /* \"#utility.yul\":23292:23302   */\n      swap1\n      pop\n        /* \"#utility.yul\":23052:23308   */\n      swap3\n      swap2\n      pop\n      pop\n      jump\t// out\n        /* \"#utility.yul\":23314:23494   */\n    tag_171:\n        /* \"#utility.yul\":23362:23439   */\n      0x4e487b7100000000000000000000000000000000000000000000000000000000\n        /* \"#utility.yul\":23359:23360   */\n      0x00\n        /* \"#utility.yul\":23352:23440   */\n      mstore\n        /* \"#utility.yul\":23459:23463   */\n      0x32\n        /* \"#utility.yul\":23456:23457   */\n      0x04\n        /* \"#utility.yul\":23449:23464   */\n      mstore\n        /* \"#utility.yul\":23483:23487   */\n      0x24\n        /* \"#utility.yul\":23480:23481   */\n      0x00\n        /* \"#utility.yul\":23473:23488   */\n      revert\n        /* \"#utility.yul\":23500:23598   */\n    tag_322:\n        /* \"#utility.yul\":23551:23557   */\n      0x00\n        /* \"#utility.yul\":23585:23590   */\n      dup2\n        /* \"#utility.yul\":23579:23591   */\n      mload\n        /* \"#utility.yul\":23569:23591   */\n      swap1\n      pop\n        /* \"#utility.yul\":23500:23598   */\n      swap2\n      swap1\n      pop\n      jump\t// out\n        /* \"#utility.yul\":23604:23720   */\n    tag_323:\n        /* \"#utility.yul\":23655:23659   */\n      0x00\n        /* \"#utility.yul\":23678:23681   */\n      dup2\n        /* \"#utility.yul\":23670:23681   */\n      swap1\n      pop\n        /* \"#utility.yul\":23708:23712   */\n      0x20\n        /* \"#utility.yul\":23703:23706   */\n      dup3\n        /* \"#utility.yul\":23699:23713   */\n      add\n        /* \"#utility.yul\":23691:23713   */\n      swap1\n      pop\n        /* \"#utility.yul\":23604:23720   */\n      swap2\n      swap1\n      pop\n      jump\t// out\n        /* \"#utility.yul\":23726:23880   */\n    tag_324:\n        /* \"#utility.yul\":23769:23780   */\n      0x00\n        /* \"#utility.yul\":23805:23834   */\n      tag_591\n        /* \"#utility.yul\":23829:23832   */\n      dup3\n        /* \"#utility.yul\":23823:23833   */\n      mload\n        /* \"#utility.yul\":23805:23834   */\n      tag_285\n      jump\t// in\n    tag_591:\n        /* \"#utility.yul\":23868:23873   */\n      dup1\n        /* \"#utility.yul\":23844:23873   */\n      swap2\n      pop\n        /* \"#utility.yul\":23781:23880   */\n      pop\n        /* \"#utility.yul\":23726:23880   */\n      swap2\n      swap1\n      pop\n      jump\t// out\n        /* \"#utility.yul\":23886:23993   */\n    tag_325:\n        /* \"#utility.yul\":23930:23938   */\n      0x00\n        /* \"#utility.yul\":23980:23985   */\n      dup3\n        /* \"#utility.yul\":23974:23978   */\n      dup3\n        /* \"#utility.yul\":23970:23986   */\n      shl\n        /* \"#utility.yul\":23949:23986   */\n      swap1\n      pop\n        /* \"#utility.yul\":23886:23993   */\n      swap3\n      swap2\n      pop\n      pop\n      jump\t// out\n        /* \"#utility.yul\":23999:24593   */\n    tag_175:\n        /* \"#utility.yul\":24083:24088   */\n      0x00\n        /* \"#utility.yul\":24114:24152   */\n      tag_594\n        /* \"#utility.yul\":24146:24151   */\n      dup3\n        /* \"#utility.yul\":24114:24152   */\n      tag_322\n      jump\t// in\n    tag_594:\n        /* \"#utility.yul\":24177:24182   */\n      dup3\n        /* \"#utility.yul\":24204:24244   */\n      tag_595\n        /* \"#utility.yul\":24238:24243   */\n      dup5\n        /* \"#utility.yul\":24204:24244   */\n      tag_323\n      jump\t// in\n    tag_595:\n        /* \"#utility.yul\":24192:24244   */\n      swap1\n      pop\n        /* \"#utility.yul\":24263:24298   */\n      tag_596\n        /* \"#utility.yul\":24289:24297   */\n      dup2\n        /* \"#utility.yul\":24263:24298   */\n      tag_324\n      jump\t// in\n    tag_596:\n        /* \"#utility.yul\":24254:24298   */\n      swap3\n      pop\n        /* \"#utility.yul\":24322:24324   */\n      0x0a\n        /* \"#utility.yul\":24314:24320   */\n      dup3\n        /* \"#utility.yul\":24311:24325   */\n      lt\n        /* \"#utility.yul\":24308:24586   */\n      iszero\n      tag_597\n      jumpi\n        /* \"#utility.yul\":24393:24562   */\n      tag_598\n        /* \"#utility.yul\":24478:24544   */\n      0xffffffffffffffffffff00000000000000000000000000000000000000000000\n        /* \"#utility.yul\":24448:24454   */\n      dup4\n        /* \"#utility.yul\":24444:24446   */\n      0x0a\n        /* \"#utility.yul\":24440:24455   */\n      sub\n        /* \"#utility.yul\":24437:24438   */\n      0x08\n        /* \"#utility.yul\":24433:24456   */\n      mul\n        /* \"#utility.yul\":24393:24562   */\n      tag_325\n      jump\t// in\n    tag_598:\n        /* \"#utility.yul\":24370:24375   */\n      dup4\n        /* \"#utility.yul\":24349:24576   */\n      and\n        /* \"#utility.yul\":24340:24576   */\n      swap3\n      pop\n        /* \"#utility.yul\":24308:24586   */\n    tag_597:\n        /* \"#utility.yul\":24089:24593   */\n      pop\n      pop\n        /* \"#utility.yul\":23999:24593   */\n      swap2\n      swap1\n      pop\n      jump\t// out\n        /* \"#utility.yul\":24599:24842   */\n    tag_326:\n        /* \"#utility.yul\":24739:24773   */\n      0x466f7277617264657220616464726573732073657420746f207a65726f202d20\n        /* \"#utility.yul\":24735:24736   */\n      0x00\n        /* \"#utility.yul\":24727:24733   */\n      dup3\n        /* \"#utility.yul\":24723:24737   */\n      add\n        /* \"#utility.yul\":24716:24774   */\n      mstore\n        /* \"#utility.yul\":24808:24834   */\n      0x636f6e7472616374206973206e6f7720494e5345435552450000000000000000\n        /* \"#utility.yul\":24803:24805   */\n      0x20\n        /* \"#utility.yul\":24795:24801   */\n      dup3\n        /* \"#utility.yul\":24791:24806   */\n      add\n        /* \"#utility.yul\":24784:24835   */\n      mstore\n        /* \"#utility.yul\":24599:24842   */\n      pop\n      jump\t// out\n        /* \"#utility.yul\":24848:25214   */\n    tag_327:\n        /* \"#utility.yul\":24990:24993   */\n      0x00\n        /* \"#utility.yul\":25011:25078   */\n      tag_601\n        /* \"#utility.yul\":25075:25077   */\n      0x38\n        /* \"#utility.yul\":25070:25073   */\n      dup4\n        /* \"#utility.yul\":25011:25078   */\n      tag_291\n      jump\t// in\n    tag_601:\n        /* \"#utility.yul\":25004:25078   */\n      swap2\n      pop\n        /* \"#utility.yul\":25087:25180   */\n      tag_602\n        /* \"#utility.yul\":25176:25179   */\n      dup3\n        /* \"#utility.yul\":25087:25180   */\n      tag_326\n      jump\t// in\n    tag_602:\n        /* \"#utility.yul\":25205:25207   */\n      0x40\n        /* \"#utility.yul\":25200:25203   */\n      dup3\n        /* \"#utility.yul\":25196:25208   */\n      add\n        /* \"#utility.yul\":25189:25208   */\n      swap1\n      pop\n        /* \"#utility.yul\":24848:25214   */\n      swap2\n      swap1\n      pop\n      jump\t// out\n        /* \"#utility.yul\":25220:25639   */\n    tag_187:\n        /* \"#utility.yul\":25386:25390   */\n      0x00\n        /* \"#utility.yul\":25424:25426   */\n      0x20\n        /* \"#utility.yul\":25413:25422   */\n      dup3\n        /* \"#utility.yul\":25409:25427   */\n      add\n        /* \"#utility.yul\":25401:25427   */\n      swap1\n      pop\n        /* \"#utility.yul\":25473:25482   */\n      dup2\n        /* \"#utility.yul\":25467:25471   */\n      dup2\n        /* \"#utility.yul\":25463:25483   */\n      sub\n        /* \"#utility.yul\":25459:25460   */\n      0x00\n        /* \"#utility.yul\":25448:25457   */\n      dup4\n        /* \"#utility.yul\":25444:25461   */\n      add\n        /* \"#utility.yul\":25437:25484   */\n      mstore\n        /* \"#utility.yul\":25501:25632   */\n      tag_604\n        /* \"#utility.yul\":25627:25631   */\n      dup2\n        /* \"#utility.yul\":25501:25632   */\n      tag_327\n      jump\t// in\n    tag_604:\n        /* \"#utility.yul\":25493:25632   */\n      swap1\n      pop\n        /* \"#utility.yul\":25220:25639   */\n      swap2\n      swap1\n      pop\n      jump\t// out\n        /* \"#utility.yul\":25645:25749   */\n    tag_328:\n        /* \"#utility.yul\":25690:25697   */\n      0x00\n        /* \"#utility.yul\":25719:25743   */\n      tag_606\n        /* \"#utility.yul\":25737:25742   */\n      dup3\n        /* \"#utility.yul\":25719:25743   */\n      tag_271\n      jump\t// in\n    tag_606:\n        /* \"#utility.yul\":25708:25743   */\n      swap1\n      pop\n        /* \"#utility.yul\":25645:25749   */\n      swap2\n      swap1\n      pop\n      jump\t// out\n        /* \"#utility.yul\":25755:25893   */\n    tag_329:\n        /* \"#utility.yul\":25836:25868   */\n      tag_608\n        /* \"#utility.yul\":25862:25867   */\n      dup2\n        /* \"#utility.yul\":25836:25868   */\n      tag_328\n      jump\t// in\n    tag_608:\n        /* \"#utility.yul\":25829:25834   */\n      dup2\n        /* \"#utility.yul\":25826:25869   */\n      eq\n        /* \"#utility.yul\":25816:25887   */\n      tag_609\n      jumpi\n        /* \"#utility.yul\":25883:25884   */\n      0x00\n        /* \"#utility.yul\":25880:25881   */\n      0x00\n        /* \"#utility.yul\":25873:25885   */\n      revert\n        /* \"#utility.yul\":25816:25887   */\n    tag_609:\n        /* \"#utility.yul\":25755:25893   */\n      pop\n      jump\t// out\n        /* \"#utility.yul\":25899:26054   */\n    tag_330:\n        /* \"#utility.yul\":25953:25958   */\n      0x00\n        /* \"#utility.yul\":25991:25997   */\n      dup2\n        /* \"#utility.yul\":25978:25998   */\n      calldataload\n        /* \"#utility.yul\":25969:25998   */\n      swap1\n      pop\n        /* \"#utility.yul\":26007:26048   */\n      tag_611\n        /* \"#utility.yul\":26042:26047   */\n      dup2\n        /* \"#utility.yul\":26007:26048   */\n      tag_329\n      jump\t// in\n    tag_611:\n        /* \"#utility.yul\":25899:26054   */\n      swap3\n      swap2\n      pop\n      pop\n      jump\t// out\n        /* \"#utility.yul\":26060:26550   */\n    tag_208:\n        /* \"#utility.yul\":26136:26142   */\n      0x00\n        /* \"#utility.yul\":26144:26150   */\n      0x00\n        /* \"#utility.yul\":26193:26195   */\n      0x40\n        /* \"#utility.yul\":26181:26190   */\n      dup4\n        /* \"#utility.yul\":26172:26179   */\n      dup6\n        /* \"#utility.yul\":26168:26191   */\n      sub\n        /* \"#utility.yul\":26164:26196   */\n      slt\n        /* \"#utility.yul\":26161:26280   */\n      iszero\n      tag_613\n      jumpi\n        /* \"#utility.yul\":26199:26278   */\n      tag_614\n      tag_258\n      jump\t// in\n    tag_614:\n        /* \"#utility.yul\":26161:26280   */\n    tag_613:\n        /* \"#utility.yul\":26319:26320   */\n      0x00\n        /* \"#utility.yul\":26344:26405   */\n      tag_615\n        /* \"#utility.yul\":26397:26404   */\n      dup6\n        /* \"#utility.yul\":26388:26394   */\n      dup3\n        /* \"#utility.yul\":26377:26386   */\n      dup7\n        /* \"#utility.yul\":26373:26395   */\n      add\n        /* \"#utility.yul\":26344:26405   */\n      tag_330\n      jump\t// in\n    tag_615:\n        /* \"#utility.yul\":26334:26405   */\n      swap3\n      pop\n        /* \"#utility.yul\":26290:26415   */\n      pop\n        /* \"#utility.yul\":26454:26456   */\n      0x20\n        /* \"#utility.yul\":26480:26533   */\n      tag_616\n        /* \"#utility.yul\":26525:26532   */\n      dup6\n        /* \"#utility.yul\":26516:26522   */\n      dup3\n        /* \"#utility.yul\":26505:26514   */\n      dup7\n        /* \"#utility.yul\":26501:26523   */\n      add\n        /* \"#utility.yul\":26480:26533   */\n      tag_270\n      jump\t// in\n    tag_616:\n        /* \"#utility.yul\":26470:26533   */\n      swap2\n      pop\n        /* \"#utility.yul\":26425:26543   */\n      pop\n        /* \"#utility.yul\":26060:26550   */\n      swap3\n      pop\n      swap3\n      swap1\n      pop\n      jump\t// out\n        /* \"#utility.yul\":26556:26715   */\n    tag_331:\n        /* \"#utility.yul\":26621:26626   */\n      0x00\n        /* \"#utility.yul\":26652:26658   */\n      dup2\n        /* \"#utility.yul\":26646:26659   */\n      mload\n        /* \"#utility.yul\":26637:26659   */\n      swap1\n      pop\n        /* \"#utility.yul\":26668:26709   */\n      tag_618\n        /* \"#utility.yul\":26703:26708   */\n      dup2\n        /* \"#utility.yul\":26668:26709   */\n      tag_329\n      jump\t// in\n    tag_618:\n        /* \"#utility.yul\":26556:26715   */\n      swap3\n      swap2\n      pop\n      pop\n      jump\t// out\n        /* \"#utility.yul\":26721:27088   */\n    tag_213:\n        /* \"#utility.yul\":26799:26805   */\n      0x00\n        /* \"#utility.yul\":26848:26850   */\n      0x20\n        /* \"#utility.yul\":26836:26845   */\n      dup3\n        /* \"#utility.yul\":26827:26834   */\n      dup5\n        /* \"#utility.yul\":26823:26846   */\n      sub\n        /* \"#utility.yul\":26819:26851   */\n      slt\n        /* \"#utility.yul\":26816:26935   */\n      iszero\n      tag_620\n      jumpi\n        /* \"#utility.yul\":26854:26933   */\n      tag_621\n      tag_258\n      jump\t// in\n    tag_621:\n        /* \"#utility.yul\":26816:26935   */\n    tag_620:\n        /* \"#utility.yul\":26974:26975   */\n      0x00\n        /* \"#utility.yul\":26999:27071   */\n      tag_622\n        /* \"#utility.yul\":27063:27070   */\n      dup5\n        /* \"#utility.yul\":27054:27060   */\n      dup3\n        /* \"#utility.yul\":27043:27052   */\n      dup6\n        /* \"#utility.yul\":27039:27061   */\n      add\n        /* \"#utility.yul\":26999:27071   */\n      tag_331\n      jump\t// in\n    tag_622:\n        /* \"#utility.yul\":26989:27071   */\n      swap2\n      pop\n        /* \"#utility.yul\":26945:27081   */\n      pop\n        /* \"#utility.yul\":26721:27088   */\n      swap3\n      swap2\n      pop\n      pop\n      jump\t// out\n        /* \"#utility.yul\":27094:27274   */\n    tag_332:\n        /* \"#utility.yul\":27142:27219   */\n      0x4e487b7100000000000000000000000000000000000000000000000000000000\n        /* \"#utility.yul\":27139:27140   */\n      0x00\n        /* \"#utility.yul\":27132:27220   */\n      mstore\n        /* \"#utility.yul\":27239:27243   */\n      0x11\n        /* \"#utility.yul\":27236:27237   */\n      0x04\n        /* \"#utility.yul\":27229:27244   */\n      mstore\n        /* \"#utility.yul\":27263:27267   */\n      0x24\n        /* \"#utility.yul\":27260:27261   */\n      0x00\n        /* \"#utility.yul\":27253:27268   */\n      revert\n        /* \"#utility.yul\":27280:27690   */\n    tag_219:\n        /* \"#utility.yul\":27320:27327   */\n      0x00\n        /* \"#utility.yul\":27343:27363   */\n      tag_625\n        /* \"#utility.yul\":27361:27362   */\n      dup3\n        /* \"#utility.yul\":27343:27363   */\n      tag_268\n      jump\t// in\n    tag_625:\n        /* \"#utility.yul\":27338:27363   */\n      swap2\n      pop\n        /* \"#utility.yul\":27377:27397   */\n      tag_626\n        /* \"#utility.yul\":27395:27396   */\n      dup4\n        /* \"#utility.yul\":27377:27397   */\n      tag_268\n      jump\t// in\n    tag_626:\n        /* \"#utility.yul\":27372:27397   */\n      swap3\n      pop\n        /* \"#utility.yul\":27432:27433   */\n      dup3\n        /* \"#utility.yul\":27429:27430   */\n      dup3\n        /* \"#utility.yul\":27425:27434   */\n      mul\n        /* \"#utility.yul\":27454:27484   */\n      tag_627\n        /* \"#utility.yul\":27472:27483   */\n      dup2\n        /* \"#utility.yul\":27454:27484   */\n      tag_268\n      jump\t// in\n    tag_627:\n        /* \"#utility.yul\":27443:27484   */\n      swap2\n      pop\n        /* \"#utility.yul\":27633:27634   */\n      dup3\n        /* \"#utility.yul\":27624:27631   */\n      dup3\n        /* \"#utility.yul\":27620:27635   */\n      div\n        /* \"#utility.yul\":27617:27618   */\n      dup5\n        /* \"#utility.yul\":27614:27636   */\n      eq\n        /* \"#utility.yul\":27594:27595   */\n      dup4\n        /* \"#utility.yul\":27587:27596   */\n      iszero\n        /* \"#utility.yul\":27567:27650   */\n      or\n        /* \"#utility.yul\":27544:27683   */\n      tag_628\n      jumpi\n        /* \"#utility.yul\":27663:27681   */\n      tag_629\n      tag_332\n      jump\t// in\n    tag_629:\n        /* \"#utility.yul\":27544:27683   */\n    tag_628:\n        /* \"#utility.yul\":27328:27690   */\n      pop\n        /* \"#utility.yul\":27280:27690   */\n      swap3\n      swap2\n      pop\n      pop\n      jump\t// out\n        /* \"#utility.yul\":27696:27887   */\n    tag_239:\n        /* \"#utility.yul\":27736:27739   */\n      0x00\n        /* \"#utility.yul\":27755:27775   */\n      tag_631\n        /* \"#utility.yul\":27773:27774   */\n      dup3\n        /* \"#utility.yul\":27755:27775   */\n      tag_268\n      jump\t// in\n    tag_631:\n        /* \"#utility.yul\":27750:27775   */\n      swap2\n      pop\n        /* \"#utility.yul\":27789:27809   */\n      tag_632\n        /* \"#utility.yul\":27807:27808   */\n      dup4\n        /* \"#utility.yul\":27789:27809   */\n      tag_268\n      jump\t// in\n    tag_632:\n        /* \"#utility.yul\":27784:27809   */\n      swap3\n      pop\n        /* \"#utility.yul\":27832:27833   */\n      dup3\n        /* \"#utility.yul\":27829:27830   */\n      dup3\n        /* \"#utility.yul\":27825:27834   */\n      add\n        /* \"#utility.yul\":27818:27834   */\n      swap1\n      pop\n        /* \"#utility.yul\":27853:27856   */\n      dup1\n        /* \"#utility.yul\":27850:27851   */\n      dup3\n        /* \"#utility.yul\":27847:27857   */\n      gt\n        /* \"#utility.yul\":27844:27880   */\n      iszero\n      tag_633\n      jumpi\n        /* \"#utility.yul\":27860:27878   */\n      tag_634\n      tag_332\n      jump\t// in\n    tag_634:\n        /* \"#utility.yul\":27844:27880   */\n    tag_633:\n        /* \"#utility.yul\":27696:27887   */\n      swap3\n      swap2\n      pop\n      pop\n      jump\t// out\n        /* \"#utility.yul\":27893:28065   */\n    tag_333:\n        /* \"#utility.yul\":28033:28057   */\n      0x536861646f773a207a65726f20726563697069656e7400000000000000000000\n        /* \"#utility.yul\":28029:28030   */\n      0x00\n        /* \"#utility.yul\":28021:28027   */\n      dup3\n        /* \"#utility.yul\":28017:28031   */\n      add\n        /* \"#utility.yul\":28010:28058   */\n      mstore\n        /* \"#utility.yul\":27893:28065   */\n      pop\n      jump\t// out\n        /* \"#utility.yul\":28071:28437   */\n    tag_334:\n        /* \"#utility.yul\":28213:28216   */\n      0x00\n        /* \"#utility.yul\":28234:28301   */\n      tag_637\n        /* \"#utility.yul\":28298:28300   */\n      0x16\n        /* \"#utility.yul\":28293:28296   */\n      dup4\n        /* \"#utility.yul\":28234:28301   */\n      tag_291\n      jump\t// in\n    tag_637:\n        /* \"#utility.yul\":28227:28301   */\n      swap2\n      pop\n        /* \"#utility.yul\":28310:28403   */\n      tag_638\n        /* \"#utility.yul\":28399:28402   */\n      dup3\n        /* \"#utility.yul\":28310:28403   */\n      tag_333\n      jump\t// in\n    tag_638:\n        /* \"#utility.yul\":28428:28430   */\n      0x20\n        /* \"#utility.yul\":28423:28426   */\n      dup3\n        /* \"#utility.yul\":28419:28431   */\n      add\n        /* \"#utility.yul\":28412:28431   */\n      swap1\n      pop\n        /* \"#utility.yul\":28071:28437   */\n      swap2\n      swap1\n      pop\n      jump\t// out\n        /* \"#utility.yul\":28443:28862   */\n    tag_246:\n        /* \"#utility.yul\":28609:28613   */\n      0x00\n        /* \"#utility.yul\":28647:28649   */\n      0x20\n        /* \"#utility.yul\":28636:28645   */\n      dup3\n        /* \"#utility.yul\":28632:28650   */\n      add\n        /* \"#utility.yul\":28624:28650   */\n      swap1\n      pop\n        /* \"#utility.yul\":28696:28705   */\n      dup2\n        /* \"#utility.yul\":28690:28694   */\n      dup2\n        /* \"#utility.yul\":28686:28706   */\n      sub\n        /* \"#utility.yul\":28682:28683   */\n      0x00\n        /* \"#utility.yul\":28671:28680   */\n      dup4\n        /* \"#utility.yul\":28667:28684   */\n      add\n        /* \"#utility.yul\":28660:28707   */\n      mstore\n        /* \"#utility.yul\":28724:28855   */\n      tag_640\n        /* \"#utility.yul\":28850:28854   */\n      dup2\n        /* \"#utility.yul\":28724:28855   */\n      tag_334\n      jump\t// in\n    tag_640:\n        /* \"#utility.yul\":28716:28855   */\n      swap1\n      pop\n        /* \"#utility.yul\":28443:28862   */\n      swap2\n      swap1\n      pop\n      jump\t// out\n        /* \"#utility.yul\":28868:29200   */\n    tag_248:\n        /* \"#utility.yul\":28989:28993   */\n      0x00\n        /* \"#utility.yul\":29027:29029   */\n      0x40\n        /* \"#utility.yul\":29016:29025   */\n      dup3\n        /* \"#utility.yul\":29012:29030   */\n      add\n        /* \"#utility.yul\":29004:29030   */\n      swap1\n      pop\n        /* \"#utility.yul\":29040:29111   */\n      tag_642\n        /* \"#utility.yul\":29108:29109   */\n      0x00\n        /* \"#utility.yul\":29097:29106   */\n      dup4\n        /* \"#utility.yul\":29093:29110   */\n      add\n        /* \"#utility.yul\":29084:29090   */\n      dup6\n        /* \"#utility.yul\":29040:29111   */\n      tag_273\n      jump\t// in\n    tag_642:\n        /* \"#utility.yul\":29121:29193   */\n      tag_643\n        /* \"#utility.yul\":29189:29191   */\n      0x20\n        /* \"#utility.yul\":29178:29187   */\n      dup4\n        /* \"#utility.yul\":29174:29192   */\n      add\n        /* \"#utility.yul\":29165:29171   */\n      dup5\n        /* \"#utility.yul\":29121:29193   */\n      tag_294\n      jump\t// in\n    tag_643:\n        /* \"#utility.yul\":28868:29200   */\n      swap4\n      swap3\n      pop\n      pop\n      pop\n      jump\t// out\n        /* \"#utility.yul\":29206:29369   */\n    tag_335:\n        /* \"#utility.yul\":29346:29361   */\n      0x5061796f7574206661696c656400000000000000000000000000000000000000\n        /* \"#utility.yul\":29342:29343   */\n      0x00\n        /* \"#utility.yul\":29334:29340   */\n      dup3\n        /* \"#utility.yul\":29330:29344   */\n      add\n        /* \"#utility.yul\":29323:29362   */\n      mstore\n        /* \"#utility.yul\":29206:29369   */\n      pop\n      jump\t// out\n        /* \"#utility.yul\":29375:29741   */\n    tag_336:\n        /* \"#utility.yul\":29517:29520   */\n      0x00\n        /* \"#utility.yul\":29538:29605   */\n      tag_646\n        /* \"#utility.yul\":29602:29604   */\n      0x0d\n        /* \"#utility.yul\":29597:29600   */\n      dup4\n        /* \"#utility.yul\":29538:29605   */\n      tag_291\n      jump\t// in\n    tag_646:\n        /* \"#utility.yul\":29531:29605   */\n      swap2\n      pop\n        /* \"#utility.yul\":29614:29707   */\n      tag_647\n        /* \"#utility.yul\":29703:29706   */\n      dup3\n        /* \"#utility.yul\":29614:29707   */\n      tag_335\n      jump\t// in\n    tag_647:\n        /* \"#utility.yul\":29732:29734   */\n      0x20\n        /* \"#utility.yul\":29727:29730   */\n      dup3\n        /* \"#utility.yul\":29723:29735   */\n      add\n        /* \"#utility.yul\":29716:29735   */\n      swap1\n      pop\n        /* \"#utility.yul\":29375:29741   */\n      swap2\n      swap1\n      pop\n      jump\t// out\n        /* \"#utility.yul\":29747:30166   */\n    tag_254:\n        /* \"#utility.yul\":29913:29917   */\n      0x00\n        /* \"#utility.yul\":29951:29953   */\n      0x20\n        /* \"#utility.yul\":29940:29949   */\n      dup3\n        /* \"#utility.yul\":29936:29954   */\n      add\n        /* \"#utility.yul\":29928:29954   */\n      swap1\n      pop\n        /* \"#utility.yul\":30000:30009   */\n      dup2\n        /* \"#utility.yul\":29994:29998   */\n      dup2\n        /* \"#utility.yul\":29990:30010   */\n      sub\n        /* \"#utility.yul\":29986:29987   */\n      0x00\n        /* \"#utility.yul\":29975:29984   */\n      dup4\n        /* \"#utility.yul\":29971:29988   */\n      add\n        /* \"#utility.yul\":29964:30011   */\n      mstore\n        /* \"#utility.yul\":30028:30159   */\n      tag_649\n        /* \"#utility.yul\":30154:30158   */\n      dup2\n        /* \"#utility.yul\":30028:30159   */\n      tag_336\n      jump\t// in\n    tag_649:\n        /* \"#utility.yul\":30020:30159   */\n      swap1\n      pop\n        /* \"#utility.yul\":29747:30166   */\n      swap2\n      swap1\n      pop\n      jump\t// out\n        /* \"#utility.yul\":30172:30394   */\n    tag_256:\n        /* \"#utility.yul\":30265:30269   */\n      0x00\n        /* \"#utility.yul\":30303:30305   */\n      0x20\n        /* \"#utility.yul\":30292:30301   */\n      dup3\n        /* \"#utility.yul\":30288:30306   */\n      add\n        /* \"#utility.yul\":30280:30306   */\n      swap1\n      pop\n        /* \"#utility.yul\":30316:30387   */\n      tag_651\n        /* \"#utility.yul\":30384:30385   */\n      0x00\n        /* \"#utility.yul\":30373:30382   */\n      dup4\n        /* \"#utility.yul\":30369:30386   */\n      add\n        /* \"#utility.yul\":30360:30366   */\n      dup5\n        /* \"#utility.yul\":30316:30387   */\n      tag_294\n      jump\t// in\n    tag_651:\n        /* \"#utility.yul\":30172:30394   */\n      swap3\n      swap2\n      pop\n      pop\n      jump\t// out\n\n    auxdata: 0xa2646970667358221220d803a252637f89c2746a1064932c71a5e6fddbabe837b8af53d70af929ed055b64736f6c634300081f0033\n}\n",
				"bytecode": {
					"linkReferences": {},
					"object": "60c060405234801561000f575f5ffd5b50604051612b9d380380612b9d83398181016040528101906100319190610422565b8133825f73ffffffffffffffffffffffffffffffffffffffff168173ffffffffffffffffffffffffffffffffffffffff16036100a4575f6040517fd7f7333400000000000000000000000000000000000000000000000000000000815260040161009b9190610481565b60405180910390fd5b8073ffffffffffffffffffffffffffffffffffffffff1660808173ffffffffffffffffffffffffffffffffffffffff1681525050505f73ffffffffffffffffffffffffffffffffffffffff168173ffffffffffffffffffffffffffffffffffffffff1603610149575f6040517f1e4fbdf70000000000000000000000000000000000000000000000000000000081526004016101409190610481565b60405180910390fd5b6101588161030360201b60201c565b505f73ffffffffffffffffffffffffffffffffffffffff168173ffffffffffffffffffffffffffffffffffffffff16036101be576040517f381dd54000000000000000000000000000000000000000000000000000000000815260040160405180910390fd5b8060015f6101000a81548173ffffffffffffffffffffffffffffffffffffffff021916908373ffffffffffffffffffffffffffffffffffffffff1602179055508073ffffffffffffffffffffffffffffffffffffffff165f73ffffffffffffffffffffffffffffffffffffffff167f039ad854736757070884dd787ef1a7f58db33546639d1f3efddcf4a33fb8997e60405160405180910390a3505f73ffffffffffffffffffffffffffffffffffffffff168373ffffffffffffffffffffffffffffffffffffffff16036102c7576040517f08c379a00000000000000000000000000000000000000000000000000000000081526004016102be906104f4565b60405180910390fd5b8273ffffffffffffffffffffffffffffffffffffffff1660a08173ffffffffffffffffffffffffffffffffffffffff1681525050505050610512565b5f5f5f9054906101000a900473ffffffffffffffffffffffffffffffffffffffff169050815f5f6101000a81548173ffffffffffffffffffffffffffffffffffffffff021916908373ffffffffffffffffffffffffffffffffffffffff1602179055508173ffffffffffffffffffffffffffffffffffffffff168173ffffffffffffffffffffffffffffffffffffffff167f8be0079c531659141344cd1fd0a4f28419497f9722a3daafe3b4186f6b6457e060405160405180910390a35050565b5f5ffd5b5f73ffffffffffffffffffffffffffffffffffffffff82169050919050565b5f6103f1826103c8565b9050919050565b610401816103e7565b811461040b575f5ffd5b50565b5f8151905061041c816103f8565b92915050565b5f5f5f60608486031215610439576104386103c4565b5b5f6104468682870161040e565b93505060206104578682870161040e565b92505060406104688682870161040e565b9150509250925092565b61047b816103e7565b82525050565b5f6020820190506104945f830184610472565b92915050565b5f82825260208201905092915050565b7f536861646f773a207a65726f20555344432061646472657373000000000000005f82015250565b5f6104de60198361049a565b91506104e9826104aa565b602082019050919050565b5f6020820190508181035f83015261050b816104d2565b9050919050565b60805160a05161265c6105415f395f818161034e015281816104ce01526115d501525f610ace015261265c5ff3fe608060405234801561000f575f5ffd5b5060043610610109575f3560e01c80638da5cb5b116100a0578063c3c44ac21161006f578063c3c44ac21461026b578063d60c884b14610287578063d777cc6d146102a3578063f2fde38b146102bf578063f5c793ef146102db57610109565b80638da5cb5b146101f5578063a619d81814610213578063b0f479a114610231578063bc1fc27a1461024f57610109565b80633e413bee116100dc5780633e413bee14610195578063715018a6146101b3578063805f2132146101bd57806385572ffb146101d957610109565b806301ffc9a71461010d5780631de26e161461013d5780633397cf67146101595780633441856f14610177575b5f5ffd5b61012760048036038101906101229190611765565b6102f9565b60405161013491906117aa565b60405180910390f35b61015760048036038101906101529190611829565b61030a565b005b61016161047c565b60405161016e91906118a6565b60405180910390f35b61017f6104a4565b60405161018c91906118a6565b60405180910390f35b61019d6104cc565b6040516101aa919061191a565b60405180910390f35b6101bb6104f0565b005b6101d760048036038101906101d29190611994565b610503565b005b6101f360048036038101906101ee9190611a34565b610a02565b005b6101fd610a8e565b60405161020a91906118a6565b60405180910390f35b61021b610ab5565b6040516102289190611ab5565b60405180910390f35b610239610acb565b60405161024691906118a6565b60405180910390f35b61026960048036038101906102649190611b23565b610af2565b005b61028560048036038101906102809190611b6e565b610d96565b005b6102a1600480360381019061029c9190611bc3565b610ddd565b005b6102bd60048036038101906102b89190611bc3565b610ea8565b005b6102d960048036038101906102d49190611bc3565b610fdc565b005b6102e3611060565b6040516102f09190611bfd565b60405180910390f35b5f61030382611069565b9050919050565b5f811161034c576040517f08c379a000000000000000000000000000000000000000000000000000000000815260040161034390611c70565b60405180910390fd5b7f000000000000000000000000000000000000000000000000000000000000000073ffffffffffffffffffffffffffffffffffffffff166323b872dd3330846040518463ffffffff1660e01b81526004016103a993929190611c9d565b6020604051808303815f875af11580156103c5573d5f5f3e3d5ffd5b505050506040513d601f19601f820116820180604052508101906103e99190611cfc565b610428576040517f08c379a000000000000000000000000000000000000000000000000000000000815260040161041f90611d71565b60405180910390fd5b3373ffffffffffffffffffffffffffffffffffffffff167fa528a5618e16311d917a25d1b6f7d83f001f50e5b4bee369286d16c83784e22a8383604051610470929190611d8f565b60405180910390a25050565b5f60025f9054906101000a900473ffffffffffffffffffffffffffffffffffffffff16905090565b5f60015f9054906101000a900473ffffffffffffffffffffffffffffffffffffffff16905090565b7f000000000000000000000000000000000000000000000000000000000000000081565b6104f861113a565b6105015f6111c1565b565b5f73ffffffffffffffffffffffffffffffffffffffff1660015f9054906101000a900473ffffffffffffffffffffffffffffffffffffffff1673ffffffffffffffffffffffffffffffffffffffff16141580156105ad575060015f9054906101000a900473ffffffffffffffffffffffffffffffffffffffff1673ffffffffffffffffffffffffffffffffffffffff163373ffffffffffffffffffffffffffffffffffffffff1614155b15610612573360015f9054906101000a900473ffffffffffffffffffffffffffffffffffffffff166040517fe1130dba000000000000000000000000000000000000000000000000000000008152600401610609929190611db6565b60405180910390fd5b5f5f1b60035414158061067257505f73ffffffffffffffffffffffffffffffffffffffff1660025f9054906101000a900473ffffffffffffffffffffffffffffffffffffffff1673ffffffffffffffffffffffffffffffffffffffff1614155b806106c157505f60b01b75ffffffffffffffffffffffffffffffffffffffffffff1916600260149054906101000a900460b01b75ffffffffffffffffffffffffffffffffffffffffffff191614155b156109f2575f5f5f61071587878080601f0160208091040260200160405190810160405280939291908181526020018383808284375f81840152601f19601f82011690508083019250505050505050611282565b9250925092505f5f1b6003541415801561073157506003548314155b1561077757826003546040517f9bfa39ba00000000000000000000000000000000000000000000000000000000815260040161076e929190611ddd565b60405180910390fd5b5f73ffffffffffffffffffffffffffffffffffffffff1660025f9054906101000a900473ffffffffffffffffffffffffffffffffffffffff1673ffffffffffffffffffffffffffffffffffffffff1614158015610821575060025f9054906101000a900473ffffffffffffffffffffffffffffffffffffffff1673ffffffffffffffffffffffffffffffffffffffff168173ffffffffffffffffffffffffffffffffffffffff1614155b15610886578060025f9054906101000a900473ffffffffffffffffffffffffffffffffffffffff166040517fb8a98af800000000000000000000000000000000000000000000000000000000815260040161087d929190611db6565b60405180910390fd5b5f60b01b75ffffffffffffffffffffffffffffffffffffffffffff1916600260149054906101000a900460b01b75ffffffffffffffffffffffffffffffffffffffffffff1916146109ee575f73ffffffffffffffffffffffffffffffffffffffff1660025f9054906101000a900473ffffffffffffffffffffffffffffffffffffffff1673ffffffffffffffffffffffffffffffffffffffff1603610957576040517f4847901100000000000000000000000000000000000000000000000000000000815260040160405180910390fd5b600260149054906101000a900460b01b75ffffffffffffffffffffffffffffffffffffffffffff19168275ffffffffffffffffffffffffffffffffffffffffffff1916146109ed5781600260149054906101000a900460b01b6040517f6c4609a60000000000000000000000000000000000000000000000000000000081526004016109e4929190611e04565b60405180910390fd5b5b5050505b6109fc82826112a7565b50505050565b610a0a610acb565b73ffffffffffffffffffffffffffffffffffffffff163373ffffffffffffffffffffffffffffffffffffffff1614610a7957336040517fd7f73334000000000000000000000000000000000000000000000000000000008152600401610a7091906118a6565b60405180910390fd5b610a8b81610a8690612192565b6112cc565b50565b5f5f5f9054906101000a900473ffffffffffffffffffffffffffffffffffffffff16905090565b5f600260149054906101000a900460b01b905090565b5f7f0000000000000000000000000000000000000000000000000000000000000000905090565b610afa61113a565b5f600260149054906101000a900460b01b90505f8383905003610ba7575f60b01b600260146101000a81548169ffffffffffffffffffff021916908360b01c02179055505f60b01b75ffffffffffffffffffffffffffffffffffffffffffff19168175ffffffffffffffffffffffffffffffffffffffffffff19167f1e7ddd09d504c82dcfc784a464b167469f5aad967606ec4822d848ef9141dfa560405160405180910390a350610d92565b5f60028484604051610bba9291906121d2565b602060405180830381855afa158015610bd5573d5f5f3e3d5ffd5b5050506040513d601f19601f82011682018060405250810190610bf891906121fe565b90505f610c2382604051602001610c0f9190612249565b60405160208183030381529060405261131c565b90505f600a67ffffffffffffffff811115610c4157610c40611e3f565b5b6040519080825280601f01601f191660200182016040528015610c735781602001600182028036833780820191505090505b5090505f5f90505b600a811015610cf057828181518110610c9757610c96612263565b5b602001015160f81c60f81b828281518110610cb557610cb4612263565b5b60200101907effffffffffffffffffffffffffffffffffffffffffffffffffffffffffffff191690815f1a9053508080600101915050610c7b565b5080610cfb906122c9565b600260146101000a81548169ffffffffffffffffffff021916908360b01c0217905550600260149054906101000a900460b01b75ffffffffffffffffffffffffffffffffffffffffffff19168475ffffffffffffffffffffffffffffffffffffffffffff19167f1e7ddd09d504c82dcfc784a464b167469f5aad967606ec4822d848ef9141dfa560405160405180910390a3505050505b5050565b610d9e61113a565b5f60035490508160038190555081817f0dbedcdf21925e053b4c574eae180d7f2883235ab4976ecc0873598a2a999b0360405160405180910390a35050565b610de561113a565b5f60025f9054906101000a900473ffffffffffffffffffffffffffffffffffffffff1690508160025f6101000a81548173ffffffffffffffffffffffffffffffffffffffff021916908373ffffffffffffffffffffffffffffffffffffffff1602179055508173ffffffffffffffffffffffffffffffffffffffff168173ffffffffffffffffffffffffffffffffffffffff167f3321cda85c145617e47418aa14255e9dcbec53a753778e57591703b89a3cad3160405160405180910390a35050565b610eb061113a565b5f60015f9054906101000a900473ffffffffffffffffffffffffffffffffffffffff1690505f73ffffffffffffffffffffffffffffffffffffffff168273ffffffffffffffffffffffffffffffffffffffff1603610f3e577f704da7db165c79c1e33d542c079333bbde970a733032d2f95fec8fb7d770cbf7604051610f359061239f565b60405180910390a15b8160015f6101000a81548173ffffffffffffffffffffffffffffffffffffffff021916908373ffffffffffffffffffffffffffffffffffffffff1602179055508173ffffffffffffffffffffffffffffffffffffffff168173ffffffffffffffffffffffffffffffffffffffff167f039ad854736757070884dd787ef1a7f58db33546639d1f3efddcf4a33fb8997e60405160405180910390a35050565b610fe461113a565b5f73ffffffffffffffffffffffffffffffffffffffff168173ffffffffffffffffffffffffffffffffffffffff1603611054575f6040517f1e4fbdf700000000000000000000000000000000000000000000000000000000815260040161104b91906118a6565b60405180910390fd5b61105d816111c1565b50565b5f600354905090565b5f7f805f2132000000000000000000000000000000000000000000000000000000007bffffffffffffffffffffffffffffffffffffffffffffffffffffffff1916827bffffffffffffffffffffffffffffffffffffffffffffffffffffffff1916148061113357507f01ffc9a7000000000000000000000000000000000000000000000000000000007bffffffffffffffffffffffffffffffffffffffffffffffffffffffff1916827bffffffffffffffffffffffffffffffffffffffffffffffffffffffff1916145b9050919050565b61114261155e565b73ffffffffffffffffffffffffffffffffffffffff16611160610a8e565b73ffffffffffffffffffffffffffffffffffffffff16146111bf5761118361155e565b6040517f118cdaa70000000000000000000000000000000000000000000000000000000081526004016111b691906118a6565b60405180910390fd5b565b5f5f5f9054906101000a900473ffffffffffffffffffffffffffffffffffffffff169050815f5f6101000a81548173ffffffffffffffffffffffffffffffffffffffff021916908373ffffffffffffffffffffffffffffffffffffffff1602179055508173ffffffffffffffffffffffffffffffffffffffff168173ffffffffffffffffffffffffffffffffffffffff167f8be0079c531659141344cd1fd0a4f28419497f9722a3daafe3b4186f6b6457e060405160405180910390a35050565b5f5f5f6020840151925060408401519150604a8401516008600c021c90509193909250565b5f5f83838101906112b891906123f8565b915091506112c68282611565565b50505050565b5f81606001518060200190518101906112e5919061244a565b90505f82608001515f815181106112ff576112fe612263565b5b60200260200101516020015190506113178282611565565b505050565b60605f6002835161132d91906124a2565b67ffffffffffffffff81111561134657611345611e3f565b5b6040519080825280601f01601f1916602001820160405280156113785781602001600182028036833780820191505090505b5090505f5f90505b8351811015611554576040518060400160405280601081526020017f303132333435363738396162636465660000000000000000000000000000000081525060048583815181106113d4576113d3612263565b5b602001015160f81c60f81b7effffffffffffffffffffffffffffffffffffffffffffffffffffffffffffff1916901c60f81c60ff168151811061141a57611419612263565b5b602001015160f81c60f81b8260028361143391906124a2565b8151811061144457611443612263565b5b60200101907effffffffffffffffffffffffffffffffffffffffffffffffffffffffffffff191690815f1a9053506040518060400160405280601081526020017f3031323334353637383961626364656600000000000000000000000000000000815250600f60f81b8583815181106114c0576114bf612263565b5b602001015160f81c60f81b1660f81c60ff16815181106114e3576114e2612263565b5b602001015160f81c60f81b8260016002846114fe91906124a2565b61150891906124e3565b8151811061151957611518612263565b5b60200101907effffffffffffffffffffffffffffffffffffffffffffffffffffffffffffff191690815f1a9053508080600101915050611380565b5080915050919050565b5f33905090565b5f73ffffffffffffffffffffffffffffffffffffffff168273ffffffffffffffffffffffffffffffffffffffff16036115d3576040517f08c379a00000000000000000000000000000000000000000000000000000000081526004016115ca90612560565b60405180910390fd5b7f000000000000000000000000000000000000000000000000000000000000000073ffffffffffffffffffffffffffffffffffffffff1663a9059cbb83836040518363ffffffff1660e01b815260040161162e92919061257e565b6020604051808303815f875af115801561164a573d5f5f3e3d5ffd5b505050506040513d601f19601f8201168201806040525081019061166e9190611cfc565b6116ad576040517f08c379a00000000000000000000000000000000000000000000000000000000081526004016116a4906125ef565b60405180910390fd5b8173ffffffffffffffffffffffffffffffffffffffff167f0f406fe54e7c193e129427f5d405f4b20ed911c3a00285118711b015cd0d1414826040516116f3919061260d565b60405180910390a25050565b5f604051905090565b5f5ffd5b5f5ffd5b5f7fffffffff0000000000000000000000000000000000000000000000000000000082169050919050565b61174481611710565b811461174e575f5ffd5b50565b5f8135905061175f8161173b565b92915050565b5f6020828403121561177a57611779611708565b5b5f61178784828501611751565b91505092915050565b5f8115159050919050565b6117a481611790565b82525050565b5f6020820190506117bd5f83018461179b565b92915050565b5f819050919050565b6117d5816117c3565b81146117df575f5ffd5b50565b5f813590506117f0816117cc565b92915050565b5f819050919050565b611808816117f6565b8114611812575f5ffd5b50565b5f81359050611823816117ff565b92915050565b5f5f6040838503121561183f5761183e611708565b5b5f61184c858286016117e2565b925050602061185d85828601611815565b9150509250929050565b5f73ffffffffffffffffffffffffffffffffffffffff82169050919050565b5f61189082611867565b9050919050565b6118a081611886565b82525050565b5f6020820190506118b95f830184611897565b92915050565b5f819050919050565b5f6118e26118dd6118d884611867565b6118bf565b611867565b9050919050565b5f6118f3826118c8565b9050919050565b5f611904826118e9565b9050919050565b611914816118fa565b82525050565b5f60208201905061192d5f83018461190b565b92915050565b5f5ffd5b5f5ffd5b5f5ffd5b5f5f83601f84011261195457611953611933565b5b8235905067ffffffffffffffff81111561197157611970611937565b5b60208301915083600182028301111561198d5761198c61193b565b5b9250929050565b5f5f5f5f604085870312156119ac576119ab611708565b5b5f85013567ffffffffffffffff8111156119c9576119c861170c565b5b6119d58782880161193f565b9450945050602085013567ffffffffffffffff8111156119f8576119f761170c565b5b611a048782880161193f565b925092505092959194509250565b5f5ffd5b5f60a08284031215611a2b57611a2a611a12565b5b81905092915050565b5f60208284031215611a4957611a48611708565b5b5f82013567ffffffffffffffff811115611a6657611a6561170c565b5b611a7284828501611a16565b91505092915050565b5f7fffffffffffffffffffff0000000000000000000000000000000000000000000082169050919050565b611aaf81611a7b565b82525050565b5f602082019050611ac85f830184611aa6565b92915050565b5f5f83601f840112611ae357611ae2611933565b5b8235905067ffffffffffffffff811115611b0057611aff611937565b5b602083019150836001820283011115611b1c57611b1b61193b565b5b9250929050565b5f5f60208385031215611b3957611b38611708565b5b5f83013567ffffffffffffffff811115611b5657611b5561170c565b5b611b6285828601611ace565b92509250509250929050565b5f60208284031215611b8357611b82611708565b5b5f611b90848285016117e2565b91505092915050565b611ba281611886565b8114611bac575f5ffd5b50565b5f81359050611bbd81611b99565b92915050565b5f60208284031215611bd857611bd7611708565b5b5f611be584828501611baf565b91505092915050565b611bf7816117c3565b82525050565b5f602082019050611c105f830184611bee565b92915050565b5f82825260208201905092915050565b7f536861646f773a207a65726f20616d6f756e74000000000000000000000000005f82015250565b5f611c5a601383611c16565b9150611c6582611c26565b602082019050919050565b5f6020820190508181035f830152611c8781611c4e565b9050919050565b611c97816117f6565b82525050565b5f606082019050611cb05f830186611897565b611cbd6020830185611897565b611cca6040830184611c8e565b949350505050565b611cdb81611790565b8114611ce5575f5ffd5b50565b5f81519050611cf681611cd2565b92915050565b5f60208284031215611d1157611d10611708565b5b5f611d1e84828501611ce8565b91505092915050565b7f5472616e73666572206661696c656400000000000000000000000000000000005f82015250565b5f611d5b600f83611c16565b9150611d6682611d27565b602082019050919050565b5f6020820190508181035f830152611d8881611d4f565b9050919050565b5f604082019050611da25f830185611bee565b611daf6020830184611c8e565b9392505050565b5f604082019050611dc95f830185611897565b611dd66020830184611897565b9392505050565b5f604082019050611df05f830185611bee565b611dfd6020830184611bee565b9392505050565b5f604082019050611e175f830185611aa6565b611e246020830184611aa6565b9392505050565b5f5ffd5b5f601f19601f8301169050919050565b7f4e487b71000000000000000000000000000000000000000000000000000000005f52604160045260245ffd5b611e7582611e2f565b810181811067ffffffffffffffff82111715611e9457611e93611e3f565b5b80604052505050565b5f611ea66116ff565b9050611eb28282611e6c565b919050565b5f5ffd5b5f67ffffffffffffffff82169050919050565b611ed781611ebb565b8114611ee1575f5ffd5b50565b5f81359050611ef281611ece565b92915050565b5f5ffd5b5f67ffffffffffffffff821115611f1657611f15611e3f565b5b611f1f82611e2f565b9050602081019050919050565b828183375f83830152505050565b5f611f4c611f4784611efc565b611e9d565b905082815260208101848484011115611f6857611f67611ef8565b5b611f73848285611f2c565b509392505050565b5f82601f830112611f8f57611f8e611933565b5b8135611f9f848260208601611f3a565b91505092915050565b5f67ffffffffffffffff821115611fc257611fc1611e3f565b5b602082029050602081019050919050565b5f60408284031215611fe857611fe7611e2b565b5b611ff26040611e9d565b90505f61200184828501611baf565b5f83015250602061201484828501611815565b60208301525092915050565b5f61203261202d84611fa8565b611e9d565b905080838252602082019050604084028301858111156120555761205461193b565b5b835b8181101561207e578061206a8882611fd3565b845260208401935050604081019050612057565b5050509392505050565b5f82601f83011261209c5761209b611933565b5b81356120ac848260208601612020565b91505092915050565b5f60a082840312156120ca576120c9611e2b565b5b6120d460a0611e9d565b90505f6120e3848285016117e2565b5f8301525060206120f684828501611ee4565b602083015250604082013567ffffffffffffffff81111561211a57612119611eb7565b5b61212684828501611f7b565b604083015250606082013567ffffffffffffffff81111561214a57612149611eb7565b5b61215684828501611f7b565b606083015250608082013567ffffffffffffffff81111561217a57612179611eb7565b5b61218684828501612088565b60808301525092915050565b5f61219d36836120b5565b9050919050565b5f81905092915050565b5f6121b983856121a4565b93506121c6838584611f2c565b82840190509392505050565b5f6121de8284866121ae565b91508190509392505050565b5f815190506121f8816117cc565b92915050565b5f6020828403121561221357612212611708565b5b5f612220848285016121ea565b91505092915050565b5f819050919050565b61224361223e826117c3565b612229565b82525050565b5f6122548284612232565b60208201915081905092915050565b7f4e487b71000000000000000000000000000000000000000000000000000000005f52603260045260245ffd5b5f81519050919050565b5f819050602082019050919050565b5f6122b48251611a7b565b80915050919050565b5f82821b905092915050565b5f6122d382612290565b826122dd8461229a565b90506122e8816122a9565b9250600a821015612328576123237fffffffffffffffffffff0000000000000000000000000000000000000000000083600a036008026122bd565b831692505b5050919050565b7f466f7277617264657220616464726573732073657420746f207a65726f202d205f8201527f636f6e7472616374206973206e6f7720494e5345435552450000000000000000602082015250565b5f612389603883611c16565b91506123948261232f565b604082019050919050565b5f6020820190508181035f8301526123b68161237d565b9050919050565b5f6123c782611867565b9050919050565b6123d7816123bd565b81146123e1575f5ffd5b50565b5f813590506123f2816123ce565b92915050565b5f5f6040838503121561240e5761240d611708565b5b5f61241b858286016123e4565b925050602061242c85828601611815565b9150509250929050565b5f81519050612444816123ce565b92915050565b5f6020828403121561245f5761245e611708565b5b5f61246c84828501612436565b91505092915050565b7f4e487b71000000000000000000000000000000000000000000000000000000005f52601160045260245ffd5b5f6124ac826117f6565b91506124b7836117f6565b92508282026124c5816117f6565b915082820484148315176124dc576124db612475565b5b5092915050565b5f6124ed826117f6565b91506124f8836117f6565b92508282019050808211156125105761250f612475565b5b92915050565b7f536861646f773a207a65726f20726563697069656e74000000000000000000005f82015250565b5f61254a601683611c16565b915061255582612516565b602082019050919050565b5f6020820190508181035f8301526125778161253e565b9050919050565b5f6040820190506125915f830185611897565b61259e6020830184611c8e565b9392505050565b7f5061796f7574206661696c6564000000000000000000000000000000000000005f82015250565b5f6125d9600d83611c16565b91506125e4826125a5565b602082019050919050565b5f6020820190508181035f830152612606816125cd565b9050919050565b5f6020820190506126205f830184611c8e565b9291505056fea2646970667358221220d803a252637f89c2746a1064932c71a5e6fddbabe837b8af53d70af929ed055b64736f6c634300081f0033",
					"opcodes": "PUSH1 0xC0 PUSH1 0x40 MSTORE CALLVALUE DUP1 ISZERO PUSH2 0xF JUMPI PUSH0 PUSH0 REVERT JUMPDEST POP PUSH1 0x40 MLOAD PUSH2 0x2B9D CODESIZE SUB DUP1 PUSH2 0x2B9D DUP4 CODECOPY DUP2 DUP2 ADD PUSH1 0x40 MSTORE DUP2 ADD SWAP1 PUSH2 0x31 SWAP2 SWAP1 PUSH2 0x422 JUMP JUMPDEST DUP2 CALLER DUP3 PUSH0 PUSH20 0xFFFFFFFFFFFFFFFFFFFFFFFFFFFFFFFFFFFFFFFF AND DUP2 PUSH20 0xFFFFFFFFFFFFFFFFFFFFFFFFFFFFFFFFFFFFFFFF AND SUB PUSH2 0xA4 JUMPI PUSH0 PUSH1 0x40 MLOAD PUSH32 0xD7F7333400000000000000000000000000000000000000000000000000000000 DUP2 MSTORE PUSH1 0x4 ADD PUSH2 0x9B SWAP2 SWAP1 PUSH2 0x481 JUMP JUMPDEST PUSH1 0x40 MLOAD DUP1 SWAP2 SUB SWAP1 REVERT JUMPDEST DUP1 PUSH20 0xFFFFFFFFFFFFFFFFFFFFFFFFFFFFFFFFFFFFFFFF AND PUSH1 0x80 DUP2 PUSH20 0xFFFFFFFFFFFFFFFFFFFFFFFFFFFFFFFFFFFFFFFF AND DUP2 MSTORE POP POP POP PUSH0 PUSH20 0xFFFFFFFFFFFFFFFFFFFFFFFFFFFFFFFFFFFFFFFF AND DUP2 PUSH20 0xFFFFFFFFFFFFFFFFFFFFFFFFFFFFFFFFFFFFFFFF AND SUB PUSH2 0x149 JUMPI PUSH0 PUSH1 0x40 MLOAD PUSH32 0x1E4FBDF700000000000000000000000000000000000000000000000000000000 DUP2 MSTORE PUSH1 0x4 ADD PUSH2 0x140 SWAP2 SWAP1 PUSH2 0x481 JUMP JUMPDEST PUSH1 0x40 MLOAD DUP1 SWAP2 SUB SWAP1 REVERT JUMPDEST PUSH2 0x158 DUP2 PUSH2 0x303 PUSH1 0x20 SHL PUSH1 0x20 SHR JUMP JUMPDEST POP PUSH0 PUSH20 0xFFFFFFFFFFFFFFFFFFFFFFFFFFFFFFFFFFFFFFFF AND DUP2 PUSH20 0xFFFFFFFFFFFFFFFFFFFFFFFFFFFFFFFFFFFFFFFF AND SUB PUSH2 0x1BE JUMPI PUSH1 0x40 MLOAD PUSH32 0x381DD54000000000000000000000000000000000000000000000000000000000 DUP2 MSTORE PUSH1 0x4 ADD PUSH1 0x40 MLOAD DUP1 SWAP2 SUB SWAP1 REVERT JUMPDEST DUP1 PUSH1 0x1 PUSH0 PUSH2 0x100 EXP DUP2 SLOAD DUP2 PUSH20 0xFFFFFFFFFFFFFFFFFFFFFFFFFFFFFFFFFFFFFFFF MUL NOT AND SWAP1 DUP4 PUSH20 0xFFFFFFFFFFFFFFFFFFFFFFFFFFFFFFFFFFFFFFFF AND MUL OR SWAP1 SSTORE POP DUP1 PUSH20 0xFFFFFFFFFFFFFFFFFFFFFFFFFFFFFFFFFFFFFFFF AND PUSH0 PUSH20 0xFFFFFFFFFFFFFFFFFFFFFFFFFFFFFFFFFFFFFFFF AND PUSH32 0x39AD854736757070884DD787EF1A7F58DB33546639D1F3EFDDCF4A33FB8997E PUSH1 0x40 MLOAD PUSH1 0x40 MLOAD DUP1 SWAP2 SUB SWAP1 LOG3 POP PUSH0 PUSH20 0xFFFFFFFFFFFFFFFFFFFFFFFFFFFFFFFFFFFFFFFF AND DUP4 PUSH20 0xFFFFFFFFFFFFFFFFFFFFFFFFFFFFFFFFFFFFFFFF AND SUB PUSH2 0x2C7 JUMPI PUSH1 0x40 MLOAD PUSH32 0x8C379A000000000000000000000000000000000000000000000000000000000 DUP2 MSTORE PUSH1 0x4 ADD PUSH2 0x2BE SWAP1 PUSH2 0x4F4 JUMP JUMPDEST PUSH1 0x40 MLOAD DUP1 SWAP2 SUB SWAP1 REVERT JUMPDEST DUP3 PUSH20 0xFFFFFFFFFFFFFFFFFFFFFFFFFFFFFFFFFFFFFFFF AND PUSH1 0xA0 DUP2 PUSH20 0xFFFFFFFFFFFFFFFFFFFFFFFFFFFFFFFFFFFFFFFF AND DUP2 MSTORE POP POP POP POP POP PUSH2 0x512 JUMP JUMPDEST PUSH0 PUSH0 PUSH0 SWAP1 SLOAD SWAP1 PUSH2 0x100 EXP SWAP1 DIV PUSH20 0xFFFFFFFFFFFFFFFFFFFFFFFFFFFFFFFFFFFFFFFF AND SWAP1 POP DUP2 PUSH0 PUSH0 PUSH2 0x100 EXP DUP2 SLOAD DUP2 PUSH20 0xFFFFFFFFFFFFFFFFFFFFFFFFFFFFFFFFFFFFFFFF MUL NOT AND SWAP1 DUP4 PUSH20 0xFFFFFFFFFFFFFFFFFFFFFFFFFFFFFFFFFFFFFFFF AND MUL OR SWAP1 SSTORE POP DUP2 PUSH20 0xFFFFFFFFFFFFFFFFFFFFFFFFFFFFFFFFFFFFFFFF AND DUP2 PUSH20 0xFFFFFFFFFFFFFFFFFFFFFFFFFFFFFFFFFFFFFFFF AND PUSH32 0x8BE0079C531659141344CD1FD0A4F28419497F9722A3DAAFE3B4186F6B6457E0 PUSH1 0x40 MLOAD PUSH1 0x40 MLOAD DUP1 SWAP2 SUB SWAP1 LOG3 POP POP JUMP JUMPDEST PUSH0 PUSH0 REVERT JUMPDEST PUSH0 PUSH20 0xFFFFFFFFFFFFFFFFFFFFFFFFFFFFFFFFFFFFFFFF DUP3 AND SWAP1 POP SWAP2 SWAP1 POP JUMP JUMPDEST PUSH0 PUSH2 0x3F1 DUP3 PUSH2 0x3C8 JUMP JUMPDEST SWAP1 POP SWAP2 SWAP1 POP JUMP JUMPDEST PUSH2 0x401 DUP2 PUSH2 0x3E7 JUMP JUMPDEST DUP2 EQ PUSH2 0x40B JUMPI PUSH0 PUSH0 REVERT JUMPDEST POP JUMP JUMPDEST PUSH0 DUP2 MLOAD SWAP1 POP PUSH2 0x41C DUP2 PUSH2 0x3F8 JUMP JUMPDEST SWAP3 SWAP2 POP POP JUMP JUMPDEST PUSH0 PUSH0 PUSH0 PUSH1 0x60 DUP5 DUP7 SUB SLT ISZERO PUSH2 0x439 JUMPI PUSH2 0x438 PUSH2 0x3C4 JUMP JUMPDEST JUMPDEST PUSH0 PUSH2 0x446 DUP7 DUP3 DUP8 ADD PUSH2 0x40E JUMP JUMPDEST SWAP4 POP POP PUSH1 0x20 PUSH2 0x457 DUP7 DUP3 DUP8 ADD PUSH2 0x40E JUMP JUMPDEST SWAP3 POP POP PUSH1 0x40 PUSH2 0x468 DUP7 DUP3 DUP8 ADD PUSH2 0x40E JUMP JUMPDEST SWAP2 POP POP SWAP3 POP SWAP3 POP SWAP3 JUMP JUMPDEST PUSH2 0x47B DUP2 PUSH2 0x3E7 JUMP JUMPDEST DUP3 MSTORE POP POP JUMP JUMPDEST PUSH0 PUSH1 0x20 DUP3 ADD SWAP1 POP PUSH2 0x494 PUSH0 DUP4 ADD DUP5 PUSH2 0x472 JUMP JUMPDEST SWAP3 SWAP2 POP POP JUMP JUMPDEST PUSH0 DUP3 DUP3 MSTORE PUSH1 0x20 DUP3 ADD SWAP1 POP SWAP3 SWAP2 POP POP JUMP JUMPDEST PUSH32 0x536861646F773A207A65726F2055534443206164647265737300000000000000 PUSH0 DUP3 ADD MSTORE POP JUMP JUMPDEST PUSH0 PUSH2 0x4DE PUSH1 0x19 DUP4 PUSH2 0x49A JUMP JUMPDEST SWAP2 POP PUSH2 0x4E9 DUP3 PUSH2 0x4AA JUMP JUMPDEST PUSH1 0x20 DUP3 ADD SWAP1 POP SWAP2 SWAP1 POP JUMP JUMPDEST PUSH0 PUSH1 0x20 DUP3 ADD SWAP1 POP DUP2 DUP2 SUB PUSH0 DUP4 ADD MSTORE PUSH2 0x50B DUP2 PUSH2 0x4D2 JUMP JUMPDEST SWAP1 POP SWAP2 SWAP1 POP JUMP JUMPDEST PUSH1 0x80 MLOAD PUSH1 0xA0 MLOAD PUSH2 0x265C PUSH2 0x541 PUSH0 CODECOPY PUSH0 DUP2 DUP2 PUSH2 0x34E ADD MSTORE DUP2 DUP2 PUSH2 0x4CE ADD MSTORE PUSH2 0x15D5 ADD MSTORE PUSH0 PUSH2 0xACE ADD MSTORE PUSH2 0x265C PUSH0 RETURN INVALID PUSH1 0x80 PUSH1 0x40 MSTORE CALLVALUE DUP1 ISZERO PUSH2 0xF JUMPI PUSH0 PUSH0 REVERT JUMPDEST POP PUSH1 0x4 CALLDATASIZE LT PUSH2 0x109 JUMPI PUSH0 CALLDATALOAD PUSH1 0xE0 SHR DUP1 PUSH4 0x8DA5CB5B GT PUSH2 0xA0 JUMPI DUP1 PUSH4 0xC3C44AC2 GT PUSH2 0x6F JUMPI DUP1 PUSH4 0xC3C44AC2 EQ PUSH2 0x26B JUMPI DUP1 PUSH4 0xD60C884B EQ PUSH2 0x287 JUMPI DUP1 PUSH4 0xD777CC6D EQ PUSH2 0x2A3 JUMPI DUP1 PUSH4 0xF2FDE38B EQ PUSH2 0x2BF JUMPI DUP1 PUSH4 0xF5C793EF EQ PUSH2 0x2DB JUMPI PUSH2 0x109 JUMP JUMPDEST DUP1 PUSH4 0x8DA5CB5B EQ PUSH2 0x1F5 JUMPI DUP1 PUSH4 0xA619D818 EQ PUSH2 0x213 JUMPI DUP1 PUSH4 0xB0F479A1 EQ PUSH2 0x231 JUMPI DUP1 PUSH4 0xBC1FC27A EQ PUSH2 0x24F JUMPI PUSH2 0x109 JUMP JUMPDEST DUP1 PUSH4 0x3E413BEE GT PUSH2 0xDC JUMPI DUP1 PUSH4 0x3E413BEE EQ PUSH2 0x195 JUMPI DUP1 PUSH4 0x715018A6 EQ PUSH2 0x1B3 JUMPI DUP1 PUSH4 0x805F2132 EQ PUSH2 0x1BD JUMPI DUP1 PUSH4 0x85572FFB EQ PUSH2 0x1D9 JUMPI PUSH2 0x109 JUMP JUMPDEST DUP1 PUSH4 0x1FFC9A7 EQ PUSH2 0x10D JUMPI DUP1 PUSH4 0x1DE26E16 EQ PUSH2 0x13D JUMPI DUP1 PUSH4 0x3397CF67 EQ PUSH2 0x159 JUMPI DUP1 PUSH4 0x3441856F EQ PUSH2 0x177 JUMPI JUMPDEST PUSH0 PUSH0 REVERT JUMPDEST PUSH2 0x127 PUSH1 0x4 DUP1 CALLDATASIZE SUB DUP2 ADD SWAP1 PUSH2 0x122 SWAP2 SWAP1 PUSH2 0x1765 JUMP JUMPDEST PUSH2 0x2F9 JUMP JUMPDEST PUSH1 0x40 MLOAD PUSH2 0x134 SWAP2 SWAP1 PUSH2 0x17AA JUMP JUMPDEST PUSH1 0x40 MLOAD DUP1 SWAP2 SUB SWAP1 RETURN JUMPDEST PUSH2 0x157 PUSH1 0x4 DUP1 CALLDATASIZE SUB DUP2 ADD SWAP1 PUSH2 0x152 SWAP2 SWAP1 PUSH2 0x1829 JUMP JUMPDEST PUSH2 0x30A JUMP JUMPDEST STOP JUMPDEST PUSH2 0x161 PUSH2 0x47C JUMP JUMPDEST PUSH1 0x40 MLOAD PUSH2 0x16E SWAP2 SWAP1 PUSH2 0x18A6 JUMP JUMPDEST PUSH1 0x40 MLOAD DUP1 SWAP2 SUB SWAP1 RETURN JUMPDEST PUSH2 0x17F PUSH2 0x4A4 JUMP JUMPDEST PUSH1 0x40 MLOAD PUSH2 0x18C SWAP2 SWAP1 PUSH2 0x18A6 JUMP JUMPDEST PUSH1 0x40 MLOAD DUP1 SWAP2 SUB SWAP1 RETURN JUMPDEST PUSH2 0x19D PUSH2 0x4CC JUMP JUMPDEST PUSH1 0x40 MLOAD PUSH2 0x1AA SWAP2 SWAP1 PUSH2 0x191A JUMP JUMPDEST PUSH1 0x40 MLOAD DUP1 SWAP2 SUB SWAP1 RETURN JUMPDEST PUSH2 0x1BB PUSH2 0x4F0 JUMP JUMPDEST STOP JUMPDEST PUSH2 0x1D7 PUSH1 0x4 DUP1 CALLDATASIZE SUB DUP2 ADD SWAP1 PUSH2 0x1D2 SWAP2 SWAP1 PUSH2 0x1994 JUMP JUMPDEST PUSH2 0x503 JUMP JUMPDEST STOP JUMPDEST PUSH2 0x1F3 PUSH1 0x4 DUP1 CALLDATASIZE SUB DUP2 ADD SWAP1 PUSH2 0x1EE SWAP2 SWAP1 PUSH2 0x1A34 JUMP JUMPDEST PUSH2 0xA02 JUMP JUMPDEST STOP JUMPDEST PUSH2 0x1FD PUSH2 0xA8E JUMP JUMPDEST PUSH1 0x40 MLOAD PUSH2 0x20A SWAP2 SWAP1 PUSH2 0x18A6 JUMP JUMPDEST PUSH1 0x40 MLOAD DUP1 SWAP2 SUB SWAP1 RETURN JUMPDEST PUSH2 0x21B PUSH2 0xAB5 JUMP JUMPDEST PUSH1 0x40 MLOAD PUSH2 0x228 SWAP2 SWAP1 PUSH2 0x1AB5 JUMP JUMPDEST PUSH1 0x40 MLOAD DUP1 SWAP2 SUB SWAP1 RETURN JUMPDEST PUSH2 0x239 PUSH2 0xACB JUMP JUMPDEST PUSH1 0x40 MLOAD PUSH2 0x246 SWAP2 SWAP1 PUSH2 0x18A6 JUMP JUMPDEST PUSH1 0x40 MLOAD DUP1 SWAP2 SUB SWAP1 RETURN JUMPDEST PUSH2 0x269 PUSH1 0x4 DUP1 CALLDATASIZE SUB DUP2 ADD SWAP1 PUSH2 0x264 SWAP2 SWAP1 PUSH2 0x1B23 JUMP JUMPDEST PUSH2 0xAF2 JUMP JUMPDEST STOP JUMPDEST PUSH2 0x285 PUSH1 0x4 DUP1 CALLDATASIZE SUB DUP2 ADD SWAP1 PUSH2 0x280 SWAP2 SWAP1 PUSH2 0x1B6E JUMP JUMPDEST PUSH2 0xD96 JUMP JUMPDEST STOP JUMPDEST PUSH2 0x2A1 PUSH1 0x4 DUP1 CALLDATASIZE SUB DUP2 ADD SWAP1 PUSH2 0x29C SWAP2 SWAP1 PUSH2 0x1BC3 JUMP JUMPDEST PUSH2 0xDDD JUMP JUMPDEST STOP JUMPDEST PUSH2 0x2BD PUSH1 0x4 DUP1 CALLDATASIZE SUB DUP2 ADD SWAP1 PUSH2 0x2B8 SWAP2 SWAP1 PUSH2 0x1BC3 JUMP JUMPDEST PUSH2 0xEA8 JUMP JUMPDEST STOP JUMPDEST PUSH2 0x2D9 PUSH1 0x4 DUP1 CALLDATASIZE SUB DUP2 ADD SWAP1 PUSH2 0x2D4 SWAP2 SWAP1 PUSH2 0x1BC3 JUMP JUMPDEST PUSH2 0xFDC JUMP JUMPDEST STOP JUMPDEST PUSH2 0x2E3 PUSH2 0x1060 JUMP JUMPDEST PUSH1 0x40 MLOAD PUSH2 0x2F0 SWAP2 SWAP1 PUSH2 0x1BFD JUMP JUMPDEST PUSH1 0x40 MLOAD DUP1 SWAP2 SUB SWAP1 RETURN JUMPDEST PUSH0 PUSH2 0x303 DUP3 PUSH2 0x1069 JUMP JUMPDEST SWAP1 POP SWAP2 SWAP1 POP JUMP JUMPDEST PUSH0 DUP2 GT PUSH2 0x34C JUMPI PUSH1 0x40 MLOAD PUSH32 0x8C379A000000000000000000000000000000000000000000000000000000000 DUP2 MSTORE PUSH1 0x4 ADD PUSH2 0x343 SWAP1 PUSH2 0x1C70 JUMP JUMPDEST PUSH1 0x40 MLOAD DUP1 SWAP2 SUB SWAP1 REVERT JUMPDEST PUSH32 0x0 PUSH20 0xFFFFFFFFFFFFFFFFFFFFFFFFFFFFFFFFFFFFFFFF AND PUSH4 0x23B872DD CALLER ADDRESS DUP5 PUSH1 0x40 MLOAD DUP5 PUSH4 0xFFFFFFFF AND PUSH1 0xE0 SHL DUP2 MSTORE PUSH1 0x4 ADD PUSH2 0x3A9 SWAP4 SWAP3 SWAP2 SWAP1 PUSH2 0x1C9D JUMP JUMPDEST PUSH1 0x20 PUSH1 0x40 MLOAD DUP1 DUP4 SUB DUP2 PUSH0 DUP8 GAS CALL ISZERO DUP1 ISZERO PUSH2 0x3C5 JUMPI RETURNDATASIZE PUSH0 PUSH0 RETURNDATACOPY RETURNDATASIZE PUSH0 REVERT JUMPDEST POP POP POP POP PUSH1 0x40 MLOAD RETURNDATASIZE PUSH1 0x1F NOT PUSH1 0x1F DUP3 ADD AND DUP3 ADD DUP1 PUSH1 0x40 MSTORE POP DUP2 ADD SWAP1 PUSH2 0x3E9 SWAP2 SWAP1 PUSH2 0x1CFC JUMP JUMPDEST PUSH2 0x428 JUMPI PUSH1 0x40 MLOAD PUSH32 0x8C379A000000000000000000000000000000000000000000000000000000000 DUP2 MSTORE PUSH1 0x4 ADD PUSH2 0x41F SWAP1 PUSH2 0x1D71 JUMP JUMPDEST PUSH1 0x40 MLOAD DUP1 SWAP2 SUB SWAP1 REVERT JUMPDEST CALLER PUSH20 0xFFFFFFFFFFFFFFFFFFFFFFFFFFFFFFFFFFFFFFFF AND PUSH32 0xA528A5618E16311D917A25D1B6F7D83F001F50E5B4BEE369286D16C83784E22A DUP4 DUP4 PUSH1 0x40 MLOAD PUSH2 0x470 SWAP3 SWAP2 SWAP1 PUSH2 0x1D8F JUMP JUMPDEST PUSH1 0x40 MLOAD DUP1 SWAP2 SUB SWAP1 LOG2 POP POP JUMP JUMPDEST PUSH0 PUSH1 0x2 PUSH0 SWAP1 SLOAD SWAP1 PUSH2 0x100 EXP SWAP1 DIV PUSH20 0xFFFFFFFFFFFFFFFFFFFFFFFFFFFFFFFFFFFFFFFF AND SWAP1 POP SWAP1 JUMP JUMPDEST PUSH0 PUSH1 0x1 PUSH0 SWAP1 SLOAD SWAP1 PUSH2 0x100 EXP SWAP1 DIV PUSH20 0xFFFFFFFFFFFFFFFFFFFFFFFFFFFFFFFFFFFFFFFF AND SWAP1 POP SWAP1 JUMP JUMPDEST PUSH32 0x0 DUP2 JUMP JUMPDEST PUSH2 0x4F8 PUSH2 0x113A JUMP JUMPDEST PUSH2 0x501 PUSH0 PUSH2 0x11C1 JUMP JUMPDEST JUMP JUMPDEST PUSH0 PUSH20 0xFFFFFFFFFFFFFFFFFFFFFFFFFFFFFFFFFFFFFFFF AND PUSH1 0x1 PUSH0 SWAP1 SLOAD SWAP1 PUSH2 0x100 EXP SWAP1 DIV PUSH20 0xFFFFFFFFFFFFFFFFFFFFFFFFFFFFFFFFFFFFFFFF AND PUSH20 0xFFFFFFFFFFFFFFFFFFFFFFFFFFFFFFFFFFFFFFFF AND EQ ISZERO DUP1 ISZERO PUSH2 0x5AD JUMPI POP PUSH1 0x1 PUSH0 SWAP1 SLOAD SWAP1 PUSH2 0x100 EXP SWAP1 DIV PUSH20 0xFFFFFFFFFFFFFFFFFFFFFFFFFFFFFFFFFFFFFFFF AND PUSH20 0xFFFFFFFFFFFFFFFFFFFFFFFFFFFFFFFFFFFFFFFF AND CALLER PUSH20 0xFFFFFFFFFFFFFFFFFFFFFFFFFFFFFFFFFFFFFFFF AND EQ ISZERO JUMPDEST ISZERO PUSH2 0x612 JUMPI CALLER PUSH1 0x1 PUSH0 SWAP1 SLOAD SWAP1 PUSH2 0x100 EXP SWAP1 DIV PUSH20 0xFFFFFFFFFFFFFFFFFFFFFFFFFFFFFFFFFFFFFFFF AND PUSH1 0x40 MLOAD PUSH32 0xE1130DBA00000000000000000000000000000000000000000000000000000000 DUP2 MSTORE PUSH1 0x4 ADD PUSH2 0x609 SWAP3 SWAP2 SWAP1 PUSH2 0x1DB6 JUMP JUMPDEST PUSH1 0x40 MLOAD DUP1 SWAP2 SUB SWAP1 REVERT JUMPDEST PUSH0 PUSH0 SHL PUSH1 0x3 SLOAD EQ ISZERO DUP1 PUSH2 0x672 JUMPI POP PUSH0 PUSH20 0xFFFFFFFFFFFFFFFFFFFFFFFFFFFFFFFFFFFFFFFF AND PUSH1 0x2 PUSH0 SWAP1 SLOAD SWAP1 PUSH2 0x100 EXP SWAP1 DIV PUSH20 0xFFFFFFFFFFFFFFFFFFFFFFFFFFFFFFFFFFFFFFFF AND PUSH20 0xFFFFFFFFFFFFFFFFFFFFFFFFFFFFFFFFFFFFFFFF AND EQ ISZERO JUMPDEST DUP1 PUSH2 0x6C1 JUMPI POP PUSH0 PUSH1 0xB0 SHL PUSH22 0xFFFFFFFFFFFFFFFFFFFFFFFFFFFFFFFFFFFFFFFFFFFF NOT AND PUSH1 0x2 PUSH1 0x14 SWAP1 SLOAD SWAP1 PUSH2 0x100 EXP SWAP1 DIV PUSH1 0xB0 SHL PUSH22 0xFFFFFFFFFFFFFFFFFFFFFFFFFFFFFFFFFFFFFFFFFFFF NOT AND EQ ISZERO JUMPDEST ISZERO PUSH2 0x9F2 JUMPI PUSH0 PUSH0 PUSH0 PUSH2 0x715 DUP8 DUP8 DUP1 DUP1 PUSH1 0x1F ADD PUSH1 0x20 DUP1 SWAP2 DIV MUL PUSH1 0x20 ADD PUSH1 0x40 MLOAD SWAP1 DUP2 ADD PUSH1 0x40 MSTORE DUP1 SWAP4 SWAP3 SWAP2 SWAP1 DUP2 DUP2 MSTORE PUSH1 0x20 ADD DUP4 DUP4 DUP1 DUP3 DUP5 CALLDATACOPY PUSH0 DUP2 DUP5 ADD MSTORE PUSH1 0x1F NOT PUSH1 0x1F DUP3 ADD AND SWAP1 POP DUP1 DUP4 ADD SWAP3 POP POP POP POP POP POP POP PUSH2 0x1282 JUMP JUMPDEST SWAP3 POP SWAP3 POP SWAP3 POP PUSH0 PUSH0 SHL PUSH1 0x3 SLOAD EQ ISZERO DUP1 ISZERO PUSH2 0x731 JUMPI POP PUSH1 0x3 SLOAD DUP4 EQ ISZERO JUMPDEST ISZERO PUSH2 0x777 JUMPI DUP3 PUSH1 0x3 SLOAD PUSH1 0x40 MLOAD PUSH32 0x9BFA39BA00000000000000000000000000000000000000000000000000000000 DUP2 MSTORE PUSH1 0x4 ADD PUSH2 0x76E SWAP3 SWAP2 SWAP1 PUSH2 0x1DDD JUMP JUMPDEST PUSH1 0x40 MLOAD DUP1 SWAP2 SUB SWAP1 REVERT JUMPDEST PUSH0 PUSH20 0xFFFFFFFFFFFFFFFFFFFFFFFFFFFFFFFFFFFFFFFF AND PUSH1 0x2 PUSH0 SWAP1 SLOAD SWAP1 PUSH2 0x100 EXP SWAP1 DIV PUSH20 0xFFFFFFFFFFFFFFFFFFFFFFFFFFFFFFFFFFFFFFFF AND PUSH20 0xFFFFFFFFFFFFFFFFFFFFFFFFFFFFFFFFFFFFFFFF AND EQ ISZERO DUP1 ISZERO PUSH2 0x821 JUMPI POP PUSH1 0x2 PUSH0 SWAP1 SLOAD SWAP1 PUSH2 0x100 EXP SWAP1 DIV PUSH20 0xFFFFFFFFFFFFFFFFFFFFFFFFFFFFFFFFFFFFFFFF AND PUSH20 0xFFFFFFFFFFFFFFFFFFFFFFFFFFFFFFFFFFFFFFFF AND DUP2 PUSH20 0xFFFFFFFFFFFFFFFFFFFFFFFFFFFFFFFFFFFFFFFF AND EQ ISZERO JUMPDEST ISZERO PUSH2 0x886 JUMPI DUP1 PUSH1 0x2 PUSH0 SWAP1 SLOAD SWAP1 PUSH2 0x100 EXP SWAP1 DIV PUSH20 0xFFFFFFFFFFFFFFFFFFFFFFFFFFFFFFFFFFFFFFFF AND PUSH1 0x40 MLOAD PUSH32 0xB8A98AF800000000000000000000000000000000000000000000000000000000 DUP2 MSTORE PUSH1 0x4 ADD PUSH2 0x87D SWAP3 SWAP2 SWAP1 PUSH2 0x1DB6 JUMP JUMPDEST PUSH1 0x40 MLOAD DUP1 SWAP2 SUB SWAP1 REVERT JUMPDEST PUSH0 PUSH1 0xB0 SHL PUSH22 0xFFFFFFFFFFFFFFFFFFFFFFFFFFFFFFFFFFFFFFFFFFFF NOT AND PUSH1 0x2 PUSH1 0x14 SWAP1 SLOAD SWAP1 PUSH2 0x100 EXP SWAP1 DIV PUSH1 0xB0 SHL PUSH22 0xFFFFFFFFFFFFFFFFFFFFFFFFFFFFFFFFFFFFFFFFFFFF NOT AND EQ PUSH2 0x9EE JUMPI PUSH0 PUSH20 0xFFFFFFFFFFFFFFFFFFFFFFFFFFFFFFFFFFFFFFFF AND PUSH1 0x2 PUSH0 SWAP1 SLOAD SWAP1 PUSH2 0x100 EXP SWAP1 DIV PUSH20 0xFFFFFFFFFFFFFFFFFFFFFFFFFFFFFFFFFFFFFFFF AND PUSH20 0xFFFFFFFFFFFFFFFFFFFFFFFFFFFFFFFFFFFFFFFF AND SUB PUSH2 0x957 JUMPI PUSH1 0x40 MLOAD PUSH32 0x4847901100000000000000000000000000000000000000000000000000000000 DUP2 MSTORE PUSH1 0x4 ADD PUSH1 0x40 MLOAD DUP1 SWAP2 SUB SWAP1 REVERT JUMPDEST PUSH1 0x2 PUSH1 0x14 SWAP1 SLOAD SWAP1 PUSH2 0x100 EXP SWAP1 DIV PUSH1 0xB0 SHL PUSH22 0xFFFFFFFFFFFFFFFFFFFFFFFFFFFFFFFFFFFFFFFFFFFF NOT AND DUP3 PUSH22 0xFFFFFFFFFFFFFFFFFFFFFFFFFFFFFFFFFFFFFFFFFFFF NOT AND EQ PUSH2 0x9ED JUMPI DUP2 PUSH1 0x2 PUSH1 0x14 SWAP1 SLOAD SWAP1 PUSH2 0x100 EXP SWAP1 DIV PUSH1 0xB0 SHL PUSH1 0x40 MLOAD PUSH32 0x6C4609A600000000000000000000000000000000000000000000000000000000 DUP2 MSTORE PUSH1 0x4 ADD PUSH2 0x9E4 SWAP3 SWAP2 SWAP1 PUSH2 0x1E04 JUMP JUMPDEST PUSH1 0x40 MLOAD DUP1 SWAP2 SUB SWAP1 REVERT JUMPDEST JUMPDEST POP POP POP JUMPDEST PUSH2 0x9FC DUP3 DUP3 PUSH2 0x12A7 JUMP JUMPDEST POP POP POP POP JUMP JUMPDEST PUSH2 0xA0A PUSH2 0xACB JUMP JUMPDEST PUSH20 0xFFFFFFFFFFFFFFFFFFFFFFFFFFFFFFFFFFFFFFFF AND CALLER PUSH20 0xFFFFFFFFFFFFFFFFFFFFFFFFFFFFFFFFFFFFFFFF AND EQ PUSH2 0xA79 JUMPI CALLER PUSH1 0x40 MLOAD PUSH32 0xD7F7333400000000000000000000000000000000000000000000000000000000 DUP2 MSTORE PUSH1 0x4 ADD PUSH2 0xA70 SWAP2 SWAP1 PUSH2 0x18A6 JUMP JUMPDEST PUSH1 0x40 MLOAD DUP1 SWAP2 SUB SWAP1 REVERT JUMPDEST PUSH2 0xA8B DUP2 PUSH2 0xA86 SWAP1 PUSH2 0x2192 JUMP JUMPDEST PUSH2 0x12CC JUMP JUMPDEST POP JUMP JUMPDEST PUSH0 PUSH0 PUSH0 SWAP1 SLOAD SWAP1 PUSH2 0x100 EXP SWAP1 DIV PUSH20 0xFFFFFFFFFFFFFFFFFFFFFFFFFFFFFFFFFFFFFFFF AND SWAP1 POP SWAP1 JUMP JUMPDEST PUSH0 PUSH1 0x2 PUSH1 0x14 SWAP1 SLOAD SWAP1 PUSH2 0x100 EXP SWAP1 DIV PUSH1 0xB0 SHL SWAP1 POP SWAP1 JUMP JUMPDEST PUSH0 PUSH32 0x0 SWAP1 POP SWAP1 JUMP JUMPDEST PUSH2 0xAFA PUSH2 0x113A JUMP JUMPDEST PUSH0 PUSH1 0x2 PUSH1 0x14 SWAP1 SLOAD SWAP1 PUSH2 0x100 EXP SWAP1 DIV PUSH1 0xB0 SHL SWAP1 POP PUSH0 DUP4 DUP4 SWAP1 POP SUB PUSH2 0xBA7 JUMPI PUSH0 PUSH1 0xB0 SHL PUSH1 0x2 PUSH1 0x14 PUSH2 0x100 EXP DUP2 SLOAD DUP2 PUSH10 0xFFFFFFFFFFFFFFFFFFFF MUL NOT AND SWAP1 DUP4 PUSH1 0xB0 SHR MUL OR SWAP1 SSTORE POP PUSH0 PUSH1 0xB0 SHL PUSH22 0xFFFFFFFFFFFFFFFFFFFFFFFFFFFFFFFFFFFFFFFFFFFF NOT AND DUP2 PUSH22 0xFFFFFFFFFFFFFFFFFFFFFFFFFFFFFFFFFFFFFFFFFFFF NOT AND PUSH32 0x1E7DDD09D504C82DCFC784A464B167469F5AAD967606EC4822D848EF9141DFA5 PUSH1 0x40 MLOAD PUSH1 0x40 MLOAD DUP1 SWAP2 SUB SWAP1 LOG3 POP PUSH2 0xD92 JUMP JUMPDEST PUSH0 PUSH1 0x2 DUP5 DUP5 PUSH1 0x40 MLOAD PUSH2 0xBBA SWAP3 SWAP2 SWAP1 PUSH2 0x21D2 JUMP JUMPDEST PUSH1 0x20 PUSH1 0x40 MLOAD DUP1 DUP4 SUB DUP2 DUP6 GAS STATICCALL ISZERO DUP1 ISZERO PUSH2 0xBD5 JUMPI RETURNDATASIZE PUSH0 PUSH0 RETURNDATACOPY RETURNDATASIZE PUSH0 REVERT JUMPDEST POP POP POP PUSH1 0x40 MLOAD RETURNDATASIZE PUSH1 0x1F NOT PUSH1 0x1F DUP3 ADD AND DUP3 ADD DUP1 PUSH1 0x40 MSTORE POP DUP2 ADD SWAP1 PUSH2 0xBF8 SWAP2 SWAP1 PUSH2 0x21FE JUMP JUMPDEST SWAP1 POP PUSH0 PUSH2 0xC23 DUP3 PUSH1 0x40 MLOAD PUSH1 0x20 ADD PUSH2 0xC0F SWAP2 SWAP1 PUSH2 0x2249 JUMP JUMPDEST PUSH1 0x40 MLOAD PUSH1 0x20 DUP2 DUP4 SUB SUB DUP2 MSTORE SWAP1 PUSH1 0x40 MSTORE PUSH2 0x131C JUMP JUMPDEST SWAP1 POP PUSH0 PUSH1 0xA PUSH8 0xFFFFFFFFFFFFFFFF DUP2 GT ISZERO PUSH2 0xC41 JUMPI PUSH2 0xC40 PUSH2 0x1E3F JUMP JUMPDEST JUMPDEST PUSH1 0x40 MLOAD SWAP1 DUP1 DUP3 MSTORE DUP1 PUSH1 0x1F ADD PUSH1 0x1F NOT AND PUSH1 0x20 ADD DUP3 ADD PUSH1 0x40 MSTORE DUP1 ISZERO PUSH2 0xC73 JUMPI DUP2 PUSH1 0x20 ADD PUSH1 0x1 DUP3 MUL DUP1 CALLDATASIZE DUP4 CALLDATACOPY DUP1 DUP3 ADD SWAP2 POP POP SWAP1 POP JUMPDEST POP SWAP1 POP PUSH0 PUSH0 SWAP1 POP JUMPDEST PUSH1 0xA DUP2 LT ISZERO PUSH2 0xCF0 JUMPI DUP3 DUP2 DUP2 MLOAD DUP2 LT PUSH2 0xC97 JUMPI PUSH2 0xC96 PUSH2 0x2263 JUMP JUMPDEST JUMPDEST PUSH1 0x20 ADD ADD MLOAD PUSH1 0xF8 SHR PUSH1 0xF8 SHL DUP3 DUP3 DUP2 MLOAD DUP2 LT PUSH2 0xCB5 JUMPI PUSH2 0xCB4 PUSH2 0x2263 JUMP JUMPDEST JUMPDEST PUSH1 0x20 ADD ADD SWAP1 PUSH31 0xFFFFFFFFFFFFFFFFFFFFFFFFFFFFFFFFFFFFFFFFFFFFFFFFFFFFFFFFFFFFFF NOT AND SWAP1 DUP2 PUSH0 BYTE SWAP1 MSTORE8 POP DUP1 DUP1 PUSH1 0x1 ADD SWAP2 POP POP PUSH2 0xC7B JUMP JUMPDEST POP DUP1 PUSH2 0xCFB SWAP1 PUSH2 0x22C9 JUMP JUMPDEST PUSH1 0x2 PUSH1 0x14 PUSH2 0x100 EXP DUP2 SLOAD DUP2 PUSH10 0xFFFFFFFFFFFFFFFFFFFF MUL NOT AND SWAP1 DUP4 PUSH1 0xB0 SHR MUL OR SWAP1 SSTORE POP PUSH1 0x2 PUSH1 0x14 SWAP1 SLOAD SWAP1 PUSH2 0x100 EXP SWAP1 DIV PUSH1 0xB0 SHL PUSH22 0xFFFFFFFFFFFFFFFFFFFFFFFFFFFFFFFFFFFFFFFFFFFF NOT AND DUP5 PUSH22 0xFFFFFFFFFFFFFFFFFFFFFFFFFFFFFFFFFFFFFFFFFFFF NOT AND PUSH32 0x1E7DDD09D504C82DCFC784A464B167469F5AAD967606EC4822D848EF9141DFA5 PUSH1 0x40 MLOAD PUSH1 0x40 MLOAD DUP1 SWAP2 SUB SWAP1 LOG3 POP POP POP POP JUMPDEST POP POP JUMP JUMPDEST PUSH2 0xD9E PUSH2 0x113A JUMP JUMPDEST PUSH0 PUSH1 0x3 SLOAD SWAP1 POP DUP2 PUSH1 0x3 DUP2 SWAP1 SSTORE POP DUP2 DUP2 PUSH32 0xDBEDCDF21925E053B4C574EAE180D7F2883235AB4976ECC0873598A2A999B03 PUSH1 0x40 MLOAD PUSH1 0x40 MLOAD DUP1 SWAP2 SUB SWAP1 LOG3 POP POP JUMP JUMPDEST PUSH2 0xDE5 PUSH2 0x113A JUMP JUMPDEST PUSH0 PUSH1 0x2 PUSH0 SWAP1 SLOAD SWAP1 PUSH2 0x100 EXP SWAP1 DIV PUSH20 0xFFFFFFFFFFFFFFFFFFFFFFFFFFFFFFFFFFFFFFFF AND SWAP1 POP DUP2 PUSH1 0x2 PUSH0 PUSH2 0x100 EXP DUP2 SLOAD DUP2 PUSH20 0xFFFFFFFFFFFFFFFFFFFFFFFFFFFFFFFFFFFFFFFF MUL NOT AND SWAP1 DUP4 PUSH20 0xFFFFFFFFFFFFFFFFFFFFFFFFFFFFFFFFFFFFFFFF AND MUL OR SWAP1 SSTORE POP DUP2 PUSH20 0xFFFFFFFFFFFFFFFFFFFFFFFFFFFFFFFFFFFFFFFF AND DUP2 PUSH20 0xFFFFFFFFFFFFFFFFFFFFFFFFFFFFFFFFFFFFFFFF AND PUSH32 0x3321CDA85C145617E47418AA14255E9DCBEC53A753778E57591703B89A3CAD31 PUSH1 0x40 MLOAD PUSH1 0x40 MLOAD DUP1 SWAP2 SUB SWAP1 LOG3 POP POP JUMP JUMPDEST PUSH2 0xEB0 PUSH2 0x113A JUMP JUMPDEST PUSH0 PUSH1 0x1 PUSH0 SWAP1 SLOAD SWAP1 PUSH2 0x100 EXP SWAP1 DIV PUSH20 0xFFFFFFFFFFFFFFFFFFFFFFFFFFFFFFFFFFFFFFFF AND SWAP1 POP PUSH0 PUSH20 0xFFFFFFFFFFFFFFFFFFFFFFFFFFFFFFFFFFFFFFFF AND DUP3 PUSH20 0xFFFFFFFFFFFFFFFFFFFFFFFFFFFFFFFFFFFFFFFF AND SUB PUSH2 0xF3E JUMPI PUSH32 0x704DA7DB165C79C1E33D542C079333BBDE970A733032D2F95FEC8FB7D770CBF7 PUSH1 0x40 MLOAD PUSH2 0xF35 SWAP1 PUSH2 0x239F JUMP JUMPDEST PUSH1 0x40 MLOAD DUP1 SWAP2 SUB SWAP1 LOG1 JUMPDEST DUP2 PUSH1 0x1 PUSH0 PUSH2 0x100 EXP DUP2 SLOAD DUP2 PUSH20 0xFFFFFFFFFFFFFFFFFFFFFFFFFFFFFFFFFFFFFFFF MUL NOT AND SWAP1 DUP4 PUSH20 0xFFFFFFFFFFFFFFFFFFFFFFFFFFFFFFFFFFFFFFFF AND MUL OR SWAP1 SSTORE POP DUP2 PUSH20 0xFFFFFFFFFFFFFFFFFFFFFFFFFFFFFFFFFFFFFFFF AND DUP2 PUSH20 0xFFFFFFFFFFFFFFFFFFFFFFFFFFFFFFFFFFFFFFFF AND PUSH32 0x39AD854736757070884DD787EF1A7F58DB33546639D1F3EFDDCF4A33FB8997E PUSH1 0x40 MLOAD PUSH1 0x40 MLOAD DUP1 SWAP2 SUB SWAP1 LOG3 POP POP JUMP JUMPDEST PUSH2 0xFE4 PUSH2 0x113A JUMP JUMPDEST PUSH0 PUSH20 0xFFFFFFFFFFFFFFFFFFFFFFFFFFFFFFFFFFFFFFFF AND DUP2 PUSH20 0xFFFFFFFFFFFFFFFFFFFFFFFFFFFFFFFFFFFFFFFF AND SUB PUSH2 0x1054 JUMPI PUSH0 PUSH1 0x40 MLOAD PUSH32 0x1E4FBDF700000000000000000000000000000000000000000000000000000000 DUP2 MSTORE PUSH1 0x4 ADD PUSH2 0x104B SWAP2 SWAP1 PUSH2 0x18A6 JUMP JUMPDEST PUSH1 0x40 MLOAD DUP1 SWAP2 SUB SWAP1 REVERT JUMPDEST PUSH2 0x105D DUP2 PUSH2 0x11C1 JUMP JUMPDEST POP JUMP JUMPDEST PUSH0 PUSH1 0x3 SLOAD SWAP1 POP SWAP1 JUMP JUMPDEST PUSH0 PUSH32 0x805F213200000000000000000000000000000000000000000000000000000000 PUSH28 0xFFFFFFFFFFFFFFFFFFFFFFFFFFFFFFFFFFFFFFFFFFFFFFFFFFFFFFFF NOT AND DUP3 PUSH28 0xFFFFFFFFFFFFFFFFFFFFFFFFFFFFFFFFFFFFFFFFFFFFFFFFFFFFFFFF NOT AND EQ DUP1 PUSH2 0x1133 JUMPI POP PUSH32 0x1FFC9A700000000000000000000000000000000000000000000000000000000 PUSH28 0xFFFFFFFFFFFFFFFFFFFFFFFFFFFFFFFFFFFFFFFFFFFFFFFFFFFFFFFF NOT AND DUP3 PUSH28 0xFFFFFFFFFFFFFFFFFFFFFFFFFFFFFFFFFFFFFFFFFFFFFFFFFFFFFFFF NOT AND EQ JUMPDEST SWAP1 POP SWAP2 SWAP1 POP JUMP JUMPDEST PUSH2 0x1142 PUSH2 0x155E JUMP JUMPDEST PUSH20 0xFFFFFFFFFFFFFFFFFFFFFFFFFFFFFFFFFFFFFFFF AND PUSH2 0x1160 PUSH2 0xA8E JUMP JUMPDEST PUSH20 0xFFFFFFFFFFFFFFFFFFFFFFFFFFFFFFFFFFFFFFFF AND EQ PUSH2 0x11BF JUMPI PUSH2 0x1183 PUSH2 0x155E JUMP JUMPDEST PUSH1 0x40 MLOAD PUSH32 0x118CDAA700000000000000000000000000000000000000000000000000000000 DUP2 MSTORE PUSH1 0x4 ADD PUSH2 0x11B6 SWAP2 SWAP1 PUSH2 0x18A6 JUMP JUMPDEST PUSH1 0x40 MLOAD DUP1 SWAP2 SUB SWAP1 REVERT JUMPDEST JUMP JUMPDEST PUSH0 PUSH0 PUSH0 SWAP1 SLOAD SWAP1 PUSH2 0x100 EXP SWAP1 DIV PUSH20 0xFFFFFFFFFFFFFFFFFFFFFFFFFFFFFFFFFFFFFFFF AND SWAP1 POP DUP2 PUSH0 PUSH0 PUSH2 0x100 EXP DUP2 SLOAD DUP2 PUSH20 0xFFFFFFFFFFFFFFFFFFFFFFFFFFFFFFFFFFFFFFFF MUL NOT AND SWAP1 DUP4 PUSH20 0xFFFFFFFFFFFFFFFFFFFFFFFFFFFFFFFFFFFFFFFF AND MUL OR SWAP1 SSTORE POP DUP2 PUSH20 0xFFFFFFFFFFFFFFFFFFFFFFFFFFFFFFFFFFFFFFFF AND DUP2 PUSH20 0xFFFFFFFFFFFFFFFFFFFFFFFFFFFFFFFFFFFFFFFF AND PUSH32 0x8BE0079C531659141344CD1FD0A4F28419497F9722A3DAAFE3B4186F6B6457E0 PUSH1 0x40 MLOAD PUSH1 0x40 MLOAD DUP1 SWAP2 SUB SWAP1 LOG3 POP POP JUMP JUMPDEST PUSH0 PUSH0 PUSH0 PUSH1 0x20 DUP5 ADD MLOAD SWAP3 POP PUSH1 0x40 DUP5 ADD MLOAD SWAP2 POP PUSH1 0x4A DUP5 ADD MLOAD PUSH1 0x8 PUSH1 0xC MUL SHR SWAP1 POP SWAP2 SWAP4 SWAP1 SWAP3 POP JUMP JUMPDEST PUSH0 PUSH0 DUP4 DUP4 DUP2 ADD SWAP1 PUSH2 0x12B8 SWAP2 SWAP1 PUSH2 0x23F8 JUMP JUMPDEST SWAP2 POP SWAP2 POP PUSH2 0x12C6 DUP3 DUP3 PUSH2 0x1565 JUMP JUMPDEST POP POP POP POP JUMP JUMPDEST PUSH0 DUP2 PUSH1 0x60 ADD MLOAD DUP1 PUSH1 0x20 ADD SWAP1 MLOAD DUP2 ADD SWAP1 PUSH2 0x12E5 SWAP2 SWAP1 PUSH2 0x244A JUMP JUMPDEST SWAP1 POP PUSH0 DUP3 PUSH1 0x80 ADD MLOAD PUSH0 DUP2 MLOAD DUP2 LT PUSH2 0x12FF JUMPI PUSH2 0x12FE PUSH2 0x2263 JUMP JUMPDEST JUMPDEST PUSH1 0x20 MUL PUSH1 0x20 ADD ADD MLOAD PUSH1 0x20 ADD MLOAD SWAP1 POP PUSH2 0x1317 DUP3 DUP3 PUSH2 0x1565 JUMP JUMPDEST POP POP POP JUMP JUMPDEST PUSH1 0x60 PUSH0 PUSH1 0x2 DUP4 MLOAD PUSH2 0x132D SWAP2 SWAP1 PUSH2 0x24A2 JUMP JUMPDEST PUSH8 0xFFFFFFFFFFFFFFFF DUP2 GT ISZERO PUSH2 0x1346 JUMPI PUSH2 0x1345 PUSH2 0x1E3F JUMP JUMPDEST JUMPDEST PUSH1 0x40 MLOAD SWAP1 DUP1 DUP3 MSTORE DUP1 PUSH1 0x1F ADD PUSH1 0x1F NOT AND PUSH1 0x20 ADD DUP3 ADD PUSH1 0x40 MSTORE DUP1 ISZERO PUSH2 0x1378 JUMPI DUP2 PUSH1 0x20 ADD PUSH1 0x1 DUP3 MUL DUP1 CALLDATASIZE DUP4 CALLDATACOPY DUP1 DUP3 ADD SWAP2 POP POP SWAP1 POP JUMPDEST POP SWAP1 POP PUSH0 PUSH0 SWAP1 POP JUMPDEST DUP4 MLOAD DUP2 LT ISZERO PUSH2 0x1554 JUMPI PUSH1 0x40 MLOAD DUP1 PUSH1 0x40 ADD PUSH1 0x40 MSTORE DUP1 PUSH1 0x10 DUP2 MSTORE PUSH1 0x20 ADD PUSH32 0x3031323334353637383961626364656600000000000000000000000000000000 DUP2 MSTORE POP PUSH1 0x4 DUP6 DUP4 DUP2 MLOAD DUP2 LT PUSH2 0x13D4 JUMPI PUSH2 0x13D3 PUSH2 0x2263 JUMP JUMPDEST JUMPDEST PUSH1 0x20 ADD ADD MLOAD PUSH1 0xF8 SHR PUSH1 0xF8 SHL PUSH31 0xFFFFFFFFFFFFFFFFFFFFFFFFFFFFFFFFFFFFFFFFFFFFFFFFFFFFFFFFFFFFFF NOT AND SWAP1 SHR PUSH1 0xF8 SHR PUSH1 0xFF AND DUP2 MLOAD DUP2 LT PUSH2 0x141A JUMPI PUSH2 0x1419 PUSH2 0x2263 JUMP JUMPDEST JUMPDEST PUSH1 0x20 ADD ADD MLOAD PUSH1 0xF8 SHR PUSH1 0xF8 SHL DUP3 PUSH1 0x2 DUP4 PUSH2 0x1433 SWAP2 SWAP1 PUSH2 0x24A2 JUMP JUMPDEST DUP2 MLOAD DUP2 LT PUSH2 0x1444 JUMPI PUSH2 0x1443 PUSH2 0x2263 JUMP JUMPDEST JUMPDEST PUSH1 0x20 ADD ADD SWAP1 PUSH31 0xFFFFFFFFFFFFFFFFFFFFFFFFFFFFFFFFFFFFFFFFFFFFFFFFFFFFFFFFFFFFFF NOT AND SWAP1 DUP2 PUSH0 BYTE SWAP1 MSTORE8 POP PUSH1 0x40 MLOAD DUP1 PUSH1 0x40 ADD PUSH1 0x40 MSTORE DUP1 PUSH1 0x10 DUP2 MSTORE PUSH1 0x20 ADD PUSH32 0x3031323334353637383961626364656600000000000000000000000000000000 DUP2 MSTORE POP PUSH1 0xF PUSH1 0xF8 SHL DUP6 DUP4 DUP2 MLOAD DUP2 LT PUSH2 0x14C0 JUMPI PUSH2 0x14BF PUSH2 0x2263 JUMP JUMPDEST JUMPDEST PUSH1 0x20 ADD ADD MLOAD PUSH1 0xF8 SHR PUSH1 0xF8 SHL AND PUSH1 0xF8 SHR PUSH1 0xFF AND DUP2 MLOAD DUP2 LT PUSH2 0x14E3 JUMPI PUSH2 0x14E2 PUSH2 0x2263 JUMP JUMPDEST JUMPDEST PUSH1 0x20 ADD ADD MLOAD PUSH1 0xF8 SHR PUSH1 0xF8 SHL DUP3 PUSH1 0x1 PUSH1 0x2 DUP5 PUSH2 0x14FE SWAP2 SWAP1 PUSH2 0x24A2 JUMP JUMPDEST PUSH2 0x1508 SWAP2 SWAP1 PUSH2 0x24E3 JUMP JUMPDEST DUP2 MLOAD DUP2 LT PUSH2 0x1519 JUMPI PUSH2 0x1518 PUSH2 0x2263 JUMP JUMPDEST JUMPDEST PUSH1 0x20 ADD ADD SWAP1 PUSH31 0xFFFFFFFFFFFFFFFFFFFFFFFFFFFFFFFFFFFFFFFFFFFFFFFFFFFFFFFFFFFFFF NOT AND SWAP1 DUP2 PUSH0 BYTE SWAP1 MSTORE8 POP DUP1 DUP1 PUSH1 0x1 ADD SWAP2 POP POP PUSH2 0x1380 JUMP JUMPDEST POP DUP1 SWAP2 POP POP SWAP2 SWAP1 POP JUMP JUMPDEST PUSH0 CALLER SWAP1 POP SWAP1 JUMP JUMPDEST PUSH0 PUSH20 0xFFFFFFFFFFFFFFFFFFFFFFFFFFFFFFFFFFFFFFFF AND DUP3 PUSH20 0xFFFFFFFFFFFFFFFFFFFFFFFFFFFFFFFFFFFFFFFF AND SUB PUSH2 0x15D3 JUMPI PUSH1 0x40 MLOAD PUSH32 0x8C379A000000000000000000000000000000000000000000000000000000000 DUP2 MSTORE PUSH1 0x4 ADD PUSH2 0x15CA SWAP1 PUSH2 0x2560 JUMP JUMPDEST PUSH1 0x40 MLOAD DUP1 SWAP2 SUB SWAP1 REVERT JUMPDEST PUSH32 0x0 PUSH20 0xFFFFFFFFFFFFFFFFFFFFFFFFFFFFFFFFFFFFFFFF AND PUSH4 0xA9059CBB DUP4 DUP4 PUSH1 0x40 MLOAD DUP4 PUSH4 0xFFFFFFFF AND PUSH1 0xE0 SHL DUP2 MSTORE PUSH1 0x4 ADD PUSH2 0x162E SWAP3 SWAP2 SWAP1 PUSH2 0x257E JUMP JUMPDEST PUSH1 0x20 PUSH1 0x40 MLOAD DUP1 DUP4 SUB DUP2 PUSH0 DUP8 GAS CALL ISZERO DUP1 ISZERO PUSH2 0x164A JUMPI RETURNDATASIZE PUSH0 PUSH0 RETURNDATACOPY RETURNDATASIZE PUSH0 REVERT JUMPDEST POP POP POP POP PUSH1 0x40 MLOAD RETURNDATASIZE PUSH1 0x1F NOT PUSH1 0x1F DUP3 ADD AND DUP3 ADD DUP1 PUSH1 0x40 MSTORE POP DUP2 ADD SWAP1 PUSH2 0x166E SWAP2 SWAP1 PUSH2 0x1CFC JUMP JUMPDEST PUSH2 0x16AD JUMPI PUSH1 0x40 MLOAD PUSH32 0x8C379A000000000000000000000000000000000000000000000000000000000 DUP2 MSTORE PUSH1 0x4 ADD PUSH2 0x16A4 SWAP1 PUSH2 0x25EF JUMP JUMPDEST PUSH1 0x40 MLOAD DUP1 SWAP2 SUB SWAP1 REVERT JUMPDEST DUP2 PUSH20 0xFFFFFFFFFFFFFFFFFFFFFFFFFFFFFFFFFFFFFFFF AND PUSH32 0xF406FE54E7C193E129427F5D405F4B20ED911C3A00285118711B015CD0D1414 DUP3 PUSH1 0x40 MLOAD PUSH2 0x16F3 SWAP2 SWAP1 PUSH2 0x260D JUMP JUMPDEST PUSH1 0x40 MLOAD DUP1 SWAP2 SUB SWAP1 LOG2 POP POP JUMP JUMPDEST PUSH0 PUSH1 0x40 MLOAD SWAP1 POP SWAP1 JUMP JUMPDEST PUSH0 PUSH0 REVERT JUMPDEST PUSH0 PUSH0 REVERT JUMPDEST PUSH0 PUSH32 0xFFFFFFFF00000000000000000000000000000000000000000000000000000000 DUP3 AND SWAP1 POP SWAP2 SWAP1 POP JUMP JUMPDEST PUSH2 0x1744 DUP2 PUSH2 0x1710 JUMP JUMPDEST DUP2 EQ PUSH2 0x174E JUMPI PUSH0 PUSH0 REVERT JUMPDEST POP JUMP JUMPDEST PUSH0 DUP2 CALLDATALOAD SWAP1 POP PUSH2 0x175F DUP2 PUSH2 0x173B JUMP JUMPDEST SWAP3 SWAP2 POP POP JUMP JUMPDEST PUSH0 PUSH1 0x20 DUP3 DUP5 SUB SLT ISZERO PUSH2 0x177A JUMPI PUSH2 0x1779 PUSH2 0x1708 JUMP JUMPDEST JUMPDEST PUSH0 PUSH2 0x1787 DUP5 DUP3 DUP6 ADD PUSH2 0x1751 JUMP JUMPDEST SWAP2 POP POP SWAP3 SWAP2 POP POP JUMP JUMPDEST PUSH0 DUP2 ISZERO ISZERO SWAP1 POP SWAP2 SWAP1 POP JUMP JUMPDEST PUSH2 0x17A4 DUP2 PUSH2 0x1790 JUMP JUMPDEST DUP3 MSTORE POP POP JUMP JUMPDEST PUSH0 PUSH1 0x20 DUP3 ADD SWAP1 POP PUSH2 0x17BD PUSH0 DUP4 ADD DUP5 PUSH2 0x179B JUMP JUMPDEST SWAP3 SWAP2 POP POP JUMP JUMPDEST PUSH0 DUP2 SWAP1 POP SWAP2 SWAP1 POP JUMP JUMPDEST PUSH2 0x17D5 DUP2 PUSH2 0x17C3 JUMP JUMPDEST DUP2 EQ PUSH2 0x17DF JUMPI PUSH0 PUSH0 REVERT JUMPDEST POP JUMP JUMPDEST PUSH0 DUP2 CALLDATALOAD SWAP1 POP PUSH2 0x17F0 DUP2 PUSH2 0x17CC JUMP JUMPDEST SWAP3 SWAP2 POP POP JUMP JUMPDEST PUSH0 DUP2 SWAP1 POP SWAP2 SWAP1 POP JUMP JUMPDEST PUSH2 0x1808 DUP2 PUSH2 0x17F6 JUMP JUMPDEST DUP2 EQ PUSH2 0x1812 JUMPI PUSH0 PUSH0 REVERT JUMPDEST POP JUMP JUMPDEST PUSH0 DUP2 CALLDATALOAD SWAP1 POP PUSH2 0x1823 DUP2 PUSH2 0x17FF JUMP JUMPDEST SWAP3 SWAP2 POP POP JUMP JUMPDEST PUSH0 PUSH0 PUSH1 0x40 DUP4 DUP6 SUB SLT ISZERO PUSH2 0x183F JUMPI PUSH2 0x183E PUSH2 0x1708 JUMP JUMPDEST JUMPDEST PUSH0 PUSH2 0x184C DUP6 DUP3 DUP7 ADD PUSH2 0x17E2 JUMP JUMPDEST SWAP3 POP POP PUSH1 0x20 PUSH2 0x185D DUP6 DUP3 DUP7 ADD PUSH2 0x1815 JUMP JUMPDEST SWAP2 POP POP SWAP3 POP SWAP3 SWAP1 POP JUMP JUMPDEST PUSH0 PUSH20 0xFFFFFFFFFFFFFFFFFFFFFFFFFFFFFFFFFFFFFFFF DUP3 AND SWAP1 POP SWAP2 SWAP1 POP JUMP JUMPDEST PUSH0 PUSH2 0x1890 DUP3 PUSH2 0x1867 JUMP JUMPDEST SWAP1 POP SWAP2 SWAP1 POP JUMP JUMPDEST PUSH2 0x18A0 DUP2 PUSH2 0x1886 JUMP JUMPDEST DUP3 MSTORE POP POP JUMP JUMPDEST PUSH0 PUSH1 0x20 DUP3 ADD SWAP1 POP PUSH2 0x18B9 PUSH0 DUP4 ADD DUP5 PUSH2 0x1897 JUMP JUMPDEST SWAP3 SWAP2 POP POP JUMP JUMPDEST PUSH0 DUP2 SWAP1 POP SWAP2 SWAP1 POP JUMP JUMPDEST PUSH0 PUSH2 0x18E2 PUSH2 0x18DD PUSH2 0x18D8 DUP5 PUSH2 0x1867 JUMP JUMPDEST PUSH2 0x18BF JUMP JUMPDEST PUSH2 0x1867 JUMP JUMPDEST SWAP1 POP SWAP2 SWAP1 POP JUMP JUMPDEST PUSH0 PUSH2 0x18F3 DUP3 PUSH2 0x18C8 JUMP JUMPDEST SWAP1 POP SWAP2 SWAP1 POP JUMP JUMPDEST PUSH0 PUSH2 0x1904 DUP3 PUSH2 0x18E9 JUMP JUMPDEST SWAP1 POP SWAP2 SWAP1 POP JUMP JUMPDEST PUSH2 0x1914 DUP2 PUSH2 0x18FA JUMP JUMPDEST DUP3 MSTORE POP POP JUMP JUMPDEST PUSH0 PUSH1 0x20 DUP3 ADD SWAP1 POP PUSH2 0x192D PUSH0 DUP4 ADD DUP5 PUSH2 0x190B JUMP JUMPDEST SWAP3 SWAP2 POP POP JUMP JUMPDEST PUSH0 PUSH0 REVERT JUMPDEST PUSH0 PUSH0 REVERT JUMPDEST PUSH0 PUSH0 REVERT JUMPDEST PUSH0 PUSH0 DUP4 PUSH1 0x1F DUP5 ADD SLT PUSH2 0x1954 JUMPI PUSH2 0x1953 PUSH2 0x1933 JUMP JUMPDEST JUMPDEST DUP3 CALLDATALOAD SWAP1 POP PUSH8 0xFFFFFFFFFFFFFFFF DUP2 GT ISZERO PUSH2 0x1971 JUMPI PUSH2 0x1970 PUSH2 0x1937 JUMP JUMPDEST JUMPDEST PUSH1 0x20 DUP4 ADD SWAP2 POP DUP4 PUSH1 0x1 DUP3 MUL DUP4 ADD GT ISZERO PUSH2 0x198D JUMPI PUSH2 0x198C PUSH2 0x193B JUMP JUMPDEST JUMPDEST SWAP3 POP SWAP3 SWAP1 POP JUMP JUMPDEST PUSH0 PUSH0 PUSH0 PUSH0 PUSH1 0x40 DUP6 DUP8 SUB SLT ISZERO PUSH2 0x19AC JUMPI PUSH2 0x19AB PUSH2 0x1708 JUMP JUMPDEST JUMPDEST PUSH0 DUP6 ADD CALLDATALOAD PUSH8 0xFFFFFFFFFFFFFFFF DUP2 GT ISZERO PUSH2 0x19C9 JUMPI PUSH2 0x19C8 PUSH2 0x170C JUMP JUMPDEST JUMPDEST PUSH2 0x19D5 DUP8 DUP3 DUP9 ADD PUSH2 0x193F JUMP JUMPDEST SWAP5 POP SWAP5 POP POP PUSH1 0x20 DUP6 ADD CALLDATALOAD PUSH8 0xFFFFFFFFFFFFFFFF DUP2 GT ISZERO PUSH2 0x19F8 JUMPI PUSH2 0x19F7 PUSH2 0x170C JUMP JUMPDEST JUMPDEST PUSH2 0x1A04 DUP8 DUP3 DUP9 ADD PUSH2 0x193F JUMP JUMPDEST SWAP3 POP SWAP3 POP POP SWAP3 SWAP6 SWAP2 SWAP5 POP SWAP3 POP JUMP JUMPDEST PUSH0 PUSH0 REVERT JUMPDEST PUSH0 PUSH1 0xA0 DUP3 DUP5 SUB SLT ISZERO PUSH2 0x1A2B JUMPI PUSH2 0x1A2A PUSH2 0x1A12 JUMP JUMPDEST JUMPDEST DUP2 SWAP1 POP SWAP3 SWAP2 POP POP JUMP JUMPDEST PUSH0 PUSH1 0x20 DUP3 DUP5 SUB SLT ISZERO PUSH2 0x1A49 JUMPI PUSH2 0x1A48 PUSH2 0x1708 JUMP JUMPDEST JUMPDEST PUSH0 DUP3 ADD CALLDATALOAD PUSH8 0xFFFFFFFFFFFFFFFF DUP2 GT ISZERO PUSH2 0x1A66 JUMPI PUSH2 0x1A65 PUSH2 0x170C JUMP JUMPDEST JUMPDEST PUSH2 0x1A72 DUP5 DUP3 DUP6 ADD PUSH2 0x1A16 JUMP JUMPDEST SWAP2 POP POP SWAP3 SWAP2 POP POP JUMP JUMPDEST PUSH0 PUSH32 0xFFFFFFFFFFFFFFFFFFFF00000000000000000000000000000000000000000000 DUP3 AND SWAP1 POP SWAP2 SWAP1 POP JUMP JUMPDEST PUSH2 0x1AAF DUP2 PUSH2 0x1A7B JUMP JUMPDEST DUP3 MSTORE POP POP JUMP JUMPDEST PUSH0 PUSH1 0x20 DUP3 ADD SWAP1 POP PUSH2 0x1AC8 PUSH0 DUP4 ADD DUP5 PUSH2 0x1AA6 JUMP JUMPDEST SWAP3 SWAP2 POP POP JUMP JUMPDEST PUSH0 PUSH0 DUP4 PUSH1 0x1F DUP5 ADD SLT PUSH2 0x1AE3 JUMPI PUSH2 0x1AE2 PUSH2 0x1933 JUMP JUMPDEST JUMPDEST DUP3 CALLDATALOAD SWAP1 POP PUSH8 0xFFFFFFFFFFFFFFFF DUP2 GT ISZERO PUSH2 0x1B00 JUMPI PUSH2 0x1AFF PUSH2 0x1937 JUMP JUMPDEST JUMPDEST PUSH1 0x20 DUP4 ADD SWAP2 POP DUP4 PUSH1 0x1 DUP3 MUL DUP4 ADD GT ISZERO PUSH2 0x1B1C JUMPI PUSH2 0x1B1B PUSH2 0x193B JUMP JUMPDEST JUMPDEST SWAP3 POP SWAP3 SWAP1 POP JUMP JUMPDEST PUSH0 PUSH0 PUSH1 0x20 DUP4 DUP6 SUB SLT ISZERO PUSH2 0x1B39 JUMPI PUSH2 0x1B38 PUSH2 0x1708 JUMP JUMPDEST JUMPDEST PUSH0 DUP4 ADD CALLDATALOAD PUSH8 0xFFFFFFFFFFFFFFFF DUP2 GT ISZERO PUSH2 0x1B56 JUMPI PUSH2 0x1B55 PUSH2 0x170C JUMP JUMPDEST JUMPDEST PUSH2 0x1B62 DUP6 DUP3 DUP7 ADD PUSH2 0x1ACE JUMP JUMPDEST SWAP3 POP SWAP3 POP POP SWAP3 POP SWAP3 SWAP1 POP JUMP JUMPDEST PUSH0 PUSH1 0x20 DUP3 DUP5 SUB SLT ISZERO PUSH2 0x1B83 JUMPI PUSH2 0x1B82 PUSH2 0x1708 JUMP JUMPDEST JUMPDEST PUSH0 PUSH2 0x1B90 DUP5 DUP3 DUP6 ADD PUSH2 0x17E2 JUMP JUMPDEST SWAP2 POP POP SWAP3 SWAP2 POP POP JUMP JUMPDEST PUSH2 0x1BA2 DUP2 PUSH2 0x1886 JUMP JUMPDEST DUP2 EQ PUSH2 0x1BAC JUMPI PUSH0 PUSH0 REVERT JUMPDEST POP JUMP JUMPDEST PUSH0 DUP2 CALLDATALOAD SWAP1 POP PUSH2 0x1BBD DUP2 PUSH2 0x1B99 JUMP JUMPDEST SWAP3 SWAP2 POP POP JUMP JUMPDEST PUSH0 PUSH1 0x20 DUP3 DUP5 SUB SLT ISZERO PUSH2 0x1BD8 JUMPI PUSH2 0x1BD7 PUSH2 0x1708 JUMP JUMPDEST JUMPDEST PUSH0 PUSH2 0x1BE5 DUP5 DUP3 DUP6 ADD PUSH2 0x1BAF JUMP JUMPDEST SWAP2 POP POP SWAP3 SWAP2 POP POP JUMP JUMPDEST PUSH2 0x1BF7 DUP2 PUSH2 0x17C3 JUMP JUMPDEST DUP3 MSTORE POP POP JUMP JUMPDEST PUSH0 PUSH1 0x20 DUP3 ADD SWAP1 POP PUSH2 0x1C10 PUSH0 DUP4 ADD DUP5 PUSH2 0x1BEE JUMP JUMPDEST SWAP3 SWAP2 POP POP JUMP JUMPDEST PUSH0 DUP3 DUP3 MSTORE PUSH1 0x20 DUP3 ADD SWAP1 POP SWAP3 SWAP2 POP POP JUMP JUMPDEST PUSH32 0x536861646F773A207A65726F20616D6F756E7400000000000000000000000000 PUSH0 DUP3 ADD MSTORE POP JUMP JUMPDEST PUSH0 PUSH2 0x1C5A PUSH1 0x13 DUP4 PUSH2 0x1C16 JUMP JUMPDEST SWAP2 POP PUSH2 0x1C65 DUP3 PUSH2 0x1C26 JUMP JUMPDEST PUSH1 0x20 DUP3 ADD SWAP1 POP SWAP2 SWAP1 POP JUMP JUMPDEST PUSH0 PUSH1 0x20 DUP3 ADD SWAP1 POP DUP2 DUP2 SUB PUSH0 DUP4 ADD MSTORE PUSH2 0x1C87 DUP2 PUSH2 0x1C4E JUMP JUMPDEST SWAP1 POP SWAP2 SWAP1 POP JUMP JUMPDEST PUSH2 0x1C97 DUP2 PUSH2 0x17F6 JUMP JUMPDEST DUP3 MSTORE POP POP JUMP JUMPDEST PUSH0 PUSH1 0x60 DUP3 ADD SWAP1 POP PUSH2 0x1CB0 PUSH0 DUP4 ADD DUP7 PUSH2 0x1897 JUMP JUMPDEST PUSH2 0x1CBD PUSH1 0x20 DUP4 ADD DUP6 PUSH2 0x1897 JUMP JUMPDEST PUSH2 0x1CCA PUSH1 0x40 DUP4 ADD DUP5 PUSH2 0x1C8E JUMP JUMPDEST SWAP5 SWAP4 POP POP POP POP JUMP JUMPDEST PUSH2 0x1CDB DUP2 PUSH2 0x1790 JUMP JUMPDEST DUP2 EQ PUSH2 0x1CE5 JUMPI PUSH0 PUSH0 REVERT JUMPDEST POP JUMP JUMPDEST PUSH0 DUP2 MLOAD SWAP1 POP PUSH2 0x1CF6 DUP2 PUSH2 0x1CD2 JUMP JUMPDEST SWAP3 SWAP2 POP POP JUMP JUMPDEST PUSH0 PUSH1 0x20 DUP3 DUP5 SUB SLT ISZERO PUSH2 0x1D11 JUMPI PUSH2 0x1D10 PUSH2 0x1708 JUMP JUMPDEST JUMPDEST PUSH0 PUSH2 0x1D1E DUP5 DUP3 DUP6 ADD PUSH2 0x1CE8 JUMP JUMPDEST SWAP2 POP POP SWAP3 SWAP2 POP POP JUMP JUMPDEST PUSH32 0x5472616E73666572206661696C65640000000000000000000000000000000000 PUSH0 DUP3 ADD MSTORE POP JUMP JUMPDEST PUSH0 PUSH2 0x1D5B PUSH1 0xF DUP4 PUSH2 0x1C16 JUMP JUMPDEST SWAP2 POP PUSH2 0x1D66 DUP3 PUSH2 0x1D27 JUMP JUMPDEST PUSH1 0x20 DUP3 ADD SWAP1 POP SWAP2 SWAP1 POP JUMP JUMPDEST PUSH0 PUSH1 0x20 DUP3 ADD SWAP1 POP DUP2 DUP2 SUB PUSH0 DUP4 ADD MSTORE PUSH2 0x1D88 DUP2 PUSH2 0x1D4F JUMP JUMPDEST SWAP1 POP SWAP2 SWAP1 POP JUMP JUMPDEST PUSH0 PUSH1 0x40 DUP3 ADD SWAP1 POP PUSH2 0x1DA2 PUSH0 DUP4 ADD DUP6 PUSH2 0x1BEE JUMP JUMPDEST PUSH2 0x1DAF PUSH1 0x20 DUP4 ADD DUP5 PUSH2 0x1C8E JUMP JUMPDEST SWAP4 SWAP3 POP POP POP JUMP JUMPDEST PUSH0 PUSH1 0x40 DUP3 ADD SWAP1 POP PUSH2 0x1DC9 PUSH0 DUP4 ADD DUP6 PUSH2 0x1897 JUMP JUMPDEST PUSH2 0x1DD6 PUSH1 0x20 DUP4 ADD DUP5 PUSH2 0x1897 JUMP JUMPDEST SWAP4 SWAP3 POP POP POP JUMP JUMPDEST PUSH0 PUSH1 0x40 DUP3 ADD SWAP1 POP PUSH2 0x1DF0 PUSH0 DUP4 ADD DUP6 PUSH2 0x1BEE JUMP JUMPDEST PUSH2 0x1DFD PUSH1 0x20 DUP4 ADD DUP5 PUSH2 0x1BEE JUMP JUMPDEST SWAP4 SWAP3 POP POP POP JUMP JUMPDEST PUSH0 PUSH1 0x40 DUP3 ADD SWAP1 POP PUSH2 0x1E17 PUSH0 DUP4 ADD DUP6 PUSH2 0x1AA6 JUMP JUMPDEST PUSH2 0x1E24 PUSH1 0x20 DUP4 ADD DUP5 PUSH2 0x1AA6 JUMP JUMPDEST SWAP4 SWAP3 POP POP POP JUMP JUMPDEST PUSH0 PUSH0 REVERT JUMPDEST PUSH0 PUSH1 0x1F NOT PUSH1 0x1F DUP4 ADD AND SWAP1 POP SWAP2 SWAP1 POP JUMP JUMPDEST PUSH32 0x4E487B7100000000000000000000000000000000000000000000000000000000 PUSH0 MSTORE PUSH1 0x41 PUSH1 0x4 MSTORE PUSH1 0x24 PUSH0 REVERT JUMPDEST PUSH2 0x1E75 DUP3 PUSH2 0x1E2F JUMP JUMPDEST DUP2 ADD DUP2 DUP2 LT PUSH8 0xFFFFFFFFFFFFFFFF DUP3 GT OR ISZERO PUSH2 0x1E94 JUMPI PUSH2 0x1E93 PUSH2 0x1E3F JUMP JUMPDEST JUMPDEST DUP1 PUSH1 0x40 MSTORE POP POP POP JUMP JUMPDEST PUSH0 PUSH2 0x1EA6 PUSH2 0x16FF JUMP JUMPDEST SWAP1 POP PUSH2 0x1EB2 DUP3 DUP3 PUSH2 0x1E6C JUMP JUMPDEST SWAP2 SWAP1 POP JUMP JUMPDEST PUSH0 PUSH0 REVERT JUMPDEST PUSH0 PUSH8 0xFFFFFFFFFFFFFFFF DUP3 AND SWAP1 POP SWAP2 SWAP1 POP JUMP JUMPDEST PUSH2 0x1ED7 DUP2 PUSH2 0x1EBB JUMP JUMPDEST DUP2 EQ PUSH2 0x1EE1 JUMPI PUSH0 PUSH0 REVERT JUMPDEST POP JUMP JUMPDEST PUSH0 DUP2 CALLDATALOAD SWAP1 POP PUSH2 0x1EF2 DUP2 PUSH2 0x1ECE JUMP JUMPDEST SWAP3 SWAP2 POP POP JUMP JUMPDEST PUSH0 PUSH0 REVERT JUMPDEST PUSH0 PUSH8 0xFFFFFFFFFFFFFFFF DUP3 GT ISZERO PUSH2 0x1F16 JUMPI PUSH2 0x1F15 PUSH2 0x1E3F JUMP JUMPDEST JUMPDEST PUSH2 0x1F1F DUP3 PUSH2 0x1E2F JUMP JUMPDEST SWAP1 POP PUSH1 0x20 DUP2 ADD SWAP1 POP SWAP2 SWAP1 POP JUMP JUMPDEST DUP3 DUP2 DUP4 CALLDATACOPY PUSH0 DUP4 DUP4 ADD MSTORE POP POP POP JUMP JUMPDEST PUSH0 PUSH2 0x1F4C PUSH2 0x1F47 DUP5 PUSH2 0x1EFC JUMP JUMPDEST PUSH2 0x1E9D JUMP JUMPDEST SWAP1 POP DUP3 DUP2 MSTORE PUSH1 0x20 DUP2 ADD DUP5 DUP5 DUP5 ADD GT ISZERO PUSH2 0x1F68 JUMPI PUSH2 0x1F67 PUSH2 0x1EF8 JUMP JUMPDEST JUMPDEST PUSH2 0x1F73 DUP5 DUP3 DUP6 PUSH2 0x1F2C JUMP JUMPDEST POP SWAP4 SWAP3 POP POP POP JUMP JUMPDEST PUSH0 DUP3 PUSH1 0x1F DUP4 ADD SLT PUSH2 0x1F8F JUMPI PUSH2 0x1F8E PUSH2 0x1933 JUMP JUMPDEST JUMPDEST DUP2 CALLDATALOAD PUSH2 0x1F9F DUP5 DUP3 PUSH1 0x20 DUP7 ADD PUSH2 0x1F3A JUMP JUMPDEST SWAP2 POP POP SWAP3 SWAP2 POP POP JUMP JUMPDEST PUSH0 PUSH8 0xFFFFFFFFFFFFFFFF DUP3 GT ISZERO PUSH2 0x1FC2 JUMPI PUSH2 0x1FC1 PUSH2 0x1E3F JUMP JUMPDEST JUMPDEST PUSH1 0x20 DUP3 MUL SWAP1 POP PUSH1 0x20 DUP2 ADD SWAP1 POP SWAP2 SWAP1 POP JUMP JUMPDEST PUSH0 PUSH1 0x40 DUP3 DUP5 SUB SLT ISZERO PUSH2 0x1FE8 JUMPI PUSH2 0x1FE7 PUSH2 0x1E2B JUMP JUMPDEST JUMPDEST PUSH2 0x1FF2 PUSH1 0x40 PUSH2 0x1E9D JUMP JUMPDEST SWAP1 POP PUSH0 PUSH2 0x2001 DUP5 DUP3 DUP6 ADD PUSH2 0x1BAF JUMP JUMPDEST PUSH0 DUP4 ADD MSTORE POP PUSH1 0x20 PUSH2 0x2014 DUP5 DUP3 DUP6 ADD PUSH2 0x1815 JUMP JUMPDEST PUSH1 0x20 DUP4 ADD MSTORE POP SWAP3 SWAP2 POP POP JUMP JUMPDEST PUSH0 PUSH2 0x2032 PUSH2 0x202D DUP5 PUSH2 0x1FA8 JUMP JUMPDEST PUSH2 0x1E9D JUMP JUMPDEST SWAP1 POP DUP1 DUP4 DUP3 MSTORE PUSH1 0x20 DUP3 ADD SWAP1 POP PUSH1 0x40 DUP5 MUL DUP4 ADD DUP6 DUP2 GT ISZERO PUSH2 0x2055 JUMPI PUSH2 0x2054 PUSH2 0x193B JUMP JUMPDEST JUMPDEST DUP4 JUMPDEST DUP2 DUP2 LT ISZERO PUSH2 0x207E JUMPI DUP1 PUSH2 0x206A DUP9 DUP3 PUSH2 0x1FD3 JUMP JUMPDEST DUP5 MSTORE PUSH1 0x20 DUP5 ADD SWAP4 POP POP PUSH1 0x40 DUP2 ADD SWAP1 POP PUSH2 0x2057 JUMP JUMPDEST POP POP POP SWAP4 SWAP3 POP POP POP JUMP JUMPDEST PUSH0 DUP3 PUSH1 0x1F DUP4 ADD SLT PUSH2 0x209C JUMPI PUSH2 0x209B PUSH2 0x1933 JUMP JUMPDEST JUMPDEST DUP2 CALLDATALOAD PUSH2 0x20AC DUP5 DUP3 PUSH1 0x20 DUP7 ADD PUSH2 0x2020 JUMP JUMPDEST SWAP2 POP POP SWAP3 SWAP2 POP POP JUMP JUMPDEST PUSH0 PUSH1 0xA0 DUP3 DUP5 SUB SLT ISZERO PUSH2 0x20CA JUMPI PUSH2 0x20C9 PUSH2 0x1E2B JUMP JUMPDEST JUMPDEST PUSH2 0x20D4 PUSH1 0xA0 PUSH2 0x1E9D JUMP JUMPDEST SWAP1 POP PUSH0 PUSH2 0x20E3 DUP5 DUP3 DUP6 ADD PUSH2 0x17E2 JUMP JUMPDEST PUSH0 DUP4 ADD MSTORE POP PUSH1 0x20 PUSH2 0x20F6 DUP5 DUP3 DUP6 ADD PUSH2 0x1EE4 JUMP JUMPDEST PUSH1 0x20 DUP4 ADD MSTORE POP PUSH1 0x40 DUP3 ADD CALLDATALOAD PUSH8 0xFFFFFFFFFFFFFFFF DUP2 GT ISZERO PUSH2 0x211A JUMPI PUSH2 0x2119 PUSH2 0x1EB7 JUMP JUMPDEST JUMPDEST PUSH2 0x2126 DUP5 DUP3 DUP6 ADD PUSH2 0x1F7B JUMP JUMPDEST PUSH1 0x40 DUP4 ADD MSTORE POP PUSH1 0x60 DUP3 ADD CALLDATALOAD PUSH8 0xFFFFFFFFFFFFFFFF DUP2 GT ISZERO PUSH2 0x214A JUMPI PUSH2 0x2149 PUSH2 0x1EB7 JUMP JUMPDEST JUMPDEST PUSH2 0x2156 DUP5 DUP3 DUP6 ADD PUSH2 0x1F7B JUMP JUMPDEST PUSH1 0x60 DUP4 ADD MSTORE POP PUSH1 0x80 DUP3 ADD CALLDATALOAD PUSH8 0xFFFFFFFFFFFFFFFF DUP2 GT ISZERO PUSH2 0x217A JUMPI PUSH2 0x2179 PUSH2 0x1EB7 JUMP JUMPDEST JUMPDEST PUSH2 0x2186 DUP5 DUP3 DUP6 ADD PUSH2 0x2088 JUMP JUMPDEST PUSH1 0x80 DUP4 ADD MSTORE POP SWAP3 SWAP2 POP POP JUMP JUMPDEST PUSH0 PUSH2 0x219D CALLDATASIZE DUP4 PUSH2 0x20B5 JUMP JUMPDEST SWAP1 POP SWAP2 SWAP1 POP JUMP JUMPDEST PUSH0 DUP2 SWAP1 POP SWAP3 SWAP2 POP POP JUMP JUMPDEST PUSH0 PUSH2 0x21B9 DUP4 DUP6 PUSH2 0x21A4 JUMP JUMPDEST SWAP4 POP PUSH2 0x21C6 DUP4 DUP6 DUP5 PUSH2 0x1F2C JUMP JUMPDEST DUP3 DUP5 ADD SWAP1 POP SWAP4 SWAP3 POP POP POP JUMP JUMPDEST PUSH0 PUSH2 0x21DE DUP3 DUP5 DUP7 PUSH2 0x21AE JUMP JUMPDEST SWAP2 POP DUP2 SWAP1 POP SWAP4 SWAP3 POP POP POP JUMP JUMPDEST PUSH0 DUP2 MLOAD SWAP1 POP PUSH2 0x21F8 DUP2 PUSH2 0x17CC JUMP JUMPDEST SWAP3 SWAP2 POP POP JUMP JUMPDEST PUSH0 PUSH1 0x20 DUP3 DUP5 SUB SLT ISZERO PUSH2 0x2213 JUMPI PUSH2 0x2212 PUSH2 0x1708 JUMP JUMPDEST JUMPDEST PUSH0 PUSH2 0x2220 DUP5 DUP3 DUP6 ADD PUSH2 0x21EA JUMP JUMPDEST SWAP2 POP POP SWAP3 SWAP2 POP POP JUMP JUMPDEST PUSH0 DUP2 SWAP1 POP SWAP2 SWAP1 POP JUMP JUMPDEST PUSH2 0x2243 PUSH2 0x223E DUP3 PUSH2 0x17C3 JUMP JUMPDEST PUSH2 0x2229 JUMP JUMPDEST DUP3 MSTORE POP POP JUMP JUMPDEST PUSH0 PUSH2 0x2254 DUP3 DUP5 PUSH2 0x2232 JUMP JUMPDEST PUSH1 0x20 DUP3 ADD SWAP2 POP DUP2 SWAP1 POP SWAP3 SWAP2 POP POP JUMP JUMPDEST PUSH32 0x4E487B7100000000000000000000000000000000000000000000000000000000 PUSH0 MSTORE PUSH1 0x32 PUSH1 0x4 MSTORE PUSH1 0x24 PUSH0 REVERT JUMPDEST PUSH0 DUP2 MLOAD SWAP1 POP SWAP2 SWAP1 POP JUMP JUMPDEST PUSH0 DUP2 SWAP1 POP PUSH1 0x20 DUP3 ADD SWAP1 POP SWAP2 SWAP1 POP JUMP JUMPDEST PUSH0 PUSH2 0x22B4 DUP3 MLOAD PUSH2 0x1A7B JUMP JUMPDEST DUP1 SWAP2 POP POP SWAP2 SWAP1 POP JUMP JUMPDEST PUSH0 DUP3 DUP3 SHL SWAP1 POP SWAP3 SWAP2 POP POP JUMP JUMPDEST PUSH0 PUSH2 0x22D3 DUP3 PUSH2 0x2290 JUMP JUMPDEST DUP3 PUSH2 0x22DD DUP5 PUSH2 0x229A JUMP JUMPDEST SWAP1 POP PUSH2 0x22E8 DUP2 PUSH2 0x22A9 JUMP JUMPDEST SWAP3 POP PUSH1 0xA DUP3 LT ISZERO PUSH2 0x2328 JUMPI PUSH2 0x2323 PUSH32 0xFFFFFFFFFFFFFFFFFFFF00000000000000000000000000000000000000000000 DUP4 PUSH1 0xA SUB PUSH1 0x8 MUL PUSH2 0x22BD JUMP JUMPDEST DUP4 AND SWAP3 POP JUMPDEST POP POP SWAP2 SWAP1 POP JUMP JUMPDEST PUSH32 0x466F7277617264657220616464726573732073657420746F207A65726F202D20 PUSH0 DUP3 ADD MSTORE PUSH32 0x636F6E7472616374206973206E6F7720494E5345435552450000000000000000 PUSH1 0x20 DUP3 ADD MSTORE POP JUMP JUMPDEST PUSH0 PUSH2 0x2389 PUSH1 0x38 DUP4 PUSH2 0x1C16 JUMP JUMPDEST SWAP2 POP PUSH2 0x2394 DUP3 PUSH2 0x232F JUMP JUMPDEST PUSH1 0x40 DUP3 ADD SWAP1 POP SWAP2 SWAP1 POP JUMP JUMPDEST PUSH0 PUSH1 0x20 DUP3 ADD SWAP1 POP DUP2 DUP2 SUB PUSH0 DUP4 ADD MSTORE PUSH2 0x23B6 DUP2 PUSH2 0x237D JUMP JUMPDEST SWAP1 POP SWAP2 SWAP1 POP JUMP JUMPDEST PUSH0 PUSH2 0x23C7 DUP3 PUSH2 0x1867 JUMP JUMPDEST SWAP1 POP SWAP2 SWAP1 POP JUMP JUMPDEST PUSH2 0x23D7 DUP2 PUSH2 0x23BD JUMP JUMPDEST DUP2 EQ PUSH2 0x23E1 JUMPI PUSH0 PUSH0 REVERT JUMPDEST POP JUMP JUMPDEST PUSH0 DUP2 CALLDATALOAD SWAP1 POP PUSH2 0x23F2 DUP2 PUSH2 0x23CE JUMP JUMPDEST SWAP3 SWAP2 POP POP JUMP JUMPDEST PUSH0 PUSH0 PUSH1 0x40 DUP4 DUP6 SUB SLT ISZERO PUSH2 0x240E JUMPI PUSH2 0x240D PUSH2 0x1708 JUMP JUMPDEST JUMPDEST PUSH0 PUSH2 0x241B DUP6 DUP3 DUP7 ADD PUSH2 0x23E4 JUMP JUMPDEST SWAP3 POP POP PUSH1 0x20 PUSH2 0x242C DUP6 DUP3 DUP7 ADD PUSH2 0x1815 JUMP JUMPDEST SWAP2 POP POP SWAP3 POP SWAP3 SWAP1 POP JUMP JUMPDEST PUSH0 DUP2 MLOAD SWAP1 POP PUSH2 0x2444 DUP2 PUSH2 0x23CE JUMP JUMPDEST SWAP3 SWAP2 POP POP JUMP JUMPDEST PUSH0 PUSH1 0x20 DUP3 DUP5 SUB SLT ISZERO PUSH2 0x245F JUMPI PUSH2 0x245E PUSH2 0x1708 JUMP JUMPDEST JUMPDEST PUSH0 PUSH2 0x246C DUP5 DUP3 DUP6 ADD PUSH2 0x2436 JUMP JUMPDEST SWAP2 POP POP SWAP3 SWAP2 POP POP JUMP JUMPDEST PUSH32 0x4E487B7100000000000000000000000000000000000000000000000000000000 PUSH0 MSTORE PUSH1 0x11 PUSH1 0x4 MSTORE PUSH1 0x24 PUSH0 REVERT JUMPDEST PUSH0 PUSH2 0x24AC DUP3 PUSH2 0x17F6 JUMP JUMPDEST SWAP2 POP PUSH2 0x24B7 DUP4 PUSH2 0x17F6 JUMP JUMPDEST SWAP3 POP DUP3 DUP3 MUL PUSH2 0x24C5 DUP2 PUSH2 0x17F6 JUMP JUMPDEST SWAP2 POP DUP3 DUP3 DIV DUP5 EQ DUP4 ISZERO OR PUSH2 0x24DC JUMPI PUSH2 0x24DB PUSH2 0x2475 JUMP JUMPDEST JUMPDEST POP SWAP3 SWAP2 POP POP JUMP JUMPDEST PUSH0 PUSH2 0x24ED DUP3 PUSH2 0x17F6 JUMP JUMPDEST SWAP2 POP PUSH2 0x24F8 DUP4 PUSH2 0x17F6 JUMP JUMPDEST SWAP3 POP DUP3 DUP3 ADD SWAP1 POP DUP1 DUP3 GT ISZERO PUSH2 0x2510 JUMPI PUSH2 0x250F PUSH2 0x2475 JUMP JUMPDEST JUMPDEST SWAP3 SWAP2 POP POP JUMP JUMPDEST PUSH32 0x536861646F773A207A65726F20726563697069656E7400000000000000000000 PUSH0 DUP3 ADD MSTORE POP JUMP JUMPDEST PUSH0 PUSH2 0x254A PUSH1 0x16 DUP4 PUSH2 0x1C16 JUMP JUMPDEST SWAP2 POP PUSH2 0x2555 DUP3 PUSH2 0x2516 JUMP JUMPDEST PUSH1 0x20 DUP3 ADD SWAP1 POP SWAP2 SWAP1 POP JUMP JUMPDEST PUSH0 PUSH1 0x20 DUP3 ADD SWAP1 POP DUP2 DUP2 SUB PUSH0 DUP4 ADD MSTORE PUSH2 0x2577 DUP2 PUSH2 0x253E JUMP JUMPDEST SWAP1 POP SWAP2 SWAP1 POP JUMP JUMPDEST PUSH0 PUSH1 0x40 DUP3 ADD SWAP1 POP PUSH2 0x2591 PUSH0 DUP4 ADD DUP6 PUSH2 0x1897 JUMP JUMPDEST PUSH2 0x259E PUSH1 0x20 DUP4 ADD DUP5 PUSH2 0x1C8E JUMP JUMPDEST SWAP4 SWAP3 POP POP POP JUMP JUMPDEST PUSH32 0x5061796F7574206661696C656400000000000000000000000000000000000000 PUSH0 DUP3 ADD MSTORE POP JUMP JUMPDEST PUSH0 PUSH2 0x25D9 PUSH1 0xD DUP4 PUSH2 0x1C16 JUMP JUMPDEST SWAP2 POP PUSH2 0x25E4 DUP3 PUSH2 0x25A5 JUMP JUMPDEST PUSH1 0x20 DUP3 ADD SWAP1 POP SWAP2 SWAP1 POP JUMP JUMPDEST PUSH0 PUSH1 0x20 DUP3 ADD SWAP1 POP DUP2 DUP2 SUB PUSH0 DUP4 ADD MSTORE PUSH2 0x2606 DUP2 PUSH2 0x25CD JUMP JUMPDEST SWAP1 POP SWAP2 SWAP1 POP JUMP JUMPDEST PUSH0 PUSH1 0x20 DUP3 ADD SWAP1 POP PUSH2 0x2620 PUSH0 DUP4 ADD DUP5 PUSH2 0x1C8E JUMP JUMPDEST SWAP3 SWAP2 POP POP JUMP INVALID LOG2 PUSH5 0x6970667358 0x22 SLT KECCAK256 0xD8 SUB LOG2 MSTORE PUSH4 0x7F89C274 PUSH11 0x1064932C71A5E6FDDBABE8 CALLDATACOPY 0xB8 0xAF MSTORE8 0xD7 EXP EXTDELEGATECALL 0x29 0xED SDIV JUMPDEST PUSH5 0x736F6C6343 STOP ADDMOD 0x1F STOP CALLER "
				},
				"gasEstimates": {
					"creation": {
						"codeDepositCost": "1964000",
						"executionCost": "infinite",
						"totalCost": "infinite"
					},
					"external": {
						"ccipReceive((bytes32,uint64,bytes,bytes,(address,uint256)[]))": "infinite",
						"deposit(bytes32,uint256)": "infinite",
						"getExpectedAuthor()": "2583",
						"getExpectedWorkflowId()": "2542",
						"getExpectedWorkflowName()": "2569",
						"getForwarderAddress()": "2605",
						"getRouter()": "infinite",
						"onReport(bytes,bytes)": "infinite",
						"owner()": "2537",
						"renounceOwnership()": "infinite",
						"setExpectedAuthor(address)": "infinite",
						"setExpectedWorkflowId(bytes32)": "infinite",
						"setExpectedWorkflowName(string)": "infinite",
						"setForwarderAddress(address)": "infinite",
						"supportsInterface(bytes4)": "741",
						"transferOwnership(address)": "infinite",
						"usdc()": "infinite"
					},
					"internal": {
						"_ccipReceive(struct Client.Any2EVMMessage memory)": "infinite",
						"_executePayout(address,uint256)": "infinite",
						"_processReport(bytes calldata)": "infinite"
					}
				},
				"methodIdentifiers": {
					"ccipReceive((bytes32,uint64,bytes,bytes,(address,uint256)[]))": "85572ffb",
					"deposit(bytes32,uint256)": "1de26e16",
					"getExpectedAuthor()": "3397cf67",
					"getExpectedWorkflowId()": "f5c793ef",
					"getExpectedWorkflowName()": "a619d818",
					"getForwarderAddress()": "3441856f",
					"getRouter()": "b0f479a1",
					"onReport(bytes,bytes)": "805f2132",
					"owner()": "8da5cb5b",
					"renounceOwnership()": "715018a6",
					"setExpectedAuthor(address)": "d60c884b",
					"setExpectedWorkflowId(bytes32)": "c3c44ac2",
					"setExpectedWorkflowName(string)": "bc1fc27a",
					"setForwarderAddress(address)": "d777cc6d",
					"supportsInterface(bytes4)": "01ffc9a7",
					"transferOwnership(address)": "f2fde38b",
					"usdc()": "3e413bee"
				}
			},
			"storageLayout": {
				"storage": [
					{
						"astId": 231,
						"contract": "contracts/token.sol:Shadow",
						"label": "_owner",
						"offset": 0,
						"slot": "0",
						"type": "t_address"
					},
					{
						"astId": 519,
						"contract": "contracts/token.sol:Shadow",
						"label": "s_forwarderAddress",
						"offset": 0,
						"slot": "1",
						"type": "t_address"
					},
					{
						"astId": 521,
						"contract": "contracts/token.sol:Shadow",
						"label": "s_expectedAuthor",
						"offset": 0,
						"slot": "2",
						"type": "t_address"
					},
					{
						"astId": 523,
						"contract": "contracts/token.sol:Shadow",
						"label": "s_expectedWorkflowName",
						"offset": 20,
						"slot": "2",
						"type": "t_bytes10"
					},
					{
						"astId": 525,
						"contract": "contracts/token.sol:Shadow",
						"label": "s_expectedWorkflowId",
						"offset": 0,
						"slot": "3",
						"type": "t_bytes32"
					}
				],
				"types": {
					"t_address": {
						"encoding": "inplace",
						"label": "address",
						"numberOfBytes": "20"
					},
					"t_bytes10": {
						"encoding": "inplace",
						"label": "bytes10",
						"numberOfBytes": "10"
					},
					"t_bytes32": {
						"encoding": "inplace",
						"label": "bytes32",
						"numberOfBytes": "32"
					}
				}
			},
			"userdoc": {
				"kind": "user",
				"methods": {
					"ccipReceive((bytes32,uint64,bytes,bytes,(address,uint256)[]))": {
						"notice": "Called by the Router to deliver a message. If this reverts, any token transfers also revert. The message will move to a FAILED state and become available for manual execution."
					},
					"deposit(bytes32,uint256)": {
						"notice": "Same-chain deposit"
					},
					"getExpectedAuthor()": {
						"notice": "Returns the expected workflow author address"
					},
					"getExpectedWorkflowId()": {
						"notice": "Returns the expected workflow ID"
					},
					"getExpectedWorkflowName()": {
						"notice": "Returns the expected workflow name"
					},
					"getForwarderAddress()": {
						"notice": "Returns the configured forwarder address"
					},
					"getRouter()": {
						"notice": "Return the current router"
					},
					"onReport(bytes,bytes)": {
						"notice": "Handles incoming keystone reports."
					},
					"setExpectedAuthor(address)": {
						"notice": "Updates the expected workflow owner address"
					},
					"setExpectedWorkflowId(bytes32)": {
						"notice": "Updates the expected workflow ID"
					},
					"setExpectedWorkflowName(string)": {
						"notice": "Updates the expected workflow name from a plaintext string"
					},
					"setForwarderAddress(address)": {
						"notice": "Updates the forwarder address that is allowed to call onReport"
					}
				},
				"version": 1
			}
		}
	}
}