{
	"contracts/token.sol": {
		"Shadow": {
			"abi": [
				{
					"inputs": [
						{
							"internalType": "address",
							"name": "_usdc",
							"type": "address"
						},
						{
							"internalType": "address",
							"name": "_forwarder",
							"type": "address"
						},
						{
							"internalType": "address",
							"name": "_router",
							"type": "address"
						}
					],
					"stateMutability": "nonpayable",
					"type": "constructor"
				},
				{
					"inputs": [
						{
							"internalType": "address",
							"name": "received",
							"type": "address"
						},
						{
							"internalType": "address",
							"name": "expected",
							"type": "address"
						}
					],
					"name": "InvalidAuthor",
					"type": "error"
				},
				{
					"inputs": [],
					"name": "InvalidForwarderAddress",
					"type": "error"
				},
				{
					"inputs": [
						{
							"internalType": "address",
							"name": "router",
							"type": "address"
						}
					],
					"name": "InvalidRouter",
					"type": "error"
				},
				{
					"inputs": [
						{
							"internalType": "address",
							"name": "sender",
							"type": "address"
						},
						{
							"internalType": "address",
							"name": "expected",
							"type": "address"
						}
					],
					"name": "InvalidSender",
					"type": "error"
				},
				{
					"inputs": [
						{
							"internalType": "bytes32",
							"name": "received",
							"type": "bytes32"
						},
						{
							"internalType": "bytes32",
							"name": "expected",
							"type": "bytes32"
						}
					],
					"name": "InvalidWorkflowId",
					"type": "error"
				},
				{
					"inputs": [
						{
							"internalType": "bytes10",
							"name": "received",
							"type": "bytes10"
						},
						{
							"internalType": "bytes10",
							"name": "expected",
							"type": "bytes10"
						}
					],
					"name": "InvalidWorkflowName",
					"type": "error"
				},
				{
					"inputs": [
						{
							"internalType": "address",
							"name": "owner",
							"type": "address"
						}
					],
					"name": "OwnableInvalidOwner",
					"type": "error"
				},
				{
					"inputs": [
						{
							"internalType": "address",
							"name": "account",
							"type": "address"
						}
					],
					"name": "OwnableUnauthorizedAccount",
					"type": "error"
				},
				{
					"inputs": [],
					"name": "WorkflowNameRequiresAuthorValidation",
					"type": "error"
				},
				{
					"anonymous": false,
					"inputs": [
						{
							"indexed": true,
							"internalType": "address",
							"name": "previousAuthor",
							"type": "address"
						},
						{
							"indexed": true,
							"internalType": "address",
							"name": "newAuthor",
							"type": "address"
						}
					],
					"name": "ExpectedAuthorUpdated",
					"type": "event"
				},
				{
					"anonymous": false,
					"inputs": [
						{
							"indexed": true,
							"internalType": "bytes32",
							"name": "previousId",
							"type": "bytes32"
						},
						{
							"indexed": true,
							"internalType": "bytes32",
							"name": "newId",
							"type": "bytes32"
						}
					],
					"name": "ExpectedWorkflowIdUpdated",
					"type": "event"
				},
				{
					"anonymous": false,
					"inputs": [
						{
							"indexed": true,
							"internalType": "bytes10",
							"name": "previousName",
							"type": "bytes10"
						},
						{
							"indexed": true,
							"internalType": "bytes10",
							"name": "newName",
							"type": "bytes10"
						}
					],
					"name": "ExpectedWorkflowNameUpdated",
					"type": "event"
				},
				{
					"anonymous": false,
					"inputs": [
						{
							"indexed": true,
							"internalType": "address",
							"name": "previousForwarder",
							"type": "address"
						},
						{
							"indexed": true,
							"internalType": "address",
							"name": "newForwarder",
							"type": "address"
						}
					],
					"name": "ForwarderAddressUpdated",
					"type": "event"
				},
				{
					"anonymous": false,
					"inputs": [
						{
							"indexed": true,
							"internalType": "address",
							"name": "previousOwner",
							"type": "address"
						},
						{
							"indexed": true,
							"internalType": "address",
							"name": "newOwner",
							"type": "address"
						}
					],
					"name": "OwnershipTransferred",
					"type": "event"
				},
				{
					"anonymous": false,
					"inputs": [
						{
							"indexed": false,
							"internalType": "string",
							"name": "message",
							"type": "string"
						}
					],
					"name": "SecurityWarning",
					"type": "event"
				},
				{
					"anonymous": false,
					"inputs": [
						{
							"indexed": true,
							"internalType": "address",
							"name": "sender",
							"type": "address"
						},
						{
							"indexed": false,
							"internalType": "bytes32",
							"name": "encryptedRecipient",
							"type": "bytes32"
						},
						{
							"indexed": false,
							"internalType": "uint256",
							"name": "amount",
							"type": "uint256"
						}
					],
					"name": "ShieldedDeposit",
					"type": "event"
				},
				{
					"anonymous": false,
					"inputs": [
						{
							"indexed": true,
							"internalType": "address",
							"name": "trader",
							"type": "address"
						},
						{
							"indexed": false,
							"internalType": "bytes",
							"name": "encryptedOrder",
							"type": "bytes"
						},
						{
							"indexed": true,
							"internalType": "bytes32",
							"name": "orderId",
							"type": "bytes32"
						}
					],
					"name": "ShieldedOrder",
					"type": "event"
				},
				{
					"anonymous": false,
					"inputs": [
						{
							"indexed": true,
							"internalType": "address",
							"name": "recipient",
							"type": "address"
						},
						{
							"indexed": false,
							"internalType": "uint256",
							"name": "amount",
							"type": "uint256"
						}
					],
					"name": "ShieldedPayout",
					"type": "event"
				},
				{
					"inputs": [
						{
							"components": [
								{
									"internalType": "bytes32",
									"name": "messageId",
									"type": "bytes32"
								},
								{
									"internalType": "uint64",
									"name": "sourceChainSelector",
									"type": "uint64"
								},
								{
									"internalType": "bytes",
									"name": "sender",
									"type": "bytes"
								},
								{
									"internalType": "bytes",
									"name": "data",
									"type": "bytes"
								},
								{
									"components": [
										{
											"internalType": "address",
											"name": "token",
											"type": "address"
										},
										{
											"internalType": "uint256",
											"name": "amount",
											"type": "uint256"
										}
									],
									"internalType": "struct Client.EVMTokenAmount[]",
									"name": "destTokenAmounts",
									"type": "tuple[]"
								}
							],
							"internalType": "struct Client.Any2EVMMessage",
							"name": "message",
							"type": "tuple"
						}
					],
					"name": "ccipReceive",
					"outputs": [],
					"stateMutability": "nonpayable",
					"type": "function"
				},
				{
					"inputs": [
						{
							"internalType": "bytes32",
							"name": "_encryptedRecipient",
							"type": "bytes32"
						},
						{
							"internalType": "uint256",
							"name": "_amount",
							"type": "uint256"
						}
					],
					"name": "deposit",
					"outputs": [],
					"stateMutability": "nonpayable",
					"type": "function"
				},
				{
					"inputs": [],
					"name": "getExpectedAuthor",
					"outputs": [
						{
							"internalType": "address",
							"name": "",
							"type": "address"
						}
					],
					"stateMutability": "view",
					"type": "function"
				},
				{
					"inputs": [],
					"name": "getExpectedWorkflowId",
					"outputs": [
						{
							"internalType": "bytes32",
							"name": "",
							"type": "bytes32"
						}
					],
					"stateMutability": "view",
					"type": "function"
				},
				{
					"inputs": [],
					"name": "getExpectedWorkflowName",
					"outputs": [
						{
							"internalType": "bytes10",
							"name": "",
							"type": "bytes10"
						}
					],
					"stateMutability": "view",
					"type": "function"
				},
				{
					"inputs": [],
					"name": "getForwarderAddress",
					"outputs": [
						{
							"internalType": "address",
							"name": "",
							"type": "address"
						}
					],
					"stateMutability": "view",
					"type": "function"
				},
				{
					"inputs": [],
					"name": "getRouter",
					"outputs": [
						{
							"internalType": "address",
							"name": "",
							"type": "address"
						}
					],
					"stateMutability": "view",
					"type": "function"
				},
				{
					"inputs": [
						{
							"internalType": "bytes",
							"name": "metadata",
							"type": "bytes"
						},
						{
							"internalType": "bytes",
							"name": "report",
							"type": "bytes"
						}
					],
					"name": "onReport",
					"outputs": [],
					"stateMutability": "nonpayable",
					"type": "function"
				},
				{
					"inputs": [],
					"name": "owner",
					"outputs": [
						{
							"internalType": "address",
							"name": "",
							"type": "address"
						}
					],
					"stateMutability": "view",
					"type": "function"
				},
				{
					"inputs": [
						{
							"internalType": "bytes",
							"name": "_encryptedOrder",
							"type": "bytes"
						},
						{
							"internalType": "bytes32",
							"name": "_orderId",
							"type": "bytes32"
						}
					],
					"name": "placeOrder",
					"outputs": [],
					"stateMutability": "nonpayable",
					"type": "function"
				},
				{
					"inputs": [],
					"name": "renounceOwnership",
					"outputs": [],
					"stateMutability": "nonpayable",
					"type": "function"
				},
				{
					"inputs": [
						{
							"internalType": "address",
							"name": "_author",
							"type": "address"
						}
					],
					"name": "setExpectedAuthor",
					"outputs": [],
					"stateMutability": "nonpayable",
					"type": "function"
				},
				{
					"inputs": [
						{
							"internalType": "bytes32",
							"name": "_id",
							"type": "bytes32"
						}
					],
					"name": "setExpectedWorkflowId",
					"outputs": [],
					"stateMutability": "nonpayable",
					"type": "function"
				},
				{
					"inputs": [
						{
							"internalType": "string",
							"name": "_name",
							"type": "string"
						}
					],
					"name": "setExpectedWorkflowName",
					"outputs": [],
					"stateMutability": "nonpayable",
					"type": "function"
				},
				{
					"inputs": [
						{
							"internalType": "address",
							"name": "_forwarder",
							"type": "address"
						}
					],
					"name": "setForwarderAddress",
					"outputs": [],
					"stateMutability": "nonpayable",
					"type": "function"
				},
				{
					"inputs": [
						{
							"internalType": "bytes4",
							"name": "interfaceId",
							"type": "bytes4"
						}
					],
					"name": "supportsInterface",
					"outputs": [
						{
							"internalType": "bool",
							"name": "",
							"type": "bool"
						}
					],
					"stateMutability": "view",
					"type": "function"
				},
				{
					"inputs": [
						{
							"internalType": "address",
							"name": "newOwner",
							"type": "address"
						}
					],
					"name": "transferOwnership",
					"outputs": [],
					"stateMutability": "nonpayable",
					"type": "function"
				},
				{
					"inputs": [],
					"name": "usdc",
					"outputs": [
						{
							"internalType": "contract IERC20",
							"name": "",
							"type": "address"
						}
					],
					"stateMutability": "view",
					"type": "function"
				}
			],
			"devdoc": {
				"errors": {
					"OwnableInvalidOwner(address)": [
						{
							"details": "The owner is not a valid owner account. (eg. `address(0)`)"
						}
					],
					"OwnableUnauthorizedAccount(address)": [
						{
							"details": "The caller account is not authorized to perform an operation."
						}
					]
				},
				"kind": "dev",
				"methods": {
					"ccipReceive((bytes32,uint64,bytes,bytes,(address,uint256)[]))": {
						"details": "Note ensure you check the msg.sender is the OffRampRouter",
						"params": {
							"message": "CCIP Message"
						}
					},
					"getExpectedAuthor()": {
						"returns": {
							"_0": "The expected author address (address(0) if not set)"
						}
					},
					"getExpectedWorkflowId()": {
						"returns": {
							"_0": "The expected workflow ID (bytes32(0) if not set)"
						}
					},
					"getExpectedWorkflowName()": {
						"returns": {
							"_0": "The expected workflow name (bytes10(0) if not set)"
						}
					},
					"getForwarderAddress()": {
						"returns": {
							"_0": "The forwarder address (address(0) if disabled)"
						}
					},
					"getRouter()": {
						"returns": {
							"_0": "CCIP router address"
						}
					},
					"onReport(bytes,bytes)": {
						"details": "Performs optional validation checks based on which permission fields are set",
						"params": {
							"metadata": "Report's metadata.",
							"report": "Workflow report."
						}
					},
					"owner()": {
						"details": "Returns the address of the current owner."
					},
					"renounceOwnership()": {
						"details": "Leaves the contract without owner. It will not be possible to call `onlyOwner` functions. Can only be called by the current owner. NOTE: Renouncing ownership will leave the contract without an owner, thereby disabling any functionality that is only available to the owner."
					},
					"setExpectedAuthor(address)": {
						"params": {
							"_author": "The new expected author address (use address(0) to disable this check)"
						}
					},
					"setExpectedWorkflowId(bytes32)": {
						"params": {
							"_id": "The new expected workflow ID (use bytes32(0) to disable this check)"
						}
					},
					"setExpectedWorkflowName(string)": {
						"details": "IMPORTANT: Workflow name validation REQUIRES author validation to be enabled.      The workflow name uses only 40-bit truncation, making collision attacks feasible      when used alone. However, since workflow names are unique per owner, validating      both the name AND the author address provides adequate security.      You must call setExpectedAuthor() before or after calling this function.      The name is hashed using SHA256 and truncated to bytes10.",
						"params": {
							"_name": "The workflow name as a string (use empty string \"\" to disable this check)"
						}
					},
					"setForwarderAddress(address)": {
						"details": "WARNING: Setting to address(0) disables forwarder validation.      This makes your contract INSECURE - anyone can call onReport() with arbitrary data.      Only use address(0) if you fully understand the security implications.",
						"params": {
							"_forwarder": "The new forwarder address"
						}
					},
					"supportsInterface(bytes4)": {
						"details": "Required by Solidity to resolve the conflict between CCIPReceiver and ReceiverTemplate. It ensures the contract correctly identifies that it supports both interfaces."
					},
					"transferOwnership(address)": {
						"details": "Transfers ownership of the contract to a new account (`newOwner`). Can only be called by the current owner."
					}
				},
				"title": "Shadow — Shielded Multi-Chain Pay-by-Human",
				"version": 1
			},
			"evm": {
				"assembly": "    /* \"contracts/token.sol\":437:3305  contract Shadow is CCIPReceiver, ReceiverTemplate {... */\n  mstore(0x40, 0xc0)\n    /* \"contracts/token.sol\":796:1148  constructor(... */\n  callvalue\n  dup1\n  iszero\n  tag_1\n  jumpi\n  revert(0x00, 0x00)\ntag_1:\n  pop\n  mload(0x40)\n  sub(codesize, bytecodeSize)\n  dup1\n  bytecodeSize\n  dup4\n  codecopy\n  dup2\n  dup2\n  add\n  0x40\n  mstore\n  dup2\n  add\n  swap1\n  tag_2\n  swap2\n  swap1\n  tag_3\n  jump\t// in\ntag_2:\n    /* \"contracts/token.sol\":992:1002  _forwarder */\n  dup2\n    /* \"contracts/ReceiverTemplate.sol\":2425:2435  msg.sender */\n  caller\n    /* \"contracts/token.sol\":919:926  _router */\n  dup3\n    /* \"@chainlink/contracts-ccip/src/v0.8/ccip/applications/CCIPReceiver.sol\":560:561  0 */\n  0x00\n    /* \"@chainlink/contracts-ccip/src/v0.8/ccip/applications/CCIPReceiver.sol\":542:562  router == address(0) */\n  0xffffffffffffffffffffffffffffffffffffffff\n  and\n    /* \"@chainlink/contracts-ccip/src/v0.8/ccip/applications/CCIPReceiver.sol\":542:548  router */\n  dup2\n    /* \"@chainlink/contracts-ccip/src/v0.8/ccip/applications/CCIPReceiver.sol\":542:562  router == address(0) */\n  0xffffffffffffffffffffffffffffffffffffffff\n  and\n  sub\n    /* \"@chainlink/contracts-ccip/src/v0.8/ccip/applications/CCIPReceiver.sol\":538:596  if (router == address(0)) revert InvalidRouter(address(0)) */\n  tag_9\n  jumpi\n    /* \"@chainlink/contracts-ccip/src/v0.8/ccip/applications/CCIPReceiver.sol\":593:594  0 */\n  0x00\n    /* \"@chainlink/contracts-ccip/src/v0.8/ccip/applications/CCIPReceiver.sol\":571:596  InvalidRouter(address(0)) */\n  mload(0x40)\n  0xd7f7333400000000000000000000000000000000000000000000000000000000\n  dup2\n  mstore\n  0x04\n  add\n  tag_10\n  swap2\n  swap1\n  tag_11\n  jump\t// in\ntag_10:\n  mload(0x40)\n  dup1\n  swap2\n  sub\n  swap1\n  revert\n    /* \"@chainlink/contracts-ccip/src/v0.8/ccip/applications/CCIPReceiver.sol\":538:596  if (router == address(0)) revert InvalidRouter(address(0)) */\ntag_9:\n    /* \"@chainlink/contracts-ccip/src/v0.8/ccip/applications/CCIPReceiver.sol\":617:623  router */\n  dup1\n    /* \"@chainlink/contracts-ccip/src/v0.8/ccip/applications/CCIPReceiver.sol\":602:623  i_ccipRouter = router */\n  0xffffffffffffffffffffffffffffffffffffffff\n  and\n  0x80\n  dup2\n  0xffffffffffffffffffffffffffffffffffffffff\n  and\n  dup2\n  mstore\n  pop\n  pop\n    /* \"@chainlink/contracts-ccip/src/v0.8/ccip/applications/CCIPReceiver.sol\":504:628  constructor(address router) {... */\n  pop\n    /* \"@openzeppelin/contracts/access/Ownable.sol\":1297:1298  0 */\n  0x00\n    /* \"@openzeppelin/contracts/access/Ownable.sol\":1273:1299  initialOwner == address(0) */\n  0xffffffffffffffffffffffffffffffffffffffff\n  and\n    /* \"@openzeppelin/contracts/access/Ownable.sol\":1273:1285  initialOwner */\n  dup2\n    /* \"@openzeppelin/contracts/access/Ownable.sol\":1273:1299  initialOwner == address(0) */\n  0xffffffffffffffffffffffffffffffffffffffff\n  and\n  sub\n    /* \"@openzeppelin/contracts/access/Ownable.sol\":1269:1364  if (initialOwner == address(0)) {... */\n  tag_13\n  jumpi\n    /* \"@openzeppelin/contracts/access/Ownable.sol\":1350:1351  0 */\n  0x00\n    /* \"@openzeppelin/contracts/access/Ownable.sol\":1322:1353  OwnableInvalidOwner(address(0)) */\n  mload(0x40)\n  0x1e4fbdf700000000000000000000000000000000000000000000000000000000\n  dup2\n  mstore\n  0x04\n  add\n  tag_14\n  swap2\n  swap1\n  tag_11\n  jump\t// in\ntag_14:\n  mload(0x40)\n  dup1\n  swap2\n  sub\n  swap1\n  revert\n    /* \"@openzeppelin/contracts/access/Ownable.sol\":1269:1364  if (initialOwner == address(0)) {... */\ntag_13:\n    /* \"@openzeppelin/contracts/access/Ownable.sol\":1373:1405  _transferOwnership(initialOwner) */\n  tag_15\n    /* \"@openzeppelin/contracts/access/Ownable.sol\":1392:1404  initialOwner */\n  dup2\n    /* \"@openzeppelin/contracts/access/Ownable.sol\":1373:1391  _transferOwnership */\n  shl(0x20, tag_16)\n    /* \"@openzeppelin/contracts/access/Ownable.sol\":1373:1405  _transferOwnership(initialOwner) */\n  0x20\n  shr\n  jump\t// in\ntag_15:\n    /* \"@openzeppelin/contracts/access/Ownable.sol\":1225:1412  constructor(address initialOwner) {... */\n  pop\n    /* \"contracts/ReceiverTemplate.sol\":2477:2478  0 */\n  0x00\n    /* \"contracts/ReceiverTemplate.sol\":2448:2479  _forwarderAddress == address(0) */\n  0xffffffffffffffffffffffffffffffffffffffff\n  and\n    /* \"contracts/ReceiverTemplate.sol\":2448:2465  _forwarderAddress */\n  dup2\n    /* \"contracts/ReceiverTemplate.sol\":2448:2479  _forwarderAddress == address(0) */\n  0xffffffffffffffffffffffffffffffffffffffff\n  and\n  sub\n    /* \"contracts/ReceiverTemplate.sol\":2444:2530  if (_forwarderAddress == address(0)) {... */\n  tag_18\n  jumpi\n    /* \"contracts/ReceiverTemplate.sol\":2497:2522  InvalidForwarderAddress() */\n  mload(0x40)\n  0x381dd54000000000000000000000000000000000000000000000000000000000\n  dup2\n  mstore\n  0x04\n  add\n  mload(0x40)\n  dup1\n  swap2\n  sub\n  swap1\n  revert\n    /* \"contracts/ReceiverTemplate.sol\":2444:2530  if (_forwarderAddress == address(0)) {... */\ntag_18:\n    /* \"contracts/ReceiverTemplate.sol\":2557:2574  _forwarderAddress */\n  dup1\n    /* \"contracts/ReceiverTemplate.sol\":2536:2554  s_forwarderAddress */\n  0x01\n  0x00\n    /* \"contracts/ReceiverTemplate.sol\":2536:2574  s_forwarderAddress = _forwarderAddress */\n  0x0100\n  exp\n  dup2\n  sload\n  dup2\n  0xffffffffffffffffffffffffffffffffffffffff\n  mul\n  not\n  and\n  swap1\n  dup4\n  0xffffffffffffffffffffffffffffffffffffffff\n  and\n  mul\n  or\n  swap1\n  sstore\n  pop\n    /* \"contracts/ReceiverTemplate.sol\":2622:2639  _forwarderAddress */\n  dup1\n    /* \"contracts/ReceiverTemplate.sol\":2586:2640  ForwarderAddressUpdated(address(0), _forwarderAddress) */\n  0xffffffffffffffffffffffffffffffffffffffff\n  and\n    /* \"contracts/ReceiverTemplate.sol\":2618:2619  0 */\n  0x00\n    /* \"contracts/ReceiverTemplate.sol\":2586:2640  ForwarderAddressUpdated(address(0), _forwarderAddress) */\n  0xffffffffffffffffffffffffffffffffffffffff\n  and\n  0x039ad854736757070884dd787ef1a7f58db33546639d1f3efddcf4a33fb8997e\n  mload(0x40)\n  mload(0x40)\n  dup1\n  swap2\n  sub\n  swap1\n  log3\n    /* \"contracts/ReceiverTemplate.sol\":2368:2646  constructor(... */\n  pop\n    /* \"contracts/token.sol\":1077:1078  0 */\n  0x00\n    /* \"contracts/token.sol\":1060:1079  _usdc != address(0) */\n  0xffffffffffffffffffffffffffffffffffffffff\n  and\n    /* \"contracts/token.sol\":1060:1065  _usdc */\n  dup4\n    /* \"contracts/token.sol\":1060:1079  _usdc != address(0) */\n  0xffffffffffffffffffffffffffffffffffffffff\n  and\n  sub\n    /* \"contracts/token.sol\":1052:1109  require(_usdc != address(0), \"Shadow: zero USDC address\") */\n  tag_20\n  jumpi\n  mload(0x40)\n  0x08c379a000000000000000000000000000000000000000000000000000000000\n  dup2\n  mstore\n  0x04\n  add\n  tag_21\n  swap1\n  tag_22\n  jump\t// in\ntag_21:\n  mload(0x40)\n  dup1\n  swap2\n  sub\n  swap1\n  revert\ntag_20:\n    /* \"contracts/token.sol\":1134:1139  _usdc */\n  dup3\n    /* \"contracts/token.sol\":1120:1140  usdc = IERC20(_usdc) */\n  0xffffffffffffffffffffffffffffffffffffffff\n  and\n  0xa0\n  dup2\n  0xffffffffffffffffffffffffffffffffffffffff\n  and\n  dup2\n  mstore\n  pop\n  pop\n    /* \"contracts/token.sol\":796:1148  constructor(... */\n  pop\n  pop\n  pop\n    /* \"contracts/token.sol\":437:3305  contract Shadow is CCIPReceiver, ReceiverTemplate {... */\n  jump(tag_23)\n    /* \"@openzeppelin/contracts/access/Ownable.sol\":2912:3099  function _transferOwnership(address newOwner) internal virtual {... */\ntag_16:\n    /* \"@openzeppelin/contracts/access/Ownable.sol\":2985:3001  address oldOwner */\n  0x00\n    /* \"@openzeppelin/contracts/access/Ownable.sol\":3004:3010  _owner */\n  0x00\n  0x00\n  swap1\n  sload\n  swap1\n  0x0100\n  exp\n  swap1\n  div\n  0xffffffffffffffffffffffffffffffffffffffff\n  and\n    /* \"@openzeppelin/contracts/access/Ownable.sol\":2985:3010  address oldOwner = _owner */\n  swap1\n  pop\n    /* \"@openzeppelin/contracts/access/Ownable.sol\":3029:3037  newOwner */\n  dup2\n    /* \"@openzeppelin/contracts/access/Ownable.sol\":3020:3026  _owner */\n  0x00\n  0x00\n    /* \"@openzeppelin/contracts/access/Ownable.sol\":3020:3037  _owner = newOwner */\n  0x0100\n  exp\n  dup2\n  sload\n  dup2\n  0xffffffffffffffffffffffffffffffffffffffff\n  mul\n  not\n  and\n  swap1\n  dup4\n  0xffffffffffffffffffffffffffffffffffffffff\n  and\n  mul\n  or\n  swap1\n  sstore\n  pop\n    /* \"@openzeppelin/contracts/access/Ownable.sol\":3083:3091  newOwner */\n  dup2\n    /* \"@openzeppelin/contracts/access/Ownable.sol\":3052:3092  OwnershipTransferred(oldOwner, newOwner) */\n  0xffffffffffffffffffffffffffffffffffffffff\n  and\n    /* \"@openzeppelin/contracts/access/Ownable.sol\":3073:3081  oldOwner */\n  dup2\n    /* \"@openzeppelin/contracts/access/Ownable.sol\":3052:3092  OwnershipTransferred(oldOwner, newOwner) */\n  0xffffffffffffffffffffffffffffffffffffffff\n  and\n  0x8be0079c531659141344cd1fd0a4f28419497f9722a3daafe3b4186f6b6457e0\n  mload(0x40)\n  mload(0x40)\n  dup1\n  swap2\n  sub\n  swap1\n  log3\n    /* \"@openzeppelin/contracts/access/Ownable.sol\":2975:3099  {... */\n  pop\n    /* \"@openzeppelin/contracts/access/Ownable.sol\":2912:3099  function _transferOwnership(address newOwner) internal virtual {... */\n  pop\n  jump\t// out\n    /* \"#utility.yul\":88:205   */\ntag_26:\n    /* \"#utility.yul\":197:198   */\n  0x00\n    /* \"#utility.yul\":194:195   */\n  0x00\n    /* \"#utility.yul\":187:199   */\n  revert\n    /* \"#utility.yul\":334:460   */\ntag_28:\n    /* \"#utility.yul\":371:378   */\n  0x00\n    /* \"#utility.yul\":411:453   */\n  0xffffffffffffffffffffffffffffffffffffffff\n    /* \"#utility.yul\":404:409   */\n  dup3\n    /* \"#utility.yul\":400:454   */\n  and\n    /* \"#utility.yul\":389:454   */\n  swap1\n  pop\n    /* \"#utility.yul\":334:460   */\n  swap2\n  swap1\n  pop\n  jump\t// out\n    /* \"#utility.yul\":466:562   */\ntag_29:\n    /* \"#utility.yul\":503:510   */\n  0x00\n    /* \"#utility.yul\":532:556   */\n  tag_42\n    /* \"#utility.yul\":550:555   */\n  dup3\n    /* \"#utility.yul\":532:556   */\n  tag_28\n  jump\t// in\ntag_42:\n    /* \"#utility.yul\":521:556   */\n  swap1\n  pop\n    /* \"#utility.yul\":466:562   */\n  swap2\n  swap1\n  pop\n  jump\t// out\n    /* \"#utility.yul\":568:690   */\ntag_30:\n    /* \"#utility.yul\":641:665   */\n  tag_44\n    /* \"#utility.yul\":659:664   */\n  dup2\n    /* \"#utility.yul\":641:665   */\n  tag_29\n  jump\t// in\ntag_44:\n    /* \"#utility.yul\":634:639   */\n  dup2\n    /* \"#utility.yul\":631:666   */\n  eq\n    /* \"#utility.yul\":621:684   */\n  tag_45\n  jumpi\n    /* \"#utility.yul\":680:681   */\n  0x00\n    /* \"#utility.yul\":677:678   */\n  0x00\n    /* \"#utility.yul\":670:682   */\n  revert\n    /* \"#utility.yul\":621:684   */\ntag_45:\n    /* \"#utility.yul\":568:690   */\n  pop\n  jump\t// out\n    /* \"#utility.yul\":696:839   */\ntag_31:\n    /* \"#utility.yul\":753:758   */\n  0x00\n    /* \"#utility.yul\":784:790   */\n  dup2\n    /* \"#utility.yul\":778:791   */\n  mload\n    /* \"#utility.yul\":769:791   */\n  swap1\n  pop\n    /* \"#utility.yul\":800:833   */\n  tag_47\n    /* \"#utility.yul\":827:832   */\n  dup2\n    /* \"#utility.yul\":800:833   */\n  tag_30\n  jump\t// in\ntag_47:\n    /* \"#utility.yul\":696:839   */\n  swap3\n  swap2\n  pop\n  pop\n  jump\t// out\n    /* \"#utility.yul\":845:1508   */\ntag_3:\n    /* \"#utility.yul\":933:939   */\n  0x00\n    /* \"#utility.yul\":941:947   */\n  0x00\n    /* \"#utility.yul\":949:955   */\n  0x00\n    /* \"#utility.yul\":998:1000   */\n  0x60\n    /* \"#utility.yul\":986:995   */\n  dup5\n    /* \"#utility.yul\":977:984   */\n  dup7\n    /* \"#utility.yul\":973:996   */\n  sub\n    /* \"#utility.yul\":969:1001   */\n  slt\n    /* \"#utility.yul\":966:1085   */\n  iszero\n  tag_49\n  jumpi\n    /* \"#utility.yul\":1004:1083   */\n  tag_50\n  tag_26\n  jump\t// in\ntag_50:\n    /* \"#utility.yul\":966:1085   */\ntag_49:\n    /* \"#utility.yul\":1124:1125   */\n  0x00\n    /* \"#utility.yul\":1149:1213   */\n  tag_51\n    /* \"#utility.yul\":1205:1212   */\n  dup7\n    /* \"#utility.yul\":1196:1202   */\n  dup3\n    /* \"#utility.yul\":1185:1194   */\n  dup8\n    /* \"#utility.yul\":1181:1203   */\n  add\n    /* \"#utility.yul\":1149:1213   */\n  tag_31\n  jump\t// in\ntag_51:\n    /* \"#utility.yul\":1139:1213   */\n  swap4\n  pop\n    /* \"#utility.yul\":1095:1223   */\n  pop\n    /* \"#utility.yul\":1262:1264   */\n  0x20\n    /* \"#utility.yul\":1288:1352   */\n  tag_52\n    /* \"#utility.yul\":1344:1351   */\n  dup7\n    /* \"#utility.yul\":1335:1341   */\n  dup3\n    /* \"#utility.yul\":1324:1333   */\n  dup8\n    /* \"#utility.yul\":1320:1342   */\n  add\n    /* \"#utility.yul\":1288:1352   */\n  tag_31\n  jump\t// in\ntag_52:\n    /* \"#utility.yul\":1278:1352   */\n  swap3\n  pop\n    /* \"#utility.yul\":1233:1362   */\n  pop\n    /* \"#utility.yul\":1401:1403   */\n  0x40\n    /* \"#utility.yul\":1427:1491   */\n  tag_53\n    /* \"#utility.yul\":1483:1490   */\n  dup7\n    /* \"#utility.yul\":1474:1480   */\n  dup3\n    /* \"#utility.yul\":1463:1472   */\n  dup8\n    /* \"#utility.yul\":1459:1481   */\n  add\n    /* \"#utility.yul\":1427:1491   */\n  tag_31\n  jump\t// in\ntag_53:\n    /* \"#utility.yul\":1417:1491   */\n  swap2\n  pop\n    /* \"#utility.yul\":1372:1501   */\n  pop\n    /* \"#utility.yul\":845:1508   */\n  swap3\n  pop\n  swap3\n  pop\n  swap3\n  jump\t// out\n    /* \"#utility.yul\":1514:1632   */\ntag_32:\n    /* \"#utility.yul\":1601:1625   */\n  tag_55\n    /* \"#utility.yul\":1619:1624   */\n  dup2\n    /* \"#utility.yul\":1601:1625   */\n  tag_29\n  jump\t// in\ntag_55:\n    /* \"#utility.yul\":1596:1599   */\n  dup3\n    /* \"#utility.yul\":1589:1626   */\n  mstore\n    /* \"#utility.yul\":1514:1632   */\n  pop\n  pop\n  jump\t// out\n    /* \"#utility.yul\":1638:1860   */\ntag_11:\n    /* \"#utility.yul\":1731:1735   */\n  0x00\n    /* \"#utility.yul\":1769:1771   */\n  0x20\n    /* \"#utility.yul\":1758:1767   */\n  dup3\n    /* \"#utility.yul\":1754:1772   */\n  add\n    /* \"#utility.yul\":1746:1772   */\n  swap1\n  pop\n    /* \"#utility.yul\":1782:1853   */\n  tag_57\n    /* \"#utility.yul\":1850:1851   */\n  0x00\n    /* \"#utility.yul\":1839:1848   */\n  dup4\n    /* \"#utility.yul\":1835:1852   */\n  add\n    /* \"#utility.yul\":1826:1832   */\n  dup5\n    /* \"#utility.yul\":1782:1853   */\n  tag_32\n  jump\t// in\ntag_57:\n    /* \"#utility.yul\":1638:1860   */\n  swap3\n  swap2\n  pop\n  pop\n  jump\t// out\n    /* \"#utility.yul\":1866:2035   */\ntag_33:\n    /* \"#utility.yul\":1950:1961   */\n  0x00\n    /* \"#utility.yul\":1984:1990   */\n  dup3\n    /* \"#utility.yul\":1979:1982   */\n  dup3\n    /* \"#utility.yul\":1972:1991   */\n  mstore\n    /* \"#utility.yul\":2024:2028   */\n  0x20\n    /* \"#utility.yul\":2019:2022   */\n  dup3\n    /* \"#utility.yul\":2015:2029   */\n  add\n    /* \"#utility.yul\":2000:2029   */\n  swap1\n  pop\n    /* \"#utility.yul\":1866:2035   */\n  swap3\n  swap2\n  pop\n  pop\n  jump\t// out\n    /* \"#utility.yul\":2041:2216   */\ntag_34:\n    /* \"#utility.yul\":2181:2208   */\n  0x536861646f773a207a65726f2055534443206164647265737300000000000000\n    /* \"#utility.yul\":2177:2178   */\n  0x00\n    /* \"#utility.yul\":2169:2175   */\n  dup3\n    /* \"#utility.yul\":2165:2179   */\n  add\n    /* \"#utility.yul\":2158:2209   */\n  mstore\n    /* \"#utility.yul\":2041:2216   */\n  pop\n  jump\t// out\n    /* \"#utility.yul\":2222:2588   */\ntag_35:\n    /* \"#utility.yul\":2364:2367   */\n  0x00\n    /* \"#utility.yul\":2385:2452   */\n  tag_61\n    /* \"#utility.yul\":2449:2451   */\n  0x19\n    /* \"#utility.yul\":2444:2447   */\n  dup4\n    /* \"#utility.yul\":2385:2452   */\n  tag_33\n  jump\t// in\ntag_61:\n    /* \"#utility.yul\":2378:2452   */\n  swap2\n  pop\n    /* \"#utility.yul\":2461:2554   */\n  tag_62\n    /* \"#utility.yul\":2550:2553   */\n  dup3\n    /* \"#utility.yul\":2461:2554   */\n  tag_34\n  jump\t// in\ntag_62:\n    /* \"#utility.yul\":2579:2581   */\n  0x20\n    /* \"#utility.yul\":2574:2577   */\n  dup3\n    /* \"#utility.yul\":2570:2582   */\n  add\n    /* \"#utility.yul\":2563:2582   */\n  swap1\n  pop\n    /* \"#utility.yul\":2222:2588   */\n  swap2\n  swap1\n  pop\n  jump\t// out\n    /* \"#utility.yul\":2594:3013   */\ntag_22:\n    /* \"#utility.yul\":2760:2764   */\n  0x00\n    /* \"#utility.yul\":2798:2800   */\n  0x20\n    /* \"#utility.yul\":2787:2796   */\n  dup3\n    /* \"#utility.yul\":2783:2801   */\n  add\n    /* \"#utility.yul\":2775:2801   */\n  swap1\n  pop\n    /* \"#utility.yul\":2847:2856   */\n  dup2\n    /* \"#utility.yul\":2841:2845   */\n  dup2\n    /* \"#utility.yul\":2837:2857   */\n  sub\n    /* \"#utility.yul\":2833:2834   */\n  0x00\n    /* \"#utility.yul\":2822:2831   */\n  dup4\n    /* \"#utility.yul\":2818:2835   */\n  add\n    /* \"#utility.yul\":2811:2858   */\n  mstore\n    /* \"#utility.yul\":2875:3006   */\n  tag_64\n    /* \"#utility.yul\":3001:3005   */\n  dup2\n    /* \"#utility.yul\":2875:3006   */\n  tag_35\n  jump\t// in\ntag_64:\n    /* \"#utility.yul\":2867:3006   */\n  swap1\n  pop\n    /* \"#utility.yul\":2594:3013   */\n  swap2\n  swap1\n  pop\n  jump\t// out\n    /* \"contracts/token.sol\":437:3305  contract Shadow is CCIPReceiver, ReceiverTemplate {... */\ntag_23:\n  mload(0x80)\n  mload(0xa0)\n  codecopy(0x00, dataOffset(sub_0), dataSize(sub_0))\n  0x00\n  assignImmutable(\"0x94b72f6d5810c90c68ea7d7f52a48aba033cd0249ea1144a4588f2256d6f57ff\")\n  0x00\n  assignImmutable(\"0x5c4c6aa067b6f8e6cb38e6ab843832a94d1712d661a04d73c517d6a1931a9e5d\")\n  return(0x00, dataSize(sub_0))\nstop\n\nsub_0: assembly {\n        /* \"contracts/token.sol\":437:3305  contract Shadow is CCIPReceiver, ReceiverTemplate {... */\n      mstore(0x40, 0x80)\n      callvalue\n      dup1\n      iszero\n      tag_1\n      jumpi\n      revert(0x00, 0x00)\n    tag_1:\n      pop\n      jumpi(tag_2, lt(calldatasize, 0x04))\n      shr(0xe0, calldataload(0x00))\n      dup1\n      0x8da5cb5b\n      gt\n      tag_21\n      jumpi\n      dup1\n      0xc3c44ac2\n      gt\n      tag_22\n      jumpi\n      dup1\n      0xc3c44ac2\n      eq\n      tag_16\n      jumpi\n      dup1\n      0xd60c884b\n      eq\n      tag_17\n      jumpi\n      dup1\n      0xd777cc6d\n      eq\n      tag_18\n      jumpi\n      dup1\n      0xf2fde38b\n      eq\n      tag_19\n      jumpi\n      dup1\n      0xf5c793ef\n      eq\n      tag_20\n      jumpi\n      jump(tag_2)\n    tag_22:\n      dup1\n      0x8da5cb5b\n      eq\n      tag_12\n      jumpi\n      dup1\n      0xa619d818\n      eq\n      tag_13\n      jumpi\n      dup1\n      0xb0f479a1\n      eq\n      tag_14\n      jumpi\n      dup1\n      0xbc1fc27a\n      eq\n      tag_15\n      jumpi\n      jump(tag_2)\n    tag_21:\n      dup1\n      0x3e413bee\n      gt\n      tag_23\n      jumpi\n      dup1\n      0x3e413bee\n      eq\n      tag_7\n      jumpi\n      dup1\n      0x410d1dac\n      eq\n      tag_8\n      jumpi\n      dup1\n      0x715018a6\n      eq\n      tag_9\n      jumpi\n      dup1\n      0x805f2132\n      eq\n      tag_10\n      jumpi\n      dup1\n      0x85572ffb\n      eq\n      tag_11\n      jumpi\n      jump(tag_2)\n    tag_23:\n      dup1\n      0x01ffc9a7\n      eq\n      tag_3\n      jumpi\n      dup1\n      0x1de26e16\n      eq\n      tag_4\n      jumpi\n      dup1\n      0x3397cf67\n      eq\n      tag_5\n      jumpi\n      dup1\n      0x3441856f\n      eq\n      tag_6\n      jumpi\n    tag_2:\n      revert(0x00, 0x00)\n        /* \"contracts/token.sol\":1346:1549  function supportsInterface(bytes4 interfaceId)... */\n    tag_3:\n      tag_24\n      0x04\n      dup1\n      calldatasize\n      sub\n      dup2\n      add\n      swap1\n      tag_25\n      swap2\n      swap1\n      tag_26\n      jump\t// in\n    tag_25:\n      tag_27\n      jump\t// in\n    tag_24:\n      mload(0x40)\n      tag_28\n      swap2\n      swap1\n      tag_29\n      jump\t// in\n    tag_28:\n      mload(0x40)\n      dup1\n      swap2\n      sub\n      swap1\n      return\n        /* \"contracts/token.sol\":1807:2106  function deposit(bytes32 _encryptedRecipient, uint256 _amount) external {... */\n    tag_4:\n      tag_30\n      0x04\n      dup1\n      calldatasize\n      sub\n      dup2\n      add\n      swap1\n      tag_31\n      swap2\n      swap1\n      tag_32\n      jump\t// in\n    tag_31:\n      tag_33\n      jump\t// in\n    tag_30:\n      stop\n        /* \"contracts/ReceiverTemplate.sol\":3004:3101  function getExpectedAuthor() external view returns (address) {... */\n    tag_5:\n      tag_34\n      tag_35\n      jump\t// in\n    tag_34:\n      mload(0x40)\n      tag_36\n      swap2\n      swap1\n      tag_37\n      jump\t// in\n    tag_36:\n      mload(0x40)\n      dup1\n      swap2\n      sub\n      swap1\n      return\n        /* \"contracts/ReceiverTemplate.sol\":2770:2871  function getForwarderAddress() external view returns (address) {... */\n    tag_6:\n      tag_38\n      tag_39\n      jump\t// in\n    tag_38:\n      mload(0x40)\n      tag_40\n      swap2\n      swap1\n      tag_37\n      jump\t// in\n    tag_40:\n      mload(0x40)\n      dup1\n      swap2\n      sub\n      swap1\n      return\n        /* \"contracts/token.sol\":494:522  IERC20 public immutable usdc */\n    tag_7:\n      tag_41\n      tag_42\n      jump\t// in\n    tag_41:\n      mload(0x40)\n      tag_43\n      swap2\n      swap1\n      tag_44\n      jump\t// in\n    tag_43:\n      mload(0x40)\n      dup1\n      swap2\n      sub\n      swap1\n      return\n        /* \"contracts/token.sol\":1608:1763  function placeOrder(bytes calldata _encryptedOrder, bytes32 _orderId) external {... */\n    tag_8:\n      tag_45\n      0x04\n      dup1\n      calldatasize\n      sub\n      dup2\n      add\n      swap1\n      tag_46\n      swap2\n      swap1\n      tag_47\n      jump\t// in\n    tag_46:\n      tag_48\n      jump\t// in\n    tag_45:\n      stop\n        /* \"@openzeppelin/contracts/access/Ownable.sol\":2293:2394  function renounceOwnership() public virtual onlyOwner {... */\n    tag_9:\n      tag_49\n      tag_50\n      jump\t// in\n    tag_49:\n      stop\n        /* \"contracts/ReceiverTemplate.sol\":3679:5834  function onReport(... */\n    tag_10:\n      tag_51\n      0x04\n      dup1\n      calldatasize\n      sub\n      dup2\n      add\n      swap1\n      tag_52\n      swap2\n      swap1\n      tag_53\n      jump\t// in\n    tag_52:\n      tag_54\n      jump\t// in\n    tag_51:\n      stop\n        /* \"@chainlink/contracts-ccip/src/v0.8/ccip/applications/CCIPReceiver.sol\":1660:1790  function ccipReceive(Client.Any2EVMMessage calldata message) external virtual override onlyRouter {... */\n    tag_11:\n      tag_55\n      0x04\n      dup1\n      calldatasize\n      sub\n      dup2\n      add\n      swap1\n      tag_56\n      swap2\n      swap1\n      tag_57\n      jump\t// in\n    tag_56:\n      tag_58\n      jump\t// in\n    tag_55:\n      stop\n        /* \"@openzeppelin/contracts/access/Ownable.sol\":1638:1723  function owner() public view virtual returns (address) {... */\n    tag_12:\n      tag_59\n      tag_60\n      jump\t// in\n    tag_59:\n      mload(0x40)\n      tag_61\n      swap2\n      swap1\n      tag_37\n      jump\t// in\n    tag_61:\n      mload(0x40)\n      dup1\n      swap2\n      sub\n      swap1\n      return\n        /* \"contracts/ReceiverTemplate.sol\":3223:3332  function getExpectedWorkflowName() external view returns (bytes10) {... */\n    tag_13:\n      tag_62\n      tag_63\n      jump\t// in\n    tag_62:\n      mload(0x40)\n      tag_64\n      swap2\n      swap1\n      tag_65\n      jump\t// in\n    tag_64:\n      mload(0x40)\n      dup1\n      swap2\n      sub\n      swap1\n      return\n        /* \"@chainlink/contracts-ccip/src/v0.8/ccip/applications/CCIPReceiver.sol\":2205:2303  function getRouter() public view virtual returns (address) {... */\n    tag_14:\n      tag_66\n      tag_67\n      jump\t// in\n    tag_66:\n      mload(0x40)\n      tag_68\n      swap2\n      swap1\n      tag_37\n      jump\t// in\n    tag_68:\n      mload(0x40)\n      dup1\n      swap2\n      sub\n      swap1\n      return\n        /* \"contracts/ReceiverTemplate.sol\":7707:8516  function setExpectedWorkflowName(... */\n    tag_15:\n      tag_69\n      0x04\n      dup1\n      calldatasize\n      sub\n      dup2\n      add\n      swap1\n      tag_70\n      swap2\n      swap1\n      tag_71\n      jump\t// in\n    tag_70:\n      tag_72\n      jump\t// in\n    tag_69:\n      stop\n        /* \"contracts/ReceiverTemplate.sol\":8656:8870  function setExpectedWorkflowId(... */\n    tag_16:\n      tag_73\n      0x04\n      dup1\n      calldatasize\n      sub\n      dup2\n      add\n      swap1\n      tag_74\n      swap2\n      swap1\n      tag_75\n      jump\t// in\n    tag_74:\n      tag_76\n      jump\t// in\n    tag_73:\n      stop\n        /* \"contracts/ReceiverTemplate.sol\":6808:7026  function setExpectedAuthor(... */\n    tag_17:\n      tag_77\n      0x04\n      dup1\n      calldatasize\n      sub\n      dup2\n      add\n      swap1\n      tag_78\n      swap2\n      swap1\n      tag_79\n      jump\t// in\n    tag_78:\n      tag_80\n      jump\t// in\n    tag_77:\n      stop\n        /* \"contracts/ReceiverTemplate.sol\":6222:6650  function setForwarderAddress(... */\n    tag_18:\n      tag_81\n      0x04\n      dup1\n      calldatasize\n      sub\n      dup2\n      add\n      swap1\n      tag_82\n      swap2\n      swap1\n      tag_79\n      jump\t// in\n    tag_82:\n      tag_83\n      jump\t// in\n    tag_81:\n      stop\n        /* \"@openzeppelin/contracts/access/Ownable.sol\":2543:2758  function transferOwnership(address newOwner) public virtual onlyOwner {... */\n    tag_19:\n      tag_84\n      0x04\n      dup1\n      calldatasize\n      sub\n      dup2\n      add\n      swap1\n      tag_85\n      swap2\n      swap1\n      tag_79\n      jump\t// in\n    tag_85:\n      tag_86\n      jump\t// in\n    tag_84:\n      stop\n        /* \"contracts/ReceiverTemplate.sol\":3450:3555  function getExpectedWorkflowId() external view returns (bytes32) {... */\n    tag_20:\n      tag_87\n      tag_88\n      jump\t// in\n    tag_87:\n      mload(0x40)\n      tag_89\n      swap2\n      swap1\n      tag_90\n      jump\t// in\n    tag_89:\n      mload(0x40)\n      dup1\n      swap2\n      sub\n      swap1\n      return\n        /* \"contracts/token.sol\":1346:1549  function supportsInterface(bytes4 interfaceId)... */\n    tag_27:\n        /* \"contracts/token.sol\":1488:1492  bool */\n      0x00\n        /* \"contracts/token.sol\":1509:1545  super.supportsInterface(interfaceId) */\n      tag_92\n        /* \"contracts/token.sol\":1533:1544  interfaceId */\n      dup3\n        /* \"contracts/token.sol\":1509:1532  super.supportsInterface */\n      tag_93\n        /* \"contracts/token.sol\":1509:1545  super.supportsInterface(interfaceId) */\n      jump\t// in\n    tag_92:\n        /* \"contracts/token.sol\":1502:1545  return super.supportsInterface(interfaceId) */\n      swap1\n      pop\n        /* \"contracts/token.sol\":1346:1549  function supportsInterface(bytes4 interfaceId)... */\n      swap2\n      swap1\n      pop\n      jump\t// out\n        /* \"contracts/token.sol\":1807:2106  function deposit(bytes32 _encryptedRecipient, uint256 _amount) external {... */\n    tag_33:\n        /* \"contracts/token.sol\":1908:1909  0 */\n      0x00\n        /* \"contracts/token.sol\":1898:1905  _amount */\n      dup2\n        /* \"contracts/token.sol\":1898:1909  _amount > 0 */\n      gt\n        /* \"contracts/token.sol\":1890:1933  require(_amount > 0, \"Shadow: zero amount\") */\n      tag_95\n      jumpi\n      mload(0x40)\n      0x08c379a000000000000000000000000000000000000000000000000000000000\n      dup2\n      mstore\n      0x04\n      add\n      tag_96\n      swap1\n      tag_97\n      jump\t// in\n    tag_96:\n      mload(0x40)\n      dup1\n      swap2\n      sub\n      swap1\n      revert\n    tag_95:\n        /* \"contracts/token.sol\":1952:1956  usdc */\n      immutable(\"0x94b72f6d5810c90c68ea7d7f52a48aba033cd0249ea1144a4588f2256d6f57ff\")\n        /* \"contracts/token.sol\":1952:1969  usdc.transferFrom */\n      0xffffffffffffffffffffffffffffffffffffffff\n      and\n      0x23b872dd\n        /* \"contracts/token.sol\":1970:1980  msg.sender */\n      caller\n        /* \"contracts/token.sol\":1990:1994  this */\n      address\n        /* \"contracts/token.sol\":1997:2004  _amount */\n      dup5\n        /* \"contracts/token.sol\":1952:2005  usdc.transferFrom(msg.sender, address(this), _amount) */\n      mload(0x40)\n      dup5\n      0xffffffff\n      and\n      0xe0\n      shl\n      dup2\n      mstore\n      0x04\n      add\n      tag_98\n      swap4\n      swap3\n      swap2\n      swap1\n      tag_99\n      jump\t// in\n    tag_98:\n      0x20\n      mload(0x40)\n      dup1\n      dup4\n      sub\n      dup2\n      0x00\n      dup8\n      gas\n      call\n      iszero\n      dup1\n      iszero\n      tag_101\n      jumpi\n      returndatacopy(0x00, 0x00, returndatasize)\n      revert(0x00, returndatasize)\n    tag_101:\n      pop\n      pop\n      pop\n      pop\n      mload(0x40)\n      returndatasize\n      not(0x1f)\n      0x1f\n      dup3\n      add\n      and\n      dup3\n      add\n      dup1\n      0x40\n      mstore\n      pop\n      dup2\n      add\n      swap1\n      tag_102\n      swap2\n      swap1\n      tag_103\n      jump\t// in\n    tag_102:\n        /* \"contracts/token.sol\":1944:2025  require(usdc.transferFrom(msg.sender, address(this), _amount), \"Transfer failed\") */\n      tag_104\n      jumpi\n      mload(0x40)\n      0x08c379a000000000000000000000000000000000000000000000000000000000\n      dup2\n      mstore\n      0x04\n      add\n      tag_105\n      swap1\n      tag_106\n      jump\t// in\n    tag_105:\n      mload(0x40)\n      dup1\n      swap2\n      sub\n      swap1\n      revert\n    tag_104:\n        /* \"contracts/token.sol\":2057:2067  msg.sender */\n      caller\n        /* \"contracts/token.sol\":2041:2098  ShieldedDeposit(msg.sender, _encryptedRecipient, _amount) */\n      0xffffffffffffffffffffffffffffffffffffffff\n      and\n      0xa528a5618e16311d917a25d1b6f7d83f001f50e5b4bee369286d16c83784e22a\n        /* \"contracts/token.sol\":2069:2088  _encryptedRecipient */\n      dup4\n        /* \"contracts/token.sol\":2090:2097  _amount */\n      dup4\n        /* \"contracts/token.sol\":2041:2098  ShieldedDeposit(msg.sender, _encryptedRecipient, _amount) */\n      mload(0x40)\n      tag_107\n      swap3\n      swap2\n      swap1\n      tag_108\n      jump\t// in\n    tag_107:\n      mload(0x40)\n      dup1\n      swap2\n      sub\n      swap1\n      log2\n        /* \"contracts/token.sol\":1807:2106  function deposit(bytes32 _encryptedRecipient, uint256 _amount) external {... */\n      pop\n      pop\n      jump\t// out\n        /* \"contracts/ReceiverTemplate.sol\":3004:3101  function getExpectedAuthor() external view returns (address) {... */\n    tag_35:\n        /* \"contracts/ReceiverTemplate.sol\":3056:3063  address */\n      0x00\n        /* \"contracts/ReceiverTemplate.sol\":3079:3095  s_expectedAuthor */\n      0x02\n      0x00\n      swap1\n      sload\n      swap1\n      0x0100\n      exp\n      swap1\n      div\n      0xffffffffffffffffffffffffffffffffffffffff\n      and\n        /* \"contracts/ReceiverTemplate.sol\":3072:3095  return s_expectedAuthor */\n      swap1\n      pop\n        /* \"contracts/ReceiverTemplate.sol\":3004:3101  function getExpectedAuthor() external view returns (address) {... */\n      swap1\n      jump\t// out\n        /* \"contracts/ReceiverTemplate.sol\":2770:2871  function getForwarderAddress() external view returns (address) {... */\n    tag_39:\n        /* \"contracts/ReceiverTemplate.sol\":2824:2831  address */\n      0x00\n        /* \"contracts/ReceiverTemplate.sol\":2847:2865  s_forwarderAddress */\n      0x01\n      0x00\n      swap1\n      sload\n      swap1\n      0x0100\n      exp\n      swap1\n      div\n      0xffffffffffffffffffffffffffffffffffffffff\n      and\n        /* \"contracts/ReceiverTemplate.sol\":2840:2865  return s_forwarderAddress */\n      swap1\n      pop\n        /* \"contracts/ReceiverTemplate.sol\":2770:2871  function getForwarderAddress() external view returns (address) {... */\n      swap1\n      jump\t// out\n        /* \"contracts/token.sol\":494:522  IERC20 public immutable usdc */\n    tag_42:\n      immutable(\"0x94b72f6d5810c90c68ea7d7f52a48aba033cd0249ea1144a4588f2256d6f57ff\")\n      dup2\n      jump\t// out\n        /* \"contracts/token.sol\":1608:1763  function placeOrder(bytes calldata _encryptedOrder, bytes32 _orderId) external {... */\n    tag_48:\n        /* \"contracts/token.sol\":1746:1754  _orderId */\n      dup1\n        /* \"contracts/token.sol\":1717:1727  msg.sender */\n      caller\n        /* \"contracts/token.sol\":1703:1755  ShieldedOrder(msg.sender, _encryptedOrder, _orderId) */\n      0xffffffffffffffffffffffffffffffffffffffff\n      and\n      0xf6604c3bcd7473aa76b7d82d56a4453e9b64a148ca27eb7c07e9f698093b5af5\n        /* \"contracts/token.sol\":1729:1744  _encryptedOrder */\n      dup6\n      dup6\n        /* \"contracts/token.sol\":1703:1755  ShieldedOrder(msg.sender, _encryptedOrder, _orderId) */\n      mload(0x40)\n      tag_112\n      swap3\n      swap2\n      swap1\n      tag_113\n      jump\t// in\n    tag_112:\n      mload(0x40)\n      dup1\n      swap2\n      sub\n      swap1\n      log3\n        /* \"contracts/token.sol\":1608:1763  function placeOrder(bytes calldata _encryptedOrder, bytes32 _orderId) external {... */\n      pop\n      pop\n      pop\n      jump\t// out\n        /* \"@openzeppelin/contracts/access/Ownable.sol\":2293:2394  function renounceOwnership() public virtual onlyOwner {... */\n    tag_50:\n        /* \"@openzeppelin/contracts/access/Ownable.sol\":1531:1544  _checkOwner() */\n      tag_115\n        /* \"@openzeppelin/contracts/access/Ownable.sol\":1531:1542  _checkOwner */\n      tag_116\n        /* \"@openzeppelin/contracts/access/Ownable.sol\":1531:1544  _checkOwner() */\n      jump\t// in\n    tag_115:\n        /* \"@openzeppelin/contracts/access/Ownable.sol\":2357:2387  _transferOwnership(address(0)) */\n      tag_118\n        /* \"@openzeppelin/contracts/access/Ownable.sol\":2384:2385  0 */\n      0x00\n        /* \"@openzeppelin/contracts/access/Ownable.sol\":2357:2375  _transferOwnership */\n      tag_119\n        /* \"@openzeppelin/contracts/access/Ownable.sol\":2357:2387  _transferOwnership(address(0)) */\n      jump\t// in\n    tag_118:\n        /* \"@openzeppelin/contracts/access/Ownable.sol\":2293:2394  function renounceOwnership() public virtual onlyOwner {... */\n      jump\t// out\n        /* \"contracts/ReceiverTemplate.sol\":3679:5834  function onReport(... */\n    tag_54:\n        /* \"contracts/ReceiverTemplate.sol\":3910:3911  0 */\n      0x00\n        /* \"contracts/ReceiverTemplate.sol\":3880:3912  s_forwarderAddress != address(0) */\n      0xffffffffffffffffffffffffffffffffffffffff\n      and\n        /* \"contracts/ReceiverTemplate.sol\":3880:3898  s_forwarderAddress */\n      0x01\n      0x00\n      swap1\n      sload\n      swap1\n      0x0100\n      exp\n      swap1\n      div\n      0xffffffffffffffffffffffffffffffffffffffff\n      and\n        /* \"contracts/ReceiverTemplate.sol\":3880:3912  s_forwarderAddress != address(0) */\n      0xffffffffffffffffffffffffffffffffffffffff\n      and\n      eq\n      iszero\n        /* \"contracts/ReceiverTemplate.sol\":3880:3948  s_forwarderAddress != address(0) && msg.sender != s_forwarderAddress */\n      dup1\n      iszero\n      tag_121\n      jumpi\n      pop\n        /* \"contracts/ReceiverTemplate.sol\":3930:3948  s_forwarderAddress */\n      0x01\n      0x00\n      swap1\n      sload\n      swap1\n      0x0100\n      exp\n      swap1\n      div\n      0xffffffffffffffffffffffffffffffffffffffff\n      and\n        /* \"contracts/ReceiverTemplate.sol\":3916:3948  msg.sender != s_forwarderAddress */\n      0xffffffffffffffffffffffffffffffffffffffff\n      and\n        /* \"contracts/ReceiverTemplate.sol\":3916:3926  msg.sender */\n      caller\n        /* \"contracts/ReceiverTemplate.sol\":3916:3948  msg.sender != s_forwarderAddress */\n      0xffffffffffffffffffffffffffffffffffffffff\n      and\n      eq\n      iszero\n        /* \"contracts/ReceiverTemplate.sol\":3880:3948  s_forwarderAddress != address(0) && msg.sender != s_forwarderAddress */\n    tag_121:\n        /* \"contracts/ReceiverTemplate.sol\":3876:4019  if (s_forwarderAddress != address(0) && msg.sender != s_forwarderAddress) {... */\n      iszero\n      tag_122\n      jumpi\n        /* \"contracts/ReceiverTemplate.sol\":3980:3990  msg.sender */\n      caller\n        /* \"contracts/ReceiverTemplate.sol\":3992:4010  s_forwarderAddress */\n      0x01\n      0x00\n      swap1\n      sload\n      swap1\n      0x0100\n      exp\n      swap1\n      div\n      0xffffffffffffffffffffffffffffffffffffffff\n      and\n        /* \"contracts/ReceiverTemplate.sol\":3966:4011  InvalidSender(msg.sender, s_forwarderAddress) */\n      mload(0x40)\n      0xe1130dba00000000000000000000000000000000000000000000000000000000\n      dup2\n      mstore\n      0x04\n      add\n      tag_123\n      swap3\n      swap2\n      swap1\n      tag_124\n      jump\t// in\n    tag_123:\n      mload(0x40)\n      dup1\n      swap2\n      sub\n      swap1\n      revert\n        /* \"contracts/ReceiverTemplate.sol\":3876:4019  if (s_forwarderAddress != address(0) && msg.sender != s_forwarderAddress) {... */\n    tag_122:\n        /* \"contracts/ReceiverTemplate.sol\":4166:4167  0 */\n      0x00\n        /* \"contracts/ReceiverTemplate.sol\":4158:4168  bytes32(0) */\n      0x00\n      shl\n        /* \"contracts/ReceiverTemplate.sol\":4134:4154  s_expectedWorkflowId */\n      sload(0x03)\n        /* \"contracts/ReceiverTemplate.sol\":4134:4168  s_expectedWorkflowId != bytes32(0) */\n      eq\n      iszero\n        /* \"contracts/ReceiverTemplate.sol\":4134:4202  s_expectedWorkflowId != bytes32(0) || s_expectedAuthor != address(0) */\n      dup1\n      tag_125\n      jumpi\n      pop\n        /* \"contracts/ReceiverTemplate.sol\":4200:4201  0 */\n      0x00\n        /* \"contracts/ReceiverTemplate.sol\":4172:4202  s_expectedAuthor != address(0) */\n      0xffffffffffffffffffffffffffffffffffffffff\n      and\n        /* \"contracts/ReceiverTemplate.sol\":4172:4188  s_expectedAuthor */\n      0x02\n      0x00\n      swap1\n      sload\n      swap1\n      0x0100\n      exp\n      swap1\n      div\n      0xffffffffffffffffffffffffffffffffffffffff\n      and\n        /* \"contracts/ReceiverTemplate.sol\":4172:4202  s_expectedAuthor != address(0) */\n      0xffffffffffffffffffffffffffffffffffffffff\n      and\n      eq\n      iszero\n        /* \"contracts/ReceiverTemplate.sol\":4134:4202  s_expectedWorkflowId != bytes32(0) || s_expectedAuthor != address(0) */\n    tag_125:\n        /* \"contracts/ReceiverTemplate.sol\":4134:4242  s_expectedWorkflowId != bytes32(0) || s_expectedAuthor != address(0) || s_expectedWorkflowName != bytes10(0) */\n      dup1\n      tag_126\n      jumpi\n      pop\n        /* \"contracts/ReceiverTemplate.sol\":4240:4241  0 */\n      0x00\n        /* \"contracts/ReceiverTemplate.sol\":4232:4242  bytes10(0) */\n      0xb0\n      shl\n        /* \"contracts/ReceiverTemplate.sol\":4206:4242  s_expectedWorkflowName != bytes10(0) */\n      not(0xffffffffffffffffffffffffffffffffffffffffffff)\n      and\n        /* \"contracts/ReceiverTemplate.sol\":4206:4228  s_expectedWorkflowName */\n      0x02\n      0x14\n      swap1\n      sload\n      swap1\n      0x0100\n      exp\n      swap1\n      div\n      0xb0\n      shl\n        /* \"contracts/ReceiverTemplate.sol\":4206:4242  s_expectedWorkflowName != bytes10(0) */\n      not(0xffffffffffffffffffffffffffffffffffffffffffff)\n      and\n      eq\n      iszero\n        /* \"contracts/ReceiverTemplate.sol\":4134:4242  s_expectedWorkflowId != bytes32(0) || s_expectedAuthor != address(0) || s_expectedWorkflowName != bytes10(0) */\n    tag_126:\n        /* \"contracts/ReceiverTemplate.sol\":4130:5798  if (s_expectedWorkflowId != bytes32(0) || s_expectedAuthor != address(0) || s_expectedWorkflowName != bytes10(0)) {... */\n      iszero\n      tag_127\n      jumpi\n        /* \"contracts/ReceiverTemplate.sol\":4254:4272  bytes32 workflowId */\n      0x00\n        /* \"contracts/ReceiverTemplate.sol\":4274:4294  bytes10 workflowName */\n      0x00\n        /* \"contracts/ReceiverTemplate.sol\":4296:4317  address workflowOwner */\n      0x00\n        /* \"contracts/ReceiverTemplate.sol\":4321:4346  _decodeMetadata(metadata) */\n      tag_128\n        /* \"contracts/ReceiverTemplate.sol\":4337:4345  metadata */\n      dup8\n      dup8\n        /* \"contracts/ReceiverTemplate.sol\":4321:4346  _decodeMetadata(metadata) */\n      dup1\n      dup1\n      0x1f\n      add\n      0x20\n      dup1\n      swap2\n      div\n      mul\n      0x20\n      add\n      mload(0x40)\n      swap1\n      dup2\n      add\n      0x40\n      mstore\n      dup1\n      swap4\n      swap3\n      swap2\n      swap1\n      dup2\n      dup2\n      mstore\n      0x20\n      add\n      dup4\n      dup4\n      dup1\n      dup3\n      dup5\n      calldatacopy\n      0x00\n      dup2\n      dup5\n      add\n      mstore\n      not(0x1f)\n      0x1f\n      dup3\n      add\n      and\n      swap1\n      pop\n      dup1\n      dup4\n      add\n      swap3\n      pop\n      pop\n      pop\n      pop\n      pop\n      pop\n      pop\n        /* \"contracts/ReceiverTemplate.sol\":4321:4336  _decodeMetadata */\n      tag_129\n        /* \"contracts/ReceiverTemplate.sol\":4321:4346  _decodeMetadata(metadata) */\n      jump\t// in\n    tag_128:\n        /* \"contracts/ReceiverTemplate.sol\":4253:4346  (bytes32 workflowId, bytes10 workflowName, address workflowOwner) = _decodeMetadata(metadata) */\n      swap3\n      pop\n      swap3\n      pop\n      swap3\n      pop\n        /* \"contracts/ReceiverTemplate.sol\":4393:4394  0 */\n      0x00\n        /* \"contracts/ReceiverTemplate.sol\":4385:4395  bytes32(0) */\n      0x00\n      shl\n        /* \"contracts/ReceiverTemplate.sol\":4361:4381  s_expectedWorkflowId */\n      sload(0x03)\n        /* \"contracts/ReceiverTemplate.sol\":4361:4395  s_expectedWorkflowId != bytes32(0) */\n      eq\n      iszero\n        /* \"contracts/ReceiverTemplate.sol\":4361:4433  s_expectedWorkflowId != bytes32(0) && workflowId != s_expectedWorkflowId */\n      dup1\n      iszero\n      tag_130\n      jumpi\n      pop\n        /* \"contracts/ReceiverTemplate.sol\":4413:4433  s_expectedWorkflowId */\n      sload(0x03)\n        /* \"contracts/ReceiverTemplate.sol\":4399:4409  workflowId */\n      dup4\n        /* \"contracts/ReceiverTemplate.sol\":4399:4433  workflowId != s_expectedWorkflowId */\n      eq\n      iszero\n        /* \"contracts/ReceiverTemplate.sol\":4361:4433  s_expectedWorkflowId != bytes32(0) && workflowId != s_expectedWorkflowId */\n    tag_130:\n        /* \"contracts/ReceiverTemplate.sol\":4357:4514  if (s_expectedWorkflowId != bytes32(0) && workflowId != s_expectedWorkflowId) {... */\n      iszero\n      tag_131\n      jumpi\n        /* \"contracts/ReceiverTemplate.sol\":4471:4481  workflowId */\n      dup3\n        /* \"contracts/ReceiverTemplate.sol\":4483:4503  s_expectedWorkflowId */\n      sload(0x03)\n        /* \"contracts/ReceiverTemplate.sol\":4453:4504  InvalidWorkflowId(workflowId, s_expectedWorkflowId) */\n      mload(0x40)\n      0x9bfa39ba00000000000000000000000000000000000000000000000000000000\n      dup2\n      mstore\n      0x04\n      add\n      tag_132\n      swap3\n      swap2\n      swap1\n      tag_133\n      jump\t// in\n    tag_132:\n      mload(0x40)\n      dup1\n      swap2\n      sub\n      swap1\n      revert\n        /* \"contracts/ReceiverTemplate.sol\":4357:4514  if (s_expectedWorkflowId != bytes32(0) && workflowId != s_expectedWorkflowId) {... */\n    tag_131:\n        /* \"contracts/ReceiverTemplate.sol\":4554:4555  0 */\n      0x00\n        /* \"contracts/ReceiverTemplate.sol\":4526:4556  s_expectedAuthor != address(0) */\n      0xffffffffffffffffffffffffffffffffffffffff\n      and\n        /* \"contracts/ReceiverTemplate.sol\":4526:4542  s_expectedAuthor */\n      0x02\n      0x00\n      swap1\n      sload\n      swap1\n      0x0100\n      exp\n      swap1\n      div\n      0xffffffffffffffffffffffffffffffffffffffff\n      and\n        /* \"contracts/ReceiverTemplate.sol\":4526:4556  s_expectedAuthor != address(0) */\n      0xffffffffffffffffffffffffffffffffffffffff\n      and\n      eq\n      iszero\n        /* \"contracts/ReceiverTemplate.sol\":4526:4593  s_expectedAuthor != address(0) && workflowOwner != s_expectedAuthor */\n      dup1\n      iszero\n      tag_134\n      jumpi\n      pop\n        /* \"contracts/ReceiverTemplate.sol\":4577:4593  s_expectedAuthor */\n      0x02\n      0x00\n      swap1\n      sload\n      swap1\n      0x0100\n      exp\n      swap1\n      div\n      0xffffffffffffffffffffffffffffffffffffffff\n      and\n        /* \"contracts/ReceiverTemplate.sol\":4560:4593  workflowOwner != s_expectedAuthor */\n      0xffffffffffffffffffffffffffffffffffffffff\n      and\n        /* \"contracts/ReceiverTemplate.sol\":4560:4573  workflowOwner */\n      dup2\n        /* \"contracts/ReceiverTemplate.sol\":4560:4593  workflowOwner != s_expectedAuthor */\n      0xffffffffffffffffffffffffffffffffffffffff\n      and\n      eq\n      iszero\n        /* \"contracts/ReceiverTemplate.sol\":4526:4593  s_expectedAuthor != address(0) && workflowOwner != s_expectedAuthor */\n    tag_134:\n        /* \"contracts/ReceiverTemplate.sol\":4522:4669  if (s_expectedAuthor != address(0) && workflowOwner != s_expectedAuthor) {... */\n      iszero\n      tag_135\n      jumpi\n        /* \"contracts/ReceiverTemplate.sol\":4627:4640  workflowOwner */\n      dup1\n        /* \"contracts/ReceiverTemplate.sol\":4642:4658  s_expectedAuthor */\n      0x02\n      0x00\n      swap1\n      sload\n      swap1\n      0x0100\n      exp\n      swap1\n      div\n      0xffffffffffffffffffffffffffffffffffffffff\n      and\n        /* \"contracts/ReceiverTemplate.sol\":4613:4659  InvalidAuthor(workflowOwner, s_expectedAuthor) */\n      mload(0x40)\n      0xb8a98af800000000000000000000000000000000000000000000000000000000\n      dup2\n      mstore\n      0x04\n      add\n      tag_136\n      swap3\n      swap2\n      swap1\n      tag_124\n      jump\t// in\n    tag_136:\n      mload(0x40)\n      dup1\n      swap2\n      sub\n      swap1\n      revert\n        /* \"contracts/ReceiverTemplate.sol\":4522:4669  if (s_expectedAuthor != address(0) && workflowOwner != s_expectedAuthor) {... */\n    tag_135:\n        /* \"contracts/ReceiverTemplate.sol\":5379:5380  0 */\n      0x00\n        /* \"contracts/ReceiverTemplate.sol\":5371:5381  bytes10(0) */\n      0xb0\n      shl\n        /* \"contracts/ReceiverTemplate.sol\":5345:5381  s_expectedWorkflowName != bytes10(0) */\n      not(0xffffffffffffffffffffffffffffffffffffffffffff)\n      and\n        /* \"contracts/ReceiverTemplate.sol\":5345:5367  s_expectedWorkflowName */\n      0x02\n      0x14\n      swap1\n      sload\n      swap1\n      0x0100\n      exp\n      swap1\n      div\n      0xb0\n      shl\n        /* \"contracts/ReceiverTemplate.sol\":5345:5381  s_expectedWorkflowName != bytes10(0) */\n      not(0xffffffffffffffffffffffffffffffffffffffffffff)\n      and\n      eq\n        /* \"contracts/ReceiverTemplate.sol\":5341:5791  if (s_expectedWorkflowName != bytes10(0)) {... */\n      tag_137\n      jumpi\n        /* \"contracts/ReceiverTemplate.sol\":5489:5490  0 */\n      0x00\n        /* \"contracts/ReceiverTemplate.sol\":5461:5491  s_expectedAuthor == address(0) */\n      0xffffffffffffffffffffffffffffffffffffffff\n      and\n        /* \"contracts/ReceiverTemplate.sol\":5461:5477  s_expectedAuthor */\n      0x02\n      0x00\n      swap1\n      sload\n      swap1\n      0x0100\n      exp\n      swap1\n      div\n      0xffffffffffffffffffffffffffffffffffffffff\n      and\n        /* \"contracts/ReceiverTemplate.sol\":5461:5491  s_expectedAuthor == address(0) */\n      0xffffffffffffffffffffffffffffffffffffffff\n      and\n      sub\n        /* \"contracts/ReceiverTemplate.sol\":5457:5563  if (s_expectedAuthor == address(0)) {... */\n      tag_138\n      jumpi\n        /* \"contracts/ReceiverTemplate.sol\":5513:5551  WorkflowNameRequiresAuthorValidation() */\n      mload(0x40)\n      0x4847901100000000000000000000000000000000000000000000000000000000\n      dup2\n      mstore\n      0x04\n      add\n      mload(0x40)\n      dup1\n      swap2\n      sub\n      swap1\n      revert\n        /* \"contracts/ReceiverTemplate.sol\":5457:5563  if (s_expectedAuthor == address(0)) {... */\n    tag_138:\n        /* \"contracts/ReceiverTemplate.sol\":5669:5691  s_expectedWorkflowName */\n      0x02\n      0x14\n      swap1\n      sload\n      swap1\n      0x0100\n      exp\n      swap1\n      div\n      0xb0\n      shl\n        /* \"contracts/ReceiverTemplate.sol\":5653:5691  workflowName != s_expectedWorkflowName */\n      not(0xffffffffffffffffffffffffffffffffffffffffffff)\n      and\n        /* \"contracts/ReceiverTemplate.sol\":5653:5665  workflowName */\n      dup3\n        /* \"contracts/ReceiverTemplate.sol\":5653:5691  workflowName != s_expectedWorkflowName */\n      not(0xffffffffffffffffffffffffffffffffffffffffffff)\n      and\n      eq\n        /* \"contracts/ReceiverTemplate.sol\":5649:5782  if (workflowName != s_expectedWorkflowName) {... */\n      tag_139\n      jumpi\n        /* \"contracts/ReceiverTemplate.sol\":5733:5745  workflowName */\n      dup2\n        /* \"contracts/ReceiverTemplate.sol\":5747:5769  s_expectedWorkflowName */\n      0x02\n      0x14\n      swap1\n      sload\n      swap1\n      0x0100\n      exp\n      swap1\n      div\n      0xb0\n      shl\n        /* \"contracts/ReceiverTemplate.sol\":5713:5770  InvalidWorkflowName(workflowName, s_expectedWorkflowName) */\n      mload(0x40)\n      0x6c4609a600000000000000000000000000000000000000000000000000000000\n      dup2\n      mstore\n      0x04\n      add\n      tag_140\n      swap3\n      swap2\n      swap1\n      tag_141\n      jump\t// in\n    tag_140:\n      mload(0x40)\n      dup1\n      swap2\n      sub\n      swap1\n      revert\n        /* \"contracts/ReceiverTemplate.sol\":5649:5782  if (workflowName != s_expectedWorkflowName) {... */\n    tag_139:\n        /* \"contracts/ReceiverTemplate.sol\":5341:5791  if (s_expectedWorkflowName != bytes10(0)) {... */\n    tag_137:\n        /* \"contracts/ReceiverTemplate.sol\":4244:5798  {... */\n      pop\n      pop\n      pop\n        /* \"contracts/ReceiverTemplate.sol\":4130:5798  if (s_expectedWorkflowId != bytes32(0) || s_expectedAuthor != address(0) || s_expectedWorkflowName != bytes10(0)) {... */\n    tag_127:\n        /* \"contracts/ReceiverTemplate.sol\":5806:5828  _processReport(report) */\n      tag_142\n        /* \"contracts/ReceiverTemplate.sol\":5821:5827  report */\n      dup3\n      dup3\n        /* \"contracts/ReceiverTemplate.sol\":5806:5820  _processReport */\n      tag_143\n        /* \"contracts/ReceiverTemplate.sol\":5806:5828  _processReport(report) */\n      jump\t// in\n    tag_142:\n        /* \"contracts/ReceiverTemplate.sol\":3679:5834  function onReport(... */\n      pop\n      pop\n      pop\n      pop\n      jump\t// out\n        /* \"@chainlink/contracts-ccip/src/v0.8/ccip/applications/CCIPReceiver.sol\":1660:1790  function ccipReceive(Client.Any2EVMMessage calldata message) external virtual override onlyRouter {... */\n    tag_58:\n        /* \"@chainlink/contracts-ccip/src/v0.8/ccip/applications/CCIPReceiver.sol\":2449:2460  getRouter() */\n      tag_145\n        /* \"@chainlink/contracts-ccip/src/v0.8/ccip/applications/CCIPReceiver.sol\":2449:2458  getRouter */\n      tag_67\n        /* \"@chainlink/contracts-ccip/src/v0.8/ccip/applications/CCIPReceiver.sol\":2449:2460  getRouter() */\n      jump\t// in\n    tag_145:\n        /* \"@chainlink/contracts-ccip/src/v0.8/ccip/applications/CCIPReceiver.sol\":2435:2460  msg.sender != getRouter() */\n      0xffffffffffffffffffffffffffffffffffffffff\n      and\n        /* \"@chainlink/contracts-ccip/src/v0.8/ccip/applications/CCIPReceiver.sol\":2435:2445  msg.sender */\n      caller\n        /* \"@chainlink/contracts-ccip/src/v0.8/ccip/applications/CCIPReceiver.sol\":2435:2460  msg.sender != getRouter() */\n      0xffffffffffffffffffffffffffffffffffffffff\n      and\n      eq\n        /* \"@chainlink/contracts-ccip/src/v0.8/ccip/applications/CCIPReceiver.sol\":2431:2494  if (msg.sender != getRouter()) revert InvalidRouter(msg.sender) */\n      tag_146\n      jumpi\n        /* \"@chainlink/contracts-ccip/src/v0.8/ccip/applications/CCIPReceiver.sol\":2483:2493  msg.sender */\n      caller\n        /* \"@chainlink/contracts-ccip/src/v0.8/ccip/applications/CCIPReceiver.sol\":2469:2494  InvalidRouter(msg.sender) */\n      mload(0x40)\n      0xd7f7333400000000000000000000000000000000000000000000000000000000\n      dup2\n      mstore\n      0x04\n      add\n      tag_147\n      swap2\n      swap1\n      tag_37\n      jump\t// in\n    tag_147:\n      mload(0x40)\n      dup1\n      swap2\n      sub\n      swap1\n      revert\n        /* \"@chainlink/contracts-ccip/src/v0.8/ccip/applications/CCIPReceiver.sol\":2431:2494  if (msg.sender != getRouter()) revert InvalidRouter(msg.sender) */\n    tag_146:\n        /* \"@chainlink/contracts-ccip/src/v0.8/ccip/applications/CCIPReceiver.sol\":1764:1785  _ccipReceive(message) */\n      tag_149\n        /* \"@chainlink/contracts-ccip/src/v0.8/ccip/applications/CCIPReceiver.sol\":1777:1784  message */\n      dup2\n        /* \"@chainlink/contracts-ccip/src/v0.8/ccip/applications/CCIPReceiver.sol\":1764:1785  _ccipReceive(message) */\n      tag_150\n      swap1\n      tag_151\n      jump\t// in\n    tag_150:\n        /* \"@chainlink/contracts-ccip/src/v0.8/ccip/applications/CCIPReceiver.sol\":1764:1776  _ccipReceive */\n      tag_152\n        /* \"@chainlink/contracts-ccip/src/v0.8/ccip/applications/CCIPReceiver.sol\":1764:1785  _ccipReceive(message) */\n      jump\t// in\n    tag_149:\n        /* \"@chainlink/contracts-ccip/src/v0.8/ccip/applications/CCIPReceiver.sol\":1660:1790  function ccipReceive(Client.Any2EVMMessage calldata message) external virtual override onlyRouter {... */\n      pop\n      jump\t// out\n        /* \"@openzeppelin/contracts/access/Ownable.sol\":1638:1723  function owner() public view virtual returns (address) {... */\n    tag_60:\n        /* \"@openzeppelin/contracts/access/Ownable.sol\":1684:1691  address */\n      0x00\n        /* \"@openzeppelin/contracts/access/Ownable.sol\":1710:1716  _owner */\n      0x00\n      0x00\n      swap1\n      sload\n      swap1\n      0x0100\n      exp\n      swap1\n      div\n      0xffffffffffffffffffffffffffffffffffffffff\n      and\n        /* \"@openzeppelin/contracts/access/Ownable.sol\":1703:1716  return _owner */\n      swap1\n      pop\n        /* \"@openzeppelin/contracts/access/Ownable.sol\":1638:1723  function owner() public view virtual returns (address) {... */\n      swap1\n      jump\t// out\n        /* \"contracts/ReceiverTemplate.sol\":3223:3332  function getExpectedWorkflowName() external view returns (bytes10) {... */\n    tag_63:\n        /* \"contracts/ReceiverTemplate.sol\":3281:3288  bytes10 */\n      0x00\n        /* \"contracts/ReceiverTemplate.sol\":3304:3326  s_expectedWorkflowName */\n      0x02\n      0x14\n      swap1\n      sload\n      swap1\n      0x0100\n      exp\n      swap1\n      div\n      0xb0\n      shl\n        /* \"contracts/ReceiverTemplate.sol\":3297:3326  return s_expectedWorkflowName */\n      swap1\n      pop\n        /* \"contracts/ReceiverTemplate.sol\":3223:3332  function getExpectedWorkflowName() external view returns (bytes10) {... */\n      swap1\n      jump\t// out\n        /* \"@chainlink/contracts-ccip/src/v0.8/ccip/applications/CCIPReceiver.sol\":2205:2303  function getRouter() public view virtual returns (address) {... */\n    tag_67:\n        /* \"@chainlink/contracts-ccip/src/v0.8/ccip/applications/CCIPReceiver.sol\":2255:2262  address */\n      0x00\n        /* \"@chainlink/contracts-ccip/src/v0.8/ccip/applications/CCIPReceiver.sol\":2285:2297  i_ccipRouter */\n      immutable(\"0x5c4c6aa067b6f8e6cb38e6ab843832a94d1712d661a04d73c517d6a1931a9e5d\")\n        /* \"@chainlink/contracts-ccip/src/v0.8/ccip/applications/CCIPReceiver.sol\":2270:2298  return address(i_ccipRouter) */\n      swap1\n      pop\n        /* \"@chainlink/contracts-ccip/src/v0.8/ccip/applications/CCIPReceiver.sol\":2205:2303  function getRouter() public view virtual returns (address) {... */\n      swap1\n      jump\t// out\n        /* \"contracts/ReceiverTemplate.sol\":7707:8516  function setExpectedWorkflowName(... */\n    tag_72:\n        /* \"@openzeppelin/contracts/access/Ownable.sol\":1531:1544  _checkOwner() */\n      tag_157\n        /* \"@openzeppelin/contracts/access/Ownable.sol\":1531:1542  _checkOwner */\n      tag_116\n        /* \"@openzeppelin/contracts/access/Ownable.sol\":1531:1544  _checkOwner() */\n      jump\t// in\n    tag_157:\n        /* \"contracts/ReceiverTemplate.sol\":7799:7819  bytes10 previousName */\n      0x00\n        /* \"contracts/ReceiverTemplate.sol\":7822:7844  s_expectedWorkflowName */\n      0x02\n      0x14\n      swap1\n      sload\n      swap1\n      0x0100\n      exp\n      swap1\n      div\n      0xb0\n      shl\n        /* \"contracts/ReceiverTemplate.sol\":7799:7844  bytes10 previousName = s_expectedWorkflowName */\n      swap1\n      pop\n        /* \"contracts/ReceiverTemplate.sol\":7880:7881  0 */\n      0x00\n        /* \"contracts/ReceiverTemplate.sol\":7863:7868  _name */\n      dup4\n      dup4\n        /* \"contracts/ReceiverTemplate.sol\":7857:7876  bytes(_name).length */\n      swap1\n      pop\n        /* \"contracts/ReceiverTemplate.sol\":7857:7881  bytes(_name).length == 0 */\n      sub\n        /* \"contracts/ReceiverTemplate.sol\":7853:8017  if (bytes(_name).length == 0) {... */\n      tag_159\n      jumpi\n        /* \"contracts/ReceiverTemplate.sol\":7925:7926  0 */\n      0x00\n        /* \"contracts/ReceiverTemplate.sol\":7917:7927  bytes10(0) */\n      0xb0\n      shl\n        /* \"contracts/ReceiverTemplate.sol\":7892:7914  s_expectedWorkflowName */\n      0x02\n      0x14\n        /* \"contracts/ReceiverTemplate.sol\":7892:7927  s_expectedWorkflowName = bytes10(0) */\n      0x0100\n      exp\n      dup2\n      sload\n      dup2\n      0xffffffffffffffffffff\n      mul\n      not\n      and\n      swap1\n      dup4\n      0xb0\n      shr\n      mul\n      or\n      swap1\n      sstore\n      pop\n        /* \"contracts/ReceiverTemplate.sol\":7991:7992  0 */\n      0x00\n        /* \"contracts/ReceiverTemplate.sol\":7983:7993  bytes10(0) */\n      0xb0\n      shl\n        /* \"contracts/ReceiverTemplate.sol\":7941:7994  ExpectedWorkflowNameUpdated(previousName, bytes10(0)) */\n      not(0xffffffffffffffffffffffffffffffffffffffffffff)\n      and\n        /* \"contracts/ReceiverTemplate.sol\":7969:7981  previousName */\n      dup2\n        /* \"contracts/ReceiverTemplate.sol\":7941:7994  ExpectedWorkflowNameUpdated(previousName, bytes10(0)) */\n      not(0xffffffffffffffffffffffffffffffffffffffffffff)\n      and\n      0x1e7ddd09d504c82dcfc784a464b167469f5aad967606ec4822d848ef9141dfa5\n      mload(0x40)\n      mload(0x40)\n      dup1\n      swap2\n      sub\n      swap1\n      log3\n        /* \"contracts/ReceiverTemplate.sol\":8003:8010  return; */\n      pop\n      jump(tag_158)\n        /* \"contracts/ReceiverTemplate.sol\":7853:8017  if (bytes(_name).length == 0) {... */\n    tag_159:\n        /* \"contracts/ReceiverTemplate.sol\":8153:8165  bytes32 hash */\n      0x00\n        /* \"contracts/ReceiverTemplate.sol\":8168:8188  sha256(bytes(_name)) */\n      0x02\n        /* \"contracts/ReceiverTemplate.sol\":8181:8186  _name */\n      dup5\n      dup5\n        /* \"contracts/ReceiverTemplate.sol\":8168:8188  sha256(bytes(_name)) */\n      mload(0x40)\n      tag_160\n      swap3\n      swap2\n      swap1\n      tag_161\n      jump\t// in\n    tag_160:\n      0x20\n      mload(0x40)\n      dup1\n      dup4\n      sub\n      dup2\n      dup6\n      gas\n      staticcall\n      iszero\n      dup1\n      iszero\n      tag_163\n      jumpi\n      returndatacopy(0x00, 0x00, returndatasize)\n      revert(0x00, returndatasize)\n    tag_163:\n      pop\n      pop\n      pop\n      mload(0x40)\n      returndatasize\n      not(0x1f)\n      0x1f\n      dup3\n      add\n      and\n      dup3\n      add\n      dup1\n      0x40\n      mstore\n      pop\n      dup2\n      add\n      swap1\n      tag_164\n      swap2\n      swap1\n      tag_165\n      jump\t// in\n    tag_164:\n        /* \"contracts/ReceiverTemplate.sol\":8153:8188  bytes32 hash = sha256(bytes(_name)) */\n      swap1\n      pop\n        /* \"contracts/ReceiverTemplate.sol\":8195:8217  bytes memory hexString */\n      0x00\n        /* \"contracts/ReceiverTemplate.sol\":8220:8261  _bytesToHexString(abi.encodePacked(hash)) */\n      tag_166\n        /* \"contracts/ReceiverTemplate.sol\":8255:8259  hash */\n      dup3\n        /* \"contracts/ReceiverTemplate.sol\":8238:8260  abi.encodePacked(hash) */\n      add(0x20, mload(0x40))\n      tag_167\n      swap2\n      swap1\n      tag_168\n      jump\t// in\n    tag_167:\n      mload(0x40)\n      0x20\n      dup2\n      dup4\n      sub\n      sub\n      dup2\n      mstore\n      swap1\n      0x40\n      mstore\n        /* \"contracts/ReceiverTemplate.sol\":8220:8237  _bytesToHexString */\n      tag_169\n        /* \"contracts/ReceiverTemplate.sol\":8220:8261  _bytesToHexString(abi.encodePacked(hash)) */\n      jump\t// in\n    tag_166:\n        /* \"contracts/ReceiverTemplate.sol\":8195:8261  bytes memory hexString = _bytesToHexString(abi.encodePacked(hash)) */\n      swap1\n      pop\n        /* \"contracts/ReceiverTemplate.sol\":8268:8288  bytes memory first10 */\n      0x00\n        /* \"contracts/ReceiverTemplate.sol\":8301:8303  10 */\n      0x0a\n        /* \"contracts/ReceiverTemplate.sol\":8291:8304  new bytes(10) */\n      0xffffffffffffffff\n      dup2\n      gt\n      iszero\n      tag_170\n      jumpi\n      tag_171\n      tag_172\n      jump\t// in\n    tag_171:\n    tag_170:\n      mload(0x40)\n      swap1\n      dup1\n      dup3\n      mstore\n      dup1\n      0x1f\n      add\n      not(0x1f)\n      and\n      0x20\n      add\n      dup3\n      add\n      0x40\n      mstore\n      dup1\n      iszero\n      tag_173\n      jumpi\n      dup2\n      0x20\n      add\n      0x01\n      dup3\n      mul\n      dup1\n      calldatasize\n      dup4\n      calldatacopy\n      dup1\n      dup3\n      add\n      swap2\n      pop\n      pop\n      swap1\n      pop\n    tag_173:\n      pop\n        /* \"contracts/ReceiverTemplate.sol\":8268:8304  bytes memory first10 = new bytes(10) */\n      swap1\n      pop\n        /* \"contracts/ReceiverTemplate.sol\":8316:8325  uint256 i */\n      0x00\n        /* \"contracts/ReceiverTemplate.sol\":8328:8329  0 */\n      0x00\n        /* \"contracts/ReceiverTemplate.sol\":8316:8329  uint256 i = 0 */\n      swap1\n      pop\n        /* \"contracts/ReceiverTemplate.sol\":8311:8386  for (uint256 i = 0; i < 10; i++) {... */\n    tag_174:\n        /* \"contracts/ReceiverTemplate.sol\":8335:8337  10 */\n      0x0a\n        /* \"contracts/ReceiverTemplate.sol\":8331:8332  i */\n      dup2\n        /* \"contracts/ReceiverTemplate.sol\":8331:8337  i < 10 */\n      lt\n        /* \"contracts/ReceiverTemplate.sol\":8311:8386  for (uint256 i = 0; i < 10; i++) {... */\n      iszero\n      tag_175\n      jumpi\n        /* \"contracts/ReceiverTemplate.sol\":8366:8375  hexString */\n      dup3\n        /* \"contracts/ReceiverTemplate.sol\":8376:8377  i */\n      dup2\n        /* \"contracts/ReceiverTemplate.sol\":8366:8378  hexString[i] */\n      dup2\n      mload\n      dup2\n      lt\n      tag_177\n      jumpi\n      tag_178\n      tag_179\n      jump\t// in\n    tag_178:\n    tag_177:\n      0x20\n      add\n      add\n      mload\n      0xf8\n      shr\n      0xf8\n      shl\n        /* \"contracts/ReceiverTemplate.sol\":8353:8360  first10 */\n      dup3\n        /* \"contracts/ReceiverTemplate.sol\":8361:8362  i */\n      dup3\n        /* \"contracts/ReceiverTemplate.sol\":8353:8363  first10[i] */\n      dup2\n      mload\n      dup2\n      lt\n      tag_180\n      jumpi\n      tag_181\n      tag_179\n      jump\t// in\n    tag_181:\n    tag_180:\n      0x20\n      add\n      add\n        /* \"contracts/ReceiverTemplate.sol\":8353:8378  first10[i] = hexString[i] */\n      swap1\n      not(0xffffffffffffffffffffffffffffffffffffffffffffffffffffffffffffff)\n      and\n      swap1\n      dup2\n      0x00\n      byte\n      swap1\n      mstore8\n      pop\n        /* \"contracts/ReceiverTemplate.sol\":8339:8342  i++ */\n      dup1\n      dup1\n      0x01\n      add\n      swap2\n      pop\n      pop\n        /* \"contracts/ReceiverTemplate.sol\":8311:8386  for (uint256 i = 0; i < 10; i++) {... */\n      jump(tag_174)\n    tag_175:\n      pop\n        /* \"contracts/ReceiverTemplate.sol\":8425:8432  first10 */\n      dup1\n        /* \"contracts/ReceiverTemplate.sol\":8417:8433  bytes10(first10) */\n      tag_182\n      swap1\n      tag_183\n      jump\t// in\n    tag_182:\n        /* \"contracts/ReceiverTemplate.sol\":8392:8414  s_expectedWorkflowName */\n      0x02\n      0x14\n        /* \"contracts/ReceiverTemplate.sol\":8392:8433  s_expectedWorkflowName = bytes10(first10) */\n      0x0100\n      exp\n      dup2\n      sload\n      dup2\n      0xffffffffffffffffffff\n      mul\n      not\n      and\n      swap1\n      dup4\n      0xb0\n      shr\n      mul\n      or\n      swap1\n      sstore\n      pop\n        /* \"contracts/ReceiverTemplate.sol\":8487:8509  s_expectedWorkflowName */\n      0x02\n      0x14\n      swap1\n      sload\n      swap1\n      0x0100\n      exp\n      swap1\n      div\n      0xb0\n      shl\n        /* \"contracts/ReceiverTemplate.sol\":8445:8510  ExpectedWorkflowNameUpdated(previousName, s_expectedWorkflowName) */\n      not(0xffffffffffffffffffffffffffffffffffffffffffff)\n      and\n        /* \"contracts/ReceiverTemplate.sol\":8473:8485  previousName */\n      dup5\n        /* \"contracts/ReceiverTemplate.sol\":8445:8510  ExpectedWorkflowNameUpdated(previousName, s_expectedWorkflowName) */\n      not(0xffffffffffffffffffffffffffffffffffffffffffff)\n      and\n      0x1e7ddd09d504c82dcfc784a464b167469f5aad967606ec4822d848ef9141dfa5\n      mload(0x40)\n      mload(0x40)\n      dup1\n      swap2\n      sub\n      swap1\n      log3\n        /* \"contracts/ReceiverTemplate.sol\":7792:8516  {... */\n      pop\n      pop\n      pop\n      pop\n        /* \"@openzeppelin/contracts/access/Ownable.sol\":1554:1555  _ */\n    tag_158:\n        /* \"contracts/ReceiverTemplate.sol\":7707:8516  function setExpectedWorkflowName(... */\n      pop\n      pop\n      jump\t// out\n        /* \"contracts/ReceiverTemplate.sol\":8656:8870  function setExpectedWorkflowId(... */\n    tag_76:\n        /* \"@openzeppelin/contracts/access/Ownable.sol\":1531:1544  _checkOwner() */\n      tag_185\n        /* \"@openzeppelin/contracts/access/Ownable.sol\":1531:1542  _checkOwner */\n      tag_116\n        /* \"@openzeppelin/contracts/access/Ownable.sol\":1531:1544  _checkOwner() */\n      jump\t// in\n    tag_185:\n        /* \"contracts/ReceiverTemplate.sol\":8736:8754  bytes32 previousId */\n      0x00\n        /* \"contracts/ReceiverTemplate.sol\":8757:8777  s_expectedWorkflowId */\n      sload(0x03)\n        /* \"contracts/ReceiverTemplate.sol\":8736:8777  bytes32 previousId = s_expectedWorkflowId */\n      swap1\n      pop\n        /* \"contracts/ReceiverTemplate.sol\":8807:8810  _id */\n      dup2\n        /* \"contracts/ReceiverTemplate.sol\":8784:8804  s_expectedWorkflowId */\n      0x03\n        /* \"contracts/ReceiverTemplate.sol\":8784:8810  s_expectedWorkflowId = _id */\n      dup2\n      swap1\n      sstore\n      pop\n        /* \"contracts/ReceiverTemplate.sol\":8860:8863  _id */\n      dup2\n        /* \"contracts/ReceiverTemplate.sol\":8848:8858  previousId */\n      dup2\n        /* \"contracts/ReceiverTemplate.sol\":8822:8864  ExpectedWorkflowIdUpdated(previousId, _id) */\n      0x0dbedcdf21925e053b4c574eae180d7f2883235ab4976ecc0873598a2a999b03\n      mload(0x40)\n      mload(0x40)\n      dup1\n      swap2\n      sub\n      swap1\n      log3\n        /* \"contracts/ReceiverTemplate.sol\":8729:8870  {... */\n      pop\n        /* \"contracts/ReceiverTemplate.sol\":8656:8870  function setExpectedWorkflowId(... */\n      pop\n      jump\t// out\n        /* \"contracts/ReceiverTemplate.sol\":6808:7026  function setExpectedAuthor(... */\n    tag_80:\n        /* \"@openzeppelin/contracts/access/Ownable.sol\":1531:1544  _checkOwner() */\n      tag_188\n        /* \"@openzeppelin/contracts/access/Ownable.sol\":1531:1542  _checkOwner */\n      tag_116\n        /* \"@openzeppelin/contracts/access/Ownable.sol\":1531:1544  _checkOwner() */\n      jump\t// in\n    tag_188:\n        /* \"contracts/ReceiverTemplate.sol\":6888:6910  address previousAuthor */\n      0x00\n        /* \"contracts/ReceiverTemplate.sol\":6913:6929  s_expectedAuthor */\n      0x02\n      0x00\n      swap1\n      sload\n      swap1\n      0x0100\n      exp\n      swap1\n      div\n      0xffffffffffffffffffffffffffffffffffffffff\n      and\n        /* \"contracts/ReceiverTemplate.sol\":6888:6929  address previousAuthor = s_expectedAuthor */\n      swap1\n      pop\n        /* \"contracts/ReceiverTemplate.sol\":6955:6962  _author */\n      dup2\n        /* \"contracts/ReceiverTemplate.sol\":6936:6952  s_expectedAuthor */\n      0x02\n      0x00\n        /* \"contracts/ReceiverTemplate.sol\":6936:6962  s_expectedAuthor = _author */\n      0x0100\n      exp\n      dup2\n      sload\n      dup2\n      0xffffffffffffffffffffffffffffffffffffffff\n      mul\n      not\n      and\n      swap1\n      dup4\n      0xffffffffffffffffffffffffffffffffffffffff\n      and\n      mul\n      or\n      swap1\n      sstore\n      pop\n        /* \"contracts/ReceiverTemplate.sol\":7012:7019  _author */\n      dup2\n        /* \"contracts/ReceiverTemplate.sol\":6974:7020  ExpectedAuthorUpdated(previousAuthor, _author) */\n      0xffffffffffffffffffffffffffffffffffffffff\n      and\n        /* \"contracts/ReceiverTemplate.sol\":6996:7010  previousAuthor */\n      dup2\n        /* \"contracts/ReceiverTemplate.sol\":6974:7020  ExpectedAuthorUpdated(previousAuthor, _author) */\n      0xffffffffffffffffffffffffffffffffffffffff\n      and\n      0x3321cda85c145617e47418aa14255e9dcbec53a753778e57591703b89a3cad31\n      mload(0x40)\n      mload(0x40)\n      dup1\n      swap2\n      sub\n      swap1\n      log3\n        /* \"contracts/ReceiverTemplate.sol\":6881:7026  {... */\n      pop\n        /* \"contracts/ReceiverTemplate.sol\":6808:7026  function setExpectedAuthor(... */\n      pop\n      jump\t// out\n        /* \"contracts/ReceiverTemplate.sol\":6222:6650  function setForwarderAddress(... */\n    tag_83:\n        /* \"@openzeppelin/contracts/access/Ownable.sol\":1531:1544  _checkOwner() */\n      tag_191\n        /* \"@openzeppelin/contracts/access/Ownable.sol\":1531:1542  _checkOwner */\n      tag_116\n        /* \"@openzeppelin/contracts/access/Ownable.sol\":1531:1544  _checkOwner() */\n      jump\t// in\n    tag_191:\n        /* \"contracts/ReceiverTemplate.sol\":6307:6332  address previousForwarder */\n      0x00\n        /* \"contracts/ReceiverTemplate.sol\":6335:6353  s_forwarderAddress */\n      0x01\n      0x00\n      swap1\n      sload\n      swap1\n      0x0100\n      exp\n      swap1\n      div\n      0xffffffffffffffffffffffffffffffffffffffff\n      and\n        /* \"contracts/ReceiverTemplate.sol\":6307:6353  address previousForwarder = s_forwarderAddress */\n      swap1\n      pop\n        /* \"contracts/ReceiverTemplate.sol\":6438:6439  0 */\n      0x00\n        /* \"contracts/ReceiverTemplate.sol\":6416:6440  _forwarder == address(0) */\n      0xffffffffffffffffffffffffffffffffffffffff\n      and\n        /* \"contracts/ReceiverTemplate.sol\":6416:6426  _forwarder */\n      dup3\n        /* \"contracts/ReceiverTemplate.sol\":6416:6440  _forwarder == address(0) */\n      0xffffffffffffffffffffffffffffffffffffffff\n      and\n      sub\n        /* \"contracts/ReceiverTemplate.sol\":6412:6539  if (_forwarder == address(0)) {... */\n      tag_193\n      jumpi\n        /* \"contracts/ReceiverTemplate.sol\":6456:6531  SecurityWarning(\"Forwarder address set to zero - contract is now INSECURE\") */\n      0x704da7db165c79c1e33d542c079333bbde970a733032d2f95fec8fb7d770cbf7\n      mload(0x40)\n      tag_194\n      swap1\n      tag_195\n      jump\t// in\n    tag_194:\n      mload(0x40)\n      dup1\n      swap2\n      sub\n      swap1\n      log1\n        /* \"contracts/ReceiverTemplate.sol\":6412:6539  if (_forwarder == address(0)) {... */\n    tag_193:\n        /* \"contracts/ReceiverTemplate.sol\":6568:6578  _forwarder */\n      dup2\n        /* \"contracts/ReceiverTemplate.sol\":6547:6565  s_forwarderAddress */\n      0x01\n      0x00\n        /* \"contracts/ReceiverTemplate.sol\":6547:6578  s_forwarderAddress = _forwarder */\n      0x0100\n      exp\n      dup2\n      sload\n      dup2\n      0xffffffffffffffffffffffffffffffffffffffff\n      mul\n      not\n      and\n      swap1\n      dup4\n      0xffffffffffffffffffffffffffffffffffffffff\n      and\n      mul\n      or\n      swap1\n      sstore\n      pop\n        /* \"contracts/ReceiverTemplate.sol\":6633:6643  _forwarder */\n      dup2\n        /* \"contracts/ReceiverTemplate.sol\":6590:6644  ForwarderAddressUpdated(previousForwarder, _forwarder) */\n      0xffffffffffffffffffffffffffffffffffffffff\n      and\n        /* \"contracts/ReceiverTemplate.sol\":6614:6631  previousForwarder */\n      dup2\n        /* \"contracts/ReceiverTemplate.sol\":6590:6644  ForwarderAddressUpdated(previousForwarder, _forwarder) */\n      0xffffffffffffffffffffffffffffffffffffffff\n      and\n      0x039ad854736757070884dd787ef1a7f58db33546639d1f3efddcf4a33fb8997e\n      mload(0x40)\n      mload(0x40)\n      dup1\n      swap2\n      sub\n      swap1\n      log3\n        /* \"contracts/ReceiverTemplate.sol\":6300:6650  {... */\n      pop\n        /* \"contracts/ReceiverTemplate.sol\":6222:6650  function setForwarderAddress(... */\n      pop\n      jump\t// out\n        /* \"@openzeppelin/contracts/access/Ownable.sol\":2543:2758  function transferOwnership(address newOwner) public virtual onlyOwner {... */\n    tag_86:\n        /* \"@openzeppelin/contracts/access/Ownable.sol\":1531:1544  _checkOwner() */\n      tag_197\n        /* \"@openzeppelin/contracts/access/Ownable.sol\":1531:1542  _checkOwner */\n      tag_116\n        /* \"@openzeppelin/contracts/access/Ownable.sol\":1531:1544  _checkOwner() */\n      jump\t// in\n    tag_197:\n        /* \"@openzeppelin/contracts/access/Ownable.sol\":2647:2648  0 */\n      0x00\n        /* \"@openzeppelin/contracts/access/Ownable.sol\":2627:2649  newOwner == address(0) */\n      0xffffffffffffffffffffffffffffffffffffffff\n      and\n        /* \"@openzeppelin/contracts/access/Ownable.sol\":2627:2635  newOwner */\n      dup2\n        /* \"@openzeppelin/contracts/access/Ownable.sol\":2627:2649  newOwner == address(0) */\n      0xffffffffffffffffffffffffffffffffffffffff\n      and\n      sub\n        /* \"@openzeppelin/contracts/access/Ownable.sol\":2623:2714  if (newOwner == address(0)) {... */\n      tag_199\n      jumpi\n        /* \"@openzeppelin/contracts/access/Ownable.sol\":2700:2701  0 */\n      0x00\n        /* \"@openzeppelin/contracts/access/Ownable.sol\":2672:2703  OwnableInvalidOwner(address(0)) */\n      mload(0x40)\n      0x1e4fbdf700000000000000000000000000000000000000000000000000000000\n      dup2\n      mstore\n      0x04\n      add\n      tag_200\n      swap2\n      swap1\n      tag_37\n      jump\t// in\n    tag_200:\n      mload(0x40)\n      dup1\n      swap2\n      sub\n      swap1\n      revert\n        /* \"@openzeppelin/contracts/access/Ownable.sol\":2623:2714  if (newOwner == address(0)) {... */\n    tag_199:\n        /* \"@openzeppelin/contracts/access/Ownable.sol\":2723:2751  _transferOwnership(newOwner) */\n      tag_201\n        /* \"@openzeppelin/contracts/access/Ownable.sol\":2742:2750  newOwner */\n      dup2\n        /* \"@openzeppelin/contracts/access/Ownable.sol\":2723:2741  _transferOwnership */\n      tag_119\n        /* \"@openzeppelin/contracts/access/Ownable.sol\":2723:2751  _transferOwnership(newOwner) */\n      jump\t// in\n    tag_201:\n        /* \"@openzeppelin/contracts/access/Ownable.sol\":2543:2758  function transferOwnership(address newOwner) public virtual onlyOwner {... */\n      pop\n      jump\t// out\n        /* \"contracts/ReceiverTemplate.sol\":3450:3555  function getExpectedWorkflowId() external view returns (bytes32) {... */\n    tag_88:\n        /* \"contracts/ReceiverTemplate.sol\":3506:3513  bytes32 */\n      0x00\n        /* \"contracts/ReceiverTemplate.sol\":3529:3549  s_expectedWorkflowId */\n      sload(0x03)\n        /* \"contracts/ReceiverTemplate.sol\":3522:3549  return s_expectedWorkflowId */\n      swap1\n      pop\n        /* \"contracts/ReceiverTemplate.sol\":3450:3555  function getExpectedWorkflowId() external view returns (bytes32) {... */\n      swap1\n      jump\t// out\n        /* \"contracts/ReceiverTemplate.sol\":10820:11027  function supportsInterface(... */\n    tag_93:\n        /* \"contracts/ReceiverTemplate.sol\":10915:10919  bool */\n      0x00\n        /* \"contracts/ReceiverTemplate.sol\":10950:10977  type(IReceiver).interfaceId */\n      0x805f213200000000000000000000000000000000000000000000000000000000\n        /* \"contracts/ReceiverTemplate.sol\":10935:10977  interfaceId == type(IReceiver).interfaceId */\n      not(0xffffffffffffffffffffffffffffffffffffffffffffffffffffffff)\n      and\n        /* \"contracts/ReceiverTemplate.sol\":10935:10946  interfaceId */\n      dup3\n        /* \"contracts/ReceiverTemplate.sol\":10935:10977  interfaceId == type(IReceiver).interfaceId */\n      not(0xffffffffffffffffffffffffffffffffffffffffffffffffffffffff)\n      and\n      eq\n        /* \"contracts/ReceiverTemplate.sol\":10935:11021  interfaceId == type(IReceiver).interfaceId || interfaceId == type(IERC165).interfaceId */\n      dup1\n      tag_204\n      jumpi\n      pop\n        /* \"contracts/ReceiverTemplate.sol\":10996:11021  type(IERC165).interfaceId */\n      0x01ffc9a700000000000000000000000000000000000000000000000000000000\n        /* \"contracts/ReceiverTemplate.sol\":10981:11021  interfaceId == type(IERC165).interfaceId */\n      not(0xffffffffffffffffffffffffffffffffffffffffffffffffffffffff)\n      and\n        /* \"contracts/ReceiverTemplate.sol\":10981:10992  interfaceId */\n      dup3\n        /* \"contracts/ReceiverTemplate.sol\":10981:11021  interfaceId == type(IERC165).interfaceId */\n      not(0xffffffffffffffffffffffffffffffffffffffffffffffffffffffff)\n      and\n      eq\n        /* \"contracts/ReceiverTemplate.sol\":10935:11021  interfaceId == type(IReceiver).interfaceId || interfaceId == type(IERC165).interfaceId */\n    tag_204:\n        /* \"contracts/ReceiverTemplate.sol\":10928:11021  return interfaceId == type(IReceiver).interfaceId || interfaceId == type(IERC165).interfaceId */\n      swap1\n      pop\n        /* \"contracts/ReceiverTemplate.sol\":10820:11027  function supportsInterface(... */\n      swap2\n      swap1\n      pop\n      jump\t// out\n        /* \"@openzeppelin/contracts/access/Ownable.sol\":1796:1958  function _checkOwner() internal view virtual {... */\n    tag_116:\n        /* \"@openzeppelin/contracts/access/Ownable.sol\":1866:1878  _msgSender() */\n      tag_206\n        /* \"@openzeppelin/contracts/access/Ownable.sol\":1866:1876  _msgSender */\n      tag_207\n        /* \"@openzeppelin/contracts/access/Ownable.sol\":1866:1878  _msgSender() */\n      jump\t// in\n    tag_206:\n        /* \"@openzeppelin/contracts/access/Ownable.sol\":1855:1878  owner() != _msgSender() */\n      0xffffffffffffffffffffffffffffffffffffffff\n      and\n        /* \"@openzeppelin/contracts/access/Ownable.sol\":1855:1862  owner() */\n      tag_208\n        /* \"@openzeppelin/contracts/access/Ownable.sol\":1855:1860  owner */\n      tag_60\n        /* \"@openzeppelin/contracts/access/Ownable.sol\":1855:1862  owner() */\n      jump\t// in\n    tag_208:\n        /* \"@openzeppelin/contracts/access/Ownable.sol\":1855:1878  owner() != _msgSender() */\n      0xffffffffffffffffffffffffffffffffffffffff\n      and\n      eq\n        /* \"@openzeppelin/contracts/access/Ownable.sol\":1851:1952  if (owner() != _msgSender()) {... */\n      tag_209\n      jumpi\n        /* \"@openzeppelin/contracts/access/Ownable.sol\":1928:1940  _msgSender() */\n      tag_210\n        /* \"@openzeppelin/contracts/access/Ownable.sol\":1928:1938  _msgSender */\n      tag_207\n        /* \"@openzeppelin/contracts/access/Ownable.sol\":1928:1940  _msgSender() */\n      jump\t// in\n    tag_210:\n        /* \"@openzeppelin/contracts/access/Ownable.sol\":1901:1941  OwnableUnauthorizedAccount(_msgSender()) */\n      mload(0x40)\n      0x118cdaa700000000000000000000000000000000000000000000000000000000\n      dup2\n      mstore\n      0x04\n      add\n      tag_211\n      swap2\n      swap1\n      tag_37\n      jump\t// in\n    tag_211:\n      mload(0x40)\n      dup1\n      swap2\n      sub\n      swap1\n      revert\n        /* \"@openzeppelin/contracts/access/Ownable.sol\":1851:1952  if (owner() != _msgSender()) {... */\n    tag_209:\n        /* \"@openzeppelin/contracts/access/Ownable.sol\":1796:1958  function _checkOwner() internal view virtual {... */\n      jump\t// out\n        /* \"@openzeppelin/contracts/access/Ownable.sol\":2912:3099  function _transferOwnership(address newOwner) internal virtual {... */\n    tag_119:\n        /* \"@openzeppelin/contracts/access/Ownable.sol\":2985:3001  address oldOwner */\n      0x00\n        /* \"@openzeppelin/contracts/access/Ownable.sol\":3004:3010  _owner */\n      0x00\n      0x00\n      swap1\n      sload\n      swap1\n      0x0100\n      exp\n      swap1\n      div\n      0xffffffffffffffffffffffffffffffffffffffff\n      and\n        /* \"@openzeppelin/contracts/access/Ownable.sol\":2985:3010  address oldOwner = _owner */\n      swap1\n      pop\n        /* \"@openzeppelin/contracts/access/Ownable.sol\":3029:3037  newOwner */\n      dup2\n        /* \"@openzeppelin/contracts/access/Ownable.sol\":3020:3026  _owner */\n      0x00\n      0x00\n        /* \"@openzeppelin/contracts/access/Ownable.sol\":3020:3037  _owner = newOwner */\n      0x0100\n      exp\n      dup2\n      sload\n      dup2\n      0xffffffffffffffffffffffffffffffffffffffff\n      mul\n      not\n      and\n      swap1\n      dup4\n      0xffffffffffffffffffffffffffffffffffffffff\n      and\n      mul\n      or\n      swap1\n      sstore\n      pop\n        /* \"@openzeppelin/contracts/access/Ownable.sol\":3083:3091  newOwner */\n      dup2\n        /* \"@openzeppelin/contracts/access/Ownable.sol\":3052:3092  OwnershipTransferred(oldOwner, newOwner) */\n      0xffffffffffffffffffffffffffffffffffffffff\n      and\n        /* \"@openzeppelin/contracts/access/Ownable.sol\":3073:3081  oldOwner */\n      dup2\n        /* \"@openzeppelin/contracts/access/Ownable.sol\":3052:3092  OwnershipTransferred(oldOwner, newOwner) */\n      0xffffffffffffffffffffffffffffffffffffffff\n      and\n      0x8be0079c531659141344cd1fd0a4f28419497f9722a3daafe3b4186f6b6457e0\n      mload(0x40)\n      mload(0x40)\n      dup1\n      swap2\n      sub\n      swap1\n      log3\n        /* \"@openzeppelin/contracts/access/Ownable.sol\":2975:3099  {... */\n      pop\n        /* \"@openzeppelin/contracts/access/Ownable.sol\":2912:3099  function _transferOwnership(address newOwner) internal virtual {... */\n      pop\n      jump\t// out\n        /* \"contracts/ReceiverTemplate.sol\":9785:10494  function _decodeMetadata(... */\n    tag_129:\n        /* \"contracts/ReceiverTemplate.sol\":9866:9884  bytes32 workflowId */\n      0x00\n        /* \"contracts/ReceiverTemplate.sol\":9886:9906  bytes10 workflowName */\n      0x00\n        /* \"contracts/ReceiverTemplate.sol\":9908:9929  address workflowOwner */\n      0x00\n        /* \"contracts/ReceiverTemplate.sol\":10309:10311  32 */\n      0x20\n        /* \"contracts/ReceiverTemplate.sol\":10299:10307  metadata */\n      dup5\n        /* \"contracts/ReceiverTemplate.sol\":10295:10312  add(metadata, 32) */\n      add\n        /* \"contracts/ReceiverTemplate.sol\":10289:10313  mload(add(metadata, 32)) */\n      mload\n        /* \"contracts/ReceiverTemplate.sol\":10275:10313  workflowId := mload(add(metadata, 32)) */\n      swap3\n      pop\n        /* \"contracts/ReceiverTemplate.sol\":10357:10359  64 */\n      0x40\n        /* \"contracts/ReceiverTemplate.sol\":10347:10355  metadata */\n      dup5\n        /* \"contracts/ReceiverTemplate.sol\":10343:10360  add(metadata, 64) */\n      add\n        /* \"contracts/ReceiverTemplate.sol\":10337:10361  mload(add(metadata, 64)) */\n      mload\n        /* \"contracts/ReceiverTemplate.sol\":10321:10361  workflowName := mload(add(metadata, 64)) */\n      swap2\n      pop\n        /* \"contracts/ReceiverTemplate.sol\":10422:10424  74 */\n      0x4a\n        /* \"contracts/ReceiverTemplate.sol\":10412:10420  metadata */\n      dup5\n        /* \"contracts/ReceiverTemplate.sol\":10408:10425  add(metadata, 74) */\n      add\n        /* \"contracts/ReceiverTemplate.sol\":10402:10426  mload(add(metadata, 74)) */\n      mload\n        /* \"contracts/ReceiverTemplate.sol\":10398:10399  8 */\n      0x08\n        /* \"contracts/ReceiverTemplate.sol\":10394:10396  12 */\n      0x0c\n        /* \"contracts/ReceiverTemplate.sol\":10390:10400  mul(12, 8) */\n      mul\n        /* \"contracts/ReceiverTemplate.sol\":10386:10427  shr(mul(12, 8), mload(add(metadata, 74))) */\n      shr\n        /* \"contracts/ReceiverTemplate.sol\":10369:10427  workflowOwner := shr(mul(12, 8), mload(add(metadata, 74))) */\n      swap1\n      pop\n        /* \"contracts/ReceiverTemplate.sol\":9785:10494  function _decodeMetadata(... */\n      swap2\n      swap4\n      swap1\n      swap3\n      pop\n      jump\t// out\n        /* \"contracts/token.sol\":2251:2455  function _processReport(bytes calldata report) internal override {... */\n    tag_143:\n        /* \"contracts/token.sol\":2328:2345  address recipient */\n      0x00\n        /* \"contracts/token.sol\":2347:2361  uint256 amount */\n      0x00\n        /* \"contracts/token.sol\":2376:2382  report */\n      dup4\n      dup4\n        /* \"contracts/token.sol\":2365:2403  abi.decode(report, (address, uint256)) */\n      dup2\n      add\n      swap1\n      tag_215\n      swap2\n      swap1\n      tag_216\n      jump\t// in\n    tag_215:\n        /* \"contracts/token.sol\":2327:2403  (address recipient, uint256 amount) = abi.decode(report, (address, uint256)) */\n      swap2\n      pop\n      swap2\n      pop\n        /* \"contracts/token.sol\":2414:2447  _executePayout(recipient, amount) */\n      tag_217\n        /* \"contracts/token.sol\":2429:2438  recipient */\n      dup3\n        /* \"contracts/token.sol\":2440:2446  amount */\n      dup3\n        /* \"contracts/token.sol\":2414:2428  _executePayout */\n      tag_218\n        /* \"contracts/token.sol\":2414:2447  _executePayout(recipient, amount) */\n      jump\t// in\n    tag_217:\n        /* \"contracts/token.sol\":2316:2455  {... */\n      pop\n      pop\n        /* \"contracts/token.sol\":2251:2455  function _processReport(bytes calldata report) internal override {... */\n      pop\n      pop\n      jump\t// out\n        /* \"contracts/token.sol\":2595:2976  function _ccipReceive(Client.Any2EVMMessage memory message) internal override {... */\n    tag_152:\n        /* \"contracts/token.sol\":2735:2752  address recipient */\n      0x00\n        /* \"contracts/token.sol\":2766:2773  message */\n      dup2\n        /* \"contracts/token.sol\":2766:2778  message.data */\n      0x60\n      add\n      mload\n        /* \"contracts/token.sol\":2755:2790  abi.decode(message.data, (address)) */\n      dup1\n      0x20\n      add\n      swap1\n      mload\n      dup2\n      add\n      swap1\n      tag_220\n      swap2\n      swap1\n      tag_221\n      jump\t// in\n    tag_220:\n        /* \"contracts/token.sol\":2735:2790  address recipient = abi.decode(message.data, (address)) */\n      swap1\n      pop\n        /* \"contracts/token.sol\":2863:2877  uint256 amount */\n      0x00\n        /* \"contracts/token.sol\":2880:2887  message */\n      dup3\n        /* \"contracts/token.sol\":2880:2904  message.destTokenAmounts */\n      0x80\n      add\n      mload\n        /* \"contracts/token.sol\":2905:2906  0 */\n      0x00\n        /* \"contracts/token.sol\":2880:2907  message.destTokenAmounts[0] */\n      dup2\n      mload\n      dup2\n      lt\n      tag_222\n      jumpi\n      tag_223\n      tag_179\n      jump\t// in\n    tag_223:\n    tag_222:\n      0x20\n      mul\n      0x20\n      add\n      add\n      mload\n        /* \"contracts/token.sol\":2880:2914  message.destTokenAmounts[0].amount */\n      0x20\n      add\n      mload\n        /* \"contracts/token.sol\":2863:2914  uint256 amount = message.destTokenAmounts[0].amount */\n      swap1\n      pop\n        /* \"contracts/token.sol\":2935:2968  _executePayout(recipient, amount) */\n      tag_224\n        /* \"contracts/token.sol\":2950:2959  recipient */\n      dup3\n        /* \"contracts/token.sol\":2961:2967  amount */\n      dup3\n        /* \"contracts/token.sol\":2935:2949  _executePayout */\n      tag_218\n        /* \"contracts/token.sol\":2935:2968  _executePayout(recipient, amount) */\n      jump\t// in\n    tag_224:\n        /* \"contracts/token.sol\":2673:2976  {... */\n      pop\n      pop\n        /* \"contracts/token.sol\":2595:2976  function _ccipReceive(Client.Any2EVMMessage memory message) internal override {... */\n      pop\n      jump\t// out\n        /* \"contracts/ReceiverTemplate.sol\":9023:9384  function _bytesToHexString(... */\n    tag_169:\n        /* \"contracts/ReceiverTemplate.sol\":9101:9113  bytes memory */\n      0x60\n        /* \"contracts/ReceiverTemplate.sol\":9122:9144  bytes memory hexString */\n      0x00\n        /* \"contracts/ReceiverTemplate.sol\":9171:9172  2 */\n      0x02\n        /* \"contracts/ReceiverTemplate.sol\":9157:9161  data */\n      dup4\n        /* \"contracts/ReceiverTemplate.sol\":9157:9168  data.length */\n      mload\n        /* \"contracts/ReceiverTemplate.sol\":9157:9172  data.length * 2 */\n      tag_226\n      swap2\n      swap1\n      tag_227\n      jump\t// in\n    tag_226:\n        /* \"contracts/ReceiverTemplate.sol\":9147:9173  new bytes(data.length * 2) */\n      0xffffffffffffffff\n      dup2\n      gt\n      iszero\n      tag_228\n      jumpi\n      tag_229\n      tag_172\n      jump\t// in\n    tag_229:\n    tag_228:\n      mload(0x40)\n      swap1\n      dup1\n      dup3\n      mstore\n      dup1\n      0x1f\n      add\n      not(0x1f)\n      and\n      0x20\n      add\n      dup3\n      add\n      0x40\n      mstore\n      dup1\n      iszero\n      tag_230\n      jumpi\n      dup2\n      0x20\n      add\n      0x01\n      dup3\n      mul\n      dup1\n      calldatasize\n      dup4\n      calldatacopy\n      dup1\n      dup3\n      add\n      swap2\n      pop\n      pop\n      swap1\n      pop\n    tag_230:\n      pop\n        /* \"contracts/ReceiverTemplate.sol\":9122:9173  bytes memory hexString = new bytes(data.length * 2) */\n      swap1\n      pop\n        /* \"contracts/ReceiverTemplate.sol\":9187:9196  uint256 i */\n      0x00\n        /* \"contracts/ReceiverTemplate.sol\":9199:9200  0 */\n      0x00\n        /* \"contracts/ReceiverTemplate.sol\":9187:9200  uint256 i = 0 */\n      swap1\n      pop\n        /* \"contracts/ReceiverTemplate.sol\":9182:9354  for (uint256 i = 0; i < data.length; i++) {... */\n    tag_231:\n        /* \"contracts/ReceiverTemplate.sol\":9206:9210  data */\n      dup4\n        /* \"contracts/ReceiverTemplate.sol\":9206:9217  data.length */\n      mload\n        /* \"contracts/ReceiverTemplate.sol\":9202:9203  i */\n      dup2\n        /* \"contracts/ReceiverTemplate.sol\":9202:9217  i < data.length */\n      lt\n        /* \"contracts/ReceiverTemplate.sol\":9182:9354  for (uint256 i = 0; i < data.length; i++) {... */\n      iszero\n      tag_232\n      jumpi\n        /* \"contracts/ReceiverTemplate.sol\":9252:9261  HEX_CHARS */\n      mload(0x40)\n      dup1\n      0x40\n      add\n      0x40\n      mstore\n      dup1\n      0x10\n      dup2\n      mstore\n      0x20\n      add\n      0x3031323334353637383961626364656600000000000000000000000000000000\n      dup2\n      mstore\n      pop\n        /* \"contracts/ReceiverTemplate.sol\":9279:9280  4 */\n      0x04\n        /* \"contracts/ReceiverTemplate.sol\":9268:9272  data */\n      dup6\n        /* \"contracts/ReceiverTemplate.sol\":9273:9274  i */\n      dup4\n        /* \"contracts/ReceiverTemplate.sol\":9268:9275  data[i] */\n      dup2\n      mload\n      dup2\n      lt\n      tag_234\n      jumpi\n      tag_235\n      tag_179\n      jump\t// in\n    tag_235:\n    tag_234:\n      0x20\n      add\n      add\n      mload\n      0xf8\n      shr\n      0xf8\n      shl\n        /* \"contracts/ReceiverTemplate.sol\":9268:9280  data[i] >> 4 */\n      not(0xffffffffffffffffffffffffffffffffffffffffffffffffffffffffffffff)\n      and\n      swap1\n      shr\n        /* \"contracts/ReceiverTemplate.sol\":9262:9281  uint8(data[i] >> 4) */\n      0xf8\n      shr\n        /* \"contracts/ReceiverTemplate.sol\":9252:9282  HEX_CHARS[uint8(data[i] >> 4)] */\n      0xff\n      and\n      dup2\n      mload\n      dup2\n      lt\n      tag_236\n      jumpi\n      tag_237\n      tag_179\n      jump\t// in\n    tag_237:\n    tag_236:\n      0x20\n      add\n      add\n      mload\n      0xf8\n      shr\n      0xf8\n      shl\n        /* \"contracts/ReceiverTemplate.sol\":9233:9242  hexString */\n      dup3\n        /* \"contracts/ReceiverTemplate.sol\":9247:9248  2 */\n      0x02\n        /* \"contracts/ReceiverTemplate.sol\":9243:9244  i */\n      dup4\n        /* \"contracts/ReceiverTemplate.sol\":9243:9248  i * 2 */\n      tag_238\n      swap2\n      swap1\n      tag_227\n      jump\t// in\n    tag_238:\n        /* \"contracts/ReceiverTemplate.sol\":9233:9249  hexString[i * 2] */\n      dup2\n      mload\n      dup2\n      lt\n      tag_239\n      jumpi\n      tag_240\n      tag_179\n      jump\t// in\n    tag_240:\n    tag_239:\n      0x20\n      add\n      add\n        /* \"contracts/ReceiverTemplate.sol\":9233:9282  hexString[i * 2] = HEX_CHARS[uint8(data[i] >> 4)] */\n      swap1\n      not(0xffffffffffffffffffffffffffffffffffffffffffffffffffffffffffffff)\n      and\n      swap1\n      dup2\n      0x00\n      byte\n      swap1\n      mstore8\n      pop\n        /* \"contracts/ReceiverTemplate.sol\":9314:9323  HEX_CHARS */\n      mload(0x40)\n      dup1\n      0x40\n      add\n      0x40\n      mstore\n      dup1\n      0x10\n      dup2\n      mstore\n      0x20\n      add\n      0x3031323334353637383961626364656600000000000000000000000000000000\n      dup2\n      mstore\n      pop\n        /* \"contracts/ReceiverTemplate.sol\":9340:9344  0x0f */\n      0x0f\n        /* \"contracts/ReceiverTemplate.sol\":9330:9344  data[i] & 0x0f */\n      0xf8\n      shl\n        /* \"contracts/ReceiverTemplate.sol\":9330:9334  data */\n      dup6\n        /* \"contracts/ReceiverTemplate.sol\":9335:9336  i */\n      dup4\n        /* \"contracts/ReceiverTemplate.sol\":9330:9337  data[i] */\n      dup2\n      mload\n      dup2\n      lt\n      tag_241\n      jumpi\n      tag_242\n      tag_179\n      jump\t// in\n    tag_242:\n    tag_241:\n      0x20\n      add\n      add\n      mload\n      0xf8\n      shr\n      0xf8\n      shl\n        /* \"contracts/ReceiverTemplate.sol\":9330:9344  data[i] & 0x0f */\n      and\n        /* \"contracts/ReceiverTemplate.sol\":9324:9345  uint8(data[i] & 0x0f) */\n      0xf8\n      shr\n        /* \"contracts/ReceiverTemplate.sol\":9314:9346  HEX_CHARS[uint8(data[i] & 0x0f)] */\n      0xff\n      and\n      dup2\n      mload\n      dup2\n      lt\n      tag_243\n      jumpi\n      tag_244\n      tag_179\n      jump\t// in\n    tag_244:\n    tag_243:\n      0x20\n      add\n      add\n      mload\n      0xf8\n      shr\n      0xf8\n      shl\n        /* \"contracts/ReceiverTemplate.sol\":9291:9300  hexString */\n      dup3\n        /* \"contracts/ReceiverTemplate.sol\":9309:9310  1 */\n      0x01\n        /* \"contracts/ReceiverTemplate.sol\":9305:9306  2 */\n      0x02\n        /* \"contracts/ReceiverTemplate.sol\":9301:9302  i */\n      dup5\n        /* \"contracts/ReceiverTemplate.sol\":9301:9306  i * 2 */\n      tag_245\n      swap2\n      swap1\n      tag_227\n      jump\t// in\n    tag_245:\n        /* \"contracts/ReceiverTemplate.sol\":9301:9310  i * 2 + 1 */\n      tag_246\n      swap2\n      swap1\n      tag_247\n      jump\t// in\n    tag_246:\n        /* \"contracts/ReceiverTemplate.sol\":9291:9311  hexString[i * 2 + 1] */\n      dup2\n      mload\n      dup2\n      lt\n      tag_248\n      jumpi\n      tag_249\n      tag_179\n      jump\t// in\n    tag_249:\n    tag_248:\n      0x20\n      add\n      add\n        /* \"contracts/ReceiverTemplate.sol\":9291:9346  hexString[i * 2 + 1] = HEX_CHARS[uint8(data[i] & 0x0f)] */\n      swap1\n      not(0xffffffffffffffffffffffffffffffffffffffffffffffffffffffffffffff)\n      and\n      swap1\n      dup2\n      0x00\n      byte\n      swap1\n      mstore8\n      pop\n        /* \"contracts/ReceiverTemplate.sol\":9219:9222  i++ */\n      dup1\n      dup1\n      0x01\n      add\n      swap2\n      pop\n      pop\n        /* \"contracts/ReceiverTemplate.sol\":9182:9354  for (uint256 i = 0; i < data.length; i++) {... */\n      jump(tag_231)\n    tag_232:\n      pop\n        /* \"contracts/ReceiverTemplate.sol\":9369:9378  hexString */\n      dup1\n        /* \"contracts/ReceiverTemplate.sol\":9362:9378  return hexString */\n      swap2\n      pop\n      pop\n        /* \"contracts/ReceiverTemplate.sol\":9023:9384  function _bytesToHexString(... */\n      swap2\n      swap1\n      pop\n      jump\t// out\n        /* \"@openzeppelin/contracts/utils/Context.sol\":656:752  function _msgSender() internal view virtual returns (address) {... */\n    tag_207:\n        /* \"@openzeppelin/contracts/utils/Context.sol\":709:716  address */\n      0x00\n        /* \"@openzeppelin/contracts/utils/Context.sol\":735:745  msg.sender */\n      caller\n        /* \"@openzeppelin/contracts/utils/Context.sol\":728:745  return msg.sender */\n      swap1\n      pop\n        /* \"@openzeppelin/contracts/utils/Context.sol\":656:752  function _msgSender() internal view virtual returns (address) {... */\n      swap1\n      jump\t// out\n        /* \"contracts/token.sol\":3032:3302  function _executePayout(address _recipient, uint256 _amount) internal {... */\n    tag_218:\n        /* \"contracts/token.sol\":3143:3144  0 */\n      0x00\n        /* \"contracts/token.sol\":3121:3145  _recipient != address(0) */\n      0xffffffffffffffffffffffffffffffffffffffff\n      and\n        /* \"contracts/token.sol\":3121:3131  _recipient */\n      dup3\n        /* \"contracts/token.sol\":3121:3145  _recipient != address(0) */\n      0xffffffffffffffffffffffffffffffffffffffff\n      and\n      sub\n        /* \"contracts/token.sol\":3113:3172  require(_recipient != address(0), \"Shadow: zero recipient\") */\n      tag_252\n      jumpi\n      mload(0x40)\n      0x08c379a000000000000000000000000000000000000000000000000000000000\n      dup2\n      mstore\n      0x04\n      add\n      tag_253\n      swap1\n      tag_254\n      jump\t// in\n    tag_253:\n      mload(0x40)\n      dup1\n      swap2\n      sub\n      swap1\n      revert\n    tag_252:\n        /* \"contracts/token.sol\":3191:3195  usdc */\n      immutable(\"0x94b72f6d5810c90c68ea7d7f52a48aba033cd0249ea1144a4588f2256d6f57ff\")\n        /* \"contracts/token.sol\":3191:3204  usdc.transfer */\n      0xffffffffffffffffffffffffffffffffffffffff\n      and\n      0xa9059cbb\n        /* \"contracts/token.sol\":3205:3215  _recipient */\n      dup4\n        /* \"contracts/token.sol\":3217:3224  _amount */\n      dup4\n        /* \"contracts/token.sol\":3191:3225  usdc.transfer(_recipient, _amount) */\n      mload(0x40)\n      dup4\n      0xffffffff\n      and\n      0xe0\n      shl\n      dup2\n      mstore\n      0x04\n      add\n      tag_255\n      swap3\n      swap2\n      swap1\n      tag_256\n      jump\t// in\n    tag_255:\n      0x20\n      mload(0x40)\n      dup1\n      dup4\n      sub\n      dup2\n      0x00\n      dup8\n      gas\n      call\n      iszero\n      dup1\n      iszero\n      tag_258\n      jumpi\n      returndatacopy(0x00, 0x00, returndatasize)\n      revert(0x00, returndatasize)\n    tag_258:\n      pop\n      pop\n      pop\n      pop\n      mload(0x40)\n      returndatasize\n      not(0x1f)\n      0x1f\n      dup3\n      add\n      and\n      dup3\n      add\n      dup1\n      0x40\n      mstore\n      pop\n      dup2\n      add\n      swap1\n      tag_259\n      swap2\n      swap1\n      tag_103\n      jump\t// in\n    tag_259:\n        /* \"contracts/token.sol\":3183:3243  require(usdc.transfer(_recipient, _amount), \"Payout failed\") */\n      tag_260\n      jumpi\n      mload(0x40)\n      0x08c379a000000000000000000000000000000000000000000000000000000000\n      dup2\n      mstore\n      0x04\n      add\n      tag_261\n      swap1\n      tag_262\n      jump\t// in\n    tag_261:\n      mload(0x40)\n      dup1\n      swap2\n      sub\n      swap1\n      revert\n    tag_260:\n        /* \"contracts/token.sol\":3274:3284  _recipient */\n      dup2\n        /* \"contracts/token.sol\":3259:3294  ShieldedPayout(_recipient, _amount) */\n      0xffffffffffffffffffffffffffffffffffffffff\n      and\n      0x0f406fe54e7c193e129427f5d405f4b20ed911c3a00285118711b015cd0d1414\n        /* \"contracts/token.sol\":3286:3293  _amount */\n      dup3\n        /* \"contracts/token.sol\":3259:3294  ShieldedPayout(_recipient, _amount) */\n      mload(0x40)\n      tag_263\n      swap2\n      swap1\n      tag_264\n      jump\t// in\n    tag_263:\n      mload(0x40)\n      dup1\n      swap2\n      sub\n      swap1\n      log2\n        /* \"contracts/token.sol\":3032:3302  function _executePayout(address _recipient, uint256 _amount) internal {... */\n      pop\n      pop\n      jump\t// out\n        /* \"#utility.yul\":7:82   */\n    tag_265:\n        /* \"#utility.yul\":40:46   */\n      0x00\n        /* \"#utility.yul\":73:75   */\n      0x40\n        /* \"#utility.yul\":67:76   */\n      mload\n        /* \"#utility.yul\":57:76   */\n      swap1\n      pop\n        /* \"#utility.yul\":7:82   */\n      swap1\n      jump\t// out\n        /* \"#utility.yul\":88:205   */\n    tag_266:\n        /* \"#utility.yul\":197:198   */\n      0x00\n        /* \"#utility.yul\":194:195   */\n      0x00\n        /* \"#utility.yul\":187:199   */\n      revert\n        /* \"#utility.yul\":211:328   */\n    tag_267:\n        /* \"#utility.yul\":320:321   */\n      0x00\n        /* \"#utility.yul\":317:318   */\n      0x00\n        /* \"#utility.yul\":310:322   */\n      revert\n        /* \"#utility.yul\":334:483   */\n    tag_268:\n        /* \"#utility.yul\":370:377   */\n      0x00\n        /* \"#utility.yul\":410:476   */\n      0xffffffff00000000000000000000000000000000000000000000000000000000\n        /* \"#utility.yul\":403:408   */\n      dup3\n        /* \"#utility.yul\":399:477   */\n      and\n        /* \"#utility.yul\":388:477   */\n      swap1\n      pop\n        /* \"#utility.yul\":334:483   */\n      swap2\n      swap1\n      pop\n      jump\t// out\n        /* \"#utility.yul\":489:609   */\n    tag_269:\n        /* \"#utility.yul\":561:584   */\n      tag_353\n        /* \"#utility.yul\":578:583   */\n      dup2\n        /* \"#utility.yul\":561:584   */\n      tag_268\n      jump\t// in\n    tag_353:\n        /* \"#utility.yul\":554:559   */\n      dup2\n        /* \"#utility.yul\":551:585   */\n      eq\n        /* \"#utility.yul\":541:603   */\n      tag_354\n      jumpi\n        /* \"#utility.yul\":599:600   */\n      0x00\n        /* \"#utility.yul\":596:597   */\n      0x00\n        /* \"#utility.yul\":589:601   */\n      revert\n        /* \"#utility.yul\":541:603   */\n    tag_354:\n        /* \"#utility.yul\":489:609   */\n      pop\n      jump\t// out\n        /* \"#utility.yul\":615:752   */\n    tag_270:\n        /* \"#utility.yul\":660:665   */\n      0x00\n        /* \"#utility.yul\":698:704   */\n      dup2\n        /* \"#utility.yul\":685:705   */\n      calldataload\n        /* \"#utility.yul\":676:705   */\n      swap1\n      pop\n        /* \"#utility.yul\":714:746   */\n      tag_356\n        /* \"#utility.yul\":740:745   */\n      dup2\n        /* \"#utility.yul\":714:746   */\n      tag_269\n      jump\t// in\n    tag_356:\n        /* \"#utility.yul\":615:752   */\n      swap3\n      swap2\n      pop\n      pop\n      jump\t// out\n        /* \"#utility.yul\":758:1085   */\n    tag_26:\n        /* \"#utility.yul\":816:822   */\n      0x00\n        /* \"#utility.yul\":865:867   */\n      0x20\n        /* \"#utility.yul\":853:862   */\n      dup3\n        /* \"#utility.yul\":844:851   */\n      dup5\n        /* \"#utility.yul\":840:863   */\n      sub\n        /* \"#utility.yul\":836:868   */\n      slt\n        /* \"#utility.yul\":833:952   */\n      iszero\n      tag_358\n      jumpi\n        /* \"#utility.yul\":871:950   */\n      tag_359\n      tag_266\n      jump\t// in\n    tag_359:\n        /* \"#utility.yul\":833:952   */\n    tag_358:\n        /* \"#utility.yul\":991:992   */\n      0x00\n        /* \"#utility.yul\":1016:1068   */\n      tag_360\n        /* \"#utility.yul\":1060:1067   */\n      dup5\n        /* \"#utility.yul\":1051:1057   */\n      dup3\n        /* \"#utility.yul\":1040:1049   */\n      dup6\n        /* \"#utility.yul\":1036:1058   */\n      add\n        /* \"#utility.yul\":1016:1068   */\n      tag_270\n      jump\t// in\n    tag_360:\n        /* \"#utility.yul\":1006:1068   */\n      swap2\n      pop\n        /* \"#utility.yul\":962:1078   */\n      pop\n        /* \"#utility.yul\":758:1085   */\n      swap3\n      swap2\n      pop\n      pop\n      jump\t// out\n        /* \"#utility.yul\":1091:1181   */\n    tag_271:\n        /* \"#utility.yul\":1125:1132   */\n      0x00\n        /* \"#utility.yul\":1168:1173   */\n      dup2\n        /* \"#utility.yul\":1161:1174   */\n      iszero\n        /* \"#utility.yul\":1154:1175   */\n      iszero\n        /* \"#utility.yul\":1143:1175   */\n      swap1\n      pop\n        /* \"#utility.yul\":1091:1181   */\n      swap2\n      swap1\n      pop\n      jump\t// out\n        /* \"#utility.yul\":1187:1296   */\n    tag_272:\n        /* \"#utility.yul\":1268:1289   */\n      tag_363\n        /* \"#utility.yul\":1283:1288   */\n      dup2\n        /* \"#utility.yul\":1268:1289   */\n      tag_271\n      jump\t// in\n    tag_363:\n        /* \"#utility.yul\":1263:1266   */\n      dup3\n        /* \"#utility.yul\":1256:1290   */\n      mstore\n        /* \"#utility.yul\":1187:1296   */\n      pop\n      pop\n      jump\t// out\n        /* \"#utility.yul\":1302:1512   */\n    tag_29:\n        /* \"#utility.yul\":1389:1393   */\n      0x00\n        /* \"#utility.yul\":1427:1429   */\n      0x20\n        /* \"#utility.yul\":1416:1425   */\n      dup3\n        /* \"#utility.yul\":1412:1430   */\n      add\n        /* \"#utility.yul\":1404:1430   */\n      swap1\n      pop\n        /* \"#utility.yul\":1440:1505   */\n      tag_365\n        /* \"#utility.yul\":1502:1503   */\n      0x00\n        /* \"#utility.yul\":1491:1500   */\n      dup4\n        /* \"#utility.yul\":1487:1504   */\n      add\n        /* \"#utility.yul\":1478:1484   */\n      dup5\n        /* \"#utility.yul\":1440:1505   */\n      tag_272\n      jump\t// in\n    tag_365:\n        /* \"#utility.yul\":1302:1512   */\n      swap3\n      swap2\n      pop\n      pop\n      jump\t// out\n        /* \"#utility.yul\":1518:1595   */\n    tag_273:\n        /* \"#utility.yul\":1555:1562   */\n      0x00\n        /* \"#utility.yul\":1584:1589   */\n      dup2\n        /* \"#utility.yul\":1573:1589   */\n      swap1\n      pop\n        /* \"#utility.yul\":1518:1595   */\n      swap2\n      swap1\n      pop\n      jump\t// out\n        /* \"#utility.yul\":1601:1723   */\n    tag_274:\n        /* \"#utility.yul\":1674:1698   */\n      tag_368\n        /* \"#utility.yul\":1692:1697   */\n      dup2\n        /* \"#utility.yul\":1674:1698   */\n      tag_273\n      jump\t// in\n    tag_368:\n        /* \"#utility.yul\":1667:1672   */\n      dup2\n        /* \"#utility.yul\":1664:1699   */\n      eq\n        /* \"#utility.yul\":1654:1717   */\n      tag_369\n      jumpi\n        /* \"#utility.yul\":1713:1714   */\n      0x00\n        /* \"#utility.yul\":1710:1711   */\n      0x00\n        /* \"#utility.yul\":1703:1715   */\n      revert\n        /* \"#utility.yul\":1654:1717   */\n    tag_369:\n        /* \"#utility.yul\":1601:1723   */\n      pop\n      jump\t// out\n        /* \"#utility.yul\":1729:1868   */\n    tag_275:\n        /* \"#utility.yul\":1775:1780   */\n      0x00\n        /* \"#utility.yul\":1813:1819   */\n      dup2\n        /* \"#utility.yul\":1800:1820   */\n      calldataload\n        /* \"#utility.yul\":1791:1820   */\n      swap1\n      pop\n        /* \"#utility.yul\":1829:1862   */\n      tag_371\n        /* \"#utility.yul\":1856:1861   */\n      dup2\n        /* \"#utility.yul\":1829:1862   */\n      tag_274\n      jump\t// in\n    tag_371:\n        /* \"#utility.yul\":1729:1868   */\n      swap3\n      swap2\n      pop\n      pop\n      jump\t// out\n        /* \"#utility.yul\":1874:1951   */\n    tag_276:\n        /* \"#utility.yul\":1911:1918   */\n      0x00\n        /* \"#utility.yul\":1940:1945   */\n      dup2\n        /* \"#utility.yul\":1929:1945   */\n      swap1\n      pop\n        /* \"#utility.yul\":1874:1951   */\n      swap2\n      swap1\n      pop\n      jump\t// out\n        /* \"#utility.yul\":1957:2079   */\n    tag_277:\n        /* \"#utility.yul\":2030:2054   */\n      tag_374\n        /* \"#utility.yul\":2048:2053   */\n      dup2\n        /* \"#utility.yul\":2030:2054   */\n      tag_276\n      jump\t// in\n    tag_374:\n        /* \"#utility.yul\":2023:2028   */\n      dup2\n        /* \"#utility.yul\":2020:2055   */\n      eq\n        /* \"#utility.yul\":2010:2073   */\n      tag_375\n      jumpi\n        /* \"#utility.yul\":2069:2070   */\n      0x00\n        /* \"#utility.yul\":2066:2067   */\n      0x00\n        /* \"#utility.yul\":2059:2071   */\n      revert\n        /* \"#utility.yul\":2010:2073   */\n    tag_375:\n        /* \"#utility.yul\":1957:2079   */\n      pop\n      jump\t// out\n        /* \"#utility.yul\":2085:2224   */\n    tag_278:\n        /* \"#utility.yul\":2131:2136   */\n      0x00\n        /* \"#utility.yul\":2169:2175   */\n      dup2\n        /* \"#utility.yul\":2156:2176   */\n      calldataload\n        /* \"#utility.yul\":2147:2176   */\n      swap1\n      pop\n        /* \"#utility.yul\":2185:2218   */\n      tag_377\n        /* \"#utility.yul\":2212:2217   */\n      dup2\n        /* \"#utility.yul\":2185:2218   */\n      tag_277\n      jump\t// in\n    tag_377:\n        /* \"#utility.yul\":2085:2224   */\n      swap3\n      swap2\n      pop\n      pop\n      jump\t// out\n        /* \"#utility.yul\":2230:2704   */\n    tag_32:\n        /* \"#utility.yul\":2298:2304   */\n      0x00\n        /* \"#utility.yul\":2306:2312   */\n      0x00\n        /* \"#utility.yul\":2355:2357   */\n      0x40\n        /* \"#utility.yul\":2343:2352   */\n      dup4\n        /* \"#utility.yul\":2334:2341   */\n      dup6\n        /* \"#utility.yul\":2330:2353   */\n      sub\n        /* \"#utility.yul\":2326:2358   */\n      slt\n        /* \"#utility.yul\":2323:2442   */\n      iszero\n      tag_379\n      jumpi\n        /* \"#utility.yul\":2361:2440   */\n      tag_380\n      tag_266\n      jump\t// in\n    tag_380:\n        /* \"#utility.yul\":2323:2442   */\n    tag_379:\n        /* \"#utility.yul\":2481:2482   */\n      0x00\n        /* \"#utility.yul\":2506:2559   */\n      tag_381\n        /* \"#utility.yul\":2551:2558   */\n      dup6\n        /* \"#utility.yul\":2542:2548   */\n      dup3\n        /* \"#utility.yul\":2531:2540   */\n      dup7\n        /* \"#utility.yul\":2527:2549   */\n      add\n        /* \"#utility.yul\":2506:2559   */\n      tag_275\n      jump\t// in\n    tag_381:\n        /* \"#utility.yul\":2496:2559   */\n      swap3\n      pop\n        /* \"#utility.yul\":2452:2569   */\n      pop\n        /* \"#utility.yul\":2608:2610   */\n      0x20\n        /* \"#utility.yul\":2634:2687   */\n      tag_382\n        /* \"#utility.yul\":2679:2686   */\n      dup6\n        /* \"#utility.yul\":2670:2676   */\n      dup3\n        /* \"#utility.yul\":2659:2668   */\n      dup7\n        /* \"#utility.yul\":2655:2677   */\n      add\n        /* \"#utility.yul\":2634:2687   */\n      tag_278\n      jump\t// in\n    tag_382:\n        /* \"#utility.yul\":2624:2687   */\n      swap2\n      pop\n        /* \"#utility.yul\":2579:2697   */\n      pop\n        /* \"#utility.yul\":2230:2704   */\n      swap3\n      pop\n      swap3\n      swap1\n      pop\n      jump\t// out\n        /* \"#utility.yul\":2710:2836   */\n    tag_279:\n        /* \"#utility.yul\":2747:2754   */\n      0x00\n        /* \"#utility.yul\":2787:2829   */\n      0xffffffffffffffffffffffffffffffffffffffff\n        /* \"#utility.yul\":2780:2785   */\n      dup3\n        /* \"#utility.yul\":2776:2830   */\n      and\n        /* \"#utility.yul\":2765:2830   */\n      swap1\n      pop\n        /* \"#utility.yul\":2710:2836   */\n      swap2\n      swap1\n      pop\n      jump\t// out\n        /* \"#utility.yul\":2842:2938   */\n    tag_280:\n        /* \"#utility.yul\":2879:2886   */\n      0x00\n        /* \"#utility.yul\":2908:2932   */\n      tag_385\n        /* \"#utility.yul\":2926:2931   */\n      dup3\n        /* \"#utility.yul\":2908:2932   */\n      tag_279\n      jump\t// in\n    tag_385:\n        /* \"#utility.yul\":2897:2932   */\n      swap1\n      pop\n        /* \"#utility.yul\":2842:2938   */\n      swap2\n      swap1\n      pop\n      jump\t// out\n        /* \"#utility.yul\":2944:3062   */\n    tag_281:\n        /* \"#utility.yul\":3031:3055   */\n      tag_387\n        /* \"#utility.yul\":3049:3054   */\n      dup2\n        /* \"#utility.yul\":3031:3055   */\n      tag_280\n      jump\t// in\n    tag_387:\n        /* \"#utility.yul\":3026:3029   */\n      dup3\n        /* \"#utility.yul\":3019:3056   */\n      mstore\n        /* \"#utility.yul\":2944:3062   */\n      pop\n      pop\n      jump\t// out\n        /* \"#utility.yul\":3068:3290   */\n    tag_37:\n        /* \"#utility.yul\":3161:3165   */\n      0x00\n        /* \"#utility.yul\":3199:3201   */\n      0x20\n        /* \"#utility.yul\":3188:3197   */\n      dup3\n        /* \"#utility.yul\":3184:3202   */\n      add\n        /* \"#utility.yul\":3176:3202   */\n      swap1\n      pop\n        /* \"#utility.yul\":3212:3283   */\n      tag_389\n        /* \"#utility.yul\":3280:3281   */\n      0x00\n        /* \"#utility.yul\":3269:3278   */\n      dup4\n        /* \"#utility.yul\":3265:3282   */\n      add\n        /* \"#utility.yul\":3256:3262   */\n      dup5\n        /* \"#utility.yul\":3212:3283   */\n      tag_281\n      jump\t// in\n    tag_389:\n        /* \"#utility.yul\":3068:3290   */\n      swap3\n      swap2\n      pop\n      pop\n      jump\t// out\n        /* \"#utility.yul\":3296:3356   */\n    tag_282:\n        /* \"#utility.yul\":3324:3327   */\n      0x00\n        /* \"#utility.yul\":3345:3350   */\n      dup2\n        /* \"#utility.yul\":3338:3350   */\n      swap1\n      pop\n        /* \"#utility.yul\":3296:3356   */\n      swap2\n      swap1\n      pop\n      jump\t// out\n        /* \"#utility.yul\":3362:3504   */\n    tag_283:\n        /* \"#utility.yul\":3412:3421   */\n      0x00\n        /* \"#utility.yul\":3445:3498   */\n      tag_392\n        /* \"#utility.yul\":3463:3497   */\n      tag_393\n        /* \"#utility.yul\":3472:3496   */\n      tag_394\n        /* \"#utility.yul\":3490:3495   */\n      dup5\n        /* \"#utility.yul\":3472:3496   */\n      tag_279\n      jump\t// in\n    tag_394:\n        /* \"#utility.yul\":3463:3497   */\n      tag_282\n      jump\t// in\n    tag_393:\n        /* \"#utility.yul\":3445:3498   */\n      tag_279\n      jump\t// in\n    tag_392:\n        /* \"#utility.yul\":3432:3498   */\n      swap1\n      pop\n        /* \"#utility.yul\":3362:3504   */\n      swap2\n      swap1\n      pop\n      jump\t// out\n        /* \"#utility.yul\":3510:3636   */\n    tag_284:\n        /* \"#utility.yul\":3560:3569   */\n      0x00\n        /* \"#utility.yul\":3593:3630   */\n      tag_396\n        /* \"#utility.yul\":3624:3629   */\n      dup3\n        /* \"#utility.yul\":3593:3630   */\n      tag_283\n      jump\t// in\n    tag_396:\n        /* \"#utility.yul\":3580:3630   */\n      swap1\n      pop\n        /* \"#utility.yul\":3510:3636   */\n      swap2\n      swap1\n      pop\n      jump\t// out\n        /* \"#utility.yul\":3642:3782   */\n    tag_285:\n        /* \"#utility.yul\":3706:3715   */\n      0x00\n        /* \"#utility.yul\":3739:3776   */\n      tag_398\n        /* \"#utility.yul\":3770:3775   */\n      dup3\n        /* \"#utility.yul\":3739:3776   */\n      tag_284\n      jump\t// in\n    tag_398:\n        /* \"#utility.yul\":3726:3776   */\n      swap1\n      pop\n        /* \"#utility.yul\":3642:3782   */\n      swap2\n      swap1\n      pop\n      jump\t// out\n        /* \"#utility.yul\":3788:3947   */\n    tag_286:\n        /* \"#utility.yul\":3889:3940   */\n      tag_400\n        /* \"#utility.yul\":3934:3939   */\n      dup2\n        /* \"#utility.yul\":3889:3940   */\n      tag_285\n      jump\t// in\n    tag_400:\n        /* \"#utility.yul\":3884:3887   */\n      dup3\n        /* \"#utility.yul\":3877:3941   */\n      mstore\n        /* \"#utility.yul\":3788:3947   */\n      pop\n      pop\n      jump\t// out\n        /* \"#utility.yul\":3953:4203   */\n    tag_44:\n        /* \"#utility.yul\":4060:4064   */\n      0x00\n        /* \"#utility.yul\":4098:4100   */\n      0x20\n        /* \"#utility.yul\":4087:4096   */\n      dup3\n        /* \"#utility.yul\":4083:4101   */\n      add\n        /* \"#utility.yul\":4075:4101   */\n      swap1\n      pop\n        /* \"#utility.yul\":4111:4196   */\n      tag_402\n        /* \"#utility.yul\":4193:4194   */\n      0x00\n        /* \"#utility.yul\":4182:4191   */\n      dup4\n        /* \"#utility.yul\":4178:4195   */\n      add\n        /* \"#utility.yul\":4169:4175   */\n      dup5\n        /* \"#utility.yul\":4111:4196   */\n      tag_286\n      jump\t// in\n    tag_402:\n        /* \"#utility.yul\":3953:4203   */\n      swap3\n      swap2\n      pop\n      pop\n      jump\t// out\n        /* \"#utility.yul\":4209:4326   */\n    tag_287:\n        /* \"#utility.yul\":4318:4319   */\n      0x00\n        /* \"#utility.yul\":4315:4316   */\n      0x00\n        /* \"#utility.yul\":4308:4320   */\n      revert\n        /* \"#utility.yul\":4332:4449   */\n    tag_288:\n        /* \"#utility.yul\":4441:4442   */\n      0x00\n        /* \"#utility.yul\":4438:4439   */\n      0x00\n        /* \"#utility.yul\":4431:4443   */\n      revert\n        /* \"#utility.yul\":4455:4572   */\n    tag_289:\n        /* \"#utility.yul\":4564:4565   */\n      0x00\n        /* \"#utility.yul\":4561:4562   */\n      0x00\n        /* \"#utility.yul\":4554:4566   */\n      revert\n        /* \"#utility.yul\":4591:5143   */\n    tag_290:\n        /* \"#utility.yul\":4648:4656   */\n      0x00\n        /* \"#utility.yul\":4658:4664   */\n      0x00\n        /* \"#utility.yul\":4708:4711   */\n      dup4\n        /* \"#utility.yul\":4701:4705   */\n      0x1f\n        /* \"#utility.yul\":4693:4699   */\n      dup5\n        /* \"#utility.yul\":4689:4706   */\n      add\n        /* \"#utility.yul\":4685:4712   */\n      slt\n        /* \"#utility.yul\":4675:4797   */\n      tag_407\n      jumpi\n        /* \"#utility.yul\":4716:4795   */\n      tag_408\n      tag_287\n      jump\t// in\n    tag_408:\n        /* \"#utility.yul\":4675:4797   */\n    tag_407:\n        /* \"#utility.yul\":4829:4835   */\n      dup3\n        /* \"#utility.yul\":4816:4836   */\n      calldataload\n        /* \"#utility.yul\":4806:4836   */\n      swap1\n      pop\n        /* \"#utility.yul\":4859:4877   */\n      0xffffffffffffffff\n        /* \"#utility.yul\":4851:4857   */\n      dup2\n        /* \"#utility.yul\":4848:4878   */\n      gt\n        /* \"#utility.yul\":4845:4962   */\n      iszero\n      tag_409\n      jumpi\n        /* \"#utility.yul\":4881:4960   */\n      tag_410\n      tag_288\n      jump\t// in\n    tag_410:\n        /* \"#utility.yul\":4845:4962   */\n    tag_409:\n        /* \"#utility.yul\":4995:4999   */\n      0x20\n        /* \"#utility.yul\":4987:4993   */\n      dup4\n        /* \"#utility.yul\":4983:5000   */\n      add\n        /* \"#utility.yul\":4971:5000   */\n      swap2\n      pop\n        /* \"#utility.yul\":5049:5052   */\n      dup4\n        /* \"#utility.yul\":5041:5045   */\n      0x01\n        /* \"#utility.yul\":5033:5039   */\n      dup3\n        /* \"#utility.yul\":5029:5046   */\n      mul\n        /* \"#utility.yul\":5019:5027   */\n      dup4\n        /* \"#utility.yul\":5015:5047   */\n      add\n        /* \"#utility.yul\":5012:5053   */\n      gt\n        /* \"#utility.yul\":5009:5137   */\n      iszero\n      tag_411\n      jumpi\n        /* \"#utility.yul\":5056:5135   */\n      tag_412\n      tag_289\n      jump\t// in\n    tag_412:\n        /* \"#utility.yul\":5009:5137   */\n    tag_411:\n        /* \"#utility.yul\":4591:5143   */\n      swap3\n      pop\n      swap3\n      swap1\n      pop\n      jump\t// out\n        /* \"#utility.yul\":5149:5821   */\n    tag_47:\n        /* \"#utility.yul\":5228:5234   */\n      0x00\n        /* \"#utility.yul\":5236:5242   */\n      0x00\n        /* \"#utility.yul\":5244:5250   */\n      0x00\n        /* \"#utility.yul\":5293:5295   */\n      0x40\n        /* \"#utility.yul\":5281:5290   */\n      dup5\n        /* \"#utility.yul\":5272:5279   */\n      dup7\n        /* \"#utility.yul\":5268:5291   */\n      sub\n        /* \"#utility.yul\":5264:5296   */\n      slt\n        /* \"#utility.yul\":5261:5380   */\n      iszero\n      tag_414\n      jumpi\n        /* \"#utility.yul\":5299:5378   */\n      tag_415\n      tag_266\n      jump\t// in\n    tag_415:\n        /* \"#utility.yul\":5261:5380   */\n    tag_414:\n        /* \"#utility.yul\":5447:5448   */\n      0x00\n        /* \"#utility.yul\":5436:5445   */\n      dup5\n        /* \"#utility.yul\":5432:5449   */\n      add\n        /* \"#utility.yul\":5419:5450   */\n      calldataload\n        /* \"#utility.yul\":5477:5495   */\n      0xffffffffffffffff\n        /* \"#utility.yul\":5469:5475   */\n      dup2\n        /* \"#utility.yul\":5466:5496   */\n      gt\n        /* \"#utility.yul\":5463:5580   */\n      iszero\n      tag_416\n      jumpi\n        /* \"#utility.yul\":5499:5578   */\n      tag_417\n      tag_267\n      jump\t// in\n    tag_417:\n        /* \"#utility.yul\":5463:5580   */\n    tag_416:\n        /* \"#utility.yul\":5612:5676   */\n      tag_418\n        /* \"#utility.yul\":5668:5675   */\n      dup7\n        /* \"#utility.yul\":5659:5665   */\n      dup3\n        /* \"#utility.yul\":5648:5657   */\n      dup8\n        /* \"#utility.yul\":5644:5666   */\n      add\n        /* \"#utility.yul\":5612:5676   */\n      tag_290\n      jump\t// in\n    tag_418:\n        /* \"#utility.yul\":5594:5676   */\n      swap4\n      pop\n      swap4\n      pop\n        /* \"#utility.yul\":5390:5686   */\n      pop\n        /* \"#utility.yul\":5725:5727   */\n      0x20\n        /* \"#utility.yul\":5751:5804   */\n      tag_419\n        /* \"#utility.yul\":5796:5803   */\n      dup7\n        /* \"#utility.yul\":5787:5793   */\n      dup3\n        /* \"#utility.yul\":5776:5785   */\n      dup8\n        /* \"#utility.yul\":5772:5794   */\n      add\n        /* \"#utility.yul\":5751:5804   */\n      tag_275\n      jump\t// in\n    tag_419:\n        /* \"#utility.yul\":5741:5804   */\n      swap2\n      pop\n        /* \"#utility.yul\":5696:5814   */\n      pop\n        /* \"#utility.yul\":5149:5821   */\n      swap3\n      pop\n      swap3\n      pop\n      swap3\n      jump\t// out\n        /* \"#utility.yul\":5827:6697   */\n    tag_53:\n        /* \"#utility.yul\":5917:5923   */\n      0x00\n        /* \"#utility.yul\":5925:5931   */\n      0x00\n        /* \"#utility.yul\":5933:5939   */\n      0x00\n        /* \"#utility.yul\":5941:5947   */\n      0x00\n        /* \"#utility.yul\":5990:5992   */\n      0x40\n        /* \"#utility.yul\":5978:5987   */\n      dup6\n        /* \"#utility.yul\":5969:5976   */\n      dup8\n        /* \"#utility.yul\":5965:5988   */\n      sub\n        /* \"#utility.yul\":5961:5993   */\n      slt\n        /* \"#utility.yul\":5958:6077   */\n      iszero\n      tag_421\n      jumpi\n        /* \"#utility.yul\":5996:6075   */\n      tag_422\n      tag_266\n      jump\t// in\n    tag_422:\n        /* \"#utility.yul\":5958:6077   */\n    tag_421:\n        /* \"#utility.yul\":6144:6145   */\n      0x00\n        /* \"#utility.yul\":6133:6142   */\n      dup6\n        /* \"#utility.yul\":6129:6146   */\n      add\n        /* \"#utility.yul\":6116:6147   */\n      calldataload\n        /* \"#utility.yul\":6174:6192   */\n      0xffffffffffffffff\n        /* \"#utility.yul\":6166:6172   */\n      dup2\n        /* \"#utility.yul\":6163:6193   */\n      gt\n        /* \"#utility.yul\":6160:6277   */\n      iszero\n      tag_423\n      jumpi\n        /* \"#utility.yul\":6196:6275   */\n      tag_424\n      tag_267\n      jump\t// in\n    tag_424:\n        /* \"#utility.yul\":6160:6277   */\n    tag_423:\n        /* \"#utility.yul\":6309:6373   */\n      tag_425\n        /* \"#utility.yul\":6365:6372   */\n      dup8\n        /* \"#utility.yul\":6356:6362   */\n      dup3\n        /* \"#utility.yul\":6345:6354   */\n      dup9\n        /* \"#utility.yul\":6341:6363   */\n      add\n        /* \"#utility.yul\":6309:6373   */\n      tag_290\n      jump\t// in\n    tag_425:\n        /* \"#utility.yul\":6291:6373   */\n      swap5\n      pop\n      swap5\n      pop\n        /* \"#utility.yul\":6087:6383   */\n      pop\n        /* \"#utility.yul\":6450:6452   */\n      0x20\n        /* \"#utility.yul\":6439:6448   */\n      dup6\n        /* \"#utility.yul\":6435:6453   */\n      add\n        /* \"#utility.yul\":6422:6454   */\n      calldataload\n        /* \"#utility.yul\":6481:6499   */\n      0xffffffffffffffff\n        /* \"#utility.yul\":6473:6479   */\n      dup2\n        /* \"#utility.yul\":6470:6500   */\n      gt\n        /* \"#utility.yul\":6467:6584   */\n      iszero\n      tag_426\n      jumpi\n        /* \"#utility.yul\":6503:6582   */\n      tag_427\n      tag_267\n      jump\t// in\n    tag_427:\n        /* \"#utility.yul\":6467:6584   */\n    tag_426:\n        /* \"#utility.yul\":6616:6680   */\n      tag_428\n        /* \"#utility.yul\":6672:6679   */\n      dup8\n        /* \"#utility.yul\":6663:6669   */\n      dup3\n        /* \"#utility.yul\":6652:6661   */\n      dup9\n        /* \"#utility.yul\":6648:6670   */\n      add\n        /* \"#utility.yul\":6616:6680   */\n      tag_290\n      jump\t// in\n    tag_428:\n        /* \"#utility.yul\":6598:6680   */\n      swap3\n      pop\n      swap3\n      pop\n        /* \"#utility.yul\":6393:6690   */\n      pop\n        /* \"#utility.yul\":5827:6697   */\n      swap3\n      swap6\n      swap2\n      swap5\n      pop\n      swap3\n      pop\n      jump\t// out\n        /* \"#utility.yul\":6703:6820   */\n    tag_291:\n        /* \"#utility.yul\":6812:6813   */\n      0x00\n        /* \"#utility.yul\":6809:6810   */\n      0x00\n        /* \"#utility.yul\":6802:6814   */\n      revert\n        /* \"#utility.yul\":6862:7100   */\n    tag_292:\n        /* \"#utility.yul\":6941:6946   */\n      0x00\n        /* \"#utility.yul\":6982:6985   */\n      0xa0\n        /* \"#utility.yul\":6973:6979   */\n      dup3\n        /* \"#utility.yul\":6968:6971   */\n      dup5\n        /* \"#utility.yul\":6964:6980   */\n      sub\n        /* \"#utility.yul\":6960:6986   */\n      slt\n        /* \"#utility.yul\":6957:7070   */\n      iszero\n      tag_431\n      jumpi\n        /* \"#utility.yul\":6989:7068   */\n      tag_432\n      tag_291\n      jump\t// in\n    tag_432:\n        /* \"#utility.yul\":6957:7070   */\n    tag_431:\n        /* \"#utility.yul\":7088:7094   */\n      dup2\n        /* \"#utility.yul\":7079:7094   */\n      swap1\n      pop\n        /* \"#utility.yul\":6862:7100   */\n      swap3\n      swap2\n      pop\n      pop\n      jump\t// out\n        /* \"#utility.yul\":7106:7661   */\n    tag_57:\n        /* \"#utility.yul\":7198:7204   */\n      0x00\n        /* \"#utility.yul\":7247:7249   */\n      0x20\n        /* \"#utility.yul\":7235:7244   */\n      dup3\n        /* \"#utility.yul\":7226:7233   */\n      dup5\n        /* \"#utility.yul\":7222:7245   */\n      sub\n        /* \"#utility.yul\":7218:7250   */\n      slt\n        /* \"#utility.yul\":7215:7334   */\n      iszero\n      tag_434\n      jumpi\n        /* \"#utility.yul\":7253:7332   */\n      tag_435\n      tag_266\n      jump\t// in\n    tag_435:\n        /* \"#utility.yul\":7215:7334   */\n    tag_434:\n        /* \"#utility.yul\":7401:7402   */\n      0x00\n        /* \"#utility.yul\":7390:7399   */\n      dup3\n        /* \"#utility.yul\":7386:7403   */\n      add\n        /* \"#utility.yul\":7373:7404   */\n      calldataload\n        /* \"#utility.yul\":7431:7449   */\n      0xffffffffffffffff\n        /* \"#utility.yul\":7423:7429   */\n      dup2\n        /* \"#utility.yul\":7420:7450   */\n      gt\n        /* \"#utility.yul\":7417:7534   */\n      iszero\n      tag_436\n      jumpi\n        /* \"#utility.yul\":7453:7532   */\n      tag_437\n      tag_267\n      jump\t// in\n    tag_437:\n        /* \"#utility.yul\":7417:7534   */\n    tag_436:\n        /* \"#utility.yul\":7558:7644   */\n      tag_438\n        /* \"#utility.yul\":7636:7643   */\n      dup5\n        /* \"#utility.yul\":7627:7633   */\n      dup3\n        /* \"#utility.yul\":7616:7625   */\n      dup6\n        /* \"#utility.yul\":7612:7634   */\n      add\n        /* \"#utility.yul\":7558:7644   */\n      tag_292\n      jump\t// in\n    tag_438:\n        /* \"#utility.yul\":7548:7644   */\n      swap2\n      pop\n        /* \"#utility.yul\":7344:7654   */\n      pop\n        /* \"#utility.yul\":7106:7661   */\n      swap3\n      swap2\n      pop\n      pop\n      jump\t// out\n        /* \"#utility.yul\":7667:7817   */\n    tag_293:\n        /* \"#utility.yul\":7704:7711   */\n      0x00\n        /* \"#utility.yul\":7744:7810   */\n      0xffffffffffffffffffff00000000000000000000000000000000000000000000\n        /* \"#utility.yul\":7737:7742   */\n      dup3\n        /* \"#utility.yul\":7733:7811   */\n      and\n        /* \"#utility.yul\":7722:7811   */\n      swap1\n      pop\n        /* \"#utility.yul\":7667:7817   */\n      swap2\n      swap1\n      pop\n      jump\t// out\n        /* \"#utility.yul\":7823:7941   */\n    tag_294:\n        /* \"#utility.yul\":7910:7934   */\n      tag_441\n        /* \"#utility.yul\":7928:7933   */\n      dup2\n        /* \"#utility.yul\":7910:7934   */\n      tag_293\n      jump\t// in\n    tag_441:\n        /* \"#utility.yul\":7905:7908   */\n      dup3\n        /* \"#utility.yul\":7898:7935   */\n      mstore\n        /* \"#utility.yul\":7823:7941   */\n      pop\n      pop\n      jump\t// out\n        /* \"#utility.yul\":7947:8169   */\n    tag_65:\n        /* \"#utility.yul\":8040:8044   */\n      0x00\n        /* \"#utility.yul\":8078:8080   */\n      0x20\n        /* \"#utility.yul\":8067:8076   */\n      dup3\n        /* \"#utility.yul\":8063:8081   */\n      add\n        /* \"#utility.yul\":8055:8081   */\n      swap1\n      pop\n        /* \"#utility.yul\":8091:8162   */\n      tag_443\n        /* \"#utility.yul\":8159:8160   */\n      0x00\n        /* \"#utility.yul\":8148:8157   */\n      dup4\n        /* \"#utility.yul\":8144:8161   */\n      add\n        /* \"#utility.yul\":8135:8141   */\n      dup5\n        /* \"#utility.yul\":8091:8162   */\n      tag_294\n      jump\t// in\n    tag_443:\n        /* \"#utility.yul\":7947:8169   */\n      swap3\n      swap2\n      pop\n      pop\n      jump\t// out\n        /* \"#utility.yul\":8189:8742   */\n    tag_295:\n        /* \"#utility.yul\":8247:8255   */\n      0x00\n        /* \"#utility.yul\":8257:8263   */\n      0x00\n        /* \"#utility.yul\":8307:8310   */\n      dup4\n        /* \"#utility.yul\":8300:8304   */\n      0x1f\n        /* \"#utility.yul\":8292:8298   */\n      dup5\n        /* \"#utility.yul\":8288:8305   */\n      add\n        /* \"#utility.yul\":8284:8311   */\n      slt\n        /* \"#utility.yul\":8274:8396   */\n      tag_445\n      jumpi\n        /* \"#utility.yul\":8315:8394   */\n      tag_446\n      tag_287\n      jump\t// in\n    tag_446:\n        /* \"#utility.yul\":8274:8396   */\n    tag_445:\n        /* \"#utility.yul\":8428:8434   */\n      dup3\n        /* \"#utility.yul\":8415:8435   */\n      calldataload\n        /* \"#utility.yul\":8405:8435   */\n      swap1\n      pop\n        /* \"#utility.yul\":8458:8476   */\n      0xffffffffffffffff\n        /* \"#utility.yul\":8450:8456   */\n      dup2\n        /* \"#utility.yul\":8447:8477   */\n      gt\n        /* \"#utility.yul\":8444:8561   */\n      iszero\n      tag_447\n      jumpi\n        /* \"#utility.yul\":8480:8559   */\n      tag_448\n      tag_288\n      jump\t// in\n    tag_448:\n        /* \"#utility.yul\":8444:8561   */\n    tag_447:\n        /* \"#utility.yul\":8594:8598   */\n      0x20\n        /* \"#utility.yul\":8586:8592   */\n      dup4\n        /* \"#utility.yul\":8582:8599   */\n      add\n        /* \"#utility.yul\":8570:8599   */\n      swap2\n      pop\n        /* \"#utility.yul\":8648:8651   */\n      dup4\n        /* \"#utility.yul\":8640:8644   */\n      0x01\n        /* \"#utility.yul\":8632:8638   */\n      dup3\n        /* \"#utility.yul\":8628:8645   */\n      mul\n        /* \"#utility.yul\":8618:8626   */\n      dup4\n        /* \"#utility.yul\":8614:8646   */\n      add\n        /* \"#utility.yul\":8611:8652   */\n      gt\n        /* \"#utility.yul\":8608:8736   */\n      iszero\n      tag_449\n      jumpi\n        /* \"#utility.yul\":8655:8734   */\n      tag_450\n      tag_289\n      jump\t// in\n    tag_450:\n        /* \"#utility.yul\":8608:8736   */\n    tag_449:\n        /* \"#utility.yul\":8189:8742   */\n      swap3\n      pop\n      swap3\n      swap1\n      pop\n      jump\t// out\n        /* \"#utility.yul\":8748:9277   */\n    tag_71:\n        /* \"#utility.yul\":8819:8825   */\n      0x00\n        /* \"#utility.yul\":8827:8833   */\n      0x00\n        /* \"#utility.yul\":8876:8878   */\n      0x20\n        /* \"#utility.yul\":8864:8873   */\n      dup4\n        /* \"#utility.yul\":8855:8862   */\n      dup6\n        /* \"#utility.yul\":8851:8874   */\n      sub\n        /* \"#utility.yul\":8847:8879   */\n      slt\n        /* \"#utility.yul\":8844:8963   */\n      iszero\n      tag_452\n      jumpi\n        /* \"#utility.yul\":8882:8961   */\n      tag_453\n      tag_266\n      jump\t// in\n    tag_453:\n        /* \"#utility.yul\":8844:8963   */\n    tag_452:\n        /* \"#utility.yul\":9030:9031   */\n      0x00\n        /* \"#utility.yul\":9019:9028   */\n      dup4\n        /* \"#utility.yul\":9015:9032   */\n      add\n        /* \"#utility.yul\":9002:9033   */\n      calldataload\n        /* \"#utility.yul\":9060:9078   */\n      0xffffffffffffffff\n        /* \"#utility.yul\":9052:9058   */\n      dup2\n        /* \"#utility.yul\":9049:9079   */\n      gt\n        /* \"#utility.yul\":9046:9163   */\n      iszero\n      tag_454\n      jumpi\n        /* \"#utility.yul\":9082:9161   */\n      tag_455\n      tag_267\n      jump\t// in\n    tag_455:\n        /* \"#utility.yul\":9046:9163   */\n    tag_454:\n        /* \"#utility.yul\":9195:9260   */\n      tag_456\n        /* \"#utility.yul\":9252:9259   */\n      dup6\n        /* \"#utility.yul\":9243:9249   */\n      dup3\n        /* \"#utility.yul\":9232:9241   */\n      dup7\n        /* \"#utility.yul\":9228:9250   */\n      add\n        /* \"#utility.yul\":9195:9260   */\n      tag_295\n      jump\t// in\n    tag_456:\n        /* \"#utility.yul\":9177:9260   */\n      swap3\n      pop\n      swap3\n      pop\n        /* \"#utility.yul\":8973:9270   */\n      pop\n        /* \"#utility.yul\":8748:9277   */\n      swap3\n      pop\n      swap3\n      swap1\n      pop\n      jump\t// out\n        /* \"#utility.yul\":9283:9612   */\n    tag_75:\n        /* \"#utility.yul\":9342:9348   */\n      0x00\n        /* \"#utility.yul\":9391:9393   */\n      0x20\n        /* \"#utility.yul\":9379:9388   */\n      dup3\n        /* \"#utility.yul\":9370:9377   */\n      dup5\n        /* \"#utility.yul\":9366:9389   */\n      sub\n        /* \"#utility.yul\":9362:9394   */\n      slt\n        /* \"#utility.yul\":9359:9478   */\n      iszero\n      tag_458\n      jumpi\n        /* \"#utility.yul\":9397:9476   */\n      tag_459\n      tag_266\n      jump\t// in\n    tag_459:\n        /* \"#utility.yul\":9359:9478   */\n    tag_458:\n        /* \"#utility.yul\":9517:9518   */\n      0x00\n        /* \"#utility.yul\":9542:9595   */\n      tag_460\n        /* \"#utility.yul\":9587:9594   */\n      dup5\n        /* \"#utility.yul\":9578:9584   */\n      dup3\n        /* \"#utility.yul\":9567:9576   */\n      dup6\n        /* \"#utility.yul\":9563:9585   */\n      add\n        /* \"#utility.yul\":9542:9595   */\n      tag_275\n      jump\t// in\n    tag_460:\n        /* \"#utility.yul\":9532:9595   */\n      swap2\n      pop\n        /* \"#utility.yul\":9488:9605   */\n      pop\n        /* \"#utility.yul\":9283:9612   */\n      swap3\n      swap2\n      pop\n      pop\n      jump\t// out\n        /* \"#utility.yul\":9618:9740   */\n    tag_296:\n        /* \"#utility.yul\":9691:9715   */\n      tag_462\n        /* \"#utility.yul\":9709:9714   */\n      dup2\n        /* \"#utility.yul\":9691:9715   */\n      tag_280\n      jump\t// in\n    tag_462:\n        /* \"#utility.yul\":9684:9689   */\n      dup2\n        /* \"#utility.yul\":9681:9716   */\n      eq\n        /* \"#utility.yul\":9671:9734   */\n      tag_463\n      jumpi\n        /* \"#utility.yul\":9730:9731   */\n      0x00\n        /* \"#utility.yul\":9727:9728   */\n      0x00\n        /* \"#utility.yul\":9720:9732   */\n      revert\n        /* \"#utility.yul\":9671:9734   */\n    tag_463:\n        /* \"#utility.yul\":9618:9740   */\n      pop\n      jump\t// out\n        /* \"#utility.yul\":9746:9885   */\n    tag_297:\n        /* \"#utility.yul\":9792:9797   */\n      0x00\n        /* \"#utility.yul\":9830:9836   */\n      dup2\n        /* \"#utility.yul\":9817:9837   */\n      calldataload\n        /* \"#utility.yul\":9808:9837   */\n      swap1\n      pop\n        /* \"#utility.yul\":9846:9879   */\n      tag_465\n        /* \"#utility.yul\":9873:9878   */\n      dup2\n        /* \"#utility.yul\":9846:9879   */\n      tag_296\n      jump\t// in\n    tag_465:\n        /* \"#utility.yul\":9746:9885   */\n      swap3\n      swap2\n      pop\n      pop\n      jump\t// out\n        /* \"#utility.yul\":9891:10220   */\n    tag_79:\n        /* \"#utility.yul\":9950:9956   */\n      0x00\n        /* \"#utility.yul\":9999:10001   */\n      0x20\n        /* \"#utility.yul\":9987:9996   */\n      dup3\n        /* \"#utility.yul\":9978:9985   */\n      dup5\n        /* \"#utility.yul\":9974:9997   */\n      sub\n        /* \"#utility.yul\":9970:10002   */\n      slt\n        /* \"#utility.yul\":9967:10086   */\n      iszero\n      tag_467\n      jumpi\n        /* \"#utility.yul\":10005:10084   */\n      tag_468\n      tag_266\n      jump\t// in\n    tag_468:\n        /* \"#utility.yul\":9967:10086   */\n    tag_467:\n        /* \"#utility.yul\":10125:10126   */\n      0x00\n        /* \"#utility.yul\":10150:10203   */\n      tag_469\n        /* \"#utility.yul\":10195:10202   */\n      dup5\n        /* \"#utility.yul\":10186:10192   */\n      dup3\n        /* \"#utility.yul\":10175:10184   */\n      dup6\n        /* \"#utility.yul\":10171:10193   */\n      add\n        /* \"#utility.yul\":10150:10203   */\n      tag_297\n      jump\t// in\n    tag_469:\n        /* \"#utility.yul\":10140:10203   */\n      swap2\n      pop\n        /* \"#utility.yul\":10096:10213   */\n      pop\n        /* \"#utility.yul\":9891:10220   */\n      swap3\n      swap2\n      pop\n      pop\n      jump\t// out\n        /* \"#utility.yul\":10226:10344   */\n    tag_298:\n        /* \"#utility.yul\":10313:10337   */\n      tag_471\n        /* \"#utility.yul\":10331:10336   */\n      dup2\n        /* \"#utility.yul\":10313:10337   */\n      tag_273\n      jump\t// in\n    tag_471:\n        /* \"#utility.yul\":10308:10311   */\n      dup3\n        /* \"#utility.yul\":10301:10338   */\n      mstore\n        /* \"#utility.yul\":10226:10344   */\n      pop\n      pop\n      jump\t// out\n        /* \"#utility.yul\":10350:10572   */\n    tag_90:\n        /* \"#utility.yul\":10443:10447   */\n      0x00\n        /* \"#utility.yul\":10481:10483   */\n      0x20\n        /* \"#utility.yul\":10470:10479   */\n      dup3\n        /* \"#utility.yul\":10466:10484   */\n      add\n        /* \"#utility.yul\":10458:10484   */\n      swap1\n      pop\n        /* \"#utility.yul\":10494:10565   */\n      tag_473\n        /* \"#utility.yul\":10562:10563   */\n      0x00\n        /* \"#utility.yul\":10551:10560   */\n      dup4\n        /* \"#utility.yul\":10547:10564   */\n      add\n        /* \"#utility.yul\":10538:10544   */\n      dup5\n        /* \"#utility.yul\":10494:10565   */\n      tag_298\n      jump\t// in\n    tag_473:\n        /* \"#utility.yul\":10350:10572   */\n      swap3\n      swap2\n      pop\n      pop\n      jump\t// out\n        /* \"#utility.yul\":10578:10747   */\n    tag_299:\n        /* \"#utility.yul\":10662:10673   */\n      0x00\n        /* \"#utility.yul\":10696:10702   */\n      dup3\n        /* \"#utility.yul\":10691:10694   */\n      dup3\n        /* \"#utility.yul\":10684:10703   */\n      mstore\n        /* \"#utility.yul\":10736:10740   */\n      0x20\n        /* \"#utility.yul\":10731:10734   */\n      dup3\n        /* \"#utility.yul\":10727:10741   */\n      add\n        /* \"#utility.yul\":10712:10741   */\n      swap1\n      pop\n        /* \"#utility.yul\":10578:10747   */\n      swap3\n      swap2\n      pop\n      pop\n      jump\t// out\n        /* \"#utility.yul\":10753:10922   */\n    tag_300:\n        /* \"#utility.yul\":10893:10914   */\n      0x536861646f773a207a65726f20616d6f756e7400000000000000000000000000\n        /* \"#utility.yul\":10889:10890   */\n      0x00\n        /* \"#utility.yul\":10881:10887   */\n      dup3\n        /* \"#utility.yul\":10877:10891   */\n      add\n        /* \"#utility.yul\":10870:10915   */\n      mstore\n        /* \"#utility.yul\":10753:10922   */\n      pop\n      jump\t// out\n        /* \"#utility.yul\":10928:11294   */\n    tag_301:\n        /* \"#utility.yul\":11070:11073   */\n      0x00\n        /* \"#utility.yul\":11091:11158   */\n      tag_477\n        /* \"#utility.yul\":11155:11157   */\n      0x13\n        /* \"#utility.yul\":11150:11153   */\n      dup4\n        /* \"#utility.yul\":11091:11158   */\n      tag_299\n      jump\t// in\n    tag_477:\n        /* \"#utility.yul\":11084:11158   */\n      swap2\n      pop\n        /* \"#utility.yul\":11167:11260   */\n      tag_478\n        /* \"#utility.yul\":11256:11259   */\n      dup3\n        /* \"#utility.yul\":11167:11260   */\n      tag_300\n      jump\t// in\n    tag_478:\n        /* \"#utility.yul\":11285:11287   */\n      0x20\n        /* \"#utility.yul\":11280:11283   */\n      dup3\n        /* \"#utility.yul\":11276:11288   */\n      add\n        /* \"#utility.yul\":11269:11288   */\n      swap1\n      pop\n        /* \"#utility.yul\":10928:11294   */\n      swap2\n      swap1\n      pop\n      jump\t// out\n        /* \"#utility.yul\":11300:11719   */\n    tag_97:\n        /* \"#utility.yul\":11466:11470   */\n      0x00\n        /* \"#utility.yul\":11504:11506   */\n      0x20\n        /* \"#utility.yul\":11493:11502   */\n      dup3\n        /* \"#utility.yul\":11489:11507   */\n      add\n        /* \"#utility.yul\":11481:11507   */\n      swap1\n      pop\n        /* \"#utility.yul\":11553:11562   */\n      dup2\n        /* \"#utility.yul\":11547:11551   */\n      dup2\n        /* \"#utility.yul\":11543:11563   */\n      sub\n        /* \"#utility.yul\":11539:11540   */\n      0x00\n        /* \"#utility.yul\":11528:11537   */\n      dup4\n        /* \"#utility.yul\":11524:11541   */\n      add\n        /* \"#utility.yul\":11517:11564   */\n      mstore\n        /* \"#utility.yul\":11581:11712   */\n      tag_480\n        /* \"#utility.yul\":11707:11711   */\n      dup2\n        /* \"#utility.yul\":11581:11712   */\n      tag_301\n      jump\t// in\n    tag_480:\n        /* \"#utility.yul\":11573:11712   */\n      swap1\n      pop\n        /* \"#utility.yul\":11300:11719   */\n      swap2\n      swap1\n      pop\n      jump\t// out\n        /* \"#utility.yul\":11725:11843   */\n    tag_302:\n        /* \"#utility.yul\":11812:11836   */\n      tag_482\n        /* \"#utility.yul\":11830:11835   */\n      dup2\n        /* \"#utility.yul\":11812:11836   */\n      tag_276\n      jump\t// in\n    tag_482:\n        /* \"#utility.yul\":11807:11810   */\n      dup3\n        /* \"#utility.yul\":11800:11837   */\n      mstore\n        /* \"#utility.yul\":11725:11843   */\n      pop\n      pop\n      jump\t// out\n        /* \"#utility.yul\":11849:12291   */\n    tag_99:\n        /* \"#utility.yul\":11998:12002   */\n      0x00\n        /* \"#utility.yul\":12036:12038   */\n      0x60\n        /* \"#utility.yul\":12025:12034   */\n      dup3\n        /* \"#utility.yul\":12021:12039   */\n      add\n        /* \"#utility.yul\":12013:12039   */\n      swap1\n      pop\n        /* \"#utility.yul\":12049:12120   */\n      tag_484\n        /* \"#utility.yul\":12117:12118   */\n      0x00\n        /* \"#utility.yul\":12106:12115   */\n      dup4\n        /* \"#utility.yul\":12102:12119   */\n      add\n        /* \"#utility.yul\":12093:12099   */\n      dup7\n        /* \"#utility.yul\":12049:12120   */\n      tag_281\n      jump\t// in\n    tag_484:\n        /* \"#utility.yul\":12130:12202   */\n      tag_485\n        /* \"#utility.yul\":12198:12200   */\n      0x20\n        /* \"#utility.yul\":12187:12196   */\n      dup4\n        /* \"#utility.yul\":12183:12201   */\n      add\n        /* \"#utility.yul\":12174:12180   */\n      dup6\n        /* \"#utility.yul\":12130:12202   */\n      tag_281\n      jump\t// in\n    tag_485:\n        /* \"#utility.yul\":12212:12284   */\n      tag_486\n        /* \"#utility.yul\":12280:12282   */\n      0x40\n        /* \"#utility.yul\":12269:12278   */\n      dup4\n        /* \"#utility.yul\":12265:12283   */\n      add\n        /* \"#utility.yul\":12256:12262   */\n      dup5\n        /* \"#utility.yul\":12212:12284   */\n      tag_302\n      jump\t// in\n    tag_486:\n        /* \"#utility.yul\":11849:12291   */\n      swap5\n      swap4\n      pop\n      pop\n      pop\n      pop\n      jump\t// out\n        /* \"#utility.yul\":12297:12413   */\n    tag_303:\n        /* \"#utility.yul\":12367:12388   */\n      tag_488\n        /* \"#utility.yul\":12382:12387   */\n      dup2\n        /* \"#utility.yul\":12367:12388   */\n      tag_271\n      jump\t// in\n    tag_488:\n        /* \"#utility.yul\":12360:12365   */\n      dup2\n        /* \"#utility.yul\":12357:12389   */\n      eq\n        /* \"#utility.yul\":12347:12407   */\n      tag_489\n      jumpi\n        /* \"#utility.yul\":12403:12404   */\n      0x00\n        /* \"#utility.yul\":12400:12401   */\n      0x00\n        /* \"#utility.yul\":12393:12405   */\n      revert\n        /* \"#utility.yul\":12347:12407   */\n    tag_489:\n        /* \"#utility.yul\":12297:12413   */\n      pop\n      jump\t// out\n        /* \"#utility.yul\":12419:12556   */\n    tag_304:\n        /* \"#utility.yul\":12473:12478   */\n      0x00\n        /* \"#utility.yul\":12504:12510   */\n      dup2\n        /* \"#utility.yul\":12498:12511   */\n      mload\n        /* \"#utility.yul\":12489:12511   */\n      swap1\n      pop\n        /* \"#utility.yul\":12520:12550   */\n      tag_491\n        /* \"#utility.yul\":12544:12549   */\n      dup2\n        /* \"#utility.yul\":12520:12550   */\n      tag_303\n      jump\t// in\n    tag_491:\n        /* \"#utility.yul\":12419:12556   */\n      swap3\n      swap2\n      pop\n      pop\n      jump\t// out\n        /* \"#utility.yul\":12562:12907   */\n    tag_103:\n        /* \"#utility.yul\":12629:12635   */\n      0x00\n        /* \"#utility.yul\":12678:12680   */\n      0x20\n        /* \"#utility.yul\":12666:12675   */\n      dup3\n        /* \"#utility.yul\":12657:12664   */\n      dup5\n        /* \"#utility.yul\":12653:12676   */\n      sub\n        /* \"#utility.yul\":12649:12681   */\n      slt\n        /* \"#utility.yul\":12646:12765   */\n      iszero\n      tag_493\n      jumpi\n        /* \"#utility.yul\":12684:12763   */\n      tag_494\n      tag_266\n      jump\t// in\n    tag_494:\n        /* \"#utility.yul\":12646:12765   */\n    tag_493:\n        /* \"#utility.yul\":12804:12805   */\n      0x00\n        /* \"#utility.yul\":12829:12890   */\n      tag_495\n        /* \"#utility.yul\":12882:12889   */\n      dup5\n        /* \"#utility.yul\":12873:12879   */\n      dup3\n        /* \"#utility.yul\":12862:12871   */\n      dup6\n        /* \"#utility.yul\":12858:12880   */\n      add\n        /* \"#utility.yul\":12829:12890   */\n      tag_304\n      jump\t// in\n    tag_495:\n        /* \"#utility.yul\":12819:12890   */\n      swap2\n      pop\n        /* \"#utility.yul\":12775:12900   */\n      pop\n        /* \"#utility.yul\":12562:12907   */\n      swap3\n      swap2\n      pop\n      pop\n      jump\t// out\n        /* \"#utility.yul\":12913:13078   */\n    tag_305:\n        /* \"#utility.yul\":13053:13070   */\n      0x5472616e73666572206661696c65640000000000000000000000000000000000\n        /* \"#utility.yul\":13049:13050   */\n      0x00\n        /* \"#utility.yul\":13041:13047   */\n      dup3\n        /* \"#utility.yul\":13037:13051   */\n      add\n        /* \"#utility.yul\":13030:13071   */\n      mstore\n        /* \"#utility.yul\":12913:13078   */\n      pop\n      jump\t// out\n        /* \"#utility.yul\":13084:13450   */\n    tag_306:\n        /* \"#utility.yul\":13226:13229   */\n      0x00\n        /* \"#utility.yul\":13247:13314   */\n      tag_498\n        /* \"#utility.yul\":13311:13313   */\n      0x0f\n        /* \"#utility.yul\":13306:13309   */\n      dup4\n        /* \"#utility.yul\":13247:13314   */\n      tag_299\n      jump\t// in\n    tag_498:\n        /* \"#utility.yul\":13240:13314   */\n      swap2\n      pop\n        /* \"#utility.yul\":13323:13416   */\n      tag_499\n        /* \"#utility.yul\":13412:13415   */\n      dup3\n        /* \"#utility.yul\":13323:13416   */\n      tag_305\n      jump\t// in\n    tag_499:\n        /* \"#utility.yul\":13441:13443   */\n      0x20\n        /* \"#utility.yul\":13436:13439   */\n      dup3\n        /* \"#utility.yul\":13432:13444   */\n      add\n        /* \"#utility.yul\":13425:13444   */\n      swap1\n      pop\n        /* \"#utility.yul\":13084:13450   */\n      swap2\n      swap1\n      pop\n      jump\t// out\n        /* \"#utility.yul\":13456:13875   */\n    tag_106:\n        /* \"#utility.yul\":13622:13626   */\n      0x00\n        /* \"#utility.yul\":13660:13662   */\n      0x20\n        /* \"#utility.yul\":13649:13658   */\n      dup3\n        /* \"#utility.yul\":13645:13663   */\n      add\n        /* \"#utility.yul\":13637:13663   */\n      swap1\n      pop\n        /* \"#utility.yul\":13709:13718   */\n      dup2\n        /* \"#utility.yul\":13703:13707   */\n      dup2\n        /* \"#utility.yul\":13699:13719   */\n      sub\n        /* \"#utility.yul\":13695:13696   */\n      0x00\n        /* \"#utility.yul\":13684:13693   */\n      dup4\n        /* \"#utility.yul\":13680:13697   */\n      add\n        /* \"#utility.yul\":13673:13720   */\n      mstore\n        /* \"#utility.yul\":13737:13868   */\n      tag_501\n        /* \"#utility.yul\":13863:13867   */\n      dup2\n        /* \"#utility.yul\":13737:13868   */\n      tag_306\n      jump\t// in\n    tag_501:\n        /* \"#utility.yul\":13729:13868   */\n      swap1\n      pop\n        /* \"#utility.yul\":13456:13875   */\n      swap2\n      swap1\n      pop\n      jump\t// out\n        /* \"#utility.yul\":13881:14213   */\n    tag_108:\n        /* \"#utility.yul\":14002:14006   */\n      0x00\n        /* \"#utility.yul\":14040:14042   */\n      0x40\n        /* \"#utility.yul\":14029:14038   */\n      dup3\n        /* \"#utility.yul\":14025:14043   */\n      add\n        /* \"#utility.yul\":14017:14043   */\n      swap1\n      pop\n        /* \"#utility.yul\":14053:14124   */\n      tag_503\n        /* \"#utility.yul\":14121:14122   */\n      0x00\n        /* \"#utility.yul\":14110:14119   */\n      dup4\n        /* \"#utility.yul\":14106:14123   */\n      add\n        /* \"#utility.yul\":14097:14103   */\n      dup6\n        /* \"#utility.yul\":14053:14124   */\n      tag_298\n      jump\t// in\n    tag_503:\n        /* \"#utility.yul\":14134:14206   */\n      tag_504\n        /* \"#utility.yul\":14202:14204   */\n      0x20\n        /* \"#utility.yul\":14191:14200   */\n      dup4\n        /* \"#utility.yul\":14187:14205   */\n      add\n        /* \"#utility.yul\":14178:14184   */\n      dup5\n        /* \"#utility.yul\":14134:14206   */\n      tag_302\n      jump\t// in\n    tag_504:\n        /* \"#utility.yul\":13881:14213   */\n      swap4\n      swap3\n      pop\n      pop\n      pop\n      jump\t// out\n        /* \"#utility.yul\":14219:14387   */\n    tag_307:\n        /* \"#utility.yul\":14302:14313   */\n      0x00\n        /* \"#utility.yul\":14336:14342   */\n      dup3\n        /* \"#utility.yul\":14331:14334   */\n      dup3\n        /* \"#utility.yul\":14324:14343   */\n      mstore\n        /* \"#utility.yul\":14376:14380   */\n      0x20\n        /* \"#utility.yul\":14371:14374   */\n      dup3\n        /* \"#utility.yul\":14367:14381   */\n      add\n        /* \"#utility.yul\":14352:14381   */\n      swap1\n      pop\n        /* \"#utility.yul\":14219:14387   */\n      swap3\n      swap2\n      pop\n      pop\n      jump\t// out\n        /* \"#utility.yul\":14393:14541   */\n    tag_308:\n        /* \"#utility.yul\":14491:14497   */\n      dup3\n        /* \"#utility.yul\":14486:14489   */\n      dup2\n        /* \"#utility.yul\":14481:14484   */\n      dup4\n        /* \"#utility.yul\":14468:14498   */\n      calldatacopy\n        /* \"#utility.yul\":14532:14533   */\n      0x00\n        /* \"#utility.yul\":14523:14529   */\n      dup4\n        /* \"#utility.yul\":14518:14521   */\n      dup4\n        /* \"#utility.yul\":14514:14530   */\n      add\n        /* \"#utility.yul\":14507:14534   */\n      mstore\n        /* \"#utility.yul\":14393:14541   */\n      pop\n      pop\n      pop\n      jump\t// out\n        /* \"#utility.yul\":14547:14649   */\n    tag_309:\n        /* \"#utility.yul\":14588:14594   */\n      0x00\n        /* \"#utility.yul\":14639:14641   */\n      0x1f\n        /* \"#utility.yul\":14635:14642   */\n      not\n        /* \"#utility.yul\":14630:14632   */\n      0x1f\n        /* \"#utility.yul\":14623:14628   */\n      dup4\n        /* \"#utility.yul\":14619:14633   */\n      add\n        /* \"#utility.yul\":14615:14643   */\n      and\n        /* \"#utility.yul\":14605:14643   */\n      swap1\n      pop\n        /* \"#utility.yul\":14547:14649   */\n      swap2\n      swap1\n      pop\n      jump\t// out\n        /* \"#utility.yul\":14677:14991   */\n    tag_310:\n        /* \"#utility.yul\":14773:14776   */\n      0x00\n        /* \"#utility.yul\":14794:14864   */\n      tag_509\n        /* \"#utility.yul\":14857:14863   */\n      dup4\n        /* \"#utility.yul\":14852:14855   */\n      dup6\n        /* \"#utility.yul\":14794:14864   */\n      tag_307\n      jump\t// in\n    tag_509:\n        /* \"#utility.yul\":14787:14864   */\n      swap4\n      pop\n        /* \"#utility.yul\":14874:14930   */\n      tag_510\n        /* \"#utility.yul\":14923:14929   */\n      dup4\n        /* \"#utility.yul\":14918:14921   */\n      dup6\n        /* \"#utility.yul\":14911:14916   */\n      dup5\n        /* \"#utility.yul\":14874:14930   */\n      tag_308\n      jump\t// in\n    tag_510:\n        /* \"#utility.yul\":14955:14984   */\n      tag_511\n        /* \"#utility.yul\":14977:14983   */\n      dup4\n        /* \"#utility.yul\":14955:14984   */\n      tag_309\n      jump\t// in\n    tag_511:\n        /* \"#utility.yul\":14950:14953   */\n      dup5\n        /* \"#utility.yul\":14946:14985   */\n      add\n        /* \"#utility.yul\":14939:14985   */\n      swap1\n      pop\n        /* \"#utility.yul\":14677:14991   */\n      swap4\n      swap3\n      pop\n      pop\n      pop\n      jump\t// out\n        /* \"#utility.yul\":14997:15326   */\n    tag_113:\n        /* \"#utility.yul\":15118:15122   */\n      0x00\n        /* \"#utility.yul\":15156:15158   */\n      0x20\n        /* \"#utility.yul\":15145:15154   */\n      dup3\n        /* \"#utility.yul\":15141:15159   */\n      add\n        /* \"#utility.yul\":15133:15159   */\n      swap1\n      pop\n        /* \"#utility.yul\":15205:15214   */\n      dup2\n        /* \"#utility.yul\":15199:15203   */\n      dup2\n        /* \"#utility.yul\":15195:15215   */\n      sub\n        /* \"#utility.yul\":15191:15192   */\n      0x00\n        /* \"#utility.yul\":15180:15189   */\n      dup4\n        /* \"#utility.yul\":15176:15193   */\n      add\n        /* \"#utility.yul\":15169:15216   */\n      mstore\n        /* \"#utility.yul\":15233:15319   */\n      tag_513\n        /* \"#utility.yul\":15314:15318   */\n      dup2\n        /* \"#utility.yul\":15305:15311   */\n      dup5\n        /* \"#utility.yul\":15297:15303   */\n      dup7\n        /* \"#utility.yul\":15233:15319   */\n      tag_310\n      jump\t// in\n    tag_513:\n        /* \"#utility.yul\":15225:15319   */\n      swap1\n      pop\n        /* \"#utility.yul\":14997:15326   */\n      swap4\n      swap3\n      pop\n      pop\n      pop\n      jump\t// out\n        /* \"#utility.yul\":15332:15664   */\n    tag_124:\n        /* \"#utility.yul\":15453:15457   */\n      0x00\n        /* \"#utility.yul\":15491:15493   */\n      0x40\n        /* \"#utility.yul\":15480:15489   */\n      dup3\n        /* \"#utility.yul\":15476:15494   */\n      add\n        /* \"#utility.yul\":15468:15494   */\n      swap1\n      pop\n        /* \"#utility.yul\":15504:15575   */\n      tag_515\n        /* \"#utility.yul\":15572:15573   */\n      0x00\n        /* \"#utility.yul\":15561:15570   */\n      dup4\n        /* \"#utility.yul\":15557:15574   */\n      add\n        /* \"#utility.yul\":15548:15554   */\n      dup6\n        /* \"#utility.yul\":15504:15575   */\n      tag_281\n      jump\t// in\n    tag_515:\n        /* \"#utility.yul\":15585:15657   */\n      tag_516\n        /* \"#utility.yul\":15653:15655   */\n      0x20\n        /* \"#utility.yul\":15642:15651   */\n      dup4\n        /* \"#utility.yul\":15638:15656   */\n      add\n        /* \"#utility.yul\":15629:15635   */\n      dup5\n        /* \"#utility.yul\":15585:15657   */\n      tag_281\n      jump\t// in\n    tag_516:\n        /* \"#utility.yul\":15332:15664   */\n      swap4\n      swap3\n      pop\n      pop\n      pop\n      jump\t// out\n        /* \"#utility.yul\":15670:16002   */\n    tag_133:\n        /* \"#utility.yul\":15791:15795   */\n      0x00\n        /* \"#utility.yul\":15829:15831   */\n      0x40\n        /* \"#utility.yul\":15818:15827   */\n      dup3\n        /* \"#utility.yul\":15814:15832   */\n      add\n        /* \"#utility.yul\":15806:15832   */\n      swap1\n      pop\n        /* \"#utility.yul\":15842:15913   */\n      tag_518\n        /* \"#utility.yul\":15910:15911   */\n      0x00\n        /* \"#utility.yul\":15899:15908   */\n      dup4\n        /* \"#utility.yul\":15895:15912   */\n      add\n        /* \"#utility.yul\":15886:15892   */\n      dup6\n        /* \"#utility.yul\":15842:15913   */\n      tag_298\n      jump\t// in\n    tag_518:\n        /* \"#utility.yul\":15923:15995   */\n      tag_519\n        /* \"#utility.yul\":15991:15993   */\n      0x20\n        /* \"#utility.yul\":15980:15989   */\n      dup4\n        /* \"#utility.yul\":15976:15994   */\n      add\n        /* \"#utility.yul\":15967:15973   */\n      dup5\n        /* \"#utility.yul\":15923:15995   */\n      tag_298\n      jump\t// in\n    tag_519:\n        /* \"#utility.yul\":15670:16002   */\n      swap4\n      swap3\n      pop\n      pop\n      pop\n      jump\t// out\n        /* \"#utility.yul\":16008:16340   */\n    tag_141:\n        /* \"#utility.yul\":16129:16133   */\n      0x00\n        /* \"#utility.yul\":16167:16169   */\n      0x40\n        /* \"#utility.yul\":16156:16165   */\n      dup3\n        /* \"#utility.yul\":16152:16170   */\n      add\n        /* \"#utility.yul\":16144:16170   */\n      swap1\n      pop\n        /* \"#utility.yul\":16180:16251   */\n      tag_521\n        /* \"#utility.yul\":16248:16249   */\n      0x00\n        /* \"#utility.yul\":16237:16246   */\n      dup4\n        /* \"#utility.yul\":16233:16250   */\n      add\n        /* \"#utility.yul\":16224:16230   */\n      dup6\n        /* \"#utility.yul\":16180:16251   */\n      tag_294\n      jump\t// in\n    tag_521:\n        /* \"#utility.yul\":16261:16333   */\n      tag_522\n        /* \"#utility.yul\":16329:16331   */\n      0x20\n        /* \"#utility.yul\":16318:16327   */\n      dup4\n        /* \"#utility.yul\":16314:16332   */\n      add\n        /* \"#utility.yul\":16305:16311   */\n      dup5\n        /* \"#utility.yul\":16261:16333   */\n      tag_294\n      jump\t// in\n    tag_522:\n        /* \"#utility.yul\":16008:16340   */\n      swap4\n      swap3\n      pop\n      pop\n      pop\n      jump\t// out\n        /* \"#utility.yul\":16346:16463   */\n    tag_311:\n        /* \"#utility.yul\":16455:16456   */\n      0x00\n        /* \"#utility.yul\":16452:16453   */\n      0x00\n        /* \"#utility.yul\":16445:16457   */\n      revert\n        /* \"#utility.yul\":16469:16649   */\n    tag_172:\n        /* \"#utility.yul\":16517:16594   */\n      0x4e487b7100000000000000000000000000000000000000000000000000000000\n        /* \"#utility.yul\":16514:16515   */\n      0x00\n        /* \"#utility.yul\":16507:16595   */\n      mstore\n        /* \"#utility.yul\":16614:16618   */\n      0x41\n        /* \"#utility.yul\":16611:16612   */\n      0x04\n        /* \"#utility.yul\":16604:16619   */\n      mstore\n        /* \"#utility.yul\":16638:16642   */\n      0x24\n        /* \"#utility.yul\":16635:16636   */\n      0x00\n        /* \"#utility.yul\":16628:16643   */\n      revert\n        /* \"#utility.yul\":16655:16936   */\n    tag_312:\n        /* \"#utility.yul\":16738:16765   */\n      tag_526\n        /* \"#utility.yul\":16760:16764   */\n      dup3\n        /* \"#utility.yul\":16738:16765   */\n      tag_309\n      jump\t// in\n    tag_526:\n        /* \"#utility.yul\":16730:16736   */\n      dup2\n        /* \"#utility.yul\":16726:16766   */\n      add\n        /* \"#utility.yul\":16868:16874   */\n      dup2\n        /* \"#utility.yul\":16856:16866   */\n      dup2\n        /* \"#utility.yul\":16853:16875   */\n      lt\n        /* \"#utility.yul\":16832:16850   */\n      0xffffffffffffffff\n        /* \"#utility.yul\":16820:16830   */\n      dup3\n        /* \"#utility.yul\":16817:16851   */\n      gt\n        /* \"#utility.yul\":16814:16876   */\n      or\n        /* \"#utility.yul\":16811:16899   */\n      iszero\n      tag_527\n      jumpi\n        /* \"#utility.yul\":16879:16897   */\n      tag_528\n      tag_172\n      jump\t// in\n    tag_528:\n        /* \"#utility.yul\":16811:16899   */\n    tag_527:\n        /* \"#utility.yul\":16919:16929   */\n      dup1\n        /* \"#utility.yul\":16915:16917   */\n      0x40\n        /* \"#utility.yul\":16908:16930   */\n      mstore\n        /* \"#utility.yul\":16698:16936   */\n      pop\n        /* \"#utility.yul\":16655:16936   */\n      pop\n      pop\n      jump\t// out\n        /* \"#utility.yul\":16942:17071   */\n    tag_313:\n        /* \"#utility.yul\":16976:16982   */\n      0x00\n        /* \"#utility.yul\":17003:17023   */\n      tag_530\n      tag_265\n      jump\t// in\n    tag_530:\n        /* \"#utility.yul\":16993:17023   */\n      swap1\n      pop\n        /* \"#utility.yul\":17032:17065   */\n      tag_531\n        /* \"#utility.yul\":17060:17064   */\n      dup3\n        /* \"#utility.yul\":17052:17058   */\n      dup3\n        /* \"#utility.yul\":17032:17065   */\n      tag_312\n      jump\t// in\n    tag_531:\n        /* \"#utility.yul\":16942:17071   */\n      swap2\n      swap1\n      pop\n      jump\t// out\n        /* \"#utility.yul\":17077:17194   */\n    tag_314:\n        /* \"#utility.yul\":17186:17187   */\n      0x00\n        /* \"#utility.yul\":17183:17184   */\n      0x00\n        /* \"#utility.yul\":17176:17188   */\n      revert\n        /* \"#utility.yul\":17200:17301   */\n    tag_315:\n        /* \"#utility.yul\":17236:17243   */\n      0x00\n        /* \"#utility.yul\":17276:17294   */\n      0xffffffffffffffff\n        /* \"#utility.yul\":17269:17274   */\n      dup3\n        /* \"#utility.yul\":17265:17295   */\n      and\n        /* \"#utility.yul\":17254:17295   */\n      swap1\n      pop\n        /* \"#utility.yul\":17200:17301   */\n      swap2\n      swap1\n      pop\n      jump\t// out\n        /* \"#utility.yul\":17307:17427   */\n    tag_316:\n        /* \"#utility.yul\":17379:17402   */\n      tag_535\n        /* \"#utility.yul\":17396:17401   */\n      dup2\n        /* \"#utility.yul\":17379:17402   */\n      tag_315\n      jump\t// in\n    tag_535:\n        /* \"#utility.yul\":17372:17377   */\n      dup2\n        /* \"#utility.yul\":17369:17403   */\n      eq\n        /* \"#utility.yul\":17359:17421   */\n      tag_536\n      jumpi\n        /* \"#utility.yul\":17417:17418   */\n      0x00\n        /* \"#utility.yul\":17414:17415   */\n      0x00\n        /* \"#utility.yul\":17407:17419   */\n      revert\n        /* \"#utility.yul\":17359:17421   */\n    tag_536:\n        /* \"#utility.yul\":17307:17427   */\n      pop\n      jump\t// out\n        /* \"#utility.yul\":17433:17570   */\n    tag_317:\n        /* \"#utility.yul\":17478:17483   */\n      0x00\n        /* \"#utility.yul\":17516:17522   */\n      dup2\n        /* \"#utility.yul\":17503:17523   */\n      calldataload\n        /* \"#utility.yul\":17494:17523   */\n      swap1\n      pop\n        /* \"#utility.yul\":17532:17564   */\n      tag_538\n        /* \"#utility.yul\":17558:17563   */\n      dup2\n        /* \"#utility.yul\":17532:17564   */\n      tag_316\n      jump\t// in\n    tag_538:\n        /* \"#utility.yul\":17433:17570   */\n      swap3\n      swap2\n      pop\n      pop\n      jump\t// out\n        /* \"#utility.yul\":17576:17693   */\n    tag_318:\n        /* \"#utility.yul\":17685:17686   */\n      0x00\n        /* \"#utility.yul\":17682:17683   */\n      0x00\n        /* \"#utility.yul\":17675:17687   */\n      revert\n        /* \"#utility.yul\":17699:18006   */\n    tag_319:\n        /* \"#utility.yul\":17760:17764   */\n      0x00\n        /* \"#utility.yul\":17850:17868   */\n      0xffffffffffffffff\n        /* \"#utility.yul\":17842:17848   */\n      dup3\n        /* \"#utility.yul\":17839:17869   */\n      gt\n        /* \"#utility.yul\":17836:17892   */\n      iszero\n      tag_541\n      jumpi\n        /* \"#utility.yul\":17872:17890   */\n      tag_542\n      tag_172\n      jump\t// in\n    tag_542:\n        /* \"#utility.yul\":17836:17892   */\n    tag_541:\n        /* \"#utility.yul\":17910:17939   */\n      tag_543\n        /* \"#utility.yul\":17932:17938   */\n      dup3\n        /* \"#utility.yul\":17910:17939   */\n      tag_309\n      jump\t// in\n    tag_543:\n        /* \"#utility.yul\":17902:17939   */\n      swap1\n      pop\n        /* \"#utility.yul\":17994:17998   */\n      0x20\n        /* \"#utility.yul\":17988:17992   */\n      dup2\n        /* \"#utility.yul\":17984:17999   */\n      add\n        /* \"#utility.yul\":17976:17999   */\n      swap1\n      pop\n        /* \"#utility.yul\":17699:18006   */\n      swap2\n      swap1\n      pop\n      jump\t// out\n        /* \"#utility.yul\":18012:18435   */\n    tag_320:\n        /* \"#utility.yul\":18089:18094   */\n      0x00\n        /* \"#utility.yul\":18114:18179   */\n      tag_545\n        /* \"#utility.yul\":18130:18178   */\n      tag_546\n        /* \"#utility.yul\":18171:18177   */\n      dup5\n        /* \"#utility.yul\":18130:18178   */\n      tag_319\n      jump\t// in\n    tag_546:\n        /* \"#utility.yul\":18114:18179   */\n      tag_313\n      jump\t// in\n    tag_545:\n        /* \"#utility.yul\":18105:18179   */\n      swap1\n      pop\n        /* \"#utility.yul\":18202:18208   */\n      dup3\n        /* \"#utility.yul\":18195:18200   */\n      dup2\n        /* \"#utility.yul\":18188:18209   */\n      mstore\n        /* \"#utility.yul\":18240:18244   */\n      0x20\n        /* \"#utility.yul\":18233:18238   */\n      dup2\n        /* \"#utility.yul\":18229:18245   */\n      add\n        /* \"#utility.yul\":18278:18281   */\n      dup5\n        /* \"#utility.yul\":18269:18275   */\n      dup5\n        /* \"#utility.yul\":18264:18267   */\n      dup5\n        /* \"#utility.yul\":18260:18276   */\n      add\n        /* \"#utility.yul\":18257:18282   */\n      gt\n        /* \"#utility.yul\":18254:18366   */\n      iszero\n      tag_547\n      jumpi\n        /* \"#utility.yul\":18285:18364   */\n      tag_548\n      tag_318\n      jump\t// in\n    tag_548:\n        /* \"#utility.yul\":18254:18366   */\n    tag_547:\n        /* \"#utility.yul\":18375:18429   */\n      tag_549\n        /* \"#utility.yul\":18422:18428   */\n      dup5\n        /* \"#utility.yul\":18417:18420   */\n      dup3\n        /* \"#utility.yul\":18412:18415   */\n      dup6\n        /* \"#utility.yul\":18375:18429   */\n      tag_308\n      jump\t// in\n    tag_549:\n        /* \"#utility.yul\":18095:18435   */\n      pop\n        /* \"#utility.yul\":18012:18435   */\n      swap4\n      swap3\n      pop\n      pop\n      pop\n      jump\t// out\n        /* \"#utility.yul\":18454:18792   */\n    tag_321:\n        /* \"#utility.yul\":18509:18514   */\n      0x00\n        /* \"#utility.yul\":18558:18561   */\n      dup3\n        /* \"#utility.yul\":18551:18555   */\n      0x1f\n        /* \"#utility.yul\":18543:18549   */\n      dup4\n        /* \"#utility.yul\":18539:18556   */\n      add\n        /* \"#utility.yul\":18535:18562   */\n      slt\n        /* \"#utility.yul\":18525:18647   */\n      tag_551\n      jumpi\n        /* \"#utility.yul\":18566:18645   */\n      tag_552\n      tag_287\n      jump\t// in\n    tag_552:\n        /* \"#utility.yul\":18525:18647   */\n    tag_551:\n        /* \"#utility.yul\":18683:18689   */\n      dup2\n        /* \"#utility.yul\":18670:18690   */\n      calldataload\n        /* \"#utility.yul\":18708:18786   */\n      tag_553\n        /* \"#utility.yul\":18782:18785   */\n      dup5\n        /* \"#utility.yul\":18774:18780   */\n      dup3\n        /* \"#utility.yul\":18767:18771   */\n      0x20\n        /* \"#utility.yul\":18759:18765   */\n      dup7\n        /* \"#utility.yul\":18755:18772   */\n      add\n        /* \"#utility.yul\":18708:18786   */\n      tag_320\n      jump\t// in\n    tag_553:\n        /* \"#utility.yul\":18699:18786   */\n      swap2\n      pop\n        /* \"#utility.yul\":18515:18792   */\n      pop\n        /* \"#utility.yul\":18454:18792   */\n      swap3\n      swap2\n      pop\n      pop\n      jump\t// out\n        /* \"#utility.yul\":18798:19140   */\n    tag_322:\n        /* \"#utility.yul\":18906:18910   */\n      0x00\n        /* \"#utility.yul\":18996:19014   */\n      0xffffffffffffffff\n        /* \"#utility.yul\":18988:18994   */\n      dup3\n        /* \"#utility.yul\":18985:19015   */\n      gt\n        /* \"#utility.yul\":18982:19038   */\n      iszero\n      tag_555\n      jumpi\n        /* \"#utility.yul\":19018:19036   */\n      tag_556\n      tag_172\n      jump\t// in\n    tag_556:\n        /* \"#utility.yul\":18982:19038   */\n    tag_555:\n        /* \"#utility.yul\":19068:19072   */\n      0x20\n        /* \"#utility.yul\":19060:19066   */\n      dup3\n        /* \"#utility.yul\":19056:19073   */\n      mul\n        /* \"#utility.yul\":19048:19073   */\n      swap1\n      pop\n        /* \"#utility.yul\":19128:19132   */\n      0x20\n        /* \"#utility.yul\":19122:19126   */\n      dup2\n        /* \"#utility.yul\":19118:19133   */\n      add\n        /* \"#utility.yul\":19110:19133   */\n      swap1\n      pop\n        /* \"#utility.yul\":18798:19140   */\n      swap2\n      swap1\n      pop\n      jump\t// out\n        /* \"#utility.yul\":19182:19765   */\n    tag_323:\n        /* \"#utility.yul\":19262:19267   */\n      0x00\n        /* \"#utility.yul\":19306:19310   */\n      0x40\n        /* \"#utility.yul\":19294:19303   */\n      dup3\n        /* \"#utility.yul\":19289:19292   */\n      dup5\n        /* \"#utility.yul\":19285:19304   */\n      sub\n        /* \"#utility.yul\":19281:19311   */\n      slt\n        /* \"#utility.yul\":19278:19395   */\n      iszero\n      tag_558\n      jumpi\n        /* \"#utility.yul\":19314:19393   */\n      tag_559\n      tag_311\n      jump\t// in\n    tag_559:\n        /* \"#utility.yul\":19278:19395   */\n    tag_558:\n        /* \"#utility.yul\":19413:19434   */\n      tag_560\n        /* \"#utility.yul\":19429:19433   */\n      0x40\n        /* \"#utility.yul\":19413:19434   */\n      tag_313\n      jump\t// in\n    tag_560:\n        /* \"#utility.yul\":19404:19434   */\n      swap1\n      pop\n        /* \"#utility.yul\":19494:19495   */\n      0x00\n        /* \"#utility.yul\":19534:19583   */\n      tag_561\n        /* \"#utility.yul\":19579:19582   */\n      dup5\n        /* \"#utility.yul\":19570:19576   */\n      dup3\n        /* \"#utility.yul\":19559:19568   */\n      dup6\n        /* \"#utility.yul\":19555:19577   */\n      add\n        /* \"#utility.yul\":19534:19583   */\n      tag_297\n      jump\t// in\n    tag_561:\n        /* \"#utility.yul\":19527:19531   */\n      0x00\n        /* \"#utility.yul\":19520:19525   */\n      dup4\n        /* \"#utility.yul\":19516:19532   */\n      add\n        /* \"#utility.yul\":19509:19584   */\n      mstore\n        /* \"#utility.yul\":19444:19595   */\n      pop\n        /* \"#utility.yul\":19656:19658   */\n      0x20\n        /* \"#utility.yul\":19697:19746   */\n      tag_562\n        /* \"#utility.yul\":19742:19745   */\n      dup5\n        /* \"#utility.yul\":19733:19739   */\n      dup3\n        /* \"#utility.yul\":19722:19731   */\n      dup6\n        /* \"#utility.yul\":19718:19740   */\n      add\n        /* \"#utility.yul\":19697:19746   */\n      tag_278\n      jump\t// in\n    tag_562:\n        /* \"#utility.yul\":19690:19694   */\n      0x20\n        /* \"#utility.yul\":19683:19688   */\n      dup4\n        /* \"#utility.yul\":19679:19695   */\n      add\n        /* \"#utility.yul\":19672:19747   */\n      mstore\n        /* \"#utility.yul\":19605:19758   */\n      pop\n        /* \"#utility.yul\":19182:19765   */\n      swap3\n      swap2\n      pop\n      pop\n      jump\t// out\n        /* \"#utility.yul\":19809:20612   */\n    tag_324:\n        /* \"#utility.yul\":19936:19941   */\n      0x00\n        /* \"#utility.yul\":19961:20073   */\n      tag_564\n        /* \"#utility.yul\":19977:20072   */\n      tag_565\n        /* \"#utility.yul\":20065:20071   */\n      dup5\n        /* \"#utility.yul\":19977:20072   */\n      tag_322\n      jump\t// in\n    tag_565:\n        /* \"#utility.yul\":19961:20073   */\n      tag_313\n      jump\t// in\n    tag_564:\n        /* \"#utility.yul\":19952:20073   */\n      swap1\n      pop\n        /* \"#utility.yul\":20093:20098   */\n      dup1\n        /* \"#utility.yul\":20122:20128   */\n      dup4\n        /* \"#utility.yul\":20115:20120   */\n      dup3\n        /* \"#utility.yul\":20108:20129   */\n      mstore\n        /* \"#utility.yul\":20156:20160   */\n      0x20\n        /* \"#utility.yul\":20149:20154   */\n      dup3\n        /* \"#utility.yul\":20145:20161   */\n      add\n        /* \"#utility.yul\":20138:20161   */\n      swap1\n      pop\n        /* \"#utility.yul\":20209:20213   */\n      0x40\n        /* \"#utility.yul\":20201:20207   */\n      dup5\n        /* \"#utility.yul\":20197:20214   */\n      mul\n        /* \"#utility.yul\":20189:20195   */\n      dup4\n        /* \"#utility.yul\":20185:20215   */\n      add\n        /* \"#utility.yul\":20238:20241   */\n      dup6\n        /* \"#utility.yul\":20230:20236   */\n      dup2\n        /* \"#utility.yul\":20227:20242   */\n      gt\n        /* \"#utility.yul\":20224:20346   */\n      iszero\n      tag_566\n      jumpi\n        /* \"#utility.yul\":20257:20336   */\n      tag_567\n      tag_289\n      jump\t// in\n    tag_567:\n        /* \"#utility.yul\":20224:20346   */\n    tag_566:\n        /* \"#utility.yul\":20372:20378   */\n      dup4\n        /* \"#utility.yul\":20355:20606   */\n    tag_568:\n        /* \"#utility.yul\":20389:20395   */\n      dup2\n        /* \"#utility.yul\":20384:20387   */\n      dup2\n        /* \"#utility.yul\":20381:20396   */\n      lt\n        /* \"#utility.yul\":20355:20606   */\n      iszero\n      tag_570\n      jumpi\n        /* \"#utility.yul\":20464:20467   */\n      dup1\n        /* \"#utility.yul\":20493:20561   */\n      tag_571\n        /* \"#utility.yul\":20557:20560   */\n      dup9\n        /* \"#utility.yul\":20545:20555   */\n      dup3\n        /* \"#utility.yul\":20493:20561   */\n      tag_323\n      jump\t// in\n    tag_571:\n        /* \"#utility.yul\":20488:20491   */\n      dup5\n        /* \"#utility.yul\":20481:20562   */\n      mstore\n        /* \"#utility.yul\":20591:20595   */\n      0x20\n        /* \"#utility.yul\":20586:20589   */\n      dup5\n        /* \"#utility.yul\":20582:20596   */\n      add\n        /* \"#utility.yul\":20575:20596   */\n      swap4\n      pop\n        /* \"#utility.yul\":20431:20606   */\n      pop\n        /* \"#utility.yul\":20415:20419   */\n      0x40\n        /* \"#utility.yul\":20410:20413   */\n      dup2\n        /* \"#utility.yul\":20406:20420   */\n      add\n        /* \"#utility.yul\":20399:20420   */\n      swap1\n      pop\n        /* \"#utility.yul\":20355:20606   */\n      jump(tag_568)\n    tag_570:\n        /* \"#utility.yul\":20359:20380   */\n      pop\n        /* \"#utility.yul\":19942:20612   */\n      pop\n      pop\n        /* \"#utility.yul\":19809:20612   */\n      swap4\n      swap3\n      pop\n      pop\n      pop\n      jump\t// out\n        /* \"#utility.yul\":20656:21088   */\n    tag_325:\n        /* \"#utility.yul\":20758:20763   */\n      0x00\n        /* \"#utility.yul\":20807:20810   */\n      dup3\n        /* \"#utility.yul\":20800:20804   */\n      0x1f\n        /* \"#utility.yul\":20792:20798   */\n      dup4\n        /* \"#utility.yul\":20788:20805   */\n      add\n        /* \"#utility.yul\":20784:20811   */\n      slt\n        /* \"#utility.yul\":20774:20896   */\n      tag_573\n      jumpi\n        /* \"#utility.yul\":20815:20894   */\n      tag_574\n      tag_287\n      jump\t// in\n    tag_574:\n        /* \"#utility.yul\":20774:20896   */\n    tag_573:\n        /* \"#utility.yul\":20932:20938   */\n      dup2\n        /* \"#utility.yul\":20919:20939   */\n      calldataload\n        /* \"#utility.yul\":20957:21082   */\n      tag_575\n        /* \"#utility.yul\":21078:21081   */\n      dup5\n        /* \"#utility.yul\":21070:21076   */\n      dup3\n        /* \"#utility.yul\":21063:21067   */\n      0x20\n        /* \"#utility.yul\":21055:21061   */\n      dup7\n        /* \"#utility.yul\":21051:21068   */\n      add\n        /* \"#utility.yul\":20957:21082   */\n      tag_324\n      jump\t// in\n    tag_575:\n        /* \"#utility.yul\":20948:21082   */\n      swap2\n      pop\n        /* \"#utility.yul\":20764:21088   */\n      pop\n        /* \"#utility.yul\":20656:21088   */\n      swap3\n      swap2\n      pop\n      pop\n      jump\t// out\n        /* \"#utility.yul\":21130:22781   */\n    tag_326:\n        /* \"#utility.yul\":21210:21215   */\n      0x00\n        /* \"#utility.yul\":21254:21258   */\n      0xa0\n        /* \"#utility.yul\":21242:21251   */\n      dup3\n        /* \"#utility.yul\":21237:21240   */\n      dup5\n        /* \"#utility.yul\":21233:21252   */\n      sub\n        /* \"#utility.yul\":21229:21259   */\n      slt\n        /* \"#utility.yul\":21226:21343   */\n      iszero\n      tag_577\n      jumpi\n        /* \"#utility.yul\":21262:21341   */\n      tag_578\n      tag_311\n      jump\t// in\n    tag_578:\n        /* \"#utility.yul\":21226:21343   */\n    tag_577:\n        /* \"#utility.yul\":21361:21382   */\n      tag_579\n        /* \"#utility.yul\":21377:21381   */\n      0xa0\n        /* \"#utility.yul\":21361:21382   */\n      tag_313\n      jump\t// in\n    tag_579:\n        /* \"#utility.yul\":21352:21382   */\n      swap1\n      pop\n        /* \"#utility.yul\":21446:21447   */\n      0x00\n        /* \"#utility.yul\":21486:21535   */\n      tag_580\n        /* \"#utility.yul\":21531:21534   */\n      dup5\n        /* \"#utility.yul\":21522:21528   */\n      dup3\n        /* \"#utility.yul\":21511:21520   */\n      dup6\n        /* \"#utility.yul\":21507:21529   */\n      add\n        /* \"#utility.yul\":21486:21535   */\n      tag_275\n      jump\t// in\n    tag_580:\n        /* \"#utility.yul\":21479:21483   */\n      0x00\n        /* \"#utility.yul\":21472:21477   */\n      dup4\n        /* \"#utility.yul\":21468:21484   */\n      add\n        /* \"#utility.yul\":21461:21536   */\n      mstore\n        /* \"#utility.yul\":21392:21547   */\n      pop\n        /* \"#utility.yul\":21621:21623   */\n      0x20\n        /* \"#utility.yul\":21662:21710   */\n      tag_581\n        /* \"#utility.yul\":21706:21709   */\n      dup5\n        /* \"#utility.yul\":21697:21703   */\n      dup3\n        /* \"#utility.yul\":21686:21695   */\n      dup6\n        /* \"#utility.yul\":21682:21704   */\n      add\n        /* \"#utility.yul\":21662:21710   */\n      tag_317\n      jump\t// in\n    tag_581:\n        /* \"#utility.yul\":21655:21659   */\n      0x20\n        /* \"#utility.yul\":21648:21653   */\n      dup4\n        /* \"#utility.yul\":21644:21660   */\n      add\n        /* \"#utility.yul\":21637:21711   */\n      mstore\n        /* \"#utility.yul\":21557:21722   */\n      pop\n        /* \"#utility.yul\":21811:21813   */\n      0x40\n        /* \"#utility.yul\":21800:21809   */\n      dup3\n        /* \"#utility.yul\":21796:21814   */\n      add\n        /* \"#utility.yul\":21783:21815   */\n      calldataload\n        /* \"#utility.yul\":21842:21860   */\n      0xffffffffffffffff\n        /* \"#utility.yul\":21834:21840   */\n      dup2\n        /* \"#utility.yul\":21831:21861   */\n      gt\n        /* \"#utility.yul\":21828:21945   */\n      iszero\n      tag_582\n      jumpi\n        /* \"#utility.yul\":21864:21943   */\n      tag_583\n      tag_314\n      jump\t// in\n    tag_583:\n        /* \"#utility.yul\":21828:21945   */\n    tag_582:\n        /* \"#utility.yul\":21984:22042   */\n      tag_584\n        /* \"#utility.yul\":22038:22041   */\n      dup5\n        /* \"#utility.yul\":22029:22035   */\n      dup3\n        /* \"#utility.yul\":22018:22027   */\n      dup6\n        /* \"#utility.yul\":22014:22036   */\n      add\n        /* \"#utility.yul\":21984:22042   */\n      tag_321\n      jump\t// in\n    tag_584:\n        /* \"#utility.yul\":21977:21981   */\n      0x40\n        /* \"#utility.yul\":21970:21975   */\n      dup4\n        /* \"#utility.yul\":21966:21982   */\n      add\n        /* \"#utility.yul\":21959:22043   */\n      mstore\n        /* \"#utility.yul\":21732:22054   */\n      pop\n        /* \"#utility.yul\":22141:22143   */\n      0x60\n        /* \"#utility.yul\":22130:22139   */\n      dup3\n        /* \"#utility.yul\":22126:22144   */\n      add\n        /* \"#utility.yul\":22113:22145   */\n      calldataload\n        /* \"#utility.yul\":22172:22190   */\n      0xffffffffffffffff\n        /* \"#utility.yul\":22164:22170   */\n      dup2\n        /* \"#utility.yul\":22161:22191   */\n      gt\n        /* \"#utility.yul\":22158:22275   */\n      iszero\n      tag_585\n      jumpi\n        /* \"#utility.yul\":22194:22273   */\n      tag_586\n      tag_314\n      jump\t// in\n    tag_586:\n        /* \"#utility.yul\":22158:22275   */\n    tag_585:\n        /* \"#utility.yul\":22314:22372   */\n      tag_587\n        /* \"#utility.yul\":22368:22371   */\n      dup5\n        /* \"#utility.yul\":22359:22365   */\n      dup3\n        /* \"#utility.yul\":22348:22357   */\n      dup6\n        /* \"#utility.yul\":22344:22366   */\n      add\n        /* \"#utility.yul\":22314:22372   */\n      tag_321\n      jump\t// in\n    tag_587:\n        /* \"#utility.yul\":22307:22311   */\n      0x60\n        /* \"#utility.yul\":22300:22305   */\n      dup4\n        /* \"#utility.yul\":22296:22312   */\n      add\n        /* \"#utility.yul\":22289:22373   */\n      mstore\n        /* \"#utility.yul\":22064:22384   */\n      pop\n        /* \"#utility.yul\":22483:22486   */\n      0x80\n        /* \"#utility.yul\":22472:22481   */\n      dup3\n        /* \"#utility.yul\":22468:22487   */\n      add\n        /* \"#utility.yul\":22455:22488   */\n      calldataload\n        /* \"#utility.yul\":22515:22533   */\n      0xffffffffffffffff\n        /* \"#utility.yul\":22507:22513   */\n      dup2\n        /* \"#utility.yul\":22504:22534   */\n      gt\n        /* \"#utility.yul\":22501:22618   */\n      iszero\n      tag_588\n      jumpi\n        /* \"#utility.yul\":22537:22616   */\n      tag_589\n      tag_314\n      jump\t// in\n    tag_589:\n        /* \"#utility.yul\":22501:22618   */\n    tag_588:\n        /* \"#utility.yul\":22657:22762   */\n      tag_590\n        /* \"#utility.yul\":22758:22761   */\n      dup5\n        /* \"#utility.yul\":22749:22755   */\n      dup3\n        /* \"#utility.yul\":22738:22747   */\n      dup6\n        /* \"#utility.yul\":22734:22756   */\n      add\n        /* \"#utility.yul\":22657:22762   */\n      tag_325\n      jump\t// in\n    tag_590:\n        /* \"#utility.yul\":22650:22654   */\n      0x80\n        /* \"#utility.yul\":22643:22648   */\n      dup4\n        /* \"#utility.yul\":22639:22655   */\n      add\n        /* \"#utility.yul\":22632:22763   */\n      mstore\n        /* \"#utility.yul\":22394:22774   */\n      pop\n        /* \"#utility.yul\":21130:22781   */\n      swap3\n      swap2\n      pop\n      pop\n      jump\t// out\n        /* \"#utility.yul\":22787:23016   */\n    tag_151:\n        /* \"#utility.yul\":22901:22910   */\n      0x00\n        /* \"#utility.yul\":22935:23009   */\n      tag_592\n        /* \"#utility.yul\":22994:23008   */\n      calldatasize\n        /* \"#utility.yul\":22987:22992   */\n      dup4\n        /* \"#utility.yul\":22935:23009   */\n      tag_326\n      jump\t// in\n    tag_592:\n        /* \"#utility.yul\":22922:23009   */\n      swap1\n      pop\n        /* \"#utility.yul\":22787:23016   */\n      swap2\n      swap1\n      pop\n      jump\t// out\n        /* \"#utility.yul\":23022:23169   */\n    tag_327:\n        /* \"#utility.yul\":23123:23134   */\n      0x00\n        /* \"#utility.yul\":23160:23163   */\n      dup2\n        /* \"#utility.yul\":23145:23163   */\n      swap1\n      pop\n        /* \"#utility.yul\":23022:23169   */\n      swap3\n      swap2\n      pop\n      pop\n      jump\t// out\n        /* \"#utility.yul\":23197:23524   */\n    tag_328:\n        /* \"#utility.yul\":23311:23314   */\n      0x00\n        /* \"#utility.yul\":23332:23420   */\n      tag_595\n        /* \"#utility.yul\":23413:23419   */\n      dup4\n        /* \"#utility.yul\":23408:23411   */\n      dup6\n        /* \"#utility.yul\":23332:23420   */\n      tag_327\n      jump\t// in\n    tag_595:\n        /* \"#utility.yul\":23325:23420   */\n      swap4\n      pop\n        /* \"#utility.yul\":23430:23486   */\n      tag_596\n        /* \"#utility.yul\":23479:23485   */\n      dup4\n        /* \"#utility.yul\":23474:23477   */\n      dup6\n        /* \"#utility.yul\":23467:23472   */\n      dup5\n        /* \"#utility.yul\":23430:23486   */\n      tag_308\n      jump\t// in\n    tag_596:\n        /* \"#utility.yul\":23511:23517   */\n      dup3\n        /* \"#utility.yul\":23506:23509   */\n      dup5\n        /* \"#utility.yul\":23502:23518   */\n      add\n        /* \"#utility.yul\":23495:23518   */\n      swap1\n      pop\n        /* \"#utility.yul\":23197:23524   */\n      swap4\n      swap3\n      pop\n      pop\n      pop\n      jump\t// out\n        /* \"#utility.yul\":23530:23821   */\n    tag_161:\n        /* \"#utility.yul\":23670:23673   */\n      0x00\n        /* \"#utility.yul\":23692:23795   */\n      tag_598\n        /* \"#utility.yul\":23791:23794   */\n      dup3\n        /* \"#utility.yul\":23782:23788   */\n      dup5\n        /* \"#utility.yul\":23774:23780   */\n      dup7\n        /* \"#utility.yul\":23692:23795   */\n      tag_328\n      jump\t// in\n    tag_598:\n        /* \"#utility.yul\":23685:23795   */\n      swap2\n      pop\n        /* \"#utility.yul\":23812:23815   */\n      dup2\n        /* \"#utility.yul\":23805:23815   */\n      swap1\n      pop\n        /* \"#utility.yul\":23530:23821   */\n      swap4\n      swap3\n      pop\n      pop\n      pop\n      jump\t// out\n        /* \"#utility.yul\":23827:23970   */\n    tag_329:\n        /* \"#utility.yul\":23884:23889   */\n      0x00\n        /* \"#utility.yul\":23915:23921   */\n      dup2\n        /* \"#utility.yul\":23909:23922   */\n      mload\n        /* \"#utility.yul\":23900:23922   */\n      swap1\n      pop\n        /* \"#utility.yul\":23931:23964   */\n      tag_600\n        /* \"#utility.yul\":23958:23963   */\n      dup2\n        /* \"#utility.yul\":23931:23964   */\n      tag_274\n      jump\t// in\n    tag_600:\n        /* \"#utility.yul\":23827:23970   */\n      swap3\n      swap2\n      pop\n      pop\n      jump\t// out\n        /* \"#utility.yul\":23976:24327   */\n    tag_165:\n        /* \"#utility.yul\":24046:24052   */\n      0x00\n        /* \"#utility.yul\":24095:24097   */\n      0x20\n        /* \"#utility.yul\":24083:24092   */\n      dup3\n        /* \"#utility.yul\":24074:24081   */\n      dup5\n        /* \"#utility.yul\":24070:24093   */\n      sub\n        /* \"#utility.yul\":24066:24098   */\n      slt\n        /* \"#utility.yul\":24063:24182   */\n      iszero\n      tag_602\n      jumpi\n        /* \"#utility.yul\":24101:24180   */\n      tag_603\n      tag_266\n      jump\t// in\n    tag_603:\n        /* \"#utility.yul\":24063:24182   */\n    tag_602:\n        /* \"#utility.yul\":24221:24222   */\n      0x00\n        /* \"#utility.yul\":24246:24310   */\n      tag_604\n        /* \"#utility.yul\":24302:24309   */\n      dup5\n        /* \"#utility.yul\":24293:24299   */\n      dup3\n        /* \"#utility.yul\":24282:24291   */\n      dup6\n        /* \"#utility.yul\":24278:24300   */\n      add\n        /* \"#utility.yul\":24246:24310   */\n      tag_329\n      jump\t// in\n    tag_604:\n        /* \"#utility.yul\":24236:24310   */\n      swap2\n      pop\n        /* \"#utility.yul\":24192:24320   */\n      pop\n        /* \"#utility.yul\":23976:24327   */\n      swap3\n      swap2\n      pop\n      pop\n      jump\t// out\n        /* \"#utility.yul\":24333:24412   */\n    tag_330:\n        /* \"#utility.yul\":24372:24379   */\n      0x00\n        /* \"#utility.yul\":24401:24406   */\n      dup2\n        /* \"#utility.yul\":24390:24406   */\n      swap1\n      pop\n        /* \"#utility.yul\":24333:24412   */\n      swap2\n      swap1\n      pop\n      jump\t// out\n        /* \"#utility.yul\":24418:24575   */\n    tag_331:\n        /* \"#utility.yul\":24523:24568   */\n      tag_607\n        /* \"#utility.yul\":24543:24567   */\n      tag_608\n        /* \"#utility.yul\":24561:24566   */\n      dup3\n        /* \"#utility.yul\":24543:24567   */\n      tag_273\n      jump\t// in\n    tag_608:\n        /* \"#utility.yul\":24523:24568   */\n      tag_330\n      jump\t// in\n    tag_607:\n        /* \"#utility.yul\":24518:24521   */\n      dup3\n        /* \"#utility.yul\":24511:24569   */\n      mstore\n        /* \"#utility.yul\":24418:24575   */\n      pop\n      pop\n      jump\t// out\n        /* \"#utility.yul\":24581:24837   */\n    tag_168:\n        /* \"#utility.yul\":24693:24696   */\n      0x00\n        /* \"#utility.yul\":24708:24783   */\n      tag_610\n        /* \"#utility.yul\":24779:24782   */\n      dup3\n        /* \"#utility.yul\":24770:24776   */\n      dup5\n        /* \"#utility.yul\":24708:24783   */\n      tag_331\n      jump\t// in\n    tag_610:\n        /* \"#utility.yul\":24808:24810   */\n      0x20\n        /* \"#utility.yul\":24803:24806   */\n      dup3\n        /* \"#utility.yul\":24799:24811   */\n      add\n        /* \"#utility.yul\":24792:24811   */\n      swap2\n      pop\n        /* \"#utility.yul\":24828:24831   */\n      dup2\n        /* \"#utility.yul\":24821:24831   */\n      swap1\n      pop\n        /* \"#utility.yul\":24581:24837   */\n      swap3\n      swap2\n      pop\n      pop\n      jump\t// out\n        /* \"#utility.yul\":24843:25023   */\n    tag_179:\n        /* \"#utility.yul\":24891:24968   */\n      0x4e487b7100000000000000000000000000000000000000000000000000000000\n        /* \"#utility.yul\":24888:24889   */\n      0x00\n        /* \"#utility.yul\":24881:24969   */\n      mstore\n        /* \"#utility.yul\":24988:24992   */\n      0x32\n        /* \"#utility.yul\":24985:24986   */\n      0x04\n        /* \"#utility.yul\":24978:24993   */\n      mstore\n        /* \"#utility.yul\":25012:25016   */\n      0x24\n        /* \"#utility.yul\":25009:25010   */\n      0x00\n        /* \"#utility.yul\":25002:25017   */\n      revert\n        /* \"#utility.yul\":25029:25127   */\n    tag_332:\n        /* \"#utility.yul\":25080:25086   */\n      0x00\n        /* \"#utility.yul\":25114:25119   */\n      dup2\n        /* \"#utility.yul\":25108:25120   */\n      mload\n        /* \"#utility.yul\":25098:25120   */\n      swap1\n      pop\n        /* \"#utility.yul\":25029:25127   */\n      swap2\n      swap1\n      pop\n      jump\t// out\n        /* \"#utility.yul\":25133:25249   */\n    tag_333:\n        /* \"#utility.yul\":25184:25188   */\n      0x00\n        /* \"#utility.yul\":25207:25210   */\n      dup2\n        /* \"#utility.yul\":25199:25210   */\n      swap1\n      pop\n        /* \"#utility.yul\":25237:25241   */\n      0x20\n        /* \"#utility.yul\":25232:25235   */\n      dup3\n        /* \"#utility.yul\":25228:25242   */\n      add\n        /* \"#utility.yul\":25220:25242   */\n      swap1\n      pop\n        /* \"#utility.yul\":25133:25249   */\n      swap2\n      swap1\n      pop\n      jump\t// out\n        /* \"#utility.yul\":25255:25409   */\n    tag_334:\n        /* \"#utility.yul\":25298:25309   */\n      0x00\n        /* \"#utility.yul\":25334:25363   */\n      tag_615\n        /* \"#utility.yul\":25358:25361   */\n      dup3\n        /* \"#utility.yul\":25352:25362   */\n      mload\n        /* \"#utility.yul\":25334:25363   */\n      tag_293\n      jump\t// in\n    tag_615:\n        /* \"#utility.yul\":25397:25402   */\n      dup1\n        /* \"#utility.yul\":25373:25402   */\n      swap2\n      pop\n        /* \"#utility.yul\":25310:25409   */\n      pop\n        /* \"#utility.yul\":25255:25409   */\n      swap2\n      swap1\n      pop\n      jump\t// out\n        /* \"#utility.yul\":25415:25522   */\n    tag_335:\n        /* \"#utility.yul\":25459:25467   */\n      0x00\n        /* \"#utility.yul\":25509:25514   */\n      dup3\n        /* \"#utility.yul\":25503:25507   */\n      dup3\n        /* \"#utility.yul\":25499:25515   */\n      shl\n        /* \"#utility.yul\":25478:25515   */\n      swap1\n      pop\n        /* \"#utility.yul\":25415:25522   */\n      swap3\n      swap2\n      pop\n      pop\n      jump\t// out\n        /* \"#utility.yul\":25528:26122   */\n    tag_183:\n        /* \"#utility.yul\":25612:25617   */\n      0x00\n        /* \"#utility.yul\":25643:25681   */\n      tag_618\n        /* \"#utility.yul\":25675:25680   */\n      dup3\n        /* \"#utility.yul\":25643:25681   */\n      tag_332\n      jump\t// in\n    tag_618:\n        /* \"#utility.yul\":25706:25711   */\n      dup3\n        /* \"#utility.yul\":25733:25773   */\n      tag_619\n        /* \"#utility.yul\":25767:25772   */\n      dup5\n        /* \"#utility.yul\":25733:25773   */\n      tag_333\n      jump\t// in\n    tag_619:\n        /* \"#utility.yul\":25721:25773   */\n      swap1\n      pop\n        /* \"#utility.yul\":25792:25827   */\n      tag_620\n        /* \"#utility.yul\":25818:25826   */\n      dup2\n        /* \"#utility.yul\":25792:25827   */\n      tag_334\n      jump\t// in\n    tag_620:\n        /* \"#utility.yul\":25783:25827   */\n      swap3\n      pop\n        /* \"#utility.yul\":25851:25853   */\n      0x0a\n        /* \"#utility.yul\":25843:25849   */\n      dup3\n        /* \"#utility.yul\":25840:25854   */\n      lt\n        /* \"#utility.yul\":25837:26115   */\n      iszero\n      tag_621\n      jumpi\n        /* \"#utility.yul\":25922:26091   */\n      tag_622\n        /* \"#utility.yul\":26007:26073   */\n      0xffffffffffffffffffff00000000000000000000000000000000000000000000\n        /* \"#utility.yul\":25977:25983   */\n      dup4\n        /* \"#utility.yul\":25973:25975   */\n      0x0a\n        /* \"#utility.yul\":25969:25984   */\n      sub\n        /* \"#utility.yul\":25966:25967   */\n      0x08\n        /* \"#utility.yul\":25962:25985   */\n      mul\n        /* \"#utility.yul\":25922:26091   */\n      tag_335\n      jump\t// in\n    tag_622:\n        /* \"#utility.yul\":25899:25904   */\n      dup4\n        /* \"#utility.yul\":25878:26105   */\n      and\n        /* \"#utility.yul\":25869:26105   */\n      swap3\n      pop\n        /* \"#utility.yul\":25837:26115   */\n    tag_621:\n        /* \"#utility.yul\":25618:26122   */\n      pop\n      pop\n        /* \"#utility.yul\":25528:26122   */\n      swap2\n      swap1\n      pop\n      jump\t// out\n        /* \"#utility.yul\":26128:26371   */\n    tag_336:\n        /* \"#utility.yul\":26268:26302   */\n      0x466f7277617264657220616464726573732073657420746f207a65726f202d20\n        /* \"#utility.yul\":26264:26265   */\n      0x00\n        /* \"#utility.yul\":26256:26262   */\n      dup3\n        /* \"#utility.yul\":26252:26266   */\n      add\n        /* \"#utility.yul\":26245:26303   */\n      mstore\n        /* \"#utility.yul\":26337:26363   */\n      0x636f6e7472616374206973206e6f7720494e5345435552450000000000000000\n        /* \"#utility.yul\":26332:26334   */\n      0x20\n        /* \"#utility.yul\":26324:26330   */\n      dup3\n        /* \"#utility.yul\":26320:26335   */\n      add\n        /* \"#utility.yul\":26313:26364   */\n      mstore\n        /* \"#utility.yul\":26128:26371   */\n      pop\n      jump\t// out\n        /* \"#utility.yul\":26377:26743   */\n    tag_337:\n        /* \"#utility.yul\":26519:26522   */\n      0x00\n        /* \"#utility.yul\":26540:26607   */\n      tag_625\n        /* \"#utility.yul\":26604:26606   */\n      0x38\n        /* \"#utility.yul\":26599:26602   */\n      dup4\n        /* \"#utility.yul\":26540:26607   */\n      tag_299\n      jump\t// in\n    tag_625:\n        /* \"#utility.yul\":26533:26607   */\n      swap2\n      pop\n        /* \"#utility.yul\":26616:26709   */\n      tag_626\n        /* \"#utility.yul\":26705:26708   */\n      dup3\n        /* \"#utility.yul\":26616:26709   */\n      tag_336\n      jump\t// in\n    tag_626:\n        /* \"#utility.yul\":26734:26736   */\n      0x40\n        /* \"#utility.yul\":26729:26732   */\n      dup3\n        /* \"#utility.yul\":26725:26737   */\n      add\n        /* \"#utility.yul\":26718:26737   */\n      swap1\n      pop\n        /* \"#utility.yul\":26377:26743   */\n      swap2\n      swap1\n      pop\n      jump\t// out\n        /* \"#utility.yul\":26749:27168   */\n    tag_195:\n        /* \"#utility.yul\":26915:26919   */\n      0x00\n        /* \"#utility.yul\":26953:26955   */\n      0x20\n        /* \"#utility.yul\":26942:26951   */\n      dup3\n        /* \"#utility.yul\":26938:26956   */\n      add\n        /* \"#utility.yul\":26930:26956   */\n      swap1\n      pop\n        /* \"#utility.yul\":27002:27011   */\n      dup2\n        /* \"#utility.yul\":26996:27000   */\n      dup2\n        /* \"#utility.yul\":26992:27012   */\n      sub\n        /* \"#utility.yul\":26988:26989   */\n      0x00\n        /* \"#utility.yul\":26977:26986   */\n      dup4\n        /* \"#utility.yul\":26973:26990   */\n      add\n        /* \"#utility.yul\":26966:27013   */\n      mstore\n        /* \"#utility.yul\":27030:27161   */\n      tag_628\n        /* \"#utility.yul\":27156:27160   */\n      dup2\n        /* \"#utility.yul\":27030:27161   */\n      tag_337\n      jump\t// in\n    tag_628:\n        /* \"#utility.yul\":27022:27161   */\n      swap1\n      pop\n        /* \"#utility.yul\":26749:27168   */\n      swap2\n      swap1\n      pop\n      jump\t// out\n        /* \"#utility.yul\":27174:27278   */\n    tag_338:\n        /* \"#utility.yul\":27219:27226   */\n      0x00\n        /* \"#utility.yul\":27248:27272   */\n      tag_630\n        /* \"#utility.yul\":27266:27271   */\n      dup3\n        /* \"#utility.yul\":27248:27272   */\n      tag_279\n      jump\t// in\n    tag_630:\n        /* \"#utility.yul\":27237:27272   */\n      swap1\n      pop\n        /* \"#utility.yul\":27174:27278   */\n      swap2\n      swap1\n      pop\n      jump\t// out\n        /* \"#utility.yul\":27284:27422   */\n    tag_339:\n        /* \"#utility.yul\":27365:27397   */\n      tag_632\n        /* \"#utility.yul\":27391:27396   */\n      dup2\n        /* \"#utility.yul\":27365:27397   */\n      tag_338\n      jump\t// in\n    tag_632:\n        /* \"#utility.yul\":27358:27363   */\n      dup2\n        /* \"#utility.yul\":27355:27398   */\n      eq\n        /* \"#utility.yul\":27345:27416   */\n      tag_633\n      jumpi\n        /* \"#utility.yul\":27412:27413   */\n      0x00\n        /* \"#utility.yul\":27409:27410   */\n      0x00\n        /* \"#utility.yul\":27402:27414   */\n      revert\n        /* \"#utility.yul\":27345:27416   */\n    tag_633:\n        /* \"#utility.yul\":27284:27422   */\n      pop\n      jump\t// out\n        /* \"#utility.yul\":27428:27583   */\n    tag_340:\n        /* \"#utility.yul\":27482:27487   */\n      0x00\n        /* \"#utility.yul\":27520:27526   */\n      dup2\n        /* \"#utility.yul\":27507:27527   */\n      calldataload\n        /* \"#utility.yul\":27498:27527   */\n      swap1\n      pop\n        /* \"#utility.yul\":27536:27577   */\n      tag_635\n        /* \"#utility.yul\":27571:27576   */\n      dup2\n        /* \"#utility.yul\":27536:27577   */\n      tag_339\n      jump\t// in\n    tag_635:\n        /* \"#utility.yul\":27428:27583   */\n      swap3\n      swap2\n      pop\n      pop\n      jump\t// out\n        /* \"#utility.yul\":27589:28079   */\n    tag_216:\n        /* \"#utility.yul\":27665:27671   */\n      0x00\n        /* \"#utility.yul\":27673:27679   */\n      0x00\n        /* \"#utility.yul\":27722:27724   */\n      0x40\n        /* \"#utility.yul\":27710:27719   */\n      dup4\n        /* \"#utility.yul\":27701:27708   */\n      dup6\n        /* \"#utility.yul\":27697:27720   */\n      sub\n        /* \"#utility.yul\":27693:27725   */\n      slt\n        /* \"#utility.yul\":27690:27809   */\n      iszero\n      tag_637\n      jumpi\n        /* \"#utility.yul\":27728:27807   */\n      tag_638\n      tag_266\n      jump\t// in\n    tag_638:\n        /* \"#utility.yul\":27690:27809   */\n    tag_637:\n        /* \"#utility.yul\":27848:27849   */\n      0x00\n        /* \"#utility.yul\":27873:27934   */\n      tag_639\n        /* \"#utility.yul\":27926:27933   */\n      dup6\n        /* \"#utility.yul\":27917:27923   */\n      dup3\n        /* \"#utility.yul\":27906:27915   */\n      dup7\n        /* \"#utility.yul\":27902:27924   */\n      add\n        /* \"#utility.yul\":27873:27934   */\n      tag_340\n      jump\t// in\n    tag_639:\n        /* \"#utility.yul\":27863:27934   */\n      swap3\n      pop\n        /* \"#utility.yul\":27819:27944   */\n      pop\n        /* \"#utility.yul\":27983:27985   */\n      0x20\n        /* \"#utility.yul\":28009:28062   */\n      tag_640\n        /* \"#utility.yul\":28054:28061   */\n      dup6\n        /* \"#utility.yul\":28045:28051   */\n      dup3\n        /* \"#utility.yul\":28034:28043   */\n      dup7\n        /* \"#utility.yul\":28030:28052   */\n      add\n        /* \"#utility.yul\":28009:28062   */\n      tag_278\n      jump\t// in\n    tag_640:\n        /* \"#utility.yul\":27999:28062   */\n      swap2\n      pop\n        /* \"#utility.yul\":27954:28072   */\n      pop\n        /* \"#utility.yul\":27589:28079   */\n      swap3\n      pop\n      swap3\n      swap1\n      pop\n      jump\t// out\n        /* \"#utility.yul\":28085:28244   */\n    tag_341:\n        /* \"#utility.yul\":28150:28155   */\n      0x00\n        /* \"#utility.yul\":28181:28187   */\n      dup2\n        /* \"#utility.yul\":28175:28188   */\n      mload\n        /* \"#utility.yul\":28166:28188   */\n      swap1\n      pop\n        /* \"#utility.yul\":28197:28238   */\n      tag_642\n        /* \"#utility.yul\":28232:28237   */\n      dup2\n        /* \"#utility.yul\":28197:28238   */\n      tag_339\n      jump\t// in\n    tag_642:\n        /* \"#utility.yul\":28085:28244   */\n      swap3\n      swap2\n      pop\n      pop\n      jump\t// out\n        /* \"#utility.yul\":28250:28617   */\n    tag_221:\n        /* \"#utility.yul\":28328:28334   */\n      0x00\n        /* \"#utility.yul\":28377:28379   */\n      0x20\n        /* \"#utility.yul\":28365:28374   */\n      dup3\n        /* \"#utility.yul\":28356:28363   */\n      dup5\n        /* \"#utility.yul\":28352:28375   */\n      sub\n        /* \"#utility.yul\":28348:28380   */\n      slt\n        /* \"#utility.yul\":28345:28464   */\n      iszero\n      tag_644\n      jumpi\n        /* \"#utility.yul\":28383:28462   */\n      tag_645\n      tag_266\n      jump\t// in\n    tag_645:\n        /* \"#utility.yul\":28345:28464   */\n    tag_644:\n        /* \"#utility.yul\":28503:28504   */\n      0x00\n        /* \"#utility.yul\":28528:28600   */\n      tag_646\n        /* \"#utility.yul\":28592:28599   */\n      dup5\n        /* \"#utility.yul\":28583:28589   */\n      dup3\n        /* \"#utility.yul\":28572:28581   */\n      dup6\n        /* \"#utility.yul\":28568:28590   */\n      add\n        /* \"#utility.yul\":28528:28600   */\n      tag_341\n      jump\t// in\n    tag_646:\n        /* \"#utility.yul\":28518:28600   */\n      swap2\n      pop\n        /* \"#utility.yul\":28474:28610   */\n      pop\n        /* \"#utility.yul\":28250:28617   */\n      swap3\n      swap2\n      pop\n      pop\n      jump\t// out\n        /* \"#utility.yul\":28623:28803   */\n    tag_342:\n        /* \"#utility.yul\":28671:28748   */\n      0x4e487b7100000000000000000000000000000000000000000000000000000000\n        /* \"#utility.yul\":28668:28669   */\n      0x00\n        /* \"#utility.yul\":28661:28749   */\n      mstore\n        /* \"#utility.yul\":28768:28772   */\n      0x11\n        /* \"#utility.yul\":28765:28766   */\n      0x04\n        /* \"#utility.yul\":28758:28773   */\n      mstore\n        /* \"#utility.yul\":28792:28796   */\n      0x24\n        /* \"#utility.yul\":28789:28790   */\n      0x00\n        /* \"#utility.yul\":28782:28797   */\n      revert\n        /* \"#utility.yul\":28809:29219   */\n    tag_227:\n        /* \"#utility.yul\":28849:28856   */\n      0x00\n        /* \"#utility.yul\":28872:28892   */\n      tag_649\n        /* \"#utility.yul\":28890:28891   */\n      dup3\n        /* \"#utility.yul\":28872:28892   */\n      tag_276\n      jump\t// in\n    tag_649:\n        /* \"#utility.yul\":28867:28892   */\n      swap2\n      pop\n        /* \"#utility.yul\":28906:28926   */\n      tag_650\n        /* \"#utility.yul\":28924:28925   */\n      dup4\n        /* \"#utility.yul\":28906:28926   */\n      tag_276\n      jump\t// in\n    tag_650:\n        /* \"#utility.yul\":28901:28926   */\n      swap3\n      pop\n        /* \"#utility.yul\":28961:28962   */\n      dup3\n        /* \"#utility.yul\":28958:28959   */\n      dup3\n        /* \"#utility.yul\":28954:28963   */\n      mul\n        /* \"#utility.yul\":28983:29013   */\n      tag_651\n        /* \"#utility.yul\":29001:29012   */\n      dup2\n        /* \"#utility.yul\":28983:29013   */\n      tag_276\n      jump\t// in\n    tag_651:\n        /* \"#utility.yul\":28972:29013   */\n      swap2\n      pop\n        /* \"#utility.yul\":29162:29163   */\n      dup3\n        /* \"#utility.yul\":29153:29160   */\n      dup3\n        /* \"#utility.yul\":29149:29164   */\n      div\n        /* \"#utility.yul\":29146:29147   */\n      dup5\n        /* \"#utility.yul\":29143:29165   */\n      eq\n        /* \"#utility.yul\":29123:29124   */\n      dup4\n        /* \"#utility.yul\":29116:29125   */\n      iszero\n        /* \"#utility.yul\":29096:29179   */\n      or\n        /* \"#utility.yul\":29073:29212   */\n      tag_652\n      jumpi\n        /* \"#utility.yul\":29192:29210   */\n      tag_653\n      tag_342\n      jump\t// in\n    tag_653:\n        /* \"#utility.yul\":29073:29212   */\n    tag_652:\n        /* \"#utility.yul\":28857:29219   */\n      pop\n        /* \"#utility.yul\":28809:29219   */\n      swap3\n      swap2\n      pop\n      pop\n      jump\t// out\n        /* \"#utility.yul\":29225:29416   */\n    tag_247:\n        /* \"#utility.yul\":29265:29268   */\n      0x00\n        /* \"#utility.yul\":29284:29304   */\n      tag_655\n        /* \"#utility.yul\":29302:29303   */\n      dup3\n        /* \"#utility.yul\":29284:29304   */\n      tag_276\n      jump\t// in\n    tag_655:\n        /* \"#utility.yul\":29279:29304   */\n      swap2\n      pop\n        /* \"#utility.yul\":29318:29338   */\n      tag_656\n        /* \"#utility.yul\":29336:29337   */\n      dup4\n        /* \"#utility.yul\":29318:29338   */\n      tag_276\n      jump\t// in\n    tag_656:\n        /* \"#utility.yul\":29313:29338   */\n      swap3\n      pop\n        /* \"#utility.yul\":29361:29362   */\n      dup3\n        /* \"#utility.yul\":29358:29359   */\n      dup3\n        /* \"#utility.yul\":29354:29363   */\n      add\n        /* \"#utility.yul\":29347:29363   */\n      swap1\n      pop\n        /* \"#utility.yul\":29382:29385   */\n      dup1\n        /* \"#utility.yul\":29379:29380   */\n      dup3\n        /* \"#utility.yul\":29376:29386   */\n      gt\n        /* \"#utility.yul\":29373:29409   */\n      iszero\n      tag_657\n      jumpi\n        /* \"#utility.yul\":29389:29407   */\n      tag_658\n      tag_342\n      jump\t// in\n    tag_658:\n        /* \"#utility.yul\":29373:29409   */\n    tag_657:\n        /* \"#utility.yul\":29225:29416   */\n      swap3\n      swap2\n      pop\n      pop\n      jump\t// out\n        /* \"#utility.yul\":29422:29594   */\n    tag_343:\n        /* \"#utility.yul\":29562:29586   */\n      0x536861646f773a207a65726f20726563697069656e7400000000000000000000\n        /* \"#utility.yul\":29558:29559   */\n      0x00\n        /* \"#utility.yul\":29550:29556   */\n      dup3\n        /* \"#utility.yul\":29546:29560   */\n      add\n        /* \"#utility.yul\":29539:29587   */\n      mstore\n        /* \"#utility.yul\":29422:29594   */\n      pop\n      jump\t// out\n        /* \"#utility.yul\":29600:29966   */\n    tag_344:\n        /* \"#utility.yul\":29742:29745   */\n      0x00\n        /* \"#utility.yul\":29763:29830   */\n      tag_661\n        /* \"#utility.yul\":29827:29829   */\n      0x16\n        /* \"#utility.yul\":29822:29825   */\n      dup4\n        /* \"#utility.yul\":29763:29830   */\n      tag_299\n      jump\t// in\n    tag_661:\n        /* \"#utility.yul\":29756:29830   */\n      swap2\n      pop\n        /* \"#utility.yul\":29839:29932   */\n      tag_662\n        /* \"#utility.yul\":29928:29931   */\n      dup3\n        /* \"#utility.yul\":29839:29932   */\n      tag_343\n      jump\t// in\n    tag_662:\n        /* \"#utility.yul\":29957:29959   */\n      0x20\n        /* \"#utility.yul\":29952:29955   */\n      dup3\n        /* \"#utility.yul\":29948:29960   */\n      add\n        /* \"#utility.yul\":29941:29960   */\n      swap1\n      pop\n        /* \"#utility.yul\":29600:29966   */\n      swap2\n      swap1\n      pop\n      jump\t// out\n        /* \"#utility.yul\":29972:30391   */\n    tag_254:\n        /* \"#utility.yul\":30138:30142   */\n      0x00\n        /* \"#utility.yul\":30176:30178   */\n      0x20\n        /* \"#utility.yul\":30165:30174   */\n      dup3\n        /* \"#utility.yul\":30161:30179   */\n      add\n        /* \"#utility.yul\":30153:30179   */\n      swap1\n      pop\n        /* \"#utility.yul\":30225:30234   */\n      dup2\n        /* \"#utility.yul\":30219:30223   */\n      dup2\n        /* \"#utility.yul\":30215:30235   */\n      sub\n        /* \"#utility.yul\":30211:30212   */\n      0x00\n        /* \"#utility.yul\":30200:30209   */\n      dup4\n        /* \"#utility.yul\":30196:30213   */\n      add\n        /* \"#utility.yul\":30189:30236   */\n      mstore\n        /* \"#utility.yul\":30253:30384   */\n      tag_664\n        /* \"#utility.yul\":30379:30383   */\n      dup2\n        /* \"#utility.yul\":30253:30384   */\n      tag_344\n      jump\t// in\n    tag_664:\n        /* \"#utility.yul\":30245:30384   */\n      swap1\n      pop\n        /* \"#utility.yul\":29972:30391   */\n      swap2\n      swap1\n      pop\n      jump\t// out\n        /* \"#utility.yul\":30397:30729   */\n    tag_256:\n        /* \"#utility.yul\":30518:30522   */\n      0x00\n        /* \"#utility.yul\":30556:30558   */\n      0x40\n        /* \"#utility.yul\":30545:30554   */\n      dup3\n        /* \"#utility.yul\":30541:30559   */\n      add\n        /* \"#utility.yul\":30533:30559   */\n      swap1\n      pop\n        /* \"#utility.yul\":30569:30640   */\n      tag_666\n        /* \"#utility.yul\":30637:30638   */\n      0x00\n        /* \"#utility.yul\":30626:30635   */\n      dup4\n        /* \"#utility.yul\":30622:30639   */\n      add\n        /* \"#utility.yul\":30613:30619   */\n      dup6\n        /* \"#utility.yul\":30569:30640   */\n      tag_281\n      jump\t// in\n    tag_666:\n        /* \"#utility.yul\":30650:30722   */\n      tag_667\n        /* \"#utility.yul\":30718:30720   */\n      0x20\n        /* \"#utility.yul\":30707:30716   */\n      dup4\n        /* \"#utility.yul\":30703:30721   */\n      add\n        /* \"#utility.yul\":30694:30700   */\n      dup5\n        /* \"#utility.yul\":30650:30722   */\n      tag_302\n      jump\t// in\n    tag_667:\n        /* \"#utility.yul\":30397:30729   */\n      swap4\n      swap3\n      pop\n      pop\n      pop\n      jump\t// out\n        /* \"#utility.yul\":30735:30898   */\n    tag_345:\n        /* \"#utility.yul\":30875:30890   */\n      0x5061796f7574206661696c656400000000000000000000000000000000000000\n        /* \"#utility.yul\":30871:30872   */\n      0x00\n        /* \"#utility.yul\":30863:30869   */\n      dup3\n        /* \"#utility.yul\":30859:30873   */\n      add\n        /* \"#utility.yul\":30852:30891   */\n      mstore\n        /* \"#utility.yul\":30735:30898   */\n      pop\n      jump\t// out\n        /* \"#utility.yul\":30904:31270   */\n    tag_346:\n        /* \"#utility.yul\":31046:31049   */\n      0x00\n        /* \"#utility.yul\":31067:31134   */\n      tag_670\n        /* \"#utility.yul\":31131:31133   */\n      0x0d\n        /* \"#utility.yul\":31126:31129   */\n      dup4\n        /* \"#utility.yul\":31067:31134   */\n      tag_299\n      jump\t// in\n    tag_670:\n        /* \"#utility.yul\":31060:31134   */\n      swap2\n      pop\n        /* \"#utility.yul\":31143:31236   */\n      tag_671\n        /* \"#utility.yul\":31232:31235   */\n      dup3\n        /* \"#utility.yul\":31143:31236   */\n      tag_345\n      jump\t// in\n    tag_671:\n        /* \"#utility.yul\":31261:31263   */\n      0x20\n        /* \"#utility.yul\":31256:31259   */\n      dup3\n        /* \"#utility.yul\":31252:31264   */\n      add\n        /* \"#utility.yul\":31245:31264   */\n      swap1\n      pop\n        /* \"#utility.yul\":30904:31270   */\n      swap2\n      swap1\n      pop\n      jump\t// out\n        /* \"#utility.yul\":31276:31695   */\n    tag_262:\n        /* \"#utility.yul\":31442:31446   */\n      0x00\n        /* \"#utility.yul\":31480:31482   */\n      0x20\n        /* \"#utility.yul\":31469:31478   */\n      dup3\n        /* \"#utility.yul\":31465:31483   */\n      add\n        /* \"#utility.yul\":31457:31483   */\n      swap1\n      pop\n        /* \"#utility.yul\":31529:31538   */\n      dup2\n        /* \"#utility.yul\":31523:31527   */\n      dup2\n        /* \"#utility.yul\":31519:31539   */\n      sub\n        /* \"#utility.yul\":31515:31516   */\n      0x00\n        /* \"#utility.yul\":31504:31513   */\n      dup4\n        /* \"#utility.yul\":31500:31517   */\n      add\n        /* \"#utility.yul\":31493:31540   */\n      mstore\n        /* \"#utility.yul\":31557:31688   */\n      tag_673\n        /* \"#utility.yul\":31683:31687   */\n      dup2\n        /* \"#utility.yul\":31557:31688   */\n      tag_346\n      jump\t// in\n    tag_673:\n        /* \"#utility.yul\":31549:31688   */\n      swap1\n      pop\n        /* \"#utility.yul\":31276:31695   */\n      swap2\n      swap1\n      pop\n      jump\t// out\n        /* \"#utility.yul\":31701:31923   */\n    tag_264:\n        /* \"#utility.yul\":31794:31798   */\n      0x00\n        /* \"#utility.yul\":31832:31834   */\n      0x20\n        /* \"#utility.yul\":31821:31830   */\n      dup3\n        /* \"#utility.yul\":31817:31835   */\n      add\n        /* \"#utility.yul\":31809:31835   */\n      swap1\n      pop\n        /* \"#utility.yul\":31845:31916   */\n      tag_675\n        /* \"#utility.yul\":31913:31914   */\n      0x00\n        /* \"#utility.yul\":31902:31911   */\n      dup4\n        /* \"#utility.yul\":31898:31915   */\n      add\n        /* \"#utility.yul\":31889:31895   */\n      dup5\n        /* \"#utility.yul\":31845:31916   */\n      tag_302\n      jump\t// in\n    tag_675:\n        /* \"#utility.yul\":31701:31923   */\n      swap3\n      swap2\n      pop\n      pop\n      jump\t// out\n\n    auxdata: 0xa2646970667358221220604cc1ba15733ec9115db20f338a69c70aba87791ab8b272fb71f1278c868a3264736f6c634300081f0033\n}\n",
				"bytecode": {
					"linkReferences": {},
					"object": "60c060405234801561000f575f5ffd5b50604051612cd5380380612cd583398181016040528101906100319190610422565b8133825f73ffffffffffffffffffffffffffffffffffffffff168173ffffffffffffffffffffffffffffffffffffffff16036100a4575f6040517fd7f7333400000000000000000000000000000000000000000000000000000000815260040161009b9190610481565b60405180910390fd5b8073ffffffffffffffffffffffffffffffffffffffff1660808173ffffffffffffffffffffffffffffffffffffffff1681525050505f73ffffffffffffffffffffffffffffffffffffffff168173ffffffffffffffffffffffffffffffffffffffff1603610149575f6040517f1e4fbdf70000000000000000000000000000000000000000000000000000000081526004016101409190610481565b60405180910390fd5b6101588161030360201b60201c565b505f73ffffffffffffffffffffffffffffffffffffffff168173ffffffffffffffffffffffffffffffffffffffff16036101be576040517f381dd54000000000000000000000000000000000000000000000000000000000815260040160405180910390fd5b8060015f6101000a81548173ffffffffffffffffffffffffffffffffffffffff021916908373ffffffffffffffffffffffffffffffffffffffff1602179055508073ffffffffffffffffffffffffffffffffffffffff165f73ffffffffffffffffffffffffffffffffffffffff167f039ad854736757070884dd787ef1a7f58db33546639d1f3efddcf4a33fb8997e60405160405180910390a3505f73ffffffffffffffffffffffffffffffffffffffff168373ffffffffffffffffffffffffffffffffffffffff16036102c7576040517f08c379a00000000000000000000000000000000000000000000000000000000081526004016102be906104f4565b60405180910390fd5b8273ffffffffffffffffffffffffffffffffffffffff1660a08173ffffffffffffffffffffffffffffffffffffffff1681525050505050610512565b5f5f5f9054906101000a900473ffffffffffffffffffffffffffffffffffffffff169050815f5f6101000a81548173ffffffffffffffffffffffffffffffffffffffff021916908373ffffffffffffffffffffffffffffffffffffffff1602179055508173ffffffffffffffffffffffffffffffffffffffff168173ffffffffffffffffffffffffffffffffffffffff167f8be0079c531659141344cd1fd0a4f28419497f9722a3daafe3b4186f6b6457e060405160405180910390a35050565b5f5ffd5b5f73ffffffffffffffffffffffffffffffffffffffff82169050919050565b5f6103f1826103c8565b9050919050565b610401816103e7565b811461040b575f5ffd5b50565b5f8151905061041c816103f8565b92915050565b5f5f5f60608486031215610439576104386103c4565b5b5f6104468682870161040e565b93505060206104578682870161040e565b92505060406104688682870161040e565b9150509250925092565b61047b816103e7565b82525050565b5f6020820190506104945f830184610472565b92915050565b5f82825260208201905092915050565b7f536861646f773a207a65726f20555344432061646472657373000000000000005f82015250565b5f6104de60198361049a565b91506104e9826104aa565b602082019050919050565b5f6020820190508181035f83015261050b816104d2565b9050919050565b60805160a0516127946105415f395f8181610375015281816104f5015261165201525f610b4b01526127945ff3fe608060405234801561000f575f5ffd5b5060043610610114575f3560e01c80638da5cb5b116100a0578063c3c44ac21161006f578063c3c44ac214610292578063d60c884b146102ae578063d777cc6d146102ca578063f2fde38b146102e6578063f5c793ef1461030257610114565b80638da5cb5b1461021c578063a619d8181461023a578063b0f479a114610258578063bc1fc27a1461027657610114565b80633e413bee116100e75780633e413bee146101a0578063410d1dac146101be578063715018a6146101da578063805f2132146101e457806385572ffb1461020057610114565b806301ffc9a7146101185780631de26e16146101485780633397cf67146101645780633441856f14610182575b5f5ffd5b610132600480360381019061012d91906117e2565b610320565b60405161013f9190611827565b60405180910390f35b610162600480360381019061015d91906118a6565b610331565b005b61016c6104a3565b6040516101799190611923565b60405180910390f35b61018a6104cb565b6040516101979190611923565b60405180910390f35b6101a86104f3565b6040516101b59190611997565b60405180910390f35b6101d860048036038101906101d39190611a11565b610517565b005b6101e261056d565b005b6101fe60048036038101906101f99190611a6e565b610580565b005b61021a60048036038101906102159190611b0e565b610a7f565b005b610224610b0b565b6040516102319190611923565b60405180910390f35b610242610b32565b60405161024f9190611b8f565b60405180910390f35b610260610b48565b60405161026d9190611923565b60405180910390f35b610290600480360381019061028b9190611bfd565b610b6f565b005b6102ac60048036038101906102a79190611c48565b610e13565b005b6102c860048036038101906102c39190611c9d565b610e5a565b005b6102e460048036038101906102df9190611c9d565b610f25565b005b61030060048036038101906102fb9190611c9d565b611059565b005b61030a6110dd565b6040516103179190611cd7565b60405180910390f35b5f61032a826110e6565b9050919050565b5f8111610373576040517f08c379a000000000000000000000000000000000000000000000000000000000815260040161036a90611d4a565b60405180910390fd5b7f000000000000000000000000000000000000000000000000000000000000000073ffffffffffffffffffffffffffffffffffffffff166323b872dd3330846040518463ffffffff1660e01b81526004016103d093929190611d77565b6020604051808303815f875af11580156103ec573d5f5f3e3d5ffd5b505050506040513d601f19601f820116820180604052508101906104109190611dd6565b61044f576040517f08c379a000000000000000000000000000000000000000000000000000000000815260040161044690611e4b565b60405180910390fd5b3373ffffffffffffffffffffffffffffffffffffffff167fa528a5618e16311d917a25d1b6f7d83f001f50e5b4bee369286d16c83784e22a8383604051610497929190611e69565b60405180910390a25050565b5f60025f9054906101000a900473ffffffffffffffffffffffffffffffffffffffff16905090565b5f60015f9054906101000a900473ffffffffffffffffffffffffffffffffffffffff16905090565b7f000000000000000000000000000000000000000000000000000000000000000081565b803373ffffffffffffffffffffffffffffffffffffffff167ff6604c3bcd7473aa76b7d82d56a4453e9b64a148ca27eb7c07e9f698093b5af58585604051610560929190611eea565b60405180910390a3505050565b6105756111b7565b61057e5f61123e565b565b5f73ffffffffffffffffffffffffffffffffffffffff1660015f9054906101000a900473ffffffffffffffffffffffffffffffffffffffff1673ffffffffffffffffffffffffffffffffffffffff161415801561062a575060015f9054906101000a900473ffffffffffffffffffffffffffffffffffffffff1673ffffffffffffffffffffffffffffffffffffffff163373ffffffffffffffffffffffffffffffffffffffff1614155b1561068f573360015f9054906101000a900473ffffffffffffffffffffffffffffffffffffffff166040517fe1130dba000000000000000000000000000000000000000000000000000000008152600401610686929190611f0c565b60405180910390fd5b5f5f1b6003541415806106ef57505f73ffffffffffffffffffffffffffffffffffffffff1660025f9054906101000a900473ffffffffffffffffffffffffffffffffffffffff1673ffffffffffffffffffffffffffffffffffffffff1614155b8061073e57505f60b01b75ffffffffffffffffffffffffffffffffffffffffffff1916600260149054906101000a900460b01b75ffffffffffffffffffffffffffffffffffffffffffff191614155b15610a6f575f5f5f61079287878080601f0160208091040260200160405190810160405280939291908181526020018383808284375f81840152601f19601f820116905080830192505050505050506112ff565b9250925092505f5f1b600354141580156107ae57506003548314155b156107f457826003546040517f9bfa39ba0000000000000000000000000000000000000000000000000000000081526004016107eb929190611f33565b60405180910390fd5b5f73ffffffffffffffffffffffffffffffffffffffff1660025f9054906101000a900473ffffffffffffffffffffffffffffffffffffffff1673ffffffffffffffffffffffffffffffffffffffff161415801561089e575060025f9054906101000a900473ffffffffffffffffffffffffffffffffffffffff1673ffffffffffffffffffffffffffffffffffffffff168173ffffffffffffffffffffffffffffffffffffffff1614155b15610903578060025f9054906101000a900473ffffffffffffffffffffffffffffffffffffffff166040517fb8a98af80000000000000000000000000000000000000000000000000000000081526004016108fa929190611f0c565b60405180910390fd5b5f60b01b75ffffffffffffffffffffffffffffffffffffffffffff1916600260149054906101000a900460b01b75ffffffffffffffffffffffffffffffffffffffffffff191614610a6b575f73ffffffffffffffffffffffffffffffffffffffff1660025f9054906101000a900473ffffffffffffffffffffffffffffffffffffffff1673ffffffffffffffffffffffffffffffffffffffff16036109d4576040517f4847901100000000000000000000000000000000000000000000000000000000815260040160405180910390fd5b600260149054906101000a900460b01b75ffffffffffffffffffffffffffffffffffffffffffff19168275ffffffffffffffffffffffffffffffffffffffffffff191614610a6a5781600260149054906101000a900460b01b6040517f6c4609a6000000000000000000000000000000000000000000000000000000008152600401610a61929190611f5a565b60405180910390fd5b5b5050505b610a798282611324565b50505050565b610a87610b48565b73ffffffffffffffffffffffffffffffffffffffff163373ffffffffffffffffffffffffffffffffffffffff1614610af657336040517fd7f73334000000000000000000000000000000000000000000000000000000008152600401610aed9190611923565b60405180910390fd5b610b0881610b03906122ca565b611349565b50565b5f5f5f9054906101000a900473ffffffffffffffffffffffffffffffffffffffff16905090565b5f600260149054906101000a900460b01b905090565b5f7f0000000000000000000000000000000000000000000000000000000000000000905090565b610b776111b7565b5f600260149054906101000a900460b01b90505f8383905003610c24575f60b01b600260146101000a81548169ffffffffffffffffffff021916908360b01c02179055505f60b01b75ffffffffffffffffffffffffffffffffffffffffffff19168175ffffffffffffffffffffffffffffffffffffffffffff19167f1e7ddd09d504c82dcfc784a464b167469f5aad967606ec4822d848ef9141dfa560405160405180910390a350610e0f565b5f60028484604051610c3792919061230a565b602060405180830381855afa158015610c52573d5f5f3e3d5ffd5b5050506040513d601f19601f82011682018060405250810190610c759190612336565b90505f610ca082604051602001610c8c9190612381565b604051602081830303815290604052611399565b90505f600a67ffffffffffffffff811115610cbe57610cbd611f85565b5b6040519080825280601f01601f191660200182016040528015610cf05781602001600182028036833780820191505090505b5090505f5f90505b600a811015610d6d57828181518110610d1457610d1361239b565b5b602001015160f81c60f81b828281518110610d3257610d3161239b565b5b60200101907effffffffffffffffffffffffffffffffffffffffffffffffffffffffffffff191690815f1a9053508080600101915050610cf8565b5080610d7890612401565b600260146101000a81548169ffffffffffffffffffff021916908360b01c0217905550600260149054906101000a900460b01b75ffffffffffffffffffffffffffffffffffffffffffff19168475ffffffffffffffffffffffffffffffffffffffffffff19167f1e7ddd09d504c82dcfc784a464b167469f5aad967606ec4822d848ef9141dfa560405160405180910390a3505050505b5050565b610e1b6111b7565b5f60035490508160038190555081817f0dbedcdf21925e053b4c574eae180d7f2883235ab4976ecc0873598a2a999b0360405160405180910390a35050565b610e626111b7565b5f60025f9054906101000a900473ffffffffffffffffffffffffffffffffffffffff1690508160025f6101000a81548173ffffffffffffffffffffffffffffffffffffffff021916908373ffffffffffffffffffffffffffffffffffffffff1602179055508173ffffffffffffffffffffffffffffffffffffffff168173ffffffffffffffffffffffffffffffffffffffff167f3321cda85c145617e47418aa14255e9dcbec53a753778e57591703b89a3cad3160405160405180910390a35050565b610f2d6111b7565b5f60015f9054906101000a900473ffffffffffffffffffffffffffffffffffffffff1690505f73ffffffffffffffffffffffffffffffffffffffff168273ffffffffffffffffffffffffffffffffffffffff1603610fbb577f704da7db165c79c1e33d542c079333bbde970a733032d2f95fec8fb7d770cbf7604051610fb2906124d7565b60405180910390a15b8160015f6101000a81548173ffffffffffffffffffffffffffffffffffffffff021916908373ffffffffffffffffffffffffffffffffffffffff1602179055508173ffffffffffffffffffffffffffffffffffffffff168173ffffffffffffffffffffffffffffffffffffffff167f039ad854736757070884dd787ef1a7f58db33546639d1f3efddcf4a33fb8997e60405160405180910390a35050565b6110616111b7565b5f73ffffffffffffffffffffffffffffffffffffffff168173ffffffffffffffffffffffffffffffffffffffff16036110d1575f6040517f1e4fbdf70000000000000000000000000000000000000000000000000000000081526004016110c89190611923565b60405180910390fd5b6110da8161123e565b50565b5f600354905090565b5f7f805f2132000000000000000000000000000000000000000000000000000000007bffffffffffffffffffffffffffffffffffffffffffffffffffffffff1916827bffffffffffffffffffffffffffffffffffffffffffffffffffffffff191614806111b057507f01ffc9a7000000000000000000000000000000000000000000000000000000007bffffffffffffffffffffffffffffffffffffffffffffffffffffffff1916827bffffffffffffffffffffffffffffffffffffffffffffffffffffffff1916145b9050919050565b6111bf6115db565b73ffffffffffffffffffffffffffffffffffffffff166111dd610b0b565b73ffffffffffffffffffffffffffffffffffffffff161461123c576112006115db565b6040517f118cdaa70000000000000000000000000000000000000000000000000000000081526004016112339190611923565b60405180910390fd5b565b5f5f5f9054906101000a900473ffffffffffffffffffffffffffffffffffffffff169050815f5f6101000a81548173ffffffffffffffffffffffffffffffffffffffff021916908373ffffffffffffffffffffffffffffffffffffffff1602179055508173ffffffffffffffffffffffffffffffffffffffff168173ffffffffffffffffffffffffffffffffffffffff167f8be0079c531659141344cd1fd0a4f28419497f9722a3daafe3b4186f6b6457e060405160405180910390a35050565b5f5f5f6020840151925060408401519150604a8401516008600c021c90509193909250565b5f5f83838101906113359190612530565b9150915061134382826115e2565b50505050565b5f81606001518060200190518101906113629190612582565b90505f82608001515f8151811061137c5761137b61239b565b5b602002602001015160200151905061139482826115e2565b505050565b60605f600283516113aa91906125da565b67ffffffffffffffff8111156113c3576113c2611f85565b5b6040519080825280601f01601f1916602001820160405280156113f55781602001600182028036833780820191505090505b5090505f5f90505b83518110156115d1576040518060400160405280601081526020017f303132333435363738396162636465660000000000000000000000000000000081525060048583815181106114515761145061239b565b5b602001015160f81c60f81b7effffffffffffffffffffffffffffffffffffffffffffffffffffffffffffff1916901c60f81c60ff16815181106114975761149661239b565b5b602001015160f81c60f81b826002836114b091906125da565b815181106114c1576114c061239b565b5b60200101907effffffffffffffffffffffffffffffffffffffffffffffffffffffffffffff191690815f1a9053506040518060400160405280601081526020017f3031323334353637383961626364656600000000000000000000000000000000815250600f60f81b85838151811061153d5761153c61239b565b5b602001015160f81c60f81b1660f81c60ff16815181106115605761155f61239b565b5b602001015160f81c60f81b82600160028461157b91906125da565b611585919061261b565b815181106115965761159561239b565b5b60200101907effffffffffffffffffffffffffffffffffffffffffffffffffffffffffffff191690815f1a90535080806001019150506113fd565b5080915050919050565b5f33905090565b5f73ffffffffffffffffffffffffffffffffffffffff168273ffffffffffffffffffffffffffffffffffffffff1603611650576040517f08c379a000000000000000000000000000000000000000000000000000000000815260040161164790612698565b60405180910390fd5b7f000000000000000000000000000000000000000000000000000000000000000073ffffffffffffffffffffffffffffffffffffffff1663a9059cbb83836040518363ffffffff1660e01b81526004016116ab9291906126b6565b6020604051808303815f875af11580156116c7573d5f5f3e3d5ffd5b505050506040513d601f19601f820116820180604052508101906116eb9190611dd6565b61172a576040517f08c379a000000000000000000000000000000000000000000000000000000000815260040161172190612727565b60405180910390fd5b8173ffffffffffffffffffffffffffffffffffffffff167f0f406fe54e7c193e129427f5d405f4b20ed911c3a00285118711b015cd0d1414826040516117709190612745565b60405180910390a25050565b5f604051905090565b5f5ffd5b5f5ffd5b5f7fffffffff0000000000000000000000000000000000000000000000000000000082169050919050565b6117c18161178d565b81146117cb575f5ffd5b50565b5f813590506117dc816117b8565b92915050565b5f602082840312156117f7576117f6611785565b5b5f611804848285016117ce565b91505092915050565b5f8115159050919050565b6118218161180d565b82525050565b5f60208201905061183a5f830184611818565b92915050565b5f819050919050565b61185281611840565b811461185c575f5ffd5b50565b5f8135905061186d81611849565b92915050565b5f819050919050565b61188581611873565b811461188f575f5ffd5b50565b5f813590506118a08161187c565b92915050565b5f5f604083850312156118bc576118bb611785565b5b5f6118c98582860161185f565b92505060206118da85828601611892565b9150509250929050565b5f73ffffffffffffffffffffffffffffffffffffffff82169050919050565b5f61190d826118e4565b9050919050565b61191d81611903565b82525050565b5f6020820190506119365f830184611914565b92915050565b5f819050919050565b5f61195f61195a611955846118e4565b61193c565b6118e4565b9050919050565b5f61197082611945565b9050919050565b5f61198182611966565b9050919050565b61199181611977565b82525050565b5f6020820190506119aa5f830184611988565b92915050565b5f5ffd5b5f5ffd5b5f5ffd5b5f5f83601f8401126119d1576119d06119b0565b5b8235905067ffffffffffffffff8111156119ee576119ed6119b4565b5b602083019150836001820283011115611a0a57611a096119b8565b5b9250929050565b5f5f5f60408486031215611a2857611a27611785565b5b5f84013567ffffffffffffffff811115611a4557611a44611789565b5b611a51868287016119bc565b93509350506020611a648682870161185f565b9150509250925092565b5f5f5f5f60408587031215611a8657611a85611785565b5b5f85013567ffffffffffffffff811115611aa357611aa2611789565b5b611aaf878288016119bc565b9450945050602085013567ffffffffffffffff811115611ad257611ad1611789565b5b611ade878288016119bc565b925092505092959194509250565b5f5ffd5b5f60a08284031215611b0557611b04611aec565b5b81905092915050565b5f60208284031215611b2357611b22611785565b5b5f82013567ffffffffffffffff811115611b4057611b3f611789565b5b611b4c84828501611af0565b91505092915050565b5f7fffffffffffffffffffff0000000000000000000000000000000000000000000082169050919050565b611b8981611b55565b82525050565b5f602082019050611ba25f830184611b80565b92915050565b5f5f83601f840112611bbd57611bbc6119b0565b5b8235905067ffffffffffffffff811115611bda57611bd96119b4565b5b602083019150836001820283011115611bf657611bf56119b8565b5b9250929050565b5f5f60208385031215611c1357611c12611785565b5b5f83013567ffffffffffffffff811115611c3057611c2f611789565b5b611c3c85828601611ba8565b92509250509250929050565b5f60208284031215611c5d57611c5c611785565b5b5f611c6a8482850161185f565b91505092915050565b611c7c81611903565b8114611c86575f5ffd5b50565b5f81359050611c9781611c73565b92915050565b5f60208284031215611cb257611cb1611785565b5b5f611cbf84828501611c89565b91505092915050565b611cd181611840565b82525050565b5f602082019050611cea5f830184611cc8565b92915050565b5f82825260208201905092915050565b7f536861646f773a207a65726f20616d6f756e74000000000000000000000000005f82015250565b5f611d34601383611cf0565b9150611d3f82611d00565b602082019050919050565b5f6020820190508181035f830152611d6181611d28565b9050919050565b611d7181611873565b82525050565b5f606082019050611d8a5f830186611914565b611d976020830185611914565b611da46040830184611d68565b949350505050565b611db58161180d565b8114611dbf575f5ffd5b50565b5f81519050611dd081611dac565b92915050565b5f60208284031215611deb57611dea611785565b5b5f611df884828501611dc2565b91505092915050565b7f5472616e73666572206661696c656400000000000000000000000000000000005f82015250565b5f611e35600f83611cf0565b9150611e4082611e01565b602082019050919050565b5f6020820190508181035f830152611e6281611e29565b9050919050565b5f604082019050611e7c5f830185611cc8565b611e896020830184611d68565b9392505050565b5f82825260208201905092915050565b828183375f83830152505050565b5f601f19601f8301169050919050565b5f611ec98385611e90565b9350611ed6838584611ea0565b611edf83611eae565b840190509392505050565b5f6020820190508181035f830152611f03818486611ebe565b90509392505050565b5f604082019050611f1f5f830185611914565b611f2c6020830184611914565b9392505050565b5f604082019050611f465f830185611cc8565b611f536020830184611cc8565b9392505050565b5f604082019050611f6d5f830185611b80565b611f7a6020830184611b80565b9392505050565b5f5ffd5b7f4e487b71000000000000000000000000000000000000000000000000000000005f52604160045260245ffd5b611fbb82611eae565b810181811067ffffffffffffffff82111715611fda57611fd9611f85565b5b80604052505050565b5f611fec61177c565b9050611ff88282611fb2565b919050565b5f5ffd5b5f67ffffffffffffffff82169050919050565b61201d81612001565b8114612027575f5ffd5b50565b5f8135905061203881612014565b92915050565b5f5ffd5b5f67ffffffffffffffff82111561205c5761205b611f85565b5b61206582611eae565b9050602081019050919050565b5f61208461207f84612042565b611fe3565b9050828152602081018484840111156120a05761209f61203e565b5b6120ab848285611ea0565b509392505050565b5f82601f8301126120c7576120c66119b0565b5b81356120d7848260208601612072565b91505092915050565b5f67ffffffffffffffff8211156120fa576120f9611f85565b5b602082029050602081019050919050565b5f604082840312156121205761211f611f81565b5b61212a6040611fe3565b90505f61213984828501611c89565b5f83015250602061214c84828501611892565b60208301525092915050565b5f61216a612165846120e0565b611fe3565b9050808382526020820190506040840283018581111561218d5761218c6119b8565b5b835b818110156121b657806121a2888261210b565b84526020840193505060408101905061218f565b5050509392505050565b5f82601f8301126121d4576121d36119b0565b5b81356121e4848260208601612158565b91505092915050565b5f60a0828403121561220257612201611f81565b5b61220c60a0611fe3565b90505f61221b8482850161185f565b5f83015250602061222e8482850161202a565b602083015250604082013567ffffffffffffffff81111561225257612251611ffd565b5b61225e848285016120b3565b604083015250606082013567ffffffffffffffff81111561228257612281611ffd565b5b61228e848285016120b3565b606083015250608082013567ffffffffffffffff8111156122b2576122b1611ffd565b5b6122be848285016121c0565b60808301525092915050565b5f6122d536836121ed565b9050919050565b5f81905092915050565b5f6122f183856122dc565b93506122fe838584611ea0565b82840190509392505050565b5f6123168284866122e6565b91508190509392505050565b5f8151905061233081611849565b92915050565b5f6020828403121561234b5761234a611785565b5b5f61235884828501612322565b91505092915050565b5f819050919050565b61237b61237682611840565b612361565b82525050565b5f61238c828461236a565b60208201915081905092915050565b7f4e487b71000000000000000000000000000000000000000000000000000000005f52603260045260245ffd5b5f81519050919050565b5f819050602082019050919050565b5f6123ec8251611b55565b80915050919050565b5f82821b905092915050565b5f61240b826123c8565b82612415846123d2565b9050612420816123e1565b9250600a8210156124605761245b7fffffffffffffffffffff0000000000000000000000000000000000000000000083600a036008026123f5565b831692505b5050919050565b7f466f7277617264657220616464726573732073657420746f207a65726f202d205f8201527f636f6e7472616374206973206e6f7720494e5345435552450000000000000000602082015250565b5f6124c1603883611cf0565b91506124cc82612467565b604082019050919050565b5f6020820190508181035f8301526124ee816124b5565b9050919050565b5f6124ff826118e4565b9050919050565b61250f816124f5565b8114612519575f5ffd5b50565b5f8135905061252a81612506565b92915050565b5f5f6040838503121561254657612545611785565b5b5f6125538582860161251c565b925050602061256485828601611892565b9150509250929050565b5f8151905061257c81612506565b92915050565b5f6020828403121561259757612596611785565b5b5f6125a48482850161256e565b91505092915050565b7f4e487b71000000000000000000000000000000000000000000000000000000005f52601160045260245ffd5b5f6125e482611873565b91506125ef83611873565b92508282026125fd81611873565b91508282048414831517612614576126136125ad565b5b5092915050565b5f61262582611873565b915061263083611873565b9250828201905080821115612648576126476125ad565b5b92915050565b7f536861646f773a207a65726f20726563697069656e74000000000000000000005f82015250565b5f612682601683611cf0565b915061268d8261264e565b602082019050919050565b5f6020820190508181035f8301526126af81612676565b9050919050565b5f6040820190506126c95f830185611914565b6126d66020830184611d68565b9392505050565b7f5061796f7574206661696c6564000000000000000000000000000000000000005f82015250565b5f612711600d83611cf0565b915061271c826126dd565b602082019050919050565b5f6020820190508181035f83015261273e81612705565b9050919050565b5f6020820190506127585f830184611d68565b9291505056fea2646970667358221220604cc1ba15733ec9115db20f338a69c70aba87791ab8b272fb71f1278c868a3264736f6c634300081f0033",
					"opcodes": "PUSH1 0xC0 PUSH1 0x40 MSTORE CALLVALUE DUP1 ISZERO PUSH2 0xF JUMPI PUSH0 PUSH0 REVERT JUMPDEST POP PUSH1 0x40 MLOAD PUSH2 0x2CD5 CODESIZE SUB DUP1 PUSH2 0x2CD5 DUP4 CODECOPY DUP2 DUP2 ADD PUSH1 0x40 MSTORE DUP2 ADD SWAP1 PUSH2 0x31 SWAP2 SWAP1 PUSH2 0x422 JUMP JUMPDEST DUP2 CALLER DUP3 PUSH0 PUSH20 0xFFFFFFFFFFFFFFFFFFFFFFFFFFFFFFFFFFFFFFFF AND DUP2 PUSH20 0xFFFFFFFFFFFFFFFFFFFFFFFFFFFFFFFFFFFFFFFF AND SUB PUSH2 0xA4 JUMPI PUSH0 PUSH1 0x40 MLOAD PUSH32 0xD7F7333400000000000000000000000000000000000000000000000000000000 DUP2 MSTORE PUSH1 0x4 ADD PUSH2 0x9B SWAP2 SWAP1 PUSH2 0x481 JUMP JUMPDEST PUSH1 0x40 MLOAD DUP1 SWAP2 SUB SWAP1 REVERT JUMPDEST DUP1 PUSH20 0xFFFFFFFFFFFFFFFFFFFFFFFFFFFFFFFFFFFFFFFF AND PUSH1 0x80 DUP2 PUSH20 0xFFFFFFFFFFFFFFFFFFFFFFFFFFFFFFFFFFFFFFFF AND DUP2 MSTORE POP POP POP PUSH0 PUSH20 0xFFFFFFFFFFFFFFFFFFFFFFFFFFFFFFFFFFFFFFFF AND DUP2 PUSH20 0xFFFFFFFFFFFFFFFFFFFFFFFFFFFFFFFFFFFFFFFF AND SUB PUSH2 0x149 JUMPI PUSH0 PUSH1 0x40 MLOAD PUSH32 0x1E4FBDF700000000000000000000000000000000000000000000000000000000 DUP2 MSTORE PUSH1 0x4 ADD PUSH2 0x140 SWAP2 SWAP1 PUSH2 0x481 JUMP JUMPDEST PUSH1 0x40 MLOAD DUP1 SWAP2 SUB SWAP1 REVERT JUMPDEST PUSH2 0x158 DUP2 PUSH2 0x303 PUSH1 0x20 SHL PUSH1 0x20 SHR JUMP JUMPDEST POP PUSH0 PUSH20 0xFFFFFFFFFFFFFFFFFFFFFFFFFFFFFFFFFFFFFFFF AND DUP2 PUSH20 0xFFFFFFFFFFFFFFFFFFFFFFFFFFFFFFFFFFFFFFFF AND SUB PUSH2 0x1BE JUMPI PUSH1 0x40 MLOAD PUSH32 0x381DD54000000000000000000000000000000000000000000000000000000000 DUP2 MSTORE PUSH1 0x4 ADD PUSH1 0x40 MLOAD DUP1 SWAP2 SUB SWAP1 REVERT JUMPDEST DUP1 PUSH1 0x1 PUSH0 PUSH2 0x100 EXP DUP2 SLOAD DUP2 PUSH20 0xFFFFFFFFFFFFFFFFFFFFFFFFFFFFFFFFFFFFFFFF MUL NOT AND SWAP1 DUP4 PUSH20 0xFFFFFFFFFFFFFFFFFFFFFFFFFFFFFFFFFFFFFFFF AND MUL OR SWAP1 SSTORE POP DUP1 PUSH20 0xFFFFFFFFFFFFFFFFFFFFFFFFFFFFFFFFFFFFFFFF AND PUSH0 PUSH20 0xFFFFFFFFFFFFFFFFFFFFFFFFFFFFFFFFFFFFFFFF AND PUSH32 0x39AD854736757070884DD787EF1A7F58DB33546639D1F3EFDDCF4A33FB8997E PUSH1 0x40 MLOAD PUSH1 0x40 MLOAD DUP1 SWAP2 SUB SWAP1 LOG3 POP PUSH0 PUSH20 0xFFFFFFFFFFFFFFFFFFFFFFFFFFFFFFFFFFFFFFFF AND DUP4 PUSH20 0xFFFFFFFFFFFFFFFFFFFFFFFFFFFFFFFFFFFFFFFF AND SUB PUSH2 0x2C7 JUMPI PUSH1 0x40 MLOAD PUSH32 0x8C379A000000000000000000000000000000000000000000000000000000000 DUP2 MSTORE PUSH1 0x4 ADD PUSH2 0x2BE SWAP1 PUSH2 0x4F4 JUMP JUMPDEST PUSH1 0x40 MLOAD DUP1 SWAP2 SUB SWAP1 REVERT JUMPDEST DUP3 PUSH20 0xFFFFFFFFFFFFFFFFFFFFFFFFFFFFFFFFFFFFFFFF AND PUSH1 0xA0 DUP2 PUSH20 0xFFFFFFFFFFFFFFFFFFFFFFFFFFFFFFFFFFFFFFFF AND DUP2 MSTORE POP POP POP POP POP PUSH2 0x512 JUMP JUMPDEST PUSH0 PUSH0 PUSH0 SWAP1 SLOAD SWAP1 PUSH2 0x100 EXP SWAP1 DIV PUSH20 0xFFFFFFFFFFFFFFFFFFFFFFFFFFFFFFFFFFFFFFFF AND SWAP1 POP DUP2 PUSH0 PUSH0 PUSH2 0x100 EXP DUP2 SLOAD DUP2 PUSH20 0xFFFFFFFFFFFFFFFFFFFFFFFFFFFFFFFFFFFFFFFF MUL NOT AND SWAP1 DUP4 PUSH20 0xFFFFFFFFFFFFFFFFFFFFFFFFFFFFFFFFFFFFFFFF AND MUL OR SWAP1 SSTORE POP DUP2 PUSH20 0xFFFFFFFFFFFFFFFFFFFFFFFFFFFFFFFFFFFFFFFF AND DUP2 PUSH20 0xFFFFFFFFFFFFFFFFFFFFFFFFFFFFFFFFFFFFFFFF AND PUSH32 0x8BE0079C531659141344CD1FD0A4F28419497F9722A3DAAFE3B4186F6B6457E0 PUSH1 0x40 MLOAD PUSH1 0x40 MLOAD DUP1 SWAP2 SUB SWAP1 LOG3 POP POP JUMP JUMPDEST PUSH0 PUSH0 REVERT JUMPDEST PUSH0 PUSH20 0xFFFFFFFFFFFFFFFFFFFFFFFFFFFFFFFFFFFFFFFF DUP3 AND SWAP1 POP SWAP2 SWAP1 POP JUMP JUMPDEST PUSH0 PUSH2 0x3F1 DUP3 PUSH2 0x3C8 JUMP JUMPDEST SWAP1 POP SWAP2 SWAP1 POP JUMP JUMPDEST PUSH2 0x401 DUP2 PUSH2 0x3E7 JUMP JUMPDEST DUP2 EQ PUSH2 0x40B JUMPI PUSH0 PUSH0 REVERT JUMPDEST POP JUMP JUMPDEST PUSH0 DUP2 MLOAD SWAP1 POP PUSH2 0x41C DUP2 PUSH2 0x3F8 JUMP JUMPDEST SWAP3 SWAP2 POP POP JUMP JUMPDEST PUSH0 PUSH0 PUSH0 PUSH1 0x60 DUP5 DUP7 SUB SLT ISZERO PUSH2 0x439 JUMPI PUSH2 0x438 PUSH2 0x3C4 JUMP JUMPDEST JUMPDEST PUSH0 PUSH2 0x446 DUP7 DUP3 DUP8 ADD PUSH2 0x40E JUMP JUMPDEST SWAP4 POP POP PUSH1 0x20 PUSH2 0x457 DUP7 DUP3 DUP8 ADD PUSH2 0x40E JUMP JUMPDEST SWAP3 POP POP PUSH1 0x40 PUSH2 0x468 DUP7 DUP3 DUP8 ADD PUSH2 0x40E JUMP JUMPDEST SWAP2 POP POP SWAP3 POP SWAP3 POP SWAP3 JUMP JUMPDEST PUSH2 0x47B DUP2 PUSH2 0x3E7 JUMP JUMPDEST DUP3 MSTORE POP POP JUMP JUMPDEST PUSH0 PUSH1 0x20 DUP3 ADD SWAP1 POP PUSH2 0x494 PUSH0 DUP4 ADD DUP5 PUSH2 0x472 JUMP JUMPDEST SWAP3 SWAP2 POP POP JUMP JUMPDEST PUSH0 DUP3 DUP3 MSTORE PUSH1 0x20 DUP3 ADD SWAP1 POP SWAP3 SWAP2 POP POP JUMP JUMPDEST PUSH32 0x536861646F773A207A65726F2055534443206164647265737300000000000000 PUSH0 DUP3 ADD MSTORE POP JUMP JUMPDEST PUSH0 PUSH2 0x4DE PUSH1 0x19 DUP4 PUSH2 0x49A JUMP JUMPDEST SWAP2 POP PUSH2 0x4E9 DUP3 PUSH2 0x4AA JUMP JUMPDEST PUSH1 0x20 DUP3 ADD SWAP1 POP SWAP2 SWAP1 POP JUMP JUMPDEST PUSH0 PUSH1 0x20 DUP3 ADD SWAP1 POP DUP2 DUP2 SUB PUSH0 DUP4 ADD MSTORE PUSH2 0x50B DUP2 PUSH2 0x4D2 JUMP JUMPDEST SWAP1 POP SWAP2 SWAP1 POP JUMP JUMPDEST PUSH1 0x80 MLOAD PUSH1 0xA0 MLOAD PUSH2 0x2794 PUSH2 0x541 PUSH0 CODECOPY PUSH0 DUP2 DUP2 PUSH2 0x375 ADD MSTORE DUP2 DUP2 PUSH2 0x4F5 ADD MSTORE PUSH2 0x1652 ADD MSTORE PUSH0 PUSH2 0xB4B ADD MSTORE PUSH2 0x2794 PUSH0 RETURN INVALID PUSH1 0x80 PUSH1 0x40 MSTORE CALLVALUE DUP1 ISZERO PUSH2 0xF JUMPI PUSH0 PUSH0 REVERT JUMPDEST POP PUSH1 0x4 CALLDATASIZE LT PUSH2 0x114 JUMPI PUSH0 CALLDATALOAD PUSH1 0xE0 SHR DUP1 PUSH4 0x8DA5CB5B GT PUSH2 0xA0 JUMPI DUP1 PUSH4 0xC3C44AC2 GT PUSH2 0x6F JUMPI DUP1 PUSH4 0xC3C44AC2 EQ PUSH2 0x292 JUMPI DUP1 PUSH4 0xD60C884B EQ PUSH2 0x2AE JUMPI DUP1 PUSH4 0xD777CC6D EQ PUSH2 0x2CA JUMPI DUP1 PUSH4 0xF2FDE38B EQ PUSH2 0x2E6 JUMPI DUP1 PUSH4 0xF5C793EF EQ PUSH2 0x302 JUMPI PUSH2 0x114 JUMP JUMPDEST DUP1 PUSH4 0x8DA5CB5B EQ PUSH2 0x21C JUMPI DUP1 PUSH4 0xA619D818 EQ PUSH2 0x23A JUMPI DUP1 PUSH4 0xB0F479A1 EQ PUSH2 0x258 JUMPI DUP1 PUSH4 0xBC1FC27A EQ PUSH2 0x276 JUMPI PUSH2 0x114 JUMP JUMPDEST DUP1 PUSH4 0x3E413BEE GT PUSH2 0xE7 JUMPI DUP1 PUSH4 0x3E413BEE EQ PUSH2 0x1A0 JUMPI DUP1 PUSH4 0x410D1DAC EQ PUSH2 0x1BE JUMPI DUP1 PUSH4 0x715018A6 EQ PUSH2 0x1DA JUMPI DUP1 PUSH4 0x805F2132 EQ PUSH2 0x1E4 JUMPI DUP1 PUSH4 0x85572FFB EQ PUSH2 0x200 JUMPI PUSH2 0x114 JUMP JUMPDEST DUP1 PUSH4 0x1FFC9A7 EQ PUSH2 0x118 JUMPI DUP1 PUSH4 0x1DE26E16 EQ PUSH2 0x148 JUMPI DUP1 PUSH4 0x3397CF67 EQ PUSH2 0x164 JUMPI DUP1 PUSH4 0x3441856F EQ PUSH2 0x182 JUMPI JUMPDEST PUSH0 PUSH0 REVERT JUMPDEST PUSH2 0x132 PUSH1 0x4 DUP1 CALLDATASIZE SUB DUP2 ADD SWAP1 PUSH2 0x12D SWAP2 SWAP1 PUSH2 0x17E2 JUMP JUMPDEST PUSH2 0x320 JUMP JUMPDEST PUSH1 0x40 MLOAD PUSH2 0x13F SWAP2 SWAP1 PUSH2 0x1827 JUMP JUMPDEST PUSH1 0x40 MLOAD DUP1 SWAP2 SUB SWAP1 RETURN JUMPDEST PUSH2 0x162 PUSH1 0x4 DUP1 CALLDATASIZE SUB DUP2 ADD SWAP1 PUSH2 0x15D SWAP2 SWAP1 PUSH2 0x18A6 JUMP JUMPDEST PUSH2 0x331 JUMP JUMPDEST STOP JUMPDEST PUSH2 0x16C PUSH2 0x4A3 JUMP JUMPDEST PUSH1 0x40 MLOAD PUSH2 0x179 SWAP2 SWAP1 PUSH2 0x1923 JUMP JUMPDEST PUSH1 0x40 MLOAD DUP1 SWAP2 SUB SWAP1 RETURN JUMPDEST PUSH2 0x18A PUSH2 0x4CB JUMP JUMPDEST PUSH1 0x40 MLOAD PUSH2 0x197 SWAP2 SWAP1 PUSH2 0x1923 JUMP JUMPDEST PUSH1 0x40 MLOAD DUP1 SWAP2 SUB SWAP1 RETURN JUMPDEST PUSH2 0x1A8 PUSH2 0x4F3 JUMP JUMPDEST PUSH1 0x40 MLOAD PUSH2 0x1B5 SWAP2 SWAP1 PUSH2 0x1997 JUMP JUMPDEST PUSH1 0x40 MLOAD DUP1 SWAP2 SUB SWAP1 RETURN JUMPDEST PUSH2 0x1D8 PUSH1 0x4 DUP1 CALLDATASIZE SUB DUP2 ADD SWAP1 PUSH2 0x1D3 SWAP2 SWAP1 PUSH2 0x1A11 JUMP JUMPDEST PUSH2 0x517 JUMP JUMPDEST STOP JUMPDEST PUSH2 0x1E2 PUSH2 0x56D JUMP JUMPDEST STOP JUMPDEST PUSH2 0x1FE PUSH1 0x4 DUP1 CALLDATASIZE SUB DUP2 ADD SWAP1 PUSH2 0x1F9 SWAP2 SWAP1 PUSH2 0x1A6E JUMP JUMPDEST PUSH2 0x580 JUMP JUMPDEST STOP JUMPDEST PUSH2 0x21A PUSH1 0x4 DUP1 CALLDATASIZE SUB DUP2 ADD SWAP1 PUSH2 0x215 SWAP2 SWAP1 PUSH2 0x1B0E JUMP JUMPDEST PUSH2 0xA7F JUMP JUMPDEST STOP JUMPDEST PUSH2 0x224 PUSH2 0xB0B JUMP JUMPDEST PUSH1 0x40 MLOAD PUSH2 0x231 SWAP2 SWAP1 PUSH2 0x1923 JUMP JUMPDEST PUSH1 0x40 MLOAD DUP1 SWAP2 SUB SWAP1 RETURN JUMPDEST PUSH2 0x242 PUSH2 0xB32 JUMP JUMPDEST PUSH1 0x40 MLOAD PUSH2 0x24F SWAP2 SWAP1 PUSH2 0x1B8F JUMP JUMPDEST PUSH1 0x40 MLOAD DUP1 SWAP2 SUB SWAP1 RETURN JUMPDEST PUSH2 0x260 PUSH2 0xB48 JUMP JUMPDEST PUSH1 0x40 MLOAD PUSH2 0x26D SWAP2 SWAP1 PUSH2 0x1923 JUMP JUMPDEST PUSH1 0x40 MLOAD DUP1 SWAP2 SUB SWAP1 RETURN JUMPDEST PUSH2 0x290 PUSH1 0x4 DUP1 CALLDATASIZE SUB DUP2 ADD SWAP1 PUSH2 0x28B SWAP2 SWAP1 PUSH2 0x1BFD JUMP JUMPDEST PUSH2 0xB6F JUMP JUMPDEST STOP JUMPDEST PUSH2 0x2AC PUSH1 0x4 DUP1 CALLDATASIZE SUB DUP2 ADD SWAP1 PUSH2 0x2A7 SWAP2 SWAP1 PUSH2 0x1C48 JUMP JUMPDEST PUSH2 0xE13 JUMP JUMPDEST STOP JUMPDEST PUSH2 0x2C8 PUSH1 0x4 DUP1 CALLDATASIZE SUB DUP2 ADD SWAP1 PUSH2 0x2C3 SWAP2 SWAP1 PUSH2 0x1C9D JUMP JUMPDEST PUSH2 0xE5A JUMP JUMPDEST STOP JUMPDEST PUSH2 0x2E4 PUSH1 0x4 DUP1 CALLDATASIZE SUB DUP2 ADD SWAP1 PUSH2 0x2DF SWAP2 SWAP1 PUSH2 0x1C9D JUMP JUMPDEST PUSH2 0xF25 JUMP JUMPDEST STOP JUMPDEST PUSH2 0x300 PUSH1 0x4 DUP1 CALLDATASIZE SUB DUP2 ADD SWAP1 PUSH2 0x2FB SWAP2 SWAP1 PUSH2 0x1C9D JUMP JUMPDEST PUSH2 0x1059 JUMP JUMPDEST STOP JUMPDEST PUSH2 0x30A PUSH2 0x10DD JUMP JUMPDEST PUSH1 0x40 MLOAD PUSH2 0x317 SWAP2 SWAP1 PUSH2 0x1CD7 JUMP JUMPDEST PUSH1 0x40 MLOAD DUP1 SWAP2 SUB SWAP1 RETURN JUMPDEST PUSH0 PUSH2 0x32A DUP3 PUSH2 0x10E6 JUMP JUMPDEST SWAP1 POP SWAP2 SWAP1 POP JUMP JUMPDEST PUSH0 DUP2 GT PUSH2 0x373 JUMPI PUSH1 0x40 MLOAD PUSH32 0x8C379A000000000000000000000000000000000000000000000000000000000 DUP2 MSTORE PUSH1 0x4 ADD PUSH2 0x36A SWAP1 PUSH2 0x1D4A JUMP JUMPDEST PUSH1 0x40 MLOAD DUP1 SWAP2 SUB SWAP1 REVERT JUMPDEST PUSH32 0x0 PUSH20 0xFFFFFFFFFFFFFFFFFFFFFFFFFFFFFFFFFFFFFFFF AND PUSH4 0x23B872DD CALLER ADDRESS DUP5 PUSH1 0x40 MLOAD DUP5 PUSH4 0xFFFFFFFF AND PUSH1 0xE0 SHL DUP2 MSTORE PUSH1 0x4 ADD PUSH2 0x3D0 SWAP4 SWAP3 SWAP2 SWAP1 PUSH2 0x1D77 JUMP JUMPDEST PUSH1 0x20 PUSH1 0x40 MLOAD DUP1 DUP4 SUB DUP2 PUSH0 DUP8 GAS CALL ISZERO DUP1 ISZERO PUSH2 0x3EC JUMPI RETURNDATASIZE PUSH0 PUSH0 RETURNDATACOPY RETURNDATASIZE PUSH0 REVERT JUMPDEST POP POP POP POP PUSH1 0x40 MLOAD RETURNDATASIZE PUSH1 0x1F NOT PUSH1 0x1F DUP3 ADD AND DUP3 ADD DUP1 PUSH1 0x40 MSTORE POP DUP2 ADD SWAP1 PUSH2 0x410 SWAP2 SWAP1 PUSH2 0x1DD6 JUMP JUMPDEST PUSH2 0x44F JUMPI PUSH1 0x40 MLOAD PUSH32 0x8C379A000000000000000000000000000000000000000000000000000000000 DUP2 MSTORE PUSH1 0x4 ADD PUSH2 0x446 SWAP1 PUSH2 0x1E4B JUMP JUMPDEST PUSH1 0x40 MLOAD DUP1 SWAP2 SUB SWAP1 REVERT JUMPDEST CALLER PUSH20 0xFFFFFFFFFFFFFFFFFFFFFFFFFFFFFFFFFFFFFFFF AND PUSH32 0xA528A5618E16311D917A25D1B6F7D83F001F50E5B4BEE369286D16C83784E22A DUP4 DUP4 PUSH1 0x40 MLOAD PUSH2 0x497 SWAP3 SWAP2 SWAP1 PUSH2 0x1E69 JUMP JUMPDEST PUSH1 0x40 MLOAD DUP1 SWAP2 SUB SWAP1 LOG2 POP POP JUMP JUMPDEST PUSH0 PUSH1 0x2 PUSH0 SWAP1 SLOAD SWAP1 PUSH2 0x100 EXP SWAP1 DIV PUSH20 0xFFFFFFFFFFFFFFFFFFFFFFFFFFFFFFFFFFFFFFFF AND SWAP1 POP SWAP1 JUMP JUMPDEST PUSH0 PUSH1 0x1 PUSH0 SWAP1 SLOAD SWAP1 PUSH2 0x100 EXP SWAP1 DIV PUSH20 0xFFFFFFFFFFFFFFFFFFFFFFFFFFFFFFFFFFFFFFFF AND SWAP1 POP SWAP1 JUMP JUMPDEST PUSH32 0x0 DUP2 JUMP JUMPDEST DUP1 CALLER PUSH20 0xFFFFFFFFFFFFFFFFFFFFFFFFFFFFFFFFFFFFFFFF AND PUSH32 0xF6604C3BCD7473AA76B7D82D56A4453E9B64A148CA27EB7C07E9F698093B5AF5 DUP6 DUP6 PUSH1 0x40 MLOAD PUSH2 0x560 SWAP3 SWAP2 SWAP1 PUSH2 0x1EEA JUMP JUMPDEST PUSH1 0x40 MLOAD DUP1 SWAP2 SUB SWAP1 LOG3 POP POP POP JUMP JUMPDEST PUSH2 0x575 PUSH2 0x11B7 JUMP JUMPDEST PUSH2 0x57E PUSH0 PUSH2 0x123E JUMP JUMPDEST JUMP JUMPDEST PUSH0 PUSH20 0xFFFFFFFFFFFFFFFFFFFFFFFFFFFFFFFFFFFFFFFF AND PUSH1 0x1 PUSH0 SWAP1 SLOAD SWAP1 PUSH2 0x100 EXP SWAP1 DIV PUSH20 0xFFFFFFFFFFFFFFFFFFFFFFFFFFFFFFFFFFFFFFFF AND PUSH20 0xFFFFFFFFFFFFFFFFFFFFFFFFFFFFFFFFFFFFFFFF AND EQ ISZERO DUP1 ISZERO PUSH2 0x62A JUMPI POP PUSH1 0x1 PUSH0 SWAP1 SLOAD SWAP1 PUSH2 0x100 EXP SWAP1 DIV PUSH20 0xFFFFFFFFFFFFFFFFFFFFFFFFFFFFFFFFFFFFFFFF AND PUSH20 0xFFFFFFFFFFFFFFFFFFFFFFFFFFFFFFFFFFFFFFFF AND CALLER PUSH20 0xFFFFFFFFFFFFFFFFFFFFFFFFFFFFFFFFFFFFFFFF AND EQ ISZERO JUMPDEST ISZERO PUSH2 0x68F JUMPI CALLER PUSH1 0x1 PUSH0 SWAP1 SLOAD SWAP1 PUSH2 0x100 EXP SWAP1 DIV PUSH20 0xFFFFFFFFFFFFFFFFFFFFFFFFFFFFFFFFFFFFFFFF AND PUSH1 0x40 MLOAD PUSH32 0xE1130DBA00000000000000000000000000000000000000000000000000000000 DUP2 MSTORE PUSH1 0x4 ADD PUSH2 0x686 SWAP3 SWAP2 SWAP1 PUSH2 0x1F0C JUMP JUMPDEST PUSH1 0x40 MLOAD DUP1 SWAP2 SUB SWAP1 REVERT JUMPDEST PUSH0 PUSH0 SHL PUSH1 0x3 SLOAD EQ ISZERO DUP1 PUSH2 0x6EF JUMPI POP PUSH0 PUSH20 0xFFFFFFFFFFFFFFFFFFFFFFFFFFFFFFFFFFFFFFFF AND PUSH1 0x2 PUSH0 SWAP1 SLOAD SWAP1 PUSH2 0x100 EXP SWAP1 DIV PUSH20 0xFFFFFFFFFFFFFFFFFFFFFFFFFFFFFFFFFFFFFFFF AND PUSH20 0xFFFFFFFFFFFFFFFFFFFFFFFFFFFFFFFFFFFFFFFF AND EQ ISZERO JUMPDEST DUP1 PUSH2 0x73E JUMPI POP PUSH0 PUSH1 0xB0 SHL PUSH22 0xFFFFFFFFFFFFFFFFFFFFFFFFFFFFFFFFFFFFFFFFFFFF NOT AND PUSH1 0x2 PUSH1 0x14 SWAP1 SLOAD SWAP1 PUSH2 0x100 EXP SWAP1 DIV PUSH1 0xB0 SHL PUSH22 0xFFFFFFFFFFFFFFFFFFFFFFFFFFFFFFFFFFFFFFFFFFFF NOT AND EQ ISZERO JUMPDEST ISZERO PUSH2 0xA6F JUMPI PUSH0 PUSH0 PUSH0 PUSH2 0x792 DUP8 DUP8 DUP1 DUP1 PUSH1 0x1F ADD PUSH1 0x20 DUP1 SWAP2 DIV MUL PUSH1 0x20 ADD PUSH1 0x40 MLOAD SWAP1 DUP2 ADD PUSH1 0x40 MSTORE DUP1 SWAP4 SWAP3 SWAP2 SWAP1 DUP2 DUP2 MSTORE PUSH1 0x20 ADD DUP4 DUP4 DUP1 DUP3 DUP5 CALLDATACOPY PUSH0 DUP2 DUP5 ADD MSTORE PUSH1 0x1F NOT PUSH1 0x1F DUP3 ADD AND SWAP1 POP DUP1 DUP4 ADD SWAP3 POP POP POP POP POP POP POP PUSH2 0x12FF JUMP JUMPDEST SWAP3 POP SWAP3 POP SWAP3 POP PUSH0 PUSH0 SHL PUSH1 0x3 SLOAD EQ ISZERO DUP1 ISZERO PUSH2 0x7AE JUMPI POP PUSH1 0x3 SLOAD DUP4 EQ ISZERO JUMPDEST ISZERO PUSH2 0x7F4 JUMPI DUP3 PUSH1 0x3 SLOAD PUSH1 0x40 MLOAD PUSH32 0x9BFA39BA00000000000000000000000000000000000000000000000000000000 DUP2 MSTORE PUSH1 0x4 ADD PUSH2 0x7EB SWAP3 SWAP2 SWAP1 PUSH2 0x1F33 JUMP JUMPDEST PUSH1 0x40 MLOAD DUP1 SWAP2 SUB SWAP1 REVERT JUMPDEST PUSH0 PUSH20 0xFFFFFFFFFFFFFFFFFFFFFFFFFFFFFFFFFFFFFFFF AND PUSH1 0x2 PUSH0 SWAP1 SLOAD SWAP1 PUSH2 0x100 EXP SWAP1 DIV PUSH20 0xFFFFFFFFFFFFFFFFFFFFFFFFFFFFFFFFFFFFFFFF AND PUSH20 0xFFFFFFFFFFFFFFFFFFFFFFFFFFFFFFFFFFFFFFFF AND EQ ISZERO DUP1 ISZERO PUSH2 0x89E JUMPI POP PUSH1 0x2 PUSH0 SWAP1 SLOAD SWAP1 PUSH2 0x100 EXP SWAP1 DIV PUSH20 0xFFFFFFFFFFFFFFFFFFFFFFFFFFFFFFFFFFFFFFFF AND PUSH20 0xFFFFFFFFFFFFFFFFFFFFFFFFFFFFFFFFFFFFFFFF AND DUP2 PUSH20 0xFFFFFFFFFFFFFFFFFFFFFFFFFFFFFFFFFFFFFFFF AND EQ ISZERO JUMPDEST ISZERO PUSH2 0x903 JUMPI DUP1 PUSH1 0x2 PUSH0 SWAP1 SLOAD SWAP1 PUSH2 0x100 EXP SWAP1 DIV PUSH20 0xFFFFFFFFFFFFFFFFFFFFFFFFFFFFFFFFFFFFFFFF AND PUSH1 0x40 MLOAD PUSH32 0xB8A98AF800000000000000000000000000000000000000000000000000000000 DUP2 MSTORE PUSH1 0x4 ADD PUSH2 0x8FA SWAP3 SWAP2 SWAP1 PUSH2 0x1F0C JUMP JUMPDEST PUSH1 0x40 MLOAD DUP1 SWAP2 SUB SWAP1 REVERT JUMPDEST PUSH0 PUSH1 0xB0 SHL PUSH22 0xFFFFFFFFFFFFFFFFFFFFFFFFFFFFFFFFFFFFFFFFFFFF NOT AND PUSH1 0x2 PUSH1 0x14 SWAP1 SLOAD SWAP1 PUSH2 0x100 EXP SWAP1 DIV PUSH1 0xB0 SHL PUSH22 0xFFFFFFFFFFFFFFFFFFFFFFFFFFFFFFFFFFFFFFFFFFFF NOT AND EQ PUSH2 0xA6B JUMPI PUSH0 PUSH20 0xFFFFFFFFFFFFFFFFFFFFFFFFFFFFFFFFFFFFFFFF AND PUSH1 0x2 PUSH0 SWAP1 SLOAD SWAP1 PUSH2 0x100 EXP SWAP1 DIV PUSH20 0xFFFFFFFFFFFFFFFFFFFFFFFFFFFFFFFFFFFFFFFF AND PUSH20 0xFFFFFFFFFFFFFFFFFFFFFFFFFFFFFFFFFFFFFFFF AND SUB PUSH2 0x9D4 JUMPI PUSH1 0x40 MLOAD PUSH32 0x4847901100000000000000000000000000000000000000000000000000000000 DUP2 MSTORE PUSH1 0x4 ADD PUSH1 0x40 MLOAD DUP1 SWAP2 SUB SWAP1 REVERT JUMPDEST PUSH1 0x2 PUSH1 0x14 SWAP1 SLOAD SWAP1 PUSH2 0x100 EXP SWAP1 DIV PUSH1 0xB0 SHL PUSH22 0xFFFFFFFFFFFFFFFFFFFFFFFFFFFFFFFFFFFFFFFFFFFF NOT AND DUP3 PUSH22 0xFFFFFFFFFFFFFFFFFFFFFFFFFFFFFFFFFFFFFFFFFFFF NOT AND EQ PUSH2 0xA6A JUMPI DUP2 PUSH1 0x2 PUSH1 0x14 SWAP1 SLOAD SWAP1 PUSH2 0x100 EXP SWAP1 DIV PUSH1 0xB0 SHL PUSH1 0x40 MLOAD PUSH32 0x6C4609A600000000000000000000000000000000000000000000000000000000 DUP2 MSTORE PUSH1 0x4 ADD PUSH2 0xA61 SWAP3 SWAP2 SWAP1 PUSH2 0x1F5A JUMP JUMPDEST PUSH1 0x40 MLOAD DUP1 SWAP2 SUB SWAP1 REVERT JUMPDEST JUMPDEST POP POP POP JUMPDEST PUSH2 0xA79 DUP3 DUP3 PUSH2 0x1324 JUMP JUMPDEST POP POP POP POP JUMP JUMPDEST PUSH2 0xA87 PUSH2 0xB48 JUMP JUMPDEST PUSH20 0xFFFFFFFFFFFFFFFFFFFFFFFFFFFFFFFFFFFFFFFF AND CALLER PUSH20 0xFFFFFFFFFFFFFFFFFFFFFFFFFFFFFFFFFFFFFFFF AND EQ PUSH2 0xAF6 JUMPI CALLER PUSH1 0x40 MLOAD PUSH32 0xD7F7333400000000000000000000000000000000000000000000000000000000 DUP2 MSTORE PUSH1 0x4 ADD PUSH2 0xAED SWAP2 SWAP1 PUSH2 0x1923 JUMP JUMPDEST PUSH1 0x40 MLOAD DUP1 SWAP2 SUB SWAP1 REVERT JUMPDEST PUSH2 0xB08 DUP2 PUSH2 0xB03 SWAP1 PUSH2 0x22CA JUMP JUMPDEST PUSH2 0x1349 JUMP JUMPDEST POP JUMP JUMPDEST PUSH0 PUSH0 PUSH0 SWAP1 SLOAD SWAP1 PUSH2 0x100 EXP SWAP1 DIV PUSH20 0xFFFFFFFFFFFFFFFFFFFFFFFFFFFFFFFFFFFFFFFF AND SWAP1 POP SWAP1 JUMP JUMPDEST PUSH0 PUSH1 0x2 PUSH1 0x14 SWAP1 SLOAD SWAP1 PUSH2 0x100 EXP SWAP1 DIV PUSH1 0xB0 SHL SWAP1 POP SWAP1 JUMP JUMPDEST PUSH0 PUSH32 0x0 SWAP1 POP SWAP1 JUMP JUMPDEST PUSH2 0xB77 PUSH2 0x11B7 JUMP JUMPDEST PUSH0 PUSH1 0x2 PUSH1 0x14 SWAP1 SLOAD SWAP1 PUSH2 0x100 EXP SWAP1 DIV PUSH1 0xB0 SHL SWAP1 POP PUSH0 DUP4 DUP4 SWAP1 POP SUB PUSH2 0xC24 JUMPI PUSH0 PUSH1 0xB0 SHL PUSH1 0x2 PUSH1 0x14 PUSH2 0x100 EXP DUP2 SLOAD DUP2 PUSH10 0xFFFFFFFFFFFFFFFFFFFF MUL NOT AND SWAP1 DUP4 PUSH1 0xB0 SHR MUL OR SWAP1 SSTORE POP PUSH0 PUSH1 0xB0 SHL PUSH22 0xFFFFFFFFFFFFFFFFFFFFFFFFFFFFFFFFFFFFFFFFFFFF NOT AND DUP2 PUSH22 0xFFFFFFFFFFFFFFFFFFFFFFFFFFFFFFFFFFFFFFFFFFFF NOT AND PUSH32 0x1E7DDD09D504C82DCFC784A464B167469F5AAD967606EC4822D848EF9141DFA5 PUSH1 0x40 MLOAD PUSH1 0x40 MLOAD DUP1 SWAP2 SUB SWAP1 LOG3 POP PUSH2 0xE0F JUMP JUMPDEST PUSH0 PUSH1 0x2 DUP5 DUP5 PUSH1 0x40 MLOAD PUSH2 0xC37 SWAP3 SWAP2 SWAP1 PUSH2 0x230A JUMP JUMPDEST PUSH1 0x20 PUSH1 0x40 MLOAD DUP1 DUP4 SUB DUP2 DUP6 GAS STATICCALL ISZERO DUP1 ISZERO PUSH2 0xC52 JUMPI RETURNDATASIZE PUSH0 PUSH0 RETURNDATACOPY RETURNDATASIZE PUSH0 REVERT JUMPDEST POP POP POP PUSH1 0x40 MLOAD RETURNDATASIZE PUSH1 0x1F NOT PUSH1 0x1F DUP3 ADD AND DUP3 ADD DUP1 PUSH1 0x40 MSTORE POP DUP2 ADD SWAP1 PUSH2 0xC75 SWAP2 SWAP1 PUSH2 0x2336 JUMP JUMPDEST SWAP1 POP PUSH0 PUSH2 0xCA0 DUP3 PUSH1 0x40 MLOAD PUSH1 0x20 ADD PUSH2 0xC8C SWAP2 SWAP1 PUSH2 0x2381 JUMP JUMPDEST PUSH1 0x40 MLOAD PUSH1 0x20 DUP2 DUP4 SUB SUB DUP2 MSTORE SWAP1 PUSH1 0x40 MSTORE PUSH2 0x1399 JUMP JUMPDEST SWAP1 POP PUSH0 PUSH1 0xA PUSH8 0xFFFFFFFFFFFFFFFF DUP2 GT ISZERO PUSH2 0xCBE JUMPI PUSH2 0xCBD PUSH2 0x1F85 JUMP JUMPDEST JUMPDEST PUSH1 0x40 MLOAD SWAP1 DUP1 DUP3 MSTORE DUP1 PUSH1 0x1F ADD PUSH1 0x1F NOT AND PUSH1 0x20 ADD DUP3 ADD PUSH1 0x40 MSTORE DUP1 ISZERO PUSH2 0xCF0 JUMPI DUP2 PUSH1 0x20 ADD PUSH1 0x1 DUP3 MUL DUP1 CALLDATASIZE DUP4 CALLDATACOPY DUP1 DUP3 ADD SWAP2 POP POP SWAP1 POP JUMPDEST POP SWAP1 POP PUSH0 PUSH0 SWAP1 POP JUMPDEST PUSH1 0xA DUP2 LT ISZERO PUSH2 0xD6D JUMPI DUP3 DUP2 DUP2 MLOAD DUP2 LT PUSH2 0xD14 JUMPI PUSH2 0xD13 PUSH2 0x239B JUMP JUMPDEST JUMPDEST PUSH1 0x20 ADD ADD MLOAD PUSH1 0xF8 SHR PUSH1 0xF8 SHL DUP3 DUP3 DUP2 MLOAD DUP2 LT PUSH2 0xD32 JUMPI PUSH2 0xD31 PUSH2 0x239B JUMP JUMPDEST JUMPDEST PUSH1 0x20 ADD ADD SWAP1 PUSH31 0xFFFFFFFFFFFFFFFFFFFFFFFFFFFFFFFFFFFFFFFFFFFFFFFFFFFFFFFFFFFFFF NOT AND SWAP1 DUP2 PUSH0 BYTE SWAP1 MSTORE8 POP DUP1 DUP1 PUSH1 0x1 ADD SWAP2 POP POP PUSH2 0xCF8 JUMP JUMPDEST POP DUP1 PUSH2 0xD78 SWAP1 PUSH2 0x2401 JUMP JUMPDEST PUSH1 0x2 PUSH1 0x14 PUSH2 0x100 EXP DUP2 SLOAD DUP2 PUSH10 0xFFFFFFFFFFFFFFFFFFFF MUL NOT AND SWAP1 DUP4 PUSH1 0xB0 SHR MUL OR SWAP1 SSTORE POP PUSH1 0x2 PUSH1 0x14 SWAP1 SLOAD SWAP1 PUSH2 0x100 EXP SWAP1 DIV PUSH1 0xB0 SHL PUSH22 0xFFFFFFFFFFFFFFFFFFFFFFFFFFFFFFFFFFFFFFFFFFFF NOT AND DUP5 PUSH22 0xFFFFFFFFFFFFFFFFFFFFFFFFFFFFFFFFFFFFFFFFFFFF NOT AND PUSH32 0x1E7DDD09D504C82DCFC784A464B167469F5AAD967606EC4822D848EF9141DFA5 PUSH1 0x40 MLOAD PUSH1 0x40 MLOAD DUP1 SWAP2 SUB SWAP1 LOG3 POP POP POP POP JUMPDEST POP POP JUMP JUMPDEST PUSH2 0xE1B PUSH2 0x11B7 JUMP JUMPDEST PUSH0 PUSH1 0x3 SLOAD SWAP1 POP DUP2 PUSH1 0x3 DUP2 SWAP1 SSTORE POP DUP2 DUP2 PUSH32 0xDBEDCDF21925E053B4C574EAE180D7F2883235AB4976ECC0873598A2A999B03 PUSH1 0x40 MLOAD PUSH1 0x40 MLOAD DUP1 SWAP2 SUB SWAP1 LOG3 POP POP JUMP JUMPDEST PUSH2 0xE62 PUSH2 0x11B7 JUMP JUMPDEST PUSH0 PUSH1 0x2 PUSH0 SWAP1 SLOAD SWAP1 PUSH2 0x100 EXP SWAP1 DIV PUSH20 0xFFFFFFFFFFFFFFFFFFFFFFFFFFFFFFFFFFFFFFFF AND SWAP1 POP DUP2 PUSH1 0x2 PUSH0 PUSH2 0x100 EXP DUP2 SLOAD DUP2 PUSH20 0xFFFFFFFFFFFFFFFFFFFFFFFFFFFFFFFFFFFFFFFF MUL NOT AND SWAP1 DUP4 PUSH20 0xFFFFFFFFFFFFFFFFFFFFFFFFFFFFFFFFFFFFFFFF AND MUL OR SWAP1 SSTORE POP DUP2 PUSH20 0xFFFFFFFFFFFFFFFFFFFFFFFFFFFFFFFFFFFFFFFF AND DUP2 PUSH20 0xFFFFFFFFFFFFFFFFFFFFFFFFFFFFFFFFFFFFFFFF AND PUSH32 0x3321CDA85C145617E47418AA14255E9DCBEC53A753778E57591703B89A3CAD31 PUSH1 0x40 MLOAD PUSH1 0x40 MLOAD DUP1 SWAP2 SUB SWAP1 LOG3 POP POP JUMP JUMPDEST PUSH2 0xF2D PUSH2 0x11B7 JUMP JUMPDEST PUSH0 PUSH1 0x1 PUSH0 SWAP1 SLOAD SWAP1 PUSH2 0x100 EXP SWAP1 DIV PUSH20 0xFFFFFFFFFFFFFFFFFFFFFFFFFFFFFFFFFFFFFFFF AND SWAP1 POP PUSH0 PUSH20 0xFFFFFFFFFFFFFFFFFFFFFFFFFFFFFFFFFFFFFFFF AND DUP3 PUSH20 0xFFFFFFFFFFFFFFFFFFFFFFFFFFFFFFFFFFFFFFFF AND SUB PUSH2 0xFBB JUMPI PUSH32 0x704DA7DB165C79C1E33D542C079333BBDE970A733032D2F95FEC8FB7D770CBF7 PUSH1 0x40 MLOAD PUSH2 0xFB2 SWAP1 PUSH2 0x24D7 JUMP JUMPDEST PUSH1 0x40 MLOAD DUP1 SWAP2 SUB SWAP1 LOG1 JUMPDEST DUP2 PUSH1 0x1 PUSH0 PUSH2 0x100 EXP DUP2 SLOAD DUP2 PUSH20 0xFFFFFFFFFFFFFFFFFFFFFFFFFFFFFFFFFFFFFFFF MUL NOT AND SWAP1 DUP4 PUSH20 0xFFFFFFFFFFFFFFFFFFFFFFFFFFFFFFFFFFFFFFFF AND MUL OR SWAP1 SSTORE POP DUP2 PUSH20 0xFFFFFFFFFFFFFFFFFFFFFFFFFFFFFFFFFFFFFFFF AND DUP2 PUSH20 0xFFFFFFFFFFFFFFFFFFFFFFFFFFFFFFFFFFFFFFFF AND PUSH32 0x39AD854736757070884DD787EF1A7F58DB33546639D1F3EFDDCF4A33FB8997E PUSH1 0x40 MLOAD PUSH1 0x40 MLOAD DUP1 SWAP2 SUB SWAP1 LOG3 POP POP JUMP JUMPDEST PUSH2 0x1061 PUSH2 0x11B7 JUMP JUMPDEST PUSH0 PUSH20 0xFFFFFFFFFFFFFFFFFFFFFFFFFFFFFFFFFFFFFFFF AND DUP2 PUSH20 0xFFFFFFFFFFFFFFFFFFFFFFFFFFFFFFFFFFFFFFFF AND SUB PUSH2 0x10D1 JUMPI PUSH0 PUSH1 0x40 MLOAD PUSH32 0x1E4FBDF700000000000000000000000000000000000000000000000000000000 DUP2 MSTORE PUSH1 0x4 ADD PUSH2 0x10C8 SWAP2 SWAP1 PUSH2 0x1923 JUMP JUMPDEST PUSH1 0x40 MLOAD DUP1 SWAP2 SUB SWAP1 REVERT JUMPDEST PUSH2 0x10DA DUP2 PUSH2 0x123E JUMP JUMPDEST POP JUMP JUMPDEST PUSH0 PUSH1 0x3 SLOAD SWAP1 POP SWAP1 JUMP JUMPDEST PUSH0 PUSH32 0x805F213200000000000000000000000000000000000000000000000000000000 PUSH28 0xFFFFFFFFFFFFFFFFFFFFFFFFFFFFFFFFFFFFFFFFFFFFFFFFFFFFFFFF NOT AND DUP3 PUSH28 0xFFFFFFFFFFFFFFFFFFFFFFFFFFFFFFFFFFFFFFFFFFFFFFFFFFFFFFFF NOT AND EQ DUP1 PUSH2 0x11B0 JUMPI POP PUSH32 0x1FFC9A700000000000000000000000000000000000000000000000000000000 PUSH28 0xFFFFFFFFFFFFFFFFFFFFFFFFFFFFFFFFFFFFFFFFFFFFFFFFFFFFFFFF NOT AND DUP3 PUSH28 0xFFFFFFFFFFFFFFFFFFFFFFFFFFFFFFFFFFFFFFFFFFFFFFFFFFFFFFFF NOT AND EQ JUMPDEST SWAP1 POP SWAP2 SWAP1 POP JUMP JUMPDEST PUSH2 0x11BF PUSH2 0x15DB JUMP JUMPDEST PUSH20 0xFFFFFFFFFFFFFFFFFFFFFFFFFFFFFFFFFFFFFFFF AND PUSH2 0x11DD PUSH2 0xB0B JUMP JUMPDEST PUSH20 0xFFFFFFFFFFFFFFFFFFFFFFFFFFFFFFFFFFFFFFFF AND EQ PUSH2 0x123C JUMPI PUSH2 0x1200 PUSH2 0x15DB JUMP JUMPDEST PUSH1 0x40 MLOAD PUSH32 0x118CDAA700000000000000000000000000000000000000000000000000000000 DUP2 MSTORE PUSH1 0x4 ADD PUSH2 0x1233 SWAP2 SWAP1 PUSH2 0x1923 JUMP JUMPDEST PUSH1 0x40 MLOAD DUP1 SWAP2 SUB SWAP1 REVERT JUMPDEST JUMP JUMPDEST PUSH0 PUSH0 PUSH0 SWAP1 SLOAD SWAP1 PUSH2 0x100 EXP SWAP1 DIV PUSH20 0xFFFFFFFFFFFFFFFFFFFFFFFFFFFFFFFFFFFFFFFF AND SWAP1 POP DUP2 PUSH0 PUSH0 PUSH2 0x100 EXP DUP2 SLOAD DUP2 PUSH20 0xFFFFFFFFFFFFFFFFFFFFFFFFFFFFFFFFFFFFFFFF MUL NOT AND SWAP1 DUP4 PUSH20 0xFFFFFFFFFFFFFFFFFFFFFFFFFFFFFFFFFFFFFFFF AND MUL OR SWAP1 SSTORE POP DUP2 PUSH20 0xFFFFFFFFFFFFFFFFFFFFFFFFFFFFFFFFFFFFFFFF AND DUP2 PUSH20 0xFFFFFFFFFFFFFFFFFFFFFFFFFFFFFFFFFFFFFFFF AND PUSH32 0x8BE0079C531659141344CD1FD0A4F28419497F9722A3DAAFE3B4186F6B6457E0 PUSH1 0x40 MLOAD PUSH1 0x40 MLOAD DUP1 SWAP2 SUB SWAP1 LOG3 POP POP JUMP JUMPDEST PUSH0 PUSH0 PUSH0 PUSH1 0x20 DUP5 ADD MLOAD SWAP3 POP PUSH1 0x40 DUP5 ADD MLOAD SWAP2 POP PUSH1 0x4A DUP5 ADD MLOAD PUSH1 0x8 PUSH1 0xC MUL SHR SWAP1 POP SWAP2 SWAP4 SWAP1 SWAP3 POP JUMP JUMPDEST PUSH0 PUSH0 DUP4 DUP4 DUP2 ADD SWAP1 PUSH2 0x1335 SWAP2 SWAP1 PUSH2 0x2530 JUMP JUMPDEST SWAP2 POP SWAP2 POP PUSH2 0x1343 DUP3 DUP3 PUSH2 0x15E2 JUMP JUMPDEST POP POP POP POP JUMP JUMPDEST PUSH0 DUP2 PUSH1 0x60 ADD MLOAD DUP1 PUSH1 0x20 ADD SWAP1 MLOAD DUP2 ADD SWAP1 PUSH2 0x1362 SWAP2 SWAP1 PUSH2 0x2582 JUMP JUMPDEST SWAP1 POP PUSH0 DUP3 PUSH1 0x80 ADD MLOAD PUSH0 DUP2 MLOAD DUP2 LT PUSH2 0x137C JUMPI PUSH2 0x137B PUSH2 0x239B JUMP JUMPDEST JUMPDEST PUSH1 0x20 MUL PUSH1 0x20 ADD ADD MLOAD PUSH1 0x20 ADD MLOAD SWAP1 POP PUSH2 0x1394 DUP3 DUP3 PUSH2 0x15E2 JUMP JUMPDEST POP POP POP JUMP JUMPDEST PUSH1 0x60 PUSH0 PUSH1 0x2 DUP4 MLOAD PUSH2 0x13AA SWAP2 SWAP1 PUSH2 0x25DA JUMP JUMPDEST PUSH8 0xFFFFFFFFFFFFFFFF DUP2 GT ISZERO PUSH2 0x13C3 JUMPI PUSH2 0x13C2 PUSH2 0x1F85 JUMP JUMPDEST JUMPDEST PUSH1 0x40 MLOAD SWAP1 DUP1 DUP3 MSTORE DUP1 PUSH1 0x1F ADD PUSH1 0x1F NOT AND PUSH1 0x20 ADD DUP3 ADD PUSH1 0x40 MSTORE DUP1 ISZERO PUSH2 0x13F5 JUMPI DUP2 PUSH1 0x20 ADD PUSH1 0x1 DUP3 MUL DUP1 CALLDATASIZE DUP4 CALLDATACOPY DUP1 DUP3 ADD SWAP2 POP POP SWAP1 POP JUMPDEST POP SWAP1 POP PUSH0 PUSH0 SWAP1 POP JUMPDEST DUP4 MLOAD DUP2 LT ISZERO PUSH2 0x15D1 JUMPI PUSH1 0x40 MLOAD DUP1 PUSH1 0x40 ADD PUSH1 0x40 MSTORE DUP1 PUSH1 0x10 DUP2 MSTORE PUSH1 0x20 ADD PUSH32 0x3031323334353637383961626364656600000000000000000000000000000000 DUP2 MSTORE POP PUSH1 0x4 DUP6 DUP4 DUP2 MLOAD DUP2 LT PUSH2 0x1451 JUMPI PUSH2 0x1450 PUSH2 0x239B JUMP JUMPDEST JUMPDEST PUSH1 0x20 ADD ADD MLOAD PUSH1 0xF8 SHR PUSH1 0xF8 SHL PUSH31 0xFFFFFFFFFFFFFFFFFFFFFFFFFFFFFFFFFFFFFFFFFFFFFFFFFFFFFFFFFFFFFF NOT AND SWAP1 SHR PUSH1 0xF8 SHR PUSH1 0xFF AND DUP2 MLOAD DUP2 LT PUSH2 0x1497 JUMPI PUSH2 0x1496 PUSH2 0x239B JUMP JUMPDEST JUMPDEST PUSH1 0x20 ADD ADD MLOAD PUSH1 0xF8 SHR PUSH1 0xF8 SHL DUP3 PUSH1 0x2 DUP4 PUSH2 0x14B0 SWAP2 SWAP1 PUSH2 0x25DA JUMP JUMPDEST DUP2 MLOAD DUP2 LT PUSH2 0x14C1 JUMPI PUSH2 0x14C0 PUSH2 0x239B JUMP JUMPDEST JUMPDEST PUSH1 0x20 ADD ADD SWAP1 PUSH31 0xFFFFFFFFFFFFFFFFFFFFFFFFFFFFFFFFFFFFFFFFFFFFFFFFFFFFFFFFFFFFFF NOT AND SWAP1 DUP2 PUSH0 BYTE SWAP1 MSTORE8 POP PUSH1 0x40 MLOAD DUP1 PUSH1 0x40 ADD PUSH1 0x40 MSTORE DUP1 PUSH1 0x10 DUP2 MSTORE PUSH1 0x20 ADD PUSH32 0x3031323334353637383961626364656600000000000000000000000000000000 DUP2 MSTORE POP PUSH1 0xF PUSH1 0xF8 SHL DUP6 DUP4 DUP2 MLOAD DUP2 LT PUSH2 0x153D JUMPI PUSH2 0x153C PUSH2 0x239B JUMP JUMPDEST JUMPDEST PUSH1 0x20 ADD ADD MLOAD PUSH1 0xF8 SHR PUSH1 0xF8 SHL AND PUSH1 0xF8 SHR PUSH1 0xFF AND DUP2 MLOAD DUP2 LT PUSH2 0x1560 JUMPI PUSH2 0x155F PUSH2 0x239B JUMP JUMPDEST JUMPDEST PUSH1 0x20 ADD ADD MLOAD PUSH1 0xF8 SHR PUSH1 0xF8 SHL DUP3 PUSH1 0x1 PUSH1 0x2 DUP5 PUSH2 0x157B SWAP2 SWAP1 PUSH2 0x25DA JUMP JUMPDEST PUSH2 0x1585 SWAP2 SWAP1 PUSH2 0x261B JUMP JUMPDEST DUP2 MLOAD DUP2 LT PUSH2 0x1596 JUMPI PUSH2 0x1595 PUSH2 0x239B JUMP JUMPDEST JUMPDEST PUSH1 0x20 ADD ADD SWAP1 PUSH31 0xFFFFFFFFFFFFFFFFFFFFFFFFFFFFFFFFFFFFFFFFFFFFFFFFFFFFFFFFFFFFFF NOT AND SWAP1 DUP2 PUSH0 BYTE SWAP1 MSTORE8 POP DUP1 DUP1 PUSH1 0x1 ADD SWAP2 POP POP PUSH2 0x13FD JUMP JUMPDEST POP DUP1 SWAP2 POP POP SWAP2 SWAP1 POP JUMP JUMPDEST PUSH0 CALLER SWAP1 POP SWAP1 JUMP JUMPDEST PUSH0 PUSH20 0xFFFFFFFFFFFFFFFFFFFFFFFFFFFFFFFFFFFFFFFF AND DUP3 PUSH20 0xFFFFFFFFFFFFFFFFFFFFFFFFFFFFFFFFFFFFFFFF AND SUB PUSH2 0x1650 JUMPI PUSH1 0x40 MLOAD PUSH32 0x8C379A000000000000000000000000000000000000000000000000000000000 DUP2 MSTORE PUSH1 0x4 ADD PUSH2 0x1647 SWAP1 PUSH2 0x2698 JUMP JUMPDEST PUSH1 0x40 MLOAD DUP1 SWAP2 SUB SWAP1 REVERT JUMPDEST PUSH32 0x0 PUSH20 0xFFFFFFFFFFFFFFFFFFFFFFFFFFFFFFFFFFFFFFFF AND PUSH4 0xA9059CBB DUP4 DUP4 PUSH1 0x40 MLOAD DUP4 PUSH4 0xFFFFFFFF AND PUSH1 0xE0 SHL DUP2 MSTORE PUSH1 0x4 ADD PUSH2 0x16AB SWAP3 SWAP2 SWAP1 PUSH2 0x26B6 JUMP JUMPDEST PUSH1 0x20 PUSH1 0x40 MLOAD DUP1 DUP4 SUB DUP2 PUSH0 DUP8 GAS CALL ISZERO DUP1 ISZERO PUSH2 0x16C7 JUMPI RETURNDATASIZE PUSH0 PUSH0 RETURNDATACOPY RETURNDATASIZE PUSH0 REVERT JUMPDEST POP POP POP POP PUSH1 0x40 MLOAD RETURNDATASIZE PUSH1 0x1F NOT PUSH1 0x1F DUP3 ADD AND DUP3 ADD DUP1 PUSH1 0x40 MSTORE POP DUP2 ADD SWAP1 PUSH2 0x16EB SWAP2 SWAP1 PUSH2 0x1DD6 JUMP JUMPDEST PUSH2 0x172A JUMPI PUSH1 0x40 MLOAD PUSH32 0x8C379A000000000000000000000000000000000000000000000000000000000 DUP2 MSTORE PUSH1 0x4 ADD PUSH2 0x1721 SWAP1 PUSH2 0x2727 JUMP JUMPDEST PUSH1 0x40 MLOAD DUP1 SWAP2 SUB SWAP1 REVERT JUMPDEST DUP2 PUSH20 0xFFFFFFFFFFFFFFFFFFFFFFFFFFFFFFFFFFFFFFFF AND PUSH32 0xF406FE54E7C193E129427F5D405F4B20ED911C3A00285118711B015CD0D1414 DUP3 PUSH1 0x40 MLOAD PUSH2 0x1770 SWAP2 SWAP1 PUSH2 0x2745 JUMP JUMPDEST PUSH1 0x40 MLOAD DUP1 SWAP2 SUB SWAP1 LOG2 POP POP JUMP JUMPDEST PUSH0 PUSH1 0x40 MLOAD SWAP1 POP SWAP1 JUMP JUMPDEST PUSH0 PUSH0 REVERT JUMPDEST PUSH0 PUSH0 REVERT JUMPDEST PUSH0 PUSH32 0xFFFFFFFF00000000000000000000000000000000000000000000000000000000 DUP3 AND SWAP1 POP SWAP2 SWAP1 POP JUMP JUMPDEST PUSH2 0x17C1 DUP2 PUSH2 0x178D JUMP JUMPDEST DUP2 EQ PUSH2 0x17CB JUMPI PUSH0 PUSH0 REVERT JUMPDEST POP JUMP JUMPDEST PUSH0 DUP2 CALLDATALOAD SWAP1 POP PUSH2 0x17DC DUP2 PUSH2 0x17B8 JUMP JUMPDEST SWAP3 SWAP2 POP POP JUMP JUMPDEST PUSH0 PUSH1 0x20 DUP3 DUP5 SUB SLT ISZERO PUSH2 0x17F7 JUMPI PUSH2 0x17F6 PUSH2 0x1785 JUMP JUMPDEST JUMPDEST PUSH0 PUSH2 0x1804 DUP5 DUP3 DUP6 ADD PUSH2 0x17CE JUMP JUMPDEST SWAP2 POP POP SWAP3 SWAP2 POP POP JUMP JUMPDEST PUSH0 DUP2 ISZERO ISZERO SWAP1 POP SWAP2 SWAP1 POP JUMP JUMPDEST PUSH2 0x1821 DUP2 PUSH2 0x180D JUMP JUMPDEST DUP3 MSTORE POP POP JUMP JUMPDEST PUSH0 PUSH1 0x20 DUP3 ADD SWAP1 POP PUSH2 0x183A PUSH0 DUP4 ADD DUP5 PUSH2 0x1818 JUMP JUMPDEST SWAP3 SWAP2 POP POP JUMP JUMPDEST PUSH0 DUP2 SWAP1 POP SWAP2 SWAP1 POP JUMP JUMPDEST PUSH2 0x1852 DUP2 PUSH2 0x1840 JUMP JUMPDEST DUP2 EQ PUSH2 0x185C JUMPI PUSH0 PUSH0 REVERT JUMPDEST POP JUMP JUMPDEST PUSH0 DUP2 CALLDATALOAD SWAP1 POP PUSH2 0x186D DUP2 PUSH2 0x1849 JUMP JUMPDEST SWAP3 SWAP2 POP POP JUMP JUMPDEST PUSH0 DUP2 SWAP1 POP SWAP2 SWAP1 POP JUMP JUMPDEST PUSH2 0x1885 DUP2 PUSH2 0x1873 JUMP JUMPDEST DUP2 EQ PUSH2 0x188F JUMPI PUSH0 PUSH0 REVERT JUMPDEST POP JUMP JUMPDEST PUSH0 DUP2 CALLDATALOAD SWAP1 POP PUSH2 0x18A0 DUP2 PUSH2 0x187C JUMP JUMPDEST SWAP3 SWAP2 POP POP JUMP JUMPDEST PUSH0 PUSH0 PUSH1 0x40 DUP4 DUP6 SUB SLT ISZERO PUSH2 0x18BC JUMPI PUSH2 0x18BB PUSH2 0x1785 JUMP JUMPDEST JUMPDEST PUSH0 PUSH2 0x18C9 DUP6 DUP3 DUP7 ADD PUSH2 0x185F JUMP JUMPDEST SWAP3 POP POP PUSH1 0x20 PUSH2 0x18DA DUP6 DUP3 DUP7 ADD PUSH2 0x1892 JUMP JUMPDEST SWAP2 POP POP SWAP3 POP SWAP3 SWAP1 POP JUMP JUMPDEST PUSH0 PUSH20 0xFFFFFFFFFFFFFFFFFFFFFFFFFFFFFFFFFFFFFFFF DUP3 AND SWAP1 POP SWAP2 SWAP1 POP JUMP JUMPDEST PUSH0 PUSH2 0x190D DUP3 PUSH2 0x18E4 JUMP JUMPDEST SWAP1 POP SWAP2 SWAP1 POP JUMP JUMPDEST PUSH2 0x191D DUP2 PUSH2 0x1903 JUMP JUMPDEST DUP3 MSTORE POP POP JUMP JUMPDEST PUSH0 PUSH1 0x20 DUP3 ADD SWAP1 POP PUSH2 0x1936 PUSH0 DUP4 ADD DUP5 PUSH2 0x1914 JUMP JUMPDEST SWAP3 SWAP2 POP POP JUMP JUMPDEST PUSH0 DUP2 SWAP1 POP SWAP2 SWAP1 POP JUMP JUMPDEST PUSH0 PUSH2 0x195F PUSH2 0x195A PUSH2 0x1955 DUP5 PUSH2 0x18E4 JUMP JUMPDEST PUSH2 0x193C JUMP JUMPDEST PUSH2 0x18E4 JUMP JUMPDEST SWAP1 POP SWAP2 SWAP1 POP JUMP JUMPDEST PUSH0 PUSH2 0x1970 DUP3 PUSH2 0x1945 JUMP JUMPDEST SWAP1 POP SWAP2 SWAP1 POP JUMP JUMPDEST PUSH0 PUSH2 0x1981 DUP3 PUSH2 0x1966 JUMP JUMPDEST SWAP1 POP SWAP2 SWAP1 POP JUMP JUMPDEST PUSH2 0x1991 DUP2 PUSH2 0x1977 JUMP JUMPDEST DUP3 MSTORE POP POP JUMP JUMPDEST PUSH0 PUSH1 0x20 DUP3 ADD SWAP1 POP PUSH2 0x19AA PUSH0 DUP4 ADD DUP5 PUSH2 0x1988 JUMP JUMPDEST SWAP3 SWAP2 POP POP JUMP JUMPDEST PUSH0 PUSH0 REVERT JUMPDEST PUSH0 PUSH0 REVERT JUMPDEST PUSH0 PUSH0 REVERT JUMPDEST PUSH0 PUSH0 DUP4 PUSH1 0x1F DUP5 ADD SLT PUSH2 0x19D1 JUMPI PUSH2 0x19D0 PUSH2 0x19B0 JUMP JUMPDEST JUMPDEST DUP3 CALLDATALOAD SWAP1 POP PUSH8 0xFFFFFFFFFFFFFFFF DUP2 GT ISZERO PUSH2 0x19EE JUMPI PUSH2 0x19ED PUSH2 0x19B4 JUMP JUMPDEST JUMPDEST PUSH1 0x20 DUP4 ADD SWAP2 POP DUP4 PUSH1 0x1 DUP3 MUL DUP4 ADD GT ISZERO PUSH2 0x1A0A JUMPI PUSH2 0x1A09 PUSH2 0x19B8 JUMP JUMPDEST JUMPDEST SWAP3 POP SWAP3 SWAP1 POP JUMP JUMPDEST PUSH0 PUSH0 PUSH0 PUSH1 0x40 DUP5 DUP7 SUB SLT ISZERO PUSH2 0x1A28 JUMPI PUSH2 0x1A27 PUSH2 0x1785 JUMP JUMPDEST JUMPDEST PUSH0 DUP5 ADD CALLDATALOAD PUSH8 0xFFFFFFFFFFFFFFFF DUP2 GT ISZERO PUSH2 0x1A45 JUMPI PUSH2 0x1A44 PUSH2 0x1789 JUMP JUMPDEST JUMPDEST PUSH2 0x1A51 DUP7 DUP3 DUP8 ADD PUSH2 0x19BC JUMP JUMPDEST SWAP4 POP SWAP4 POP POP PUSH1 0x20 PUSH2 0x1A64 DUP7 DUP3 DUP8 ADD PUSH2 0x185F JUMP JUMPDEST SWAP2 POP POP SWAP3 POP SWAP3 POP SWAP3 JUMP JUMPDEST PUSH0 PUSH0 PUSH0 PUSH0 PUSH1 0x40 DUP6 DUP8 SUB SLT ISZERO PUSH2 0x1A86 JUMPI PUSH2 0x1A85 PUSH2 0x1785 JUMP JUMPDEST JUMPDEST PUSH0 DUP6 ADD CALLDATALOAD PUSH8 0xFFFFFFFFFFFFFFFF DUP2 GT ISZERO PUSH2 0x1AA3 JUMPI PUSH2 0x1AA2 PUSH2 0x1789 JUMP JUMPDEST JUMPDEST PUSH2 0x1AAF DUP8 DUP3 DUP9 ADD PUSH2 0x19BC JUMP JUMPDEST SWAP5 POP SWAP5 POP POP PUSH1 0x20 DUP6 ADD CALLDATALOAD PUSH8 0xFFFFFFFFFFFFFFFF DUP2 GT ISZERO PUSH2 0x1AD2 JUMPI PUSH2 0x1AD1 PUSH2 0x1789 JUMP JUMPDEST JUMPDEST PUSH2 0x1ADE DUP8 DUP3 DUP9 ADD PUSH2 0x19BC JUMP JUMPDEST SWAP3 POP SWAP3 POP POP SWAP3 SWAP6 SWAP2 SWAP5 POP SWAP3 POP JUMP JUMPDEST PUSH0 PUSH0 REVERT JUMPDEST PUSH0 PUSH1 0xA0 DUP3 DUP5 SUB SLT ISZERO PUSH2 0x1B05 JUMPI PUSH2 0x1B04 PUSH2 0x1AEC JUMP JUMPDEST JUMPDEST DUP2 SWAP1 POP SWAP3 SWAP2 POP POP JUMP JUMPDEST PUSH0 PUSH1 0x20 DUP3 DUP5 SUB SLT ISZERO PUSH2 0x1B23 JUMPI PUSH2 0x1B22 PUSH2 0x1785 JUMP JUMPDEST JUMPDEST PUSH0 DUP3 ADD CALLDATALOAD PUSH8 0xFFFFFFFFFFFFFFFF DUP2 GT ISZERO PUSH2 0x1B40 JUMPI PUSH2 0x1B3F PUSH2 0x1789 JUMP JUMPDEST JUMPDEST PUSH2 0x1B4C DUP5 DUP3 DUP6 ADD PUSH2 0x1AF0 JUMP JUMPDEST SWAP2 POP POP SWAP3 SWAP2 POP POP JUMP JUMPDEST PUSH0 PUSH32 0xFFFFFFFFFFFFFFFFFFFF00000000000000000000000000000000000000000000 DUP3 AND SWAP1 POP SWAP2 SWAP1 POP JUMP JUMPDEST PUSH2 0x1B89 DUP2 PUSH2 0x1B55 JUMP JUMPDEST DUP3 MSTORE POP POP JUMP JUMPDEST PUSH0 PUSH1 0x20 DUP3 ADD SWAP1 POP PUSH2 0x1BA2 PUSH0 DUP4 ADD DUP5 PUSH2 0x1B80 JUMP JUMPDEST SWAP3 SWAP2 POP POP JUMP JUMPDEST PUSH0 PUSH0 DUP4 PUSH1 0x1F DUP5 ADD SLT PUSH2 0x1BBD JUMPI PUSH2 0x1BBC PUSH2 0x19B0 JUMP JUMPDEST JUMPDEST DUP3 CALLDATALOAD SWAP1 POP PUSH8 0xFFFFFFFFFFFFFFFF DUP2 GT ISZERO PUSH2 0x1BDA JUMPI PUSH2 0x1BD9 PUSH2 0x19B4 JUMP JUMPDEST JUMPDEST PUSH1 0x20 DUP4 ADD SWAP2 POP DUP4 PUSH1 0x1 DUP3 MUL DUP4 ADD GT ISZERO PUSH2 0x1BF6 JUMPI PUSH2 0x1BF5 PUSH2 0x19B8 JUMP JUMPDEST JUMPDEST SWAP3 POP SWAP3 SWAP1 POP JUMP JUMPDEST PUSH0 PUSH0 PUSH1 0x20 DUP4 DUP6 SUB SLT ISZERO PUSH2 0x1C13 JUMPI PUSH2 0x1C12 PUSH2 0x1785 JUMP JUMPDEST JUMPDEST PUSH0 DUP4 ADD CALLDATALOAD PUSH8 0xFFFFFFFFFFFFFFFF DUP2 GT ISZERO PUSH2 0x1C30 JUMPI PUSH2 0x1C2F PUSH2 0x1789 JUMP JUMPDEST JUMPDEST PUSH2 0x1C3C DUP6 DUP3 DUP7 ADD PUSH2 0x1BA8 JUMP JUMPDEST SWAP3 POP SWAP3 POP POP SWAP3 POP SWAP3 SWAP1 POP JUMP JUMPDEST PUSH0 PUSH1 0x20 DUP3 DUP5 SUB SLT ISZERO PUSH2 0x1C5D JUMPI PUSH2 0x1C5C PUSH2 0x1785 JUMP JUMPDEST JUMPDEST PUSH0 PUSH2 0x1C6A DUP5 DUP3 DUP6 ADD PUSH2 0x185F JUMP JUMPDEST SWAP2 POP POP SWAP3 SWAP2 POP POP JUMP JUMPDEST PUSH2 0x1C7C DUP2 PUSH2 0x1903 JUMP JUMPDEST DUP2 EQ PUSH2 0x1C86 JUMPI PUSH0 PUSH0 REVERT JUMPDEST POP JUMP JUMPDEST PUSH0 DUP2 CALLDATALOAD SWAP1 POP PUSH2 0x1C97 DUP2 PUSH2 0x1C73 JUMP JUMPDEST SWAP3 SWAP2 POP POP JUMP JUMPDEST PUSH0 PUSH1 0x20 DUP3 DUP5 SUB SLT ISZERO PUSH2 0x1CB2 JUMPI PUSH2 0x1CB1 PUSH2 0x1785 JUMP JUMPDEST JUMPDEST PUSH0 PUSH2 0x1CBF DUP5 DUP3 DUP6 ADD PUSH2 0x1C89 JUMP JUMPDEST SWAP2 POP POP SWAP3 SWAP2 POP POP JUMP JUMPDEST PUSH2 0x1CD1 DUP2 PUSH2 0x1840 JUMP JUMPDEST DUP3 MSTORE POP POP JUMP JUMPDEST PUSH0 PUSH1 0x20 DUP3 ADD SWAP1 POP PUSH2 0x1CEA PUSH0 DUP4 ADD DUP5 PUSH2 0x1CC8 JUMP JUMPDEST SWAP3 SWAP2 POP POP JUMP JUMPDEST PUSH0 DUP3 DUP3 MSTORE PUSH1 0x20 DUP3 ADD SWAP1 POP SWAP3 SWAP2 POP POP JUMP JUMPDEST PUSH32 0x536861646F773A207A65726F20616D6F756E7400000000000000000000000000 PUSH0 DUP3 ADD MSTORE POP JUMP JUMPDEST PUSH0 PUSH2 0x1D34 PUSH1 0x13 DUP4 PUSH2 0x1CF0 JUMP JUMPDEST SWAP2 POP PUSH2 0x1D3F DUP3 PUSH2 0x1D00 JUMP JUMPDEST PUSH1 0x20 DUP3 ADD SWAP1 POP SWAP2 SWAP1 POP JUMP JUMPDEST PUSH0 PUSH1 0x20 DUP3 ADD SWAP1 POP DUP2 DUP2 SUB PUSH0 DUP4 ADD MSTORE PUSH2 0x1D61 DUP2 PUSH2 0x1D28 JUMP JUMPDEST SWAP1 POP SWAP2 SWAP1 POP JUMP JUMPDEST PUSH2 0x1D71 DUP2 PUSH2 0x1873 JUMP JUMPDEST DUP3 MSTORE POP POP JUMP JUMPDEST PUSH0 PUSH1 0x60 DUP3 ADD SWAP1 POP PUSH2 0x1D8A PUSH0 DUP4 ADD DUP7 PUSH2 0x1914 JUMP JUMPDEST PUSH2 0x1D97 PUSH1 0x20 DUP4 ADD DUP6 PUSH2 0x1914 JUMP JUMPDEST PUSH2 0x1DA4 PUSH1 0x40 DUP4 ADD DUP5 PUSH2 0x1D68 JUMP JUMPDEST SWAP5 SWAP4 POP POP POP POP JUMP JUMPDEST PUSH2 0x1DB5 DUP2 PUSH2 0x180D JUMP JUMPDEST DUP2 EQ PUSH2 0x1DBF JUMPI PUSH0 PUSH0 REVERT JUMPDEST POP JUMP JUMPDEST PUSH0 DUP2 MLOAD SWAP1 POP PUSH2 0x1DD0 DUP2 PUSH2 0x1DAC JUMP JUMPDEST SWAP3 SWAP2 POP POP JUMP JUMPDEST PUSH0 PUSH1 0x20 DUP3 DUP5 SUB SLT ISZERO PUSH2 0x1DEB JUMPI PUSH2 0x1DEA PUSH2 0x1785 JUMP JUMPDEST JUMPDEST PUSH0 PUSH2 0x1DF8 DUP5 DUP3 DUP6 ADD PUSH2 0x1DC2 JUMP JUMPDEST SWAP2 POP POP SWAP3 SWAP2 POP POP JUMP JUMPDEST PUSH32 0x5472616E73666572206661696C65640000000000000000000000000000000000 PUSH0 DUP3 ADD MSTORE POP JUMP JUMPDEST PUSH0 PUSH2 0x1E35 PUSH1 0xF DUP4 PUSH2 0x1CF0 JUMP JUMPDEST SWAP2 POP PUSH2 0x1E40 DUP3 PUSH2 0x1E01 JUMP JUMPDEST PUSH1 0x20 DUP3 ADD SWAP1 POP SWAP2 SWAP1 POP JUMP JUMPDEST PUSH0 PUSH1 0x20 DUP3 ADD SWAP1 POP DUP2 DUP2 SUB PUSH0 DUP4 ADD MSTORE PUSH2 0x1E62 DUP2 PUSH2 0x1E29 JUMP JUMPDEST SWAP1 POP SWAP2 SWAP1 POP JUMP JUMPDEST PUSH0 PUSH1 0x40 DUP3 ADD SWAP1 POP PUSH2 0x1E7C PUSH0 DUP4 ADD DUP6 PUSH2 0x1CC8 JUMP JUMPDEST PUSH2 0x1E89 PUSH1 0x20 DUP4 ADD DUP5 PUSH2 0x1D68 JUMP JUMPDEST SWAP4 SWAP3 POP POP POP JUMP JUMPDEST PUSH0 DUP3 DUP3 MSTORE PUSH1 0x20 DUP3 ADD SWAP1 POP SWAP3 SWAP2 POP POP JUMP JUMPDEST DUP3 DUP2 DUP4 CALLDATACOPY PUSH0 DUP4 DUP4 ADD MSTORE POP POP POP JUMP JUMPDEST PUSH0 PUSH1 0x1F NOT PUSH1 0x1F DUP4 ADD AND SWAP1 POP SWAP2 SWAP1 POP JUMP JUMPDEST PUSH0 PUSH2 0x1EC9 DUP4 DUP6 PUSH2 0x1E90 JUMP JUMPDEST SWAP4 POP PUSH2 0x1ED6 DUP4 DUP6 DUP5 PUSH2 0x1EA0 JUMP JUMPDEST PUSH2 0x1EDF DUP4 PUSH2 0x1EAE JUMP JUMPDEST DUP5 ADD SWAP1 POP SWAP4 SWAP3 POP POP POP JUMP JUMPDEST PUSH0 PUSH1 0x20 DUP3 ADD SWAP1 POP DUP2 DUP2 SUB PUSH0 DUP4 ADD MSTORE PUSH2 0x1F03 DUP2 DUP5 DUP7 PUSH2 0x1EBE JUMP JUMPDEST SWAP1 POP SWAP4 SWAP3 POP POP POP JUMP JUMPDEST PUSH0 PUSH1 0x40 DUP3 ADD SWAP1 POP PUSH2 0x1F1F PUSH0 DUP4 ADD DUP6 PUSH2 0x1914 JUMP JUMPDEST PUSH2 0x1F2C PUSH1 0x20 DUP4 ADD DUP5 PUSH2 0x1914 JUMP JUMPDEST SWAP4 SWAP3 POP POP POP JUMP JUMPDEST PUSH0 PUSH1 0x40 DUP3 ADD SWAP1 POP PUSH2 0x1F46 PUSH0 DUP4 ADD DUP6 PUSH2 0x1CC8 JUMP JUMPDEST PUSH2 0x1F53 PUSH1 0x20 DUP4 ADD DUP5 PUSH2 0x1CC8 JUMP JUMPDEST SWAP4 SWAP3 POP POP POP JUMP JUMPDEST PUSH0 PUSH1 0x40 DUP3 ADD SWAP1 POP PUSH2 0x1F6D PUSH0 DUP4 ADD DUP6 PUSH2 0x1B80 JUMP JUMPDEST PUSH2 0x1F7A PUSH1 0x20 DUP4 ADD DUP5 PUSH2 0x1B80 JUMP JUMPDEST SWAP4 SWAP3 POP POP POP JUMP JUMPDEST PUSH0 PUSH0 REVERT JUMPDEST PUSH32 0x4E487B7100000000000000000000000000000000000000000000000000000000 PUSH0 MSTORE PUSH1 0x41 PUSH1 0x4 MSTORE PUSH1 0x24 PUSH0 REVERT JUMPDEST PUSH2 0x1FBB DUP3 PUSH2 0x1EAE JUMP JUMPDEST DUP2 ADD DUP2 DUP2 LT PUSH8 0xFFFFFFFFFFFFFFFF DUP3 GT OR ISZERO PUSH2 0x1FDA JUMPI PUSH2 0x1FD9 PUSH2 0x1F85 JUMP JUMPDEST JUMPDEST DUP1 PUSH1 0x40 MSTORE POP POP POP JUMP JUMPDEST PUSH0 PUSH2 0x1FEC PUSH2 0x177C JUMP JUMPDEST SWAP1 POP PUSH2 0x1FF8 DUP3 DUP3 PUSH2 0x1FB2 JUMP JUMPDEST SWAP2 SWAP1 POP JUMP JUMPDEST PUSH0 PUSH0 REVERT JUMPDEST PUSH0 PUSH8 0xFFFFFFFFFFFFFFFF DUP3 AND SWAP1 POP SWAP2 SWAP1 POP JUMP JUMPDEST PUSH2 0x201D DUP2 PUSH2 0x2001 JUMP JUMPDEST DUP2 EQ PUSH2 0x2027 JUMPI PUSH0 PUSH0 REVERT JUMPDEST POP JUMP JUMPDEST PUSH0 DUP2 CALLDATALOAD SWAP1 POP PUSH2 0x2038 DUP2 PUSH2 0x2014 JUMP JUMPDEST SWAP3 SWAP2 POP POP JUMP JUMPDEST PUSH0 PUSH0 REVERT JUMPDEST PUSH0 PUSH8 0xFFFFFFFFFFFFFFFF DUP3 GT ISZERO PUSH2 0x205C JUMPI PUSH2 0x205B PUSH2 0x1F85 JUMP JUMPDEST JUMPDEST PUSH2 0x2065 DUP3 PUSH2 0x1EAE JUMP JUMPDEST SWAP1 POP PUSH1 0x20 DUP2 ADD SWAP1 POP SWAP2 SWAP1 POP JUMP JUMPDEST PUSH0 PUSH2 0x2084 PUSH2 0x207F DUP5 PUSH2 0x2042 JUMP JUMPDEST PUSH2 0x1FE3 JUMP JUMPDEST SWAP1 POP DUP3 DUP2 MSTORE PUSH1 0x20 DUP2 ADD DUP5 DUP5 DUP5 ADD GT ISZERO PUSH2 0x20A0 JUMPI PUSH2 0x209F PUSH2 0x203E JUMP JUMPDEST JUMPDEST PUSH2 0x20AB DUP5 DUP3 DUP6 PUSH2 0x1EA0 JUMP JUMPDEST POP SWAP4 SWAP3 POP POP POP JUMP JUMPDEST PUSH0 DUP3 PUSH1 0x1F DUP4 ADD SLT PUSH2 0x20C7 JUMPI PUSH2 0x20C6 PUSH2 0x19B0 JUMP JUMPDEST JUMPDEST DUP2 CALLDATALOAD PUSH2 0x20D7 DUP5 DUP3 PUSH1 0x20 DUP7 ADD PUSH2 0x2072 JUMP JUMPDEST SWAP2 POP POP SWAP3 SWAP2 POP POP JUMP JUMPDEST PUSH0 PUSH8 0xFFFFFFFFFFFFFFFF DUP3 GT ISZERO PUSH2 0x20FA JUMPI PUSH2 0x20F9 PUSH2 0x1F85 JUMP JUMPDEST JUMPDEST PUSH1 0x20 DUP3 MUL SWAP1 POP PUSH1 0x20 DUP2 ADD SWAP1 POP SWAP2 SWAP1 POP JUMP JUMPDEST PUSH0 PUSH1 0x40 DUP3 DUP5 SUB SLT ISZERO PUSH2 0x2120 JUMPI PUSH2 0x211F PUSH2 0x1F81 JUMP JUMPDEST JUMPDEST PUSH2 0x212A PUSH1 0x40 PUSH2 0x1FE3 JUMP JUMPDEST SWAP1 POP PUSH0 PUSH2 0x2139 DUP5 DUP3 DUP6 ADD PUSH2 0x1C89 JUMP JUMPDEST PUSH0 DUP4 ADD MSTORE POP PUSH1 0x20 PUSH2 0x214C DUP5 DUP3 DUP6 ADD PUSH2 0x1892 JUMP JUMPDEST PUSH1 0x20 DUP4 ADD MSTORE POP SWAP3 SWAP2 POP POP JUMP JUMPDEST PUSH0 PUSH2 0x216A PUSH2 0x2165 DUP5 PUSH2 0x20E0 JUMP JUMPDEST PUSH2 0x1FE3 JUMP JUMPDEST SWAP1 POP DUP1 DUP4 DUP3 MSTORE PUSH1 0x20 DUP3 ADD SWAP1 POP PUSH1 0x40 DUP5 MUL DUP4 ADD DUP6 DUP2 GT ISZERO PUSH2 0x218D JUMPI PUSH2 0x218C PUSH2 0x19B8 JUMP JUMPDEST JUMPDEST DUP4 JUMPDEST DUP2 DUP2 LT ISZERO PUSH2 0x21B6 JUMPI DUP1 PUSH2 0x21A2 DUP9 DUP3 PUSH2 0x210B JUMP JUMPDEST DUP5 MSTORE PUSH1 0x20 DUP5 ADD SWAP4 POP POP PUSH1 0x40 DUP2 ADD SWAP1 POP PUSH2 0x218F JUMP JUMPDEST POP POP POP SWAP4 SWAP3 POP POP POP JUMP JUMPDEST PUSH0 DUP3 PUSH1 0x1F DUP4 ADD SLT PUSH2 0x21D4 JUMPI PUSH2 0x21D3 PUSH2 0x19B0 JUMP JUMPDEST JUMPDEST DUP2 CALLDATALOAD PUSH2 0x21E4 DUP5 DUP3 PUSH1 0x20 DUP7 ADD PUSH2 0x2158 JUMP JUMPDEST SWAP2 POP POP SWAP3 SWAP2 POP POP JUMP JUMPDEST PUSH0 PUSH1 0xA0 DUP3 DUP5 SUB SLT ISZERO PUSH2 0x2202 JUMPI PUSH2 0x2201 PUSH2 0x1F81 JUMP JUMPDEST JUMPDEST PUSH2 0x220C PUSH1 0xA0 PUSH2 0x1FE3 JUMP JUMPDEST SWAP1 POP PUSH0 PUSH2 0x221B DUP5 DUP3 DUP6 ADD PUSH2 0x185F JUMP JUMPDEST PUSH0 DUP4 ADD MSTORE POP PUSH1 0x20 PUSH2 0x222E DUP5 DUP3 DUP6 ADD PUSH2 0x202A JUMP JUMPDEST PUSH1 0x20 DUP4 ADD MSTORE POP PUSH1 0x40 DUP3 ADD CALLDATALOAD PUSH8 0xFFFFFFFFFFFFFFFF DUP2 GT ISZERO PUSH2 0x2252 JUMPI PUSH2 0x2251 PUSH2 0x1FFD JUMP JUMPDEST JUMPDEST PUSH2 0x225E DUP5 DUP3 DUP6 ADD PUSH2 0x20B3 JUMP JUMPDEST PUSH1 0x40 DUP4 ADD MSTORE POP PUSH1 0x60 DUP3 ADD CALLDATALOAD PUSH8 0xFFFFFFFFFFFFFFFF DUP2 GT ISZERO PUSH2 0x2282 JUMPI PUSH2 0x2281 PUSH2 0x1FFD JUMP JUMPDEST JUMPDEST PUSH2 0x228E DUP5 DUP3 DUP6 ADD PUSH2 0x20B3 JUMP JUMPDEST PUSH1 0x60 DUP4 ADD MSTORE POP PUSH1 0x80 DUP3 ADD CALLDATALOAD PUSH8 0xFFFFFFFFFFFFFFFF DUP2 GT ISZERO PUSH2 0x22B2 JUMPI PUSH2 0x22B1 PUSH2 0x1FFD JUMP JUMPDEST JUMPDEST PUSH2 0x22BE DUP5 DUP3 DUP6 ADD PUSH2 0x21C0 JUMP JUMPDEST PUSH1 0x80 DUP4 ADD MSTORE POP SWAP3 SWAP2 POP POP JUMP JUMPDEST PUSH0 PUSH2 0x22D5 CALLDATASIZE DUP4 PUSH2 0x21ED JUMP JUMPDEST SWAP1 POP SWAP2 SWAP1 POP JUMP JUMPDEST PUSH0 DUP2 SWAP1 POP SWAP3 SWAP2 POP POP JUMP JUMPDEST PUSH0 PUSH2 0x22F1 DUP4 DUP6 PUSH2 0x22DC JUMP JUMPDEST SWAP4 POP PUSH2 0x22FE DUP4 DUP6 DUP5 PUSH2 0x1EA0 JUMP JUMPDEST DUP3 DUP5 ADD SWAP1 POP SWAP4 SWAP3 POP POP POP JUMP JUMPDEST PUSH0 PUSH2 0x2316 DUP3 DUP5 DUP7 PUSH2 0x22E6 JUMP JUMPDEST SWAP2 POP DUP2 SWAP1 POP SWAP4 SWAP3 POP POP POP JUMP JUMPDEST PUSH0 DUP2 MLOAD SWAP1 POP PUSH2 0x2330 DUP2 PUSH2 0x1849 JUMP JUMPDEST SWAP3 SWAP2 POP POP JUMP JUMPDEST PUSH0 PUSH1 0x20 DUP3 DUP5 SUB SLT ISZERO PUSH2 0x234B JUMPI PUSH2 0x234A PUSH2 0x1785 JUMP JUMPDEST JUMPDEST PUSH0 PUSH2 0x2358 DUP5 DUP3 DUP6 ADD PUSH2 0x2322 JUMP JUMPDEST SWAP2 POP POP SWAP3 SWAP2 POP POP JUMP JUMPDEST PUSH0 DUP2 SWAP1 POP SWAP2 SWAP1 POP JUMP JUMPDEST PUSH2 0x237B PUSH2 0x2376 DUP3 PUSH2 0x1840 JUMP JUMPDEST PUSH2 0x2361 JUMP JUMPDEST DUP3 MSTORE POP POP JUMP JUMPDEST PUSH0 PUSH2 0x238C DUP3 DUP5 PUSH2 0x236A JUMP JUMPDEST PUSH1 0x20 DUP3 ADD SWAP2 POP DUP2 SWAP1 POP SWAP3 SWAP2 POP POP JUMP JUMPDEST PUSH32 0x4E487B7100000000000000000000000000000000000000000000000000000000 PUSH0 MSTORE PUSH1 0x32 PUSH1 0x4 MSTORE PUSH1 0x24 PUSH0 REVERT JUMPDEST PUSH0 DUP2 MLOAD SWAP1 POP SWAP2 SWAP1 POP JUMP JUMPDEST PUSH0 DUP2 SWAP1 POP PUSH1 0x20 DUP3 ADD SWAP1 POP SWAP2 SWAP1 POP JUMP JUMPDEST PUSH0 PUSH2 0x23EC DUP3 MLOAD PUSH2 0x1B55 JUMP JUMPDEST DUP1 SWAP2 POP POP SWAP2 SWAP1 POP JUMP JUMPDEST PUSH0 DUP3 DUP3 SHL SWAP1 POP SWAP3 SWAP2 POP POP JUMP JUMPDEST PUSH0 PUSH2 0x240B DUP3 PUSH2 0x23C8 JUMP JUMPDEST DUP3 PUSH2 0x2415 DUP5 PUSH2 0x23D2 JUMP JUMPDEST SWAP1 POP PUSH2 0x2420 DUP2 PUSH2 0x23E1 JUMP JUMPDEST SWAP3 POP PUSH1 0xA DUP3 LT ISZERO PUSH2 0x2460 JUMPI PUSH2 0x245B PUSH32 0xFFFFFFFFFFFFFFFFFFFF00000000000000000000000000000000000000000000 DUP4 PUSH1 0xA SUB PUSH1 0x8 MUL PUSH2 0x23F5 JUMP JUMPDEST DUP4 AND SWAP3 POP JUMPDEST POP POP SWAP2 SWAP1 POP JUMP JUMPDEST PUSH32 0x466F7277617264657220616464726573732073657420746F207A65726F202D20 PUSH0 DUP3 ADD MSTORE PUSH32 0x636F6E7472616374206973206E6F7720494E5345435552450000000000000000 PUSH1 0x20 DUP3 ADD MSTORE POP JUMP JUMPDEST PUSH0 PUSH2 0x24C1 PUSH1 0x38 DUP4 PUSH2 0x1CF0 JUMP JUMPDEST SWAP2 POP PUSH2 0x24CC DUP3 PUSH2 0x2467 JUMP JUMPDEST PUSH1 0x40 DUP3 ADD SWAP1 POP SWAP2 SWAP1 POP JUMP JUMPDEST PUSH0 PUSH1 0x20 DUP3 ADD SWAP1 POP DUP2 DUP2 SUB PUSH0 DUP4 ADD MSTORE PUSH2 0x24EE DUP2 PUSH2 0x24B5 JUMP JUMPDEST SWAP1 POP SWAP2 SWAP1 POP JUMP JUMPDEST PUSH0 PUSH2 0x24FF DUP3 PUSH2 0x18E4 JUMP JUMPDEST SWAP1 POP SWAP2 SWAP1 POP JUMP JUMPDEST PUSH2 0x250F DUP2 PUSH2 0x24F5 JUMP JUMPDEST DUP2 EQ PUSH2 0x2519 JUMPI PUSH0 PUSH0 REVERT JUMPDEST POP JUMP JUMPDEST PUSH0 DUP2 CALLDATALOAD SWAP1 POP PUSH2 0x252A DUP2 PUSH2 0x2506 JUMP JUMPDEST SWAP3 SWAP2 POP POP JUMP JUMPDEST PUSH0 PUSH0 PUSH1 0x40 DUP4 DUP6 SUB SLT ISZERO PUSH2 0x2546 JUMPI PUSH2 0x2545 PUSH2 0x1785 JUMP JUMPDEST JUMPDEST PUSH0 PUSH2 0x2553 DUP6 DUP3 DUP7 ADD PUSH2 0x251C JUMP JUMPDEST SWAP3 POP POP PUSH1 0x20 PUSH2 0x2564 DUP6 DUP3 DUP7 ADD PUSH2 0x1892 JUMP JUMPDEST SWAP2 POP POP SWAP3 POP SWAP3 SWAP1 POP JUMP JUMPDEST PUSH0 DUP2 MLOAD SWAP1 POP PUSH2 0x257C DUP2 PUSH2 0x2506 JUMP JUMPDEST SWAP3 SWAP2 POP POP JUMP JUMPDEST PUSH0 PUSH1 0x20 DUP3 DUP5 SUB SLT ISZERO PUSH2 0x2597 JUMPI PUSH2 0x2596 PUSH2 0x1785 JUMP JUMPDEST JUMPDEST PUSH0 PUSH2 0x25A4 DUP5 DUP3 DUP6 ADD PUSH2 0x256E JUMP JUMPDEST SWAP2 POP POP SWAP3 SWAP2 POP POP JUMP JUMPDEST PUSH32 0x4E487B7100000000000000000000000000000000000000000000000000000000 PUSH0 MSTORE PUSH1 0x11 PUSH1 0x4 MSTORE PUSH1 0x24 PUSH0 REVERT JUMPDEST PUSH0 PUSH2 0x25E4 DUP3 PUSH2 0x1873 JUMP JUMPDEST SWAP2 POP PUSH2 0x25EF DUP4 PUSH2 0x1873 JUMP JUMPDEST SWAP3 POP DUP3 DUP3 MUL PUSH2 0x25FD DUP2 PUSH2 0x1873 JUMP JUMPDEST SWAP2 POP DUP3 DUP3 DIV DUP5 EQ DUP4 ISZERO OR PUSH2 0x2614 JUMPI PUSH2 0x2613 PUSH2 0x25AD JUMP JUMPDEST JUMPDEST POP SWAP3 SWAP2 POP POP JUMP JUMPDEST PUSH0 PUSH2 0x2625 DUP3 PUSH2 0x1873 JUMP JUMPDEST SWAP2 POP PUSH2 0x2630 DUP4 PUSH2 0x1873 JUMP JUMPDEST SWAP3 POP DUP3 DUP3 ADD SWAP1 POP DUP1 DUP3 GT ISZERO PUSH2 0x2648 JUMPI PUSH2 0x2647 PUSH2 0x25AD JUMP JUMPDEST JUMPDEST SWAP3 SWAP2 POP POP JUMP JUMPDEST PUSH32 0x536861646F773A207A65726F20726563697069656E7400000000000000000000 PUSH0 DUP3 ADD MSTORE POP JUMP JUMPDEST PUSH0 PUSH2 0x2682 PUSH1 0x16 DUP4 PUSH2 0x1CF0 JUMP JUMPDEST SWAP2 POP PUSH2 0x268D DUP3 PUSH2 0x264E JUMP JUMPDEST PUSH1 0x20 DUP3 ADD SWAP1 POP SWAP2 SWAP1 POP JUMP JUMPDEST PUSH0 PUSH1 0x20 DUP3 ADD SWAP1 POP DUP2 DUP2 SUB PUSH0 DUP4 ADD MSTORE PUSH2 0x26AF DUP2 PUSH2 0x2676 JUMP JUMPDEST SWAP1 POP SWAP2 SWAP1 POP JUMP JUMPDEST PUSH0 PUSH1 0x40 DUP3 ADD SWAP1 POP PUSH2 0x26C9 PUSH0 DUP4 ADD DUP6 PUSH2 0x1914 JUMP JUMPDEST PUSH2 0x26D6 PUSH1 0x20 DUP4 ADD DUP5 PUSH2 0x1D68 JUMP JUMPDEST SWAP4 SWAP3 POP POP POP JUMP JUMPDEST PUSH32 0x5061796F7574206661696C656400000000000000000000000000000000000000 PUSH0 DUP3 ADD MSTORE POP JUMP JUMPDEST PUSH0 PUSH2 0x2711 PUSH1 0xD DUP4 PUSH2 0x1CF0 JUMP JUMPDEST SWAP2 POP PUSH2 0x271C DUP3 PUSH2 0x26DD JUMP JUMPDEST PUSH1 0x20 DUP3 ADD SWAP1 POP SWAP2 SWAP1 POP JUMP JUMPDEST PUSH0 PUSH1 0x20 DUP3 ADD SWAP1 POP DUP2 DUP2 SUB PUSH0 DUP4 ADD MSTORE PUSH2 0x273E DUP2 PUSH2 0x2705 JUMP JUMPDEST SWAP1 POP SWAP2 SWAP1 POP JUMP JUMPDEST PUSH0 PUSH1 0x20 DUP3 ADD SWAP1 POP PUSH2 0x2758 PUSH0 DUP4 ADD DUP5 PUSH2 0x1D68 JUMP JUMPDEST SWAP3 SWAP2 POP POP JUMP INVALID LOG2 PUSH5 0x6970667358 0x22 SLT KECCAK256 PUSH1 0x4C 0xC1 0xBA ISZERO PUSH20 0x3EC9115DB20F338A69C70ABA87791AB8B272FB71 CALL 0x27 DUP13 DUP7 DUP11 ORIGIN PUSH5 0x736F6C6343 STOP ADDMOD 0x1F STOP CALLER "
				},
				"gasEstimates": {
					"creation": {
						"codeDepositCost": "2026400",
						"executionCost": "infinite",
						"totalCost": "infinite"
					},
					"external": {
						"ccipReceive((bytes32,uint64,bytes,bytes,(address,uint256)[]))": "infinite",
						"deposit(bytes32,uint256)": "infinite",
						"getExpectedAuthor()": "2583",
						"getExpectedWorkflowId()": "2542",
						"getExpectedWorkflowName()": "2569",
						"getForwarderAddress()": "2605",
						"getRouter()": "infinite",
						"onReport(bytes,bytes)": "infinite",
						"owner()": "2537",
						"placeOrder(bytes,bytes32)": "infinite",
						"renounceOwnership()": "infinite",
						"setExpectedAuthor(address)": "infinite",
						"setExpectedWorkflowId(bytes32)": "infinite",
						"setExpectedWorkflowName(string)": "infinite",
						"setForwarderAddress(address)": "infinite",
						"supportsInterface(bytes4)": "741",
						"transferOwnership(address)": "infinite",
						"usdc()": "infinite"
					},
					"internal": {
						"_ccipReceive(struct Client.Any2EVMMessage memory)": "infinite",
						"_executePayout(address,uint256)": "infinite",
						"_processReport(bytes calldata)": "infinite"
					}
				},
				"methodIdentifiers": {
					"ccipReceive((bytes32,uint64,bytes,bytes,(address,uint256)[]))": "85572ffb",
					"deposit(bytes32,uint256)": "1de26e16",
					"getExpectedAuthor()": "3397cf67",
					"getExpectedWorkflowId()": "f5c793ef",
					"getExpectedWorkflowName()": "a619d818",
					"getForwarderAddress()": "3441856f",
					"getRouter()": "b0f479a1",
					"onReport(bytes,bytes)": "805f2132",
					"owner()": "8da5cb5b",
					"placeOrder(bytes,bytes32)": "410d1dac",
					"renounceOwnership()": "715018a6",
					"setExpectedAuthor(address)": "d60c884b",
					"setExpectedWorkflowId(bytes32)": "c3c44ac2",
					"setExpectedWorkflowName(string)": "bc1fc27a",
					"setForwarderAddress(address)": "d777cc6d",
					"supportsInterface(bytes4)": "01ffc9a7",
					"transferOwnership(address)": "f2fde38b",
					"usdc()": "3e413bee"
				}
			},
			"storageLayout": {
				"storage": [
					{
						"astId": 231,
						"contract": "contracts/token.sol:Shadow",
						"label": "_owner",
						"offset": 0,
						"slot": "0",
						"type": "t_address"
					},
					{
						"astId": 519,
						"contract": "contracts/token.sol:Shadow",
						"label": "s_forwarderAddress",
						"offset": 0,
						"slot": "1",
						"type": "t_address"
					},
					{
						"astId": 521,
						"contract": "contracts/token.sol:Shadow",
						"label": "s_expectedAuthor",
						"offset": 0,
						"slot": "2",
						"type": "t_address"
					},
					{
						"astId": 523,
						"contract": "contracts/token.sol:Shadow",
						"label": "s_expectedWorkflowName",
						"offset": 20,
						"slot": "2",
						"type": "t_bytes10"
					},
					{
						"astId": 525,
						"contract": "contracts/token.sol:Shadow",
						"label": "s_expectedWorkflowId",
						"offset": 0,
						"slot": "3",
						"type": "t_bytes32"
					}
				],
				"types": {
					"t_address": {
						"encoding": "inplace",
						"label": "address",
						"numberOfBytes": "20"
					},
					"t_bytes10": {
						"encoding": "inplace",
						"label": "bytes10",
						"numberOfBytes": "10"
					},
					"t_bytes32": {
						"encoding": "inplace",
						"label": "bytes32",
						"numberOfBytes": "32"
					}
				}
			},
			"userdoc": {
				"kind": "user",
				"methods": {
					"ccipReceive((bytes32,uint64,bytes,bytes,(address,uint256)[]))": {
						"notice": "Called by the Router to deliver a message. If this reverts, any token transfers also revert. The message will move to a FAILED state and become available for manual execution."
					},
					"deposit(bytes32,uint256)": {
						"notice": "Same-chain deposit"
					},
					"getExpectedAuthor()": {
						"notice": "Returns the expected workflow author address"
					},
					"getExpectedWorkflowId()": {
						"notice": "Returns the expected workflow ID"
					},
					"getExpectedWorkflowName()": {
						"notice": "Returns the expected workflow name"
					},
					"getForwarderAddress()": {
						"notice": "Returns the configured forwarder address"
					},
					"getRouter()": {
						"notice": "Return the current router"
					},
					"onReport(bytes,bytes)": {
						"notice": "Handles incoming keystone reports."
					},
					"placeOrder(bytes,bytes32)": {
						"notice": "Submit a shielded dark-pool order"
					},
					"setExpectedAuthor(address)": {
						"notice": "Updates the expected workflow owner address"
					},
					"setExpectedWorkflowId(bytes32)": {
						"notice": "Updates the expected workflow ID"
					},
					"setExpectedWorkflowName(string)": {
						"notice": "Updates the expected workflow name from a plaintext string"
					},
					"setForwarderAddress(address)": {
						"notice": "Updates the forwarder address that is allowed to call onReport"
					}
				},
				"version": 1
			}
		}
	}
}