{
	"data": {
		"bytecode": {
			"linkReferences": {},
			"object": "6080604052348015600e575f80fd5b506105ed8061001c5f395ff3fe608060405234801561000f575f80fd5b5060043610610029575f3560e01c80633eea7bbf1461002d575b5f80fd5b6100476004803603810190610042919061025c565b610049565b005b6040518060600160405280848152602001838152602001828152505f803373ffffffffffffffffffffffffffffffffffffffff1673ffffffffffffffffffffffffffffffffffffffff1681526020019081526020015f205f820151815f0190816100b391906104e8565b506020820151816001015560408201518160020190816100d391906104e8565b50905050505050565b5f604051905090565b5f80fd5b5f80fd5b5f80fd5b5f80fd5b5f601f19601f8301169050919050565b7f4e487b71000000000000000000000000000000000000000000000000000000005f52604160045260245ffd5b61013b826100f5565b810181811067ffffffffffffffff8211171561015a57610159610105565b5b80604052505050565b5f61016c6100dc565b90506101788282610132565b919050565b5f67ffffffffffffffff82111561019757610196610105565b5b6101a0826100f5565b9050602081019050919050565b828183375f83830152505050565b5f6101cd6101c88461017d565b610163565b9050828152602081018484840111156101e9576101e86100f1565b5b6101f48482856101ad565b509392505050565b5f82601f8301126102105761020f6100ed565b5b81356102208482602086016101bb565b91505092915050565b5f819050919050565b61023b81610229565b8114610245575f80fd5b50565b5f8135905061025681610232565b92915050565b5f805f60608486031215610273576102726100e5565b5b5f84013567ffffffffffffffff8111156102905761028f6100e9565b5b61029c868287016101fc565b93505060206102ad86828701610248565b925050604084013567ffffffffffffffff8111156102ce576102cd6100e9565b5b6102da868287016101fc565b9150509250925092565b5f81519050919050565b7f4e487b71000000000000000000000000000000000000000000000000000000005f52602260045260245ffd5b5f600282049050600182168061033257607f821691505b602082108103610345576103446102ee565b5b50919050565b5f819050815f5260205f209050919050565b5f6020601f8301049050919050565b5f82821b905092915050565b5f600883026103a77fffffffffffffffffffffffffffffffffffffffffffffffffffffffffffffffff8261036c565b6103b1868361036c565b95508019841693508086168417925050509392505050565b5f819050919050565b5f6103ec6103e76103e284610229565b6103c9565b610229565b9050919050565b5f819050919050565b610405836103d2565b610419610411826103f3565b848454610378565b825550505050565b5f90565b61042d610421565b6104388184846103fc565b505050565b5b8181101561045b576104505f82610425565b60018101905061043e565b5050565b601f8211156104a0576104718161034b565b61047a8461035d565b81016020851015610489578190505b61049d6104958561035d565b83018261043d565b50505b505050565b5f82821c905092915050565b5f6104c05f19846008026104a5565b1980831691505092915050565b5f6104d883836104b1565b9150826002028217905092915050565b6104f1826102e4565b67ffffffffffffffff81111561050a57610509610105565b5b610514825461031b565b61051f82828561045f565b5f60209050601f831160018114610550575f841561053e578287015190505b61054885826104cd565b8655506105af565b601f19841661055e8661034b565b5f5b8281101561058557848901518255600182019150602085019450602081019050610560565b868310156105a2578489015161059e601f8916826104b1565b8355505b6001600288020188555050505b50505050505056fea2646970667358221220f272792944aa37d5e0988417ede1d3eb7ffe84c7be67e6ce62e4df7594b0be7e64736f6c634300081a0033",
			"opcodes": "PUSH1 0x80 PUSH1 0x40 MSTORE CALLVALUE DUP1 ISZERO PUSH1 0xE JUMPI PUSH0 DUP1 REVERT JUMPDEST POP PUSH2 0x5ED DUP1 PUSH2 0x1C PUSH0 CODECOPY PUSH0 RETURN INVALID PUSH1 0x80 PUSH1 0x40 MSTORE CALLVALUE DUP1 ISZERO PUSH2 0xF JUMPI PUSH0 DUP1 REVERT JUMPDEST POP PUSH1 0x4 CALLDATASIZE LT PUSH2 0x29 JUMPI PUSH0 CALLDATALOAD PUSH1 0xE0 SHR DUP1 PUSH4 0x3EEA7BBF EQ PUSH2 0x2D JUMPI JUMPDEST PUSH0 DUP1 REVERT JUMPDEST PUSH2 0x47 PUSH1 0x4 DUP1 CALLDATASIZE SUB DUP2 ADD SWAP1 PUSH2 0x42 SWAP2 SWAP1 PUSH2 0x25C JUMP JUMPDEST PUSH2 0x49 JUMP JUMPDEST STOP JUMPDEST PUSH1 0x40 MLOAD DUP1 PUSH1 0x60 ADD PUSH1 0x40 MSTORE DUP1 DUP5 DUP2 MSTORE PUSH1 0x20 ADD DUP4 DUP2 MSTORE PUSH1 0x20 ADD DUP3 DUP2 MSTORE POP PUSH0 DUP1 CALLER PUSH20 0xFFFFFFFFFFFFFFFFFFFFFFFFFFFFFFFFFFFFFFFF AND PUSH20 0xFFFFFFFFFFFFFFFFFFFFFFFFFFFFFFFFFFFFFFFF AND DUP2 MSTORE PUSH1 0x20 ADD SWAP1 DUP2 MSTORE PUSH1 0x20 ADD PUSH0 KECCAK256 PUSH0 DUP3 ADD MLOAD DUP2 PUSH0 ADD SWAP1 DUP2 PUSH2 0xB3 SWAP2 SWAP1 PUSH2 0x4E8 JUMP JUMPDEST POP PUSH1 0x20 DUP3 ADD MLOAD DUP2 PUSH1 0x1 ADD SSTORE PUSH1 0x40 DUP3 ADD MLOAD DUP2 PUSH1 0x2 ADD SWAP1 DUP2 PUSH2 0xD3 SWAP2 SWAP1 PUSH2 0x4E8 JUMP JUMPDEST POP SWAP1 POP POP POP POP POP JUMP JUMPDEST PUSH0 PUSH1 0x40 MLOAD SWAP1 POP SWAP1 JUMP JUMPDEST PUSH0 DUP1 REVERT JUMPDEST PUSH0 DUP1 REVERT JUMPDEST PUSH0 DUP1 REVERT JUMPDEST PUSH0 DUP1 REVERT JUMPDEST PUSH0 PUSH1 0x1F NOT PUSH1 0x1F DUP4 ADD AND SWAP1 POP SWAP2 SWAP1 POP JUMP JUMPDEST PUSH32 0x4E487B7100000000000000000000000000000000000000000000000000000000 PUSH0 MSTORE PUSH1 0x41 PUSH1 0x4 MSTORE PUSH1 0x24 PUSH0 REVERT JUMPDEST PUSH2 0x13B DUP3 PUSH2 0xF5 JUMP JUMPDEST DUP2 ADD DUP2 DUP2 LT PUSH8 0xFFFFFFFFFFFFFFFF DUP3 GT OR ISZERO PUSH2 0x15A JUMPI PUSH2 0x159 PUSH2 0x105 JUMP JUMPDEST JUMPDEST DUP1 PUSH1 0x40 MSTORE POP POP POP JUMP JUMPDEST PUSH0 PUSH2 0x16C PUSH2 0xDC JUMP JUMPDEST SWAP1 POP PUSH2 0x178 DUP3 DUP3 PUSH2 0x132 JUMP JUMPDEST SWAP2 SWAP1 POP JUMP JUMPDEST PUSH0 PUSH8 0xFFFFFFFFFFFFFFFF DUP3 GT ISZERO PUSH2 0x197 JUMPI PUSH2 0x196 PUSH2 0x105 JUMP JUMPDEST JUMPDEST PUSH2 0x1A0 DUP3 PUSH2 0xF5 JUMP JUMPDEST SWAP1 POP PUSH1 0x20 DUP2 ADD SWAP1 POP SWAP2 SWAP1 POP JUMP JUMPDEST DUP3 DUP2 DUP4 CALLDATACOPY PUSH0 DUP4 DUP4 ADD MSTORE POP POP POP JUMP JUMPDEST PUSH0 PUSH2 0x1CD PUSH2 0x1C8 DUP5 PUSH2 0x17D JUMP JUMPDEST PUSH2 0x163 JUMP JUMPDEST SWAP1 POP DUP3 DUP2 MSTORE PUSH1 0x20 DUP2 ADD DUP5 DUP5 DUP5 ADD GT ISZERO PUSH2 0x1E9 JUMPI PUSH2 0x1E8 PUSH2 0xF1 JUMP JUMPDEST JUMPDEST PUSH2 0x1F4 DUP5 DUP3 DUP6 PUSH2 0x1AD JUMP JUMPDEST POP SWAP4 SWAP3 POP POP POP JUMP JUMPDEST PUSH0 DUP3 PUSH1 0x1F DUP4 ADD SLT PUSH2 0x210 JUMPI PUSH2 0x20F PUSH2 0xED JUMP JUMPDEST JUMPDEST DUP2 CALLDATALOAD PUSH2 0x220 DUP5 DUP3 PUSH1 0x20 DUP7 ADD PUSH2 0x1BB JUMP JUMPDEST SWAP2 POP POP SWAP3 SWAP2 POP POP JUMP JUMPDEST PUSH0 DUP2 SWAP1 POP SWAP2 SWAP1 POP JUMP JUMPDEST PUSH2 0x23B DUP2 PUSH2 0x229 JUMP JUMPDEST DUP2 EQ PUSH2 0x245 JUMPI PUSH0 DUP1 REVERT JUMPDEST POP JUMP JUMPDEST PUSH0 DUP2 CALLDATALOAD SWAP1 POP PUSH2 0x256 DUP2 PUSH2 0x232 JUMP JUMPDEST SWAP3 SWAP2 POP POP JUMP JUMPDEST PUSH0 DUP1 PUSH0 PUSH1 0x60 DUP5 DUP7 SUB SLT ISZERO PUSH2 0x273 JUMPI PUSH2 0x272 PUSH2 0xE5 JUMP JUMPDEST JUMPDEST PUSH0 DUP5 ADD CALLDATALOAD PUSH8 0xFFFFFFFFFFFFFFFF DUP2 GT ISZERO PUSH2 0x290 JUMPI PUSH2 0x28F PUSH2 0xE9 JUMP JUMPDEST JUMPDEST PUSH2 0x29C DUP7 DUP3 DUP8 ADD PUSH2 0x1FC JUMP JUMPDEST SWAP4 POP POP PUSH1 0x20 PUSH2 0x2AD DUP7 DUP3 DUP8 ADD PUSH2 0x248 JUMP JUMPDEST SWAP3 POP POP PUSH1 0x40 DUP5 ADD CALLDATALOAD PUSH8 0xFFFFFFFFFFFFFFFF DUP2 GT ISZERO PUSH2 0x2CE JUMPI PUSH2 0x2CD PUSH2 0xE9 JUMP JUMPDEST JUMPDEST PUSH2 0x2DA DUP7 DUP3 DUP8 ADD PUSH2 0x1FC JUMP JUMPDEST SWAP2 POP POP SWAP3 POP SWAP3 POP SWAP3 JUMP JUMPDEST PUSH0 DUP2 MLOAD SWAP1 POP SWAP2 SWAP1 POP JUMP JUMPDEST PUSH32 0x4E487B7100000000000000000000000000000000000000000000000000000000 PUSH0 MSTORE PUSH1 0x22 PUSH1 0x4 MSTORE PUSH1 0x24 PUSH0 REVERT JUMPDEST PUSH0 PUSH1 0x2 DUP3 DIV SWAP1 POP PUSH1 0x1 DUP3 AND DUP1 PUSH2 0x332 JUMPI PUSH1 0x7F DUP3 AND SWAP2 POP JUMPDEST PUSH1 0x20 DUP3 LT DUP2 SUB PUSH2 0x345 JUMPI PUSH2 0x344 PUSH2 0x2EE JUMP JUMPDEST JUMPDEST POP SWAP2 SWAP1 POP JUMP JUMPDEST PUSH0 DUP2 SWAP1 POP DUP2 PUSH0 MSTORE PUSH1 0x20 PUSH0 KECCAK256 SWAP1 POP SWAP2 SWAP1 POP JUMP JUMPDEST PUSH0 PUSH1 0x20 PUSH1 0x1F DUP4 ADD DIV SWAP1 POP SWAP2 SWAP1 POP JUMP JUMPDEST PUSH0 DUP3 DUP3 SHL SWAP1 POP SWAP3 SWAP2 POP POP JUMP JUMPDEST PUSH0 PUSH1 0x8 DUP4 MUL PUSH2 0x3A7 PUSH32 0xFFFFFFFFFFFFFFFFFFFFFFFFFFFFFFFFFFFFFFFFFFFFFFFFFFFFFFFFFFFFFFFF DUP3 PUSH2 0x36C JUMP JUMPDEST PUSH2 0x3B1 DUP7 DUP4 PUSH2 0x36C JUMP JUMPDEST SWAP6 POP DUP1 NOT DUP5 AND SWAP4 POP DUP1 DUP7 AND DUP5 OR SWAP3 POP POP POP SWAP4 SWAP3 POP POP POP JUMP JUMPDEST PUSH0 DUP2 SWAP1 POP SWAP2 SWAP1 POP JUMP JUMPDEST PUSH0 PUSH2 0x3EC PUSH2 0x3E7 PUSH2 0x3E2 DUP5 PUSH2 0x229 JUMP JUMPDEST PUSH2 0x3C9 JUMP JUMPDEST PUSH2 0x229 JUMP JUMPDEST SWAP1 POP SWAP2 SWAP1 POP JUMP JUMPDEST PUSH0 DUP2 SWAP1 POP SWAP2 SWAP1 POP JUMP JUMPDEST PUSH2 0x405 DUP4 PUSH2 0x3D2 JUMP JUMPDEST PUSH2 0x419 PUSH2 0x411 DUP3 PUSH2 0x3F3 JUMP JUMPDEST DUP5 DUP5 SLOAD PUSH2 0x378 JUMP JUMPDEST DUP3 SSTORE POP POP POP POP JUMP JUMPDEST PUSH0 SWAP1 JUMP JUMPDEST PUSH2 0x42D PUSH2 0x421 JUMP JUMPDEST PUSH2 0x438 DUP2 DUP5 DUP5 PUSH2 0x3FC JUMP JUMPDEST POP POP POP JUMP JUMPDEST JUMPDEST DUP2 DUP2 LT ISZERO PUSH2 0x45B JUMPI PUSH2 0x450 PUSH0 DUP3 PUSH2 0x425 JUMP JUMPDEST PUSH1 0x1 DUP2 ADD SWAP1 POP PUSH2 0x43E JUMP JUMPDEST POP POP JUMP JUMPDEST PUSH1 0x1F DUP3 GT ISZERO PUSH2 0x4A0 JUMPI PUSH2 0x471 DUP2 PUSH2 0x34B JUMP JUMPDEST PUSH2 0x47A DUP5 PUSH2 0x35D JUMP JUMPDEST DUP2 ADD PUSH1 0x20 DUP6 LT ISZERO PUSH2 0x489 JUMPI DUP2 SWAP1 POP JUMPDEST PUSH2 0x49D PUSH2 0x495 DUP6 PUSH2 0x35D JUMP JUMPDEST DUP4 ADD DUP3 PUSH2 0x43D JUMP JUMPDEST POP POP JUMPDEST POP POP POP JUMP JUMPDEST PUSH0 DUP3 DUP3 SHR SWAP1 POP SWAP3 SWAP2 POP POP JUMP JUMPDEST PUSH0 PUSH2 0x4C0 PUSH0 NOT DUP5 PUSH1 0x8 MUL PUSH2 0x4A5 JUMP JUMPDEST NOT DUP1 DUP4 AND SWAP2 POP POP SWAP3 SWAP2 POP POP JUMP JUMPDEST PUSH0 PUSH2 0x4D8 DUP4 DUP4 PUSH2 0x4B1 JUMP JUMPDEST SWAP2 POP DUP3 PUSH1 0x2 MUL DUP3 OR SWAP1 POP SWAP3 SWAP2 POP POP JUMP JUMPDEST PUSH2 0x4F1 DUP3 PUSH2 0x2E4 JUMP JUMPDEST PUSH8 0xFFFFFFFFFFFFFFFF DUP2 GT ISZERO PUSH2 0x50A JUMPI PUSH2 0x509 PUSH2 0x105 JUMP JUMPDEST JUMPDEST PUSH2 0x514 DUP3 SLOAD PUSH2 0x31B JUMP JUMPDEST PUSH2 0x51F DUP3 DUP3 DUP6 PUSH2 0x45F JUMP JUMPDEST PUSH0 PUSH1 0x20 SWAP1 POP PUSH1 0x1F DUP4 GT PUSH1 0x1 DUP2 EQ PUSH2 0x550 JUMPI PUSH0 DUP5 ISZERO PUSH2 0x53E JUMPI DUP3 DUP8 ADD MLOAD SWAP1 POP JUMPDEST PUSH2 0x548 DUP6 DUP3 PUSH2 0x4CD JUMP JUMPDEST DUP7 SSTORE POP PUSH2 0x5AF JUMP JUMPDEST PUSH1 0x1F NOT DUP5 AND PUSH2 0x55E DUP7 PUSH2 0x34B JUMP JUMPDEST PUSH0 JUMPDEST DUP3 DUP2 LT ISZERO PUSH2 0x585 JUMPI DUP5 DUP10 ADD MLOAD DUP3 SSTORE PUSH1 0x1 DUP3 ADD SWAP2 POP PUSH1 0x20 DUP6 ADD SWAP5 POP PUSH1 0x20 DUP2 ADD SWAP1 POP PUSH2 0x560 JUMP JUMPDEST DUP7 DUP4 LT ISZERO PUSH2 0x5A2 JUMPI DUP5 DUP10 ADD MLOAD PUSH2 0x59E PUSH1 0x1F DUP10 AND DUP3 PUSH2 0x4B1 JUMP JUMPDEST DUP4 SSTORE POP JUMPDEST PUSH1 0x1 PUSH1 0x2 DUP9 MUL ADD DUP9 SSTORE POP POP POP JUMPDEST POP POP POP POP POP POP JUMP INVALID LOG2 PUSH5 0x6970667358 0x22 SLT KECCAK256 CALLCODE PUSH19 0x792944AA37D5E0988417EDE1D3EB7FFE84C7BE PUSH8 0xE6CE62E4DF7594B0 0xBE PUSH31 0x64736F6C634300081A00330000000000000000000000000000000000000000 "
		},
		"gasEstimates": {
			"creation": {
				"codeDepositCost": "303400",
				"executionCost": "341",
				"totalCost": "303741"
			},
			"external": {
				"enroll(string,uint256,string)": "infinite"
			}
		},
		"methodIdentifiers": {
			"enroll(string,uint256,string)": "3eea7bbf"
		}
	},
	"abi": [
		{
			"inputs": [
				{
					"internalType": "string",
					"name": "_name",
					"type": "string"
				},
				{
					"internalType": "uint256",
					"name": "_age",
					"type": "uint256"
				},
				{
					"internalType": "string",
					"name": "_department",
					"type": "string"
				}
			],
			"name": "enroll",
			"outputs": [],
			"stateMutability": "nonpayable",
			"type": "function"
		}
	]
}