{
	"contracts/3/CalculatorUsingInterface.sol": {
		"CalculatorUsingInterface": {
			"abi": [
				{
					"inputs": [
						{
							"internalType": "uint256",
							"name": "a",
							"type": "uint256"
						},
						{
							"internalType": "uint256",
							"name": "b",
							"type": "uint256"
						}
					],
					"name": "add",
					"outputs": [
						{
							"internalType": "uint256",
							"name": "",
							"type": "uint256"
						}
					],
					"stateMutability": "pure",
					"type": "function"
				},
				{
					"inputs": [
						{
							"internalType": "uint256",
							"name": "a",
							"type": "uint256"
						},
						{
							"internalType": "uint256",
							"name": "b",
							"type": "uint256"
						}
					],
					"name": "div",
					"outputs": [
						{
							"internalType": "uint256",
							"name": "",
							"type": "uint256"
						}
					],
					"stateMutability": "pure",
					"type": "function"
				},
				{
					"inputs": [
						{
							"internalType": "uint256",
							"name": "a",
							"type": "uint256"
						},
						{
							"internalType": "uint256",
							"name": "b",
							"type": "uint256"
						}
					],
					"name": "mul",
					"outputs": [
						{
							"internalType": "uint256",
							"name": "",
							"type": "uint256"
						}
					],
					"stateMutability": "pure",
					"type": "function"
				},
				{
					"inputs": [
						{
							"internalType": "uint256",
							"name": "a",
							"type": "uint256"
						},
						{
							"internalType": "uint256",
							"name": "b",
							"type": "uint256"
						}
					],
					"name": "sub",
					"outputs": [
						{
							"internalType": "uint256",
							"name": "",
							"type": "uint256"
						}
					],
					"stateMutability": "pure",
					"type": "function"
				}
			],
			"devdoc": {
				"kind": "dev",
				"methods": {},
				"version": 1
			},
			"evm": {
				"assembly": "    /* \"contracts/3/CalculatorUsingInterface.sol\":343:1010  contract CalculatorUsingInterface is Calculator{... */\n  mstore(0x40, 0x80)\n  callvalue\n  dup1\n  iszero\n  tag_1\n  jumpi\n  0x00\n  dup1\n  revert\ntag_1:\n  pop\n  dataSize(sub_0)\n  dup1\n  dataOffset(sub_0)\n  0x00\n  codecopy\n  0x00\n  return\nstop\n\nsub_0: assembly {\n        /* \"contracts/3/CalculatorUsingInterface.sol\":343:1010  contract CalculatorUsingInterface is Calculator{... */\n      mstore(0x40, 0x80)\n      callvalue\n      dup1\n      iszero\n      tag_1\n      jumpi\n      0x00\n      dup1\n      revert\n    tag_1:\n      pop\n      jumpi(tag_2, lt(calldatasize, 0x04))\n      shr(0xe0, calldataload(0x00))\n      dup1\n      0x771602f7\n      eq\n      tag_3\n      jumpi\n      dup1\n      0xa391c15b\n      eq\n      tag_4\n      jumpi\n      dup1\n      0xb67d77c5\n      eq\n      tag_5\n      jumpi\n      dup1\n      0xc8a4ac9c\n      eq\n      tag_6\n      jumpi\n    tag_2:\n      0x00\n      dup1\n      revert\n        /* \"contracts/3/CalculatorUsingInterface.sol\":399:496  function add(uint a, uint b)public pure returns(uint){... */\n    tag_3:\n      tag_7\n      0x04\n      dup1\n      calldatasize\n      sub\n      dup2\n      add\n      swap1\n      tag_8\n      swap2\n      swap1\n      tag_9\n      jump\t// in\n    tag_8:\n      tag_10\n      jump\t// in\n    tag_7:\n      mload(0x40)\n      tag_11\n      swap2\n      swap1\n      tag_12\n      jump\t// in\n    tag_11:\n      mload(0x40)\n      dup1\n      swap2\n      sub\n      swap1\n      return\n        /* \"contracts/3/CalculatorUsingInterface.sol\":849:1001  function div(uint a, uint b) public pure returns (uint) {... */\n    tag_4:\n      tag_13\n      0x04\n      dup1\n      calldatasize\n      sub\n      dup2\n      add\n      swap1\n      tag_14\n      swap2\n      swap1\n      tag_9\n      jump\t// in\n    tag_14:\n      tag_15\n      jump\t// in\n    tag_13:\n      mload(0x40)\n      tag_16\n      swap2\n      swap1\n      tag_12\n      jump\t// in\n    tag_16:\n      mload(0x40)\n      dup1\n      swap2\n      sub\n      swap1\n      return\n        /* \"contracts/3/CalculatorUsingInterface.sol\":510:666  function sub(uint a, uint b) public pure returns (uint) {... */\n    tag_5:\n      tag_17\n      0x04\n      dup1\n      calldatasize\n      sub\n      dup2\n      add\n      swap1\n      tag_18\n      swap2\n      swap1\n      tag_9\n      jump\t// in\n    tag_18:\n      tag_19\n      jump\t// in\n    tag_17:\n      mload(0x40)\n      tag_20\n      swap2\n      swap1\n      tag_12\n      jump\t// in\n    tag_20:\n      mload(0x40)\n      dup1\n      swap2\n      sub\n      swap1\n      return\n        /* \"contracts/3/CalculatorUsingInterface.sol\":678:835  function mul(uint a, uint b) public pure returns (uint) {... */\n    tag_6:\n      tag_21\n      0x04\n      dup1\n      calldatasize\n      sub\n      dup2\n      add\n      swap1\n      tag_22\n      swap2\n      swap1\n      tag_9\n      jump\t// in\n    tag_22:\n      tag_23\n      jump\t// in\n    tag_21:\n      mload(0x40)\n      tag_24\n      swap2\n      swap1\n      tag_12\n      jump\t// in\n    tag_24:\n      mload(0x40)\n      dup1\n      swap2\n      sub\n      swap1\n      return\n        /* \"contracts/3/CalculatorUsingInterface.sol\":399:496  function add(uint a, uint b)public pure returns(uint){... */\n    tag_10:\n        /* \"contracts/3/CalculatorUsingInterface.sol\":447:451  uint */\n      0x00\n        /* \"contracts/3/CalculatorUsingInterface.sol\":459:465  uint c */\n      dup1\n        /* \"contracts/3/CalculatorUsingInterface.sol\":472:473  b */\n      dup3\n        /* \"contracts/3/CalculatorUsingInterface.sol\":468:469  a */\n      dup5\n        /* \"contracts/3/CalculatorUsingInterface.sol\":468:473  a + b */\n      tag_26\n      swap2\n      swap1\n      tag_27\n      jump\t// in\n    tag_26:\n        /* \"contracts/3/CalculatorUsingInterface.sol\":459:473  uint c = a + b */\n      swap1\n      pop\n        /* \"contracts/3/CalculatorUsingInterface.sol\":487:488  c */\n      dup1\n        /* \"contracts/3/CalculatorUsingInterface.sol\":480:488  return c */\n      swap2\n      pop\n      pop\n        /* \"contracts/3/CalculatorUsingInterface.sol\":399:496  function add(uint a, uint b)public pure returns(uint){... */\n      swap3\n      swap2\n      pop\n      pop\n      jump\t// out\n        /* \"contracts/3/CalculatorUsingInterface.sol\":849:1001  function div(uint a, uint b) public pure returns (uint) {... */\n    tag_15:\n        /* \"contracts/3/CalculatorUsingInterface.sol\":899:903  uint */\n      0x00\n        /* \"contracts/3/CalculatorUsingInterface.sol\":928:929  0 */\n      dup1\n        /* \"contracts/3/CalculatorUsingInterface.sol\":924:925  b */\n      dup3\n        /* \"contracts/3/CalculatorUsingInterface.sol\":924:929  b > 0 */\n      gt\n        /* \"contracts/3/CalculatorUsingInterface.sol\":916:951  require(b > 0, \"invalid operation\") */\n      tag_29\n      jumpi\n      mload(0x40)\n      0x08c379a000000000000000000000000000000000000000000000000000000000\n      dup2\n      mstore\n      0x04\n      add\n      tag_30\n      swap1\n      tag_31\n      jump\t// in\n    tag_30:\n      mload(0x40)\n      dup1\n      swap2\n      sub\n      swap1\n      revert\n    tag_29:\n        /* \"contracts/3/CalculatorUsingInterface.sol\":962:968  uint c */\n      0x00\n        /* \"contracts/3/CalculatorUsingInterface.sol\":973:974  b */\n      dup3\n        /* \"contracts/3/CalculatorUsingInterface.sol\":971:972  a */\n      dup5\n        /* \"contracts/3/CalculatorUsingInterface.sol\":971:974  a/b */\n      tag_32\n      swap2\n      swap1\n      tag_33\n      jump\t// in\n    tag_32:\n        /* \"contracts/3/CalculatorUsingInterface.sol\":962:974  uint c = a/b */\n      swap1\n      pop\n        /* \"contracts/3/CalculatorUsingInterface.sol\":992:993  c */\n      dup1\n        /* \"contracts/3/CalculatorUsingInterface.sol\":985:993  return c */\n      swap2\n      pop\n      pop\n        /* \"contracts/3/CalculatorUsingInterface.sol\":849:1001  function div(uint a, uint b) public pure returns (uint) {... */\n      swap3\n      swap2\n      pop\n      pop\n      jump\t// out\n        /* \"contracts/3/CalculatorUsingInterface.sol\":510:666  function sub(uint a, uint b) public pure returns (uint) {... */\n    tag_19:\n        /* \"contracts/3/CalculatorUsingInterface.sol\":560:564  uint */\n      0x00\n        /* \"contracts/3/CalculatorUsingInterface.sol\":590:591  a */\n      dup3\n        /* \"contracts/3/CalculatorUsingInterface.sol\":585:586  b */\n      dup3\n        /* \"contracts/3/CalculatorUsingInterface.sol\":585:591  b <= a */\n      gt\n      iszero\n        /* \"contracts/3/CalculatorUsingInterface.sol\":577:614  require(b <= a, \"variable underflow\") */\n      tag_35\n      jumpi\n      mload(0x40)\n      0x08c379a000000000000000000000000000000000000000000000000000000000\n      dup2\n      mstore\n      0x04\n      add\n      tag_36\n      swap1\n      tag_37\n      jump\t// in\n    tag_36:\n      mload(0x40)\n      dup1\n      swap2\n      sub\n      swap1\n      revert\n    tag_35:\n        /* \"contracts/3/CalculatorUsingInterface.sol\":625:631  uint c */\n      0x00\n        /* \"contracts/3/CalculatorUsingInterface.sol\":638:639  b */\n      dup3\n        /* \"contracts/3/CalculatorUsingInterface.sol\":634:635  a */\n      dup5\n        /* \"contracts/3/CalculatorUsingInterface.sol\":634:639  a - b */\n      tag_38\n      swap2\n      swap1\n      tag_39\n      jump\t// in\n    tag_38:\n        /* \"contracts/3/CalculatorUsingInterface.sol\":625:639  uint c = a - b */\n      swap1\n      pop\n        /* \"contracts/3/CalculatorUsingInterface.sol\":657:658  c */\n      dup1\n        /* \"contracts/3/CalculatorUsingInterface.sol\":650:658  return c */\n      swap2\n      pop\n      pop\n        /* \"contracts/3/CalculatorUsingInterface.sol\":510:666  function sub(uint a, uint b) public pure returns (uint) {... */\n      swap3\n      swap2\n      pop\n      pop\n      jump\t// out\n        /* \"contracts/3/CalculatorUsingInterface.sol\":678:835  function mul(uint a, uint b) public pure returns (uint) {... */\n    tag_23:\n        /* \"contracts/3/CalculatorUsingInterface.sol\":728:732  uint */\n      0x00\n        /* \"contracts/3/CalculatorUsingInterface.sol\":745:751  uint c */\n      dup1\n        /* \"contracts/3/CalculatorUsingInterface.sol\":758:759  b */\n      dup3\n        /* \"contracts/3/CalculatorUsingInterface.sol\":754:755  a */\n      dup5\n        /* \"contracts/3/CalculatorUsingInterface.sol\":754:759  a * b */\n      tag_41\n      swap2\n      swap1\n      tag_42\n      jump\t// in\n    tag_41:\n        /* \"contracts/3/CalculatorUsingInterface.sol\":745:759  uint c = a * b */\n      swap1\n      pop\n        /* \"contracts/3/CalculatorUsingInterface.sol\":785:786  b */\n      dup3\n        /* \"contracts/3/CalculatorUsingInterface.sol\":780:781  a */\n      dup5\n        /* \"contracts/3/CalculatorUsingInterface.sol\":778:779  c */\n      dup3\n        /* \"contracts/3/CalculatorUsingInterface.sol\":778:781  c/a */\n      tag_43\n      swap2\n      swap1\n      tag_33\n      jump\t// in\n    tag_43:\n        /* \"contracts/3/CalculatorUsingInterface.sol\":778:786  c/a == b */\n      eq\n        /* \"contracts/3/CalculatorUsingInterface.sol\":770:808  require(c/a == b, \"variable overflow\") */\n      tag_44\n      jumpi\n      mload(0x40)\n      0x08c379a000000000000000000000000000000000000000000000000000000000\n      dup2\n      mstore\n      0x04\n      add\n      tag_45\n      swap1\n      tag_46\n      jump\t// in\n    tag_45:\n      mload(0x40)\n      dup1\n      swap2\n      sub\n      swap1\n      revert\n    tag_44:\n        /* \"contracts/3/CalculatorUsingInterface.sol\":826:827  c */\n      dup1\n        /* \"contracts/3/CalculatorUsingInterface.sol\":819:827  return c */\n      swap2\n      pop\n      pop\n        /* \"contracts/3/CalculatorUsingInterface.sol\":678:835  function mul(uint a, uint b) public pure returns (uint) {... */\n      swap3\n      swap2\n      pop\n      pop\n      jump\t// out\n        /* \"#utility.yul\":88:205   */\n    tag_48:\n        /* \"#utility.yul\":197:198   */\n      0x00\n        /* \"#utility.yul\":194:195   */\n      dup1\n        /* \"#utility.yul\":187:199   */\n      revert\n        /* \"#utility.yul\":334:411   */\n    tag_50:\n        /* \"#utility.yul\":371:378   */\n      0x00\n        /* \"#utility.yul\":400:405   */\n      dup2\n        /* \"#utility.yul\":389:405   */\n      swap1\n      pop\n        /* \"#utility.yul\":334:411   */\n      swap2\n      swap1\n      pop\n      jump\t// out\n        /* \"#utility.yul\":417:539   */\n    tag_51:\n        /* \"#utility.yul\":490:514   */\n      tag_69\n        /* \"#utility.yul\":508:513   */\n      dup2\n        /* \"#utility.yul\":490:514   */\n      tag_50\n      jump\t// in\n    tag_69:\n        /* \"#utility.yul\":483:488   */\n      dup2\n        /* \"#utility.yul\":480:515   */\n      eq\n        /* \"#utility.yul\":470:533   */\n      tag_70\n      jumpi\n        /* \"#utility.yul\":529:530   */\n      0x00\n        /* \"#utility.yul\":526:527   */\n      dup1\n        /* \"#utility.yul\":519:531   */\n      revert\n        /* \"#utility.yul\":470:533   */\n    tag_70:\n        /* \"#utility.yul\":417:539   */\n      pop\n      jump\t// out\n        /* \"#utility.yul\":545:684   */\n    tag_52:\n        /* \"#utility.yul\":591:596   */\n      0x00\n        /* \"#utility.yul\":629:635   */\n      dup2\n        /* \"#utility.yul\":616:636   */\n      calldataload\n        /* \"#utility.yul\":607:636   */\n      swap1\n      pop\n        /* \"#utility.yul\":645:678   */\n      tag_72\n        /* \"#utility.yul\":672:677   */\n      dup2\n        /* \"#utility.yul\":645:678   */\n      tag_51\n      jump\t// in\n    tag_72:\n        /* \"#utility.yul\":545:684   */\n      swap3\n      swap2\n      pop\n      pop\n      jump\t// out\n        /* \"#utility.yul\":690:1164   */\n    tag_9:\n        /* \"#utility.yul\":758:764   */\n      0x00\n        /* \"#utility.yul\":766:772   */\n      dup1\n        /* \"#utility.yul\":815:817   */\n      0x40\n        /* \"#utility.yul\":803:812   */\n      dup4\n        /* \"#utility.yul\":794:801   */\n      dup6\n        /* \"#utility.yul\":790:813   */\n      sub\n        /* \"#utility.yul\":786:818   */\n      slt\n        /* \"#utility.yul\":783:902   */\n      iszero\n      tag_74\n      jumpi\n        /* \"#utility.yul\":821:900   */\n      tag_75\n      tag_48\n      jump\t// in\n    tag_75:\n        /* \"#utility.yul\":783:902   */\n    tag_74:\n        /* \"#utility.yul\":941:942   */\n      0x00\n        /* \"#utility.yul\":966:1019   */\n      tag_76\n        /* \"#utility.yul\":1011:1018   */\n      dup6\n        /* \"#utility.yul\":1002:1008   */\n      dup3\n        /* \"#utility.yul\":991:1000   */\n      dup7\n        /* \"#utility.yul\":987:1009   */\n      add\n        /* \"#utility.yul\":966:1019   */\n      tag_52\n      jump\t// in\n    tag_76:\n        /* \"#utility.yul\":956:1019   */\n      swap3\n      pop\n        /* \"#utility.yul\":912:1029   */\n      pop\n        /* \"#utility.yul\":1068:1070   */\n      0x20\n        /* \"#utility.yul\":1094:1147   */\n      tag_77\n        /* \"#utility.yul\":1139:1146   */\n      dup6\n        /* \"#utility.yul\":1130:1136   */\n      dup3\n        /* \"#utility.yul\":1119:1128   */\n      dup7\n        /* \"#utility.yul\":1115:1137   */\n      add\n        /* \"#utility.yul\":1094:1147   */\n      tag_52\n      jump\t// in\n    tag_77:\n        /* \"#utility.yul\":1084:1147   */\n      swap2\n      pop\n        /* \"#utility.yul\":1039:1157   */\n      pop\n        /* \"#utility.yul\":690:1164   */\n      swap3\n      pop\n      swap3\n      swap1\n      pop\n      jump\t// out\n        /* \"#utility.yul\":1170:1288   */\n    tag_53:\n        /* \"#utility.yul\":1257:1281   */\n      tag_79\n        /* \"#utility.yul\":1275:1280   */\n      dup2\n        /* \"#utility.yul\":1257:1281   */\n      tag_50\n      jump\t// in\n    tag_79:\n        /* \"#utility.yul\":1252:1255   */\n      dup3\n        /* \"#utility.yul\":1245:1282   */\n      mstore\n        /* \"#utility.yul\":1170:1288   */\n      pop\n      pop\n      jump\t// out\n        /* \"#utility.yul\":1294:1516   */\n    tag_12:\n        /* \"#utility.yul\":1387:1391   */\n      0x00\n        /* \"#utility.yul\":1425:1427   */\n      0x20\n        /* \"#utility.yul\":1414:1423   */\n      dup3\n        /* \"#utility.yul\":1410:1428   */\n      add\n        /* \"#utility.yul\":1402:1428   */\n      swap1\n      pop\n        /* \"#utility.yul\":1438:1509   */\n      tag_81\n        /* \"#utility.yul\":1506:1507   */\n      0x00\n        /* \"#utility.yul\":1495:1504   */\n      dup4\n        /* \"#utility.yul\":1491:1508   */\n      add\n        /* \"#utility.yul\":1482:1488   */\n      dup5\n        /* \"#utility.yul\":1438:1509   */\n      tag_53\n      jump\t// in\n    tag_81:\n        /* \"#utility.yul\":1294:1516   */\n      swap3\n      swap2\n      pop\n      pop\n      jump\t// out\n        /* \"#utility.yul\":1522:1702   */\n    tag_54:\n        /* \"#utility.yul\":1570:1647   */\n      0x4e487b7100000000000000000000000000000000000000000000000000000000\n        /* \"#utility.yul\":1567:1568   */\n      0x00\n        /* \"#utility.yul\":1560:1648   */\n      mstore\n        /* \"#utility.yul\":1667:1671   */\n      0x11\n        /* \"#utility.yul\":1664:1665   */\n      0x04\n        /* \"#utility.yul\":1657:1672   */\n      mstore\n        /* \"#utility.yul\":1691:1695   */\n      0x24\n        /* \"#utility.yul\":1688:1689   */\n      0x00\n        /* \"#utility.yul\":1681:1696   */\n      revert\n        /* \"#utility.yul\":1708:1899   */\n    tag_27:\n        /* \"#utility.yul\":1748:1751   */\n      0x00\n        /* \"#utility.yul\":1767:1787   */\n      tag_84\n        /* \"#utility.yul\":1785:1786   */\n      dup3\n        /* \"#utility.yul\":1767:1787   */\n      tag_50\n      jump\t// in\n    tag_84:\n        /* \"#utility.yul\":1762:1787   */\n      swap2\n      pop\n        /* \"#utility.yul\":1801:1821   */\n      tag_85\n        /* \"#utility.yul\":1819:1820   */\n      dup4\n        /* \"#utility.yul\":1801:1821   */\n      tag_50\n      jump\t// in\n    tag_85:\n        /* \"#utility.yul\":1796:1821   */\n      swap3\n      pop\n        /* \"#utility.yul\":1844:1845   */\n      dup3\n        /* \"#utility.yul\":1841:1842   */\n      dup3\n        /* \"#utility.yul\":1837:1846   */\n      add\n        /* \"#utility.yul\":1830:1846   */\n      swap1\n      pop\n        /* \"#utility.yul\":1865:1868   */\n      dup1\n        /* \"#utility.yul\":1862:1863   */\n      dup3\n        /* \"#utility.yul\":1859:1869   */\n      gt\n        /* \"#utility.yul\":1856:1892   */\n      iszero\n      tag_86\n      jumpi\n        /* \"#utility.yul\":1872:1890   */\n      tag_87\n      tag_54\n      jump\t// in\n    tag_87:\n        /* \"#utility.yul\":1856:1892   */\n    tag_86:\n        /* \"#utility.yul\":1708:1899   */\n      swap3\n      swap2\n      pop\n      pop\n      jump\t// out\n        /* \"#utility.yul\":1905:2074   */\n    tag_55:\n        /* \"#utility.yul\":1989:2000   */\n      0x00\n        /* \"#utility.yul\":2023:2029   */\n      dup3\n        /* \"#utility.yul\":2018:2021   */\n      dup3\n        /* \"#utility.yul\":2011:2030   */\n      mstore\n        /* \"#utility.yul\":2063:2067   */\n      0x20\n        /* \"#utility.yul\":2058:2061   */\n      dup3\n        /* \"#utility.yul\":2054:2068   */\n      add\n        /* \"#utility.yul\":2039:2068   */\n      swap1\n      pop\n        /* \"#utility.yul\":1905:2074   */\n      swap3\n      swap2\n      pop\n      pop\n      jump\t// out\n        /* \"#utility.yul\":2080:2247   */\n    tag_56:\n        /* \"#utility.yul\":2220:2239   */\n      0x696e76616c6964206f7065726174696f6e000000000000000000000000000000\n        /* \"#utility.yul\":2216:2217   */\n      0x00\n        /* \"#utility.yul\":2208:2214   */\n      dup3\n        /* \"#utility.yul\":2204:2218   */\n      add\n        /* \"#utility.yul\":2197:2240   */\n      mstore\n        /* \"#utility.yul\":2080:2247   */\n      pop\n      jump\t// out\n        /* \"#utility.yul\":2253:2619   */\n    tag_57:\n        /* \"#utility.yul\":2395:2398   */\n      0x00\n        /* \"#utility.yul\":2416:2483   */\n      tag_91\n        /* \"#utility.yul\":2480:2482   */\n      0x11\n        /* \"#utility.yul\":2475:2478   */\n      dup4\n        /* \"#utility.yul\":2416:2483   */\n      tag_55\n      jump\t// in\n    tag_91:\n        /* \"#utility.yul\":2409:2483   */\n      swap2\n      pop\n        /* \"#utility.yul\":2492:2585   */\n      tag_92\n        /* \"#utility.yul\":2581:2584   */\n      dup3\n        /* \"#utility.yul\":2492:2585   */\n      tag_56\n      jump\t// in\n    tag_92:\n        /* \"#utility.yul\":2610:2612   */\n      0x20\n        /* \"#utility.yul\":2605:2608   */\n      dup3\n        /* \"#utility.yul\":2601:2613   */\n      add\n        /* \"#utility.yul\":2594:2613   */\n      swap1\n      pop\n        /* \"#utility.yul\":2253:2619   */\n      swap2\n      swap1\n      pop\n      jump\t// out\n        /* \"#utility.yul\":2625:3044   */\n    tag_31:\n        /* \"#utility.yul\":2791:2795   */\n      0x00\n        /* \"#utility.yul\":2829:2831   */\n      0x20\n        /* \"#utility.yul\":2818:2827   */\n      dup3\n        /* \"#utility.yul\":2814:2832   */\n      add\n        /* \"#utility.yul\":2806:2832   */\n      swap1\n      pop\n        /* \"#utility.yul\":2878:2887   */\n      dup2\n        /* \"#utility.yul\":2872:2876   */\n      dup2\n        /* \"#utility.yul\":2868:2888   */\n      sub\n        /* \"#utility.yul\":2864:2865   */\n      0x00\n        /* \"#utility.yul\":2853:2862   */\n      dup4\n        /* \"#utility.yul\":2849:2866   */\n      add\n        /* \"#utility.yul\":2842:2889   */\n      mstore\n        /* \"#utility.yul\":2906:3037   */\n      tag_94\n        /* \"#utility.yul\":3032:3036   */\n      dup2\n        /* \"#utility.yul\":2906:3037   */\n      tag_57\n      jump\t// in\n    tag_94:\n        /* \"#utility.yul\":2898:3037   */\n      swap1\n      pop\n        /* \"#utility.yul\":2625:3044   */\n      swap2\n      swap1\n      pop\n      jump\t// out\n        /* \"#utility.yul\":3050:3230   */\n    tag_58:\n        /* \"#utility.yul\":3098:3175   */\n      0x4e487b7100000000000000000000000000000000000000000000000000000000\n        /* \"#utility.yul\":3095:3096   */\n      0x00\n        /* \"#utility.yul\":3088:3176   */\n      mstore\n        /* \"#utility.yul\":3195:3199   */\n      0x12\n        /* \"#utility.yul\":3192:3193   */\n      0x04\n        /* \"#utility.yul\":3185:3200   */\n      mstore\n        /* \"#utility.yul\":3219:3223   */\n      0x24\n        /* \"#utility.yul\":3216:3217   */\n      0x00\n        /* \"#utility.yul\":3209:3224   */\n      revert\n        /* \"#utility.yul\":3236:3421   */\n    tag_33:\n        /* \"#utility.yul\":3276:3277   */\n      0x00\n        /* \"#utility.yul\":3293:3313   */\n      tag_97\n        /* \"#utility.yul\":3311:3312   */\n      dup3\n        /* \"#utility.yul\":3293:3313   */\n      tag_50\n      jump\t// in\n    tag_97:\n        /* \"#utility.yul\":3288:3313   */\n      swap2\n      pop\n        /* \"#utility.yul\":3327:3347   */\n      tag_98\n        /* \"#utility.yul\":3345:3346   */\n      dup4\n        /* \"#utility.yul\":3327:3347   */\n      tag_50\n      jump\t// in\n    tag_98:\n        /* \"#utility.yul\":3322:3347   */\n      swap3\n      pop\n        /* \"#utility.yul\":3366:3367   */\n      dup3\n        /* \"#utility.yul\":3356:3391   */\n      tag_99\n      jumpi\n        /* \"#utility.yul\":3371:3389   */\n      tag_100\n      tag_58\n      jump\t// in\n    tag_100:\n        /* \"#utility.yul\":3356:3391   */\n    tag_99:\n        /* \"#utility.yul\":3413:3414   */\n      dup3\n        /* \"#utility.yul\":3410:3411   */\n      dup3\n        /* \"#utility.yul\":3406:3415   */\n      div\n        /* \"#utility.yul\":3401:3415   */\n      swap1\n      pop\n        /* \"#utility.yul\":3236:3421   */\n      swap3\n      swap2\n      pop\n      pop\n      jump\t// out\n        /* \"#utility.yul\":3427:3595   */\n    tag_59:\n        /* \"#utility.yul\":3567:3587   */\n      0x7661726961626c6520756e646572666c6f770000000000000000000000000000\n        /* \"#utility.yul\":3563:3564   */\n      0x00\n        /* \"#utility.yul\":3555:3561   */\n      dup3\n        /* \"#utility.yul\":3551:3565   */\n      add\n        /* \"#utility.yul\":3544:3588   */\n      mstore\n        /* \"#utility.yul\":3427:3595   */\n      pop\n      jump\t// out\n        /* \"#utility.yul\":3601:3967   */\n    tag_60:\n        /* \"#utility.yul\":3743:3746   */\n      0x00\n        /* \"#utility.yul\":3764:3831   */\n      tag_103\n        /* \"#utility.yul\":3828:3830   */\n      0x12\n        /* \"#utility.yul\":3823:3826   */\n      dup4\n        /* \"#utility.yul\":3764:3831   */\n      tag_55\n      jump\t// in\n    tag_103:\n        /* \"#utility.yul\":3757:3831   */\n      swap2\n      pop\n        /* \"#utility.yul\":3840:3933   */\n      tag_104\n        /* \"#utility.yul\":3929:3932   */\n      dup3\n        /* \"#utility.yul\":3840:3933   */\n      tag_59\n      jump\t// in\n    tag_104:\n        /* \"#utility.yul\":3958:3960   */\n      0x20\n        /* \"#utility.yul\":3953:3956   */\n      dup3\n        /* \"#utility.yul\":3949:3961   */\n      add\n        /* \"#utility.yul\":3942:3961   */\n      swap1\n      pop\n        /* \"#utility.yul\":3601:3967   */\n      swap2\n      swap1\n      pop\n      jump\t// out\n        /* \"#utility.yul\":3973:4392   */\n    tag_37:\n        /* \"#utility.yul\":4139:4143   */\n      0x00\n        /* \"#utility.yul\":4177:4179   */\n      0x20\n        /* \"#utility.yul\":4166:4175   */\n      dup3\n        /* \"#utility.yul\":4162:4180   */\n      add\n        /* \"#utility.yul\":4154:4180   */\n      swap1\n      pop\n        /* \"#utility.yul\":4226:4235   */\n      dup2\n        /* \"#utility.yul\":4220:4224   */\n      dup2\n        /* \"#utility.yul\":4216:4236   */\n      sub\n        /* \"#utility.yul\":4212:4213   */\n      0x00\n        /* \"#utility.yul\":4201:4210   */\n      dup4\n        /* \"#utility.yul\":4197:4214   */\n      add\n        /* \"#utility.yul\":4190:4237   */\n      mstore\n        /* \"#utility.yul\":4254:4385   */\n      tag_106\n        /* \"#utility.yul\":4380:4384   */\n      dup2\n        /* \"#utility.yul\":4254:4385   */\n      tag_60\n      jump\t// in\n    tag_106:\n        /* \"#utility.yul\":4246:4385   */\n      swap1\n      pop\n        /* \"#utility.yul\":3973:4392   */\n      swap2\n      swap1\n      pop\n      jump\t// out\n        /* \"#utility.yul\":4398:4592   */\n    tag_39:\n        /* \"#utility.yul\":4438:4442   */\n      0x00\n        /* \"#utility.yul\":4458:4478   */\n      tag_108\n        /* \"#utility.yul\":4476:4477   */\n      dup3\n        /* \"#utility.yul\":4458:4478   */\n      tag_50\n      jump\t// in\n    tag_108:\n        /* \"#utility.yul\":4453:4478   */\n      swap2\n      pop\n        /* \"#utility.yul\":4492:4512   */\n      tag_109\n        /* \"#utility.yul\":4510:4511   */\n      dup4\n        /* \"#utility.yul\":4492:4512   */\n      tag_50\n      jump\t// in\n    tag_109:\n        /* \"#utility.yul\":4487:4512   */\n      swap3\n      pop\n        /* \"#utility.yul\":4536:4537   */\n      dup3\n        /* \"#utility.yul\":4533:4534   */\n      dup3\n        /* \"#utility.yul\":4529:4538   */\n      sub\n        /* \"#utility.yul\":4521:4538   */\n      swap1\n      pop\n        /* \"#utility.yul\":4560:4561   */\n      dup2\n        /* \"#utility.yul\":4554:4558   */\n      dup2\n        /* \"#utility.yul\":4551:4562   */\n      gt\n        /* \"#utility.yul\":4548:4585   */\n      iszero\n      tag_110\n      jumpi\n        /* \"#utility.yul\":4565:4583   */\n      tag_111\n      tag_54\n      jump\t// in\n    tag_111:\n        /* \"#utility.yul\":4548:4585   */\n    tag_110:\n        /* \"#utility.yul\":4398:4592   */\n      swap3\n      swap2\n      pop\n      pop\n      jump\t// out\n        /* \"#utility.yul\":4598:5008   */\n    tag_42:\n        /* \"#utility.yul\":4638:4645   */\n      0x00\n        /* \"#utility.yul\":4661:4681   */\n      tag_113\n        /* \"#utility.yul\":4679:4680   */\n      dup3\n        /* \"#utility.yul\":4661:4681   */\n      tag_50\n      jump\t// in\n    tag_113:\n        /* \"#utility.yul\":4656:4681   */\n      swap2\n      pop\n        /* \"#utility.yul\":4695:4715   */\n      tag_114\n        /* \"#utility.yul\":4713:4714   */\n      dup4\n        /* \"#utility.yul\":4695:4715   */\n      tag_50\n      jump\t// in\n    tag_114:\n        /* \"#utility.yul\":4690:4715   */\n      swap3\n      pop\n        /* \"#utility.yul\":4750:4751   */\n      dup3\n        /* \"#utility.yul\":4747:4748   */\n      dup3\n        /* \"#utility.yul\":4743:4752   */\n      mul\n        /* \"#utility.yul\":4772:4802   */\n      tag_115\n        /* \"#utility.yul\":4790:4801   */\n      dup2\n        /* \"#utility.yul\":4772:4802   */\n      tag_50\n      jump\t// in\n    tag_115:\n        /* \"#utility.yul\":4761:4802   */\n      swap2\n      pop\n        /* \"#utility.yul\":4951:4952   */\n      dup3\n        /* \"#utility.yul\":4942:4949   */\n      dup3\n        /* \"#utility.yul\":4938:4953   */\n      div\n        /* \"#utility.yul\":4935:4936   */\n      dup5\n        /* \"#utility.yul\":4932:4954   */\n      eq\n        /* \"#utility.yul\":4912:4913   */\n      dup4\n        /* \"#utility.yul\":4905:4914   */\n      iszero\n        /* \"#utility.yul\":4885:4968   */\n      or\n        /* \"#utility.yul\":4862:5001   */\n      tag_116\n      jumpi\n        /* \"#utility.yul\":4981:4999   */\n      tag_117\n      tag_54\n      jump\t// in\n    tag_117:\n        /* \"#utility.yul\":4862:5001   */\n    tag_116:\n        /* \"#utility.yul\":4646:5008   */\n      pop\n        /* \"#utility.yul\":4598:5008   */\n      swap3\n      swap2\n      pop\n      pop\n      jump\t// out\n        /* \"#utility.yul\":5014:5181   */\n    tag_61:\n        /* \"#utility.yul\":5154:5173   */\n      0x7661726961626c65206f766572666c6f77000000000000000000000000000000\n        /* \"#utility.yul\":5150:5151   */\n      0x00\n        /* \"#utility.yul\":5142:5148   */\n      dup3\n        /* \"#utility.yul\":5138:5152   */\n      add\n        /* \"#utility.yul\":5131:5174   */\n      mstore\n        /* \"#utility.yul\":5014:5181   */\n      pop\n      jump\t// out\n        /* \"#utility.yul\":5187:5553   */\n    tag_62:\n        /* \"#utility.yul\":5329:5332   */\n      0x00\n        /* \"#utility.yul\":5350:5417   */\n      tag_120\n        /* \"#utility.yul\":5414:5416   */\n      0x11\n        /* \"#utility.yul\":5409:5412   */\n      dup4\n        /* \"#utility.yul\":5350:5417   */\n      tag_55\n      jump\t// in\n    tag_120:\n        /* \"#utility.yul\":5343:5417   */\n      swap2\n      pop\n        /* \"#utility.yul\":5426:5519   */\n      tag_121\n        /* \"#utility.yul\":5515:5518   */\n      dup3\n        /* \"#utility.yul\":5426:5519   */\n      tag_61\n      jump\t// in\n    tag_121:\n        /* \"#utility.yul\":5544:5546   */\n      0x20\n        /* \"#utility.yul\":5539:5542   */\n      dup3\n        /* \"#utility.yul\":5535:5547   */\n      add\n        /* \"#utility.yul\":5528:5547   */\n      swap1\n      pop\n        /* \"#utility.yul\":5187:5553   */\n      swap2\n      swap1\n      pop\n      jump\t// out\n        /* \"#utility.yul\":5559:5978   */\n    tag_46:\n        /* \"#utility.yul\":5725:5729   */\n      0x00\n        /* \"#utility.yul\":5763:5765   */\n      0x20\n        /* \"#utility.yul\":5752:5761   */\n      dup3\n        /* \"#utility.yul\":5748:5766   */\n      add\n        /* \"#utility.yul\":5740:5766   */\n      swap1\n      pop\n        /* \"#utility.yul\":5812:5821   */\n      dup2\n        /* \"#utility.yul\":5806:5810   */\n      dup2\n        /* \"#utility.yul\":5802:5822   */\n      sub\n        /* \"#utility.yul\":5798:5799   */\n      0x00\n        /* \"#utility.yul\":5787:5796   */\n      dup4\n        /* \"#utility.yul\":5783:5800   */\n      add\n        /* \"#utility.yul\":5776:5823   */\n      mstore\n        /* \"#utility.yul\":5840:5971   */\n      tag_123\n        /* \"#utility.yul\":5966:5970   */\n      dup2\n        /* \"#utility.yul\":5840:5971   */\n      tag_62\n      jump\t// in\n    tag_123:\n        /* \"#utility.yul\":5832:5971   */\n      swap1\n      pop\n        /* \"#utility.yul\":5559:5978   */\n      swap2\n      swap1\n      pop\n      jump\t// out\n\n    auxdata: 0xa264697066735822122074eefe07d354fdcd5fe527bb13d175ede583341f1290f6d488434b3849b1b6c164736f6c634300081a0033\n}\n",
				"bytecode": {
					"linkReferences": {},
					"object": "6080604052348015600e575f80fd5b506105948061001c5f395ff3fe608060405234801561000f575f80fd5b506004361061004a575f3560e01c8063771602f71461004e578063a391c15b1461007e578063b67d77c5146100ae578063c8a4ac9c146100de575b5f80fd5b6100686004803603810190610063919061027f565b61010e565b60405161007591906102cc565b60405180910390f35b6100986004803603810190610093919061027f565b610128565b6040516100a591906102cc565b60405180910390f35b6100c860048036038101906100c3919061027f565b610184565b6040516100d591906102cc565b60405180910390f35b6100f860048036038101906100f3919061027f565b6101e1565b60405161010591906102cc565b60405180910390f35b5f80828461011c9190610312565b90508091505092915050565b5f80821161016b576040517f08c379a00000000000000000000000000000000000000000000000000000000081526004016101629061039f565b60405180910390fd5b5f828461017891906103ea565b90508091505092915050565b5f828211156101c8576040517f08c379a00000000000000000000000000000000000000000000000000000000081526004016101bf90610464565b60405180910390fd5b5f82846101d59190610482565b90508091505092915050565b5f8082846101ef91906104b5565b90508284826101fe91906103ea565b1461023e576040517f08c379a000000000000000000000000000000000000000000000000000000000815260040161023590610540565b60405180910390fd5b8091505092915050565b5f80fd5b5f819050919050565b61025e8161024c565b8114610268575f80fd5b50565b5f8135905061027981610255565b92915050565b5f806040838503121561029557610294610248565b5b5f6102a28582860161026b565b92505060206102b38582860161026b565b9150509250929050565b6102c68161024c565b82525050565b5f6020820190506102df5f8301846102bd565b92915050565b7f4e487b71000000000000000000000000000000000000000000000000000000005f52601160045260245ffd5b5f61031c8261024c565b91506103278361024c565b925082820190508082111561033f5761033e6102e5565b5b92915050565b5f82825260208201905092915050565b7f696e76616c6964206f7065726174696f6e0000000000000000000000000000005f82015250565b5f610389601183610345565b915061039482610355565b602082019050919050565b5f6020820190508181035f8301526103b68161037d565b9050919050565b7f4e487b71000000000000000000000000000000000000000000000000000000005f52601260045260245ffd5b5f6103f48261024c565b91506103ff8361024c565b92508261040f5761040e6103bd565b5b828204905092915050565b7f7661726961626c6520756e646572666c6f7700000000000000000000000000005f82015250565b5f61044e601283610345565b91506104598261041a565b602082019050919050565b5f6020820190508181035f83015261047b81610442565b9050919050565b5f61048c8261024c565b91506104978361024c565b92508282039050818111156104af576104ae6102e5565b5b92915050565b5f6104bf8261024c565b91506104ca8361024c565b92508282026104d88161024c565b915082820484148315176104ef576104ee6102e5565b5b5092915050565b7f7661726961626c65206f766572666c6f770000000000000000000000000000005f82015250565b5f61052a601183610345565b9150610535826104f6565b602082019050919050565b5f6020820190508181035f8301526105578161051e565b905091905056fea264697066735822122074eefe07d354fdcd5fe527bb13d175ede583341f1290f6d488434b3849b1b6c164736f6c634300081a0033",
					"opcodes": "PUSH1 0x80 PUSH1 0x40 MSTORE CALLVALUE DUP1 ISZERO PUSH1 0xE JUMPI PUSH0 DUP1 REVERT JUMPDEST POP PUSH2 0x594 DUP1 PUSH2 0x1C PUSH0 CODECOPY PUSH0 RETURN INVALID PUSH1 0x80 PUSH1 0x40 MSTORE CALLVALUE DUP1 ISZERO PUSH2 0xF JUMPI PUSH0 DUP1 REVERT JUMPDEST POP PUSH1 0x4 CALLDATASIZE LT PUSH2 0x4A JUMPI PUSH0 CALLDATALOAD PUSH1 0xE0 SHR DUP1 PUSH4 0x771602F7 EQ PUSH2 0x4E JUMPI DUP1 PUSH4 0xA391C15B EQ PUSH2 0x7E JUMPI DUP1 PUSH4 0xB67D77C5 EQ PUSH2 0xAE JUMPI DUP1 PUSH4 0xC8A4AC9C EQ PUSH2 0xDE JUMPI JUMPDEST PUSH0 DUP1 REVERT JUMPDEST PUSH2 0x68 PUSH1 0x4 DUP1 CALLDATASIZE SUB DUP2 ADD SWAP1 PUSH2 0x63 SWAP2 SWAP1 PUSH2 0x27F JUMP JUMPDEST PUSH2 0x10E JUMP JUMPDEST PUSH1 0x40 MLOAD PUSH2 0x75 SWAP2 SWAP1 PUSH2 0x2CC JUMP JUMPDEST PUSH1 0x40 MLOAD DUP1 SWAP2 SUB SWAP1 RETURN JUMPDEST PUSH2 0x98 PUSH1 0x4 DUP1 CALLDATASIZE SUB DUP2 ADD SWAP1 PUSH2 0x93 SWAP2 SWAP1 PUSH2 0x27F JUMP JUMPDEST PUSH2 0x128 JUMP JUMPDEST PUSH1 0x40 MLOAD PUSH2 0xA5 SWAP2 SWAP1 PUSH2 0x2CC JUMP JUMPDEST PUSH1 0x40 MLOAD DUP1 SWAP2 SUB SWAP1 RETURN JUMPDEST PUSH2 0xC8 PUSH1 0x4 DUP1 CALLDATASIZE SUB DUP2 ADD SWAP1 PUSH2 0xC3 SWAP2 SWAP1 PUSH2 0x27F JUMP JUMPDEST PUSH2 0x184 JUMP JUMPDEST PUSH1 0x40 MLOAD PUSH2 0xD5 SWAP2 SWAP1 PUSH2 0x2CC JUMP JUMPDEST PUSH1 0x40 MLOAD DUP1 SWAP2 SUB SWAP1 RETURN JUMPDEST PUSH2 0xF8 PUSH1 0x4 DUP1 CALLDATASIZE SUB DUP2 ADD SWAP1 PUSH2 0xF3 SWAP2 SWAP1 PUSH2 0x27F JUMP JUMPDEST PUSH2 0x1E1 JUMP JUMPDEST PUSH1 0x40 MLOAD PUSH2 0x105 SWAP2 SWAP1 PUSH2 0x2CC JUMP JUMPDEST PUSH1 0x40 MLOAD DUP1 SWAP2 SUB SWAP1 RETURN JUMPDEST PUSH0 DUP1 DUP3 DUP5 PUSH2 0x11C SWAP2 SWAP1 PUSH2 0x312 JUMP JUMPDEST SWAP1 POP DUP1 SWAP2 POP POP SWAP3 SWAP2 POP POP JUMP JUMPDEST PUSH0 DUP1 DUP3 GT PUSH2 0x16B JUMPI PUSH1 0x40 MLOAD PUSH32 0x8C379A000000000000000000000000000000000000000000000000000000000 DUP2 MSTORE PUSH1 0x4 ADD PUSH2 0x162 SWAP1 PUSH2 0x39F JUMP JUMPDEST PUSH1 0x40 MLOAD DUP1 SWAP2 SUB SWAP1 REVERT JUMPDEST PUSH0 DUP3 DUP5 PUSH2 0x178 SWAP2 SWAP1 PUSH2 0x3EA JUMP JUMPDEST SWAP1 POP DUP1 SWAP2 POP POP SWAP3 SWAP2 POP POP JUMP JUMPDEST PUSH0 DUP3 DUP3 GT ISZERO PUSH2 0x1C8 JUMPI PUSH1 0x40 MLOAD PUSH32 0x8C379A000000000000000000000000000000000000000000000000000000000 DUP2 MSTORE PUSH1 0x4 ADD PUSH2 0x1BF SWAP1 PUSH2 0x464 JUMP JUMPDEST PUSH1 0x40 MLOAD DUP1 SWAP2 SUB SWAP1 REVERT JUMPDEST PUSH0 DUP3 DUP5 PUSH2 0x1D5 SWAP2 SWAP1 PUSH2 0x482 JUMP JUMPDEST SWAP1 POP DUP1 SWAP2 POP POP SWAP3 SWAP2 POP POP JUMP JUMPDEST PUSH0 DUP1 DUP3 DUP5 PUSH2 0x1EF SWAP2 SWAP1 PUSH2 0x4B5 JUMP JUMPDEST SWAP1 POP DUP3 DUP5 DUP3 PUSH2 0x1FE SWAP2 SWAP1 PUSH2 0x3EA JUMP JUMPDEST EQ PUSH2 0x23E JUMPI PUSH1 0x40 MLOAD PUSH32 0x8C379A000000000000000000000000000000000000000000000000000000000 DUP2 MSTORE PUSH1 0x4 ADD PUSH2 0x235 SWAP1 PUSH2 0x540 JUMP JUMPDEST PUSH1 0x40 MLOAD DUP1 SWAP2 SUB SWAP1 REVERT JUMPDEST DUP1 SWAP2 POP POP SWAP3 SWAP2 POP POP JUMP JUMPDEST PUSH0 DUP1 REVERT JUMPDEST PUSH0 DUP2 SWAP1 POP SWAP2 SWAP1 POP JUMP JUMPDEST PUSH2 0x25E DUP2 PUSH2 0x24C JUMP JUMPDEST DUP2 EQ PUSH2 0x268 JUMPI PUSH0 DUP1 REVERT JUMPDEST POP JUMP JUMPDEST PUSH0 DUP2 CALLDATALOAD SWAP1 POP PUSH2 0x279 DUP2 PUSH2 0x255 JUMP JUMPDEST SWAP3 SWAP2 POP POP JUMP JUMPDEST PUSH0 DUP1 PUSH1 0x40 DUP4 DUP6 SUB SLT ISZERO PUSH2 0x295 JUMPI PUSH2 0x294 PUSH2 0x248 JUMP JUMPDEST JUMPDEST PUSH0 PUSH2 0x2A2 DUP6 DUP3 DUP7 ADD PUSH2 0x26B JUMP JUMPDEST SWAP3 POP POP PUSH1 0x20 PUSH2 0x2B3 DUP6 DUP3 DUP7 ADD PUSH2 0x26B JUMP JUMPDEST SWAP2 POP POP SWAP3 POP SWAP3 SWAP1 POP JUMP JUMPDEST PUSH2 0x2C6 DUP2 PUSH2 0x24C JUMP JUMPDEST DUP3 MSTORE POP POP JUMP JUMPDEST PUSH0 PUSH1 0x20 DUP3 ADD SWAP1 POP PUSH2 0x2DF PUSH0 DUP4 ADD DUP5 PUSH2 0x2BD JUMP JUMPDEST SWAP3 SWAP2 POP POP JUMP JUMPDEST PUSH32 0x4E487B7100000000000000000000000000000000000000000000000000000000 PUSH0 MSTORE PUSH1 0x11 PUSH1 0x4 MSTORE PUSH1 0x24 PUSH0 REVERT JUMPDEST PUSH0 PUSH2 0x31C DUP3 PUSH2 0x24C JUMP JUMPDEST SWAP2 POP PUSH2 0x327 DUP4 PUSH2 0x24C JUMP JUMPDEST SWAP3 POP DUP3 DUP3 ADD SWAP1 POP DUP1 DUP3 GT ISZERO PUSH2 0x33F JUMPI PUSH2 0x33E PUSH2 0x2E5 JUMP JUMPDEST JUMPDEST SWAP3 SWAP2 POP POP JUMP JUMPDEST PUSH0 DUP3 DUP3 MSTORE PUSH1 0x20 DUP3 ADD SWAP1 POP SWAP3 SWAP2 POP POP JUMP JUMPDEST PUSH32 0x696E76616C6964206F7065726174696F6E000000000000000000000000000000 PUSH0 DUP3 ADD MSTORE POP JUMP JUMPDEST PUSH0 PUSH2 0x389 PUSH1 0x11 DUP4 PUSH2 0x345 JUMP JUMPDEST SWAP2 POP PUSH2 0x394 DUP3 PUSH2 0x355 JUMP JUMPDEST PUSH1 0x20 DUP3 ADD SWAP1 POP SWAP2 SWAP1 POP JUMP JUMPDEST PUSH0 PUSH1 0x20 DUP3 ADD SWAP1 POP DUP2 DUP2 SUB PUSH0 DUP4 ADD MSTORE PUSH2 0x3B6 DUP2 PUSH2 0x37D JUMP JUMPDEST SWAP1 POP SWAP2 SWAP1 POP JUMP JUMPDEST PUSH32 0x4E487B7100000000000000000000000000000000000000000000000000000000 PUSH0 MSTORE PUSH1 0x12 PUSH1 0x4 MSTORE PUSH1 0x24 PUSH0 REVERT JUMPDEST PUSH0 PUSH2 0x3F4 DUP3 PUSH2 0x24C JUMP JUMPDEST SWAP2 POP PUSH2 0x3FF DUP4 PUSH2 0x24C JUMP JUMPDEST SWAP3 POP DUP3 PUSH2 0x40F JUMPI PUSH2 0x40E PUSH2 0x3BD JUMP JUMPDEST JUMPDEST DUP3 DUP3 DIV SWAP1 POP SWAP3 SWAP2 POP POP JUMP JUMPDEST PUSH32 0x7661726961626C6520756E646572666C6F770000000000000000000000000000 PUSH0 DUP3 ADD MSTORE POP JUMP JUMPDEST PUSH0 PUSH2 0x44E PUSH1 0x12 DUP4 PUSH2 0x345 JUMP JUMPDEST SWAP2 POP PUSH2 0x459 DUP3 PUSH2 0x41A JUMP JUMPDEST PUSH1 0x20 DUP3 ADD SWAP1 POP SWAP2 SWAP1 POP JUMP JUMPDEST PUSH0 PUSH1 0x20 DUP3 ADD SWAP1 POP DUP2 DUP2 SUB PUSH0 DUP4 ADD MSTORE PUSH2 0x47B DUP2 PUSH2 0x442 JUMP JUMPDEST SWAP1 POP SWAP2 SWAP1 POP JUMP JUMPDEST PUSH0 PUSH2 0x48C DUP3 PUSH2 0x24C JUMP JUMPDEST SWAP2 POP PUSH2 0x497 DUP4 PUSH2 0x24C JUMP JUMPDEST SWAP3 POP DUP3 DUP3 SUB SWAP1 POP DUP2 DUP2 GT ISZERO PUSH2 0x4AF JUMPI PUSH2 0x4AE PUSH2 0x2E5 JUMP JUMPDEST JUMPDEST SWAP3 SWAP2 POP POP JUMP JUMPDEST PUSH0 PUSH2 0x4BF DUP3 PUSH2 0x24C JUMP JUMPDEST SWAP2 POP PUSH2 0x4CA DUP4 PUSH2 0x24C JUMP JUMPDEST SWAP3 POP DUP3 DUP3 MUL PUSH2 0x4D8 DUP2 PUSH2 0x24C JUMP JUMPDEST SWAP2 POP DUP3 DUP3 DIV DUP5 EQ DUP4 ISZERO OR PUSH2 0x4EF JUMPI PUSH2 0x4EE PUSH2 0x2E5 JUMP JUMPDEST JUMPDEST POP SWAP3 SWAP2 POP POP JUMP JUMPDEST PUSH32 0x7661726961626C65206F766572666C6F77000000000000000000000000000000 PUSH0 DUP3 ADD MSTORE POP JUMP JUMPDEST PUSH0 PUSH2 0x52A PUSH1 0x11 DUP4 PUSH2 0x345 JUMP JUMPDEST SWAP2 POP PUSH2 0x535 DUP3 PUSH2 0x4F6 JUMP JUMPDEST PUSH1 0x20 DUP3 ADD SWAP1 POP SWAP2 SWAP1 POP JUMP JUMPDEST PUSH0 PUSH1 0x20 DUP3 ADD SWAP1 POP DUP2 DUP2 SUB PUSH0 DUP4 ADD MSTORE PUSH2 0x557 DUP2 PUSH2 0x51E JUMP JUMPDEST SWAP1 POP SWAP2 SWAP1 POP JUMP INVALID LOG2 PUSH5 0x6970667358 0x22 SLT KECCAK256 PUSH21 0xEEFE07D354FDCD5FE527BB13D175EDE583341F1290 0xF6 0xD4 DUP9 NUMBER 0x4B CODESIZE BLOBHASH 0xB1 0xB6 0xC1 PUSH5 0x736F6C6343 STOP ADDMOD BYTE STOP CALLER "
				},
				"gasEstimates": {
					"creation": {
						"codeDepositCost": "285600",
						"executionCost": "322",
						"totalCost": "285922"
					},
					"external": {
						"add(uint256,uint256)": "infinite",
						"div(uint256,uint256)": "infinite",
						"mul(uint256,uint256)": "infinite",
						"sub(uint256,uint256)": "infinite"
					}
				},
				"methodIdentifiers": {
					"add(uint256,uint256)": "771602f7",
					"div(uint256,uint256)": "a391c15b",
					"mul(uint256,uint256)": "c8a4ac9c",
					"sub(uint256,uint256)": "b67d77c5"
				}
			},
			"storageLayout": {
				"storage": [],
				"types": null
			},
			"userdoc": {
				"kind": "user",
				"methods": {},
				"version": 1
			}
		}
	}
}