{
	"contracts/3/childOrgEnrollment.sol": {
		"ParentOrg": {
			"abi": [
				{
					"inputs": [
						{
							"internalType": "address",
							"name": "",
							"type": "address"
						}
					],
					"name": "details",
					"outputs": [
						{
							"internalType": "string",
							"name": "name",
							"type": "string"
						},
						{
							"internalType": "uint256",
							"name": "age",
							"type": "uint256"
						},
						{
							"internalType": "string",
							"name": "department",
							"type": "string"
						}
					],
					"stateMutability": "view",
					"type": "function"
				},
				{
					"inputs": [
						{
							"internalType": "string",
							"name": "_name",
							"type": "string"
						},
						{
							"internalType": "uint256",
							"name": "_age",
							"type": "uint256"
						},
						{
							"internalType": "string",
							"name": "_department",
							"type": "string"
						}
					],
					"name": "enroll",
					"outputs": [],
					"stateMutability": "nonpayable",
					"type": "function"
				}
			],
			"devdoc": {
				"kind": "dev",
				"methods": {},
				"version": 1
			},
			"evm": {
				"assembly": "    /* \"contracts/3/childOrgEnrollment.sol\":62:432  contract ParentOrg {... */\n  mstore(0x40, 0x80)\n  callvalue\n  dup1\n  iszero\n  tag_1\n  jumpi\n  0x00\n  dup1\n  revert\ntag_1:\n  pop\n  dataSize(sub_0)\n  dup1\n  dataOffset(sub_0)\n  0x00\n  codecopy\n  0x00\n  return\nstop\n\nsub_0: assembly {\n        /* \"contracts/3/childOrgEnrollment.sol\":62:432  contract ParentOrg {... */\n      mstore(0x40, 0x80)\n      callvalue\n      dup1\n      iszero\n      tag_1\n      jumpi\n      0x00\n      dup1\n      revert\n    tag_1:\n      pop\n      jumpi(tag_2, lt(calldatasize, 0x04))\n      shr(0xe0, calldataload(0x00))\n      dup1\n      0x24a92f9f\n      eq\n      tag_3\n      jumpi\n      dup1\n      0x3eea7bbf\n      eq\n      tag_4\n      jumpi\n    tag_2:\n      0x00\n      dup1\n      revert\n        /* \"contracts/3/childOrgEnrollment.sol\":196:246  mapping(address => EmployeeDetails) public details */\n    tag_3:\n      tag_5\n      0x04\n      dup1\n      calldatasize\n      sub\n      dup2\n      add\n      swap1\n      tag_6\n      swap2\n      swap1\n      tag_7\n      jump\t// in\n    tag_6:\n      tag_8\n      jump\t// in\n    tag_5:\n      mload(0x40)\n      tag_9\n      swap4\n      swap3\n      swap2\n      swap1\n      tag_10\n      jump\t// in\n    tag_9:\n      mload(0x40)\n      dup1\n      swap2\n      sub\n      swap1\n      return\n        /* \"contracts/3/childOrgEnrollment.sol\":255:429  function enroll(string memory _name, uint _age, string memory _department) virtual external {... */\n    tag_4:\n      tag_11\n      0x04\n      dup1\n      calldatasize\n      sub\n      dup2\n      add\n      swap1\n      tag_12\n      swap2\n      swap1\n      tag_13\n      jump\t// in\n    tag_12:\n      tag_14\n      jump\t// in\n    tag_11:\n      stop\n        /* \"contracts/3/childOrgEnrollment.sol\":196:246  mapping(address => EmployeeDetails) public details */\n    tag_8:\n      mstore(0x20, 0x00)\n      dup1\n      0x00\n      mstore\n      keccak256(0x00, 0x40)\n      0x00\n      swap2\n      pop\n      swap1\n      pop\n      dup1\n      0x00\n      add\n      dup1\n      sload\n      tag_15\n      swap1\n      tag_16\n      jump\t// in\n    tag_15:\n      dup1\n      0x1f\n      add\n      0x20\n      dup1\n      swap2\n      div\n      mul\n      0x20\n      add\n      mload(0x40)\n      swap1\n      dup2\n      add\n      0x40\n      mstore\n      dup1\n      swap3\n      swap2\n      swap1\n      dup2\n      dup2\n      mstore\n      0x20\n      add\n      dup3\n      dup1\n      sload\n      tag_17\n      swap1\n      tag_16\n      jump\t// in\n    tag_17:\n      dup1\n      iszero\n      tag_18\n      jumpi\n      dup1\n      0x1f\n      lt\n      tag_19\n      jumpi\n      0x0100\n      dup1\n      dup4\n      sload\n      div\n      mul\n      dup4\n      mstore\n      swap2\n      0x20\n      add\n      swap2\n      jump(tag_18)\n    tag_19:\n      dup3\n      add\n      swap2\n      swap1\n      0x00\n      mstore\n      keccak256(0x00, 0x20)\n      swap1\n    tag_20:\n      dup2\n      sload\n      dup2\n      mstore\n      swap1\n      0x01\n      add\n      swap1\n      0x20\n      add\n      dup1\n      dup4\n      gt\n      tag_20\n      jumpi\n      dup3\n      swap1\n      sub\n      0x1f\n      and\n      dup3\n      add\n      swap2\n    tag_18:\n      pop\n      pop\n      pop\n      pop\n      pop\n      swap1\n      dup1\n      0x01\n      add\n      sload\n      swap1\n      dup1\n      0x02\n      add\n      dup1\n      sload\n      tag_21\n      swap1\n      tag_16\n      jump\t// in\n    tag_21:\n      dup1\n      0x1f\n      add\n      0x20\n      dup1\n      swap2\n      div\n      mul\n      0x20\n      add\n      mload(0x40)\n      swap1\n      dup2\n      add\n      0x40\n      mstore\n      dup1\n      swap3\n      swap2\n      swap1\n      dup2\n      dup2\n      mstore\n      0x20\n      add\n      dup3\n      dup1\n      sload\n      tag_22\n      swap1\n      tag_16\n      jump\t// in\n    tag_22:\n      dup1\n      iszero\n      tag_23\n      jumpi\n      dup1\n      0x1f\n      lt\n      tag_24\n      jumpi\n      0x0100\n      dup1\n      dup4\n      sload\n      div\n      mul\n      dup4\n      mstore\n      swap2\n      0x20\n      add\n      swap2\n      jump(tag_23)\n    tag_24:\n      dup3\n      add\n      swap2\n      swap1\n      0x00\n      mstore\n      keccak256(0x00, 0x20)\n      swap1\n    tag_25:\n      dup2\n      sload\n      dup2\n      mstore\n      swap1\n      0x01\n      add\n      swap1\n      0x20\n      add\n      dup1\n      dup4\n      gt\n      tag_25\n      jumpi\n      dup3\n      swap1\n      sub\n      0x1f\n      and\n      dup3\n      add\n      swap2\n    tag_23:\n      pop\n      pop\n      pop\n      pop\n      pop\n      swap1\n      pop\n      dup4\n      jump\t// out\n        /* \"contracts/3/childOrgEnrollment.sol\":255:429  function enroll(string memory _name, uint _age, string memory _department) virtual external {... */\n    tag_14:\n        /* \"contracts/3/childOrgEnrollment.sol\":380:421  EmployeeDetails(_name, _age, _department) */\n      mload(0x40)\n      dup1\n      0x60\n      add\n      0x40\n      mstore\n      dup1\n        /* \"contracts/3/childOrgEnrollment.sol\":396:401  _name */\n      dup5\n        /* \"contracts/3/childOrgEnrollment.sol\":380:421  EmployeeDetails(_name, _age, _department) */\n      dup2\n      mstore\n      0x20\n      add\n        /* \"contracts/3/childOrgEnrollment.sol\":403:407  _age */\n      dup4\n        /* \"contracts/3/childOrgEnrollment.sol\":380:421  EmployeeDetails(_name, _age, _department) */\n      dup2\n      mstore\n      0x20\n      add\n        /* \"contracts/3/childOrgEnrollment.sol\":409:420  _department */\n      dup3\n        /* \"contracts/3/childOrgEnrollment.sol\":380:421  EmployeeDetails(_name, _age, _department) */\n      dup2\n      mstore\n      pop\n        /* \"contracts/3/childOrgEnrollment.sol\":358:365  details */\n      0x00\n        /* \"contracts/3/childOrgEnrollment.sol\":358:377  details[msg.sender] */\n      dup1\n        /* \"contracts/3/childOrgEnrollment.sol\":366:376  msg.sender */\n      caller\n        /* \"contracts/3/childOrgEnrollment.sol\":358:377  details[msg.sender] */\n      0xffffffffffffffffffffffffffffffffffffffff\n      and\n      0xffffffffffffffffffffffffffffffffffffffff\n      and\n      dup2\n      mstore\n      0x20\n      add\n      swap1\n      dup2\n      mstore\n      0x20\n      add\n      0x00\n      keccak256\n        /* \"contracts/3/childOrgEnrollment.sol\":358:421  details[msg.sender] = EmployeeDetails(_name, _age, _department) */\n      0x00\n      dup3\n      add\n      mload\n      dup2\n      0x00\n      add\n      swap1\n      dup2\n      tag_27\n      swap2\n      swap1\n      tag_28\n      jump\t// in\n    tag_27:\n      pop\n      0x20\n      dup3\n      add\n      mload\n      dup2\n      0x01\n      add\n      sstore\n      0x40\n      dup3\n      add\n      mload\n      dup2\n      0x02\n      add\n      swap1\n      dup2\n      tag_29\n      swap2\n      swap1\n      tag_28\n      jump\t// in\n    tag_29:\n      pop\n      swap1\n      pop\n      pop\n        /* \"contracts/3/childOrgEnrollment.sol\":255:429  function enroll(string memory _name, uint _age, string memory _department) virtual external {... */\n      pop\n      pop\n      pop\n      jump\t// out\n        /* \"#utility.yul\":7:82   */\n    tag_30:\n        /* \"#utility.yul\":40:46   */\n      0x00\n        /* \"#utility.yul\":73:75   */\n      0x40\n        /* \"#utility.yul\":67:76   */\n      mload\n        /* \"#utility.yul\":57:76   */\n      swap1\n      pop\n        /* \"#utility.yul\":7:82   */\n      swap1\n      jump\t// out\n        /* \"#utility.yul\":88:205   */\n    tag_31:\n        /* \"#utility.yul\":197:198   */\n      0x00\n        /* \"#utility.yul\":194:195   */\n      dup1\n        /* \"#utility.yul\":187:199   */\n      revert\n        /* \"#utility.yul\":211:328   */\n    tag_32:\n        /* \"#utility.yul\":320:321   */\n      0x00\n        /* \"#utility.yul\":317:318   */\n      dup1\n        /* \"#utility.yul\":310:322   */\n      revert\n        /* \"#utility.yul\":334:460   */\n    tag_33:\n        /* \"#utility.yul\":371:378   */\n      0x00\n        /* \"#utility.yul\":411:453   */\n      0xffffffffffffffffffffffffffffffffffffffff\n        /* \"#utility.yul\":404:409   */\n      dup3\n        /* \"#utility.yul\":400:454   */\n      and\n        /* \"#utility.yul\":389:454   */\n      swap1\n      pop\n        /* \"#utility.yul\":334:460   */\n      swap2\n      swap1\n      pop\n      jump\t// out\n        /* \"#utility.yul\":466:562   */\n    tag_34:\n        /* \"#utility.yul\":503:510   */\n      0x00\n        /* \"#utility.yul\":532:556   */\n      tag_77\n        /* \"#utility.yul\":550:555   */\n      dup3\n        /* \"#utility.yul\":532:556   */\n      tag_33\n      jump\t// in\n    tag_77:\n        /* \"#utility.yul\":521:556   */\n      swap1\n      pop\n        /* \"#utility.yul\":466:562   */\n      swap2\n      swap1\n      pop\n      jump\t// out\n        /* \"#utility.yul\":568:690   */\n    tag_35:\n        /* \"#utility.yul\":641:665   */\n      tag_79\n        /* \"#utility.yul\":659:664   */\n      dup2\n        /* \"#utility.yul\":641:665   */\n      tag_34\n      jump\t// in\n    tag_79:\n        /* \"#utility.yul\":634:639   */\n      dup2\n        /* \"#utility.yul\":631:666   */\n      eq\n        /* \"#utility.yul\":621:684   */\n      tag_80\n      jumpi\n        /* \"#utility.yul\":680:681   */\n      0x00\n        /* \"#utility.yul\":677:678   */\n      dup1\n        /* \"#utility.yul\":670:682   */\n      revert\n        /* \"#utility.yul\":621:684   */\n    tag_80:\n        /* \"#utility.yul\":568:690   */\n      pop\n      jump\t// out\n        /* \"#utility.yul\":696:835   */\n    tag_36:\n        /* \"#utility.yul\":742:747   */\n      0x00\n        /* \"#utility.yul\":780:786   */\n      dup2\n        /* \"#utility.yul\":767:787   */\n      calldataload\n        /* \"#utility.yul\":758:787   */\n      swap1\n      pop\n        /* \"#utility.yul\":796:829   */\n      tag_82\n        /* \"#utility.yul\":823:828   */\n      dup2\n        /* \"#utility.yul\":796:829   */\n      tag_35\n      jump\t// in\n    tag_82:\n        /* \"#utility.yul\":696:835   */\n      swap3\n      swap2\n      pop\n      pop\n      jump\t// out\n        /* \"#utility.yul\":841:1170   */\n    tag_7:\n        /* \"#utility.yul\":900:906   */\n      0x00\n        /* \"#utility.yul\":949:951   */\n      0x20\n        /* \"#utility.yul\":937:946   */\n      dup3\n        /* \"#utility.yul\":928:935   */\n      dup5\n        /* \"#utility.yul\":924:947   */\n      sub\n        /* \"#utility.yul\":920:952   */\n      slt\n        /* \"#utility.yul\":917:1036   */\n      iszero\n      tag_84\n      jumpi\n        /* \"#utility.yul\":955:1034   */\n      tag_85\n      tag_31\n      jump\t// in\n    tag_85:\n        /* \"#utility.yul\":917:1036   */\n    tag_84:\n        /* \"#utility.yul\":1075:1076   */\n      0x00\n        /* \"#utility.yul\":1100:1153   */\n      tag_86\n        /* \"#utility.yul\":1145:1152   */\n      dup5\n        /* \"#utility.yul\":1136:1142   */\n      dup3\n        /* \"#utility.yul\":1125:1134   */\n      dup6\n        /* \"#utility.yul\":1121:1143   */\n      add\n        /* \"#utility.yul\":1100:1153   */\n      tag_36\n      jump\t// in\n    tag_86:\n        /* \"#utility.yul\":1090:1153   */\n      swap2\n      pop\n        /* \"#utility.yul\":1046:1163   */\n      pop\n        /* \"#utility.yul\":841:1170   */\n      swap3\n      swap2\n      pop\n      pop\n      jump\t// out\n        /* \"#utility.yul\":1176:1275   */\n    tag_37:\n        /* \"#utility.yul\":1228:1234   */\n      0x00\n        /* \"#utility.yul\":1262:1267   */\n      dup2\n        /* \"#utility.yul\":1256:1268   */\n      mload\n        /* \"#utility.yul\":1246:1268   */\n      swap1\n      pop\n        /* \"#utility.yul\":1176:1275   */\n      swap2\n      swap1\n      pop\n      jump\t// out\n        /* \"#utility.yul\":1281:1450   */\n    tag_38:\n        /* \"#utility.yul\":1365:1376   */\n      0x00\n        /* \"#utility.yul\":1399:1405   */\n      dup3\n        /* \"#utility.yul\":1394:1397   */\n      dup3\n        /* \"#utility.yul\":1387:1406   */\n      mstore\n        /* \"#utility.yul\":1439:1443   */\n      0x20\n        /* \"#utility.yul\":1434:1437   */\n      dup3\n        /* \"#utility.yul\":1430:1444   */\n      add\n        /* \"#utility.yul\":1415:1444   */\n      swap1\n      pop\n        /* \"#utility.yul\":1281:1450   */\n      swap3\n      swap2\n      pop\n      pop\n      jump\t// out\n        /* \"#utility.yul\":1456:1595   */\n    tag_39:\n        /* \"#utility.yul\":1545:1551   */\n      dup3\n        /* \"#utility.yul\":1540:1543   */\n      dup2\n        /* \"#utility.yul\":1535:1538   */\n      dup4\n        /* \"#utility.yul\":1529:1552   */\n      mcopy\n        /* \"#utility.yul\":1586:1587   */\n      0x00\n        /* \"#utility.yul\":1577:1583   */\n      dup4\n        /* \"#utility.yul\":1572:1575   */\n      dup4\n        /* \"#utility.yul\":1568:1584   */\n      add\n        /* \"#utility.yul\":1561:1588   */\n      mstore\n        /* \"#utility.yul\":1456:1595   */\n      pop\n      pop\n      pop\n      jump\t// out\n        /* \"#utility.yul\":1601:1703   */\n    tag_40:\n        /* \"#utility.yul\":1642:1648   */\n      0x00\n        /* \"#utility.yul\":1693:1695   */\n      0x1f\n        /* \"#utility.yul\":1689:1696   */\n      not\n        /* \"#utility.yul\":1684:1686   */\n      0x1f\n        /* \"#utility.yul\":1677:1682   */\n      dup4\n        /* \"#utility.yul\":1673:1687   */\n      add\n        /* \"#utility.yul\":1669:1697   */\n      and\n        /* \"#utility.yul\":1659:1697   */\n      swap1\n      pop\n        /* \"#utility.yul\":1601:1703   */\n      swap2\n      swap1\n      pop\n      jump\t// out\n        /* \"#utility.yul\":1709:2086   */\n    tag_41:\n        /* \"#utility.yul\":1797:1800   */\n      0x00\n        /* \"#utility.yul\":1825:1864   */\n      tag_92\n        /* \"#utility.yul\":1858:1863   */\n      dup3\n        /* \"#utility.yul\":1825:1864   */\n      tag_37\n      jump\t// in\n    tag_92:\n        /* \"#utility.yul\":1880:1951   */\n      tag_93\n        /* \"#utility.yul\":1944:1950   */\n      dup2\n        /* \"#utility.yul\":1939:1942   */\n      dup6\n        /* \"#utility.yul\":1880:1951   */\n      tag_38\n      jump\t// in\n    tag_93:\n        /* \"#utility.yul\":1873:1951   */\n      swap4\n      pop\n        /* \"#utility.yul\":1960:2025   */\n      tag_94\n        /* \"#utility.yul\":2018:2024   */\n      dup2\n        /* \"#utility.yul\":2013:2016   */\n      dup6\n        /* \"#utility.yul\":2006:2010   */\n      0x20\n        /* \"#utility.yul\":1999:2004   */\n      dup7\n        /* \"#utility.yul\":1995:2011   */\n      add\n        /* \"#utility.yul\":1960:2025   */\n      tag_39\n      jump\t// in\n    tag_94:\n        /* \"#utility.yul\":2050:2079   */\n      tag_95\n        /* \"#utility.yul\":2072:2078   */\n      dup2\n        /* \"#utility.yul\":2050:2079   */\n      tag_40\n      jump\t// in\n    tag_95:\n        /* \"#utility.yul\":2045:2048   */\n      dup5\n        /* \"#utility.yul\":2041:2080   */\n      add\n        /* \"#utility.yul\":2034:2080   */\n      swap2\n      pop\n        /* \"#utility.yul\":1801:2086   */\n      pop\n        /* \"#utility.yul\":1709:2086   */\n      swap3\n      swap2\n      pop\n      pop\n      jump\t// out\n        /* \"#utility.yul\":2092:2169   */\n    tag_42:\n        /* \"#utility.yul\":2129:2136   */\n      0x00\n        /* \"#utility.yul\":2158:2163   */\n      dup2\n        /* \"#utility.yul\":2147:2163   */\n      swap1\n      pop\n        /* \"#utility.yul\":2092:2169   */\n      swap2\n      swap1\n      pop\n      jump\t// out\n        /* \"#utility.yul\":2175:2293   */\n    tag_43:\n        /* \"#utility.yul\":2262:2286   */\n      tag_98\n        /* \"#utility.yul\":2280:2285   */\n      dup2\n        /* \"#utility.yul\":2262:2286   */\n      tag_42\n      jump\t// in\n    tag_98:\n        /* \"#utility.yul\":2257:2260   */\n      dup3\n        /* \"#utility.yul\":2250:2287   */\n      mstore\n        /* \"#utility.yul\":2175:2293   */\n      pop\n      pop\n      jump\t// out\n        /* \"#utility.yul\":2299:2923   */\n    tag_10:\n        /* \"#utility.yul\":2488:2492   */\n      0x00\n        /* \"#utility.yul\":2526:2528   */\n      0x60\n        /* \"#utility.yul\":2515:2524   */\n      dup3\n        /* \"#utility.yul\":2511:2529   */\n      add\n        /* \"#utility.yul\":2503:2529   */\n      swap1\n      pop\n        /* \"#utility.yul\":2575:2584   */\n      dup2\n        /* \"#utility.yul\":2569:2573   */\n      dup2\n        /* \"#utility.yul\":2565:2585   */\n      sub\n        /* \"#utility.yul\":2561:2562   */\n      0x00\n        /* \"#utility.yul\":2550:2559   */\n      dup4\n        /* \"#utility.yul\":2546:2563   */\n      add\n        /* \"#utility.yul\":2539:2586   */\n      mstore\n        /* \"#utility.yul\":2603:2681   */\n      tag_100\n        /* \"#utility.yul\":2676:2680   */\n      dup2\n        /* \"#utility.yul\":2667:2673   */\n      dup7\n        /* \"#utility.yul\":2603:2681   */\n      tag_41\n      jump\t// in\n    tag_100:\n        /* \"#utility.yul\":2595:2681   */\n      swap1\n      pop\n        /* \"#utility.yul\":2691:2763   */\n      tag_101\n        /* \"#utility.yul\":2759:2761   */\n      0x20\n        /* \"#utility.yul\":2748:2757   */\n      dup4\n        /* \"#utility.yul\":2744:2762   */\n      add\n        /* \"#utility.yul\":2735:2741   */\n      dup6\n        /* \"#utility.yul\":2691:2763   */\n      tag_43\n      jump\t// in\n    tag_101:\n        /* \"#utility.yul\":2810:2819   */\n      dup2\n        /* \"#utility.yul\":2804:2808   */\n      dup2\n        /* \"#utility.yul\":2800:2820   */\n      sub\n        /* \"#utility.yul\":2795:2797   */\n      0x40\n        /* \"#utility.yul\":2784:2793   */\n      dup4\n        /* \"#utility.yul\":2780:2798   */\n      add\n        /* \"#utility.yul\":2773:2821   */\n      mstore\n        /* \"#utility.yul\":2838:2916   */\n      tag_102\n        /* \"#utility.yul\":2911:2915   */\n      dup2\n        /* \"#utility.yul\":2902:2908   */\n      dup5\n        /* \"#utility.yul\":2838:2916   */\n      tag_41\n      jump\t// in\n    tag_102:\n        /* \"#utility.yul\":2830:2916   */\n      swap1\n      pop\n        /* \"#utility.yul\":2299:2923   */\n      swap5\n      swap4\n      pop\n      pop\n      pop\n      pop\n      jump\t// out\n        /* \"#utility.yul\":2929:3046   */\n    tag_44:\n        /* \"#utility.yul\":3038:3039   */\n      0x00\n        /* \"#utility.yul\":3035:3036   */\n      dup1\n        /* \"#utility.yul\":3028:3040   */\n      revert\n        /* \"#utility.yul\":3052:3169   */\n    tag_45:\n        /* \"#utility.yul\":3161:3162   */\n      0x00\n        /* \"#utility.yul\":3158:3159   */\n      dup1\n        /* \"#utility.yul\":3151:3163   */\n      revert\n        /* \"#utility.yul\":3175:3355   */\n    tag_46:\n        /* \"#utility.yul\":3223:3300   */\n      0x4e487b7100000000000000000000000000000000000000000000000000000000\n        /* \"#utility.yul\":3220:3221   */\n      0x00\n        /* \"#utility.yul\":3213:3301   */\n      mstore\n        /* \"#utility.yul\":3320:3324   */\n      0x41\n        /* \"#utility.yul\":3317:3318   */\n      0x04\n        /* \"#utility.yul\":3310:3325   */\n      mstore\n        /* \"#utility.yul\":3344:3348   */\n      0x24\n        /* \"#utility.yul\":3341:3342   */\n      0x00\n        /* \"#utility.yul\":3334:3349   */\n      revert\n        /* \"#utility.yul\":3361:3642   */\n    tag_47:\n        /* \"#utility.yul\":3444:3471   */\n      tag_107\n        /* \"#utility.yul\":3466:3470   */\n      dup3\n        /* \"#utility.yul\":3444:3471   */\n      tag_40\n      jump\t// in\n    tag_107:\n        /* \"#utility.yul\":3436:3442   */\n      dup2\n        /* \"#utility.yul\":3432:3472   */\n      add\n        /* \"#utility.yul\":3574:3580   */\n      dup2\n        /* \"#utility.yul\":3562:3572   */\n      dup2\n        /* \"#utility.yul\":3559:3581   */\n      lt\n        /* \"#utility.yul\":3538:3556   */\n      0xffffffffffffffff\n        /* \"#utility.yul\":3526:3536   */\n      dup3\n        /* \"#utility.yul\":3523:3557   */\n      gt\n        /* \"#utility.yul\":3520:3582   */\n      or\n        /* \"#utility.yul\":3517:3605   */\n      iszero\n      tag_108\n      jumpi\n        /* \"#utility.yul\":3585:3603   */\n      tag_109\n      tag_46\n      jump\t// in\n    tag_109:\n        /* \"#utility.yul\":3517:3605   */\n    tag_108:\n        /* \"#utility.yul\":3625:3635   */\n      dup1\n        /* \"#utility.yul\":3621:3623   */\n      0x40\n        /* \"#utility.yul\":3614:3636   */\n      mstore\n        /* \"#utility.yul\":3404:3642   */\n      pop\n        /* \"#utility.yul\":3361:3642   */\n      pop\n      pop\n      jump\t// out\n        /* \"#utility.yul\":3648:3777   */\n    tag_48:\n        /* \"#utility.yul\":3682:3688   */\n      0x00\n        /* \"#utility.yul\":3709:3729   */\n      tag_111\n      tag_30\n      jump\t// in\n    tag_111:\n        /* \"#utility.yul\":3699:3729   */\n      swap1\n      pop\n        /* \"#utility.yul\":3738:3771   */\n      tag_112\n        /* \"#utility.yul\":3766:3770   */\n      dup3\n        /* \"#utility.yul\":3758:3764   */\n      dup3\n        /* \"#utility.yul\":3738:3771   */\n      tag_47\n      jump\t// in\n    tag_112:\n        /* \"#utility.yul\":3648:3777   */\n      swap2\n      swap1\n      pop\n      jump\t// out\n        /* \"#utility.yul\":3783:4091   */\n    tag_49:\n        /* \"#utility.yul\":3845:3849   */\n      0x00\n        /* \"#utility.yul\":3935:3953   */\n      0xffffffffffffffff\n        /* \"#utility.yul\":3927:3933   */\n      dup3\n        /* \"#utility.yul\":3924:3954   */\n      gt\n        /* \"#utility.yul\":3921:3977   */\n      iszero\n      tag_114\n      jumpi\n        /* \"#utility.yul\":3957:3975   */\n      tag_115\n      tag_46\n      jump\t// in\n    tag_115:\n        /* \"#utility.yul\":3921:3977   */\n    tag_114:\n        /* \"#utility.yul\":3995:4024   */\n      tag_116\n        /* \"#utility.yul\":4017:4023   */\n      dup3\n        /* \"#utility.yul\":3995:4024   */\n      tag_40\n      jump\t// in\n    tag_116:\n        /* \"#utility.yul\":3987:4024   */\n      swap1\n      pop\n        /* \"#utility.yul\":4079:4083   */\n      0x20\n        /* \"#utility.yul\":4073:4077   */\n      dup2\n        /* \"#utility.yul\":4069:4084   */\n      add\n        /* \"#utility.yul\":4061:4084   */\n      swap1\n      pop\n        /* \"#utility.yul\":3783:4091   */\n      swap2\n      swap1\n      pop\n      jump\t// out\n        /* \"#utility.yul\":4097:4245   */\n    tag_50:\n        /* \"#utility.yul\":4195:4201   */\n      dup3\n        /* \"#utility.yul\":4190:4193   */\n      dup2\n        /* \"#utility.yul\":4185:4188   */\n      dup4\n        /* \"#utility.yul\":4172:4202   */\n      calldatacopy\n        /* \"#utility.yul\":4236:4237   */\n      0x00\n        /* \"#utility.yul\":4227:4233   */\n      dup4\n        /* \"#utility.yul\":4222:4225   */\n      dup4\n        /* \"#utility.yul\":4218:4234   */\n      add\n        /* \"#utility.yul\":4211:4238   */\n      mstore\n        /* \"#utility.yul\":4097:4245   */\n      pop\n      pop\n      pop\n      jump\t// out\n        /* \"#utility.yul\":4251:4676   */\n    tag_51:\n        /* \"#utility.yul\":4329:4334   */\n      0x00\n        /* \"#utility.yul\":4354:4420   */\n      tag_119\n        /* \"#utility.yul\":4370:4419   */\n      tag_120\n        /* \"#utility.yul\":4412:4418   */\n      dup5\n        /* \"#utility.yul\":4370:4419   */\n      tag_49\n      jump\t// in\n    tag_120:\n        /* \"#utility.yul\":4354:4420   */\n      tag_48\n      jump\t// in\n    tag_119:\n        /* \"#utility.yul\":4345:4420   */\n      swap1\n      pop\n        /* \"#utility.yul\":4443:4449   */\n      dup3\n        /* \"#utility.yul\":4436:4441   */\n      dup2\n        /* \"#utility.yul\":4429:4450   */\n      mstore\n        /* \"#utility.yul\":4481:4485   */\n      0x20\n        /* \"#utility.yul\":4474:4479   */\n      dup2\n        /* \"#utility.yul\":4470:4486   */\n      add\n        /* \"#utility.yul\":4519:4522   */\n      dup5\n        /* \"#utility.yul\":4510:4516   */\n      dup5\n        /* \"#utility.yul\":4505:4508   */\n      dup5\n        /* \"#utility.yul\":4501:4517   */\n      add\n        /* \"#utility.yul\":4498:4523   */\n      gt\n        /* \"#utility.yul\":4495:4607   */\n      iszero\n      tag_121\n      jumpi\n        /* \"#utility.yul\":4526:4605   */\n      tag_122\n      tag_45\n      jump\t// in\n    tag_122:\n        /* \"#utility.yul\":4495:4607   */\n    tag_121:\n        /* \"#utility.yul\":4616:4670   */\n      tag_123\n        /* \"#utility.yul\":4663:4669   */\n      dup5\n        /* \"#utility.yul\":4658:4661   */\n      dup3\n        /* \"#utility.yul\":4653:4656   */\n      dup6\n        /* \"#utility.yul\":4616:4670   */\n      tag_50\n      jump\t// in\n    tag_123:\n        /* \"#utility.yul\":4335:4676   */\n      pop\n        /* \"#utility.yul\":4251:4676   */\n      swap4\n      swap3\n      pop\n      pop\n      pop\n      jump\t// out\n        /* \"#utility.yul\":4696:5036   */\n    tag_52:\n        /* \"#utility.yul\":4752:4757   */\n      0x00\n        /* \"#utility.yul\":4801:4804   */\n      dup3\n        /* \"#utility.yul\":4794:4798   */\n      0x1f\n        /* \"#utility.yul\":4786:4792   */\n      dup4\n        /* \"#utility.yul\":4782:4799   */\n      add\n        /* \"#utility.yul\":4778:4805   */\n      slt\n        /* \"#utility.yul\":4768:4890   */\n      tag_125\n      jumpi\n        /* \"#utility.yul\":4809:4888   */\n      tag_126\n      tag_44\n      jump\t// in\n    tag_126:\n        /* \"#utility.yul\":4768:4890   */\n    tag_125:\n        /* \"#utility.yul\":4926:4932   */\n      dup2\n        /* \"#utility.yul\":4913:4933   */\n      calldataload\n        /* \"#utility.yul\":4951:5030   */\n      tag_127\n        /* \"#utility.yul\":5026:5029   */\n      dup5\n        /* \"#utility.yul\":5018:5024   */\n      dup3\n        /* \"#utility.yul\":5011:5015   */\n      0x20\n        /* \"#utility.yul\":5003:5009   */\n      dup7\n        /* \"#utility.yul\":4999:5016   */\n      add\n        /* \"#utility.yul\":4951:5030   */\n      tag_51\n      jump\t// in\n    tag_127:\n        /* \"#utility.yul\":4942:5030   */\n      swap2\n      pop\n        /* \"#utility.yul\":4758:5036   */\n      pop\n        /* \"#utility.yul\":4696:5036   */\n      swap3\n      swap2\n      pop\n      pop\n      jump\t// out\n        /* \"#utility.yul\":5042:5164   */\n    tag_53:\n        /* \"#utility.yul\":5115:5139   */\n      tag_129\n        /* \"#utility.yul\":5133:5138   */\n      dup2\n        /* \"#utility.yul\":5115:5139   */\n      tag_42\n      jump\t// in\n    tag_129:\n        /* \"#utility.yul\":5108:5113   */\n      dup2\n        /* \"#utility.yul\":5105:5140   */\n      eq\n        /* \"#utility.yul\":5095:5158   */\n      tag_130\n      jumpi\n        /* \"#utility.yul\":5154:5155   */\n      0x00\n        /* \"#utility.yul\":5151:5152   */\n      dup1\n        /* \"#utility.yul\":5144:5156   */\n      revert\n        /* \"#utility.yul\":5095:5158   */\n    tag_130:\n        /* \"#utility.yul\":5042:5164   */\n      pop\n      jump\t// out\n        /* \"#utility.yul\":5170:5309   */\n    tag_54:\n        /* \"#utility.yul\":5216:5221   */\n      0x00\n        /* \"#utility.yul\":5254:5260   */\n      dup2\n        /* \"#utility.yul\":5241:5261   */\n      calldataload\n        /* \"#utility.yul\":5232:5261   */\n      swap1\n      pop\n        /* \"#utility.yul\":5270:5303   */\n      tag_132\n        /* \"#utility.yul\":5297:5302   */\n      dup2\n        /* \"#utility.yul\":5270:5303   */\n      tag_53\n      jump\t// in\n    tag_132:\n        /* \"#utility.yul\":5170:5309   */\n      swap3\n      swap2\n      pop\n      pop\n      jump\t// out\n        /* \"#utility.yul\":5315:6294   */\n    tag_13:\n        /* \"#utility.yul\":5412:5418   */\n      0x00\n        /* \"#utility.yul\":5420:5426   */\n      dup1\n        /* \"#utility.yul\":5428:5434   */\n      0x00\n        /* \"#utility.yul\":5477:5479   */\n      0x60\n        /* \"#utility.yul\":5465:5474   */\n      dup5\n        /* \"#utility.yul\":5456:5463   */\n      dup7\n        /* \"#utility.yul\":5452:5475   */\n      sub\n        /* \"#utility.yul\":5448:5480   */\n      slt\n        /* \"#utility.yul\":5445:5564   */\n      iszero\n      tag_134\n      jumpi\n        /* \"#utility.yul\":5483:5562   */\n      tag_135\n      tag_31\n      jump\t// in\n    tag_135:\n        /* \"#utility.yul\":5445:5564   */\n    tag_134:\n        /* \"#utility.yul\":5631:5632   */\n      0x00\n        /* \"#utility.yul\":5620:5629   */\n      dup5\n        /* \"#utility.yul\":5616:5633   */\n      add\n        /* \"#utility.yul\":5603:5634   */\n      calldataload\n        /* \"#utility.yul\":5661:5679   */\n      0xffffffffffffffff\n        /* \"#utility.yul\":5653:5659   */\n      dup2\n        /* \"#utility.yul\":5650:5680   */\n      gt\n        /* \"#utility.yul\":5647:5764   */\n      iszero\n      tag_136\n      jumpi\n        /* \"#utility.yul\":5683:5762   */\n      tag_137\n      tag_32\n      jump\t// in\n    tag_137:\n        /* \"#utility.yul\":5647:5764   */\n    tag_136:\n        /* \"#utility.yul\":5788:5851   */\n      tag_138\n        /* \"#utility.yul\":5843:5850   */\n      dup7\n        /* \"#utility.yul\":5834:5840   */\n      dup3\n        /* \"#utility.yul\":5823:5832   */\n      dup8\n        /* \"#utility.yul\":5819:5841   */\n      add\n        /* \"#utility.yul\":5788:5851   */\n      tag_52\n      jump\t// in\n    tag_138:\n        /* \"#utility.yul\":5778:5851   */\n      swap4\n      pop\n        /* \"#utility.yul\":5574:5861   */\n      pop\n        /* \"#utility.yul\":5900:5902   */\n      0x20\n        /* \"#utility.yul\":5926:5979   */\n      tag_139\n        /* \"#utility.yul\":5971:5978   */\n      dup7\n        /* \"#utility.yul\":5962:5968   */\n      dup3\n        /* \"#utility.yul\":5951:5960   */\n      dup8\n        /* \"#utility.yul\":5947:5969   */\n      add\n        /* \"#utility.yul\":5926:5979   */\n      tag_54\n      jump\t// in\n    tag_139:\n        /* \"#utility.yul\":5916:5979   */\n      swap3\n      pop\n        /* \"#utility.yul\":5871:5989   */\n      pop\n        /* \"#utility.yul\":6056:6058   */\n      0x40\n        /* \"#utility.yul\":6045:6054   */\n      dup5\n        /* \"#utility.yul\":6041:6059   */\n      add\n        /* \"#utility.yul\":6028:6060   */\n      calldataload\n        /* \"#utility.yul\":6087:6105   */\n      0xffffffffffffffff\n        /* \"#utility.yul\":6079:6085   */\n      dup2\n        /* \"#utility.yul\":6076:6106   */\n      gt\n        /* \"#utility.yul\":6073:6190   */\n      iszero\n      tag_140\n      jumpi\n        /* \"#utility.yul\":6109:6188   */\n      tag_141\n      tag_32\n      jump\t// in\n    tag_141:\n        /* \"#utility.yul\":6073:6190   */\n    tag_140:\n        /* \"#utility.yul\":6214:6277   */\n      tag_142\n        /* \"#utility.yul\":6269:6276   */\n      dup7\n        /* \"#utility.yul\":6260:6266   */\n      dup3\n        /* \"#utility.yul\":6249:6258   */\n      dup8\n        /* \"#utility.yul\":6245:6267   */\n      add\n        /* \"#utility.yul\":6214:6277   */\n      tag_52\n      jump\t// in\n    tag_142:\n        /* \"#utility.yul\":6204:6277   */\n      swap2\n      pop\n        /* \"#utility.yul\":5999:6287   */\n      pop\n        /* \"#utility.yul\":5315:6294   */\n      swap3\n      pop\n      swap3\n      pop\n      swap3\n      jump\t// out\n        /* \"#utility.yul\":6300:6480   */\n    tag_55:\n        /* \"#utility.yul\":6348:6425   */\n      0x4e487b7100000000000000000000000000000000000000000000000000000000\n        /* \"#utility.yul\":6345:6346   */\n      0x00\n        /* \"#utility.yul\":6338:6426   */\n      mstore\n        /* \"#utility.yul\":6445:6449   */\n      0x22\n        /* \"#utility.yul\":6442:6443   */\n      0x04\n        /* \"#utility.yul\":6435:6450   */\n      mstore\n        /* \"#utility.yul\":6469:6473   */\n      0x24\n        /* \"#utility.yul\":6466:6467   */\n      0x00\n        /* \"#utility.yul\":6459:6474   */\n      revert\n        /* \"#utility.yul\":6486:6806   */\n    tag_16:\n        /* \"#utility.yul\":6530:6536   */\n      0x00\n        /* \"#utility.yul\":6567:6568   */\n      0x02\n        /* \"#utility.yul\":6561:6565   */\n      dup3\n        /* \"#utility.yul\":6557:6569   */\n      div\n        /* \"#utility.yul\":6547:6569   */\n      swap1\n      pop\n        /* \"#utility.yul\":6614:6615   */\n      0x01\n        /* \"#utility.yul\":6608:6612   */\n      dup3\n        /* \"#utility.yul\":6604:6616   */\n      and\n        /* \"#utility.yul\":6635:6653   */\n      dup1\n        /* \"#utility.yul\":6625:6706   */\n      tag_145\n      jumpi\n        /* \"#utility.yul\":6691:6695   */\n      0x7f\n        /* \"#utility.yul\":6683:6689   */\n      dup3\n        /* \"#utility.yul\":6679:6696   */\n      and\n        /* \"#utility.yul\":6669:6696   */\n      swap2\n      pop\n        /* \"#utility.yul\":6625:6706   */\n    tag_145:\n        /* \"#utility.yul\":6753:6755   */\n      0x20\n        /* \"#utility.yul\":6745:6751   */\n      dup3\n        /* \"#utility.yul\":6742:6756   */\n      lt\n        /* \"#utility.yul\":6722:6740   */\n      dup2\n        /* \"#utility.yul\":6719:6757   */\n      sub\n        /* \"#utility.yul\":6716:6800   */\n      tag_146\n      jumpi\n        /* \"#utility.yul\":6772:6790   */\n      tag_147\n      tag_55\n      jump\t// in\n    tag_147:\n        /* \"#utility.yul\":6716:6800   */\n    tag_146:\n        /* \"#utility.yul\":6537:6806   */\n      pop\n        /* \"#utility.yul\":6486:6806   */\n      swap2\n      swap1\n      pop\n      jump\t// out\n        /* \"#utility.yul\":6812:6953   */\n    tag_56:\n        /* \"#utility.yul\":6861:6865   */\n      0x00\n        /* \"#utility.yul\":6884:6887   */\n      dup2\n        /* \"#utility.yul\":6876:6887   */\n      swap1\n      pop\n        /* \"#utility.yul\":6907:6910   */\n      dup2\n        /* \"#utility.yul\":6904:6905   */\n      0x00\n        /* \"#utility.yul\":6897:6911   */\n      mstore\n        /* \"#utility.yul\":6941:6945   */\n      0x20\n        /* \"#utility.yul\":6938:6939   */\n      0x00\n        /* \"#utility.yul\":6928:6946   */\n      keccak256\n        /* \"#utility.yul\":6920:6946   */\n      swap1\n      pop\n        /* \"#utility.yul\":6812:6953   */\n      swap2\n      swap1\n      pop\n      jump\t// out\n        /* \"#utility.yul\":6959:7052   */\n    tag_57:\n        /* \"#utility.yul\":6996:7002   */\n      0x00\n        /* \"#utility.yul\":7043:7045   */\n      0x20\n        /* \"#utility.yul\":7038:7040   */\n      0x1f\n        /* \"#utility.yul\":7031:7036   */\n      dup4\n        /* \"#utility.yul\":7027:7041   */\n      add\n        /* \"#utility.yul\":7023:7046   */\n      div\n        /* \"#utility.yul\":7013:7046   */\n      swap1\n      pop\n        /* \"#utility.yul\":6959:7052   */\n      swap2\n      swap1\n      pop\n      jump\t// out\n        /* \"#utility.yul\":7058:7165   */\n    tag_58:\n        /* \"#utility.yul\":7102:7110   */\n      0x00\n        /* \"#utility.yul\":7152:7157   */\n      dup3\n        /* \"#utility.yul\":7146:7150   */\n      dup3\n        /* \"#utility.yul\":7142:7158   */\n      shl\n        /* \"#utility.yul\":7121:7158   */\n      swap1\n      pop\n        /* \"#utility.yul\":7058:7165   */\n      swap3\n      swap2\n      pop\n      pop\n      jump\t// out\n        /* \"#utility.yul\":7171:7564   */\n    tag_59:\n        /* \"#utility.yul\":7240:7246   */\n      0x00\n        /* \"#utility.yul\":7290:7291   */\n      0x08\n        /* \"#utility.yul\":7278:7288   */\n      dup4\n        /* \"#utility.yul\":7274:7292   */\n      mul\n        /* \"#utility.yul\":7313:7410   */\n      tag_152\n        /* \"#utility.yul\":7343:7409   */\n      0xffffffffffffffffffffffffffffffffffffffffffffffffffffffffffffffff\n        /* \"#utility.yul\":7332:7341   */\n      dup3\n        /* \"#utility.yul\":7313:7410   */\n      tag_58\n      jump\t// in\n    tag_152:\n        /* \"#utility.yul\":7431:7470   */\n      tag_153\n        /* \"#utility.yul\":7461:7469   */\n      dup7\n        /* \"#utility.yul\":7450:7459   */\n      dup4\n        /* \"#utility.yul\":7431:7470   */\n      tag_58\n      jump\t// in\n    tag_153:\n        /* \"#utility.yul\":7419:7470   */\n      swap6\n      pop\n        /* \"#utility.yul\":7503:7507   */\n      dup1\n        /* \"#utility.yul\":7499:7508   */\n      not\n        /* \"#utility.yul\":7492:7497   */\n      dup5\n        /* \"#utility.yul\":7488:7509   */\n      and\n        /* \"#utility.yul\":7479:7509   */\n      swap4\n      pop\n        /* \"#utility.yul\":7552:7556   */\n      dup1\n        /* \"#utility.yul\":7542:7550   */\n      dup7\n        /* \"#utility.yul\":7538:7557   */\n      and\n        /* \"#utility.yul\":7531:7536   */\n      dup5\n        /* \"#utility.yul\":7528:7558   */\n      or\n        /* \"#utility.yul\":7518:7558   */\n      swap3\n      pop\n        /* \"#utility.yul\":7247:7564   */\n      pop\n      pop\n        /* \"#utility.yul\":7171:7564   */\n      swap4\n      swap3\n      pop\n      pop\n      pop\n      jump\t// out\n        /* \"#utility.yul\":7570:7630   */\n    tag_60:\n        /* \"#utility.yul\":7598:7601   */\n      0x00\n        /* \"#utility.yul\":7619:7624   */\n      dup2\n        /* \"#utility.yul\":7612:7624   */\n      swap1\n      pop\n        /* \"#utility.yul\":7570:7630   */\n      swap2\n      swap1\n      pop\n      jump\t// out\n        /* \"#utility.yul\":7636:7778   */\n    tag_61:\n        /* \"#utility.yul\":7686:7695   */\n      0x00\n        /* \"#utility.yul\":7719:7772   */\n      tag_156\n        /* \"#utility.yul\":7737:7771   */\n      tag_157\n        /* \"#utility.yul\":7746:7770   */\n      tag_158\n        /* \"#utility.yul\":7764:7769   */\n      dup5\n        /* \"#utility.yul\":7746:7770   */\n      tag_42\n      jump\t// in\n    tag_158:\n        /* \"#utility.yul\":7737:7771   */\n      tag_60\n      jump\t// in\n    tag_157:\n        /* \"#utility.yul\":7719:7772   */\n      tag_42\n      jump\t// in\n    tag_156:\n        /* \"#utility.yul\":7706:7772   */\n      swap1\n      pop\n        /* \"#utility.yul\":7636:7778   */\n      swap2\n      swap1\n      pop\n      jump\t// out\n        /* \"#utility.yul\":7784:7859   */\n    tag_62:\n        /* \"#utility.yul\":7827:7830   */\n      0x00\n        /* \"#utility.yul\":7848:7853   */\n      dup2\n        /* \"#utility.yul\":7841:7853   */\n      swap1\n      pop\n        /* \"#utility.yul\":7784:7859   */\n      swap2\n      swap1\n      pop\n      jump\t// out\n        /* \"#utility.yul\":7865:8134   */\n    tag_63:\n        /* \"#utility.yul\":7975:8014   */\n      tag_161\n        /* \"#utility.yul\":8006:8013   */\n      dup4\n        /* \"#utility.yul\":7975:8014   */\n      tag_61\n      jump\t// in\n    tag_161:\n        /* \"#utility.yul\":8036:8127   */\n      tag_162\n        /* \"#utility.yul\":8085:8126   */\n      tag_163\n        /* \"#utility.yul\":8109:8125   */\n      dup3\n        /* \"#utility.yul\":8085:8126   */\n      tag_62\n      jump\t// in\n    tag_163:\n        /* \"#utility.yul\":8077:8083   */\n      dup5\n        /* \"#utility.yul\":8070:8074   */\n      dup5\n        /* \"#utility.yul\":8064:8075   */\n      sload\n        /* \"#utility.yul\":8036:8127   */\n      tag_59\n      jump\t// in\n    tag_162:\n        /* \"#utility.yul\":8030:8034   */\n      dup3\n        /* \"#utility.yul\":8023:8128   */\n      sstore\n        /* \"#utility.yul\":7941:8134   */\n      pop\n        /* \"#utility.yul\":7865:8134   */\n      pop\n      pop\n      pop\n      jump\t// out\n        /* \"#utility.yul\":8140:8213   */\n    tag_64:\n        /* \"#utility.yul\":8185:8188   */\n      0x00\n        /* \"#utility.yul\":8140:8213   */\n      swap1\n      jump\t// out\n        /* \"#utility.yul\":8219:8408   */\n    tag_65:\n        /* \"#utility.yul\":8296:8328   */\n      tag_166\n      tag_64\n      jump\t// in\n    tag_166:\n        /* \"#utility.yul\":8337:8402   */\n      tag_167\n        /* \"#utility.yul\":8395:8401   */\n      dup2\n        /* \"#utility.yul\":8387:8393   */\n      dup5\n        /* \"#utility.yul\":8381:8385   */\n      dup5\n        /* \"#utility.yul\":8337:8402   */\n      tag_63\n      jump\t// in\n    tag_167:\n        /* \"#utility.yul\":8272:8408   */\n      pop\n        /* \"#utility.yul\":8219:8408   */\n      pop\n      pop\n      jump\t// out\n        /* \"#utility.yul\":8414:8600   */\n    tag_66:\n        /* \"#utility.yul\":8474:8594   */\n    tag_169:\n        /* \"#utility.yul\":8491:8494   */\n      dup2\n        /* \"#utility.yul\":8484:8489   */\n      dup2\n        /* \"#utility.yul\":8481:8495   */\n      lt\n        /* \"#utility.yul\":8474:8594   */\n      iszero\n      tag_171\n      jumpi\n        /* \"#utility.yul\":8545:8584   */\n      tag_172\n        /* \"#utility.yul\":8582:8583   */\n      0x00\n        /* \"#utility.yul\":8575:8580   */\n      dup3\n        /* \"#utility.yul\":8545:8584   */\n      tag_65\n      jump\t// in\n    tag_172:\n        /* \"#utility.yul\":8518:8519   */\n      0x01\n        /* \"#utility.yul\":8511:8516   */\n      dup2\n        /* \"#utility.yul\":8507:8520   */\n      add\n        /* \"#utility.yul\":8498:8520   */\n      swap1\n      pop\n        /* \"#utility.yul\":8474:8594   */\n      jump(tag_169)\n    tag_171:\n        /* \"#utility.yul\":8414:8600   */\n      pop\n      pop\n      jump\t// out\n        /* \"#utility.yul\":8606:9149   */\n    tag_67:\n        /* \"#utility.yul\":8707:8709   */\n      0x1f\n        /* \"#utility.yul\":8702:8705   */\n      dup3\n        /* \"#utility.yul\":8699:8710   */\n      gt\n        /* \"#utility.yul\":8696:9142   */\n      iszero\n      tag_174\n      jumpi\n        /* \"#utility.yul\":8741:8779   */\n      tag_175\n        /* \"#utility.yul\":8773:8778   */\n      dup2\n        /* \"#utility.yul\":8741:8779   */\n      tag_56\n      jump\t// in\n    tag_175:\n        /* \"#utility.yul\":8825:8854   */\n      tag_176\n        /* \"#utility.yul\":8843:8853   */\n      dup5\n        /* \"#utility.yul\":8825:8854   */\n      tag_57\n      jump\t// in\n    tag_176:\n        /* \"#utility.yul\":8815:8823   */\n      dup2\n        /* \"#utility.yul\":8811:8855   */\n      add\n        /* \"#utility.yul\":9008:9010   */\n      0x20\n        /* \"#utility.yul\":8996:9006   */\n      dup6\n        /* \"#utility.yul\":8993:9011   */\n      lt\n        /* \"#utility.yul\":8990:9039   */\n      iszero\n      tag_177\n      jumpi\n        /* \"#utility.yul\":9029:9037   */\n      dup2\n        /* \"#utility.yul\":9014:9037   */\n      swap1\n      pop\n        /* \"#utility.yul\":8990:9039   */\n    tag_177:\n        /* \"#utility.yul\":9052:9132   */\n      tag_178\n        /* \"#utility.yul\":9108:9130   */\n      tag_179\n        /* \"#utility.yul\":9126:9129   */\n      dup6\n        /* \"#utility.yul\":9108:9130   */\n      tag_57\n      jump\t// in\n    tag_179:\n        /* \"#utility.yul\":9098:9106   */\n      dup4\n        /* \"#utility.yul\":9094:9131   */\n      add\n        /* \"#utility.yul\":9081:9092   */\n      dup3\n        /* \"#utility.yul\":9052:9132   */\n      tag_66\n      jump\t// in\n    tag_178:\n        /* \"#utility.yul\":8711:9142   */\n      pop\n      pop\n        /* \"#utility.yul\":8696:9142   */\n    tag_174:\n        /* \"#utility.yul\":8606:9149   */\n      pop\n      pop\n      pop\n      jump\t// out\n        /* \"#utility.yul\":9155:9272   */\n    tag_68:\n        /* \"#utility.yul\":9209:9217   */\n      0x00\n        /* \"#utility.yul\":9259:9264   */\n      dup3\n        /* \"#utility.yul\":9253:9257   */\n      dup3\n        /* \"#utility.yul\":9249:9265   */\n      shr\n        /* \"#utility.yul\":9228:9265   */\n      swap1\n      pop\n        /* \"#utility.yul\":9155:9272   */\n      swap3\n      swap2\n      pop\n      pop\n      jump\t// out\n        /* \"#utility.yul\":9278:9447   */\n    tag_69:\n        /* \"#utility.yul\":9322:9328   */\n      0x00\n        /* \"#utility.yul\":9355:9406   */\n      tag_182\n        /* \"#utility.yul\":9403:9404   */\n      0x00\n        /* \"#utility.yul\":9399:9405   */\n      not\n        /* \"#utility.yul\":9391:9396   */\n      dup5\n        /* \"#utility.yul\":9388:9389   */\n      0x08\n        /* \"#utility.yul\":9384:9397   */\n      mul\n        /* \"#utility.yul\":9355:9406   */\n      tag_68\n      jump\t// in\n    tag_182:\n        /* \"#utility.yul\":9351:9407   */\n      not\n        /* \"#utility.yul\":9436:9440   */\n      dup1\n        /* \"#utility.yul\":9430:9434   */\n      dup4\n        /* \"#utility.yul\":9426:9441   */\n      and\n        /* \"#utility.yul\":9416:9441   */\n      swap2\n      pop\n        /* \"#utility.yul\":9329:9447   */\n      pop\n        /* \"#utility.yul\":9278:9447   */\n      swap3\n      swap2\n      pop\n      pop\n      jump\t// out\n        /* \"#utility.yul\":9452:9747   */\n    tag_70:\n        /* \"#utility.yul\":9528:9532   */\n      0x00\n        /* \"#utility.yul\":9674:9703   */\n      tag_184\n        /* \"#utility.yul\":9699:9702   */\n      dup4\n        /* \"#utility.yul\":9693:9697   */\n      dup4\n        /* \"#utility.yul\":9674:9703   */\n      tag_69\n      jump\t// in\n    tag_184:\n        /* \"#utility.yul\":9666:9703   */\n      swap2\n      pop\n        /* \"#utility.yul\":9736:9739   */\n      dup3\n        /* \"#utility.yul\":9733:9734   */\n      0x02\n        /* \"#utility.yul\":9729:9740   */\n      mul\n        /* \"#utility.yul\":9723:9727   */\n      dup3\n        /* \"#utility.yul\":9720:9741   */\n      or\n        /* \"#utility.yul\":9712:9741   */\n      swap1\n      pop\n        /* \"#utility.yul\":9452:9747   */\n      swap3\n      swap2\n      pop\n      pop\n      jump\t// out\n        /* \"#utility.yul\":9752:11147   */\n    tag_28:\n        /* \"#utility.yul\":9869:9906   */\n      tag_186\n        /* \"#utility.yul\":9902:9905   */\n      dup3\n        /* \"#utility.yul\":9869:9906   */\n      tag_37\n      jump\t// in\n    tag_186:\n        /* \"#utility.yul\":9971:9989   */\n      0xffffffffffffffff\n        /* \"#utility.yul\":9963:9969   */\n      dup2\n        /* \"#utility.yul\":9960:9990   */\n      gt\n        /* \"#utility.yul\":9957:10013   */\n      iszero\n      tag_187\n      jumpi\n        /* \"#utility.yul\":9993:10011   */\n      tag_188\n      tag_46\n      jump\t// in\n    tag_188:\n        /* \"#utility.yul\":9957:10013   */\n    tag_187:\n        /* \"#utility.yul\":10037:10075   */\n      tag_189\n        /* \"#utility.yul\":10069:10073   */\n      dup3\n        /* \"#utility.yul\":10063:10074   */\n      sload\n        /* \"#utility.yul\":10037:10075   */\n      tag_16\n      jump\t// in\n    tag_189:\n        /* \"#utility.yul\":10122:10189   */\n      tag_190\n        /* \"#utility.yul\":10182:10188   */\n      dup3\n        /* \"#utility.yul\":10174:10180   */\n      dup3\n        /* \"#utility.yul\":10168:10172   */\n      dup6\n        /* \"#utility.yul\":10122:10189   */\n      tag_67\n      jump\t// in\n    tag_190:\n        /* \"#utility.yul\":10216:10217   */\n      0x00\n        /* \"#utility.yul\":10240:10244   */\n      0x20\n        /* \"#utility.yul\":10227:10244   */\n      swap1\n      pop\n        /* \"#utility.yul\":10272:10274   */\n      0x1f\n        /* \"#utility.yul\":10264:10270   */\n      dup4\n        /* \"#utility.yul\":10261:10275   */\n      gt\n        /* \"#utility.yul\":10289:10290   */\n      0x01\n        /* \"#utility.yul\":10284:10902   */\n      dup2\n      eq\n      tag_192\n      jumpi\n        /* \"#utility.yul\":10946:10947   */\n      0x00\n        /* \"#utility.yul\":10963:10969   */\n      dup5\n        /* \"#utility.yul\":10960:11037   */\n      iszero\n      tag_193\n      jumpi\n        /* \"#utility.yul\":11012:11021   */\n      dup3\n        /* \"#utility.yul\":11007:11010   */\n      dup8\n        /* \"#utility.yul\":11003:11022   */\n      add\n        /* \"#utility.yul\":10997:11023   */\n      mload\n        /* \"#utility.yul\":10988:11023   */\n      swap1\n      pop\n        /* \"#utility.yul\":10960:11037   */\n    tag_193:\n        /* \"#utility.yul\":11063:11130   */\n      tag_194\n        /* \"#utility.yul\":11123:11129   */\n      dup6\n        /* \"#utility.yul\":11116:11121   */\n      dup3\n        /* \"#utility.yul\":11063:11130   */\n      tag_70\n      jump\t// in\n    tag_194:\n        /* \"#utility.yul\":11057:11061   */\n      dup7\n        /* \"#utility.yul\":11050:11131   */\n      sstore\n        /* \"#utility.yul\":10919:11141   */\n      pop\n        /* \"#utility.yul\":10254:11141   */\n      jump(tag_191)\n        /* \"#utility.yul\":10284:10902   */\n    tag_192:\n        /* \"#utility.yul\":10336:10340   */\n      0x1f\n        /* \"#utility.yul\":10332:10341   */\n      not\n        /* \"#utility.yul\":10324:10330   */\n      dup5\n        /* \"#utility.yul\":10320:10342   */\n      and\n        /* \"#utility.yul\":10370:10407   */\n      tag_195\n        /* \"#utility.yul\":10402:10406   */\n      dup7\n        /* \"#utility.yul\":10370:10407   */\n      tag_56\n      jump\t// in\n    tag_195:\n        /* \"#utility.yul\":10429:10430   */\n      0x00\n        /* \"#utility.yul\":10443:10651   */\n    tag_196:\n        /* \"#utility.yul\":10457:10464   */\n      dup3\n        /* \"#utility.yul\":10454:10455   */\n      dup2\n        /* \"#utility.yul\":10451:10465   */\n      lt\n        /* \"#utility.yul\":10443:10651   */\n      iszero\n      tag_198\n      jumpi\n        /* \"#utility.yul\":10536:10545   */\n      dup5\n        /* \"#utility.yul\":10531:10534   */\n      dup10\n        /* \"#utility.yul\":10527:10546   */\n      add\n        /* \"#utility.yul\":10521:10547   */\n      mload\n        /* \"#utility.yul\":10513:10519   */\n      dup3\n        /* \"#utility.yul\":10506:10548   */\n      sstore\n        /* \"#utility.yul\":10587:10588   */\n      0x01\n        /* \"#utility.yul\":10579:10585   */\n      dup3\n        /* \"#utility.yul\":10575:10589   */\n      add\n        /* \"#utility.yul\":10565:10589   */\n      swap2\n      pop\n        /* \"#utility.yul\":10634:10636   */\n      0x20\n        /* \"#utility.yul\":10623:10632   */\n      dup6\n        /* \"#utility.yul\":10619:10637   */\n      add\n        /* \"#utility.yul\":10606:10637   */\n      swap5\n      pop\n        /* \"#utility.yul\":10480:10484   */\n      0x20\n        /* \"#utility.yul\":10477:10478   */\n      dup2\n        /* \"#utility.yul\":10473:10485   */\n      add\n        /* \"#utility.yul\":10468:10485   */\n      swap1\n      pop\n        /* \"#utility.yul\":10443:10651   */\n      jump(tag_196)\n    tag_198:\n        /* \"#utility.yul\":10679:10685   */\n      dup7\n        /* \"#utility.yul\":10670:10677   */\n      dup4\n        /* \"#utility.yul\":10667:10686   */\n      lt\n        /* \"#utility.yul\":10664:10843   */\n      iszero\n      tag_199\n      jumpi\n        /* \"#utility.yul\":10737:10746   */\n      dup5\n        /* \"#utility.yul\":10732:10735   */\n      dup10\n        /* \"#utility.yul\":10728:10747   */\n      add\n        /* \"#utility.yul\":10722:10748   */\n      mload\n        /* \"#utility.yul\":10780:10828   */\n      tag_200\n        /* \"#utility.yul\":10822:10826   */\n      0x1f\n        /* \"#utility.yul\":10814:10820   */\n      dup10\n        /* \"#utility.yul\":10810:10827   */\n      and\n        /* \"#utility.yul\":10799:10808   */\n      dup3\n        /* \"#utility.yul\":10780:10828   */\n      tag_69\n      jump\t// in\n    tag_200:\n        /* \"#utility.yul\":10772:10778   */\n      dup4\n        /* \"#utility.yul\":10765:10829   */\n      sstore\n        /* \"#utility.yul\":10687:10843   */\n      pop\n        /* \"#utility.yul\":10664:10843   */\n    tag_199:\n        /* \"#utility.yul\":10889:10890   */\n      0x01\n        /* \"#utility.yul\":10885:10886   */\n      0x02\n        /* \"#utility.yul\":10877:10883   */\n      dup9\n        /* \"#utility.yul\":10873:10887   */\n      mul\n        /* \"#utility.yul\":10869:10891   */\n      add\n        /* \"#utility.yul\":10863:10867   */\n      dup9\n        /* \"#utility.yul\":10856:10892   */\n      sstore\n        /* \"#utility.yul\":10291:10902   */\n      pop\n      pop\n      pop\n        /* \"#utility.yul\":10254:11141   */\n    tag_191:\n      pop\n        /* \"#utility.yul\":9844:11147   */\n      pop\n      pop\n      pop\n        /* \"#utility.yul\":9752:11147   */\n      pop\n      pop\n      jump\t// out\n\n    auxdata: 0xa2646970667358221220322a02026f367a2ee7f38a5ed31e40b6b6d097eea987fa39ed152c5f746c58bd64736f6c634300081a0033\n}\n",
				"bytecode": {
					"linkReferences": {},
					"object": "6080604052348015600e575f80fd5b506108888061001c5f395ff3fe608060405234801561000f575f80fd5b5060043610610034575f3560e01c806324a92f9f146100385780633eea7bbf1461006a575b5f80fd5b610052600480360381019061004d91906102b5565b610086565b60405161006193929190610368565b60405180910390f35b610084600480360381019061007f9190610501565b6101b7565b005b5f602052805f5260405f205f91509050805f0180546100a4906105b6565b80601f01602080910402602001604051908101604052809291908181526020018280546100d0906105b6565b801561011b5780601f106100f25761010080835404028352916020019161011b565b820191905f5260205f20905b8154815290600101906020018083116100fe57829003601f168201915b505050505090806001015490806002018054610136906105b6565b80601f0160208091040260200160405190810160405280929190818152602001828054610162906105b6565b80156101ad5780601f10610184576101008083540402835291602001916101ad565b820191905f5260205f20905b81548152906001019060200180831161019057829003601f168201915b5050505050905083565b6040518060600160405280848152602001838152602001828152505f803373ffffffffffffffffffffffffffffffffffffffff1673ffffffffffffffffffffffffffffffffffffffff1681526020019081526020015f205f820151815f0190816102219190610783565b506020820151816001015560408201518160020190816102419190610783565b50905050505050565b5f604051905090565b5f80fd5b5f80fd5b5f73ffffffffffffffffffffffffffffffffffffffff82169050919050565b5f6102848261025b565b9050919050565b6102948161027a565b811461029e575f80fd5b50565b5f813590506102af8161028b565b92915050565b5f602082840312156102ca576102c9610253565b5b5f6102d7848285016102a1565b91505092915050565b5f81519050919050565b5f82825260208201905092915050565b8281835e5f83830152505050565b5f601f19601f8301169050919050565b5f610322826102e0565b61032c81856102ea565b935061033c8185602086016102fa565b61034581610308565b840191505092915050565b5f819050919050565b61036281610350565b82525050565b5f6060820190508181035f8301526103808186610318565b905061038f6020830185610359565b81810360408301526103a18184610318565b9050949350505050565b5f80fd5b5f80fd5b7f4e487b71000000000000000000000000000000000000000000000000000000005f52604160045260245ffd5b6103e982610308565b810181811067ffffffffffffffff82111715610408576104076103b3565b5b80604052505050565b5f61041a61024a565b905061042682826103e0565b919050565b5f67ffffffffffffffff821115610445576104446103b3565b5b61044e82610308565b9050602081019050919050565b828183375f83830152505050565b5f61047b6104768461042b565b610411565b905082815260208101848484011115610497576104966103af565b5b6104a284828561045b565b509392505050565b5f82601f8301126104be576104bd6103ab565b5b81356104ce848260208601610469565b91505092915050565b6104e081610350565b81146104ea575f80fd5b50565b5f813590506104fb816104d7565b92915050565b5f805f6060848603121561051857610517610253565b5b5f84013567ffffffffffffffff81111561053557610534610257565b5b610541868287016104aa565b9350506020610552868287016104ed565b925050604084013567ffffffffffffffff81111561057357610572610257565b5b61057f868287016104aa565b9150509250925092565b7f4e487b71000000000000000000000000000000000000000000000000000000005f52602260045260245ffd5b5f60028204905060018216806105cd57607f821691505b6020821081036105e0576105df610589565b5b50919050565b5f819050815f5260205f209050919050565b5f6020601f8301049050919050565b5f82821b905092915050565b5f600883026106427fffffffffffffffffffffffffffffffffffffffffffffffffffffffffffffffff82610607565b61064c8683610607565b95508019841693508086168417925050509392505050565b5f819050919050565b5f61068761068261067d84610350565b610664565b610350565b9050919050565b5f819050919050565b6106a08361066d565b6106b46106ac8261068e565b848454610613565b825550505050565b5f90565b6106c86106bc565b6106d3818484610697565b505050565b5b818110156106f6576106eb5f826106c0565b6001810190506106d9565b5050565b601f82111561073b5761070c816105e6565b610715846105f8565b81016020851015610724578190505b610738610730856105f8565b8301826106d8565b50505b505050565b5f82821c905092915050565b5f61075b5f1984600802610740565b1980831691505092915050565b5f610773838361074c565b9150826002028217905092915050565b61078c826102e0565b67ffffffffffffffff8111156107a5576107a46103b3565b5b6107af82546105b6565b6107ba8282856106fa565b5f60209050601f8311600181146107eb575f84156107d9578287015190505b6107e38582610768565b86555061084a565b601f1984166107f9866105e6565b5f5b82811015610820578489015182556001820191506020850194506020810190506107fb565b8683101561083d5784890151610839601f89168261074c565b8355505b6001600288020188555050505b50505050505056fea2646970667358221220322a02026f367a2ee7f38a5ed31e40b6b6d097eea987fa39ed152c5f746c58bd64736f6c634300081a0033",
					"opcodes": "PUSH1 0x80 PUSH1 0x40 MSTORE CALLVALUE DUP1 ISZERO PUSH1 0xE JUMPI PUSH0 DUP1 REVERT JUMPDEST POP PUSH2 0x888 DUP1 PUSH2 0x1C PUSH0 CODECOPY PUSH0 RETURN INVALID PUSH1 0x80 PUSH1 0x40 MSTORE CALLVALUE DUP1 ISZERO PUSH2 0xF JUMPI PUSH0 DUP1 REVERT JUMPDEST POP PUSH1 0x4 CALLDATASIZE LT PUSH2 0x34 JUMPI PUSH0 CALLDATALOAD PUSH1 0xE0 SHR DUP1 PUSH4 0x24A92F9F EQ PUSH2 0x38 JUMPI DUP1 PUSH4 0x3EEA7BBF EQ PUSH2 0x6A JUMPI JUMPDEST PUSH0 DUP1 REVERT JUMPDEST PUSH2 0x52 PUSH1 0x4 DUP1 CALLDATASIZE SUB DUP2 ADD SWAP1 PUSH2 0x4D SWAP2 SWAP1 PUSH2 0x2B5 JUMP JUMPDEST PUSH2 0x86 JUMP JUMPDEST PUSH1 0x40 MLOAD PUSH2 0x61 SWAP4 SWAP3 SWAP2 SWAP1 PUSH2 0x368 JUMP JUMPDEST PUSH1 0x40 MLOAD DUP1 SWAP2 SUB SWAP1 RETURN JUMPDEST PUSH2 0x84 PUSH1 0x4 DUP1 CALLDATASIZE SUB DUP2 ADD SWAP1 PUSH2 0x7F SWAP2 SWAP1 PUSH2 0x501 JUMP JUMPDEST PUSH2 0x1B7 JUMP JUMPDEST STOP JUMPDEST PUSH0 PUSH1 0x20 MSTORE DUP1 PUSH0 MSTORE PUSH1 0x40 PUSH0 KECCAK256 PUSH0 SWAP2 POP SWAP1 POP DUP1 PUSH0 ADD DUP1 SLOAD PUSH2 0xA4 SWAP1 PUSH2 0x5B6 JUMP JUMPDEST DUP1 PUSH1 0x1F ADD PUSH1 0x20 DUP1 SWAP2 DIV MUL PUSH1 0x20 ADD PUSH1 0x40 MLOAD SWAP1 DUP2 ADD PUSH1 0x40 MSTORE DUP1 SWAP3 SWAP2 SWAP1 DUP2 DUP2 MSTORE PUSH1 0x20 ADD DUP3 DUP1 SLOAD PUSH2 0xD0 SWAP1 PUSH2 0x5B6 JUMP JUMPDEST DUP1 ISZERO PUSH2 0x11B JUMPI DUP1 PUSH1 0x1F LT PUSH2 0xF2 JUMPI PUSH2 0x100 DUP1 DUP4 SLOAD DIV MUL DUP4 MSTORE SWAP2 PUSH1 0x20 ADD SWAP2 PUSH2 0x11B JUMP JUMPDEST DUP3 ADD SWAP2 SWAP1 PUSH0 MSTORE PUSH1 0x20 PUSH0 KECCAK256 SWAP1 JUMPDEST DUP2 SLOAD DUP2 MSTORE SWAP1 PUSH1 0x1 ADD SWAP1 PUSH1 0x20 ADD DUP1 DUP4 GT PUSH2 0xFE JUMPI DUP3 SWAP1 SUB PUSH1 0x1F AND DUP3 ADD SWAP2 JUMPDEST POP POP POP POP POP SWAP1 DUP1 PUSH1 0x1 ADD SLOAD SWAP1 DUP1 PUSH1 0x2 ADD DUP1 SLOAD PUSH2 0x136 SWAP1 PUSH2 0x5B6 JUMP JUMPDEST DUP1 PUSH1 0x1F ADD PUSH1 0x20 DUP1 SWAP2 DIV MUL PUSH1 0x20 ADD PUSH1 0x40 MLOAD SWAP1 DUP2 ADD PUSH1 0x40 MSTORE DUP1 SWAP3 SWAP2 SWAP1 DUP2 DUP2 MSTORE PUSH1 0x20 ADD DUP3 DUP1 SLOAD PUSH2 0x162 SWAP1 PUSH2 0x5B6 JUMP JUMPDEST DUP1 ISZERO PUSH2 0x1AD JUMPI DUP1 PUSH1 0x1F LT PUSH2 0x184 JUMPI PUSH2 0x100 DUP1 DUP4 SLOAD DIV MUL DUP4 MSTORE SWAP2 PUSH1 0x20 ADD SWAP2 PUSH2 0x1AD JUMP JUMPDEST DUP3 ADD SWAP2 SWAP1 PUSH0 MSTORE PUSH1 0x20 PUSH0 KECCAK256 SWAP1 JUMPDEST DUP2 SLOAD DUP2 MSTORE SWAP1 PUSH1 0x1 ADD SWAP1 PUSH1 0x20 ADD DUP1 DUP4 GT PUSH2 0x190 JUMPI DUP3 SWAP1 SUB PUSH1 0x1F AND DUP3 ADD SWAP2 JUMPDEST POP POP POP POP POP SWAP1 POP DUP4 JUMP JUMPDEST PUSH1 0x40 MLOAD DUP1 PUSH1 0x60 ADD PUSH1 0x40 MSTORE DUP1 DUP5 DUP2 MSTORE PUSH1 0x20 ADD DUP4 DUP2 MSTORE PUSH1 0x20 ADD DUP3 DUP2 MSTORE POP PUSH0 DUP1 CALLER PUSH20 0xFFFFFFFFFFFFFFFFFFFFFFFFFFFFFFFFFFFFFFFF AND PUSH20 0xFFFFFFFFFFFFFFFFFFFFFFFFFFFFFFFFFFFFFFFF AND DUP2 MSTORE PUSH1 0x20 ADD SWAP1 DUP2 MSTORE PUSH1 0x20 ADD PUSH0 KECCAK256 PUSH0 DUP3 ADD MLOAD DUP2 PUSH0 ADD SWAP1 DUP2 PUSH2 0x221 SWAP2 SWAP1 PUSH2 0x783 JUMP JUMPDEST POP PUSH1 0x20 DUP3 ADD MLOAD DUP2 PUSH1 0x1 ADD SSTORE PUSH1 0x40 DUP3 ADD MLOAD DUP2 PUSH1 0x2 ADD SWAP1 DUP2 PUSH2 0x241 SWAP2 SWAP1 PUSH2 0x783 JUMP JUMPDEST POP SWAP1 POP POP POP POP POP JUMP JUMPDEST PUSH0 PUSH1 0x40 MLOAD SWAP1 POP SWAP1 JUMP JUMPDEST PUSH0 DUP1 REVERT JUMPDEST PUSH0 DUP1 REVERT JUMPDEST PUSH0 PUSH20 0xFFFFFFFFFFFFFFFFFFFFFFFFFFFFFFFFFFFFFFFF DUP3 AND SWAP1 POP SWAP2 SWAP1 POP JUMP JUMPDEST PUSH0 PUSH2 0x284 DUP3 PUSH2 0x25B JUMP JUMPDEST SWAP1 POP SWAP2 SWAP1 POP JUMP JUMPDEST PUSH2 0x294 DUP2 PUSH2 0x27A JUMP JUMPDEST DUP2 EQ PUSH2 0x29E JUMPI PUSH0 DUP1 REVERT JUMPDEST POP JUMP JUMPDEST PUSH0 DUP2 CALLDATALOAD SWAP1 POP PUSH2 0x2AF DUP2 PUSH2 0x28B JUMP JUMPDEST SWAP3 SWAP2 POP POP JUMP JUMPDEST PUSH0 PUSH1 0x20 DUP3 DUP5 SUB SLT ISZERO PUSH2 0x2CA JUMPI PUSH2 0x2C9 PUSH2 0x253 JUMP JUMPDEST JUMPDEST PUSH0 PUSH2 0x2D7 DUP5 DUP3 DUP6 ADD PUSH2 0x2A1 JUMP JUMPDEST SWAP2 POP POP SWAP3 SWAP2 POP POP JUMP JUMPDEST PUSH0 DUP2 MLOAD SWAP1 POP SWAP2 SWAP1 POP JUMP JUMPDEST PUSH0 DUP3 DUP3 MSTORE PUSH1 0x20 DUP3 ADD SWAP1 POP SWAP3 SWAP2 POP POP JUMP JUMPDEST DUP3 DUP2 DUP4 MCOPY PUSH0 DUP4 DUP4 ADD MSTORE POP POP POP JUMP JUMPDEST PUSH0 PUSH1 0x1F NOT PUSH1 0x1F DUP4 ADD AND SWAP1 POP SWAP2 SWAP1 POP JUMP JUMPDEST PUSH0 PUSH2 0x322 DUP3 PUSH2 0x2E0 JUMP JUMPDEST PUSH2 0x32C DUP2 DUP6 PUSH2 0x2EA JUMP JUMPDEST SWAP4 POP PUSH2 0x33C DUP2 DUP6 PUSH1 0x20 DUP7 ADD PUSH2 0x2FA JUMP JUMPDEST PUSH2 0x345 DUP2 PUSH2 0x308 JUMP JUMPDEST DUP5 ADD SWAP2 POP POP SWAP3 SWAP2 POP POP JUMP JUMPDEST PUSH0 DUP2 SWAP1 POP SWAP2 SWAP1 POP JUMP JUMPDEST PUSH2 0x362 DUP2 PUSH2 0x350 JUMP JUMPDEST DUP3 MSTORE POP POP JUMP JUMPDEST PUSH0 PUSH1 0x60 DUP3 ADD SWAP1 POP DUP2 DUP2 SUB PUSH0 DUP4 ADD MSTORE PUSH2 0x380 DUP2 DUP7 PUSH2 0x318 JUMP JUMPDEST SWAP1 POP PUSH2 0x38F PUSH1 0x20 DUP4 ADD DUP6 PUSH2 0x359 JUMP JUMPDEST DUP2 DUP2 SUB PUSH1 0x40 DUP4 ADD MSTORE PUSH2 0x3A1 DUP2 DUP5 PUSH2 0x318 JUMP JUMPDEST SWAP1 POP SWAP5 SWAP4 POP POP POP POP JUMP JUMPDEST PUSH0 DUP1 REVERT JUMPDEST PUSH0 DUP1 REVERT JUMPDEST PUSH32 0x4E487B7100000000000000000000000000000000000000000000000000000000 PUSH0 MSTORE PUSH1 0x41 PUSH1 0x4 MSTORE PUSH1 0x24 PUSH0 REVERT JUMPDEST PUSH2 0x3E9 DUP3 PUSH2 0x308 JUMP JUMPDEST DUP2 ADD DUP2 DUP2 LT PUSH8 0xFFFFFFFFFFFFFFFF DUP3 GT OR ISZERO PUSH2 0x408 JUMPI PUSH2 0x407 PUSH2 0x3B3 JUMP JUMPDEST JUMPDEST DUP1 PUSH1 0x40 MSTORE POP POP POP JUMP JUMPDEST PUSH0 PUSH2 0x41A PUSH2 0x24A JUMP JUMPDEST SWAP1 POP PUSH2 0x426 DUP3 DUP3 PUSH2 0x3E0 JUMP JUMPDEST SWAP2 SWAP1 POP JUMP JUMPDEST PUSH0 PUSH8 0xFFFFFFFFFFFFFFFF DUP3 GT ISZERO PUSH2 0x445 JUMPI PUSH2 0x444 PUSH2 0x3B3 JUMP JUMPDEST JUMPDEST PUSH2 0x44E DUP3 PUSH2 0x308 JUMP JUMPDEST SWAP1 POP PUSH1 0x20 DUP2 ADD SWAP1 POP SWAP2 SWAP1 POP JUMP JUMPDEST DUP3 DUP2 DUP4 CALLDATACOPY PUSH0 DUP4 DUP4 ADD MSTORE POP POP POP JUMP JUMPDEST PUSH0 PUSH2 0x47B PUSH2 0x476 DUP5 PUSH2 0x42B JUMP JUMPDEST PUSH2 0x411 JUMP JUMPDEST SWAP1 POP DUP3 DUP2 MSTORE PUSH1 0x20 DUP2 ADD DUP5 DUP5 DUP5 ADD GT ISZERO PUSH2 0x497 JUMPI PUSH2 0x496 PUSH2 0x3AF JUMP JUMPDEST JUMPDEST PUSH2 0x4A2 DUP5 DUP3 DUP6 PUSH2 0x45B JUMP JUMPDEST POP SWAP4 SWAP3 POP POP POP JUMP JUMPDEST PUSH0 DUP3 PUSH1 0x1F DUP4 ADD SLT PUSH2 0x4BE JUMPI PUSH2 0x4BD PUSH2 0x3AB JUMP JUMPDEST JUMPDEST DUP2 CALLDATALOAD PUSH2 0x4CE DUP5 DUP3 PUSH1 0x20 DUP7 ADD PUSH2 0x469 JUMP JUMPDEST SWAP2 POP POP SWAP3 SWAP2 POP POP JUMP JUMPDEST PUSH2 0x4E0 DUP2 PUSH2 0x350 JUMP JUMPDEST DUP2 EQ PUSH2 0x4EA JUMPI PUSH0 DUP1 REVERT JUMPDEST POP JUMP JUMPDEST PUSH0 DUP2 CALLDATALOAD SWAP1 POP PUSH2 0x4FB DUP2 PUSH2 0x4D7 JUMP JUMPDEST SWAP3 SWAP2 POP POP JUMP JUMPDEST PUSH0 DUP1 PUSH0 PUSH1 0x60 DUP5 DUP7 SUB SLT ISZERO PUSH2 0x518 JUMPI PUSH2 0x517 PUSH2 0x253 JUMP JUMPDEST JUMPDEST PUSH0 DUP5 ADD CALLDATALOAD PUSH8 0xFFFFFFFFFFFFFFFF DUP2 GT ISZERO PUSH2 0x535 JUMPI PUSH2 0x534 PUSH2 0x257 JUMP JUMPDEST JUMPDEST PUSH2 0x541 DUP7 DUP3 DUP8 ADD PUSH2 0x4AA JUMP JUMPDEST SWAP4 POP POP PUSH1 0x20 PUSH2 0x552 DUP7 DUP3 DUP8 ADD PUSH2 0x4ED JUMP JUMPDEST SWAP3 POP POP PUSH1 0x40 DUP5 ADD CALLDATALOAD PUSH8 0xFFFFFFFFFFFFFFFF DUP2 GT ISZERO PUSH2 0x573 JUMPI PUSH2 0x572 PUSH2 0x257 JUMP JUMPDEST JUMPDEST PUSH2 0x57F DUP7 DUP3 DUP8 ADD PUSH2 0x4AA JUMP JUMPDEST SWAP2 POP POP SWAP3 POP SWAP3 POP SWAP3 JUMP JUMPDEST PUSH32 0x4E487B7100000000000000000000000000000000000000000000000000000000 PUSH0 MSTORE PUSH1 0x22 PUSH1 0x4 MSTORE PUSH1 0x24 PUSH0 REVERT JUMPDEST PUSH0 PUSH1 0x2 DUP3 DIV SWAP1 POP PUSH1 0x1 DUP3 AND DUP1 PUSH2 0x5CD JUMPI PUSH1 0x7F DUP3 AND SWAP2 POP JUMPDEST PUSH1 0x20 DUP3 LT DUP2 SUB PUSH2 0x5E0 JUMPI PUSH2 0x5DF PUSH2 0x589 JUMP JUMPDEST JUMPDEST POP SWAP2 SWAP1 POP JUMP JUMPDEST PUSH0 DUP2 SWAP1 POP DUP2 PUSH0 MSTORE PUSH1 0x20 PUSH0 KECCAK256 SWAP1 POP SWAP2 SWAP1 POP JUMP JUMPDEST PUSH0 PUSH1 0x20 PUSH1 0x1F DUP4 ADD DIV SWAP1 POP SWAP2 SWAP1 POP JUMP JUMPDEST PUSH0 DUP3 DUP3 SHL SWAP1 POP SWAP3 SWAP2 POP POP JUMP JUMPDEST PUSH0 PUSH1 0x8 DUP4 MUL PUSH2 0x642 PUSH32 0xFFFFFFFFFFFFFFFFFFFFFFFFFFFFFFFFFFFFFFFFFFFFFFFFFFFFFFFFFFFFFFFF DUP3 PUSH2 0x607 JUMP JUMPDEST PUSH2 0x64C DUP7 DUP4 PUSH2 0x607 JUMP JUMPDEST SWAP6 POP DUP1 NOT DUP5 AND SWAP4 POP DUP1 DUP7 AND DUP5 OR SWAP3 POP POP POP SWAP4 SWAP3 POP POP POP JUMP JUMPDEST PUSH0 DUP2 SWAP1 POP SWAP2 SWAP1 POP JUMP JUMPDEST PUSH0 PUSH2 0x687 PUSH2 0x682 PUSH2 0x67D DUP5 PUSH2 0x350 JUMP JUMPDEST PUSH2 0x664 JUMP JUMPDEST PUSH2 0x350 JUMP JUMPDEST SWAP1 POP SWAP2 SWAP1 POP JUMP JUMPDEST PUSH0 DUP2 SWAP1 POP SWAP2 SWAP1 POP JUMP JUMPDEST PUSH2 0x6A0 DUP4 PUSH2 0x66D JUMP JUMPDEST PUSH2 0x6B4 PUSH2 0x6AC DUP3 PUSH2 0x68E JUMP JUMPDEST DUP5 DUP5 SLOAD PUSH2 0x613 JUMP JUMPDEST DUP3 SSTORE POP POP POP POP JUMP JUMPDEST PUSH0 SWAP1 JUMP JUMPDEST PUSH2 0x6C8 PUSH2 0x6BC JUMP JUMPDEST PUSH2 0x6D3 DUP2 DUP5 DUP5 PUSH2 0x697 JUMP JUMPDEST POP POP POP JUMP JUMPDEST JUMPDEST DUP2 DUP2 LT ISZERO PUSH2 0x6F6 JUMPI PUSH2 0x6EB PUSH0 DUP3 PUSH2 0x6C0 JUMP JUMPDEST PUSH1 0x1 DUP2 ADD SWAP1 POP PUSH2 0x6D9 JUMP JUMPDEST POP POP JUMP JUMPDEST PUSH1 0x1F DUP3 GT ISZERO PUSH2 0x73B JUMPI PUSH2 0x70C DUP2 PUSH2 0x5E6 JUMP JUMPDEST PUSH2 0x715 DUP5 PUSH2 0x5F8 JUMP JUMPDEST DUP2 ADD PUSH1 0x20 DUP6 LT ISZERO PUSH2 0x724 JUMPI DUP2 SWAP1 POP JUMPDEST PUSH2 0x738 PUSH2 0x730 DUP6 PUSH2 0x5F8 JUMP JUMPDEST DUP4 ADD DUP3 PUSH2 0x6D8 JUMP JUMPDEST POP POP JUMPDEST POP POP POP JUMP JUMPDEST PUSH0 DUP3 DUP3 SHR SWAP1 POP SWAP3 SWAP2 POP POP JUMP JUMPDEST PUSH0 PUSH2 0x75B PUSH0 NOT DUP5 PUSH1 0x8 MUL PUSH2 0x740 JUMP JUMPDEST NOT DUP1 DUP4 AND SWAP2 POP POP SWAP3 SWAP2 POP POP JUMP JUMPDEST PUSH0 PUSH2 0x773 DUP4 DUP4 PUSH2 0x74C JUMP JUMPDEST SWAP2 POP DUP3 PUSH1 0x2 MUL DUP3 OR SWAP1 POP SWAP3 SWAP2 POP POP JUMP JUMPDEST PUSH2 0x78C DUP3 PUSH2 0x2E0 JUMP JUMPDEST PUSH8 0xFFFFFFFFFFFFFFFF DUP2 GT ISZERO PUSH2 0x7A5 JUMPI PUSH2 0x7A4 PUSH2 0x3B3 JUMP JUMPDEST JUMPDEST PUSH2 0x7AF DUP3 SLOAD PUSH2 0x5B6 JUMP JUMPDEST PUSH2 0x7BA DUP3 DUP3 DUP6 PUSH2 0x6FA JUMP JUMPDEST PUSH0 PUSH1 0x20 SWAP1 POP PUSH1 0x1F DUP4 GT PUSH1 0x1 DUP2 EQ PUSH2 0x7EB JUMPI PUSH0 DUP5 ISZERO PUSH2 0x7D9 JUMPI DUP3 DUP8 ADD MLOAD SWAP1 POP JUMPDEST PUSH2 0x7E3 DUP6 DUP3 PUSH2 0x768 JUMP JUMPDEST DUP7 SSTORE POP PUSH2 0x84A JUMP JUMPDEST PUSH1 0x1F NOT DUP5 AND PUSH2 0x7F9 DUP7 PUSH2 0x5E6 JUMP JUMPDEST PUSH0 JUMPDEST DUP3 DUP2 LT ISZERO PUSH2 0x820 JUMPI DUP5 DUP10 ADD MLOAD DUP3 SSTORE PUSH1 0x1 DUP3 ADD SWAP2 POP PUSH1 0x20 DUP6 ADD SWAP5 POP PUSH1 0x20 DUP2 ADD SWAP1 POP PUSH2 0x7FB JUMP JUMPDEST DUP7 DUP4 LT ISZERO PUSH2 0x83D JUMPI DUP5 DUP10 ADD MLOAD PUSH2 0x839 PUSH1 0x1F DUP10 AND DUP3 PUSH2 0x74C JUMP JUMPDEST DUP4 SSTORE POP JUMPDEST PUSH1 0x1 PUSH1 0x2 DUP9 MUL ADD DUP9 SSTORE POP POP POP JUMPDEST POP POP POP POP POP POP JUMP INVALID LOG2 PUSH5 0x6970667358 0x22 SLT KECCAK256 ORIGIN 0x2A MUL MUL PUSH16 0x367A2EE7F38A5ED31E40B6B6D097EEA9 DUP8 STATICCALL CODECOPY 0xED ISZERO 0x2C PUSH0 PUSH21 0x6C58BD64736F6C634300081A003300000000000000 "
				},
				"gasEstimates": {
					"creation": {
						"codeDepositCost": "436800",
						"executionCost": "472",
						"totalCost": "437272"
					},
					"external": {
						"details(address)": "infinite",
						"enroll(string,uint256,string)": "infinite"
					}
				},
				"methodIdentifiers": {
					"details(address)": "24a92f9f",
					"enroll(string,uint256,string)": "3eea7bbf"
				}
			},
			"storageLayout": {
				"storage": [
					{
						"astId": 13,
						"contract": "contracts/3/childOrgEnrollment.sol:ParentOrg",
						"label": "details",
						"offset": 0,
						"slot": "0",
						"type": "t_mapping(t_address,t_struct(EmployeeDetails)8_storage)"
					}
				],
				"types": {
					"t_address": {
						"encoding": "inplace",
						"label": "address",
						"numberOfBytes": "20"
					},
					"t_mapping(t_address,t_struct(EmployeeDetails)8_storage)": {
						"encoding": "mapping",
						"key": "t_address",
						"label": "mapping(address => struct ParentOrg.EmployeeDetails)",
						"numberOfBytes": "32",
						"value": "t_struct(EmployeeDetails)8_storage"
					},
					"t_string_storage": {
						"encoding": "bytes",
						"label": "string",
						"numberOfBytes": "32"
					},
					"t_struct(EmployeeDetails)8_storage": {
						"encoding": "inplace",
						"label": "struct ParentOrg.EmployeeDetails",
						"members": [
							{
								"astId": 3,
								"contract": "contracts/3/childOrgEnrollment.sol:ParentOrg",
								"label": "name",
								"offset": 0,
								"slot": "0",
								"type": "t_string_storage"
							},
							{
								"astId": 5,
								"contract": "contracts/3/childOrgEnrollment.sol:ParentOrg",
								"label": "age",
								"offset": 0,
								"slot": "1",
								"type": "t_uint256"
							},
							{
								"astId": 7,
								"contract": "contracts/3/childOrgEnrollment.sol:ParentOrg",
								"label": "department",
								"offset": 0,
								"slot": "2",
								"type": "t_string_storage"
							}
						],
						"numberOfBytes": "96"
					},
					"t_uint256": {
						"encoding": "inplace",
						"label": "uint256",
						"numberOfBytes": "32"
					}
				}
			},
			"userdoc": {
				"kind": "user",
				"methods": {},
				"version": 1
			}
		}
	}
}