{
	"contracts/3/CalculatorUsingLib.sol": {
		"Calclib": {
			"abi": [
				{
					"inputs": [
						{
							"internalType": "uint256",
							"name": "a",
							"type": "uint256"
						},
						{
							"internalType": "uint256",
							"name": "b",
							"type": "uint256"
						}
					],
					"name": "add",
					"outputs": [
						{
							"internalType": "uint256",
							"name": "",
							"type": "uint256"
						}
					],
					"stateMutability": "pure",
					"type": "function"
				},
				{
					"inputs": [
						{
							"internalType": "uint256",
							"name": "a",
							"type": "uint256"
						},
						{
							"internalType": "uint256",
							"name": "b",
							"type": "uint256"
						}
					],
					"name": "subtract",
					"outputs": [
						{
							"internalType": "uint256",
							"name": "",
							"type": "uint256"
						}
					],
					"stateMutability": "pure",
					"type": "function"
				}
			],
			"devdoc": {
				"kind": "dev",
				"methods": {},
				"version": 1
			},
			"evm": {
				"assembly": "    /* \"contracts/3/CalculatorUsingLib.sol\":60:362  library Calclib{... */\n  dataSize(sub_0)\n  dataOffset(sub_0)\n  0x0b\n  dup3\n  dup3\n  dup3\n  codecopy\n  dup1\n  mload\n  0x00\n  byte\n  0x73\n  eq\n  tag_1\n  jumpi\n  mstore(0x00, 0x4e487b7100000000000000000000000000000000000000000000000000000000)\n  mstore(0x04, 0x00)\n  revert(0x00, 0x24)\ntag_1:\n  mstore(0x00, address)\n  0x73\n  dup2\n  mstore8\n  dup3\n  dup2\n  return\nstop\n\nsub_0: assembly {\n        /* \"contracts/3/CalculatorUsingLib.sol\":60:362  library Calclib{... */\n      eq(address, deployTimeAddress())\n      mstore(0x40, 0x80)\n      jumpi(tag_1, lt(calldatasize, 0x04))\n      shr(0xe0, calldataload(0x00))\n      dup1\n      0x3ef5e445\n      eq\n      tag_2\n      jumpi\n      dup1\n      0x771602f7\n      eq\n      tag_3\n      jumpi\n    tag_1:\n      0x00\n      dup1\n      revert\n        /* \"contracts/3/CalculatorUsingLib.sol\":195:359  function subtract(uint a, uint b)external pure returns(uint){... */\n    tag_2:\n      tag_4\n      0x04\n      dup1\n      calldatasize\n      sub\n      dup2\n      add\n      swap1\n      tag_5\n      swap2\n      swap1\n      tag_6\n      jump\t// in\n    tag_5:\n      tag_7\n      jump\t// in\n    tag_4:\n      mload(0x40)\n      tag_8\n      swap2\n      swap1\n      tag_9\n      jump\t// in\n    tag_8:\n      mload(0x40)\n      dup1\n      swap2\n      sub\n      swap1\n      return\n        /* \"contracts/3/CalculatorUsingLib.sol\":82:187  function add(uint a, uint b)external pure returns(uint){... */\n    tag_3:\n      tag_10\n      0x04\n      dup1\n      calldatasize\n      sub\n      dup2\n      add\n      swap1\n      tag_11\n      swap2\n      swap1\n      tag_6\n      jump\t// in\n    tag_11:\n      tag_12\n      jump\t// in\n    tag_10:\n      mload(0x40)\n      tag_13\n      swap2\n      swap1\n      tag_9\n      jump\t// in\n    tag_13:\n      mload(0x40)\n      dup1\n      swap2\n      sub\n      swap1\n      return\n        /* \"contracts/3/CalculatorUsingLib.sol\":195:359  function subtract(uint a, uint b)external pure returns(uint){... */\n    tag_7:\n        /* \"contracts/3/CalculatorUsingLib.sol\":250:254  uint */\n      0x00\n        /* \"contracts/3/CalculatorUsingLib.sol\":278:279  a */\n      dup3\n        /* \"contracts/3/CalculatorUsingLib.sol\":274:275  b */\n      dup3\n        /* \"contracts/3/CalculatorUsingLib.sol\":274:279  b > a */\n      gt\n        /* \"contracts/3/CalculatorUsingLib.sol\":266:309  require(b > a,\"b should be greater than a\") */\n      tag_15\n      jumpi\n      mload(0x40)\n      0x08c379a000000000000000000000000000000000000000000000000000000000\n      dup2\n      mstore\n      0x04\n      add\n      tag_16\n      swap1\n      tag_17\n      jump\t// in\n    tag_16:\n      mload(0x40)\n      dup1\n      swap2\n      sub\n      swap1\n      revert\n    tag_15:\n        /* \"contracts/3/CalculatorUsingLib.sol\":320:326  uint c */\n      0x00\n        /* \"contracts/3/CalculatorUsingLib.sol\":331:332  a */\n      dup4\n        /* \"contracts/3/CalculatorUsingLib.sol\":329:330  b */\n      dup4\n        /* \"contracts/3/CalculatorUsingLib.sol\":329:332  b-a */\n      tag_18\n      swap2\n      swap1\n      tag_19\n      jump\t// in\n    tag_18:\n        /* \"contracts/3/CalculatorUsingLib.sol\":320:332  uint c = b-a */\n      swap1\n      pop\n        /* \"contracts/3/CalculatorUsingLib.sol\":350:351  c */\n      dup1\n        /* \"contracts/3/CalculatorUsingLib.sol\":343:351  return c */\n      swap2\n      pop\n      pop\n        /* \"contracts/3/CalculatorUsingLib.sol\":195:359  function subtract(uint a, uint b)external pure returns(uint){... */\n      swap3\n      swap2\n      pop\n      pop\n      jump\t// out\n        /* \"contracts/3/CalculatorUsingLib.sol\":82:187  function add(uint a, uint b)external pure returns(uint){... */\n    tag_12:\n        /* \"contracts/3/CalculatorUsingLib.sol\":132:136  uint */\n      0x00\n        /* \"contracts/3/CalculatorUsingLib.sol\":148:154  uint c */\n      dup1\n        /* \"contracts/3/CalculatorUsingLib.sol\":159:160  b */\n      dup3\n        /* \"contracts/3/CalculatorUsingLib.sol\":157:158  a */\n      dup5\n        /* \"contracts/3/CalculatorUsingLib.sol\":157:160  a+b */\n      tag_21\n      swap2\n      swap1\n      tag_22\n      jump\t// in\n    tag_21:\n        /* \"contracts/3/CalculatorUsingLib.sol\":148:160  uint c = a+b */\n      swap1\n      pop\n        /* \"contracts/3/CalculatorUsingLib.sol\":178:179  c */\n      dup1\n        /* \"contracts/3/CalculatorUsingLib.sol\":171:179  return c */\n      swap2\n      pop\n      pop\n        /* \"contracts/3/CalculatorUsingLib.sol\":82:187  function add(uint a, uint b)external pure returns(uint){... */\n      swap3\n      swap2\n      pop\n      pop\n      jump\t// out\n        /* \"#utility.yul\":88:205   */\n    tag_24:\n        /* \"#utility.yul\":197:198   */\n      0x00\n        /* \"#utility.yul\":194:195   */\n      dup1\n        /* \"#utility.yul\":187:199   */\n      revert\n        /* \"#utility.yul\":334:411   */\n    tag_26:\n        /* \"#utility.yul\":371:378   */\n      0x00\n        /* \"#utility.yul\":400:405   */\n      dup2\n        /* \"#utility.yul\":389:405   */\n      swap1\n      pop\n        /* \"#utility.yul\":334:411   */\n      swap2\n      swap1\n      pop\n      jump\t// out\n        /* \"#utility.yul\":417:539   */\n    tag_27:\n        /* \"#utility.yul\":490:514   */\n      tag_40\n        /* \"#utility.yul\":508:513   */\n      dup2\n        /* \"#utility.yul\":490:514   */\n      tag_26\n      jump\t// in\n    tag_40:\n        /* \"#utility.yul\":483:488   */\n      dup2\n        /* \"#utility.yul\":480:515   */\n      eq\n        /* \"#utility.yul\":470:533   */\n      tag_41\n      jumpi\n        /* \"#utility.yul\":529:530   */\n      0x00\n        /* \"#utility.yul\":526:527   */\n      dup1\n        /* \"#utility.yul\":519:531   */\n      revert\n        /* \"#utility.yul\":470:533   */\n    tag_41:\n        /* \"#utility.yul\":417:539   */\n      pop\n      jump\t// out\n        /* \"#utility.yul\":545:684   */\n    tag_28:\n        /* \"#utility.yul\":591:596   */\n      0x00\n        /* \"#utility.yul\":629:635   */\n      dup2\n        /* \"#utility.yul\":616:636   */\n      calldataload\n        /* \"#utility.yul\":607:636   */\n      swap1\n      pop\n        /* \"#utility.yul\":645:678   */\n      tag_43\n        /* \"#utility.yul\":672:677   */\n      dup2\n        /* \"#utility.yul\":645:678   */\n      tag_27\n      jump\t// in\n    tag_43:\n        /* \"#utility.yul\":545:684   */\n      swap3\n      swap2\n      pop\n      pop\n      jump\t// out\n        /* \"#utility.yul\":690:1164   */\n    tag_6:\n        /* \"#utility.yul\":758:764   */\n      0x00\n        /* \"#utility.yul\":766:772   */\n      dup1\n        /* \"#utility.yul\":815:817   */\n      0x40\n        /* \"#utility.yul\":803:812   */\n      dup4\n        /* \"#utility.yul\":794:801   */\n      dup6\n        /* \"#utility.yul\":790:813   */\n      sub\n        /* \"#utility.yul\":786:818   */\n      slt\n        /* \"#utility.yul\":783:902   */\n      iszero\n      tag_45\n      jumpi\n        /* \"#utility.yul\":821:900   */\n      tag_46\n      tag_24\n      jump\t// in\n    tag_46:\n        /* \"#utility.yul\":783:902   */\n    tag_45:\n        /* \"#utility.yul\":941:942   */\n      0x00\n        /* \"#utility.yul\":966:1019   */\n      tag_47\n        /* \"#utility.yul\":1011:1018   */\n      dup6\n        /* \"#utility.yul\":1002:1008   */\n      dup3\n        /* \"#utility.yul\":991:1000   */\n      dup7\n        /* \"#utility.yul\":987:1009   */\n      add\n        /* \"#utility.yul\":966:1019   */\n      tag_28\n      jump\t// in\n    tag_47:\n        /* \"#utility.yul\":956:1019   */\n      swap3\n      pop\n        /* \"#utility.yul\":912:1029   */\n      pop\n        /* \"#utility.yul\":1068:1070   */\n      0x20\n        /* \"#utility.yul\":1094:1147   */\n      tag_48\n        /* \"#utility.yul\":1139:1146   */\n      dup6\n        /* \"#utility.yul\":1130:1136   */\n      dup3\n        /* \"#utility.yul\":1119:1128   */\n      dup7\n        /* \"#utility.yul\":1115:1137   */\n      add\n        /* \"#utility.yul\":1094:1147   */\n      tag_28\n      jump\t// in\n    tag_48:\n        /* \"#utility.yul\":1084:1147   */\n      swap2\n      pop\n        /* \"#utility.yul\":1039:1157   */\n      pop\n        /* \"#utility.yul\":690:1164   */\n      swap3\n      pop\n      swap3\n      swap1\n      pop\n      jump\t// out\n        /* \"#utility.yul\":1170:1296   */\n    tag_29:\n        /* \"#utility.yul\":1265:1289   */\n      tag_50\n        /* \"#utility.yul\":1283:1288   */\n      dup2\n        /* \"#utility.yul\":1265:1289   */\n      tag_26\n      jump\t// in\n    tag_50:\n        /* \"#utility.yul\":1260:1263   */\n      dup3\n        /* \"#utility.yul\":1253:1290   */\n      mstore\n        /* \"#utility.yul\":1170:1296   */\n      pop\n      pop\n      jump\t// out\n        /* \"#utility.yul\":1302:1540   */\n    tag_9:\n        /* \"#utility.yul\":1403:1407   */\n      0x00\n        /* \"#utility.yul\":1441:1443   */\n      0x20\n        /* \"#utility.yul\":1430:1439   */\n      dup3\n        /* \"#utility.yul\":1426:1444   */\n      add\n        /* \"#utility.yul\":1418:1444   */\n      swap1\n      pop\n        /* \"#utility.yul\":1454:1533   */\n      tag_52\n        /* \"#utility.yul\":1530:1531   */\n      0x00\n        /* \"#utility.yul\":1519:1528   */\n      dup4\n        /* \"#utility.yul\":1515:1532   */\n      add\n        /* \"#utility.yul\":1506:1512   */\n      dup5\n        /* \"#utility.yul\":1454:1533   */\n      tag_29\n      jump\t// in\n    tag_52:\n        /* \"#utility.yul\":1302:1540   */\n      swap3\n      swap2\n      pop\n      pop\n      jump\t// out\n        /* \"#utility.yul\":1546:1715   */\n    tag_30:\n        /* \"#utility.yul\":1630:1641   */\n      0x00\n        /* \"#utility.yul\":1664:1670   */\n      dup3\n        /* \"#utility.yul\":1659:1662   */\n      dup3\n        /* \"#utility.yul\":1652:1671   */\n      mstore\n        /* \"#utility.yul\":1704:1708   */\n      0x20\n        /* \"#utility.yul\":1699:1702   */\n      dup3\n        /* \"#utility.yul\":1695:1709   */\n      add\n        /* \"#utility.yul\":1680:1709   */\n      swap1\n      pop\n        /* \"#utility.yul\":1546:1715   */\n      swap3\n      swap2\n      pop\n      pop\n      jump\t// out\n        /* \"#utility.yul\":1721:1897   */\n    tag_31:\n        /* \"#utility.yul\":1861:1889   */\n      0x622073686f756c642062652067726561746572207468616e2061000000000000\n        /* \"#utility.yul\":1857:1858   */\n      0x00\n        /* \"#utility.yul\":1849:1855   */\n      dup3\n        /* \"#utility.yul\":1845:1859   */\n      add\n        /* \"#utility.yul\":1838:1890   */\n      mstore\n        /* \"#utility.yul\":1721:1897   */\n      pop\n      jump\t// out\n        /* \"#utility.yul\":1903:2269   */\n    tag_32:\n        /* \"#utility.yul\":2045:2048   */\n      0x00\n        /* \"#utility.yul\":2066:2133   */\n      tag_56\n        /* \"#utility.yul\":2130:2132   */\n      0x1a\n        /* \"#utility.yul\":2125:2128   */\n      dup4\n        /* \"#utility.yul\":2066:2133   */\n      tag_30\n      jump\t// in\n    tag_56:\n        /* \"#utility.yul\":2059:2133   */\n      swap2\n      pop\n        /* \"#utility.yul\":2142:2235   */\n      tag_57\n        /* \"#utility.yul\":2231:2234   */\n      dup3\n        /* \"#utility.yul\":2142:2235   */\n      tag_31\n      jump\t// in\n    tag_57:\n        /* \"#utility.yul\":2260:2262   */\n      0x20\n        /* \"#utility.yul\":2255:2258   */\n      dup3\n        /* \"#utility.yul\":2251:2263   */\n      add\n        /* \"#utility.yul\":2244:2263   */\n      swap1\n      pop\n        /* \"#utility.yul\":1903:2269   */\n      swap2\n      swap1\n      pop\n      jump\t// out\n        /* \"#utility.yul\":2275:2694   */\n    tag_17:\n        /* \"#utility.yul\":2441:2445   */\n      0x00\n        /* \"#utility.yul\":2479:2481   */\n      0x20\n        /* \"#utility.yul\":2468:2477   */\n      dup3\n        /* \"#utility.yul\":2464:2482   */\n      add\n        /* \"#utility.yul\":2456:2482   */\n      swap1\n      pop\n        /* \"#utility.yul\":2528:2537   */\n      dup2\n        /* \"#utility.yul\":2522:2526   */\n      dup2\n        /* \"#utility.yul\":2518:2538   */\n      sub\n        /* \"#utility.yul\":2514:2515   */\n      0x00\n        /* \"#utility.yul\":2503:2512   */\n      dup4\n        /* \"#utility.yul\":2499:2516   */\n      add\n        /* \"#utility.yul\":2492:2539   */\n      mstore\n        /* \"#utility.yul\":2556:2687   */\n      tag_59\n        /* \"#utility.yul\":2682:2686   */\n      dup2\n        /* \"#utility.yul\":2556:2687   */\n      tag_32\n      jump\t// in\n    tag_59:\n        /* \"#utility.yul\":2548:2687   */\n      swap1\n      pop\n        /* \"#utility.yul\":2275:2694   */\n      swap2\n      swap1\n      pop\n      jump\t// out\n        /* \"#utility.yul\":2700:2880   */\n    tag_33:\n        /* \"#utility.yul\":2748:2825   */\n      0x4e487b7100000000000000000000000000000000000000000000000000000000\n        /* \"#utility.yul\":2745:2746   */\n      0x00\n        /* \"#utility.yul\":2738:2826   */\n      mstore\n        /* \"#utility.yul\":2845:2849   */\n      0x11\n        /* \"#utility.yul\":2842:2843   */\n      0x04\n        /* \"#utility.yul\":2835:2850   */\n      mstore\n        /* \"#utility.yul\":2869:2873   */\n      0x24\n        /* \"#utility.yul\":2866:2867   */\n      0x00\n        /* \"#utility.yul\":2859:2874   */\n      revert\n        /* \"#utility.yul\":2886:3080   */\n    tag_19:\n        /* \"#utility.yul\":2926:2930   */\n      0x00\n        /* \"#utility.yul\":2946:2966   */\n      tag_62\n        /* \"#utility.yul\":2964:2965   */\n      dup3\n        /* \"#utility.yul\":2946:2966   */\n      tag_26\n      jump\t// in\n    tag_62:\n        /* \"#utility.yul\":2941:2966   */\n      swap2\n      pop\n        /* \"#utility.yul\":2980:3000   */\n      tag_63\n        /* \"#utility.yul\":2998:2999   */\n      dup4\n        /* \"#utility.yul\":2980:3000   */\n      tag_26\n      jump\t// in\n    tag_63:\n        /* \"#utility.yul\":2975:3000   */\n      swap3\n      pop\n        /* \"#utility.yul\":3024:3025   */\n      dup3\n        /* \"#utility.yul\":3021:3022   */\n      dup3\n        /* \"#utility.yul\":3017:3026   */\n      sub\n        /* \"#utility.yul\":3009:3026   */\n      swap1\n      pop\n        /* \"#utility.yul\":3048:3049   */\n      dup2\n        /* \"#utility.yul\":3042:3046   */\n      dup2\n        /* \"#utility.yul\":3039:3050   */\n      gt\n        /* \"#utility.yul\":3036:3073   */\n      iszero\n      tag_64\n      jumpi\n        /* \"#utility.yul\":3053:3071   */\n      tag_65\n      tag_33\n      jump\t// in\n    tag_65:\n        /* \"#utility.yul\":3036:3073   */\n    tag_64:\n        /* \"#utility.yul\":2886:3080   */\n      swap3\n      swap2\n      pop\n      pop\n      jump\t// out\n        /* \"#utility.yul\":3086:3277   */\n    tag_22:\n        /* \"#utility.yul\":3126:3129   */\n      0x00\n        /* \"#utility.yul\":3145:3165   */\n      tag_67\n        /* \"#utility.yul\":3163:3164   */\n      dup3\n        /* \"#utility.yul\":3145:3165   */\n      tag_26\n      jump\t// in\n    tag_67:\n        /* \"#utility.yul\":3140:3165   */\n      swap2\n      pop\n        /* \"#utility.yul\":3179:3199   */\n      tag_68\n        /* \"#utility.yul\":3197:3198   */\n      dup4\n        /* \"#utility.yul\":3179:3199   */\n      tag_26\n      jump\t// in\n    tag_68:\n        /* \"#utility.yul\":3174:3199   */\n      swap3\n      pop\n        /* \"#utility.yul\":3222:3223   */\n      dup3\n        /* \"#utility.yul\":3219:3220   */\n      dup3\n        /* \"#utility.yul\":3215:3224   */\n      add\n        /* \"#utility.yul\":3208:3224   */\n      swap1\n      pop\n        /* \"#utility.yul\":3243:3246   */\n      dup1\n        /* \"#utility.yul\":3240:3241   */\n      dup3\n        /* \"#utility.yul\":3237:3247   */\n      gt\n        /* \"#utility.yul\":3234:3270   */\n      iszero\n      tag_69\n      jumpi\n        /* \"#utility.yul\":3250:3268   */\n      tag_70\n      tag_33\n      jump\t// in\n    tag_70:\n        /* \"#utility.yul\":3234:3270   */\n    tag_69:\n        /* \"#utility.yul\":3086:3277   */\n      swap3\n      swap2\n      pop\n      pop\n      jump\t// out\n\n    auxdata: 0xa2646970667358221220e0314ea687ff8a958ca7c87cc2ecdb401433cb8ab1e4cb24c2b328c2fb263e5664736f6c634300081a0033\n}\n",
				"bytecode": {
					"linkReferences": {},
					"object": "6102f761004d600b8282823980515f1a6073146041577f4e487b71000000000000000000000000000000000000000000000000000000005f525f60045260245ffd5b305f52607381538281f3fe730000000000000000000000000000000000000000301460806040526004361061003f575f3560e01c80633ef5e44514610043578063771602f714610073575b5f80fd5b61005d60048036038101906100589190610150565b6100a3565b60405161006a919061019d565b60405180910390f35b61008d60048036038101906100889190610150565b6100ff565b60405161009a919061019d565b60405180910390f35b5f8282116100e6576040517f08c379a00000000000000000000000000000000000000000000000000000000081526004016100dd90610210565b60405180910390fd5b5f83836100f3919061025b565b90508091505092915050565b5f80828461010d919061028e565b90508091505092915050565b5f80fd5b5f819050919050565b61012f8161011d565b8114610139575f80fd5b50565b5f8135905061014a81610126565b92915050565b5f806040838503121561016657610165610119565b5b5f6101738582860161013c565b92505060206101848582860161013c565b9150509250929050565b6101978161011d565b82525050565b5f6020820190506101b05f83018461018e565b92915050565b5f82825260208201905092915050565b7f622073686f756c642062652067726561746572207468616e20610000000000005f82015250565b5f6101fa601a836101b6565b9150610205826101c6565b602082019050919050565b5f6020820190508181035f830152610227816101ee565b9050919050565b7f4e487b71000000000000000000000000000000000000000000000000000000005f52601160045260245ffd5b5f6102658261011d565b91506102708361011d565b92508282039050818111156102885761028761022e565b5b92915050565b5f6102988261011d565b91506102a38361011d565b92508282019050808211156102bb576102ba61022e565b5b9291505056fea2646970667358221220e0314ea687ff8a958ca7c87cc2ecdb401433cb8ab1e4cb24c2b328c2fb263e5664736f6c634300081a0033",
					"opcodes": "PUSH2 0x2F7 PUSH2 0x4D PUSH1 0xB DUP3 DUP3 DUP3 CODECOPY DUP1 MLOAD PUSH0 BYTE PUSH1 0x73 EQ PUSH1 0x41 JUMPI PUSH32 0x4E487B7100000000000000000000000000000000000000000000000000000000 PUSH0 MSTORE PUSH0 PUSH1 0x4 MSTORE PUSH1 0x24 PUSH0 REVERT JUMPDEST ADDRESS PUSH0 MSTORE PUSH1 0x73 DUP2 MSTORE8 DUP3 DUP2 RETURN INVALID PUSH20 0x0 ADDRESS EQ PUSH1 0x80 PUSH1 0x40 MSTORE PUSH1 0x4 CALLDATASIZE LT PUSH2 0x3F JUMPI PUSH0 CALLDATALOAD PUSH1 0xE0 SHR DUP1 PUSH4 0x3EF5E445 EQ PUSH2 0x43 JUMPI DUP1 PUSH4 0x771602F7 EQ PUSH2 0x73 JUMPI JUMPDEST PUSH0 DUP1 REVERT JUMPDEST PUSH2 0x5D PUSH1 0x4 DUP1 CALLDATASIZE SUB DUP2 ADD SWAP1 PUSH2 0x58 SWAP2 SWAP1 PUSH2 0x150 JUMP JUMPDEST PUSH2 0xA3 JUMP JUMPDEST PUSH1 0x40 MLOAD PUSH2 0x6A SWAP2 SWAP1 PUSH2 0x19D JUMP JUMPDEST PUSH1 0x40 MLOAD DUP1 SWAP2 SUB SWAP1 RETURN JUMPDEST PUSH2 0x8D PUSH1 0x4 DUP1 CALLDATASIZE SUB DUP2 ADD SWAP1 PUSH2 0x88 SWAP2 SWAP1 PUSH2 0x150 JUMP JUMPDEST PUSH2 0xFF JUMP JUMPDEST PUSH1 0x40 MLOAD PUSH2 0x9A SWAP2 SWAP1 PUSH2 0x19D JUMP JUMPDEST PUSH1 0x40 MLOAD DUP1 SWAP2 SUB SWAP1 RETURN JUMPDEST PUSH0 DUP3 DUP3 GT PUSH2 0xE6 JUMPI PUSH1 0x40 MLOAD PUSH32 0x8C379A000000000000000000000000000000000000000000000000000000000 DUP2 MSTORE PUSH1 0x4 ADD PUSH2 0xDD SWAP1 PUSH2 0x210 JUMP JUMPDEST PUSH1 0x40 MLOAD DUP1 SWAP2 SUB SWAP1 REVERT JUMPDEST PUSH0 DUP4 DUP4 PUSH2 0xF3 SWAP2 SWAP1 PUSH2 0x25B JUMP JUMPDEST SWAP1 POP DUP1 SWAP2 POP POP SWAP3 SWAP2 POP POP JUMP JUMPDEST PUSH0 DUP1 DUP3 DUP5 PUSH2 0x10D SWAP2 SWAP1 PUSH2 0x28E JUMP JUMPDEST SWAP1 POP DUP1 SWAP2 POP POP SWAP3 SWAP2 POP POP JUMP JUMPDEST PUSH0 DUP1 REVERT JUMPDEST PUSH0 DUP2 SWAP1 POP SWAP2 SWAP1 POP JUMP JUMPDEST PUSH2 0x12F DUP2 PUSH2 0x11D JUMP JUMPDEST DUP2 EQ PUSH2 0x139 JUMPI PUSH0 DUP1 REVERT JUMPDEST POP JUMP JUMPDEST PUSH0 DUP2 CALLDATALOAD SWAP1 POP PUSH2 0x14A DUP2 PUSH2 0x126 JUMP JUMPDEST SWAP3 SWAP2 POP POP JUMP JUMPDEST PUSH0 DUP1 PUSH1 0x40 DUP4 DUP6 SUB SLT ISZERO PUSH2 0x166 JUMPI PUSH2 0x165 PUSH2 0x119 JUMP JUMPDEST JUMPDEST PUSH0 PUSH2 0x173 DUP6 DUP3 DUP7 ADD PUSH2 0x13C JUMP JUMPDEST SWAP3 POP POP PUSH1 0x20 PUSH2 0x184 DUP6 DUP3 DUP7 ADD PUSH2 0x13C JUMP JUMPDEST SWAP2 POP POP SWAP3 POP SWAP3 SWAP1 POP JUMP JUMPDEST PUSH2 0x197 DUP2 PUSH2 0x11D JUMP JUMPDEST DUP3 MSTORE POP POP JUMP JUMPDEST PUSH0 PUSH1 0x20 DUP3 ADD SWAP1 POP PUSH2 0x1B0 PUSH0 DUP4 ADD DUP5 PUSH2 0x18E JUMP JUMPDEST SWAP3 SWAP2 POP POP JUMP JUMPDEST PUSH0 DUP3 DUP3 MSTORE PUSH1 0x20 DUP3 ADD SWAP1 POP SWAP3 SWAP2 POP POP JUMP JUMPDEST PUSH32 0x622073686F756C642062652067726561746572207468616E2061000000000000 PUSH0 DUP3 ADD MSTORE POP JUMP JUMPDEST PUSH0 PUSH2 0x1FA PUSH1 0x1A DUP4 PUSH2 0x1B6 JUMP JUMPDEST SWAP2 POP PUSH2 0x205 DUP3 PUSH2 0x1C6 JUMP JUMPDEST PUSH1 0x20 DUP3 ADD SWAP1 POP SWAP2 SWAP1 POP JUMP JUMPDEST PUSH0 PUSH1 0x20 DUP3 ADD SWAP1 POP DUP2 DUP2 SUB PUSH0 DUP4 ADD MSTORE PUSH2 0x227 DUP2 PUSH2 0x1EE JUMP JUMPDEST SWAP1 POP SWAP2 SWAP1 POP JUMP JUMPDEST PUSH32 0x4E487B7100000000000000000000000000000000000000000000000000000000 PUSH0 MSTORE PUSH1 0x11 PUSH1 0x4 MSTORE PUSH1 0x24 PUSH0 REVERT JUMPDEST PUSH0 PUSH2 0x265 DUP3 PUSH2 0x11D JUMP JUMPDEST SWAP2 POP PUSH2 0x270 DUP4 PUSH2 0x11D JUMP JUMPDEST SWAP3 POP DUP3 DUP3 SUB SWAP1 POP DUP2 DUP2 GT ISZERO PUSH2 0x288 JUMPI PUSH2 0x287 PUSH2 0x22E JUMP JUMPDEST JUMPDEST SWAP3 SWAP2 POP POP JUMP JUMPDEST PUSH0 PUSH2 0x298 DUP3 PUSH2 0x11D JUMP JUMPDEST SWAP2 POP PUSH2 0x2A3 DUP4 PUSH2 0x11D JUMP JUMPDEST SWAP3 POP DUP3 DUP3 ADD SWAP1 POP DUP1 DUP3 GT ISZERO PUSH2 0x2BB JUMPI PUSH2 0x2BA PUSH2 0x22E JUMP JUMPDEST JUMPDEST SWAP3 SWAP2 POP POP JUMP INVALID LOG2 PUSH5 0x6970667358 0x22 SLT KECCAK256 0xE0 BALANCE 0x4E 0xA6 DUP8 SELFDESTRUCT DUP11 SWAP6 DUP13 0xA7 0xC8 PUSH29 0xC2ECDB401433CB8AB1E4CB24C2B328C2FB263E5664736F6C634300081A STOP CALLER "
				},
				"gasEstimates": {
					"creation": {
						"codeDepositCost": "151800",
						"executionCost": "222",
						"totalCost": "152022"
					},
					"external": {
						"add(uint256,uint256)": "infinite",
						"subtract(uint256,uint256)": "infinite"
					}
				},
				"methodIdentifiers": {
					"add(uint256,uint256)": "771602f7",
					"subtract(uint256,uint256)": "3ef5e445"
				}
			},
			"storageLayout": {
				"storage": [],
				"types": null
			},
			"userdoc": {
				"kind": "user",
				"methods": {},
				"version": 1
			}
		}
	}
}