{
	"contracts/Advanced/depositcontract.sol": {
		"depositContract": {
			"abi": [
				{
					"inputs": [],
					"stateMutability": "payable",
					"type": "constructor"
				},
				{
					"anonymous": false,
					"inputs": [
						{
							"indexed": false,
							"internalType": "address",
							"name": "ContractAdd",
							"type": "address"
						},
						{
							"indexed": false,
							"internalType": "uint256",
							"name": "amount",
							"type": "uint256"
						}
					],
					"name": "Moneysent",
					"type": "event"
				},
				{
					"inputs": [],
					"name": "deposit",
					"outputs": [],
					"stateMutability": "payable",
					"type": "function"
				},
				{
					"inputs": [],
					"name": "getContractBalance",
					"outputs": [
						{
							"internalType": "uint256",
							"name": "",
							"type": "uint256"
						}
					],
					"stateMutability": "view",
					"type": "function"
				},
				{
					"inputs": [],
					"name": "killContract",
					"outputs": [],
					"stateMutability": "nonpayable",
					"type": "function"
				}
			],
			"devdoc": {
				"kind": "dev",
				"methods": {},
				"version": 1
			},
			"evm": {
				"assembly": "    /* \"contracts/Advanced/depositcontract.sol\":60:721  contract depositContract{... */\n  mstore(0x40, 0x80)\n    /* \"contracts/Advanced/depositcontract.sol\":233:243  msg.sender */\n  caller\n    /* \"contracts/Advanced/depositcontract.sol\":225:230  owner */\n  0x00\n  dup1\n    /* \"contracts/Advanced/depositcontract.sol\":225:243  owner = msg.sender */\n  0x0100\n  exp\n  dup2\n  sload\n  dup2\n  0xffffffffffffffffffffffffffffffffffffffff\n  mul\n  not\n  and\n  swap1\n  dup4\n  0xffffffffffffffffffffffffffffffffffffffff\n  and\n  mul\n  or\n  swap1\n  sstore\n  pop\n    /* \"contracts/Advanced/depositcontract.sol\":60:721  contract depositContract{... */\n  dataSize(sub_0)\n  dup1\n  dataOffset(sub_0)\n  0x00\n  codecopy\n  0x00\n  return\nstop\n\nsub_0: assembly {\n        /* \"contracts/Advanced/depositcontract.sol\":60:721  contract depositContract{... */\n      mstore(0x40, 0x80)\n      jumpi(tag_1, lt(calldatasize, 0x04))\n      shr(0xe0, calldataload(0x00))\n      dup1\n      0x1c02708d\n      eq\n      tag_2\n      jumpi\n      dup1\n      0x6f9fb98a\n      eq\n      tag_3\n      jumpi\n      dup1\n      0xd0e30db0\n      eq\n      tag_4\n      jumpi\n    tag_1:\n      0x00\n      dup1\n      revert\n        /* \"contracts/Advanced/depositcontract.sol\":625:716  function killContract()public onlyOwner{... */\n    tag_2:\n      callvalue\n      dup1\n      iszero\n      tag_5\n      jumpi\n      0x00\n      dup1\n      revert\n    tag_5:\n      pop\n      tag_6\n      tag_7\n      jump\t// in\n    tag_6:\n      stop\n        /* \"contracts/Advanced/depositcontract.sol\":516:617  function getContractBalance()public view returns(uint){... */\n    tag_3:\n      callvalue\n      dup1\n      iszero\n      tag_8\n      jumpi\n      0x00\n      dup1\n      revert\n    tag_8:\n      pop\n      tag_9\n      tag_10\n      jump\t// in\n    tag_9:\n      mload(0x40)\n      tag_11\n      swap2\n      swap1\n      tag_12\n      jump\t// in\n    tag_11:\n      mload(0x40)\n      dup1\n      swap2\n      sub\n      swap1\n      return\n        /* \"contracts/Advanced/depositcontract.sol\":372:508  function deposit() public payable{... */\n    tag_4:\n      tag_13\n      tag_14\n      jump\t// in\n    tag_13:\n      stop\n        /* \"contracts/Advanced/depositcontract.sol\":625:716  function killContract()public onlyOwner{... */\n    tag_7:\n        /* \"contracts/Advanced/depositcontract.sol\":308:318  msg.sender */\n      caller\n        /* \"contracts/Advanced/depositcontract.sol\":299:318  owner == msg.sender */\n      0xffffffffffffffffffffffffffffffffffffffff\n      and\n        /* \"contracts/Advanced/depositcontract.sol\":299:304  owner */\n      0x00\n      dup1\n      sload\n      swap1\n      0x0100\n      exp\n      swap1\n      div\n      0xffffffffffffffffffffffffffffffffffffffff\n      and\n        /* \"contracts/Advanced/depositcontract.sol\":299:318  owner == msg.sender */\n      0xffffffffffffffffffffffffffffffffffffffff\n      and\n      eq\n        /* \"contracts/Advanced/depositcontract.sol\":291:344  require(owner == msg.sender,\"only owner is required\") */\n      tag_16\n      jumpi\n      mload(0x40)\n      0x08c379a000000000000000000000000000000000000000000000000000000000\n      dup2\n      mstore\n      0x04\n      add\n      tag_17\n      swap1\n      tag_18\n      jump\t// in\n    tag_17:\n      mload(0x40)\n      dup1\n      swap2\n      sub\n      swap1\n      revert\n    tag_16:\n        /* \"contracts/Advanced/depositcontract.sol\":696:706  msg.sender */\n      caller\n        /* \"contracts/Advanced/depositcontract.sol\":675:708  selfdestruct(payable(msg.sender)) */\n      0xffffffffffffffffffffffffffffffffffffffff\n      and\n      selfdestruct\n        /* \"contracts/Advanced/depositcontract.sol\":516:617  function getContractBalance()public view returns(uint){... */\n    tag_10:\n        /* \"contracts/Advanced/depositcontract.sol\":565:569  uint */\n      0x00\n        /* \"contracts/Advanced/depositcontract.sol\":588:609  address(this).balance */\n      selfbalance\n        /* \"contracts/Advanced/depositcontract.sol\":581:609  return address(this).balance */\n      swap1\n      pop\n        /* \"contracts/Advanced/depositcontract.sol\":516:617  function getContractBalance()public view returns(uint){... */\n      swap1\n      jump\t// out\n        /* \"contracts/Advanced/depositcontract.sol\":372:508  function deposit() public payable{... */\n    tag_14:\n        /* \"contracts/Advanced/depositcontract.sol\":428:437  msg.value */\n      callvalue\n        /* \"contracts/Advanced/depositcontract.sol\":416:424  balances */\n      0x01\n      0x00\n        /* \"contracts/Advanced/depositcontract.sol\":416:437  balances += msg.value */\n      dup3\n      dup3\n      sload\n      tag_22\n      swap2\n      swap1\n      tag_23\n      jump\t// in\n    tag_22:\n      swap3\n      pop\n      pop\n      dup2\n      swap1\n      sstore\n      pop\n        /* \"contracts/Advanced/depositcontract.sol\":453:500  Moneysent(address(this), address(this).balance) */\n      0x47606ec84a52c4e7d5514c3a93402dd435c73149ac80347864d42b817414d0a0\n        /* \"contracts/Advanced/depositcontract.sol\":471:475  this */\n      address\n        /* \"contracts/Advanced/depositcontract.sol\":478:499  address(this).balance */\n      selfbalance\n        /* \"contracts/Advanced/depositcontract.sol\":453:500  Moneysent(address(this), address(this).balance) */\n      mload(0x40)\n      tag_24\n      swap3\n      swap2\n      swap1\n      tag_25\n      jump\t// in\n    tag_24:\n      mload(0x40)\n      dup1\n      swap2\n      sub\n      swap1\n      log1\n        /* \"contracts/Advanced/depositcontract.sol\":372:508  function deposit() public payable{... */\n      jump\t// out\n        /* \"#utility.yul\":7:84   */\n    tag_26:\n        /* \"#utility.yul\":44:51   */\n      0x00\n        /* \"#utility.yul\":73:78   */\n      dup2\n        /* \"#utility.yul\":62:78   */\n      swap1\n      pop\n        /* \"#utility.yul\":7:84   */\n      swap2\n      swap1\n      pop\n      jump\t// out\n        /* \"#utility.yul\":90:208   */\n    tag_27:\n        /* \"#utility.yul\":177:201   */\n      tag_38\n        /* \"#utility.yul\":195:200   */\n      dup2\n        /* \"#utility.yul\":177:201   */\n      tag_26\n      jump\t// in\n    tag_38:\n        /* \"#utility.yul\":172:175   */\n      dup3\n        /* \"#utility.yul\":165:202   */\n      mstore\n        /* \"#utility.yul\":90:208   */\n      pop\n      pop\n      jump\t// out\n        /* \"#utility.yul\":214:436   */\n    tag_12:\n        /* \"#utility.yul\":307:311   */\n      0x00\n        /* \"#utility.yul\":345:347   */\n      0x20\n        /* \"#utility.yul\":334:343   */\n      dup3\n        /* \"#utility.yul\":330:348   */\n      add\n        /* \"#utility.yul\":322:348   */\n      swap1\n      pop\n        /* \"#utility.yul\":358:429   */\n      tag_40\n        /* \"#utility.yul\":426:427   */\n      0x00\n        /* \"#utility.yul\":415:424   */\n      dup4\n        /* \"#utility.yul\":411:428   */\n      add\n        /* \"#utility.yul\":402:408   */\n      dup5\n        /* \"#utility.yul\":358:429   */\n      tag_27\n      jump\t// in\n    tag_40:\n        /* \"#utility.yul\":214:436   */\n      swap3\n      swap2\n      pop\n      pop\n      jump\t// out\n        /* \"#utility.yul\":442:611   */\n    tag_28:\n        /* \"#utility.yul\":526:537   */\n      0x00\n        /* \"#utility.yul\":560:566   */\n      dup3\n        /* \"#utility.yul\":555:558   */\n      dup3\n        /* \"#utility.yul\":548:567   */\n      mstore\n        /* \"#utility.yul\":600:604   */\n      0x20\n        /* \"#utility.yul\":595:598   */\n      dup3\n        /* \"#utility.yul\":591:605   */\n      add\n        /* \"#utility.yul\":576:605   */\n      swap1\n      pop\n        /* \"#utility.yul\":442:611   */\n      swap3\n      swap2\n      pop\n      pop\n      jump\t// out\n        /* \"#utility.yul\":617:789   */\n    tag_29:\n        /* \"#utility.yul\":757:781   */\n      0x6f6e6c79206f776e657220697320726571756972656400000000000000000000\n        /* \"#utility.yul\":753:754   */\n      0x00\n        /* \"#utility.yul\":745:751   */\n      dup3\n        /* \"#utility.yul\":741:755   */\n      add\n        /* \"#utility.yul\":734:782   */\n      mstore\n        /* \"#utility.yul\":617:789   */\n      pop\n      jump\t// out\n        /* \"#utility.yul\":795:1161   */\n    tag_30:\n        /* \"#utility.yul\":937:940   */\n      0x00\n        /* \"#utility.yul\":958:1025   */\n      tag_44\n        /* \"#utility.yul\":1022:1024   */\n      0x16\n        /* \"#utility.yul\":1017:1020   */\n      dup4\n        /* \"#utility.yul\":958:1025   */\n      tag_28\n      jump\t// in\n    tag_44:\n        /* \"#utility.yul\":951:1025   */\n      swap2\n      pop\n        /* \"#utility.yul\":1034:1127   */\n      tag_45\n        /* \"#utility.yul\":1123:1126   */\n      dup3\n        /* \"#utility.yul\":1034:1127   */\n      tag_29\n      jump\t// in\n    tag_45:\n        /* \"#utility.yul\":1152:1154   */\n      0x20\n        /* \"#utility.yul\":1147:1150   */\n      dup3\n        /* \"#utility.yul\":1143:1155   */\n      add\n        /* \"#utility.yul\":1136:1155   */\n      swap1\n      pop\n        /* \"#utility.yul\":795:1161   */\n      swap2\n      swap1\n      pop\n      jump\t// out\n        /* \"#utility.yul\":1167:1586   */\n    tag_18:\n        /* \"#utility.yul\":1333:1337   */\n      0x00\n        /* \"#utility.yul\":1371:1373   */\n      0x20\n        /* \"#utility.yul\":1360:1369   */\n      dup3\n        /* \"#utility.yul\":1356:1374   */\n      add\n        /* \"#utility.yul\":1348:1374   */\n      swap1\n      pop\n        /* \"#utility.yul\":1420:1429   */\n      dup2\n        /* \"#utility.yul\":1414:1418   */\n      dup2\n        /* \"#utility.yul\":1410:1430   */\n      sub\n        /* \"#utility.yul\":1406:1407   */\n      0x00\n        /* \"#utility.yul\":1395:1404   */\n      dup4\n        /* \"#utility.yul\":1391:1408   */\n      add\n        /* \"#utility.yul\":1384:1431   */\n      mstore\n        /* \"#utility.yul\":1448:1579   */\n      tag_47\n        /* \"#utility.yul\":1574:1578   */\n      dup2\n        /* \"#utility.yul\":1448:1579   */\n      tag_30\n      jump\t// in\n    tag_47:\n        /* \"#utility.yul\":1440:1579   */\n      swap1\n      pop\n        /* \"#utility.yul\":1167:1586   */\n      swap2\n      swap1\n      pop\n      jump\t// out\n        /* \"#utility.yul\":1592:1772   */\n    tag_31:\n        /* \"#utility.yul\":1640:1717   */\n      0x4e487b7100000000000000000000000000000000000000000000000000000000\n        /* \"#utility.yul\":1637:1638   */\n      0x00\n        /* \"#utility.yul\":1630:1718   */\n      mstore\n        /* \"#utility.yul\":1737:1741   */\n      0x11\n        /* \"#utility.yul\":1734:1735   */\n      0x04\n        /* \"#utility.yul\":1727:1742   */\n      mstore\n        /* \"#utility.yul\":1761:1765   */\n      0x24\n        /* \"#utility.yul\":1758:1759   */\n      0x00\n        /* \"#utility.yul\":1751:1766   */\n      revert\n        /* \"#utility.yul\":1778:1969   */\n    tag_23:\n        /* \"#utility.yul\":1818:1821   */\n      0x00\n        /* \"#utility.yul\":1837:1857   */\n      tag_50\n        /* \"#utility.yul\":1855:1856   */\n      dup3\n        /* \"#utility.yul\":1837:1857   */\n      tag_26\n      jump\t// in\n    tag_50:\n        /* \"#utility.yul\":1832:1857   */\n      swap2\n      pop\n        /* \"#utility.yul\":1871:1891   */\n      tag_51\n        /* \"#utility.yul\":1889:1890   */\n      dup4\n        /* \"#utility.yul\":1871:1891   */\n      tag_26\n      jump\t// in\n    tag_51:\n        /* \"#utility.yul\":1866:1891   */\n      swap3\n      pop\n        /* \"#utility.yul\":1914:1915   */\n      dup3\n        /* \"#utility.yul\":1911:1912   */\n      dup3\n        /* \"#utility.yul\":1907:1916   */\n      add\n        /* \"#utility.yul\":1900:1916   */\n      swap1\n      pop\n        /* \"#utility.yul\":1935:1938   */\n      dup1\n        /* \"#utility.yul\":1932:1933   */\n      dup3\n        /* \"#utility.yul\":1929:1939   */\n      gt\n        /* \"#utility.yul\":1926:1962   */\n      iszero\n      tag_52\n      jumpi\n        /* \"#utility.yul\":1942:1960   */\n      tag_53\n      tag_31\n      jump\t// in\n    tag_53:\n        /* \"#utility.yul\":1926:1962   */\n    tag_52:\n        /* \"#utility.yul\":1778:1969   */\n      swap3\n      swap2\n      pop\n      pop\n      jump\t// out\n        /* \"#utility.yul\":1975:2101   */\n    tag_32:\n        /* \"#utility.yul\":2012:2019   */\n      0x00\n        /* \"#utility.yul\":2052:2094   */\n      0xffffffffffffffffffffffffffffffffffffffff\n        /* \"#utility.yul\":2045:2050   */\n      dup3\n        /* \"#utility.yul\":2041:2095   */\n      and\n        /* \"#utility.yul\":2030:2095   */\n      swap1\n      pop\n        /* \"#utility.yul\":1975:2101   */\n      swap2\n      swap1\n      pop\n      jump\t// out\n        /* \"#utility.yul\":2107:2203   */\n    tag_33:\n        /* \"#utility.yul\":2144:2151   */\n      0x00\n        /* \"#utility.yul\":2173:2197   */\n      tag_56\n        /* \"#utility.yul\":2191:2196   */\n      dup3\n        /* \"#utility.yul\":2173:2197   */\n      tag_32\n      jump\t// in\n    tag_56:\n        /* \"#utility.yul\":2162:2197   */\n      swap1\n      pop\n        /* \"#utility.yul\":2107:2203   */\n      swap2\n      swap1\n      pop\n      jump\t// out\n        /* \"#utility.yul\":2209:2327   */\n    tag_34:\n        /* \"#utility.yul\":2296:2320   */\n      tag_58\n        /* \"#utility.yul\":2314:2319   */\n      dup2\n        /* \"#utility.yul\":2296:2320   */\n      tag_33\n      jump\t// in\n    tag_58:\n        /* \"#utility.yul\":2291:2294   */\n      dup3\n        /* \"#utility.yul\":2284:2321   */\n      mstore\n        /* \"#utility.yul\":2209:2327   */\n      pop\n      pop\n      jump\t// out\n        /* \"#utility.yul\":2333:2665   */\n    tag_25:\n        /* \"#utility.yul\":2454:2458   */\n      0x00\n        /* \"#utility.yul\":2492:2494   */\n      0x40\n        /* \"#utility.yul\":2481:2490   */\n      dup3\n        /* \"#utility.yul\":2477:2495   */\n      add\n        /* \"#utility.yul\":2469:2495   */\n      swap1\n      pop\n        /* \"#utility.yul\":2505:2576   */\n      tag_60\n        /* \"#utility.yul\":2573:2574   */\n      0x00\n        /* \"#utility.yul\":2562:2571   */\n      dup4\n        /* \"#utility.yul\":2558:2575   */\n      add\n        /* \"#utility.yul\":2549:2555   */\n      dup6\n        /* \"#utility.yul\":2505:2576   */\n      tag_34\n      jump\t// in\n    tag_60:\n        /* \"#utility.yul\":2586:2658   */\n      tag_61\n        /* \"#utility.yul\":2654:2656   */\n      0x20\n        /* \"#utility.yul\":2643:2652   */\n      dup4\n        /* \"#utility.yul\":2639:2657   */\n      add\n        /* \"#utility.yul\":2630:2636   */\n      dup5\n        /* \"#utility.yul\":2586:2658   */\n      tag_27\n      jump\t// in\n    tag_61:\n        /* \"#utility.yul\":2333:2665   */\n      swap4\n      swap3\n      pop\n      pop\n      pop\n      jump\t// out\n\n    auxdata: 0xa26469706673582212207cab6854d7db2a013f5a791140856e3e089ecbdb66e5d974b4caa8d81403687564736f6c634300081a0033\n}\n",
				"bytecode": {
					"linkReferences": {},
					"object": "6080604052335f806101000a81548173ffffffffffffffffffffffffffffffffffffffff021916908373ffffffffffffffffffffffffffffffffffffffff160217905550610326806100505f395ff3fe608060405260043610610033575f3560e01c80631c02708d146100375780636f9fb98a1461004d578063d0e30db014610077575b5f80fd5b348015610042575f80fd5b5061004b610081565b005b348015610058575f80fd5b50610061610127565b60405161006e9190610199565b60405180910390f35b61007f61012e565b005b3373ffffffffffffffffffffffffffffffffffffffff165f8054906101000a900473ffffffffffffffffffffffffffffffffffffffff1673ffffffffffffffffffffffffffffffffffffffff161461010e576040517f08c379a00000000000000000000000000000000000000000000000000000000081526004016101059061020c565b60405180910390fd5b3373ffffffffffffffffffffffffffffffffffffffff16ff5b5f47905090565b3460015f82825461013f9190610257565b925050819055507f47606ec84a52c4e7d5514c3a93402dd435c73149ac80347864d42b817414d0a030476040516101779291906102c9565b60405180910390a1565b5f819050919050565b61019381610181565b82525050565b5f6020820190506101ac5f83018461018a565b92915050565b5f82825260208201905092915050565b7f6f6e6c79206f776e6572206973207265717569726564000000000000000000005f82015250565b5f6101f66016836101b2565b9150610201826101c2565b602082019050919050565b5f6020820190508181035f830152610223816101ea565b9050919050565b7f4e487b71000000000000000000000000000000000000000000000000000000005f52601160045260245ffd5b5f61026182610181565b915061026c83610181565b92508282019050808211156102845761028361022a565b5b92915050565b5f73ffffffffffffffffffffffffffffffffffffffff82169050919050565b5f6102b38261028a565b9050919050565b6102c3816102a9565b82525050565b5f6040820190506102dc5f8301856102ba565b6102e9602083018461018a565b939250505056fea26469706673582212207cab6854d7db2a013f5a791140856e3e089ecbdb66e5d974b4caa8d81403687564736f6c634300081a0033",
					"opcodes": "PUSH1 0x80 PUSH1 0x40 MSTORE CALLER PUSH0 DUP1 PUSH2 0x100 EXP DUP2 SLOAD DUP2 PUSH20 0xFFFFFFFFFFFFFFFFFFFFFFFFFFFFFFFFFFFFFFFF MUL NOT AND SWAP1 DUP4 PUSH20 0xFFFFFFFFFFFFFFFFFFFFFFFFFFFFFFFFFFFFFFFF AND MUL OR SWAP1 SSTORE POP PUSH2 0x326 DUP1 PUSH2 0x50 PUSH0 CODECOPY PUSH0 RETURN INVALID PUSH1 0x80 PUSH1 0x40 MSTORE PUSH1 0x4 CALLDATASIZE LT PUSH2 0x33 JUMPI PUSH0 CALLDATALOAD PUSH1 0xE0 SHR DUP1 PUSH4 0x1C02708D EQ PUSH2 0x37 JUMPI DUP1 PUSH4 0x6F9FB98A EQ PUSH2 0x4D JUMPI DUP1 PUSH4 0xD0E30DB0 EQ PUSH2 0x77 JUMPI JUMPDEST PUSH0 DUP1 REVERT JUMPDEST CALLVALUE DUP1 ISZERO PUSH2 0x42 JUMPI PUSH0 DUP1 REVERT JUMPDEST POP PUSH2 0x4B PUSH2 0x81 JUMP JUMPDEST STOP JUMPDEST CALLVALUE DUP1 ISZERO PUSH2 0x58 JUMPI PUSH0 DUP1 REVERT JUMPDEST POP PUSH2 0x61 PUSH2 0x127 JUMP JUMPDEST PUSH1 0x40 MLOAD PUSH2 0x6E SWAP2 SWAP1 PUSH2 0x199 JUMP JUMPDEST PUSH1 0x40 MLOAD DUP1 SWAP2 SUB SWAP1 RETURN JUMPDEST PUSH2 0x7F PUSH2 0x12E JUMP JUMPDEST STOP JUMPDEST CALLER PUSH20 0xFFFFFFFFFFFFFFFFFFFFFFFFFFFFFFFFFFFFFFFF AND PUSH0 DUP1 SLOAD SWAP1 PUSH2 0x100 EXP SWAP1 DIV PUSH20 0xFFFFFFFFFFFFFFFFFFFFFFFFFFFFFFFFFFFFFFFF AND PUSH20 0xFFFFFFFFFFFFFFFFFFFFFFFFFFFFFFFFFFFFFFFF AND EQ PUSH2 0x10E JUMPI PUSH1 0x40 MLOAD PUSH32 0x8C379A000000000000000000000000000000000000000000000000000000000 DUP2 MSTORE PUSH1 0x4 ADD PUSH2 0x105 SWAP1 PUSH2 0x20C JUMP JUMPDEST PUSH1 0x40 MLOAD DUP1 SWAP2 SUB SWAP1 REVERT JUMPDEST CALLER PUSH20 0xFFFFFFFFFFFFFFFFFFFFFFFFFFFFFFFFFFFFFFFF AND SELFDESTRUCT JUMPDEST PUSH0 SELFBALANCE SWAP1 POP SWAP1 JUMP JUMPDEST CALLVALUE PUSH1 0x1 PUSH0 DUP3 DUP3 SLOAD PUSH2 0x13F SWAP2 SWAP1 PUSH2 0x257 JUMP JUMPDEST SWAP3 POP POP DUP2 SWAP1 SSTORE POP PUSH32 0x47606EC84A52C4E7D5514C3A93402DD435C73149AC80347864D42B817414D0A0 ADDRESS SELFBALANCE PUSH1 0x40 MLOAD PUSH2 0x177 SWAP3 SWAP2 SWAP1 PUSH2 0x2C9 JUMP JUMPDEST PUSH1 0x40 MLOAD DUP1 SWAP2 SUB SWAP1 LOG1 JUMP JUMPDEST PUSH0 DUP2 SWAP1 POP SWAP2 SWAP1 POP JUMP JUMPDEST PUSH2 0x193 DUP2 PUSH2 0x181 JUMP JUMPDEST DUP3 MSTORE POP POP JUMP JUMPDEST PUSH0 PUSH1 0x20 DUP3 ADD SWAP1 POP PUSH2 0x1AC PUSH0 DUP4 ADD DUP5 PUSH2 0x18A JUMP JUMPDEST SWAP3 SWAP2 POP POP JUMP JUMPDEST PUSH0 DUP3 DUP3 MSTORE PUSH1 0x20 DUP3 ADD SWAP1 POP SWAP3 SWAP2 POP POP JUMP JUMPDEST PUSH32 0x6F6E6C79206F776E657220697320726571756972656400000000000000000000 PUSH0 DUP3 ADD MSTORE POP JUMP JUMPDEST PUSH0 PUSH2 0x1F6 PUSH1 0x16 DUP4 PUSH2 0x1B2 JUMP JUMPDEST SWAP2 POP PUSH2 0x201 DUP3 PUSH2 0x1C2 JUMP JUMPDEST PUSH1 0x20 DUP3 ADD SWAP1 POP SWAP2 SWAP1 POP JUMP JUMPDEST PUSH0 PUSH1 0x20 DUP3 ADD SWAP1 POP DUP2 DUP2 SUB PUSH0 DUP4 ADD MSTORE PUSH2 0x223 DUP2 PUSH2 0x1EA JUMP JUMPDEST SWAP1 POP SWAP2 SWAP1 POP JUMP JUMPDEST PUSH32 0x4E487B7100000000000000000000000000000000000000000000000000000000 PUSH0 MSTORE PUSH1 0x11 PUSH1 0x4 MSTORE PUSH1 0x24 PUSH0 REVERT JUMPDEST PUSH0 PUSH2 0x261 DUP3 PUSH2 0x181 JUMP JUMPDEST SWAP2 POP PUSH2 0x26C DUP4 PUSH2 0x181 JUMP JUMPDEST SWAP3 POP DUP3 DUP3 ADD SWAP1 POP DUP1 DUP3 GT ISZERO PUSH2 0x284 JUMPI PUSH2 0x283 PUSH2 0x22A JUMP JUMPDEST JUMPDEST SWAP3 SWAP2 POP POP JUMP JUMPDEST PUSH0 PUSH20 0xFFFFFFFFFFFFFFFFFFFFFFFFFFFFFFFFFFFFFFFF DUP3 AND SWAP1 POP SWAP2 SWAP1 POP JUMP JUMPDEST PUSH0 PUSH2 0x2B3 DUP3 PUSH2 0x28A JUMP JUMPDEST SWAP1 POP SWAP2 SWAP1 POP JUMP JUMPDEST PUSH2 0x2C3 DUP2 PUSH2 0x2A9 JUMP JUMPDEST DUP3 MSTORE POP POP JUMP JUMPDEST PUSH0 PUSH1 0x40 DUP3 ADD SWAP1 POP PUSH2 0x2DC PUSH0 DUP4 ADD DUP6 PUSH2 0x2BA JUMP JUMPDEST PUSH2 0x2E9 PUSH1 0x20 DUP4 ADD DUP5 PUSH2 0x18A JUMP JUMPDEST SWAP4 SWAP3 POP POP POP JUMP INVALID LOG2 PUSH5 0x6970667358 0x22 SLT KECCAK256 PUSH29 0xAB6854D7DB2A013F5A791140856E3E089ECBDB66E5D974B4CAA8D81403 PUSH9 0x7564736F6C63430008 BYTE STOP CALLER "
				},
				"gasEstimates": {
					"creation": {
						"codeDepositCost": "161200",
						"executionCost": "24447",
						"totalCost": "185647"
					},
					"external": {
						"deposit()": "infinite",
						"getContractBalance()": "334",
						"killContract()": "29886"
					}
				},
				"methodIdentifiers": {
					"deposit()": "d0e30db0",
					"getContractBalance()": "6f9fb98a",
					"killContract()": "1c02708d"
				}
			},
			"storageLayout": {
				"storage": [
					{
						"astId": 3,
						"contract": "contracts/Advanced/depositcontract.sol:depositContract",
						"label": "owner",
						"offset": 0,
						"slot": "0",
						"type": "t_address"
					},
					{
						"astId": 5,
						"contract": "contracts/Advanced/depositcontract.sol:depositContract",
						"label": "balances",
						"offset": 0,
						"slot": "1",
						"type": "t_uint256"
					}
				],
				"types": {
					"t_address": {
						"encoding": "inplace",
						"label": "address",
						"numberOfBytes": "20"
					},
					"t_uint256": {
						"encoding": "inplace",
						"label": "uint256",
						"numberOfBytes": "32"
					}
				}
			},
			"userdoc": {
				"kind": "user",
				"methods": {},
				"version": 1
			}
		}
	}
}