{
	"contracts/Advanced/simplebank.sol": {
		"SimpleBank": {
			"abi": [
				{
					"inputs": [],
					"stateMutability": "payable",
					"type": "constructor"
				},
				{
					"anonymous": false,
					"inputs": [
						{
							"indexed": false,
							"internalType": "address",
							"name": "accountHolder",
							"type": "address"
						},
						{
							"indexed": false,
							"internalType": "uint256",
							"name": "deposit",
							"type": "uint256"
						},
						{
							"indexed": false,
							"internalType": "uint256",
							"name": "newBalance",
							"type": "uint256"
						}
					],
					"name": "VaultDeposit",
					"type": "event"
				},
				{
					"anonymous": false,
					"inputs": [
						{
							"indexed": false,
							"internalType": "address",
							"name": "accountHolder",
							"type": "address"
						},
						{
							"indexed": false,
							"internalType": "uint256",
							"name": "withdrawal",
							"type": "uint256"
						},
						{
							"indexed": false,
							"internalType": "uint256",
							"name": "newBalance",
							"type": "uint256"
						}
					],
					"name": "VaultWithdrawal",
					"type": "event"
				},
				{
					"inputs": [],
					"name": "deposit",
					"outputs": [],
					"stateMutability": "payable",
					"type": "function"
				},
				{
					"inputs": [],
					"name": "getBalance",
					"outputs": [
						{
							"internalType": "uint256",
							"name": "",
							"type": "uint256"
						}
					],
					"stateMutability": "view",
					"type": "function"
				},
				{
					"inputs": [],
					"name": "vaultBalance",
					"outputs": [
						{
							"internalType": "uint256",
							"name": "",
							"type": "uint256"
						}
					],
					"stateMutability": "view",
					"type": "function"
				},
				{
					"inputs": [
						{
							"internalType": "uint256",
							"name": "amount",
							"type": "uint256"
						}
					],
					"name": "withdraw",
					"outputs": [
						{
							"internalType": "bool",
							"name": "",
							"type": "bool"
						}
					],
					"stateMutability": "payable",
					"type": "function"
				}
			],
			"devdoc": {
				"kind": "dev",
				"methods": {},
				"version": 1
			},
			"evm": {
				"assembly": "    /* \"contracts/Advanced/simplebank.sol\":61:1505  contract SimpleBank {... */\n  mstore(0x40, 0x80)\n    /* \"contracts/Advanced/simplebank.sol\":398:408  msg.sender */\n  caller\n    /* \"contracts/Advanced/simplebank.sol\":374:387  contractOwner */\n  0x01\n  0x00\n    /* \"contracts/Advanced/simplebank.sol\":374:409  contractOwner = payable(msg.sender) */\n  0x0100\n  exp\n  dup2\n  sload\n  dup2\n  0xffffffffffffffffffffffffffffffffffffffff\n  mul\n  not\n  and\n  swap1\n  dup4\n  0xffffffffffffffffffffffffffffffffffffffff\n  and\n  mul\n  or\n  swap1\n  sstore\n  pop\n    /* \"contracts/Advanced/simplebank.sol\":61:1505  contract SimpleBank {... */\n  dataSize(sub_0)\n  dup1\n  dataOffset(sub_0)\n  0x00\n  codecopy\n  0x00\n  return\nstop\n\nsub_0: assembly {\n        /* \"contracts/Advanced/simplebank.sol\":61:1505  contract SimpleBank {... */\n      mstore(0x40, 0x80)\n      jumpi(tag_1, lt(calldatasize, 0x04))\n      shr(0xe0, calldataload(0x00))\n      dup1\n      0x0bf6cc08\n      eq\n      tag_2\n      jumpi\n      dup1\n      0x12065fe0\n      eq\n      tag_3\n      jumpi\n      dup1\n      0x2e1a7d4d\n      eq\n      tag_4\n      jumpi\n      dup1\n      0xd0e30db0\n      eq\n      tag_5\n      jumpi\n    tag_1:\n      0x00\n      dup1\n      revert\n        /* \"contracts/Advanced/simplebank.sol\":1392:1500  function vaultBalance() public view onlyOwner returns (uint) {... */\n    tag_2:\n      callvalue\n      dup1\n      iszero\n      tag_6\n      jumpi\n      0x00\n      dup1\n      revert\n    tag_6:\n      pop\n      tag_7\n      tag_8\n      jump\t// in\n    tag_7:\n      mload(0x40)\n      tag_9\n      swap2\n      swap1\n      tag_10\n      jump\t// in\n    tag_9:\n      mload(0x40)\n      dup1\n      swap2\n      sub\n      swap1\n      return\n        /* \"contracts/Advanced/simplebank.sol\":1286:1384  function getBalance() public view returns (uint) {... */\n    tag_3:\n      callvalue\n      dup1\n      iszero\n      tag_11\n      jumpi\n      0x00\n      dup1\n      revert\n    tag_11:\n      pop\n      tag_12\n      tag_13\n      jump\t// in\n    tag_12:\n      mload(0x40)\n      tag_14\n      swap2\n      swap1\n      tag_10\n      jump\t// in\n    tag_14:\n      mload(0x40)\n      dup1\n      swap2\n      sub\n      swap1\n      return\n        /* \"contracts/Advanced/simplebank.sol\":870:1278  function withdraw(uint amount) public payable returns (bool) {... */\n    tag_4:\n      tag_15\n      0x04\n      dup1\n      calldatasize\n      sub\n      dup2\n      add\n      swap1\n      tag_16\n      swap2\n      swap1\n      tag_17\n      jump\t// in\n    tag_16:\n      tag_18\n      jump\t// in\n    tag_15:\n      mload(0x40)\n      tag_19\n      swap2\n      swap1\n      tag_20\n      jump\t// in\n    tag_19:\n      mload(0x40)\n      dup1\n      swap2\n      sub\n      swap1\n      return\n        /* \"contracts/Advanced/simplebank.sol\":554:862  function deposit() public payable {... */\n    tag_5:\n      tag_21\n      tag_22\n      jump\t// in\n    tag_21:\n      stop\n        /* \"contracts/Advanced/simplebank.sol\":1392:1500  function vaultBalance() public view onlyOwner returns (uint) {... */\n    tag_8:\n        /* \"contracts/Advanced/simplebank.sol\":1447:1451  uint */\n      0x00\n        /* \"contracts/Advanced/simplebank.sol\":482:492  msg.sender */\n      caller\n        /* \"contracts/Advanced/simplebank.sol\":465:492  contractOwner == msg.sender */\n      0xffffffffffffffffffffffffffffffffffffffff\n      and\n        /* \"contracts/Advanced/simplebank.sol\":465:478  contractOwner */\n      0x01\n      0x00\n      swap1\n      sload\n      swap1\n      0x0100\n      exp\n      swap1\n      div\n      0xffffffffffffffffffffffffffffffffffffffff\n      and\n        /* \"contracts/Advanced/simplebank.sol\":465:492  contractOwner == msg.sender */\n      0xffffffffffffffffffffffffffffffffffffffff\n      and\n      eq\n        /* \"contracts/Advanced/simplebank.sol\":457:526  require(contractOwner == msg.sender, \"Only Bank Owner is authorized\") */\n      tag_24\n      jumpi\n      mload(0x40)\n      0x08c379a000000000000000000000000000000000000000000000000000000000\n      dup2\n      mstore\n      0x04\n      add\n      tag_25\n      swap1\n      tag_26\n      jump\t// in\n    tag_25:\n      mload(0x40)\n      dup1\n      swap2\n      sub\n      swap1\n      revert\n    tag_24:\n        /* \"contracts/Advanced/simplebank.sol\":1471:1492  address(this).balance */\n      selfbalance\n        /* \"contracts/Advanced/simplebank.sol\":1464:1492  return address(this).balance */\n      swap1\n      pop\n        /* \"contracts/Advanced/simplebank.sol\":1392:1500  function vaultBalance() public view onlyOwner returns (uint) {... */\n      swap1\n      jump\t// out\n        /* \"contracts/Advanced/simplebank.sol\":1286:1384  function getBalance() public view returns (uint) {... */\n    tag_13:\n        /* \"contracts/Advanced/simplebank.sol\":1329:1333  uint */\n      0x00\n        /* \"contracts/Advanced/simplebank.sol\":1353:1364  bankBalance */\n      dup1\n        /* \"contracts/Advanced/simplebank.sol\":1353:1376  bankBalance[msg.sender] */\n      0x00\n        /* \"contracts/Advanced/simplebank.sol\":1365:1375  msg.sender */\n      caller\n        /* \"contracts/Advanced/simplebank.sol\":1353:1376  bankBalance[msg.sender] */\n      0xffffffffffffffffffffffffffffffffffffffff\n      and\n      0xffffffffffffffffffffffffffffffffffffffff\n      and\n      dup2\n      mstore\n      0x20\n      add\n      swap1\n      dup2\n      mstore\n      0x20\n      add\n      0x00\n      keccak256\n      sload\n        /* \"contracts/Advanced/simplebank.sol\":1346:1376  return bankBalance[msg.sender] */\n      swap1\n      pop\n        /* \"contracts/Advanced/simplebank.sol\":1286:1384  function getBalance() public view returns (uint) {... */\n      swap1\n      jump\t// out\n        /* \"contracts/Advanced/simplebank.sol\":870:1278  function withdraw(uint amount) public payable returns (bool) {... */\n    tag_18:\n        /* \"contracts/Advanced/simplebank.sol\":925:929  bool */\n      0x00\n        /* \"contracts/Advanced/simplebank.sol\":960:971  bankBalance */\n      dup1\n        /* \"contracts/Advanced/simplebank.sol\":960:983  bankBalance[msg.sender] */\n      0x00\n        /* \"contracts/Advanced/simplebank.sol\":972:982  msg.sender */\n      caller\n        /* \"contracts/Advanced/simplebank.sol\":960:983  bankBalance[msg.sender] */\n      0xffffffffffffffffffffffffffffffffffffffff\n      and\n      0xffffffffffffffffffffffffffffffffffffffff\n      and\n      dup2\n      mstore\n      0x20\n      add\n      swap1\n      dup2\n      mstore\n      0x20\n      add\n      0x00\n      keccak256\n      sload\n        /* \"contracts/Advanced/simplebank.sol\":950:956  amount */\n      dup3\n        /* \"contracts/Advanced/simplebank.sol\":950:983  amount <= bankBalance[msg.sender] */\n      gt\n      iszero\n        /* \"contracts/Advanced/simplebank.sol\":942:1018  require(amount <= bankBalance[msg.sender], \"Subtraction: balance underflow\") */\n      tag_30\n      jumpi\n      mload(0x40)\n      0x08c379a000000000000000000000000000000000000000000000000000000000\n      dup2\n      mstore\n      0x04\n      add\n      tag_31\n      swap1\n      tag_32\n      jump\t// in\n    tag_31:\n      mload(0x40)\n      dup1\n      swap2\n      sub\n      swap1\n      revert\n    tag_30:\n        /* \"contracts/Advanced/simplebank.sol\":1056:1062  amount */\n      dup2\n        /* \"contracts/Advanced/simplebank.sol\":1029:1040  bankBalance */\n      0x00\n        /* \"contracts/Advanced/simplebank.sol\":1029:1052  bankBalance[msg.sender] */\n      dup1\n        /* \"contracts/Advanced/simplebank.sol\":1041:1051  msg.sender */\n      caller\n        /* \"contracts/Advanced/simplebank.sol\":1029:1052  bankBalance[msg.sender] */\n      0xffffffffffffffffffffffffffffffffffffffff\n      and\n      0xffffffffffffffffffffffffffffffffffffffff\n      and\n      dup2\n      mstore\n      0x20\n      add\n      swap1\n      dup2\n      mstore\n      0x20\n      add\n      0x00\n      keccak256\n      0x00\n        /* \"contracts/Advanced/simplebank.sol\":1029:1062  bankBalance[msg.sender] -= amount */\n      dup3\n      dup3\n      sload\n      tag_33\n      swap2\n      swap1\n      tag_34\n      jump\t// in\n    tag_33:\n      swap3\n      pop\n      pop\n      dup2\n      swap1\n      sstore\n      pop\n        /* \"contracts/Advanced/simplebank.sol\":1078:1138  VaultWithdrawal(msg.sender, amount, bankBalance[msg.sender]) */\n      0x8f16a277f4ff62d0edb61adc92358c03a719d48e56e9e06be7c1be11af5fb100\n        /* \"contracts/Advanced/simplebank.sol\":1094:1104  msg.sender */\n      caller\n        /* \"contracts/Advanced/simplebank.sol\":1106:1112  amount */\n      dup4\n        /* \"contracts/Advanced/simplebank.sol\":1114:1125  bankBalance */\n      0x00\n        /* \"contracts/Advanced/simplebank.sol\":1114:1137  bankBalance[msg.sender] */\n      dup1\n        /* \"contracts/Advanced/simplebank.sol\":1126:1136  msg.sender */\n      caller\n        /* \"contracts/Advanced/simplebank.sol\":1114:1137  bankBalance[msg.sender] */\n      0xffffffffffffffffffffffffffffffffffffffff\n      and\n      0xffffffffffffffffffffffffffffffffffffffff\n      and\n      dup2\n      mstore\n      0x20\n      add\n      swap1\n      dup2\n      mstore\n      0x20\n      add\n      0x00\n      keccak256\n      sload\n        /* \"contracts/Advanced/simplebank.sol\":1078:1138  VaultWithdrawal(msg.sender, amount, bankBalance[msg.sender]) */\n      mload(0x40)\n      tag_35\n      swap4\n      swap3\n      swap2\n      swap1\n      tag_36\n      jump\t// in\n    tag_35:\n      mload(0x40)\n      dup1\n      swap2\n      sub\n      swap1\n      log1\n        /* \"contracts/Advanced/simplebank.sol\":1150:1162  bool success */\n      0x00\n        /* \"contracts/Advanced/simplebank.sol\":1168:1178  msg.sender */\n      caller\n        /* \"contracts/Advanced/simplebank.sol\":1168:1183  msg.sender.call */\n      0xffffffffffffffffffffffffffffffffffffffff\n      and\n        /* \"contracts/Advanced/simplebank.sol\":1191:1197  amount */\n      dup4\n        /* \"contracts/Advanced/simplebank.sol\":1168:1202  msg.sender.call{value: amount}(\"\") */\n      mload(0x40)\n      tag_37\n      swap1\n      tag_38\n      jump\t// in\n    tag_37:\n      0x00\n      mload(0x40)\n      dup1\n      dup4\n      sub\n      dup2\n      dup6\n      dup8\n      gas\n      call\n      swap3\n      pop\n      pop\n      pop\n      returndatasize\n      dup1\n      0x00\n      dup2\n      eq\n      tag_41\n      jumpi\n      mload(0x40)\n      swap2\n      pop\n      and(add(returndatasize, 0x3f), not(0x1f))\n      dup3\n      add\n      0x40\n      mstore\n      returndatasize\n      dup3\n      mstore\n      returndatasize\n      0x00\n      0x20\n      dup5\n      add\n      returndatacopy\n      jump(tag_40)\n    tag_41:\n      0x60\n      swap2\n      pop\n    tag_40:\n      pop\n        /* \"contracts/Advanced/simplebank.sol\":1149:1202  (bool success, ) = msg.sender.call{value: amount}(\"\") */\n      pop\n      swap1\n      pop\n        /* \"contracts/Advanced/simplebank.sol\":1221:1228  success */\n      dup1\n        /* \"contracts/Advanced/simplebank.sol\":1213:1248  require(success, \"Transfer failed\") */\n      tag_42\n      jumpi\n      mload(0x40)\n      0x08c379a000000000000000000000000000000000000000000000000000000000\n      dup2\n      mstore\n      0x04\n      add\n      tag_43\n      swap1\n      tag_44\n      jump\t// in\n    tag_43:\n      mload(0x40)\n      dup1\n      swap2\n      sub\n      swap1\n      revert\n    tag_42:\n        /* \"contracts/Advanced/simplebank.sol\":1266:1270  true */\n      0x01\n        /* \"contracts/Advanced/simplebank.sol\":1259:1270  return true */\n      swap2\n      pop\n      pop\n        /* \"contracts/Advanced/simplebank.sol\":870:1278  function withdraw(uint amount) public payable returns (bool) {... */\n      swap2\n      swap1\n      pop\n      jump\t// out\n        /* \"contracts/Advanced/simplebank.sol\":554:862  function deposit() public payable {... */\n    tag_22:\n        /* \"contracts/Advanced/simplebank.sol\":646:657  bankBalance */\n      0x00\n        /* \"contracts/Advanced/simplebank.sol\":646:669  bankBalance[msg.sender] */\n      dup1\n        /* \"contracts/Advanced/simplebank.sol\":658:668  msg.sender */\n      caller\n        /* \"contracts/Advanced/simplebank.sol\":646:669  bankBalance[msg.sender] */\n      0xffffffffffffffffffffffffffffffffffffffff\n      and\n      0xffffffffffffffffffffffffffffffffffffffff\n      and\n      dup2\n      mstore\n      0x20\n      add\n      swap1\n      dup2\n      mstore\n      0x20\n      add\n      0x00\n      keccak256\n      sload\n        /* \"contracts/Advanced/simplebank.sol\":633:642  msg.value */\n      callvalue\n        /* \"contracts/Advanced/simplebank.sol\":607:618  bankBalance */\n      0x00\n        /* \"contracts/Advanced/simplebank.sol\":607:630  bankBalance[msg.sender] */\n      dup1\n        /* \"contracts/Advanced/simplebank.sol\":619:629  msg.sender */\n      caller\n        /* \"contracts/Advanced/simplebank.sol\":607:630  bankBalance[msg.sender] */\n      0xffffffffffffffffffffffffffffffffffffffff\n      and\n      0xffffffffffffffffffffffffffffffffffffffff\n      and\n      dup2\n      mstore\n      0x20\n      add\n      swap1\n      dup2\n      mstore\n      0x20\n      add\n      0x00\n      keccak256\n      sload\n        /* \"contracts/Advanced/simplebank.sol\":607:642  bankBalance[msg.sender] + msg.value */\n      tag_46\n      swap2\n      swap1\n      tag_47\n      jump\t// in\n    tag_46:\n        /* \"contracts/Advanced/simplebank.sol\":607:669  bankBalance[msg.sender] + msg.value >= bankBalance[msg.sender] */\n      lt\n      iszero\n        /* \"contracts/Advanced/simplebank.sol\":599:700  require(bankBalance[msg.sender] + msg.value >= bankBalance[msg.sender], \"Addition: balance overflow\") */\n      tag_48\n      jumpi\n      mload(0x40)\n      0x08c379a000000000000000000000000000000000000000000000000000000000\n      dup2\n      mstore\n      0x04\n      add\n      tag_49\n      swap1\n      tag_50\n      jump\t// in\n    tag_49:\n      mload(0x40)\n      dup1\n      swap2\n      sub\n      swap1\n      revert\n    tag_48:\n        /* \"contracts/Advanced/simplebank.sol\":738:747  msg.value */\n      callvalue\n        /* \"contracts/Advanced/simplebank.sol\":711:722  bankBalance */\n      0x00\n        /* \"contracts/Advanced/simplebank.sol\":711:734  bankBalance[msg.sender] */\n      dup1\n        /* \"contracts/Advanced/simplebank.sol\":723:733  msg.sender */\n      caller\n        /* \"contracts/Advanced/simplebank.sol\":711:734  bankBalance[msg.sender] */\n      0xffffffffffffffffffffffffffffffffffffffff\n      and\n      0xffffffffffffffffffffffffffffffffffffffff\n      and\n      dup2\n      mstore\n      0x20\n      add\n      swap1\n      dup2\n      mstore\n      0x20\n      add\n      0x00\n      keccak256\n      0x00\n        /* \"contracts/Advanced/simplebank.sol\":711:747  bankBalance[msg.sender] += msg.value */\n      dup3\n      dup3\n      sload\n      tag_51\n      swap2\n      swap1\n      tag_47\n      jump\t// in\n    tag_51:\n      swap3\n      pop\n      pop\n      dup2\n      swap1\n      sstore\n      pop\n        /* \"contracts/Advanced/simplebank.sol\":758:769  uint amount */\n      0x00\n        /* \"contracts/Advanced/simplebank.sol\":772:781  msg.value */\n      callvalue\n        /* \"contracts/Advanced/simplebank.sol\":758:781  uint amount = msg.value */\n      swap1\n      pop\n        /* \"contracts/Advanced/simplebank.sol\":797:854  VaultDeposit(msg.sender, amount, bankBalance[msg.sender]) */\n      0x42d7226a69351c5360751810cc72fb1e8803f71f0c06e30eb8d9da6b8ccf4e19\n        /* \"contracts/Advanced/simplebank.sol\":810:820  msg.sender */\n      caller\n        /* \"contracts/Advanced/simplebank.sol\":822:828  amount */\n      dup3\n        /* \"contracts/Advanced/simplebank.sol\":830:841  bankBalance */\n      0x00\n        /* \"contracts/Advanced/simplebank.sol\":830:853  bankBalance[msg.sender] */\n      dup1\n        /* \"contracts/Advanced/simplebank.sol\":842:852  msg.sender */\n      caller\n        /* \"contracts/Advanced/simplebank.sol\":830:853  bankBalance[msg.sender] */\n      0xffffffffffffffffffffffffffffffffffffffff\n      and\n      0xffffffffffffffffffffffffffffffffffffffff\n      and\n      dup2\n      mstore\n      0x20\n      add\n      swap1\n      dup2\n      mstore\n      0x20\n      add\n      0x00\n      keccak256\n      sload\n        /* \"contracts/Advanced/simplebank.sol\":797:854  VaultDeposit(msg.sender, amount, bankBalance[msg.sender]) */\n      mload(0x40)\n      tag_52\n      swap4\n      swap3\n      swap2\n      swap1\n      tag_36\n      jump\t// in\n    tag_52:\n      mload(0x40)\n      dup1\n      swap2\n      sub\n      swap1\n      log1\n        /* \"contracts/Advanced/simplebank.sol\":588:862  {... */\n      pop\n        /* \"contracts/Advanced/simplebank.sol\":554:862  function deposit() public payable {... */\n      jump\t// out\n        /* \"#utility.yul\":7:84   */\n    tag_53:\n        /* \"#utility.yul\":44:51   */\n      0x00\n        /* \"#utility.yul\":73:78   */\n      dup2\n        /* \"#utility.yul\":62:78   */\n      swap1\n      pop\n        /* \"#utility.yul\":7:84   */\n      swap2\n      swap1\n      pop\n      jump\t// out\n        /* \"#utility.yul\":90:208   */\n    tag_54:\n        /* \"#utility.yul\":177:201   */\n      tag_81\n        /* \"#utility.yul\":195:200   */\n      dup2\n        /* \"#utility.yul\":177:201   */\n      tag_53\n      jump\t// in\n    tag_81:\n        /* \"#utility.yul\":172:175   */\n      dup3\n        /* \"#utility.yul\":165:202   */\n      mstore\n        /* \"#utility.yul\":90:208   */\n      pop\n      pop\n      jump\t// out\n        /* \"#utility.yul\":214:436   */\n    tag_10:\n        /* \"#utility.yul\":307:311   */\n      0x00\n        /* \"#utility.yul\":345:347   */\n      0x20\n        /* \"#utility.yul\":334:343   */\n      dup3\n        /* \"#utility.yul\":330:348   */\n      add\n        /* \"#utility.yul\":322:348   */\n      swap1\n      pop\n        /* \"#utility.yul\":358:429   */\n      tag_83\n        /* \"#utility.yul\":426:427   */\n      0x00\n        /* \"#utility.yul\":415:424   */\n      dup4\n        /* \"#utility.yul\":411:428   */\n      add\n        /* \"#utility.yul\":402:408   */\n      dup5\n        /* \"#utility.yul\":358:429   */\n      tag_54\n      jump\t// in\n    tag_83:\n        /* \"#utility.yul\":214:436   */\n      swap3\n      swap2\n      pop\n      pop\n      jump\t// out\n        /* \"#utility.yul\":523:640   */\n    tag_56:\n        /* \"#utility.yul\":632:633   */\n      0x00\n        /* \"#utility.yul\":629:630   */\n      dup1\n        /* \"#utility.yul\":622:634   */\n      revert\n        /* \"#utility.yul\":769:891   */\n    tag_58:\n        /* \"#utility.yul\":842:866   */\n      tag_88\n        /* \"#utility.yul\":860:865   */\n      dup2\n        /* \"#utility.yul\":842:866   */\n      tag_53\n      jump\t// in\n    tag_88:\n        /* \"#utility.yul\":835:840   */\n      dup2\n        /* \"#utility.yul\":832:867   */\n      eq\n        /* \"#utility.yul\":822:885   */\n      tag_89\n      jumpi\n        /* \"#utility.yul\":881:882   */\n      0x00\n        /* \"#utility.yul\":878:879   */\n      dup1\n        /* \"#utility.yul\":871:883   */\n      revert\n        /* \"#utility.yul\":822:885   */\n    tag_89:\n        /* \"#utility.yul\":769:891   */\n      pop\n      jump\t// out\n        /* \"#utility.yul\":897:1036   */\n    tag_59:\n        /* \"#utility.yul\":943:948   */\n      0x00\n        /* \"#utility.yul\":981:987   */\n      dup2\n        /* \"#utility.yul\":968:988   */\n      calldataload\n        /* \"#utility.yul\":959:988   */\n      swap1\n      pop\n        /* \"#utility.yul\":997:1030   */\n      tag_91\n        /* \"#utility.yul\":1024:1029   */\n      dup2\n        /* \"#utility.yul\":997:1030   */\n      tag_58\n      jump\t// in\n    tag_91:\n        /* \"#utility.yul\":897:1036   */\n      swap3\n      swap2\n      pop\n      pop\n      jump\t// out\n        /* \"#utility.yul\":1042:1371   */\n    tag_17:\n        /* \"#utility.yul\":1101:1107   */\n      0x00\n        /* \"#utility.yul\":1150:1152   */\n      0x20\n        /* \"#utility.yul\":1138:1147   */\n      dup3\n        /* \"#utility.yul\":1129:1136   */\n      dup5\n        /* \"#utility.yul\":1125:1148   */\n      sub\n        /* \"#utility.yul\":1121:1153   */\n      slt\n        /* \"#utility.yul\":1118:1237   */\n      iszero\n      tag_93\n      jumpi\n        /* \"#utility.yul\":1156:1235   */\n      tag_94\n      tag_56\n      jump\t// in\n    tag_94:\n        /* \"#utility.yul\":1118:1237   */\n    tag_93:\n        /* \"#utility.yul\":1276:1277   */\n      0x00\n        /* \"#utility.yul\":1301:1354   */\n      tag_95\n        /* \"#utility.yul\":1346:1353   */\n      dup5\n        /* \"#utility.yul\":1337:1343   */\n      dup3\n        /* \"#utility.yul\":1326:1335   */\n      dup6\n        /* \"#utility.yul\":1322:1344   */\n      add\n        /* \"#utility.yul\":1301:1354   */\n      tag_59\n      jump\t// in\n    tag_95:\n        /* \"#utility.yul\":1291:1354   */\n      swap2\n      pop\n        /* \"#utility.yul\":1247:1364   */\n      pop\n        /* \"#utility.yul\":1042:1371   */\n      swap3\n      swap2\n      pop\n      pop\n      jump\t// out\n        /* \"#utility.yul\":1377:1467   */\n    tag_60:\n        /* \"#utility.yul\":1411:1418   */\n      0x00\n        /* \"#utility.yul\":1454:1459   */\n      dup2\n        /* \"#utility.yul\":1447:1460   */\n      iszero\n        /* \"#utility.yul\":1440:1461   */\n      iszero\n        /* \"#utility.yul\":1429:1461   */\n      swap1\n      pop\n        /* \"#utility.yul\":1377:1467   */\n      swap2\n      swap1\n      pop\n      jump\t// out\n        /* \"#utility.yul\":1473:1582   */\n    tag_61:\n        /* \"#utility.yul\":1554:1575   */\n      tag_98\n        /* \"#utility.yul\":1569:1574   */\n      dup2\n        /* \"#utility.yul\":1554:1575   */\n      tag_60\n      jump\t// in\n    tag_98:\n        /* \"#utility.yul\":1549:1552   */\n      dup3\n        /* \"#utility.yul\":1542:1576   */\n      mstore\n        /* \"#utility.yul\":1473:1582   */\n      pop\n      pop\n      jump\t// out\n        /* \"#utility.yul\":1588:1798   */\n    tag_20:\n        /* \"#utility.yul\":1675:1679   */\n      0x00\n        /* \"#utility.yul\":1713:1715   */\n      0x20\n        /* \"#utility.yul\":1702:1711   */\n      dup3\n        /* \"#utility.yul\":1698:1716   */\n      add\n        /* \"#utility.yul\":1690:1716   */\n      swap1\n      pop\n        /* \"#utility.yul\":1726:1791   */\n      tag_100\n        /* \"#utility.yul\":1788:1789   */\n      0x00\n        /* \"#utility.yul\":1777:1786   */\n      dup4\n        /* \"#utility.yul\":1773:1790   */\n      add\n        /* \"#utility.yul\":1764:1770   */\n      dup5\n        /* \"#utility.yul\":1726:1791   */\n      tag_61\n      jump\t// in\n    tag_100:\n        /* \"#utility.yul\":1588:1798   */\n      swap3\n      swap2\n      pop\n      pop\n      jump\t// out\n        /* \"#utility.yul\":1804:1973   */\n    tag_62:\n        /* \"#utility.yul\":1888:1899   */\n      0x00\n        /* \"#utility.yul\":1922:1928   */\n      dup3\n        /* \"#utility.yul\":1917:1920   */\n      dup3\n        /* \"#utility.yul\":1910:1929   */\n      mstore\n        /* \"#utility.yul\":1962:1966   */\n      0x20\n        /* \"#utility.yul\":1957:1960   */\n      dup3\n        /* \"#utility.yul\":1953:1967   */\n      add\n        /* \"#utility.yul\":1938:1967   */\n      swap1\n      pop\n        /* \"#utility.yul\":1804:1973   */\n      swap3\n      swap2\n      pop\n      pop\n      jump\t// out\n        /* \"#utility.yul\":1979:2158   */\n    tag_63:\n        /* \"#utility.yul\":2119:2150   */\n      0x4f6e6c792042616e6b204f776e657220697320617574686f72697a6564000000\n        /* \"#utility.yul\":2115:2116   */\n      0x00\n        /* \"#utility.yul\":2107:2113   */\n      dup3\n        /* \"#utility.yul\":2103:2117   */\n      add\n        /* \"#utility.yul\":2096:2151   */\n      mstore\n        /* \"#utility.yul\":1979:2158   */\n      pop\n      jump\t// out\n        /* \"#utility.yul\":2164:2530   */\n    tag_64:\n        /* \"#utility.yul\":2306:2309   */\n      0x00\n        /* \"#utility.yul\":2327:2394   */\n      tag_104\n        /* \"#utility.yul\":2391:2393   */\n      0x1d\n        /* \"#utility.yul\":2386:2389   */\n      dup4\n        /* \"#utility.yul\":2327:2394   */\n      tag_62\n      jump\t// in\n    tag_104:\n        /* \"#utility.yul\":2320:2394   */\n      swap2\n      pop\n        /* \"#utility.yul\":2403:2496   */\n      tag_105\n        /* \"#utility.yul\":2492:2495   */\n      dup3\n        /* \"#utility.yul\":2403:2496   */\n      tag_63\n      jump\t// in\n    tag_105:\n        /* \"#utility.yul\":2521:2523   */\n      0x20\n        /* \"#utility.yul\":2516:2519   */\n      dup3\n        /* \"#utility.yul\":2512:2524   */\n      add\n        /* \"#utility.yul\":2505:2524   */\n      swap1\n      pop\n        /* \"#utility.yul\":2164:2530   */\n      swap2\n      swap1\n      pop\n      jump\t// out\n        /* \"#utility.yul\":2536:2955   */\n    tag_26:\n        /* \"#utility.yul\":2702:2706   */\n      0x00\n        /* \"#utility.yul\":2740:2742   */\n      0x20\n        /* \"#utility.yul\":2729:2738   */\n      dup3\n        /* \"#utility.yul\":2725:2743   */\n      add\n        /* \"#utility.yul\":2717:2743   */\n      swap1\n      pop\n        /* \"#utility.yul\":2789:2798   */\n      dup2\n        /* \"#utility.yul\":2783:2787   */\n      dup2\n        /* \"#utility.yul\":2779:2799   */\n      sub\n        /* \"#utility.yul\":2775:2776   */\n      0x00\n        /* \"#utility.yul\":2764:2773   */\n      dup4\n        /* \"#utility.yul\":2760:2777   */\n      add\n        /* \"#utility.yul\":2753:2800   */\n      mstore\n        /* \"#utility.yul\":2817:2948   */\n      tag_107\n        /* \"#utility.yul\":2943:2947   */\n      dup2\n        /* \"#utility.yul\":2817:2948   */\n      tag_64\n      jump\t// in\n    tag_107:\n        /* \"#utility.yul\":2809:2948   */\n      swap1\n      pop\n        /* \"#utility.yul\":2536:2955   */\n      swap2\n      swap1\n      pop\n      jump\t// out\n        /* \"#utility.yul\":2961:3141   */\n    tag_65:\n        /* \"#utility.yul\":3101:3133   */\n      0x5375627472616374696f6e3a2062616c616e636520756e646572666c6f770000\n        /* \"#utility.yul\":3097:3098   */\n      0x00\n        /* \"#utility.yul\":3089:3095   */\n      dup3\n        /* \"#utility.yul\":3085:3099   */\n      add\n        /* \"#utility.yul\":3078:3134   */\n      mstore\n        /* \"#utility.yul\":2961:3141   */\n      pop\n      jump\t// out\n        /* \"#utility.yul\":3147:3513   */\n    tag_66:\n        /* \"#utility.yul\":3289:3292   */\n      0x00\n        /* \"#utility.yul\":3310:3377   */\n      tag_110\n        /* \"#utility.yul\":3374:3376   */\n      0x1e\n        /* \"#utility.yul\":3369:3372   */\n      dup4\n        /* \"#utility.yul\":3310:3377   */\n      tag_62\n      jump\t// in\n    tag_110:\n        /* \"#utility.yul\":3303:3377   */\n      swap2\n      pop\n        /* \"#utility.yul\":3386:3479   */\n      tag_111\n        /* \"#utility.yul\":3475:3478   */\n      dup3\n        /* \"#utility.yul\":3386:3479   */\n      tag_65\n      jump\t// in\n    tag_111:\n        /* \"#utility.yul\":3504:3506   */\n      0x20\n        /* \"#utility.yul\":3499:3502   */\n      dup3\n        /* \"#utility.yul\":3495:3507   */\n      add\n        /* \"#utility.yul\":3488:3507   */\n      swap1\n      pop\n        /* \"#utility.yul\":3147:3513   */\n      swap2\n      swap1\n      pop\n      jump\t// out\n        /* \"#utility.yul\":3519:3938   */\n    tag_32:\n        /* \"#utility.yul\":3685:3689   */\n      0x00\n        /* \"#utility.yul\":3723:3725   */\n      0x20\n        /* \"#utility.yul\":3712:3721   */\n      dup3\n        /* \"#utility.yul\":3708:3726   */\n      add\n        /* \"#utility.yul\":3700:3726   */\n      swap1\n      pop\n        /* \"#utility.yul\":3772:3781   */\n      dup2\n        /* \"#utility.yul\":3766:3770   */\n      dup2\n        /* \"#utility.yul\":3762:3782   */\n      sub\n        /* \"#utility.yul\":3758:3759   */\n      0x00\n        /* \"#utility.yul\":3747:3756   */\n      dup4\n        /* \"#utility.yul\":3743:3760   */\n      add\n        /* \"#utility.yul\":3736:3783   */\n      mstore\n        /* \"#utility.yul\":3800:3931   */\n      tag_113\n        /* \"#utility.yul\":3926:3930   */\n      dup2\n        /* \"#utility.yul\":3800:3931   */\n      tag_66\n      jump\t// in\n    tag_113:\n        /* \"#utility.yul\":3792:3931   */\n      swap1\n      pop\n        /* \"#utility.yul\":3519:3938   */\n      swap2\n      swap1\n      pop\n      jump\t// out\n        /* \"#utility.yul\":3944:4124   */\n    tag_67:\n        /* \"#utility.yul\":3992:4069   */\n      0x4e487b7100000000000000000000000000000000000000000000000000000000\n        /* \"#utility.yul\":3989:3990   */\n      0x00\n        /* \"#utility.yul\":3982:4070   */\n      mstore\n        /* \"#utility.yul\":4089:4093   */\n      0x11\n        /* \"#utility.yul\":4086:4087   */\n      0x04\n        /* \"#utility.yul\":4079:4094   */\n      mstore\n        /* \"#utility.yul\":4113:4117   */\n      0x24\n        /* \"#utility.yul\":4110:4111   */\n      0x00\n        /* \"#utility.yul\":4103:4118   */\n      revert\n        /* \"#utility.yul\":4130:4324   */\n    tag_34:\n        /* \"#utility.yul\":4170:4174   */\n      0x00\n        /* \"#utility.yul\":4190:4210   */\n      tag_116\n        /* \"#utility.yul\":4208:4209   */\n      dup3\n        /* \"#utility.yul\":4190:4210   */\n      tag_53\n      jump\t// in\n    tag_116:\n        /* \"#utility.yul\":4185:4210   */\n      swap2\n      pop\n        /* \"#utility.yul\":4224:4244   */\n      tag_117\n        /* \"#utility.yul\":4242:4243   */\n      dup4\n        /* \"#utility.yul\":4224:4244   */\n      tag_53\n      jump\t// in\n    tag_117:\n        /* \"#utility.yul\":4219:4244   */\n      swap3\n      pop\n        /* \"#utility.yul\":4268:4269   */\n      dup3\n        /* \"#utility.yul\":4265:4266   */\n      dup3\n        /* \"#utility.yul\":4261:4270   */\n      sub\n        /* \"#utility.yul\":4253:4270   */\n      swap1\n      pop\n        /* \"#utility.yul\":4292:4293   */\n      dup2\n        /* \"#utility.yul\":4286:4290   */\n      dup2\n        /* \"#utility.yul\":4283:4294   */\n      gt\n        /* \"#utility.yul\":4280:4317   */\n      iszero\n      tag_118\n      jumpi\n        /* \"#utility.yul\":4297:4315   */\n      tag_119\n      tag_67\n      jump\t// in\n    tag_119:\n        /* \"#utility.yul\":4280:4317   */\n    tag_118:\n        /* \"#utility.yul\":4130:4324   */\n      swap3\n      swap2\n      pop\n      pop\n      jump\t// out\n        /* \"#utility.yul\":4330:4456   */\n    tag_68:\n        /* \"#utility.yul\":4367:4374   */\n      0x00\n        /* \"#utility.yul\":4407:4449   */\n      0xffffffffffffffffffffffffffffffffffffffff\n        /* \"#utility.yul\":4400:4405   */\n      dup3\n        /* \"#utility.yul\":4396:4450   */\n      and\n        /* \"#utility.yul\":4385:4450   */\n      swap1\n      pop\n        /* \"#utility.yul\":4330:4456   */\n      swap2\n      swap1\n      pop\n      jump\t// out\n        /* \"#utility.yul\":4462:4558   */\n    tag_69:\n        /* \"#utility.yul\":4499:4506   */\n      0x00\n        /* \"#utility.yul\":4528:4552   */\n      tag_122\n        /* \"#utility.yul\":4546:4551   */\n      dup3\n        /* \"#utility.yul\":4528:4552   */\n      tag_68\n      jump\t// in\n    tag_122:\n        /* \"#utility.yul\":4517:4552   */\n      swap1\n      pop\n        /* \"#utility.yul\":4462:4558   */\n      swap2\n      swap1\n      pop\n      jump\t// out\n        /* \"#utility.yul\":4564:4682   */\n    tag_70:\n        /* \"#utility.yul\":4651:4675   */\n      tag_124\n        /* \"#utility.yul\":4669:4674   */\n      dup2\n        /* \"#utility.yul\":4651:4675   */\n      tag_69\n      jump\t// in\n    tag_124:\n        /* \"#utility.yul\":4646:4649   */\n      dup3\n        /* \"#utility.yul\":4639:4676   */\n      mstore\n        /* \"#utility.yul\":4564:4682   */\n      pop\n      pop\n      jump\t// out\n        /* \"#utility.yul\":4688:5130   */\n    tag_36:\n        /* \"#utility.yul\":4837:4841   */\n      0x00\n        /* \"#utility.yul\":4875:4877   */\n      0x60\n        /* \"#utility.yul\":4864:4873   */\n      dup3\n        /* \"#utility.yul\":4860:4878   */\n      add\n        /* \"#utility.yul\":4852:4878   */\n      swap1\n      pop\n        /* \"#utility.yul\":4888:4959   */\n      tag_126\n        /* \"#utility.yul\":4956:4957   */\n      0x00\n        /* \"#utility.yul\":4945:4954   */\n      dup4\n        /* \"#utility.yul\":4941:4958   */\n      add\n        /* \"#utility.yul\":4932:4938   */\n      dup7\n        /* \"#utility.yul\":4888:4959   */\n      tag_70\n      jump\t// in\n    tag_126:\n        /* \"#utility.yul\":4969:5041   */\n      tag_127\n        /* \"#utility.yul\":5037:5039   */\n      0x20\n        /* \"#utility.yul\":5026:5035   */\n      dup4\n        /* \"#utility.yul\":5022:5040   */\n      add\n        /* \"#utility.yul\":5013:5019   */\n      dup6\n        /* \"#utility.yul\":4969:5041   */\n      tag_54\n      jump\t// in\n    tag_127:\n        /* \"#utility.yul\":5051:5123   */\n      tag_128\n        /* \"#utility.yul\":5119:5121   */\n      0x40\n        /* \"#utility.yul\":5108:5117   */\n      dup4\n        /* \"#utility.yul\":5104:5122   */\n      add\n        /* \"#utility.yul\":5095:5101   */\n      dup5\n        /* \"#utility.yul\":5051:5123   */\n      tag_54\n      jump\t// in\n    tag_128:\n        /* \"#utility.yul\":4688:5130   */\n      swap5\n      swap4\n      pop\n      pop\n      pop\n      pop\n      jump\t// out\n        /* \"#utility.yul\":5136:5283   */\n    tag_71:\n        /* \"#utility.yul\":5237:5248   */\n      0x00\n        /* \"#utility.yul\":5274:5277   */\n      dup2\n        /* \"#utility.yul\":5259:5277   */\n      swap1\n      pop\n        /* \"#utility.yul\":5136:5283   */\n      swap3\n      swap2\n      pop\n      pop\n      jump\t// out\n        /* \"#utility.yul\":5289:5403   */\n    tag_72:\n      pop\n      jump\t// out\n        /* \"#utility.yul\":5409:5807   */\n    tag_73:\n        /* \"#utility.yul\":5568:5571   */\n      0x00\n        /* \"#utility.yul\":5589:5672   */\n      tag_132\n        /* \"#utility.yul\":5670:5671   */\n      0x00\n        /* \"#utility.yul\":5665:5668   */\n      dup4\n        /* \"#utility.yul\":5589:5672   */\n      tag_71\n      jump\t// in\n    tag_132:\n        /* \"#utility.yul\":5582:5672   */\n      swap2\n      pop\n        /* \"#utility.yul\":5681:5774   */\n      tag_133\n        /* \"#utility.yul\":5770:5773   */\n      dup3\n        /* \"#utility.yul\":5681:5774   */\n      tag_72\n      jump\t// in\n    tag_133:\n        /* \"#utility.yul\":5799:5800   */\n      0x00\n        /* \"#utility.yul\":5794:5797   */\n      dup3\n        /* \"#utility.yul\":5790:5801   */\n      add\n        /* \"#utility.yul\":5783:5801   */\n      swap1\n      pop\n        /* \"#utility.yul\":5409:5807   */\n      swap2\n      swap1\n      pop\n      jump\t// out\n        /* \"#utility.yul\":5813:6192   */\n    tag_38:\n        /* \"#utility.yul\":5997:6000   */\n      0x00\n        /* \"#utility.yul\":6019:6166   */\n      tag_135\n        /* \"#utility.yul\":6162:6165   */\n      dup3\n        /* \"#utility.yul\":6019:6166   */\n      tag_73\n      jump\t// in\n    tag_135:\n        /* \"#utility.yul\":6012:6166   */\n      swap2\n      pop\n        /* \"#utility.yul\":6183:6186   */\n      dup2\n        /* \"#utility.yul\":6176:6186   */\n      swap1\n      pop\n        /* \"#utility.yul\":5813:6192   */\n      swap2\n      swap1\n      pop\n      jump\t// out\n        /* \"#utility.yul\":6198:6363   */\n    tag_74:\n        /* \"#utility.yul\":6338:6355   */\n      0x5472616e73666572206661696c65640000000000000000000000000000000000\n        /* \"#utility.yul\":6334:6335   */\n      0x00\n        /* \"#utility.yul\":6326:6332   */\n      dup3\n        /* \"#utility.yul\":6322:6336   */\n      add\n        /* \"#utility.yul\":6315:6356   */\n      mstore\n        /* \"#utility.yul\":6198:6363   */\n      pop\n      jump\t// out\n        /* \"#utility.yul\":6369:6735   */\n    tag_75:\n        /* \"#utility.yul\":6511:6514   */\n      0x00\n        /* \"#utility.yul\":6532:6599   */\n      tag_138\n        /* \"#utility.yul\":6596:6598   */\n      0x0f\n        /* \"#utility.yul\":6591:6594   */\n      dup4\n        /* \"#utility.yul\":6532:6599   */\n      tag_62\n      jump\t// in\n    tag_138:\n        /* \"#utility.yul\":6525:6599   */\n      swap2\n      pop\n        /* \"#utility.yul\":6608:6701   */\n      tag_139\n        /* \"#utility.yul\":6697:6700   */\n      dup3\n        /* \"#utility.yul\":6608:6701   */\n      tag_74\n      jump\t// in\n    tag_139:\n        /* \"#utility.yul\":6726:6728   */\n      0x20\n        /* \"#utility.yul\":6721:6724   */\n      dup3\n        /* \"#utility.yul\":6717:6729   */\n      add\n        /* \"#utility.yul\":6710:6729   */\n      swap1\n      pop\n        /* \"#utility.yul\":6369:6735   */\n      swap2\n      swap1\n      pop\n      jump\t// out\n        /* \"#utility.yul\":6741:7160   */\n    tag_44:\n        /* \"#utility.yul\":6907:6911   */\n      0x00\n        /* \"#utility.yul\":6945:6947   */\n      0x20\n        /* \"#utility.yul\":6934:6943   */\n      dup3\n        /* \"#utility.yul\":6930:6948   */\n      add\n        /* \"#utility.yul\":6922:6948   */\n      swap1\n      pop\n        /* \"#utility.yul\":6994:7003   */\n      dup2\n        /* \"#utility.yul\":6988:6992   */\n      dup2\n        /* \"#utility.yul\":6984:7004   */\n      sub\n        /* \"#utility.yul\":6980:6981   */\n      0x00\n        /* \"#utility.yul\":6969:6978   */\n      dup4\n        /* \"#utility.yul\":6965:6982   */\n      add\n        /* \"#utility.yul\":6958:7005   */\n      mstore\n        /* \"#utility.yul\":7022:7153   */\n      tag_141\n        /* \"#utility.yul\":7148:7152   */\n      dup2\n        /* \"#utility.yul\":7022:7153   */\n      tag_75\n      jump\t// in\n    tag_141:\n        /* \"#utility.yul\":7014:7153   */\n      swap1\n      pop\n        /* \"#utility.yul\":6741:7160   */\n      swap2\n      swap1\n      pop\n      jump\t// out\n        /* \"#utility.yul\":7166:7357   */\n    tag_47:\n        /* \"#utility.yul\":7206:7209   */\n      0x00\n        /* \"#utility.yul\":7225:7245   */\n      tag_143\n        /* \"#utility.yul\":7243:7244   */\n      dup3\n        /* \"#utility.yul\":7225:7245   */\n      tag_53\n      jump\t// in\n    tag_143:\n        /* \"#utility.yul\":7220:7245   */\n      swap2\n      pop\n        /* \"#utility.yul\":7259:7279   */\n      tag_144\n        /* \"#utility.yul\":7277:7278   */\n      dup4\n        /* \"#utility.yul\":7259:7279   */\n      tag_53\n      jump\t// in\n    tag_144:\n        /* \"#utility.yul\":7254:7279   */\n      swap3\n      pop\n        /* \"#utility.yul\":7302:7303   */\n      dup3\n        /* \"#utility.yul\":7299:7300   */\n      dup3\n        /* \"#utility.yul\":7295:7304   */\n      add\n        /* \"#utility.yul\":7288:7304   */\n      swap1\n      pop\n        /* \"#utility.yul\":7323:7326   */\n      dup1\n        /* \"#utility.yul\":7320:7321   */\n      dup3\n        /* \"#utility.yul\":7317:7327   */\n      gt\n        /* \"#utility.yul\":7314:7350   */\n      iszero\n      tag_145\n      jumpi\n        /* \"#utility.yul\":7330:7348   */\n      tag_146\n      tag_67\n      jump\t// in\n    tag_146:\n        /* \"#utility.yul\":7314:7350   */\n    tag_145:\n        /* \"#utility.yul\":7166:7357   */\n      swap3\n      swap2\n      pop\n      pop\n      jump\t// out\n        /* \"#utility.yul\":7363:7539   */\n    tag_76:\n        /* \"#utility.yul\":7503:7531   */\n      0x4164646974696f6e3a2062616c616e6365206f766572666c6f77000000000000\n        /* \"#utility.yul\":7499:7500   */\n      0x00\n        /* \"#utility.yul\":7491:7497   */\n      dup3\n        /* \"#utility.yul\":7487:7501   */\n      add\n        /* \"#utility.yul\":7480:7532   */\n      mstore\n        /* \"#utility.yul\":7363:7539   */\n      pop\n      jump\t// out\n        /* \"#utility.yul\":7545:7911   */\n    tag_77:\n        /* \"#utility.yul\":7687:7690   */\n      0x00\n        /* \"#utility.yul\":7708:7775   */\n      tag_149\n        /* \"#utility.yul\":7772:7774   */\n      0x1a\n        /* \"#utility.yul\":7767:7770   */\n      dup4\n        /* \"#utility.yul\":7708:7775   */\n      tag_62\n      jump\t// in\n    tag_149:\n        /* \"#utility.yul\":7701:7775   */\n      swap2\n      pop\n        /* \"#utility.yul\":7784:7877   */\n      tag_150\n        /* \"#utility.yul\":7873:7876   */\n      dup3\n        /* \"#utility.yul\":7784:7877   */\n      tag_76\n      jump\t// in\n    tag_150:\n        /* \"#utility.yul\":7902:7904   */\n      0x20\n        /* \"#utility.yul\":7897:7900   */\n      dup3\n        /* \"#utility.yul\":7893:7905   */\n      add\n        /* \"#utility.yul\":7886:7905   */\n      swap1\n      pop\n        /* \"#utility.yul\":7545:7911   */\n      swap2\n      swap1\n      pop\n      jump\t// out\n        /* \"#utility.yul\":7917:8336   */\n    tag_50:\n        /* \"#utility.yul\":8083:8087   */\n      0x00\n        /* \"#utility.yul\":8121:8123   */\n      0x20\n        /* \"#utility.yul\":8110:8119   */\n      dup3\n        /* \"#utility.yul\":8106:8124   */\n      add\n        /* \"#utility.yul\":8098:8124   */\n      swap1\n      pop\n        /* \"#utility.yul\":8170:8179   */\n      dup2\n        /* \"#utility.yul\":8164:8168   */\n      dup2\n        /* \"#utility.yul\":8160:8180   */\n      sub\n        /* \"#utility.yul\":8156:8157   */\n      0x00\n        /* \"#utility.yul\":8145:8154   */\n      dup4\n        /* \"#utility.yul\":8141:8158   */\n      add\n        /* \"#utility.yul\":8134:8181   */\n      mstore\n        /* \"#utility.yul\":8198:8329   */\n      tag_152\n        /* \"#utility.yul\":8324:8328   */\n      dup2\n        /* \"#utility.yul\":8198:8329   */\n      tag_77\n      jump\t// in\n    tag_152:\n        /* \"#utility.yul\":8190:8329   */\n      swap1\n      pop\n        /* \"#utility.yul\":7917:8336   */\n      swap2\n      swap1\n      pop\n      jump\t// out\n\n    auxdata: 0xa2646970667358221220ff7853928adf423c50716ada2e05df2be70a584496d5243baa220a69ca1c08d664736f6c634300081a0033\n}\n",
				"bytecode": {
					"linkReferences": {},
					"object": "60806040523360015f6101000a81548173ffffffffffffffffffffffffffffffffffffffff021916908373ffffffffffffffffffffffffffffffffffffffff160217905550610925806100515f395ff3fe60806040526004361061003e575f3560e01c80630bf6cc081461004257806312065fe01461006c5780632e1a7d4d14610096578063d0e30db0146100c6575b5f80fd5b34801561004d575f80fd5b506100566100d0565b6040516100639190610552565b60405180910390f35b348015610077575f80fd5b50610080610166565b60405161008d9190610552565b60405180910390f35b6100b060048036038101906100ab9190610599565b6101a9565b6040516100bd91906105de565b60405180910390f35b6100ce6103a4565b005b5f3373ffffffffffffffffffffffffffffffffffffffff1660015f9054906101000a900473ffffffffffffffffffffffffffffffffffffffff1673ffffffffffffffffffffffffffffffffffffffff1614610160576040517f08c379a000000000000000000000000000000000000000000000000000000000815260040161015790610651565b60405180910390fd5b47905090565b5f805f3373ffffffffffffffffffffffffffffffffffffffff1673ffffffffffffffffffffffffffffffffffffffff1681526020019081526020015f2054905090565b5f805f3373ffffffffffffffffffffffffffffffffffffffff1673ffffffffffffffffffffffffffffffffffffffff1681526020019081526020015f2054821115610229576040517f08c379a0000000000000000000000000000000000000000000000000000000008152600401610220906106b9565b60405180910390fd5b815f803373ffffffffffffffffffffffffffffffffffffffff1673ffffffffffffffffffffffffffffffffffffffff1681526020019081526020015f205f8282546102749190610704565b925050819055507f8f16a277f4ff62d0edb61adc92358c03a719d48e56e9e06be7c1be11af5fb10033835f803373ffffffffffffffffffffffffffffffffffffffff1673ffffffffffffffffffffffffffffffffffffffff1681526020019081526020015f20546040516102ea93929190610776565b60405180910390a15f3373ffffffffffffffffffffffffffffffffffffffff1683604051610317906107d8565b5f6040518083038185875af1925050503d805f8114610351576040519150601f19603f3d011682016040523d82523d5f602084013e610356565b606091505b505090508061039a576040517f08c379a000000000000000000000000000000000000000000000000000000000815260040161039190610836565b60405180910390fd5b6001915050919050565b5f803373ffffffffffffffffffffffffffffffffffffffff1673ffffffffffffffffffffffffffffffffffffffff1681526020019081526020015f2054345f803373ffffffffffffffffffffffffffffffffffffffff1673ffffffffffffffffffffffffffffffffffffffff1681526020019081526020015f20546104299190610854565b101561046a576040517f08c379a0000000000000000000000000000000000000000000000000000000008152600401610461906108d1565b60405180910390fd5b345f803373ffffffffffffffffffffffffffffffffffffffff1673ffffffffffffffffffffffffffffffffffffffff1681526020019081526020015f205f8282546104b59190610854565b925050819055505f3490507f42d7226a69351c5360751810cc72fb1e8803f71f0c06e30eb8d9da6b8ccf4e1933825f803373ffffffffffffffffffffffffffffffffffffffff1673ffffffffffffffffffffffffffffffffffffffff1681526020019081526020015f205460405161052f93929190610776565b60405180910390a150565b5f819050919050565b61054c8161053a565b82525050565b5f6020820190506105655f830184610543565b92915050565b5f80fd5b6105788161053a565b8114610582575f80fd5b50565b5f813590506105938161056f565b92915050565b5f602082840312156105ae576105ad61056b565b5b5f6105bb84828501610585565b91505092915050565b5f8115159050919050565b6105d8816105c4565b82525050565b5f6020820190506105f15f8301846105cf565b92915050565b5f82825260208201905092915050565b7f4f6e6c792042616e6b204f776e657220697320617574686f72697a65640000005f82015250565b5f61063b601d836105f7565b915061064682610607565b602082019050919050565b5f6020820190508181035f8301526106688161062f565b9050919050565b7f5375627472616374696f6e3a2062616c616e636520756e646572666c6f7700005f82015250565b5f6106a3601e836105f7565b91506106ae8261066f565b602082019050919050565b5f6020820190508181035f8301526106d081610697565b9050919050565b7f4e487b71000000000000000000000000000000000000000000000000000000005f52601160045260245ffd5b5f61070e8261053a565b91506107198361053a565b9250828203905081811115610731576107306106d7565b5b92915050565b5f73ffffffffffffffffffffffffffffffffffffffff82169050919050565b5f61076082610737565b9050919050565b61077081610756565b82525050565b5f6060820190506107895f830186610767565b6107966020830185610543565b6107a36040830184610543565b949350505050565b5f81905092915050565b50565b5f6107c35f836107ab565b91506107ce826107b5565b5f82019050919050565b5f6107e2826107b8565b9150819050919050565b7f5472616e73666572206661696c656400000000000000000000000000000000005f82015250565b5f610820600f836105f7565b915061082b826107ec565b602082019050919050565b5f6020820190508181035f83015261084d81610814565b9050919050565b5f61085e8261053a565b91506108698361053a565b9250828201905080821115610881576108806106d7565b5b92915050565b7f4164646974696f6e3a2062616c616e6365206f766572666c6f770000000000005f82015250565b5f6108bb601a836105f7565b91506108c682610887565b602082019050919050565b5f6020820190508181035f8301526108e8816108af565b905091905056fea2646970667358221220ff7853928adf423c50716ada2e05df2be70a584496d5243baa220a69ca1c08d664736f6c634300081a0033",
					"opcodes": "PUSH1 0x80 PUSH1 0x40 MSTORE CALLER PUSH1 0x1 PUSH0 PUSH2 0x100 EXP DUP2 SLOAD DUP2 PUSH20 0xFFFFFFFFFFFFFFFFFFFFFFFFFFFFFFFFFFFFFFFF MUL NOT AND SWAP1 DUP4 PUSH20 0xFFFFFFFFFFFFFFFFFFFFFFFFFFFFFFFFFFFFFFFF AND MUL OR SWAP1 SSTORE POP PUSH2 0x925 DUP1 PUSH2 0x51 PUSH0 CODECOPY PUSH0 RETURN INVALID PUSH1 0x80 PUSH1 0x40 MSTORE PUSH1 0x4 CALLDATASIZE LT PUSH2 0x3E JUMPI PUSH0 CALLDATALOAD PUSH1 0xE0 SHR DUP1 PUSH4 0xBF6CC08 EQ PUSH2 0x42 JUMPI DUP1 PUSH4 0x12065FE0 EQ PUSH2 0x6C JUMPI DUP1 PUSH4 0x2E1A7D4D EQ PUSH2 0x96 JUMPI DUP1 PUSH4 0xD0E30DB0 EQ PUSH2 0xC6 JUMPI JUMPDEST PUSH0 DUP1 REVERT JUMPDEST CALLVALUE DUP1 ISZERO PUSH2 0x4D JUMPI PUSH0 DUP1 REVERT JUMPDEST POP PUSH2 0x56 PUSH2 0xD0 JUMP JUMPDEST PUSH1 0x40 MLOAD PUSH2 0x63 SWAP2 SWAP1 PUSH2 0x552 JUMP JUMPDEST PUSH1 0x40 MLOAD DUP1 SWAP2 SUB SWAP1 RETURN JUMPDEST CALLVALUE DUP1 ISZERO PUSH2 0x77 JUMPI PUSH0 DUP1 REVERT JUMPDEST POP PUSH2 0x80 PUSH2 0x166 JUMP JUMPDEST PUSH1 0x40 MLOAD PUSH2 0x8D SWAP2 SWAP1 PUSH2 0x552 JUMP JUMPDEST PUSH1 0x40 MLOAD DUP1 SWAP2 SUB SWAP1 RETURN JUMPDEST PUSH2 0xB0 PUSH1 0x4 DUP1 CALLDATASIZE SUB DUP2 ADD SWAP1 PUSH2 0xAB SWAP2 SWAP1 PUSH2 0x599 JUMP JUMPDEST PUSH2 0x1A9 JUMP JUMPDEST PUSH1 0x40 MLOAD PUSH2 0xBD SWAP2 SWAP1 PUSH2 0x5DE JUMP JUMPDEST PUSH1 0x40 MLOAD DUP1 SWAP2 SUB SWAP1 RETURN JUMPDEST PUSH2 0xCE PUSH2 0x3A4 JUMP JUMPDEST STOP JUMPDEST PUSH0 CALLER PUSH20 0xFFFFFFFFFFFFFFFFFFFFFFFFFFFFFFFFFFFFFFFF AND PUSH1 0x1 PUSH0 SWAP1 SLOAD SWAP1 PUSH2 0x100 EXP SWAP1 DIV PUSH20 0xFFFFFFFFFFFFFFFFFFFFFFFFFFFFFFFFFFFFFFFF AND PUSH20 0xFFFFFFFFFFFFFFFFFFFFFFFFFFFFFFFFFFFFFFFF AND EQ PUSH2 0x160 JUMPI PUSH1 0x40 MLOAD PUSH32 0x8C379A000000000000000000000000000000000000000000000000000000000 DUP2 MSTORE PUSH1 0x4 ADD PUSH2 0x157 SWAP1 PUSH2 0x651 JUMP JUMPDEST PUSH1 0x40 MLOAD DUP1 SWAP2 SUB SWAP1 REVERT JUMPDEST SELFBALANCE SWAP1 POP SWAP1 JUMP JUMPDEST PUSH0 DUP1 PUSH0 CALLER PUSH20 0xFFFFFFFFFFFFFFFFFFFFFFFFFFFFFFFFFFFFFFFF AND PUSH20 0xFFFFFFFFFFFFFFFFFFFFFFFFFFFFFFFFFFFFFFFF AND DUP2 MSTORE PUSH1 0x20 ADD SWAP1 DUP2 MSTORE PUSH1 0x20 ADD PUSH0 KECCAK256 SLOAD SWAP1 POP SWAP1 JUMP JUMPDEST PUSH0 DUP1 PUSH0 CALLER PUSH20 0xFFFFFFFFFFFFFFFFFFFFFFFFFFFFFFFFFFFFFFFF AND PUSH20 0xFFFFFFFFFFFFFFFFFFFFFFFFFFFFFFFFFFFFFFFF AND DUP2 MSTORE PUSH1 0x20 ADD SWAP1 DUP2 MSTORE PUSH1 0x20 ADD PUSH0 KECCAK256 SLOAD DUP3 GT ISZERO PUSH2 0x229 JUMPI PUSH1 0x40 MLOAD PUSH32 0x8C379A000000000000000000000000000000000000000000000000000000000 DUP2 MSTORE PUSH1 0x4 ADD PUSH2 0x220 SWAP1 PUSH2 0x6B9 JUMP JUMPDEST PUSH1 0x40 MLOAD DUP1 SWAP2 SUB SWAP1 REVERT JUMPDEST DUP2 PUSH0 DUP1 CALLER PUSH20 0xFFFFFFFFFFFFFFFFFFFFFFFFFFFFFFFFFFFFFFFF AND PUSH20 0xFFFFFFFFFFFFFFFFFFFFFFFFFFFFFFFFFFFFFFFF AND DUP2 MSTORE PUSH1 0x20 ADD SWAP1 DUP2 MSTORE PUSH1 0x20 ADD PUSH0 KECCAK256 PUSH0 DUP3 DUP3 SLOAD PUSH2 0x274 SWAP2 SWAP1 PUSH2 0x704 JUMP JUMPDEST SWAP3 POP POP DUP2 SWAP1 SSTORE POP PUSH32 0x8F16A277F4FF62D0EDB61ADC92358C03A719D48E56E9E06BE7C1BE11AF5FB100 CALLER DUP4 PUSH0 DUP1 CALLER PUSH20 0xFFFFFFFFFFFFFFFFFFFFFFFFFFFFFFFFFFFFFFFF AND PUSH20 0xFFFFFFFFFFFFFFFFFFFFFFFFFFFFFFFFFFFFFFFF AND DUP2 MSTORE PUSH1 0x20 ADD SWAP1 DUP2 MSTORE PUSH1 0x20 ADD PUSH0 KECCAK256 SLOAD PUSH1 0x40 MLOAD PUSH2 0x2EA SWAP4 SWAP3 SWAP2 SWAP1 PUSH2 0x776 JUMP JUMPDEST PUSH1 0x40 MLOAD DUP1 SWAP2 SUB SWAP1 LOG1 PUSH0 CALLER PUSH20 0xFFFFFFFFFFFFFFFFFFFFFFFFFFFFFFFFFFFFFFFF AND DUP4 PUSH1 0x40 MLOAD PUSH2 0x317 SWAP1 PUSH2 0x7D8 JUMP JUMPDEST PUSH0 PUSH1 0x40 MLOAD DUP1 DUP4 SUB DUP2 DUP6 DUP8 GAS CALL SWAP3 POP POP POP RETURNDATASIZE DUP1 PUSH0 DUP2 EQ PUSH2 0x351 JUMPI PUSH1 0x40 MLOAD SWAP2 POP PUSH1 0x1F NOT PUSH1 0x3F RETURNDATASIZE ADD AND DUP3 ADD PUSH1 0x40 MSTORE RETURNDATASIZE DUP3 MSTORE RETURNDATASIZE PUSH0 PUSH1 0x20 DUP5 ADD RETURNDATACOPY PUSH2 0x356 JUMP JUMPDEST PUSH1 0x60 SWAP2 POP JUMPDEST POP POP SWAP1 POP DUP1 PUSH2 0x39A JUMPI PUSH1 0x40 MLOAD PUSH32 0x8C379A000000000000000000000000000000000000000000000000000000000 DUP2 MSTORE PUSH1 0x4 ADD PUSH2 0x391 SWAP1 PUSH2 0x836 JUMP JUMPDEST PUSH1 0x40 MLOAD DUP1 SWAP2 SUB SWAP1 REVERT JUMPDEST PUSH1 0x1 SWAP2 POP POP SWAP2 SWAP1 POP JUMP JUMPDEST PUSH0 DUP1 CALLER PUSH20 0xFFFFFFFFFFFFFFFFFFFFFFFFFFFFFFFFFFFFFFFF AND PUSH20 0xFFFFFFFFFFFFFFFFFFFFFFFFFFFFFFFFFFFFFFFF AND DUP2 MSTORE PUSH1 0x20 ADD SWAP1 DUP2 MSTORE PUSH1 0x20 ADD PUSH0 KECCAK256 SLOAD CALLVALUE PUSH0 DUP1 CALLER PUSH20 0xFFFFFFFFFFFFFFFFFFFFFFFFFFFFFFFFFFFFFFFF AND PUSH20 0xFFFFFFFFFFFFFFFFFFFFFFFFFFFFFFFFFFFFFFFF AND DUP2 MSTORE PUSH1 0x20 ADD SWAP1 DUP2 MSTORE PUSH1 0x20 ADD PUSH0 KECCAK256 SLOAD PUSH2 0x429 SWAP2 SWAP1 PUSH2 0x854 JUMP JUMPDEST LT ISZERO PUSH2 0x46A JUMPI PUSH1 0x40 MLOAD PUSH32 0x8C379A000000000000000000000000000000000000000000000000000000000 DUP2 MSTORE PUSH1 0x4 ADD PUSH2 0x461 SWAP1 PUSH2 0x8D1 JUMP JUMPDEST PUSH1 0x40 MLOAD DUP1 SWAP2 SUB SWAP1 REVERT JUMPDEST CALLVALUE PUSH0 DUP1 CALLER PUSH20 0xFFFFFFFFFFFFFFFFFFFFFFFFFFFFFFFFFFFFFFFF AND PUSH20 0xFFFFFFFFFFFFFFFFFFFFFFFFFFFFFFFFFFFFFFFF AND DUP2 MSTORE PUSH1 0x20 ADD SWAP1 DUP2 MSTORE PUSH1 0x20 ADD PUSH0 KECCAK256 PUSH0 DUP3 DUP3 SLOAD PUSH2 0x4B5 SWAP2 SWAP1 PUSH2 0x854 JUMP JUMPDEST SWAP3 POP POP DUP2 SWAP1 SSTORE POP PUSH0 CALLVALUE SWAP1 POP PUSH32 0x42D7226A69351C5360751810CC72FB1E8803F71F0C06E30EB8D9DA6B8CCF4E19 CALLER DUP3 PUSH0 DUP1 CALLER PUSH20 0xFFFFFFFFFFFFFFFFFFFFFFFFFFFFFFFFFFFFFFFF AND PUSH20 0xFFFFFFFFFFFFFFFFFFFFFFFFFFFFFFFFFFFFFFFF AND DUP2 MSTORE PUSH1 0x20 ADD SWAP1 DUP2 MSTORE PUSH1 0x20 ADD PUSH0 KECCAK256 SLOAD PUSH1 0x40 MLOAD PUSH2 0x52F SWAP4 SWAP3 SWAP2 SWAP1 PUSH2 0x776 JUMP JUMPDEST PUSH1 0x40 MLOAD DUP1 SWAP2 SUB SWAP1 LOG1 POP JUMP JUMPDEST PUSH0 DUP2 SWAP1 POP SWAP2 SWAP1 POP JUMP JUMPDEST PUSH2 0x54C DUP2 PUSH2 0x53A JUMP JUMPDEST DUP3 MSTORE POP POP JUMP JUMPDEST PUSH0 PUSH1 0x20 DUP3 ADD SWAP1 POP PUSH2 0x565 PUSH0 DUP4 ADD DUP5 PUSH2 0x543 JUMP JUMPDEST SWAP3 SWAP2 POP POP JUMP JUMPDEST PUSH0 DUP1 REVERT JUMPDEST PUSH2 0x578 DUP2 PUSH2 0x53A JUMP JUMPDEST DUP2 EQ PUSH2 0x582 JUMPI PUSH0 DUP1 REVERT JUMPDEST POP JUMP JUMPDEST PUSH0 DUP2 CALLDATALOAD SWAP1 POP PUSH2 0x593 DUP2 PUSH2 0x56F JUMP JUMPDEST SWAP3 SWAP2 POP POP JUMP JUMPDEST PUSH0 PUSH1 0x20 DUP3 DUP5 SUB SLT ISZERO PUSH2 0x5AE JUMPI PUSH2 0x5AD PUSH2 0x56B JUMP JUMPDEST JUMPDEST PUSH0 PUSH2 0x5BB DUP5 DUP3 DUP6 ADD PUSH2 0x585 JUMP JUMPDEST SWAP2 POP POP SWAP3 SWAP2 POP POP JUMP JUMPDEST PUSH0 DUP2 ISZERO ISZERO SWAP1 POP SWAP2 SWAP1 POP JUMP JUMPDEST PUSH2 0x5D8 DUP2 PUSH2 0x5C4 JUMP JUMPDEST DUP3 MSTORE POP POP JUMP JUMPDEST PUSH0 PUSH1 0x20 DUP3 ADD SWAP1 POP PUSH2 0x5F1 PUSH0 DUP4 ADD DUP5 PUSH2 0x5CF JUMP JUMPDEST SWAP3 SWAP2 POP POP JUMP JUMPDEST PUSH0 DUP3 DUP3 MSTORE PUSH1 0x20 DUP3 ADD SWAP1 POP SWAP3 SWAP2 POP POP JUMP JUMPDEST PUSH32 0x4F6E6C792042616E6B204F776E657220697320617574686F72697A6564000000 PUSH0 DUP3 ADD MSTORE POP JUMP JUMPDEST PUSH0 PUSH2 0x63B PUSH1 0x1D DUP4 PUSH2 0x5F7 JUMP JUMPDEST SWAP2 POP PUSH2 0x646 DUP3 PUSH2 0x607 JUMP JUMPDEST PUSH1 0x20 DUP3 ADD SWAP1 POP SWAP2 SWAP1 POP JUMP JUMPDEST PUSH0 PUSH1 0x20 DUP3 ADD SWAP1 POP DUP2 DUP2 SUB PUSH0 DUP4 ADD MSTORE PUSH2 0x668 DUP2 PUSH2 0x62F JUMP JUMPDEST SWAP1 POP SWAP2 SWAP1 POP JUMP JUMPDEST PUSH32 0x5375627472616374696F6E3A2062616C616E636520756E646572666C6F770000 PUSH0 DUP3 ADD MSTORE POP JUMP JUMPDEST PUSH0 PUSH2 0x6A3 PUSH1 0x1E DUP4 PUSH2 0x5F7 JUMP JUMPDEST SWAP2 POP PUSH2 0x6AE DUP3 PUSH2 0x66F JUMP JUMPDEST PUSH1 0x20 DUP3 ADD SWAP1 POP SWAP2 SWAP1 POP JUMP JUMPDEST PUSH0 PUSH1 0x20 DUP3 ADD SWAP1 POP DUP2 DUP2 SUB PUSH0 DUP4 ADD MSTORE PUSH2 0x6D0 DUP2 PUSH2 0x697 JUMP JUMPDEST SWAP1 POP SWAP2 SWAP1 POP JUMP JUMPDEST PUSH32 0x4E487B7100000000000000000000000000000000000000000000000000000000 PUSH0 MSTORE PUSH1 0x11 PUSH1 0x4 MSTORE PUSH1 0x24 PUSH0 REVERT JUMPDEST PUSH0 PUSH2 0x70E DUP3 PUSH2 0x53A JUMP JUMPDEST SWAP2 POP PUSH2 0x719 DUP4 PUSH2 0x53A JUMP JUMPDEST SWAP3 POP DUP3 DUP3 SUB SWAP1 POP DUP2 DUP2 GT ISZERO PUSH2 0x731 JUMPI PUSH2 0x730 PUSH2 0x6D7 JUMP JUMPDEST JUMPDEST SWAP3 SWAP2 POP POP JUMP JUMPDEST PUSH0 PUSH20 0xFFFFFFFFFFFFFFFFFFFFFFFFFFFFFFFFFFFFFFFF DUP3 AND SWAP1 POP SWAP2 SWAP1 POP JUMP JUMPDEST PUSH0 PUSH2 0x760 DUP3 PUSH2 0x737 JUMP JUMPDEST SWAP1 POP SWAP2 SWAP1 POP JUMP JUMPDEST PUSH2 0x770 DUP2 PUSH2 0x756 JUMP JUMPDEST DUP3 MSTORE POP POP JUMP JUMPDEST PUSH0 PUSH1 0x60 DUP3 ADD SWAP1 POP PUSH2 0x789 PUSH0 DUP4 ADD DUP7 PUSH2 0x767 JUMP JUMPDEST PUSH2 0x796 PUSH1 0x20 DUP4 ADD DUP6 PUSH2 0x543 JUMP JUMPDEST PUSH2 0x7A3 PUSH1 0x40 DUP4 ADD DUP5 PUSH2 0x543 JUMP JUMPDEST SWAP5 SWAP4 POP POP POP POP JUMP JUMPDEST PUSH0 DUP2 SWAP1 POP SWAP3 SWAP2 POP POP JUMP JUMPDEST POP JUMP JUMPDEST PUSH0 PUSH2 0x7C3 PUSH0 DUP4 PUSH2 0x7AB JUMP JUMPDEST SWAP2 POP PUSH2 0x7CE DUP3 PUSH2 0x7B5 JUMP JUMPDEST PUSH0 DUP3 ADD SWAP1 POP SWAP2 SWAP1 POP JUMP JUMPDEST PUSH0 PUSH2 0x7E2 DUP3 PUSH2 0x7B8 JUMP JUMPDEST SWAP2 POP DUP2 SWAP1 POP SWAP2 SWAP1 POP JUMP JUMPDEST PUSH32 0x5472616E73666572206661696C65640000000000000000000000000000000000 PUSH0 DUP3 ADD MSTORE POP JUMP JUMPDEST PUSH0 PUSH2 0x820 PUSH1 0xF DUP4 PUSH2 0x5F7 JUMP JUMPDEST SWAP2 POP PUSH2 0x82B DUP3 PUSH2 0x7EC JUMP JUMPDEST PUSH1 0x20 DUP3 ADD SWAP1 POP SWAP2 SWAP1 POP JUMP JUMPDEST PUSH0 PUSH1 0x20 DUP3 ADD SWAP1 POP DUP2 DUP2 SUB PUSH0 DUP4 ADD MSTORE PUSH2 0x84D DUP2 PUSH2 0x814 JUMP JUMPDEST SWAP1 POP SWAP2 SWAP1 POP JUMP JUMPDEST PUSH0 PUSH2 0x85E DUP3 PUSH2 0x53A JUMP JUMPDEST SWAP2 POP PUSH2 0x869 DUP4 PUSH2 0x53A JUMP JUMPDEST SWAP3 POP DUP3 DUP3 ADD SWAP1 POP DUP1 DUP3 GT ISZERO PUSH2 0x881 JUMPI PUSH2 0x880 PUSH2 0x6D7 JUMP JUMPDEST JUMPDEST SWAP3 SWAP2 POP POP JUMP JUMPDEST PUSH32 0x4164646974696F6E3A2062616C616E6365206F766572666C6F77000000000000 PUSH0 DUP3 ADD MSTORE POP JUMP JUMPDEST PUSH0 PUSH2 0x8BB PUSH1 0x1A DUP4 PUSH2 0x5F7 JUMP JUMPDEST SWAP2 POP PUSH2 0x8C6 DUP3 PUSH2 0x887 JUMP JUMPDEST PUSH1 0x20 DUP3 ADD SWAP1 POP SWAP2 SWAP1 POP JUMP JUMPDEST PUSH0 PUSH1 0x20 DUP3 ADD SWAP1 POP DUP2 DUP2 SUB PUSH0 DUP4 ADD MSTORE PUSH2 0x8E8 DUP2 PUSH2 0x8AF JUMP JUMPDEST SWAP1 POP SWAP2 SWAP1 POP JUMP INVALID LOG2 PUSH5 0x6970667358 0x22 SLT KECCAK256 SELFDESTRUCT PUSH25 0x53928ADF423C50716ADA2E05DF2BE70A584496D5243BAA220A PUSH10 0xCA1C08D664736F6C6343 STOP ADDMOD BYTE STOP CALLER "
				},
				"gasEstimates": {
					"creation": {
						"codeDepositCost": "468200",
						"executionCost": "24744",
						"totalCost": "492944"
					},
					"external": {
						"deposit()": "infinite",
						"getBalance()": "2519",
						"vaultBalance()": "2576",
						"withdraw(uint256)": "infinite"
					}
				},
				"methodIdentifiers": {
					"deposit()": "d0e30db0",
					"getBalance()": "12065fe0",
					"vaultBalance()": "0bf6cc08",
					"withdraw(uint256)": "2e1a7d4d"
				}
			},
			"storageLayout": {
				"storage": [
					{
						"astId": 5,
						"contract": "contracts/Advanced/simplebank.sol:SimpleBank",
						"label": "bankBalance",
						"offset": 0,
						"slot": "0",
						"type": "t_mapping(t_address,t_uint256)"
					},
					{
						"astId": 23,
						"contract": "contracts/Advanced/simplebank.sol:SimpleBank",
						"label": "contractOwner",
						"offset": 0,
						"slot": "1",
						"type": "t_address_payable"
					}
				],
				"types": {
					"t_address": {
						"encoding": "inplace",
						"label": "address",
						"numberOfBytes": "20"
					},
					"t_address_payable": {
						"encoding": "inplace",
						"label": "address payable",
						"numberOfBytes": "20"
					},
					"t_mapping(t_address,t_uint256)": {
						"encoding": "mapping",
						"key": "t_address",
						"label": "mapping(address => uint256)",
						"numberOfBytes": "32",
						"value": "t_uint256"
					},
					"t_uint256": {
						"encoding": "inplace",
						"label": "uint256",
						"numberOfBytes": "32"
					}
				}
			},
			"userdoc": {
				"kind": "user",
				"methods": {},
				"version": 1
			}
		}
	}
}