{
	"data": {
		"bytecode": {
			"linkReferences": {},
			"object": "6080604052348015600e575f80fd5b506102268061001c5f395ff3fe608060405234801561000f575f80fd5b5060043610610029575f3560e01c8063cf6e7cb61461002d575b5f80fd5b61004760048036038101906100429190610139565b61005d565b60405161005491906101d7565b60405180910390f35b5f808211801561006e5750600c8211155b1561007b575f90506100fd565b600c8211801561008c575060188211155b1561009a57600190506100fd565b6018821180156100ab5750609b8211155b156100b957600290506100fd565b609c821180156100ca575060e48211155b156100d857600390506100fd565b60e4821180156100ea57506102d08211155b156100f857600490506100fd565b600590505b919050565b5f80fd5b5f819050919050565b61011881610106565b8114610122575f80fd5b50565b5f813590506101338161010f565b92915050565b5f6020828403121561014e5761014d610102565b5b5f61015b84828501610125565b91505092915050565b7f4e487b71000000000000000000000000000000000000000000000000000000005f52602160045260245ffd5b600681106101a2576101a1610164565b5b50565b5f8190506101b282610191565b919050565b5f6101c1826101a5565b9050919050565b6101d1816101b7565b82525050565b5f6020820190506101ea5f8301846101c8565b9291505056fea2646970667358221220a3b0a7126d8fe7c2fe425a0caa088ffa93e9f00de5efc0cf227820f9d60e792e64736f6c634300081a0033",
			"opcodes": "PUSH1 0x80 PUSH1 0x40 MSTORE CALLVALUE DUP1 ISZERO PUSH1 0xE JUMPI PUSH0 DUP1 REVERT JUMPDEST POP PUSH2 0x226 DUP1 PUSH2 0x1C PUSH0 CODECOPY PUSH0 RETURN INVALID PUSH1 0x80 PUSH1 0x40 MSTORE CALLVALUE DUP1 ISZERO PUSH2 0xF JUMPI PUSH0 DUP1 REVERT JUMPDEST POP PUSH1 0x4 CALLDATASIZE LT PUSH2 0x29 JUMPI PUSH0 CALLDATALOAD PUSH1 0xE0 SHR DUP1 PUSH4 0xCF6E7CB6 EQ PUSH2 0x2D JUMPI JUMPDEST PUSH0 DUP1 REVERT JUMPDEST PUSH2 0x47 PUSH1 0x4 DUP1 CALLDATASIZE SUB DUP2 ADD SWAP1 PUSH2 0x42 SWAP2 SWAP1 PUSH2 0x139 JUMP JUMPDEST PUSH2 0x5D JUMP JUMPDEST PUSH1 0x40 MLOAD PUSH2 0x54 SWAP2 SWAP1 PUSH2 0x1D7 JUMP JUMPDEST PUSH1 0x40 MLOAD DUP1 SWAP2 SUB SWAP1 RETURN JUMPDEST PUSH0 DUP1 DUP3 GT DUP1 ISZERO PUSH2 0x6E JUMPI POP PUSH1 0xC DUP3 GT ISZERO JUMPDEST ISZERO PUSH2 0x7B JUMPI PUSH0 SWAP1 POP PUSH2 0xFD JUMP JUMPDEST PUSH1 0xC DUP3 GT DUP1 ISZERO PUSH2 0x8C JUMPI POP PUSH1 0x18 DUP3 GT ISZERO JUMPDEST ISZERO PUSH2 0x9A JUMPI PUSH1 0x1 SWAP1 POP PUSH2 0xFD JUMP JUMPDEST PUSH1 0x18 DUP3 GT DUP1 ISZERO PUSH2 0xAB JUMPI POP PUSH1 0x9B DUP3 GT ISZERO JUMPDEST ISZERO PUSH2 0xB9 JUMPI PUSH1 0x2 SWAP1 POP PUSH2 0xFD JUMP JUMPDEST PUSH1 0x9C DUP3 GT DUP1 ISZERO PUSH2 0xCA JUMPI POP PUSH1 0xE4 DUP3 GT ISZERO JUMPDEST ISZERO PUSH2 0xD8 JUMPI PUSH1 0x3 SWAP1 POP PUSH2 0xFD JUMP JUMPDEST PUSH1 0xE4 DUP3 GT DUP1 ISZERO PUSH2 0xEA JUMPI POP PUSH2 0x2D0 DUP3 GT ISZERO JUMPDEST ISZERO PUSH2 0xF8 JUMPI PUSH1 0x4 SWAP1 POP PUSH2 0xFD JUMP JUMPDEST PUSH1 0x5 SWAP1 POP JUMPDEST SWAP2 SWAP1 POP JUMP JUMPDEST PUSH0 DUP1 REVERT JUMPDEST PUSH0 DUP2 SWAP1 POP SWAP2 SWAP1 POP JUMP JUMPDEST PUSH2 0x118 DUP2 PUSH2 0x106 JUMP JUMPDEST DUP2 EQ PUSH2 0x122 JUMPI PUSH0 DUP1 REVERT JUMPDEST POP JUMP JUMPDEST PUSH0 DUP2 CALLDATALOAD SWAP1 POP PUSH2 0x133 DUP2 PUSH2 0x10F JUMP JUMPDEST SWAP3 SWAP2 POP POP JUMP JUMPDEST PUSH0 PUSH1 0x20 DUP3 DUP5 SUB SLT ISZERO PUSH2 0x14E JUMPI PUSH2 0x14D PUSH2 0x102 JUMP JUMPDEST JUMPDEST PUSH0 PUSH2 0x15B DUP5 DUP3 DUP6 ADD PUSH2 0x125 JUMP JUMPDEST SWAP2 POP POP SWAP3 SWAP2 POP POP JUMP JUMPDEST PUSH32 0x4E487B7100000000000000000000000000000000000000000000000000000000 PUSH0 MSTORE PUSH1 0x21 PUSH1 0x4 MSTORE PUSH1 0x24 PUSH0 REVERT JUMPDEST PUSH1 0x6 DUP2 LT PUSH2 0x1A2 JUMPI PUSH2 0x1A1 PUSH2 0x164 JUMP JUMPDEST JUMPDEST POP JUMP JUMPDEST PUSH0 DUP2 SWAP1 POP PUSH2 0x1B2 DUP3 PUSH2 0x191 JUMP JUMPDEST SWAP2 SWAP1 POP JUMP JUMPDEST PUSH0 PUSH2 0x1C1 DUP3 PUSH2 0x1A5 JUMP JUMPDEST SWAP1 POP SWAP2 SWAP1 POP JUMP JUMPDEST PUSH2 0x1D1 DUP2 PUSH2 0x1B7 JUMP JUMPDEST DUP3 MSTORE POP POP JUMP JUMPDEST PUSH0 PUSH1 0x20 DUP3 ADD SWAP1 POP PUSH2 0x1EA PUSH0 DUP4 ADD DUP5 PUSH2 0x1C8 JUMP JUMPDEST SWAP3 SWAP2 POP POP JUMP INVALID LOG2 PUSH5 0x6970667358 0x22 SLT KECCAK256 LOG3 0xB0 0xA7 SLT PUSH14 0x8FE7C2FE425A0CAA088FFA93E9F0 0xD 0xE5 0xEF 0xC0 0xCF 0x22 PUSH25 0x20F9D60E792E64736F6C634300081A00330000000000000000 "
		},
		"gasEstimates": {
			"creation": {
				"codeDepositCost": "110000",
				"executionCost": "157",
				"totalCost": "110157"
			},
			"external": {
				"getstage(uint256)": "976"
			}
		},
		"methodIdentifiers": {
			"getstage(uint256)": "cf6e7cb6"
		}
	},
	"abi": [
		{
			"inputs": [
				{
					"internalType": "uint256",
					"name": "months",
					"type": "uint256"
				}
			],
			"name": "getstage",
			"outputs": [
				{
					"internalType": "enum lifecycle.Stage",
					"name": "",
					"type": "uint8"
				}
			],
			"stateMutability": "pure",
			"type": "function"
		}
	]
}