{
	"data": {
		"bytecode": {
			"linkReferences": {},
			"object": "6080604052348015600e575f80fd5b50335f806101000a81548173ffffffffffffffffffffffffffffffffffffffff021916908373ffffffffffffffffffffffffffffffffffffffff160217905550610a6c8061005b5f395ff3fe608060405234801561000f575f80fd5b506004361061003f575f3560e01c8063b46bff8914610043578063c8616da514610061578063e6cf13461461007d575b5f80fd5b61004b6100af565b604051610058919061034e565b60405180910390f35b61007b600480360381019061007691906104e7565b6100d2565b005b61009760048036038101906100929190610553565b610263565b6040516100a6939291906105ed565b60405180910390f35b5f8054906101000a900473ffffffffffffffffffffffffffffffffffffffff1681565b5f8054906101000a900473ffffffffffffffffffffffffffffffffffffffff1673ffffffffffffffffffffffffffffffffffffffff163373ffffffffffffffffffffffffffffffffffffffff161461015f576040517f08c379a000000000000000000000000000000000000000000000000000000000815260040161015690610673565b60405180910390fd5b5f8211801561016f5750600c8211155b6101ae576040517f08c379a00000000000000000000000000000000000000000000000000000000081526004016101a5906106db565b60405180910390fd5b5f604051806060016040528085815260200184815260200183815250905060015f8154809291906101de90610726565b91905055508060025f60015481526020019081526020015f205f820151815f01908161020a9190610967565b5060208201518160010155604082015181600201559050507f837102bfa3fa1437554712a20c1c1d67b6689aa3f9739b4fb7cb2d1eab97a2b9848442604051610255939291906105ed565b60405180910390a150505050565b6002602052805f5260405f205f91509050805f0180546102829061079a565b80601f01602080910402602001604051908101604052809291908181526020018280546102ae9061079a565b80156102f95780601f106102d0576101008083540402835291602001916102f9565b820191905f5260205f20905b8154815290600101906020018083116102dc57829003601f168201915b5050505050908060010154908060020154905083565b5f73ffffffffffffffffffffffffffffffffffffffff82169050919050565b5f6103388261030f565b9050919050565b6103488161032e565b82525050565b5f6020820190506103615f83018461033f565b92915050565b5f604051905090565b5f80fd5b5f80fd5b5f80fd5b5f80fd5b5f601f19601f8301169050919050565b7f4e487b71000000000000000000000000000000000000000000000000000000005f52604160045260245ffd5b6103c682610380565b810181811067ffffffffffffffff821117156103e5576103e4610390565b5b80604052505050565b5f6103f7610367565b905061040382826103bd565b919050565b5f67ffffffffffffffff82111561042257610421610390565b5b61042b82610380565b9050602081019050919050565b828183375f83830152505050565b5f61045861045384610408565b6103ee565b9050828152602081018484840111156104745761047361037c565b5b61047f848285610438565b509392505050565b5f82601f83011261049b5761049a610378565b5b81356104ab848260208601610446565b91505092915050565b5f819050919050565b6104c6816104b4565b81146104d0575f80fd5b50565b5f813590506104e1816104bd565b92915050565b5f805f606084860312156104fe576104fd610370565b5b5f84013567ffffffffffffffff81111561051b5761051a610374565b5b61052786828701610487565b9350506020610538868287016104d3565b9250506040610549868287016104d3565b9150509250925092565b5f6020828403121561056857610567610370565b5b5f610575848285016104d3565b91505092915050565b5f81519050919050565b5f82825260208201905092915050565b8281835e5f83830152505050565b5f6105b08261057e565b6105ba8185610588565b93506105ca818560208601610598565b6105d381610380565b840191505092915050565b6105e7816104b4565b82525050565b5f6060820190508181035f83015261060581866105a6565b905061061460208301856105de565b61062160408301846105de565b949350505050565b7f6d6f6469666965722073686f756c6420626520746561636865720000000000005f82015250565b5f61065d601a83610588565b915061066882610629565b602082019050919050565b5f6020820190508181035f83015261068a81610651565b9050919050565b7f696e76616c696420636c617373000000000000000000000000000000000000005f82015250565b5f6106c5600d83610588565b91506106d082610691565b602082019050919050565b5f6020820190508181035f8301526106f2816106b9565b9050919050565b7f4e487b71000000000000000000000000000000000000000000000000000000005f52601160045260245ffd5b5f610730826104b4565b91507fffffffffffffffffffffffffffffffffffffffffffffffffffffffffffffffff8203610762576107616106f9565b5b600182019050919050565b7f4e487b71000000000000000000000000000000000000000000000000000000005f52602260045260245ffd5b5f60028204905060018216806107b157607f821691505b6020821081036107c4576107c361076d565b5b50919050565b5f819050815f5260205f209050919050565b5f6020601f8301049050919050565b5f82821b905092915050565b5f600883026108267fffffffffffffffffffffffffffffffffffffffffffffffffffffffffffffffff826107eb565b61083086836107eb565b95508019841693508086168417925050509392505050565b5f819050919050565b5f61086b610866610861846104b4565b610848565b6104b4565b9050919050565b5f819050919050565b61088483610851565b61089861089082610872565b8484546107f7565b825550505050565b5f90565b6108ac6108a0565b6108b781848461087b565b505050565b5b818110156108da576108cf5f826108a4565b6001810190506108bd565b5050565b601f82111561091f576108f0816107ca565b6108f9846107dc565b81016020851015610908578190505b61091c610914856107dc565b8301826108bc565b50505b505050565b5f82821c905092915050565b5f61093f5f1984600802610924565b1980831691505092915050565b5f6109578383610930565b9150826002028217905092915050565b6109708261057e565b67ffffffffffffffff81111561098957610988610390565b5b610993825461079a565b61099e8282856108de565b5f60209050601f8311600181146109cf575f84156109bd578287015190505b6109c7858261094c565b865550610a2e565b601f1984166109dd866107ca565b5f5b82811015610a04578489015182556001820191506020850194506020810190506109df565b86831015610a215784890151610a1d601f891682610930565b8355505b6001600288020188555050505b50505050505056fea2646970667358221220b1f4bf054227ec781f0e29f0e3e4c9dfc87a00d3e515095d1580370929a2a68664736f6c634300081a0033",
			"opcodes": "PUSH1 0x80 PUSH1 0x40 MSTORE CALLVALUE DUP1 ISZERO PUSH1 0xE JUMPI PUSH0 DUP1 REVERT JUMPDEST POP CALLER PUSH0 DUP1 PUSH2 0x100 EXP DUP2 SLOAD DUP2 PUSH20 0xFFFFFFFFFFFFFFFFFFFFFFFFFFFFFFFFFFFFFFFF MUL NOT AND SWAP1 DUP4 PUSH20 0xFFFFFFFFFFFFFFFFFFFFFFFFFFFFFFFFFFFFFFFF AND MUL OR SWAP1 SSTORE POP PUSH2 0xA6C DUP1 PUSH2 0x5B PUSH0 CODECOPY PUSH0 RETURN INVALID PUSH1 0x80 PUSH1 0x40 MSTORE CALLVALUE DUP1 ISZERO PUSH2 0xF JUMPI PUSH0 DUP1 REVERT JUMPDEST POP PUSH1 0x4 CALLDATASIZE LT PUSH2 0x3F JUMPI PUSH0 CALLDATALOAD PUSH1 0xE0 SHR DUP1 PUSH4 0xB46BFF89 EQ PUSH2 0x43 JUMPI DUP1 PUSH4 0xC8616DA5 EQ PUSH2 0x61 JUMPI DUP1 PUSH4 0xE6CF1346 EQ PUSH2 0x7D JUMPI JUMPDEST PUSH0 DUP1 REVERT JUMPDEST PUSH2 0x4B PUSH2 0xAF JUMP JUMPDEST PUSH1 0x40 MLOAD PUSH2 0x58 SWAP2 SWAP1 PUSH2 0x34E JUMP JUMPDEST PUSH1 0x40 MLOAD DUP1 SWAP2 SUB SWAP1 RETURN JUMPDEST PUSH2 0x7B PUSH1 0x4 DUP1 CALLDATASIZE SUB DUP2 ADD SWAP1 PUSH2 0x76 SWAP2 SWAP1 PUSH2 0x4E7 JUMP JUMPDEST PUSH2 0xD2 JUMP JUMPDEST STOP JUMPDEST PUSH2 0x97 PUSH1 0x4 DUP1 CALLDATASIZE SUB DUP2 ADD SWAP1 PUSH2 0x92 SWAP2 SWAP1 PUSH2 0x553 JUMP JUMPDEST PUSH2 0x263 JUMP JUMPDEST PUSH1 0x40 MLOAD PUSH2 0xA6 SWAP4 SWAP3 SWAP2 SWAP1 PUSH2 0x5ED JUMP JUMPDEST PUSH1 0x40 MLOAD DUP1 SWAP2 SUB SWAP1 RETURN JUMPDEST PUSH0 DUP1 SLOAD SWAP1 PUSH2 0x100 EXP SWAP1 DIV PUSH20 0xFFFFFFFFFFFFFFFFFFFFFFFFFFFFFFFFFFFFFFFF AND DUP2 JUMP JUMPDEST PUSH0 DUP1 SLOAD SWAP1 PUSH2 0x100 EXP SWAP1 DIV PUSH20 0xFFFFFFFFFFFFFFFFFFFFFFFFFFFFFFFFFFFFFFFF AND PUSH20 0xFFFFFFFFFFFFFFFFFFFFFFFFFFFFFFFFFFFFFFFF AND CALLER PUSH20 0xFFFFFFFFFFFFFFFFFFFFFFFFFFFFFFFFFFFFFFFF AND EQ PUSH2 0x15F JUMPI PUSH1 0x40 MLOAD PUSH32 0x8C379A000000000000000000000000000000000000000000000000000000000 DUP2 MSTORE PUSH1 0x4 ADD PUSH2 0x156 SWAP1 PUSH2 0x673 JUMP JUMPDEST PUSH1 0x40 MLOAD DUP1 SWAP2 SUB SWAP1 REVERT JUMPDEST PUSH0 DUP3 GT DUP1 ISZERO PUSH2 0x16F JUMPI POP PUSH1 0xC DUP3 GT ISZERO JUMPDEST PUSH2 0x1AE JUMPI PUSH1 0x40 MLOAD PUSH32 0x8C379A000000000000000000000000000000000000000000000000000000000 DUP2 MSTORE PUSH1 0x4 ADD PUSH2 0x1A5 SWAP1 PUSH2 0x6DB JUMP JUMPDEST PUSH1 0x40 MLOAD DUP1 SWAP2 SUB SWAP1 REVERT JUMPDEST PUSH0 PUSH1 0x40 MLOAD DUP1 PUSH1 0x60 ADD PUSH1 0x40 MSTORE DUP1 DUP6 DUP2 MSTORE PUSH1 0x20 ADD DUP5 DUP2 MSTORE PUSH1 0x20 ADD DUP4 DUP2 MSTORE POP SWAP1 POP PUSH1 0x1 PUSH0 DUP2 SLOAD DUP1 SWAP3 SWAP2 SWAP1 PUSH2 0x1DE SWAP1 PUSH2 0x726 JUMP JUMPDEST SWAP2 SWAP1 POP SSTORE POP DUP1 PUSH1 0x2 PUSH0 PUSH1 0x1 SLOAD DUP2 MSTORE PUSH1 0x20 ADD SWAP1 DUP2 MSTORE PUSH1 0x20 ADD PUSH0 KECCAK256 PUSH0 DUP3 ADD MLOAD DUP2 PUSH0 ADD SWAP1 DUP2 PUSH2 0x20A SWAP2 SWAP1 PUSH2 0x967 JUMP JUMPDEST POP PUSH1 0x20 DUP3 ADD MLOAD DUP2 PUSH1 0x1 ADD SSTORE PUSH1 0x40 DUP3 ADD MLOAD DUP2 PUSH1 0x2 ADD SSTORE SWAP1 POP POP PUSH32 0x837102BFA3FA1437554712A20C1C1D67B6689AA3F9739B4FB7CB2D1EAB97A2B9 DUP5 DUP5 TIMESTAMP PUSH1 0x40 MLOAD PUSH2 0x255 SWAP4 SWAP3 SWAP2 SWAP1 PUSH2 0x5ED JUMP JUMPDEST PUSH1 0x40 MLOAD DUP1 SWAP2 SUB SWAP1 LOG1 POP POP POP POP JUMP JUMPDEST PUSH1 0x2 PUSH1 0x20 MSTORE DUP1 PUSH0 MSTORE PUSH1 0x40 PUSH0 KECCAK256 PUSH0 SWAP2 POP SWAP1 POP DUP1 PUSH0 ADD DUP1 SLOAD PUSH2 0x282 SWAP1 PUSH2 0x79A JUMP JUMPDEST DUP1 PUSH1 0x1F ADD PUSH1 0x20 DUP1 SWAP2 DIV MUL PUSH1 0x20 ADD PUSH1 0x40 MLOAD SWAP1 DUP2 ADD PUSH1 0x40 MSTORE DUP1 SWAP3 SWAP2 SWAP1 DUP2 DUP2 MSTORE PUSH1 0x20 ADD DUP3 DUP1 SLOAD PUSH2 0x2AE SWAP1 PUSH2 0x79A JUMP JUMPDEST DUP1 ISZERO PUSH2 0x2F9 JUMPI DUP1 PUSH1 0x1F LT PUSH2 0x2D0 JUMPI PUSH2 0x100 DUP1 DUP4 SLOAD DIV MUL DUP4 MSTORE SWAP2 PUSH1 0x20 ADD SWAP2 PUSH2 0x2F9 JUMP JUMPDEST DUP3 ADD SWAP2 SWAP1 PUSH0 MSTORE PUSH1 0x20 PUSH0 KECCAK256 SWAP1 JUMPDEST DUP2 SLOAD DUP2 MSTORE SWAP1 PUSH1 0x1 ADD SWAP1 PUSH1 0x20 ADD DUP1 DUP4 GT PUSH2 0x2DC JUMPI DUP3 SWAP1 SUB PUSH1 0x1F AND DUP3 ADD SWAP2 JUMPDEST POP POP POP POP POP SWAP1 DUP1 PUSH1 0x1 ADD SLOAD SWAP1 DUP1 PUSH1 0x2 ADD SLOAD SWAP1 POP DUP4 JUMP JUMPDEST PUSH0 PUSH20 0xFFFFFFFFFFFFFFFFFFFFFFFFFFFFFFFFFFFFFFFF DUP3 AND SWAP1 POP SWAP2 SWAP1 POP JUMP JUMPDEST PUSH0 PUSH2 0x338 DUP3 PUSH2 0x30F JUMP JUMPDEST SWAP1 POP SWAP2 SWAP1 POP JUMP JUMPDEST PUSH2 0x348 DUP2 PUSH2 0x32E JUMP JUMPDEST DUP3 MSTORE POP POP JUMP JUMPDEST PUSH0 PUSH1 0x20 DUP3 ADD SWAP1 POP PUSH2 0x361 PUSH0 DUP4 ADD DUP5 PUSH2 0x33F JUMP JUMPDEST SWAP3 SWAP2 POP POP JUMP JUMPDEST PUSH0 PUSH1 0x40 MLOAD SWAP1 POP SWAP1 JUMP JUMPDEST PUSH0 DUP1 REVERT JUMPDEST PUSH0 DUP1 REVERT JUMPDEST PUSH0 DUP1 REVERT JUMPDEST PUSH0 DUP1 REVERT JUMPDEST PUSH0 PUSH1 0x1F NOT PUSH1 0x1F DUP4 ADD AND SWAP1 POP SWAP2 SWAP1 POP JUMP JUMPDEST PUSH32 0x4E487B7100000000000000000000000000000000000000000000000000000000 PUSH0 MSTORE PUSH1 0x41 PUSH1 0x4 MSTORE PUSH1 0x24 PUSH0 REVERT JUMPDEST PUSH2 0x3C6 DUP3 PUSH2 0x380 JUMP JUMPDEST DUP2 ADD DUP2 DUP2 LT PUSH8 0xFFFFFFFFFFFFFFFF DUP3 GT OR ISZERO PUSH2 0x3E5 JUMPI PUSH2 0x3E4 PUSH2 0x390 JUMP JUMPDEST JUMPDEST DUP1 PUSH1 0x40 MSTORE POP POP POP JUMP JUMPDEST PUSH0 PUSH2 0x3F7 PUSH2 0x367 JUMP JUMPDEST SWAP1 POP PUSH2 0x403 DUP3 DUP3 PUSH2 0x3BD JUMP JUMPDEST SWAP2 SWAP1 POP JUMP JUMPDEST PUSH0 PUSH8 0xFFFFFFFFFFFFFFFF DUP3 GT ISZERO PUSH2 0x422 JUMPI PUSH2 0x421 PUSH2 0x390 JUMP JUMPDEST JUMPDEST PUSH2 0x42B DUP3 PUSH2 0x380 JUMP JUMPDEST SWAP1 POP PUSH1 0x20 DUP2 ADD SWAP1 POP SWAP2 SWAP1 POP JUMP JUMPDEST DUP3 DUP2 DUP4 CALLDATACOPY PUSH0 DUP4 DUP4 ADD MSTORE POP POP POP JUMP JUMPDEST PUSH0 PUSH2 0x458 PUSH2 0x453 DUP5 PUSH2 0x408 JUMP JUMPDEST PUSH2 0x3EE JUMP JUMPDEST SWAP1 POP DUP3 DUP2 MSTORE PUSH1 0x20 DUP2 ADD DUP5 DUP5 DUP5 ADD GT ISZERO PUSH2 0x474 JUMPI PUSH2 0x473 PUSH2 0x37C JUMP JUMPDEST JUMPDEST PUSH2 0x47F DUP5 DUP3 DUP6 PUSH2 0x438 JUMP JUMPDEST POP SWAP4 SWAP3 POP POP POP JUMP JUMPDEST PUSH0 DUP3 PUSH1 0x1F DUP4 ADD SLT PUSH2 0x49B JUMPI PUSH2 0x49A PUSH2 0x378 JUMP JUMPDEST JUMPDEST DUP2 CALLDATALOAD PUSH2 0x4AB DUP5 DUP3 PUSH1 0x20 DUP7 ADD PUSH2 0x446 JUMP JUMPDEST SWAP2 POP POP SWAP3 SWAP2 POP POP JUMP JUMPDEST PUSH0 DUP2 SWAP1 POP SWAP2 SWAP1 POP JUMP JUMPDEST PUSH2 0x4C6 DUP2 PUSH2 0x4B4 JUMP JUMPDEST DUP2 EQ PUSH2 0x4D0 JUMPI PUSH0 DUP1 REVERT JUMPDEST POP JUMP JUMPDEST PUSH0 DUP2 CALLDATALOAD SWAP1 POP PUSH2 0x4E1 DUP2 PUSH2 0x4BD JUMP JUMPDEST SWAP3 SWAP2 POP POP JUMP JUMPDEST PUSH0 DUP1 PUSH0 PUSH1 0x60 DUP5 DUP7 SUB SLT ISZERO PUSH2 0x4FE JUMPI PUSH2 0x4FD PUSH2 0x370 JUMP JUMPDEST JUMPDEST PUSH0 DUP5 ADD CALLDATALOAD PUSH8 0xFFFFFFFFFFFFFFFF DUP2 GT ISZERO PUSH2 0x51B JUMPI PUSH2 0x51A PUSH2 0x374 JUMP JUMPDEST JUMPDEST PUSH2 0x527 DUP7 DUP3 DUP8 ADD PUSH2 0x487 JUMP JUMPDEST SWAP4 POP POP PUSH1 0x20 PUSH2 0x538 DUP7 DUP3 DUP8 ADD PUSH2 0x4D3 JUMP JUMPDEST SWAP3 POP POP PUSH1 0x40 PUSH2 0x549 DUP7 DUP3 DUP8 ADD PUSH2 0x4D3 JUMP JUMPDEST SWAP2 POP POP SWAP3 POP SWAP3 POP SWAP3 JUMP JUMPDEST PUSH0 PUSH1 0x20 DUP3 DUP5 SUB SLT ISZERO PUSH2 0x568 JUMPI PUSH2 0x567 PUSH2 0x370 JUMP JUMPDEST JUMPDEST PUSH0 PUSH2 0x575 DUP5 DUP3 DUP6 ADD PUSH2 0x4D3 JUMP JUMPDEST SWAP2 POP POP SWAP3 SWAP2 POP POP JUMP JUMPDEST PUSH0 DUP2 MLOAD SWAP1 POP SWAP2 SWAP1 POP JUMP JUMPDEST PUSH0 DUP3 DUP3 MSTORE PUSH1 0x20 DUP3 ADD SWAP1 POP SWAP3 SWAP2 POP POP JUMP JUMPDEST DUP3 DUP2 DUP4 MCOPY PUSH0 DUP4 DUP4 ADD MSTORE POP POP POP JUMP JUMPDEST PUSH0 PUSH2 0x5B0 DUP3 PUSH2 0x57E JUMP JUMPDEST PUSH2 0x5BA DUP2 DUP6 PUSH2 0x588 JUMP JUMPDEST SWAP4 POP PUSH2 0x5CA DUP2 DUP6 PUSH1 0x20 DUP7 ADD PUSH2 0x598 JUMP JUMPDEST PUSH2 0x5D3 DUP2 PUSH2 0x380 JUMP JUMPDEST DUP5 ADD SWAP2 POP POP SWAP3 SWAP2 POP POP JUMP JUMPDEST PUSH2 0x5E7 DUP2 PUSH2 0x4B4 JUMP JUMPDEST DUP3 MSTORE POP POP JUMP JUMPDEST PUSH0 PUSH1 0x60 DUP3 ADD SWAP1 POP DUP2 DUP2 SUB PUSH0 DUP4 ADD MSTORE PUSH2 0x605 DUP2 DUP7 PUSH2 0x5A6 JUMP JUMPDEST SWAP1 POP PUSH2 0x614 PUSH1 0x20 DUP4 ADD DUP6 PUSH2 0x5DE JUMP JUMPDEST PUSH2 0x621 PUSH1 0x40 DUP4 ADD DUP5 PUSH2 0x5DE JUMP JUMPDEST SWAP5 SWAP4 POP POP POP POP JUMP JUMPDEST PUSH32 0x6D6F6469666965722073686F756C642062652074656163686572000000000000 PUSH0 DUP3 ADD MSTORE POP JUMP JUMPDEST PUSH0 PUSH2 0x65D PUSH1 0x1A DUP4 PUSH2 0x588 JUMP JUMPDEST SWAP2 POP PUSH2 0x668 DUP3 PUSH2 0x629 JUMP JUMPDEST PUSH1 0x20 DUP3 ADD SWAP1 POP SWAP2 SWAP1 POP JUMP JUMPDEST PUSH0 PUSH1 0x20 DUP3 ADD SWAP1 POP DUP2 DUP2 SUB PUSH0 DUP4 ADD MSTORE PUSH2 0x68A DUP2 PUSH2 0x651 JUMP JUMPDEST SWAP1 POP SWAP2 SWAP1 POP JUMP JUMPDEST PUSH32 0x696E76616C696420636C61737300000000000000000000000000000000000000 PUSH0 DUP3 ADD MSTORE POP JUMP JUMPDEST PUSH0 PUSH2 0x6C5 PUSH1 0xD DUP4 PUSH2 0x588 JUMP JUMPDEST SWAP2 POP PUSH2 0x6D0 DUP3 PUSH2 0x691 JUMP JUMPDEST PUSH1 0x20 DUP3 ADD SWAP1 POP SWAP2 SWAP1 POP JUMP JUMPDEST PUSH0 PUSH1 0x20 DUP3 ADD SWAP1 POP DUP2 DUP2 SUB PUSH0 DUP4 ADD MSTORE PUSH2 0x6F2 DUP2 PUSH2 0x6B9 JUMP JUMPDEST SWAP1 POP SWAP2 SWAP1 POP JUMP JUMPDEST PUSH32 0x4E487B7100000000000000000000000000000000000000000000000000000000 PUSH0 MSTORE PUSH1 0x11 PUSH1 0x4 MSTORE PUSH1 0x24 PUSH0 REVERT JUMPDEST PUSH0 PUSH2 0x730 DUP3 PUSH2 0x4B4 JUMP JUMPDEST SWAP2 POP PUSH32 0xFFFFFFFFFFFFFFFFFFFFFFFFFFFFFFFFFFFFFFFFFFFFFFFFFFFFFFFFFFFFFFFF DUP3 SUB PUSH2 0x762 JUMPI PUSH2 0x761 PUSH2 0x6F9 JUMP JUMPDEST JUMPDEST PUSH1 0x1 DUP3 ADD SWAP1 POP SWAP2 SWAP1 POP JUMP JUMPDEST PUSH32 0x4E487B7100000000000000000000000000000000000000000000000000000000 PUSH0 MSTORE PUSH1 0x22 PUSH1 0x4 MSTORE PUSH1 0x24 PUSH0 REVERT JUMPDEST PUSH0 PUSH1 0x2 DUP3 DIV SWAP1 POP PUSH1 0x1 DUP3 AND DUP1 PUSH2 0x7B1 JUMPI PUSH1 0x7F DUP3 AND SWAP2 POP JUMPDEST PUSH1 0x20 DUP3 LT DUP2 SUB PUSH2 0x7C4 JUMPI PUSH2 0x7C3 PUSH2 0x76D JUMP JUMPDEST JUMPDEST POP SWAP2 SWAP1 POP JUMP JUMPDEST PUSH0 DUP2 SWAP1 POP DUP2 PUSH0 MSTORE PUSH1 0x20 PUSH0 KECCAK256 SWAP1 POP SWAP2 SWAP1 POP JUMP JUMPDEST PUSH0 PUSH1 0x20 PUSH1 0x1F DUP4 ADD DIV SWAP1 POP SWAP2 SWAP1 POP JUMP JUMPDEST PUSH0 DUP3 DUP3 SHL SWAP1 POP SWAP3 SWAP2 POP POP JUMP JUMPDEST PUSH0 PUSH1 0x8 DUP4 MUL PUSH2 0x826 PUSH32 0xFFFFFFFFFFFFFFFFFFFFFFFFFFFFFFFFFFFFFFFFFFFFFFFFFFFFFFFFFFFFFFFF DUP3 PUSH2 0x7EB JUMP JUMPDEST PUSH2 0x830 DUP7 DUP4 PUSH2 0x7EB JUMP JUMPDEST SWAP6 POP DUP1 NOT DUP5 AND SWAP4 POP DUP1 DUP7 AND DUP5 OR SWAP3 POP POP POP SWAP4 SWAP3 POP POP POP JUMP JUMPDEST PUSH0 DUP2 SWAP1 POP SWAP2 SWAP1 POP JUMP JUMPDEST PUSH0 PUSH2 0x86B PUSH2 0x866 PUSH2 0x861 DUP5 PUSH2 0x4B4 JUMP JUMPDEST PUSH2 0x848 JUMP JUMPDEST PUSH2 0x4B4 JUMP JUMPDEST SWAP1 POP SWAP2 SWAP1 POP JUMP JUMPDEST PUSH0 DUP2 SWAP1 POP SWAP2 SWAP1 POP JUMP JUMPDEST PUSH2 0x884 DUP4 PUSH2 0x851 JUMP JUMPDEST PUSH2 0x898 PUSH2 0x890 DUP3 PUSH2 0x872 JUMP JUMPDEST DUP5 DUP5 SLOAD PUSH2 0x7F7 JUMP JUMPDEST DUP3 SSTORE POP POP POP POP JUMP JUMPDEST PUSH0 SWAP1 JUMP JUMPDEST PUSH2 0x8AC PUSH2 0x8A0 JUMP JUMPDEST PUSH2 0x8B7 DUP2 DUP5 DUP5 PUSH2 0x87B JUMP JUMPDEST POP POP POP JUMP JUMPDEST JUMPDEST DUP2 DUP2 LT ISZERO PUSH2 0x8DA JUMPI PUSH2 0x8CF PUSH0 DUP3 PUSH2 0x8A4 JUMP JUMPDEST PUSH1 0x1 DUP2 ADD SWAP1 POP PUSH2 0x8BD JUMP JUMPDEST POP POP JUMP JUMPDEST PUSH1 0x1F DUP3 GT ISZERO PUSH2 0x91F JUMPI PUSH2 0x8F0 DUP2 PUSH2 0x7CA JUMP JUMPDEST PUSH2 0x8F9 DUP5 PUSH2 0x7DC JUMP JUMPDEST DUP2 ADD PUSH1 0x20 DUP6 LT ISZERO PUSH2 0x908 JUMPI DUP2 SWAP1 POP JUMPDEST PUSH2 0x91C PUSH2 0x914 DUP6 PUSH2 0x7DC JUMP JUMPDEST DUP4 ADD DUP3 PUSH2 0x8BC JUMP JUMPDEST POP POP JUMPDEST POP POP POP JUMP JUMPDEST PUSH0 DUP3 DUP3 SHR SWAP1 POP SWAP3 SWAP2 POP POP JUMP JUMPDEST PUSH0 PUSH2 0x93F PUSH0 NOT DUP5 PUSH1 0x8 MUL PUSH2 0x924 JUMP JUMPDEST NOT DUP1 DUP4 AND SWAP2 POP POP SWAP3 SWAP2 POP POP JUMP JUMPDEST PUSH0 PUSH2 0x957 DUP4 DUP4 PUSH2 0x930 JUMP JUMPDEST SWAP2 POP DUP3 PUSH1 0x2 MUL DUP3 OR SWAP1 POP SWAP3 SWAP2 POP POP JUMP JUMPDEST PUSH2 0x970 DUP3 PUSH2 0x57E JUMP JUMPDEST PUSH8 0xFFFFFFFFFFFFFFFF DUP2 GT ISZERO PUSH2 0x989 JUMPI PUSH2 0x988 PUSH2 0x390 JUMP JUMPDEST JUMPDEST PUSH2 0x993 DUP3 SLOAD PUSH2 0x79A JUMP JUMPDEST PUSH2 0x99E DUP3 DUP3 DUP6 PUSH2 0x8DE JUMP JUMPDEST PUSH0 PUSH1 0x20 SWAP1 POP PUSH1 0x1F DUP4 GT PUSH1 0x1 DUP2 EQ PUSH2 0x9CF JUMPI PUSH0 DUP5 ISZERO PUSH2 0x9BD JUMPI DUP3 DUP8 ADD MLOAD SWAP1 POP JUMPDEST PUSH2 0x9C7 DUP6 DUP3 PUSH2 0x94C JUMP JUMPDEST DUP7 SSTORE POP PUSH2 0xA2E JUMP JUMPDEST PUSH1 0x1F NOT DUP5 AND PUSH2 0x9DD DUP7 PUSH2 0x7CA JUMP JUMPDEST PUSH0 JUMPDEST DUP3 DUP2 LT ISZERO PUSH2 0xA04 JUMPI DUP5 DUP10 ADD MLOAD DUP3 SSTORE PUSH1 0x1 DUP3 ADD SWAP2 POP PUSH1 0x20 DUP6 ADD SWAP5 POP PUSH1 0x20 DUP2 ADD SWAP1 POP PUSH2 0x9DF JUMP JUMPDEST DUP7 DUP4 LT ISZERO PUSH2 0xA21 JUMPI DUP5 DUP10 ADD MLOAD PUSH2 0xA1D PUSH1 0x1F DUP10 AND DUP3 PUSH2 0x930 JUMP JUMPDEST DUP4 SSTORE POP JUMPDEST PUSH1 0x1 PUSH1 0x2 DUP9 MUL ADD DUP9 SSTORE POP POP POP JUMPDEST POP POP POP POP POP POP JUMP INVALID LOG2 PUSH5 0x6970667358 0x22 SLT KECCAK256 0xB1 DELEGATECALL 0xBF SDIV TIMESTAMP 0x27 0xEC PUSH25 0x1F0E29F0E3E4C9DFC87A00D3E515095D1580370929A2A68664 PUSH20 0x6F6C634300081A00330000000000000000000000 "
		},
		"gasEstimates": {
			"creation": {
				"codeDepositCost": "533600",
				"executionCost": "24831",
				"totalCost": "558431"
			},
			"external": {
				"add(string,uint256,uint256)": "infinite",
				"registered(uint256)": "infinite",
				"teacher()": "2483"
			}
		},
		"methodIdentifiers": {
			"add(string,uint256,uint256)": "c8616da5",
			"registered(uint256)": "e6cf1346",
			"teacher()": "b46bff89"
		}
	},
	"abi": [
		{
			"inputs": [],
			"stateMutability": "nonpayable",
			"type": "constructor"
		},
		{
			"anonymous": false,
			"inputs": [
				{
					"indexed": false,
					"internalType": "string",
					"name": "name",
					"type": "string"
				},
				{
					"indexed": false,
					"internalType": "uint256",
					"name": "class",
					"type": "uint256"
				},
				{
					"indexed": false,
					"internalType": "uint256",
					"name": "joiningdate",
					"type": "uint256"
				}
			],
			"name": "Added",
			"type": "event"
		},
		{
			"inputs": [
				{
					"internalType": "string",
					"name": "name",
					"type": "string"
				},
				{
					"internalType": "uint256",
					"name": "class",
					"type": "uint256"
				},
				{
					"internalType": "uint256",
					"name": "joiningdate",
					"type": "uint256"
				}
			],
			"name": "add",
			"outputs": [],
			"stateMutability": "nonpayable",
			"type": "function"
		},
		{
			"inputs": [
				{
					"internalType": "uint256",
					"name": "",
					"type": "uint256"
				}
			],
			"name": "registered",
			"outputs": [
				{
					"internalType": "string",
					"name": "name",
					"type": "string"
				},
				{
					"internalType": "uint256",
					"name": "class",
					"type": "uint256"
				},
				{
					"internalType": "uint256",
					"name": "joiningdate",
					"type": "uint256"
				}
			],
			"stateMutability": "view",
			"type": "function"
		},
		{
			"inputs": [],
			"name": "teacher",
			"outputs": [
				{
					"internalType": "address",
					"name": "",
					"type": "address"
				}
			],
			"stateMutability": "view",
			"type": "function"
		}
	]
}