{
	"data": {
		"bytecode": {
			"linkReferences": {},
			"object": "608060405234801561000f575f80fd5b506040516106f03803806106f08339818101604052810190610031919061021f565b826001908161004091906104ab565b5081600281905550806003908161005791906104ab565b50335f806101000a81548173ffffffffffffffffffffffffffffffffffffffff021916908373ffffffffffffffffffffffffffffffffffffffff16021790555050505061057a565b5f604051905090565b5f80fd5b5f80fd5b5f80fd5b5f80fd5b5f601f19601f8301169050919050565b7f4e487b71000000000000000000000000000000000000000000000000000000005f52604160045260245ffd5b6100fe826100b8565b810181811067ffffffffffffffff8211171561011d5761011c6100c8565b5b80604052505050565b5f61012f61009f565b905061013b82826100f5565b919050565b5f67ffffffffffffffff82111561015a576101596100c8565b5b610163826100b8565b9050602081019050919050565b8281835e5f83830152505050565b5f61019061018b84610140565b610126565b9050828152602081018484840111156101ac576101ab6100b4565b5b6101b7848285610170565b509392505050565b5f82601f8301126101d3576101d26100b0565b5b81516101e384826020860161017e565b91505092915050565b5f819050919050565b6101fe816101ec565b8114610208575f80fd5b50565b5f81519050610219816101f5565b92915050565b5f805f60608486031215610236576102356100a8565b5b5f84015167ffffffffffffffff811115610253576102526100ac565b5b61025f868287016101bf565b93505060206102708682870161020b565b925050604084015167ffffffffffffffff811115610291576102906100ac565b5b61029d868287016101bf565b9150509250925092565b5f81519050919050565b7f4e487b71000000000000000000000000000000000000000000000000000000005f52602260045260245ffd5b5f60028204905060018216806102f557607f821691505b602082108103610308576103076102b1565b5b50919050565b5f819050815f5260205f209050919050565b5f6020601f8301049050919050565b5f82821b905092915050565b5f6008830261036a7fffffffffffffffffffffffffffffffffffffffffffffffffffffffffffffffff8261032f565b610374868361032f565b95508019841693508086168417925050509392505050565b5f819050919050565b5f6103af6103aa6103a5846101ec565b61038c565b6101ec565b9050919050565b5f819050919050565b6103c883610395565b6103dc6103d4826103b6565b84845461033b565b825550505050565b5f90565b6103f06103e4565b6103fb8184846103bf565b505050565b5b8181101561041e576104135f826103e8565b600181019050610401565b5050565b601f821115610463576104348161030e565b61043d84610320565b8101602085101561044c578190505b61046061045885610320565b830182610400565b50505b505050565b5f82821c905092915050565b5f6104835f1984600802610468565b1980831691505092915050565b5f61049b8383610474565b9150826002028217905092915050565b6104b4826102a7565b67ffffffffffffffff8111156104cd576104cc6100c8565b5b6104d782546102de565b6104e2828285610422565b5f60209050601f831160018114610513575f8415610501578287015190505b61050b8582610490565b865550610572565b601f1984166105218661030e565b5f5b8281101561054857848901518255600182019150602085019450602081019050610523565b868310156105655784890151610561601f891682610474565b8355505b6001600288020188555050505b505050505050565b610169806105875f395ff3fe608060405260043610610021575f3560e01c8063dc1997ea1461008e5761008a565b3661008a575f8054906101000a900473ffffffffffffffffffffffffffffffffffffffff1673ffffffffffffffffffffffffffffffffffffffff166108fc3490811502906040515f60405180830381858888f19350505050158015610088573d5f803e3d5ffd5b005b5f80fd5b348015610099575f80fd5b506100a26100b8565b6040516100af919061011a565b60405180910390f35b5f8054906101000a900473ffffffffffffffffffffffffffffffffffffffff1681565b5f73ffffffffffffffffffffffffffffffffffffffff82169050919050565b5f610104826100db565b9050919050565b610114816100fa565b82525050565b5f60208201905061012d5f83018461010b565b9291505056fea2646970667358221220048defb3b4f24c40247288b8f30a103926488c4aefdd8681bf3f9b424395609c64736f6c634300081a0033",
			"opcodes": "PUSH1 0x80 PUSH1 0x40 MSTORE CALLVALUE DUP1 ISZERO PUSH2 0xF JUMPI PUSH0 DUP1 REVERT JUMPDEST POP PUSH1 0x40 MLOAD PUSH2 0x6F0 CODESIZE SUB DUP1 PUSH2 0x6F0 DUP4 CODECOPY DUP2 DUP2 ADD PUSH1 0x40 MSTORE DUP2 ADD SWAP1 PUSH2 0x31 SWAP2 SWAP1 PUSH2 0x21F JUMP JUMPDEST DUP3 PUSH1 0x1 SWAP1 DUP2 PUSH2 0x40 SWAP2 SWAP1 PUSH2 0x4AB JUMP JUMPDEST POP DUP2 PUSH1 0x2 DUP2 SWAP1 SSTORE POP DUP1 PUSH1 0x3 SWAP1 DUP2 PUSH2 0x57 SWAP2 SWAP1 PUSH2 0x4AB JUMP JUMPDEST POP CALLER PUSH0 DUP1 PUSH2 0x100 EXP DUP2 SLOAD DUP2 PUSH20 0xFFFFFFFFFFFFFFFFFFFFFFFFFFFFFFFFFFFFFFFF MUL NOT AND SWAP1 DUP4 PUSH20 0xFFFFFFFFFFFFFFFFFFFFFFFFFFFFFFFFFFFFFFFF AND MUL OR SWAP1 SSTORE POP POP POP POP PUSH2 0x57A JUMP JUMPDEST PUSH0 PUSH1 0x40 MLOAD SWAP1 POP SWAP1 JUMP JUMPDEST PUSH0 DUP1 REVERT JUMPDEST PUSH0 DUP1 REVERT JUMPDEST PUSH0 DUP1 REVERT JUMPDEST PUSH0 DUP1 REVERT JUMPDEST PUSH0 PUSH1 0x1F NOT PUSH1 0x1F DUP4 ADD AND SWAP1 POP SWAP2 SWAP1 POP JUMP JUMPDEST PUSH32 0x4E487B7100000000000000000000000000000000000000000000000000000000 PUSH0 MSTORE PUSH1 0x41 PUSH1 0x4 MSTORE PUSH1 0x24 PUSH0 REVERT JUMPDEST PUSH2 0xFE DUP3 PUSH2 0xB8 JUMP JUMPDEST DUP2 ADD DUP2 DUP2 LT PUSH8 0xFFFFFFFFFFFFFFFF DUP3 GT OR ISZERO PUSH2 0x11D JUMPI PUSH2 0x11C PUSH2 0xC8 JUMP JUMPDEST JUMPDEST DUP1 PUSH1 0x40 MSTORE POP POP POP JUMP JUMPDEST PUSH0 PUSH2 0x12F PUSH2 0x9F JUMP JUMPDEST SWAP1 POP PUSH2 0x13B DUP3 DUP3 PUSH2 0xF5 JUMP JUMPDEST SWAP2 SWAP1 POP JUMP JUMPDEST PUSH0 PUSH8 0xFFFFFFFFFFFFFFFF DUP3 GT ISZERO PUSH2 0x15A JUMPI PUSH2 0x159 PUSH2 0xC8 JUMP JUMPDEST JUMPDEST PUSH2 0x163 DUP3 PUSH2 0xB8 JUMP JUMPDEST SWAP1 POP PUSH1 0x20 DUP2 ADD SWAP1 POP SWAP2 SWAP1 POP JUMP JUMPDEST DUP3 DUP2 DUP4 MCOPY PUSH0 DUP4 DUP4 ADD MSTORE POP POP POP JUMP JUMPDEST PUSH0 PUSH2 0x190 PUSH2 0x18B DUP5 PUSH2 0x140 JUMP JUMPDEST PUSH2 0x126 JUMP JUMPDEST SWAP1 POP DUP3 DUP2 MSTORE PUSH1 0x20 DUP2 ADD DUP5 DUP5 DUP5 ADD GT ISZERO PUSH2 0x1AC JUMPI PUSH2 0x1AB PUSH2 0xB4 JUMP JUMPDEST JUMPDEST PUSH2 0x1B7 DUP5 DUP3 DUP6 PUSH2 0x170 JUMP JUMPDEST POP SWAP4 SWAP3 POP POP POP JUMP JUMPDEST PUSH0 DUP3 PUSH1 0x1F DUP4 ADD SLT PUSH2 0x1D3 JUMPI PUSH2 0x1D2 PUSH2 0xB0 JUMP JUMPDEST JUMPDEST DUP2 MLOAD PUSH2 0x1E3 DUP5 DUP3 PUSH1 0x20 DUP7 ADD PUSH2 0x17E JUMP JUMPDEST SWAP2 POP POP SWAP3 SWAP2 POP POP JUMP JUMPDEST PUSH0 DUP2 SWAP1 POP SWAP2 SWAP1 POP JUMP JUMPDEST PUSH2 0x1FE DUP2 PUSH2 0x1EC JUMP JUMPDEST DUP2 EQ PUSH2 0x208 JUMPI PUSH0 DUP1 REVERT JUMPDEST POP JUMP JUMPDEST PUSH0 DUP2 MLOAD SWAP1 POP PUSH2 0x219 DUP2 PUSH2 0x1F5 JUMP JUMPDEST SWAP3 SWAP2 POP POP JUMP JUMPDEST PUSH0 DUP1 PUSH0 PUSH1 0x60 DUP5 DUP7 SUB SLT ISZERO PUSH2 0x236 JUMPI PUSH2 0x235 PUSH2 0xA8 JUMP JUMPDEST JUMPDEST PUSH0 DUP5 ADD MLOAD PUSH8 0xFFFFFFFFFFFFFFFF DUP2 GT ISZERO PUSH2 0x253 JUMPI PUSH2 0x252 PUSH2 0xAC JUMP JUMPDEST JUMPDEST PUSH2 0x25F DUP7 DUP3 DUP8 ADD PUSH2 0x1BF JUMP JUMPDEST SWAP4 POP POP PUSH1 0x20 PUSH2 0x270 DUP7 DUP3 DUP8 ADD PUSH2 0x20B JUMP JUMPDEST SWAP3 POP POP PUSH1 0x40 DUP5 ADD MLOAD PUSH8 0xFFFFFFFFFFFFFFFF DUP2 GT ISZERO PUSH2 0x291 JUMPI PUSH2 0x290 PUSH2 0xAC JUMP JUMPDEST JUMPDEST PUSH2 0x29D DUP7 DUP3 DUP8 ADD PUSH2 0x1BF JUMP JUMPDEST SWAP2 POP POP SWAP3 POP SWAP3 POP SWAP3 JUMP JUMPDEST PUSH0 DUP2 MLOAD SWAP1 POP SWAP2 SWAP1 POP JUMP JUMPDEST PUSH32 0x4E487B7100000000000000000000000000000000000000000000000000000000 PUSH0 MSTORE PUSH1 0x22 PUSH1 0x4 MSTORE PUSH1 0x24 PUSH0 REVERT JUMPDEST PUSH0 PUSH1 0x2 DUP3 DIV SWAP1 POP PUSH1 0x1 DUP3 AND DUP1 PUSH2 0x2F5 JUMPI PUSH1 0x7F DUP3 AND SWAP2 POP JUMPDEST PUSH1 0x20 DUP3 LT DUP2 SUB PUSH2 0x308 JUMPI PUSH2 0x307 PUSH2 0x2B1 JUMP JUMPDEST JUMPDEST POP SWAP2 SWAP1 POP JUMP JUMPDEST PUSH0 DUP2 SWAP1 POP DUP2 PUSH0 MSTORE PUSH1 0x20 PUSH0 KECCAK256 SWAP1 POP SWAP2 SWAP1 POP JUMP JUMPDEST PUSH0 PUSH1 0x20 PUSH1 0x1F DUP4 ADD DIV SWAP1 POP SWAP2 SWAP1 POP JUMP JUMPDEST PUSH0 DUP3 DUP3 SHL SWAP1 POP SWAP3 SWAP2 POP POP JUMP JUMPDEST PUSH0 PUSH1 0x8 DUP4 MUL PUSH2 0x36A PUSH32 0xFFFFFFFFFFFFFFFFFFFFFFFFFFFFFFFFFFFFFFFFFFFFFFFFFFFFFFFFFFFFFFFF DUP3 PUSH2 0x32F JUMP JUMPDEST PUSH2 0x374 DUP7 DUP4 PUSH2 0x32F JUMP JUMPDEST SWAP6 POP DUP1 NOT DUP5 AND SWAP4 POP DUP1 DUP7 AND DUP5 OR SWAP3 POP POP POP SWAP4 SWAP3 POP POP POP JUMP JUMPDEST PUSH0 DUP2 SWAP1 POP SWAP2 SWAP1 POP JUMP JUMPDEST PUSH0 PUSH2 0x3AF PUSH2 0x3AA PUSH2 0x3A5 DUP5 PUSH2 0x1EC JUMP JUMPDEST PUSH2 0x38C JUMP JUMPDEST PUSH2 0x1EC JUMP JUMPDEST SWAP1 POP SWAP2 SWAP1 POP JUMP JUMPDEST PUSH0 DUP2 SWAP1 POP SWAP2 SWAP1 POP JUMP JUMPDEST PUSH2 0x3C8 DUP4 PUSH2 0x395 JUMP JUMPDEST PUSH2 0x3DC PUSH2 0x3D4 DUP3 PUSH2 0x3B6 JUMP JUMPDEST DUP5 DUP5 SLOAD PUSH2 0x33B JUMP JUMPDEST DUP3 SSTORE POP POP POP POP JUMP JUMPDEST PUSH0 SWAP1 JUMP JUMPDEST PUSH2 0x3F0 PUSH2 0x3E4 JUMP JUMPDEST PUSH2 0x3FB DUP2 DUP5 DUP5 PUSH2 0x3BF JUMP JUMPDEST POP POP POP JUMP JUMPDEST JUMPDEST DUP2 DUP2 LT ISZERO PUSH2 0x41E JUMPI PUSH2 0x413 PUSH0 DUP3 PUSH2 0x3E8 JUMP JUMPDEST PUSH1 0x1 DUP2 ADD SWAP1 POP PUSH2 0x401 JUMP JUMPDEST POP POP JUMP JUMPDEST PUSH1 0x1F DUP3 GT ISZERO PUSH2 0x463 JUMPI PUSH2 0x434 DUP2 PUSH2 0x30E JUMP JUMPDEST PUSH2 0x43D DUP5 PUSH2 0x320 JUMP JUMPDEST DUP2 ADD PUSH1 0x20 DUP6 LT ISZERO PUSH2 0x44C JUMPI DUP2 SWAP1 POP JUMPDEST PUSH2 0x460 PUSH2 0x458 DUP6 PUSH2 0x320 JUMP JUMPDEST DUP4 ADD DUP3 PUSH2 0x400 JUMP JUMPDEST POP POP JUMPDEST POP POP POP JUMP JUMPDEST PUSH0 DUP3 DUP3 SHR SWAP1 POP SWAP3 SWAP2 POP POP JUMP JUMPDEST PUSH0 PUSH2 0x483 PUSH0 NOT DUP5 PUSH1 0x8 MUL PUSH2 0x468 JUMP JUMPDEST NOT DUP1 DUP4 AND SWAP2 POP POP SWAP3 SWAP2 POP POP JUMP JUMPDEST PUSH0 PUSH2 0x49B DUP4 DUP4 PUSH2 0x474 JUMP JUMPDEST SWAP2 POP DUP3 PUSH1 0x2 MUL DUP3 OR SWAP1 POP SWAP3 SWAP2 POP POP JUMP JUMPDEST PUSH2 0x4B4 DUP3 PUSH2 0x2A7 JUMP JUMPDEST PUSH8 0xFFFFFFFFFFFFFFFF DUP2 GT ISZERO PUSH2 0x4CD JUMPI PUSH2 0x4CC PUSH2 0xC8 JUMP JUMPDEST JUMPDEST PUSH2 0x4D7 DUP3 SLOAD PUSH2 0x2DE JUMP JUMPDEST PUSH2 0x4E2 DUP3 DUP3 DUP6 PUSH2 0x422 JUMP JUMPDEST PUSH0 PUSH1 0x20 SWAP1 POP PUSH1 0x1F DUP4 GT PUSH1 0x1 DUP2 EQ PUSH2 0x513 JUMPI PUSH0 DUP5 ISZERO PUSH2 0x501 JUMPI DUP3 DUP8 ADD MLOAD SWAP1 POP JUMPDEST PUSH2 0x50B DUP6 DUP3 PUSH2 0x490 JUMP JUMPDEST DUP7 SSTORE POP PUSH2 0x572 JUMP JUMPDEST PUSH1 0x1F NOT DUP5 AND PUSH2 0x521 DUP7 PUSH2 0x30E JUMP JUMPDEST PUSH0 JUMPDEST DUP3 DUP2 LT ISZERO PUSH2 0x548 JUMPI DUP5 DUP10 ADD MLOAD DUP3 SSTORE PUSH1 0x1 DUP3 ADD SWAP2 POP PUSH1 0x20 DUP6 ADD SWAP5 POP PUSH1 0x20 DUP2 ADD SWAP1 POP PUSH2 0x523 JUMP JUMPDEST DUP7 DUP4 LT ISZERO PUSH2 0x565 JUMPI DUP5 DUP10 ADD MLOAD PUSH2 0x561 PUSH1 0x1F DUP10 AND DUP3 PUSH2 0x474 JUMP JUMPDEST DUP4 SSTORE POP JUMPDEST PUSH1 0x1 PUSH1 0x2 DUP9 MUL ADD DUP9 SSTORE POP POP POP JUMPDEST POP POP POP POP POP POP JUMP JUMPDEST PUSH2 0x169 DUP1 PUSH2 0x587 PUSH0 CODECOPY PUSH0 RETURN INVALID PUSH1 0x80 PUSH1 0x40 MSTORE PUSH1 0x4 CALLDATASIZE LT PUSH2 0x21 JUMPI PUSH0 CALLDATALOAD PUSH1 0xE0 SHR DUP1 PUSH4 0xDC1997EA EQ PUSH2 0x8E JUMPI PUSH2 0x8A JUMP JUMPDEST CALLDATASIZE PUSH2 0x8A JUMPI PUSH0 DUP1 SLOAD SWAP1 PUSH2 0x100 EXP SWAP1 DIV PUSH20 0xFFFFFFFFFFFFFFFFFFFFFFFFFFFFFFFFFFFFFFFF AND PUSH20 0xFFFFFFFFFFFFFFFFFFFFFFFFFFFFFFFFFFFFFFFF AND PUSH2 0x8FC CALLVALUE SWAP1 DUP2 ISZERO MUL SWAP1 PUSH1 0x40 MLOAD PUSH0 PUSH1 0x40 MLOAD DUP1 DUP4 SUB DUP2 DUP6 DUP9 DUP9 CALL SWAP4 POP POP POP POP ISZERO DUP1 ISZERO PUSH2 0x88 JUMPI RETURNDATASIZE PUSH0 DUP1 RETURNDATACOPY RETURNDATASIZE PUSH0 REVERT JUMPDEST STOP JUMPDEST PUSH0 DUP1 REVERT JUMPDEST CALLVALUE DUP1 ISZERO PUSH2 0x99 JUMPI PUSH0 DUP1 REVERT JUMPDEST POP PUSH2 0xA2 PUSH2 0xB8 JUMP JUMPDEST PUSH1 0x40 MLOAD PUSH2 0xAF SWAP2 SWAP1 PUSH2 0x11A JUMP JUMPDEST PUSH1 0x40 MLOAD DUP1 SWAP2 SUB SWAP1 RETURN JUMPDEST PUSH0 DUP1 SLOAD SWAP1 PUSH2 0x100 EXP SWAP1 DIV PUSH20 0xFFFFFFFFFFFFFFFFFFFFFFFFFFFFFFFFFFFFFFFF AND DUP2 JUMP JUMPDEST PUSH0 PUSH20 0xFFFFFFFFFFFFFFFFFFFFFFFFFFFFFFFFFFFFFFFF DUP3 AND SWAP1 POP SWAP2 SWAP1 POP JUMP JUMPDEST PUSH0 PUSH2 0x104 DUP3 PUSH2 0xDB JUMP JUMPDEST SWAP1 POP SWAP2 SWAP1 POP JUMP JUMPDEST PUSH2 0x114 DUP2 PUSH2 0xFA JUMP JUMPDEST DUP3 MSTORE POP POP JUMP JUMPDEST PUSH0 PUSH1 0x20 DUP3 ADD SWAP1 POP PUSH2 0x12D PUSH0 DUP4 ADD DUP5 PUSH2 0x10B JUMP JUMPDEST SWAP3 SWAP2 POP POP JUMP INVALID LOG2 PUSH5 0x6970667358 0x22 SLT KECCAK256 DIV DUP14 0xEF 0xB3 0xB4 CALLCODE 0x4C BLOCKHASH 0x24 PUSH19 0x88B8F30A103926488C4AEFDD8681BF3F9B4243 SWAP6 PUSH1 0x9C PUSH5 0x736F6C6343 STOP ADDMOD BYTE STOP CALLER "
		},
		"gasEstimates": {
			"creation": {
				"codeDepositCost": "72200",
				"executionCost": "infinite",
				"totalCost": "infinite"
			},
			"external": {
				"landlord()": "2483"
			}
		},
		"methodIdentifiers": {
			"landlord()": "dc1997ea"
		}
	},
	"abi": [
		{
			"inputs": [
				{
					"internalType": "string",
					"name": "name",
					"type": "string"
				},
				{
					"internalType": "uint256",
					"name": "age",
					"type": "uint256"
				},
				{
					"internalType": "string",
					"name": "occupation",
					"type": "string"
				}
			],
			"stateMutability": "nonpayable",
			"type": "constructor"
		},
		{
			"inputs": [],
			"name": "landlord",
			"outputs": [
				{
					"internalType": "address payable",
					"name": "",
					"type": "address"
				}
			],
			"stateMutability": "view",
			"type": "function"
		},
		{
			"stateMutability": "payable",
			"type": "receive"
		}
	]
}