{
	"contracts/FlashLoan/flashloan.sol": {
		"SimpleFlashLoan": {
			"abi": [
				{
					"inputs": [
						{
							"internalType": "address",
							"name": "_addressProvider",
							"type": "address"
						}
					],
					"stateMutability": "nonpayable",
					"type": "constructor"
				},
				{
					"inputs": [],
					"name": "ADDRESSES_PROVIDER",
					"outputs": [
						{
							"internalType": "contract IPoolAddressesProvider",
							"name": "",
							"type": "address"
						}
					],
					"stateMutability": "view",
					"type": "function"
				},
				{
					"inputs": [],
					"name": "POOL",
					"outputs": [
						{
							"internalType": "contract IPool",
							"name": "",
							"type": "address"
						}
					],
					"stateMutability": "view",
					"type": "function"
				},
				{
					"inputs": [
						{
							"internalType": "address",
							"name": "_token",
							"type": "address"
						},
						{
							"internalType": "uint256",
							"name": "_amount",
							"type": "uint256"
						}
					],
					"name": "RequestFlashLoan",
					"outputs": [],
					"stateMutability": "nonpayable",
					"type": "function"
				},
				{
					"inputs": [
						{
							"internalType": "address",
							"name": "asset",
							"type": "address"
						},
						{
							"internalType": "uint256",
							"name": "amount",
							"type": "uint256"
						},
						{
							"internalType": "uint256",
							"name": "premium",
							"type": "uint256"
						},
						{
							"internalType": "address",
							"name": "initiator",
							"type": "address"
						},
						{
							"internalType": "bytes",
							"name": "params",
							"type": "bytes"
						}
					],
					"name": "executeOperation",
					"outputs": [
						{
							"internalType": "bool",
							"name": "",
							"type": "bool"
						}
					],
					"stateMutability": "nonpayable",
					"type": "function"
				},
				{
					"stateMutability": "payable",
					"type": "receive"
				}
			],
			"devdoc": {
				"kind": "dev",
				"methods": {
					"executeOperation(address,uint256,uint256,address,bytes)": {
						"details": "Ensure that the contract can return the debt + premium, e.g., has      enough funds to repay and has approved the Pool to pull the total amount",
						"params": {
							"amount": "The amount of the flash-borrowed asset",
							"asset": "The address of the flash-borrowed asset",
							"initiator": "The address of the flashloan initiator",
							"params": "The byte-encoded params passed when initiating the flashloan",
							"premium": "The fee of the flash-borrowed asset"
						},
						"returns": {
							"_0": "True if the execution of the operation succeeds, false otherwise"
						}
					}
				},
				"version": 1
			},
			"evm": {
				"assembly": "    /* \"contracts/FlashLoan/flashloan.sol\":404:1596  contract SimpleFlashLoan is FlashLoanSimpleReceiverBase {... */\n  mstore(0x40, 0xc0)\n    /* \"contracts/FlashLoan/flashloan.sol\":497:627  constructor(address _addressProvider)... */\n  callvalue\n  dup1\n  iszero\n  tag_1\n  jumpi\n  0x00\n  dup1\n  revert\ntag_1:\n  pop\n  mload(0x40)\n  sub(codesize, bytecodeSize)\n  dup1\n  bytecodeSize\n  dup4\n  codecopy\n  dup2\n  dup2\n  add\n  0x40\n  mstore\n  dup2\n  add\n  swap1\n  tag_2\n  swap2\n  swap1\n  tag_3\n  jump\t// in\ntag_2:\n    /* \"contracts/FlashLoan/flashloan.sol\":595:611  _addressProvider */\n  dup1\n    /* \"https://github.com/aave/aave-v3-core/blob/master/contracts/flashloan/base/FlashLoanSimpleReceiverBase.sol\":673:681  provider */\n  dup1\n    /* \"https://github.com/aave/aave-v3-core/blob/master/contracts/flashloan/base/FlashLoanSimpleReceiverBase.sol\":652:681  ADDRESSES_PROVIDER = provider */\n  0xffffffffffffffffffffffffffffffffffffffff\n  and\n  0x80\n  dup2\n  0xffffffffffffffffffffffffffffffffffffffff\n  and\n  dup2\n  mstore\n  pop\n  pop\n    /* \"https://github.com/aave/aave-v3-core/blob/master/contracts/flashloan/base/FlashLoanSimpleReceiverBase.sol\":700:708  provider */\n  dup1\n    /* \"https://github.com/aave/aave-v3-core/blob/master/contracts/flashloan/base/FlashLoanSimpleReceiverBase.sol\":700:716  provider.getPool */\n  0xffffffffffffffffffffffffffffffffffffffff\n  and\n  0x026b1d5f\n    /* \"https://github.com/aave/aave-v3-core/blob/master/contracts/flashloan/base/FlashLoanSimpleReceiverBase.sol\":700:718  provider.getPool() */\n  mload(0x40)\n  dup2\n  0xffffffff\n  and\n  0xe0\n  shl\n  dup2\n  mstore\n  0x04\n  add\n  0x20\n  mload(0x40)\n  dup1\n  dup4\n  sub\n  dup2\n  dup7\n  gas\n  staticcall\n  iszero\n  dup1\n  iszero\n  tag_8\n  jumpi\n  returndatasize\n  0x00\n  dup1\n  returndatacopy\n  revert(0x00, returndatasize)\ntag_8:\n  pop\n  pop\n  pop\n  pop\n  mload(0x40)\n  returndatasize\n  not(0x1f)\n  0x1f\n  dup3\n  add\n  and\n  dup3\n  add\n  dup1\n  0x40\n  mstore\n  pop\n  dup2\n  add\n  swap1\n  tag_9\n  swap2\n  swap1\n  tag_3\n  jump\t// in\ntag_9:\n    /* \"https://github.com/aave/aave-v3-core/blob/master/contracts/flashloan/base/FlashLoanSimpleReceiverBase.sol\":687:719  POOL = IPool(provider.getPool()) */\n  0xffffffffffffffffffffffffffffffffffffffff\n  and\n  0xa0\n  dup2\n  0xffffffffffffffffffffffffffffffffffffffff\n  and\n  dup2\n  mstore\n  pop\n  pop\n    /* \"https://github.com/aave/aave-v3-core/blob/master/contracts/flashloan/base/FlashLoanSimpleReceiverBase.sol\":601:724  constructor(IPoolAddressesProvider provider) {... */\n  pop\n    /* \"contracts/FlashLoan/flashloan.sol\":497:627  constructor(address _addressProvider)... */\n  pop\n    /* \"contracts/FlashLoan/flashloan.sol\":404:1596  contract SimpleFlashLoan is FlashLoanSimpleReceiverBase {... */\n  jump(tag_11)\n    /* \"#utility.yul\":88:205   */\ntag_13:\n    /* \"#utility.yul\":197:198   */\n  0x00\n    /* \"#utility.yul\":194:195   */\n  dup1\n    /* \"#utility.yul\":187:199   */\n  revert\n    /* \"#utility.yul\":334:460   */\ntag_15:\n    /* \"#utility.yul\":371:378   */\n  0x00\n    /* \"#utility.yul\":411:453   */\n  0xffffffffffffffffffffffffffffffffffffffff\n    /* \"#utility.yul\":404:409   */\n  dup3\n    /* \"#utility.yul\":400:454   */\n  and\n    /* \"#utility.yul\":389:454   */\n  swap1\n  pop\n    /* \"#utility.yul\":334:460   */\n  swap2\n  swap1\n  pop\n  jump\t// out\n    /* \"#utility.yul\":466:562   */\ntag_16:\n    /* \"#utility.yul\":503:510   */\n  0x00\n    /* \"#utility.yul\":532:556   */\n  tag_25\n    /* \"#utility.yul\":550:555   */\n  dup3\n    /* \"#utility.yul\":532:556   */\n  tag_15\n  jump\t// in\ntag_25:\n    /* \"#utility.yul\":521:556   */\n  swap1\n  pop\n    /* \"#utility.yul\":466:562   */\n  swap2\n  swap1\n  pop\n  jump\t// out\n    /* \"#utility.yul\":568:690   */\ntag_17:\n    /* \"#utility.yul\":641:665   */\n  tag_27\n    /* \"#utility.yul\":659:664   */\n  dup2\n    /* \"#utility.yul\":641:665   */\n  tag_16\n  jump\t// in\ntag_27:\n    /* \"#utility.yul\":634:639   */\n  dup2\n    /* \"#utility.yul\":631:666   */\n  eq\n    /* \"#utility.yul\":621:684   */\n  tag_28\n  jumpi\n    /* \"#utility.yul\":680:681   */\n  0x00\n    /* \"#utility.yul\":677:678   */\n  dup1\n    /* \"#utility.yul\":670:682   */\n  revert\n    /* \"#utility.yul\":621:684   */\ntag_28:\n    /* \"#utility.yul\":568:690   */\n  pop\n  jump\t// out\n    /* \"#utility.yul\":696:839   */\ntag_18:\n    /* \"#utility.yul\":753:758   */\n  0x00\n    /* \"#utility.yul\":784:790   */\n  dup2\n    /* \"#utility.yul\":778:791   */\n  mload\n    /* \"#utility.yul\":769:791   */\n  swap1\n  pop\n    /* \"#utility.yul\":800:833   */\n  tag_30\n    /* \"#utility.yul\":827:832   */\n  dup2\n    /* \"#utility.yul\":800:833   */\n  tag_17\n  jump\t// in\ntag_30:\n    /* \"#utility.yul\":696:839   */\n  swap3\n  swap2\n  pop\n  pop\n  jump\t// out\n    /* \"#utility.yul\":845:1196   */\ntag_3:\n    /* \"#utility.yul\":915:921   */\n  0x00\n    /* \"#utility.yul\":964:966   */\n  0x20\n    /* \"#utility.yul\":952:961   */\n  dup3\n    /* \"#utility.yul\":943:950   */\n  dup5\n    /* \"#utility.yul\":939:962   */\n  sub\n    /* \"#utility.yul\":935:967   */\n  slt\n    /* \"#utility.yul\":932:1051   */\n  iszero\n  tag_32\n  jumpi\n    /* \"#utility.yul\":970:1049   */\n  tag_33\n  tag_13\n  jump\t// in\ntag_33:\n    /* \"#utility.yul\":932:1051   */\ntag_32:\n    /* \"#utility.yul\":1090:1091   */\n  0x00\n    /* \"#utility.yul\":1115:1179   */\n  tag_34\n    /* \"#utility.yul\":1171:1178   */\n  dup5\n    /* \"#utility.yul\":1162:1168   */\n  dup3\n    /* \"#utility.yul\":1151:1160   */\n  dup6\n    /* \"#utility.yul\":1147:1169   */\n  add\n    /* \"#utility.yul\":1115:1179   */\n  tag_18\n  jump\t// in\ntag_34:\n    /* \"#utility.yul\":1105:1179   */\n  swap2\n  pop\n    /* \"#utility.yul\":1061:1189   */\n  pop\n    /* \"#utility.yul\":845:1196   */\n  swap3\n  swap2\n  pop\n  pop\n  jump\t// out\n    /* \"contracts/FlashLoan/flashloan.sol\":404:1596  contract SimpleFlashLoan is FlashLoanSimpleReceiverBase {... */\ntag_11:\n  mload(0x80)\n  mload(0xa0)\n  codecopy(0x00, dataOffset(sub_0), dataSize(sub_0))\n  0x00\n  assignImmutable(\"0x69e3c6522a2f8bf12e780ae53c30e69d48d224ea00c92026278c398148e8df91\")\n  0x00\n  assignImmutable(\"0xb82689a7170af4bc238cea9f5ed91ccb0509ae7759ce9b8df7ae215c4191abd7\")\n  return(0x00, dataSize(sub_0))\nstop\n\nsub_0: assembly {\n        /* \"contracts/FlashLoan/flashloan.sol\":404:1596  contract SimpleFlashLoan is FlashLoanSimpleReceiverBase {... */\n      mstore(0x40, 0x80)\n      jumpi(tag_1, lt(calldatasize, 0x04))\n      shr(0xe0, calldataload(0x00))\n      dup1\n      0x0542975c\n      eq\n      tag_3\n      jumpi\n      dup1\n      0x1b11d0ff\n      eq\n      tag_4\n      jumpi\n      dup1\n      0x7535d246\n      eq\n      tag_5\n      jumpi\n      dup1\n      0xff7cf483\n      eq\n      tag_6\n      jumpi\n      jump(tag_2)\n    tag_1:\n      jumpi(tag_2, calldatasize)\n      stop\n    tag_2:\n      0x00\n      dup1\n      revert\n        /* \"https://github.com/aave/aave-v3-core/blob/master/contracts/flashloan/base/FlashLoanSimpleReceiverBase.sol\":489:556  IPoolAddressesProvider public immutable override ADDRESSES_PROVIDER */\n    tag_3:\n      callvalue\n      dup1\n      iszero\n      tag_9\n      jumpi\n      0x00\n      dup1\n      revert\n    tag_9:\n      pop\n      tag_10\n      tag_11\n      jump\t// in\n    tag_10:\n      mload(0x40)\n      tag_12\n      swap2\n      swap1\n      tag_13\n      jump\t// in\n    tag_12:\n      mload(0x40)\n      dup1\n      swap2\n      sub\n      swap1\n      return\n        /* \"contracts/FlashLoan/flashloan.sol\":1165:1556  function  executeOperation(... */\n    tag_4:\n      callvalue\n      dup1\n      iszero\n      tag_14\n      jumpi\n      0x00\n      dup1\n      revert\n    tag_14:\n      pop\n      tag_15\n      0x04\n      dup1\n      calldatasize\n      sub\n      dup2\n      add\n      swap1\n      tag_16\n      swap2\n      swap1\n      tag_17\n      jump\t// in\n    tag_16:\n      tag_18\n      jump\t// in\n    tag_15:\n      mload(0x40)\n      tag_19\n      swap2\n      swap1\n      tag_20\n      jump\t// in\n    tag_19:\n      mload(0x40)\n      dup1\n      swap2\n      sub\n      swap1\n      return\n        /* \"https://github.com/aave/aave-v3-core/blob/master/contracts/flashloan/base/FlashLoanSimpleReceiverBase.sol\":560:596  IPool public immutable override POOL */\n    tag_5:\n      callvalue\n      dup1\n      iszero\n      tag_21\n      jumpi\n      0x00\n      dup1\n      revert\n    tag_21:\n      pop\n      tag_22\n      tag_23\n      jump\t// in\n    tag_22:\n      mload(0x40)\n      tag_24\n      swap2\n      swap1\n      tag_25\n      jump\t// in\n    tag_24:\n      mload(0x40)\n      dup1\n      swap2\n      sub\n      swap1\n      return\n        /* \"contracts/FlashLoan/flashloan.sol\":635:1059  function RequestFlashLoan(address _token, uint256 _amount) public {... */\n    tag_6:\n      callvalue\n      dup1\n      iszero\n      tag_26\n      jumpi\n      0x00\n      dup1\n      revert\n    tag_26:\n      pop\n      tag_27\n      0x04\n      dup1\n      calldatasize\n      sub\n      dup2\n      add\n      swap1\n      tag_28\n      swap2\n      swap1\n      tag_29\n      jump\t// in\n    tag_28:\n      tag_30\n      jump\t// in\n    tag_27:\n      stop\n        /* \"https://github.com/aave/aave-v3-core/blob/master/contracts/flashloan/base/FlashLoanSimpleReceiverBase.sol\":489:556  IPoolAddressesProvider public immutable override ADDRESSES_PROVIDER */\n    tag_11:\n      immutable(\"0xb82689a7170af4bc238cea9f5ed91ccb0509ae7759ce9b8df7ae215c4191abd7\")\n      dup2\n      jump\t// out\n        /* \"contracts/FlashLoan/flashloan.sol\":1165:1556  function  executeOperation(... */\n    tag_18:\n        /* \"contracts/FlashLoan/flashloan.sol\":1362:1366  bool */\n      0x00\n        /* \"contracts/FlashLoan/flashloan.sol\":1426:1445  uint256 totalAmount */\n      dup1\n        /* \"contracts/FlashLoan/flashloan.sol\":1457:1464  premium */\n      dup6\n        /* \"contracts/FlashLoan/flashloan.sol\":1448:1454  amount */\n      dup8\n        /* \"contracts/FlashLoan/flashloan.sol\":1448:1464  amount + premium */\n      tag_32\n      swap2\n      swap1\n      tag_33\n      jump\t// in\n    tag_32:\n        /* \"contracts/FlashLoan/flashloan.sol\":1426:1464  uint256 totalAmount = amount + premium */\n      swap1\n      pop\n        /* \"contracts/FlashLoan/flashloan.sol\":1482:1487  asset */\n      dup8\n        /* \"contracts/FlashLoan/flashloan.sol\":1475:1496  IERC20(asset).approve */\n      0xffffffffffffffffffffffffffffffffffffffff\n      and\n      0x095ea7b3\n        /* \"contracts/FlashLoan/flashloan.sol\":1505:1509  POOL */\n      immutable(\"0x69e3c6522a2f8bf12e780ae53c30e69d48d224ea00c92026278c398148e8df91\")\n        /* \"contracts/FlashLoan/flashloan.sol\":1512:1523  totalAmount */\n      dup4\n        /* \"contracts/FlashLoan/flashloan.sol\":1475:1524  IERC20(asset).approve(address(POOL), totalAmount) */\n      mload(0x40)\n      dup4\n      0xffffffff\n      and\n      0xe0\n      shl\n      dup2\n      mstore\n      0x04\n      add\n      tag_34\n      swap3\n      swap2\n      swap1\n      tag_35\n      jump\t// in\n    tag_34:\n      0x20\n      mload(0x40)\n      dup1\n      dup4\n      sub\n      dup2\n      0x00\n      dup8\n      gas\n      call\n      iszero\n      dup1\n      iszero\n      tag_37\n      jumpi\n      returndatasize\n      0x00\n      dup1\n      returndatacopy\n      revert(0x00, returndatasize)\n    tag_37:\n      pop\n      pop\n      pop\n      pop\n      mload(0x40)\n      returndatasize\n      not(0x1f)\n      0x1f\n      dup3\n      add\n      and\n      dup3\n      add\n      dup1\n      0x40\n      mstore\n      pop\n      dup2\n      add\n      swap1\n      tag_38\n      swap2\n      swap1\n      tag_39\n      jump\t// in\n    tag_38:\n      pop\n        /* \"contracts/FlashLoan/flashloan.sol\":1544:1548  true */\n      0x01\n        /* \"contracts/FlashLoan/flashloan.sol\":1537:1548  return true */\n      swap2\n      pop\n      pop\n        /* \"contracts/FlashLoan/flashloan.sol\":1165:1556  function  executeOperation(... */\n      swap7\n      swap6\n      pop\n      pop\n      pop\n      pop\n      pop\n      pop\n      jump\t// out\n        /* \"https://github.com/aave/aave-v3-core/blob/master/contracts/flashloan/base/FlashLoanSimpleReceiverBase.sol\":560:596  IPool public immutable override POOL */\n    tag_23:\n      immutable(\"0x69e3c6522a2f8bf12e780ae53c30e69d48d224ea00c92026278c398148e8df91\")\n      dup2\n      jump\t// out\n        /* \"contracts/FlashLoan/flashloan.sol\":635:1059  function RequestFlashLoan(address _token, uint256 _amount) public {... */\n    tag_30:\n        /* \"contracts/FlashLoan/flashloan.sol\":712:735  address receiverAddress */\n      0x00\n        /* \"contracts/FlashLoan/flashloan.sol\":746:750  this */\n      address\n        /* \"contracts/FlashLoan/flashloan.sol\":712:751  address receiverAddress = address(this) */\n      swap1\n      pop\n        /* \"contracts/FlashLoan/flashloan.sol\":762:775  address asset */\n      0x00\n        /* \"contracts/FlashLoan/flashloan.sol\":778:784  _token */\n      dup4\n        /* \"contracts/FlashLoan/flashloan.sol\":762:784  address asset = _token */\n      swap1\n      pop\n        /* \"contracts/FlashLoan/flashloan.sol\":795:809  uint256 amount */\n      0x00\n        /* \"contracts/FlashLoan/flashloan.sol\":812:819  _amount */\n      dup4\n        /* \"contracts/FlashLoan/flashloan.sol\":795:819  uint256 amount = _amount */\n      swap1\n      pop\n        /* \"contracts/FlashLoan/flashloan.sol\":830:849  bytes memory params */\n      0x00\n        /* \"contracts/FlashLoan/flashloan.sol\":830:854  bytes memory params = \"\" */\n      mload(0x40)\n      dup1\n      0x20\n      add\n      0x40\n      mstore\n      dup1\n      0x00\n      dup2\n      mstore\n      pop\n      swap1\n      pop\n        /* \"contracts/FlashLoan/flashloan.sol\":865:884  uint16 referralCode */\n      0x00\n        /* \"contracts/FlashLoan/flashloan.sol\":901:905  POOL */\n      immutable(\"0x69e3c6522a2f8bf12e780ae53c30e69d48d224ea00c92026278c398148e8df91\")\n        /* \"contracts/FlashLoan/flashloan.sol\":901:921  POOL.flashLoanSimple */\n      0xffffffffffffffffffffffffffffffffffffffff\n      and\n      0x42b0b77c\n        /* \"contracts/FlashLoan/flashloan.sol\":936:951  receiverAddress */\n      dup7\n        /* \"contracts/FlashLoan/flashloan.sol\":966:971  asset */\n      dup7\n        /* \"contracts/FlashLoan/flashloan.sol\":986:992  amount */\n      dup7\n        /* \"contracts/FlashLoan/flashloan.sol\":1007:1013  params */\n      dup7\n        /* \"contracts/FlashLoan/flashloan.sol\":1028:1040  referralCode */\n      dup7\n        /* \"contracts/FlashLoan/flashloan.sol\":901:1051  POOL.flashLoanSimple(... */\n      mload(0x40)\n      dup7\n      0xffffffff\n      and\n      0xe0\n      shl\n      dup2\n      mstore\n      0x04\n      add\n      tag_41\n      swap6\n      swap5\n      swap4\n      swap3\n      swap2\n      swap1\n      tag_42\n      jump\t// in\n    tag_41:\n      0x00\n      mload(0x40)\n      dup1\n      dup4\n      sub\n      dup2\n      0x00\n      dup8\n      dup1\n      extcodesize\n      iszero\n      dup1\n      iszero\n      tag_43\n      jumpi\n      0x00\n      dup1\n      revert\n    tag_43:\n      pop\n      gas\n      call\n      iszero\n      dup1\n      iszero\n      tag_45\n      jumpi\n      returndatasize\n      0x00\n      dup1\n      returndatacopy\n      revert(0x00, returndatasize)\n    tag_45:\n      pop\n      pop\n      pop\n      pop\n        /* \"contracts/FlashLoan/flashloan.sol\":701:1059  {... */\n      pop\n      pop\n      pop\n      pop\n      pop\n        /* \"contracts/FlashLoan/flashloan.sol\":635:1059  function RequestFlashLoan(address _token, uint256 _amount) public {... */\n      pop\n      pop\n      jump\t// out\n        /* \"#utility.yul\":7:133   */\n    tag_46:\n        /* \"#utility.yul\":44:51   */\n      0x00\n        /* \"#utility.yul\":84:126   */\n      0xffffffffffffffffffffffffffffffffffffffff\n        /* \"#utility.yul\":77:82   */\n      dup3\n        /* \"#utility.yul\":73:127   */\n      and\n        /* \"#utility.yul\":62:127   */\n      swap1\n      pop\n        /* \"#utility.yul\":7:133   */\n      swap2\n      swap1\n      pop\n      jump\t// out\n        /* \"#utility.yul\":139:199   */\n    tag_47:\n        /* \"#utility.yul\":167:170   */\n      0x00\n        /* \"#utility.yul\":188:193   */\n      dup2\n        /* \"#utility.yul\":181:193   */\n      swap1\n      pop\n        /* \"#utility.yul\":139:199   */\n      swap2\n      swap1\n      pop\n      jump\t// out\n        /* \"#utility.yul\":205:347   */\n    tag_48:\n        /* \"#utility.yul\":255:264   */\n      0x00\n        /* \"#utility.yul\":288:341   */\n      tag_85\n        /* \"#utility.yul\":306:340   */\n      tag_86\n        /* \"#utility.yul\":315:339   */\n      tag_87\n        /* \"#utility.yul\":333:338   */\n      dup5\n        /* \"#utility.yul\":315:339   */\n      tag_46\n      jump\t// in\n    tag_87:\n        /* \"#utility.yul\":306:340   */\n      tag_47\n      jump\t// in\n    tag_86:\n        /* \"#utility.yul\":288:341   */\n      tag_46\n      jump\t// in\n    tag_85:\n        /* \"#utility.yul\":275:341   */\n      swap1\n      pop\n        /* \"#utility.yul\":205:347   */\n      swap2\n      swap1\n      pop\n      jump\t// out\n        /* \"#utility.yul\":353:479   */\n    tag_49:\n        /* \"#utility.yul\":403:412   */\n      0x00\n        /* \"#utility.yul\":436:473   */\n      tag_89\n        /* \"#utility.yul\":467:472   */\n      dup3\n        /* \"#utility.yul\":436:473   */\n      tag_48\n      jump\t// in\n    tag_89:\n        /* \"#utility.yul\":423:473   */\n      swap1\n      pop\n        /* \"#utility.yul\":353:479   */\n      swap2\n      swap1\n      pop\n      jump\t// out\n        /* \"#utility.yul\":485:642   */\n    tag_50:\n        /* \"#utility.yul\":566:575   */\n      0x00\n        /* \"#utility.yul\":599:636   */\n      tag_91\n        /* \"#utility.yul\":630:635   */\n      dup3\n        /* \"#utility.yul\":599:636   */\n      tag_49\n      jump\t// in\n    tag_91:\n        /* \"#utility.yul\":586:636   */\n      swap1\n      pop\n        /* \"#utility.yul\":485:642   */\n      swap2\n      swap1\n      pop\n      jump\t// out\n        /* \"#utility.yul\":648:841   */\n    tag_51:\n        /* \"#utility.yul\":766:834   */\n      tag_93\n        /* \"#utility.yul\":828:833   */\n      dup2\n        /* \"#utility.yul\":766:834   */\n      tag_50\n      jump\t// in\n    tag_93:\n        /* \"#utility.yul\":761:764   */\n      dup3\n        /* \"#utility.yul\":754:835   */\n      mstore\n        /* \"#utility.yul\":648:841   */\n      pop\n      pop\n      jump\t// out\n        /* \"#utility.yul\":847:1131   */\n    tag_13:\n        /* \"#utility.yul\":971:975   */\n      0x00\n        /* \"#utility.yul\":1009:1011   */\n      0x20\n        /* \"#utility.yul\":998:1007   */\n      dup3\n        /* \"#utility.yul\":994:1012   */\n      add\n        /* \"#utility.yul\":986:1012   */\n      swap1\n      pop\n        /* \"#utility.yul\":1022:1124   */\n      tag_95\n        /* \"#utility.yul\":1121:1122   */\n      0x00\n        /* \"#utility.yul\":1110:1119   */\n      dup4\n        /* \"#utility.yul\":1106:1123   */\n      add\n        /* \"#utility.yul\":1097:1103   */\n      dup5\n        /* \"#utility.yul\":1022:1124   */\n      tag_51\n      jump\t// in\n    tag_95:\n        /* \"#utility.yul\":847:1131   */\n      swap3\n      swap2\n      pop\n      pop\n      jump\t// out\n        /* \"#utility.yul\":1218:1335   */\n    tag_53:\n        /* \"#utility.yul\":1327:1328   */\n      0x00\n        /* \"#utility.yul\":1324:1325   */\n      dup1\n        /* \"#utility.yul\":1317:1329   */\n      revert\n        /* \"#utility.yul\":1341:1458   */\n    tag_54:\n        /* \"#utility.yul\":1450:1451   */\n      0x00\n        /* \"#utility.yul\":1447:1448   */\n      dup1\n        /* \"#utility.yul\":1440:1452   */\n      revert\n        /* \"#utility.yul\":1464:1560   */\n    tag_55:\n        /* \"#utility.yul\":1501:1508   */\n      0x00\n        /* \"#utility.yul\":1530:1554   */\n      tag_100\n        /* \"#utility.yul\":1548:1553   */\n      dup3\n        /* \"#utility.yul\":1530:1554   */\n      tag_46\n      jump\t// in\n    tag_100:\n        /* \"#utility.yul\":1519:1554   */\n      swap1\n      pop\n        /* \"#utility.yul\":1464:1560   */\n      swap2\n      swap1\n      pop\n      jump\t// out\n        /* \"#utility.yul\":1566:1688   */\n    tag_56:\n        /* \"#utility.yul\":1639:1663   */\n      tag_102\n        /* \"#utility.yul\":1657:1662   */\n      dup2\n        /* \"#utility.yul\":1639:1663   */\n      tag_55\n      jump\t// in\n    tag_102:\n        /* \"#utility.yul\":1632:1637   */\n      dup2\n        /* \"#utility.yul\":1629:1664   */\n      eq\n        /* \"#utility.yul\":1619:1682   */\n      tag_103\n      jumpi\n        /* \"#utility.yul\":1678:1679   */\n      0x00\n        /* \"#utility.yul\":1675:1676   */\n      dup1\n        /* \"#utility.yul\":1668:1680   */\n      revert\n        /* \"#utility.yul\":1619:1682   */\n    tag_103:\n        /* \"#utility.yul\":1566:1688   */\n      pop\n      jump\t// out\n        /* \"#utility.yul\":1694:1833   */\n    tag_57:\n        /* \"#utility.yul\":1740:1745   */\n      0x00\n        /* \"#utility.yul\":1778:1784   */\n      dup2\n        /* \"#utility.yul\":1765:1785   */\n      calldataload\n        /* \"#utility.yul\":1756:1785   */\n      swap1\n      pop\n        /* \"#utility.yul\":1794:1827   */\n      tag_105\n        /* \"#utility.yul\":1821:1826   */\n      dup2\n        /* \"#utility.yul\":1794:1827   */\n      tag_56\n      jump\t// in\n    tag_105:\n        /* \"#utility.yul\":1694:1833   */\n      swap3\n      swap2\n      pop\n      pop\n      jump\t// out\n        /* \"#utility.yul\":1839:1916   */\n    tag_58:\n        /* \"#utility.yul\":1876:1883   */\n      0x00\n        /* \"#utility.yul\":1905:1910   */\n      dup2\n        /* \"#utility.yul\":1894:1910   */\n      swap1\n      pop\n        /* \"#utility.yul\":1839:1916   */\n      swap2\n      swap1\n      pop\n      jump\t// out\n        /* \"#utility.yul\":1922:2044   */\n    tag_59:\n        /* \"#utility.yul\":1995:2019   */\n      tag_108\n        /* \"#utility.yul\":2013:2018   */\n      dup2\n        /* \"#utility.yul\":1995:2019   */\n      tag_58\n      jump\t// in\n    tag_108:\n        /* \"#utility.yul\":1988:1993   */\n      dup2\n        /* \"#utility.yul\":1985:2020   */\n      eq\n        /* \"#utility.yul\":1975:2038   */\n      tag_109\n      jumpi\n        /* \"#utility.yul\":2034:2035   */\n      0x00\n        /* \"#utility.yul\":2031:2032   */\n      dup1\n        /* \"#utility.yul\":2024:2036   */\n      revert\n        /* \"#utility.yul\":1975:2038   */\n    tag_109:\n        /* \"#utility.yul\":1922:2044   */\n      pop\n      jump\t// out\n        /* \"#utility.yul\":2050:2189   */\n    tag_60:\n        /* \"#utility.yul\":2096:2101   */\n      0x00\n        /* \"#utility.yul\":2134:2140   */\n      dup2\n        /* \"#utility.yul\":2121:2141   */\n      calldataload\n        /* \"#utility.yul\":2112:2141   */\n      swap1\n      pop\n        /* \"#utility.yul\":2150:2183   */\n      tag_111\n        /* \"#utility.yul\":2177:2182   */\n      dup2\n        /* \"#utility.yul\":2150:2183   */\n      tag_59\n      jump\t// in\n    tag_111:\n        /* \"#utility.yul\":2050:2189   */\n      swap3\n      swap2\n      pop\n      pop\n      jump\t// out\n        /* \"#utility.yul\":2195:2312   */\n    tag_61:\n        /* \"#utility.yul\":2304:2305   */\n      0x00\n        /* \"#utility.yul\":2301:2302   */\n      dup1\n        /* \"#utility.yul\":2294:2306   */\n      revert\n        /* \"#utility.yul\":2318:2435   */\n    tag_62:\n        /* \"#utility.yul\":2427:2428   */\n      0x00\n        /* \"#utility.yul\":2424:2425   */\n      dup1\n        /* \"#utility.yul\":2417:2429   */\n      revert\n        /* \"#utility.yul\":2441:2558   */\n    tag_63:\n        /* \"#utility.yul\":2550:2551   */\n      0x00\n        /* \"#utility.yul\":2547:2548   */\n      dup1\n        /* \"#utility.yul\":2540:2552   */\n      revert\n        /* \"#utility.yul\":2577:3129   */\n    tag_64:\n        /* \"#utility.yul\":2634:2642   */\n      0x00\n        /* \"#utility.yul\":2644:2650   */\n      dup1\n        /* \"#utility.yul\":2694:2697   */\n      dup4\n        /* \"#utility.yul\":2687:2691   */\n      0x1f\n        /* \"#utility.yul\":2679:2685   */\n      dup5\n        /* \"#utility.yul\":2675:2692   */\n      add\n        /* \"#utility.yul\":2671:2698   */\n      slt\n        /* \"#utility.yul\":2661:2783   */\n      tag_116\n      jumpi\n        /* \"#utility.yul\":2702:2781   */\n      tag_117\n      tag_61\n      jump\t// in\n    tag_117:\n        /* \"#utility.yul\":2661:2783   */\n    tag_116:\n        /* \"#utility.yul\":2815:2821   */\n      dup3\n        /* \"#utility.yul\":2802:2822   */\n      calldataload\n        /* \"#utility.yul\":2792:2822   */\n      swap1\n      pop\n        /* \"#utility.yul\":2845:2863   */\n      0xffffffffffffffff\n        /* \"#utility.yul\":2837:2843   */\n      dup2\n        /* \"#utility.yul\":2834:2864   */\n      gt\n        /* \"#utility.yul\":2831:2948   */\n      iszero\n      tag_118\n      jumpi\n        /* \"#utility.yul\":2867:2946   */\n      tag_119\n      tag_62\n      jump\t// in\n    tag_119:\n        /* \"#utility.yul\":2831:2948   */\n    tag_118:\n        /* \"#utility.yul\":2981:2985   */\n      0x20\n        /* \"#utility.yul\":2973:2979   */\n      dup4\n        /* \"#utility.yul\":2969:2986   */\n      add\n        /* \"#utility.yul\":2957:2986   */\n      swap2\n      pop\n        /* \"#utility.yul\":3035:3038   */\n      dup4\n        /* \"#utility.yul\":3027:3031   */\n      0x01\n        /* \"#utility.yul\":3019:3025   */\n      dup3\n        /* \"#utility.yul\":3015:3032   */\n      mul\n        /* \"#utility.yul\":3005:3013   */\n      dup4\n        /* \"#utility.yul\":3001:3033   */\n      add\n        /* \"#utility.yul\":2998:3039   */\n      gt\n        /* \"#utility.yul\":2995:3123   */\n      iszero\n      tag_120\n      jumpi\n        /* \"#utility.yul\":3042:3121   */\n      tag_121\n      tag_63\n      jump\t// in\n    tag_121:\n        /* \"#utility.yul\":2995:3123   */\n    tag_120:\n        /* \"#utility.yul\":2577:3129   */\n      swap3\n      pop\n      swap3\n      swap1\n      pop\n      jump\t// out\n        /* \"#utility.yul\":3135:4244   */\n    tag_17:\n        /* \"#utility.yul\":3241:3247   */\n      0x00\n        /* \"#utility.yul\":3249:3255   */\n      dup1\n        /* \"#utility.yul\":3257:3263   */\n      0x00\n        /* \"#utility.yul\":3265:3271   */\n      dup1\n        /* \"#utility.yul\":3273:3279   */\n      0x00\n        /* \"#utility.yul\":3281:3287   */\n      dup1\n        /* \"#utility.yul\":3330:3333   */\n      0xa0\n        /* \"#utility.yul\":3318:3327   */\n      dup8\n        /* \"#utility.yul\":3309:3316   */\n      dup10\n        /* \"#utility.yul\":3305:3328   */\n      sub\n        /* \"#utility.yul\":3301:3334   */\n      slt\n        /* \"#utility.yul\":3298:3418   */\n      iszero\n      tag_123\n      jumpi\n        /* \"#utility.yul\":3337:3416   */\n      tag_124\n      tag_53\n      jump\t// in\n    tag_124:\n        /* \"#utility.yul\":3298:3418   */\n    tag_123:\n        /* \"#utility.yul\":3457:3458   */\n      0x00\n        /* \"#utility.yul\":3482:3535   */\n      tag_125\n        /* \"#utility.yul\":3527:3534   */\n      dup10\n        /* \"#utility.yul\":3518:3524   */\n      dup3\n        /* \"#utility.yul\":3507:3516   */\n      dup11\n        /* \"#utility.yul\":3503:3525   */\n      add\n        /* \"#utility.yul\":3482:3535   */\n      tag_57\n      jump\t// in\n    tag_125:\n        /* \"#utility.yul\":3472:3535   */\n      swap7\n      pop\n        /* \"#utility.yul\":3428:3545   */\n      pop\n        /* \"#utility.yul\":3584:3586   */\n      0x20\n        /* \"#utility.yul\":3610:3663   */\n      tag_126\n        /* \"#utility.yul\":3655:3662   */\n      dup10\n        /* \"#utility.yul\":3646:3652   */\n      dup3\n        /* \"#utility.yul\":3635:3644   */\n      dup11\n        /* \"#utility.yul\":3631:3653   */\n      add\n        /* \"#utility.yul\":3610:3663   */\n      tag_60\n      jump\t// in\n    tag_126:\n        /* \"#utility.yul\":3600:3663   */\n      swap6\n      pop\n        /* \"#utility.yul\":3555:3673   */\n      pop\n        /* \"#utility.yul\":3712:3714   */\n      0x40\n        /* \"#utility.yul\":3738:3791   */\n      tag_127\n        /* \"#utility.yul\":3783:3790   */\n      dup10\n        /* \"#utility.yul\":3774:3780   */\n      dup3\n        /* \"#utility.yul\":3763:3772   */\n      dup11\n        /* \"#utility.yul\":3759:3781   */\n      add\n        /* \"#utility.yul\":3738:3791   */\n      tag_60\n      jump\t// in\n    tag_127:\n        /* \"#utility.yul\":3728:3791   */\n      swap5\n      pop\n        /* \"#utility.yul\":3683:3801   */\n      pop\n        /* \"#utility.yul\":3840:3842   */\n      0x60\n        /* \"#utility.yul\":3866:3919   */\n      tag_128\n        /* \"#utility.yul\":3911:3918   */\n      dup10\n        /* \"#utility.yul\":3902:3908   */\n      dup3\n        /* \"#utility.yul\":3891:3900   */\n      dup11\n        /* \"#utility.yul\":3887:3909   */\n      add\n        /* \"#utility.yul\":3866:3919   */\n      tag_57\n      jump\t// in\n    tag_128:\n        /* \"#utility.yul\":3856:3919   */\n      swap4\n      pop\n        /* \"#utility.yul\":3811:3929   */\n      pop\n        /* \"#utility.yul\":3996:3999   */\n      0x80\n        /* \"#utility.yul\":3985:3994   */\n      dup8\n        /* \"#utility.yul\":3981:4000   */\n      add\n        /* \"#utility.yul\":3968:4001   */\n      calldataload\n        /* \"#utility.yul\":4028:4046   */\n      0xffffffffffffffff\n        /* \"#utility.yul\":4020:4026   */\n      dup2\n        /* \"#utility.yul\":4017:4047   */\n      gt\n        /* \"#utility.yul\":4014:4131   */\n      iszero\n      tag_129\n      jumpi\n        /* \"#utility.yul\":4050:4129   */\n      tag_130\n      tag_54\n      jump\t// in\n    tag_130:\n        /* \"#utility.yul\":4014:4131   */\n    tag_129:\n        /* \"#utility.yul\":4163:4227   */\n      tag_131\n        /* \"#utility.yul\":4219:4226   */\n      dup10\n        /* \"#utility.yul\":4210:4216   */\n      dup3\n        /* \"#utility.yul\":4199:4208   */\n      dup11\n        /* \"#utility.yul\":4195:4217   */\n      add\n        /* \"#utility.yul\":4163:4227   */\n      tag_64\n      jump\t// in\n    tag_131:\n        /* \"#utility.yul\":4145:4227   */\n      swap3\n      pop\n      swap3\n      pop\n        /* \"#utility.yul\":3939:4237   */\n      pop\n        /* \"#utility.yul\":3135:4244   */\n      swap3\n      swap6\n      pop\n      swap3\n      swap6\n      pop\n      swap3\n      swap6\n      jump\t// out\n        /* \"#utility.yul\":4250:4340   */\n    tag_65:\n        /* \"#utility.yul\":4284:4291   */\n      0x00\n        /* \"#utility.yul\":4327:4332   */\n      dup2\n        /* \"#utility.yul\":4320:4333   */\n      iszero\n        /* \"#utility.yul\":4313:4334   */\n      iszero\n        /* \"#utility.yul\":4302:4334   */\n      swap1\n      pop\n        /* \"#utility.yul\":4250:4340   */\n      swap2\n      swap1\n      pop\n      jump\t// out\n        /* \"#utility.yul\":4346:4455   */\n    tag_66:\n        /* \"#utility.yul\":4427:4448   */\n      tag_134\n        /* \"#utility.yul\":4442:4447   */\n      dup2\n        /* \"#utility.yul\":4427:4448   */\n      tag_65\n      jump\t// in\n    tag_134:\n        /* \"#utility.yul\":4422:4425   */\n      dup3\n        /* \"#utility.yul\":4415:4449   */\n      mstore\n        /* \"#utility.yul\":4346:4455   */\n      pop\n      pop\n      jump\t// out\n        /* \"#utility.yul\":4461:4671   */\n    tag_20:\n        /* \"#utility.yul\":4548:4552   */\n      0x00\n        /* \"#utility.yul\":4586:4588   */\n      0x20\n        /* \"#utility.yul\":4575:4584   */\n      dup3\n        /* \"#utility.yul\":4571:4589   */\n      add\n        /* \"#utility.yul\":4563:4589   */\n      swap1\n      pop\n        /* \"#utility.yul\":4599:4664   */\n      tag_136\n        /* \"#utility.yul\":4661:4662   */\n      0x00\n        /* \"#utility.yul\":4650:4659   */\n      dup4\n        /* \"#utility.yul\":4646:4663   */\n      add\n        /* \"#utility.yul\":4637:4643   */\n      dup5\n        /* \"#utility.yul\":4599:4664   */\n      tag_66\n      jump\t// in\n    tag_136:\n        /* \"#utility.yul\":4461:4671   */\n      swap3\n      swap2\n      pop\n      pop\n      jump\t// out\n        /* \"#utility.yul\":4677:4816   */\n    tag_67:\n        /* \"#utility.yul\":4740:4749   */\n      0x00\n        /* \"#utility.yul\":4773:4810   */\n      tag_138\n        /* \"#utility.yul\":4804:4809   */\n      dup3\n        /* \"#utility.yul\":4773:4810   */\n      tag_49\n      jump\t// in\n    tag_138:\n        /* \"#utility.yul\":4760:4810   */\n      swap1\n      pop\n        /* \"#utility.yul\":4677:4816   */\n      swap2\n      swap1\n      pop\n      jump\t// out\n        /* \"#utility.yul\":4822:4979   */\n    tag_68:\n        /* \"#utility.yul\":4922:4972   */\n      tag_140\n        /* \"#utility.yul\":4966:4971   */\n      dup2\n        /* \"#utility.yul\":4922:4972   */\n      tag_67\n      jump\t// in\n    tag_140:\n        /* \"#utility.yul\":4917:4920   */\n      dup3\n        /* \"#utility.yul\":4910:4973   */\n      mstore\n        /* \"#utility.yul\":4822:4979   */\n      pop\n      pop\n      jump\t// out\n        /* \"#utility.yul\":4985:5233   */\n    tag_25:\n        /* \"#utility.yul\":5091:5095   */\n      0x00\n        /* \"#utility.yul\":5129:5131   */\n      0x20\n        /* \"#utility.yul\":5118:5127   */\n      dup3\n        /* \"#utility.yul\":5114:5132   */\n      add\n        /* \"#utility.yul\":5106:5132   */\n      swap1\n      pop\n        /* \"#utility.yul\":5142:5226   */\n      tag_142\n        /* \"#utility.yul\":5223:5224   */\n      0x00\n        /* \"#utility.yul\":5212:5221   */\n      dup4\n        /* \"#utility.yul\":5208:5225   */\n      add\n        /* \"#utility.yul\":5199:5205   */\n      dup5\n        /* \"#utility.yul\":5142:5226   */\n      tag_68\n      jump\t// in\n    tag_142:\n        /* \"#utility.yul\":4985:5233   */\n      swap3\n      swap2\n      pop\n      pop\n      jump\t// out\n        /* \"#utility.yul\":5239:5713   */\n    tag_29:\n        /* \"#utility.yul\":5307:5313   */\n      0x00\n        /* \"#utility.yul\":5315:5321   */\n      dup1\n        /* \"#utility.yul\":5364:5366   */\n      0x40\n        /* \"#utility.yul\":5352:5361   */\n      dup4\n        /* \"#utility.yul\":5343:5350   */\n      dup6\n        /* \"#utility.yul\":5339:5362   */\n      sub\n        /* \"#utility.yul\":5335:5367   */\n      slt\n        /* \"#utility.yul\":5332:5451   */\n      iszero\n      tag_144\n      jumpi\n        /* \"#utility.yul\":5370:5449   */\n      tag_145\n      tag_53\n      jump\t// in\n    tag_145:\n        /* \"#utility.yul\":5332:5451   */\n    tag_144:\n        /* \"#utility.yul\":5490:5491   */\n      0x00\n        /* \"#utility.yul\":5515:5568   */\n      tag_146\n        /* \"#utility.yul\":5560:5567   */\n      dup6\n        /* \"#utility.yul\":5551:5557   */\n      dup3\n        /* \"#utility.yul\":5540:5549   */\n      dup7\n        /* \"#utility.yul\":5536:5558   */\n      add\n        /* \"#utility.yul\":5515:5568   */\n      tag_57\n      jump\t// in\n    tag_146:\n        /* \"#utility.yul\":5505:5568   */\n      swap3\n      pop\n        /* \"#utility.yul\":5461:5578   */\n      pop\n        /* \"#utility.yul\":5617:5619   */\n      0x20\n        /* \"#utility.yul\":5643:5696   */\n      tag_147\n        /* \"#utility.yul\":5688:5695   */\n      dup6\n        /* \"#utility.yul\":5679:5685   */\n      dup3\n        /* \"#utility.yul\":5668:5677   */\n      dup7\n        /* \"#utility.yul\":5664:5686   */\n      add\n        /* \"#utility.yul\":5643:5696   */\n      tag_60\n      jump\t// in\n    tag_147:\n        /* \"#utility.yul\":5633:5696   */\n      swap2\n      pop\n        /* \"#utility.yul\":5588:5706   */\n      pop\n        /* \"#utility.yul\":5239:5713   */\n      swap3\n      pop\n      swap3\n      swap1\n      pop\n      jump\t// out\n        /* \"#utility.yul\":5719:5899   */\n    tag_69:\n        /* \"#utility.yul\":5767:5844   */\n      0x4e487b7100000000000000000000000000000000000000000000000000000000\n        /* \"#utility.yul\":5764:5765   */\n      0x00\n        /* \"#utility.yul\":5757:5845   */\n      mstore\n        /* \"#utility.yul\":5864:5868   */\n      0x11\n        /* \"#utility.yul\":5861:5862   */\n      0x04\n        /* \"#utility.yul\":5854:5869   */\n      mstore\n        /* \"#utility.yul\":5888:5892   */\n      0x24\n        /* \"#utility.yul\":5885:5886   */\n      0x00\n        /* \"#utility.yul\":5878:5893   */\n      revert\n        /* \"#utility.yul\":5905:6096   */\n    tag_33:\n        /* \"#utility.yul\":5945:5948   */\n      0x00\n        /* \"#utility.yul\":5964:5984   */\n      tag_150\n        /* \"#utility.yul\":5982:5983   */\n      dup3\n        /* \"#utility.yul\":5964:5984   */\n      tag_58\n      jump\t// in\n    tag_150:\n        /* \"#utility.yul\":5959:5984   */\n      swap2\n      pop\n        /* \"#utility.yul\":5998:6018   */\n      tag_151\n        /* \"#utility.yul\":6016:6017   */\n      dup4\n        /* \"#utility.yul\":5998:6018   */\n      tag_58\n      jump\t// in\n    tag_151:\n        /* \"#utility.yul\":5993:6018   */\n      swap3\n      pop\n        /* \"#utility.yul\":6041:6042   */\n      dup3\n        /* \"#utility.yul\":6038:6039   */\n      dup3\n        /* \"#utility.yul\":6034:6043   */\n      add\n        /* \"#utility.yul\":6027:6043   */\n      swap1\n      pop\n        /* \"#utility.yul\":6062:6065   */\n      dup1\n        /* \"#utility.yul\":6059:6060   */\n      dup3\n        /* \"#utility.yul\":6056:6066   */\n      gt\n        /* \"#utility.yul\":6053:6089   */\n      iszero\n      tag_152\n      jumpi\n        /* \"#utility.yul\":6069:6087   */\n      tag_153\n      tag_69\n      jump\t// in\n    tag_153:\n        /* \"#utility.yul\":6053:6089   */\n    tag_152:\n        /* \"#utility.yul\":5905:6096   */\n      swap3\n      swap2\n      pop\n      pop\n      jump\t// out\n        /* \"#utility.yul\":6102:6220   */\n    tag_70:\n        /* \"#utility.yul\":6189:6213   */\n      tag_155\n        /* \"#utility.yul\":6207:6212   */\n      dup2\n        /* \"#utility.yul\":6189:6213   */\n      tag_55\n      jump\t// in\n    tag_155:\n        /* \"#utility.yul\":6184:6187   */\n      dup3\n        /* \"#utility.yul\":6177:6214   */\n      mstore\n        /* \"#utility.yul\":6102:6220   */\n      pop\n      pop\n      jump\t// out\n        /* \"#utility.yul\":6226:6344   */\n    tag_71:\n        /* \"#utility.yul\":6313:6337   */\n      tag_157\n        /* \"#utility.yul\":6331:6336   */\n      dup2\n        /* \"#utility.yul\":6313:6337   */\n      tag_58\n      jump\t// in\n    tag_157:\n        /* \"#utility.yul\":6308:6311   */\n      dup3\n        /* \"#utility.yul\":6301:6338   */\n      mstore\n        /* \"#utility.yul\":6226:6344   */\n      pop\n      pop\n      jump\t// out\n        /* \"#utility.yul\":6350:6682   */\n    tag_35:\n        /* \"#utility.yul\":6471:6475   */\n      0x00\n        /* \"#utility.yul\":6509:6511   */\n      0x40\n        /* \"#utility.yul\":6498:6507   */\n      dup3\n        /* \"#utility.yul\":6494:6512   */\n      add\n        /* \"#utility.yul\":6486:6512   */\n      swap1\n      pop\n        /* \"#utility.yul\":6522:6593   */\n      tag_159\n        /* \"#utility.yul\":6590:6591   */\n      0x00\n        /* \"#utility.yul\":6579:6588   */\n      dup4\n        /* \"#utility.yul\":6575:6592   */\n      add\n        /* \"#utility.yul\":6566:6572   */\n      dup6\n        /* \"#utility.yul\":6522:6593   */\n      tag_70\n      jump\t// in\n    tag_159:\n        /* \"#utility.yul\":6603:6675   */\n      tag_160\n        /* \"#utility.yul\":6671:6673   */\n      0x20\n        /* \"#utility.yul\":6660:6669   */\n      dup4\n        /* \"#utility.yul\":6656:6674   */\n      add\n        /* \"#utility.yul\":6647:6653   */\n      dup5\n        /* \"#utility.yul\":6603:6675   */\n      tag_71\n      jump\t// in\n    tag_160:\n        /* \"#utility.yul\":6350:6682   */\n      swap4\n      swap3\n      pop\n      pop\n      pop\n      jump\t// out\n        /* \"#utility.yul\":6688:6804   */\n    tag_72:\n        /* \"#utility.yul\":6758:6779   */\n      tag_162\n        /* \"#utility.yul\":6773:6778   */\n      dup2\n        /* \"#utility.yul\":6758:6779   */\n      tag_65\n      jump\t// in\n    tag_162:\n        /* \"#utility.yul\":6751:6756   */\n      dup2\n        /* \"#utility.yul\":6748:6780   */\n      eq\n        /* \"#utility.yul\":6738:6798   */\n      tag_163\n      jumpi\n        /* \"#utility.yul\":6794:6795   */\n      0x00\n        /* \"#utility.yul\":6791:6792   */\n      dup1\n        /* \"#utility.yul\":6784:6796   */\n      revert\n        /* \"#utility.yul\":6738:6798   */\n    tag_163:\n        /* \"#utility.yul\":6688:6804   */\n      pop\n      jump\t// out\n        /* \"#utility.yul\":6810:6947   */\n    tag_73:\n        /* \"#utility.yul\":6864:6869   */\n      0x00\n        /* \"#utility.yul\":6895:6901   */\n      dup2\n        /* \"#utility.yul\":6889:6902   */\n      mload\n        /* \"#utility.yul\":6880:6902   */\n      swap1\n      pop\n        /* \"#utility.yul\":6911:6941   */\n      tag_165\n        /* \"#utility.yul\":6935:6940   */\n      dup2\n        /* \"#utility.yul\":6911:6941   */\n      tag_72\n      jump\t// in\n    tag_165:\n        /* \"#utility.yul\":6810:6947   */\n      swap3\n      swap2\n      pop\n      pop\n      jump\t// out\n        /* \"#utility.yul\":6953:7298   */\n    tag_39:\n        /* \"#utility.yul\":7020:7026   */\n      0x00\n        /* \"#utility.yul\":7069:7071   */\n      0x20\n        /* \"#utility.yul\":7057:7066   */\n      dup3\n        /* \"#utility.yul\":7048:7055   */\n      dup5\n        /* \"#utility.yul\":7044:7067   */\n      sub\n        /* \"#utility.yul\":7040:7072   */\n      slt\n        /* \"#utility.yul\":7037:7156   */\n      iszero\n      tag_167\n      jumpi\n        /* \"#utility.yul\":7075:7154   */\n      tag_168\n      tag_53\n      jump\t// in\n    tag_168:\n        /* \"#utility.yul\":7037:7156   */\n    tag_167:\n        /* \"#utility.yul\":7195:7196   */\n      0x00\n        /* \"#utility.yul\":7220:7281   */\n      tag_169\n        /* \"#utility.yul\":7273:7280   */\n      dup5\n        /* \"#utility.yul\":7264:7270   */\n      dup3\n        /* \"#utility.yul\":7253:7262   */\n      dup6\n        /* \"#utility.yul\":7249:7271   */\n      add\n        /* \"#utility.yul\":7220:7281   */\n      tag_73\n      jump\t// in\n    tag_169:\n        /* \"#utility.yul\":7210:7281   */\n      swap2\n      pop\n        /* \"#utility.yul\":7166:7291   */\n      pop\n        /* \"#utility.yul\":6953:7298   */\n      swap3\n      swap2\n      pop\n      pop\n      jump\t// out\n        /* \"#utility.yul\":7304:7402   */\n    tag_74:\n        /* \"#utility.yul\":7355:7361   */\n      0x00\n        /* \"#utility.yul\":7389:7394   */\n      dup2\n        /* \"#utility.yul\":7383:7395   */\n      mload\n        /* \"#utility.yul\":7373:7395   */\n      swap1\n      pop\n        /* \"#utility.yul\":7304:7402   */\n      swap2\n      swap1\n      pop\n      jump\t// out\n        /* \"#utility.yul\":7408:7576   */\n    tag_75:\n        /* \"#utility.yul\":7491:7502   */\n      0x00\n        /* \"#utility.yul\":7525:7531   */\n      dup3\n        /* \"#utility.yul\":7520:7523   */\n      dup3\n        /* \"#utility.yul\":7513:7532   */\n      mstore\n        /* \"#utility.yul\":7565:7569   */\n      0x20\n        /* \"#utility.yul\":7560:7563   */\n      dup3\n        /* \"#utility.yul\":7556:7570   */\n      add\n        /* \"#utility.yul\":7541:7570   */\n      swap1\n      pop\n        /* \"#utility.yul\":7408:7576   */\n      swap3\n      swap2\n      pop\n      pop\n      jump\t// out\n        /* \"#utility.yul\":7582:7721   */\n    tag_76:\n        /* \"#utility.yul\":7671:7677   */\n      dup3\n        /* \"#utility.yul\":7666:7669   */\n      dup2\n        /* \"#utility.yul\":7661:7664   */\n      dup4\n        /* \"#utility.yul\":7655:7678   */\n      mcopy\n        /* \"#utility.yul\":7712:7713   */\n      0x00\n        /* \"#utility.yul\":7703:7709   */\n      dup4\n        /* \"#utility.yul\":7698:7701   */\n      dup4\n        /* \"#utility.yul\":7694:7710   */\n      add\n        /* \"#utility.yul\":7687:7714   */\n      mstore\n        /* \"#utility.yul\":7582:7721   */\n      pop\n      pop\n      pop\n      jump\t// out\n        /* \"#utility.yul\":7727:7829   */\n    tag_77:\n        /* \"#utility.yul\":7768:7774   */\n      0x00\n        /* \"#utility.yul\":7819:7821   */\n      0x1f\n        /* \"#utility.yul\":7815:7822   */\n      not\n        /* \"#utility.yul\":7810:7812   */\n      0x1f\n        /* \"#utility.yul\":7803:7808   */\n      dup4\n        /* \"#utility.yul\":7799:7813   */\n      add\n        /* \"#utility.yul\":7795:7823   */\n      and\n        /* \"#utility.yul\":7785:7823   */\n      swap1\n      pop\n        /* \"#utility.yul\":7727:7829   */\n      swap2\n      swap1\n      pop\n      jump\t// out\n        /* \"#utility.yul\":7835:8208   */\n    tag_78:\n        /* \"#utility.yul\":7921:7924   */\n      0x00\n        /* \"#utility.yul\":7949:7987   */\n      tag_175\n        /* \"#utility.yul\":7981:7986   */\n      dup3\n        /* \"#utility.yul\":7949:7987   */\n      tag_74\n      jump\t// in\n    tag_175:\n        /* \"#utility.yul\":8003:8073   */\n      tag_176\n        /* \"#utility.yul\":8066:8072   */\n      dup2\n        /* \"#utility.yul\":8061:8064   */\n      dup6\n        /* \"#utility.yul\":8003:8073   */\n      tag_75\n      jump\t// in\n    tag_176:\n        /* \"#utility.yul\":7996:8073   */\n      swap4\n      pop\n        /* \"#utility.yul\":8082:8147   */\n      tag_177\n        /* \"#utility.yul\":8140:8146   */\n      dup2\n        /* \"#utility.yul\":8135:8138   */\n      dup6\n        /* \"#utility.yul\":8128:8132   */\n      0x20\n        /* \"#utility.yul\":8121:8126   */\n      dup7\n        /* \"#utility.yul\":8117:8133   */\n      add\n        /* \"#utility.yul\":8082:8147   */\n      tag_76\n      jump\t// in\n    tag_177:\n        /* \"#utility.yul\":8172:8201   */\n      tag_178\n        /* \"#utility.yul\":8194:8200   */\n      dup2\n        /* \"#utility.yul\":8172:8201   */\n      tag_77\n      jump\t// in\n    tag_178:\n        /* \"#utility.yul\":8167:8170   */\n      dup5\n        /* \"#utility.yul\":8163:8202   */\n      add\n        /* \"#utility.yul\":8156:8202   */\n      swap2\n      pop\n        /* \"#utility.yul\":7925:8208   */\n      pop\n        /* \"#utility.yul\":7835:8208   */\n      swap3\n      swap2\n      pop\n      pop\n      jump\t// out\n        /* \"#utility.yul\":8214:8303   */\n    tag_79:\n        /* \"#utility.yul\":8250:8257   */\n      0x00\n        /* \"#utility.yul\":8290:8296   */\n      0xffff\n        /* \"#utility.yul\":8283:8288   */\n      dup3\n        /* \"#utility.yul\":8279:8297   */\n      and\n        /* \"#utility.yul\":8268:8297   */\n      swap1\n      pop\n        /* \"#utility.yul\":8214:8303   */\n      swap2\n      swap1\n      pop\n      jump\t// out\n        /* \"#utility.yul\":8309:8424   */\n    tag_80:\n        /* \"#utility.yul\":8394:8417   */\n      tag_181\n        /* \"#utility.yul\":8411:8416   */\n      dup2\n        /* \"#utility.yul\":8394:8417   */\n      tag_79\n      jump\t// in\n    tag_181:\n        /* \"#utility.yul\":8389:8392   */\n      dup3\n        /* \"#utility.yul\":8382:8418   */\n      mstore\n        /* \"#utility.yul\":8309:8424   */\n      pop\n      pop\n      jump\t// out\n        /* \"#utility.yul\":8430:9177   */\n    tag_42:\n        /* \"#utility.yul\":8651:8655   */\n      0x00\n        /* \"#utility.yul\":8689:8692   */\n      0xa0\n        /* \"#utility.yul\":8678:8687   */\n      dup3\n        /* \"#utility.yul\":8674:8693   */\n      add\n        /* \"#utility.yul\":8666:8693   */\n      swap1\n      pop\n        /* \"#utility.yul\":8703:8774   */\n      tag_183\n        /* \"#utility.yul\":8771:8772   */\n      0x00\n        /* \"#utility.yul\":8760:8769   */\n      dup4\n        /* \"#utility.yul\":8756:8773   */\n      add\n        /* \"#utility.yul\":8747:8753   */\n      dup9\n        /* \"#utility.yul\":8703:8774   */\n      tag_70\n      jump\t// in\n    tag_183:\n        /* \"#utility.yul\":8784:8856   */\n      tag_184\n        /* \"#utility.yul\":8852:8854   */\n      0x20\n        /* \"#utility.yul\":8841:8850   */\n      dup4\n        /* \"#utility.yul\":8837:8855   */\n      add\n        /* \"#utility.yul\":8828:8834   */\n      dup8\n        /* \"#utility.yul\":8784:8856   */\n      tag_70\n      jump\t// in\n    tag_184:\n        /* \"#utility.yul\":8866:8938   */\n      tag_185\n        /* \"#utility.yul\":8934:8936   */\n      0x40\n        /* \"#utility.yul\":8923:8932   */\n      dup4\n        /* \"#utility.yul\":8919:8937   */\n      add\n        /* \"#utility.yul\":8910:8916   */\n      dup7\n        /* \"#utility.yul\":8866:8938   */\n      tag_71\n      jump\t// in\n    tag_185:\n        /* \"#utility.yul\":8985:8994   */\n      dup2\n        /* \"#utility.yul\":8979:8983   */\n      dup2\n        /* \"#utility.yul\":8975:8995   */\n      sub\n        /* \"#utility.yul\":8970:8972   */\n      0x60\n        /* \"#utility.yul\":8959:8968   */\n      dup4\n        /* \"#utility.yul\":8955:8973   */\n      add\n        /* \"#utility.yul\":8948:8996   */\n      mstore\n        /* \"#utility.yul\":9013:9089   */\n      tag_186\n        /* \"#utility.yul\":9084:9088   */\n      dup2\n        /* \"#utility.yul\":9075:9081   */\n      dup6\n        /* \"#utility.yul\":9013:9089   */\n      tag_78\n      jump\t// in\n    tag_186:\n        /* \"#utility.yul\":9005:9089   */\n      swap1\n      pop\n        /* \"#utility.yul\":9099:9170   */\n      tag_187\n        /* \"#utility.yul\":9165:9168   */\n      0x80\n        /* \"#utility.yul\":9154:9163   */\n      dup4\n        /* \"#utility.yul\":9150:9169   */\n      add\n        /* \"#utility.yul\":9141:9147   */\n      dup5\n        /* \"#utility.yul\":9099:9170   */\n      tag_80\n      jump\t// in\n    tag_187:\n        /* \"#utility.yul\":8430:9177   */\n      swap7\n      swap6\n      pop\n      pop\n      pop\n      pop\n      pop\n      pop\n      jump\t// out\n\n    auxdata: 0xa264697066735822122036c7ff611ae53625cb61e2ba3393152f40e91c66647f86c75169f3339c4500e064736f6c634300081a0033\n}\n",
				"bytecode": {
					"linkReferences": {},
					"object": "60c060405234801561000f575f80fd5b506040516109413803806109418339818101604052810190610031919061016b565b808073ffffffffffffffffffffffffffffffffffffffff1660808173ffffffffffffffffffffffffffffffffffffffff16815250508073ffffffffffffffffffffffffffffffffffffffff1663026b1d5f6040518163ffffffff1660e01b8152600401602060405180830381865afa1580156100af573d5f803e3d5ffd5b505050506040513d601f19601f820116820180604052508101906100d3919061016b565b73ffffffffffffffffffffffffffffffffffffffff1660a08173ffffffffffffffffffffffffffffffffffffffff16815250505050610196565b5f80fd5b5f73ffffffffffffffffffffffffffffffffffffffff82169050919050565b5f61013a82610111565b9050919050565b61014a81610130565b8114610154575f80fd5b50565b5f8151905061016581610141565b92915050565b5f602082840312156101805761017f61010d565b5b5f61018d84828501610157565b91505092915050565b60805160a05161077c6101c55f395f8181610157015281816101e6015261022901525f610107015261077c5ff3fe608060405260043610610042575f3560e01c80630542975c1461004d5780631b11d0ff146100775780637535d246146100b3578063ff7cf483146100dd57610049565b3661004957005b5f80fd5b348015610058575f80fd5b50610061610105565b60405161006e9190610338565b60405180910390f35b348015610082575f80fd5b5061009d60048036038101906100989190610428565b610129565b6040516100aa91906104d8565b60405180910390f35b3480156100be575f80fd5b506100c76101e4565b6040516100d49190610511565b60405180910390f35b3480156100e8575f80fd5b5061010360048036038101906100fe919061052a565b610208565b005b7f000000000000000000000000000000000000000000000000000000000000000081565b5f8085876101379190610595565b90508773ffffffffffffffffffffffffffffffffffffffff1663095ea7b37f0000000000000000000000000000000000000000000000000000000000000000836040518363ffffffff1660e01b81526004016101949291906105e6565b6020604051808303815f875af11580156101b0573d5f803e3d5ffd5b505050506040513d601f19601f820116820180604052508101906101d49190610637565b5060019150509695505050505050565b7f000000000000000000000000000000000000000000000000000000000000000081565b5f3090505f8390505f8390505f60405180602001604052805f81525090505f7f000000000000000000000000000000000000000000000000000000000000000073ffffffffffffffffffffffffffffffffffffffff166342b0b77c86868686866040518663ffffffff1660e01b81526004016102889594939291906106ee565b5f604051808303815f87803b15801561029f575f80fd5b505af11580156102b1573d5f803e3d5ffd5b5050505050505050505050565b5f73ffffffffffffffffffffffffffffffffffffffff82169050919050565b5f819050919050565b5f6103006102fb6102f6846102be565b6102dd565b6102be565b9050919050565b5f610311826102e6565b9050919050565b5f61032282610307565b9050919050565b61033281610318565b82525050565b5f60208201905061034b5f830184610329565b92915050565b5f80fd5b5f80fd5b5f610363826102be565b9050919050565b61037381610359565b811461037d575f80fd5b50565b5f8135905061038e8161036a565b92915050565b5f819050919050565b6103a681610394565b81146103b0575f80fd5b50565b5f813590506103c18161039d565b92915050565b5f80fd5b5f80fd5b5f80fd5b5f8083601f8401126103e8576103e76103c7565b5b8235905067ffffffffffffffff811115610405576104046103cb565b5b602083019150836001820283011115610421576104206103cf565b5b9250929050565b5f805f805f8060a0878903121561044257610441610351565b5b5f61044f89828a01610380565b965050602061046089828a016103b3565b955050604061047189828a016103b3565b945050606061048289828a01610380565b935050608087013567ffffffffffffffff8111156104a3576104a2610355565b5b6104af89828a016103d3565b92509250509295509295509295565b5f8115159050919050565b6104d2816104be565b82525050565b5f6020820190506104eb5f8301846104c9565b92915050565b5f6104fb82610307565b9050919050565b61050b816104f1565b82525050565b5f6020820190506105245f830184610502565b92915050565b5f80604083850312156105405761053f610351565b5b5f61054d85828601610380565b925050602061055e858286016103b3565b9150509250929050565b7f4e487b71000000000000000000000000000000000000000000000000000000005f52601160045260245ffd5b5f61059f82610394565b91506105aa83610394565b92508282019050808211156105c2576105c1610568565b5b92915050565b6105d181610359565b82525050565b6105e081610394565b82525050565b5f6040820190506105f95f8301856105c8565b61060660208301846105d7565b9392505050565b610616816104be565b8114610620575f80fd5b50565b5f815190506106318161060d565b92915050565b5f6020828403121561064c5761064b610351565b5b5f61065984828501610623565b91505092915050565b5f81519050919050565b5f82825260208201905092915050565b8281835e5f83830152505050565b5f601f19601f8301169050919050565b5f6106a482610662565b6106ae818561066c565b93506106be81856020860161067c565b6106c78161068a565b840191505092915050565b5f61ffff82169050919050565b6106e8816106d2565b82525050565b5f60a0820190506107015f8301886105c8565b61070e60208301876105c8565b61071b60408301866105d7565b818103606083015261072d818561069a565b905061073c60808301846106df565b969550505050505056fea264697066735822122036c7ff611ae53625cb61e2ba3393152f40e91c66647f86c75169f3339c4500e064736f6c634300081a0033",
					"opcodes": "PUSH1 0xC0 PUSH1 0x40 MSTORE CALLVALUE DUP1 ISZERO PUSH2 0xF JUMPI PUSH0 DUP1 REVERT JUMPDEST POP PUSH1 0x40 MLOAD PUSH2 0x941 CODESIZE SUB DUP1 PUSH2 0x941 DUP4 CODECOPY DUP2 DUP2 ADD PUSH1 0x40 MSTORE DUP2 ADD SWAP1 PUSH2 0x31 SWAP2 SWAP1 PUSH2 0x16B JUMP JUMPDEST DUP1 DUP1 PUSH20 0xFFFFFFFFFFFFFFFFFFFFFFFFFFFFFFFFFFFFFFFF AND PUSH1 0x80 DUP2 PUSH20 0xFFFFFFFFFFFFFFFFFFFFFFFFFFFFFFFFFFFFFFFF AND DUP2 MSTORE POP POP DUP1 PUSH20 0xFFFFFFFFFFFFFFFFFFFFFFFFFFFFFFFFFFFFFFFF AND PUSH4 0x26B1D5F PUSH1 0x40 MLOAD DUP2 PUSH4 0xFFFFFFFF AND PUSH1 0xE0 SHL DUP2 MSTORE PUSH1 0x4 ADD PUSH1 0x20 PUSH1 0x40 MLOAD DUP1 DUP4 SUB DUP2 DUP7 GAS STATICCALL ISZERO DUP1 ISZERO PUSH2 0xAF JUMPI RETURNDATASIZE PUSH0 DUP1 RETURNDATACOPY RETURNDATASIZE PUSH0 REVERT JUMPDEST POP POP POP POP PUSH1 0x40 MLOAD RETURNDATASIZE PUSH1 0x1F NOT PUSH1 0x1F DUP3 ADD AND DUP3 ADD DUP1 PUSH1 0x40 MSTORE POP DUP2 ADD SWAP1 PUSH2 0xD3 SWAP2 SWAP1 PUSH2 0x16B JUMP JUMPDEST PUSH20 0xFFFFFFFFFFFFFFFFFFFFFFFFFFFFFFFFFFFFFFFF AND PUSH1 0xA0 DUP2 PUSH20 0xFFFFFFFFFFFFFFFFFFFFFFFFFFFFFFFFFFFFFFFF AND DUP2 MSTORE POP POP POP POP PUSH2 0x196 JUMP JUMPDEST PUSH0 DUP1 REVERT JUMPDEST PUSH0 PUSH20 0xFFFFFFFFFFFFFFFFFFFFFFFFFFFFFFFFFFFFFFFF DUP3 AND SWAP1 POP SWAP2 SWAP1 POP JUMP JUMPDEST PUSH0 PUSH2 0x13A DUP3 PUSH2 0x111 JUMP JUMPDEST SWAP1 POP SWAP2 SWAP1 POP JUMP JUMPDEST PUSH2 0x14A DUP2 PUSH2 0x130 JUMP JUMPDEST DUP2 EQ PUSH2 0x154 JUMPI PUSH0 DUP1 REVERT JUMPDEST POP JUMP JUMPDEST PUSH0 DUP2 MLOAD SWAP1 POP PUSH2 0x165 DUP2 PUSH2 0x141 JUMP JUMPDEST SWAP3 SWAP2 POP POP JUMP JUMPDEST PUSH0 PUSH1 0x20 DUP3 DUP5 SUB SLT ISZERO PUSH2 0x180 JUMPI PUSH2 0x17F PUSH2 0x10D JUMP JUMPDEST JUMPDEST PUSH0 PUSH2 0x18D DUP5 DUP3 DUP6 ADD PUSH2 0x157 JUMP JUMPDEST SWAP2 POP POP SWAP3 SWAP2 POP POP JUMP JUMPDEST PUSH1 0x80 MLOAD PUSH1 0xA0 MLOAD PUSH2 0x77C PUSH2 0x1C5 PUSH0 CODECOPY PUSH0 DUP2 DUP2 PUSH2 0x157 ADD MSTORE DUP2 DUP2 PUSH2 0x1E6 ADD MSTORE PUSH2 0x229 ADD MSTORE PUSH0 PUSH2 0x107 ADD MSTORE PUSH2 0x77C PUSH0 RETURN INVALID PUSH1 0x80 PUSH1 0x40 MSTORE PUSH1 0x4 CALLDATASIZE LT PUSH2 0x42 JUMPI PUSH0 CALLDATALOAD PUSH1 0xE0 SHR DUP1 PUSH4 0x542975C EQ PUSH2 0x4D JUMPI DUP1 PUSH4 0x1B11D0FF EQ PUSH2 0x77 JUMPI DUP1 PUSH4 0x7535D246 EQ PUSH2 0xB3 JUMPI DUP1 PUSH4 0xFF7CF483 EQ PUSH2 0xDD JUMPI PUSH2 0x49 JUMP JUMPDEST CALLDATASIZE PUSH2 0x49 JUMPI STOP JUMPDEST PUSH0 DUP1 REVERT JUMPDEST CALLVALUE DUP1 ISZERO PUSH2 0x58 JUMPI PUSH0 DUP1 REVERT JUMPDEST POP PUSH2 0x61 PUSH2 0x105 JUMP JUMPDEST PUSH1 0x40 MLOAD PUSH2 0x6E SWAP2 SWAP1 PUSH2 0x338 JUMP JUMPDEST PUSH1 0x40 MLOAD DUP1 SWAP2 SUB SWAP1 RETURN JUMPDEST CALLVALUE DUP1 ISZERO PUSH2 0x82 JUMPI PUSH0 DUP1 REVERT JUMPDEST POP PUSH2 0x9D PUSH1 0x4 DUP1 CALLDATASIZE SUB DUP2 ADD SWAP1 PUSH2 0x98 SWAP2 SWAP1 PUSH2 0x428 JUMP JUMPDEST PUSH2 0x129 JUMP JUMPDEST PUSH1 0x40 MLOAD PUSH2 0xAA SWAP2 SWAP1 PUSH2 0x4D8 JUMP JUMPDEST PUSH1 0x40 MLOAD DUP1 SWAP2 SUB SWAP1 RETURN JUMPDEST CALLVALUE DUP1 ISZERO PUSH2 0xBE JUMPI PUSH0 DUP1 REVERT JUMPDEST POP PUSH2 0xC7 PUSH2 0x1E4 JUMP JUMPDEST PUSH1 0x40 MLOAD PUSH2 0xD4 SWAP2 SWAP1 PUSH2 0x511 JUMP JUMPDEST PUSH1 0x40 MLOAD DUP1 SWAP2 SUB SWAP1 RETURN JUMPDEST CALLVALUE DUP1 ISZERO PUSH2 0xE8 JUMPI PUSH0 DUP1 REVERT JUMPDEST POP PUSH2 0x103 PUSH1 0x4 DUP1 CALLDATASIZE SUB DUP2 ADD SWAP1 PUSH2 0xFE SWAP2 SWAP1 PUSH2 0x52A JUMP JUMPDEST PUSH2 0x208 JUMP JUMPDEST STOP JUMPDEST PUSH32 0x0 DUP2 JUMP JUMPDEST PUSH0 DUP1 DUP6 DUP8 PUSH2 0x137 SWAP2 SWAP1 PUSH2 0x595 JUMP JUMPDEST SWAP1 POP DUP8 PUSH20 0xFFFFFFFFFFFFFFFFFFFFFFFFFFFFFFFFFFFFFFFF AND PUSH4 0x95EA7B3 PUSH32 0x0 DUP4 PUSH1 0x40 MLOAD DUP4 PUSH4 0xFFFFFFFF AND PUSH1 0xE0 SHL DUP2 MSTORE PUSH1 0x4 ADD PUSH2 0x194 SWAP3 SWAP2 SWAP1 PUSH2 0x5E6 JUMP JUMPDEST PUSH1 0x20 PUSH1 0x40 MLOAD DUP1 DUP4 SUB DUP2 PUSH0 DUP8 GAS CALL ISZERO DUP1 ISZERO PUSH2 0x1B0 JUMPI RETURNDATASIZE PUSH0 DUP1 RETURNDATACOPY RETURNDATASIZE PUSH0 REVERT JUMPDEST POP POP POP POP PUSH1 0x40 MLOAD RETURNDATASIZE PUSH1 0x1F NOT PUSH1 0x1F DUP3 ADD AND DUP3 ADD DUP1 PUSH1 0x40 MSTORE POP DUP2 ADD SWAP1 PUSH2 0x1D4 SWAP2 SWAP1 PUSH2 0x637 JUMP JUMPDEST POP PUSH1 0x1 SWAP2 POP POP SWAP7 SWAP6 POP POP POP POP POP POP JUMP JUMPDEST PUSH32 0x0 DUP2 JUMP JUMPDEST PUSH0 ADDRESS SWAP1 POP PUSH0 DUP4 SWAP1 POP PUSH0 DUP4 SWAP1 POP PUSH0 PUSH1 0x40 MLOAD DUP1 PUSH1 0x20 ADD PUSH1 0x40 MSTORE DUP1 PUSH0 DUP2 MSTORE POP SWAP1 POP PUSH0 PUSH32 0x0 PUSH20 0xFFFFFFFFFFFFFFFFFFFFFFFFFFFFFFFFFFFFFFFF AND PUSH4 0x42B0B77C DUP7 DUP7 DUP7 DUP7 DUP7 PUSH1 0x40 MLOAD DUP7 PUSH4 0xFFFFFFFF AND PUSH1 0xE0 SHL DUP2 MSTORE PUSH1 0x4 ADD PUSH2 0x288 SWAP6 SWAP5 SWAP4 SWAP3 SWAP2 SWAP1 PUSH2 0x6EE JUMP JUMPDEST PUSH0 PUSH1 0x40 MLOAD DUP1 DUP4 SUB DUP2 PUSH0 DUP8 DUP1 EXTCODESIZE ISZERO DUP1 ISZERO PUSH2 0x29F JUMPI PUSH0 DUP1 REVERT JUMPDEST POP GAS CALL ISZERO DUP1 ISZERO PUSH2 0x2B1 JUMPI RETURNDATASIZE PUSH0 DUP1 RETURNDATACOPY RETURNDATASIZE PUSH0 REVERT JUMPDEST POP POP POP POP POP POP POP POP POP POP POP JUMP JUMPDEST PUSH0 PUSH20 0xFFFFFFFFFFFFFFFFFFFFFFFFFFFFFFFFFFFFFFFF DUP3 AND SWAP1 POP SWAP2 SWAP1 POP JUMP JUMPDEST PUSH0 DUP2 SWAP1 POP SWAP2 SWAP1 POP JUMP JUMPDEST PUSH0 PUSH2 0x300 PUSH2 0x2FB PUSH2 0x2F6 DUP5 PUSH2 0x2BE JUMP JUMPDEST PUSH2 0x2DD JUMP JUMPDEST PUSH2 0x2BE JUMP JUMPDEST SWAP1 POP SWAP2 SWAP1 POP JUMP JUMPDEST PUSH0 PUSH2 0x311 DUP3 PUSH2 0x2E6 JUMP JUMPDEST SWAP1 POP SWAP2 SWAP1 POP JUMP JUMPDEST PUSH0 PUSH2 0x322 DUP3 PUSH2 0x307 JUMP JUMPDEST SWAP1 POP SWAP2 SWAP1 POP JUMP JUMPDEST PUSH2 0x332 DUP2 PUSH2 0x318 JUMP JUMPDEST DUP3 MSTORE POP POP JUMP JUMPDEST PUSH0 PUSH1 0x20 DUP3 ADD SWAP1 POP PUSH2 0x34B PUSH0 DUP4 ADD DUP5 PUSH2 0x329 JUMP JUMPDEST SWAP3 SWAP2 POP POP JUMP JUMPDEST PUSH0 DUP1 REVERT JUMPDEST PUSH0 DUP1 REVERT JUMPDEST PUSH0 PUSH2 0x363 DUP3 PUSH2 0x2BE JUMP JUMPDEST SWAP1 POP SWAP2 SWAP1 POP JUMP JUMPDEST PUSH2 0x373 DUP2 PUSH2 0x359 JUMP JUMPDEST DUP2 EQ PUSH2 0x37D JUMPI PUSH0 DUP1 REVERT JUMPDEST POP JUMP JUMPDEST PUSH0 DUP2 CALLDATALOAD SWAP1 POP PUSH2 0x38E DUP2 PUSH2 0x36A JUMP JUMPDEST SWAP3 SWAP2 POP POP JUMP JUMPDEST PUSH0 DUP2 SWAP1 POP SWAP2 SWAP1 POP JUMP JUMPDEST PUSH2 0x3A6 DUP2 PUSH2 0x394 JUMP JUMPDEST DUP2 EQ PUSH2 0x3B0 JUMPI PUSH0 DUP1 REVERT JUMPDEST POP JUMP JUMPDEST PUSH0 DUP2 CALLDATALOAD SWAP1 POP PUSH2 0x3C1 DUP2 PUSH2 0x39D JUMP JUMPDEST SWAP3 SWAP2 POP POP JUMP JUMPDEST PUSH0 DUP1 REVERT JUMPDEST PUSH0 DUP1 REVERT JUMPDEST PUSH0 DUP1 REVERT JUMPDEST PUSH0 DUP1 DUP4 PUSH1 0x1F DUP5 ADD SLT PUSH2 0x3E8 JUMPI PUSH2 0x3E7 PUSH2 0x3C7 JUMP JUMPDEST JUMPDEST DUP3 CALLDATALOAD SWAP1 POP PUSH8 0xFFFFFFFFFFFFFFFF DUP2 GT ISZERO PUSH2 0x405 JUMPI PUSH2 0x404 PUSH2 0x3CB JUMP JUMPDEST JUMPDEST PUSH1 0x20 DUP4 ADD SWAP2 POP DUP4 PUSH1 0x1 DUP3 MUL DUP4 ADD GT ISZERO PUSH2 0x421 JUMPI PUSH2 0x420 PUSH2 0x3CF JUMP JUMPDEST JUMPDEST SWAP3 POP SWAP3 SWAP1 POP JUMP JUMPDEST PUSH0 DUP1 PUSH0 DUP1 PUSH0 DUP1 PUSH1 0xA0 DUP8 DUP10 SUB SLT ISZERO PUSH2 0x442 JUMPI PUSH2 0x441 PUSH2 0x351 JUMP JUMPDEST JUMPDEST PUSH0 PUSH2 0x44F DUP10 DUP3 DUP11 ADD PUSH2 0x380 JUMP JUMPDEST SWAP7 POP POP PUSH1 0x20 PUSH2 0x460 DUP10 DUP3 DUP11 ADD PUSH2 0x3B3 JUMP JUMPDEST SWAP6 POP POP PUSH1 0x40 PUSH2 0x471 DUP10 DUP3 DUP11 ADD PUSH2 0x3B3 JUMP JUMPDEST SWAP5 POP POP PUSH1 0x60 PUSH2 0x482 DUP10 DUP3 DUP11 ADD PUSH2 0x380 JUMP JUMPDEST SWAP4 POP POP PUSH1 0x80 DUP8 ADD CALLDATALOAD PUSH8 0xFFFFFFFFFFFFFFFF DUP2 GT ISZERO PUSH2 0x4A3 JUMPI PUSH2 0x4A2 PUSH2 0x355 JUMP JUMPDEST JUMPDEST PUSH2 0x4AF DUP10 DUP3 DUP11 ADD PUSH2 0x3D3 JUMP JUMPDEST SWAP3 POP SWAP3 POP POP SWAP3 SWAP6 POP SWAP3 SWAP6 POP SWAP3 SWAP6 JUMP JUMPDEST PUSH0 DUP2 ISZERO ISZERO SWAP1 POP SWAP2 SWAP1 POP JUMP JUMPDEST PUSH2 0x4D2 DUP2 PUSH2 0x4BE JUMP JUMPDEST DUP3 MSTORE POP POP JUMP JUMPDEST PUSH0 PUSH1 0x20 DUP3 ADD SWAP1 POP PUSH2 0x4EB PUSH0 DUP4 ADD DUP5 PUSH2 0x4C9 JUMP JUMPDEST SWAP3 SWAP2 POP POP JUMP JUMPDEST PUSH0 PUSH2 0x4FB DUP3 PUSH2 0x307 JUMP JUMPDEST SWAP1 POP SWAP2 SWAP1 POP JUMP JUMPDEST PUSH2 0x50B DUP2 PUSH2 0x4F1 JUMP JUMPDEST DUP3 MSTORE POP POP JUMP JUMPDEST PUSH0 PUSH1 0x20 DUP3 ADD SWAP1 POP PUSH2 0x524 PUSH0 DUP4 ADD DUP5 PUSH2 0x502 JUMP JUMPDEST SWAP3 SWAP2 POP POP JUMP JUMPDEST PUSH0 DUP1 PUSH1 0x40 DUP4 DUP6 SUB SLT ISZERO PUSH2 0x540 JUMPI PUSH2 0x53F PUSH2 0x351 JUMP JUMPDEST JUMPDEST PUSH0 PUSH2 0x54D DUP6 DUP3 DUP7 ADD PUSH2 0x380 JUMP JUMPDEST SWAP3 POP POP PUSH1 0x20 PUSH2 0x55E DUP6 DUP3 DUP7 ADD PUSH2 0x3B3 JUMP JUMPDEST SWAP2 POP POP SWAP3 POP SWAP3 SWAP1 POP JUMP JUMPDEST PUSH32 0x4E487B7100000000000000000000000000000000000000000000000000000000 PUSH0 MSTORE PUSH1 0x11 PUSH1 0x4 MSTORE PUSH1 0x24 PUSH0 REVERT JUMPDEST PUSH0 PUSH2 0x59F DUP3 PUSH2 0x394 JUMP JUMPDEST SWAP2 POP PUSH2 0x5AA DUP4 PUSH2 0x394 JUMP JUMPDEST SWAP3 POP DUP3 DUP3 ADD SWAP1 POP DUP1 DUP3 GT ISZERO PUSH2 0x5C2 JUMPI PUSH2 0x5C1 PUSH2 0x568 JUMP JUMPDEST JUMPDEST SWAP3 SWAP2 POP POP JUMP JUMPDEST PUSH2 0x5D1 DUP2 PUSH2 0x359 JUMP JUMPDEST DUP3 MSTORE POP POP JUMP JUMPDEST PUSH2 0x5E0 DUP2 PUSH2 0x394 JUMP JUMPDEST DUP3 MSTORE POP POP JUMP JUMPDEST PUSH0 PUSH1 0x40 DUP3 ADD SWAP1 POP PUSH2 0x5F9 PUSH0 DUP4 ADD DUP6 PUSH2 0x5C8 JUMP JUMPDEST PUSH2 0x606 PUSH1 0x20 DUP4 ADD DUP5 PUSH2 0x5D7 JUMP JUMPDEST SWAP4 SWAP3 POP POP POP JUMP JUMPDEST PUSH2 0x616 DUP2 PUSH2 0x4BE JUMP JUMPDEST DUP2 EQ PUSH2 0x620 JUMPI PUSH0 DUP1 REVERT JUMPDEST POP JUMP JUMPDEST PUSH0 DUP2 MLOAD SWAP1 POP PUSH2 0x631 DUP2 PUSH2 0x60D JUMP JUMPDEST SWAP3 SWAP2 POP POP JUMP JUMPDEST PUSH0 PUSH1 0x20 DUP3 DUP5 SUB SLT ISZERO PUSH2 0x64C JUMPI PUSH2 0x64B PUSH2 0x351 JUMP JUMPDEST JUMPDEST PUSH0 PUSH2 0x659 DUP5 DUP3 DUP6 ADD PUSH2 0x623 JUMP JUMPDEST SWAP2 POP POP SWAP3 SWAP2 POP POP JUMP JUMPDEST PUSH0 DUP2 MLOAD SWAP1 POP SWAP2 SWAP1 POP JUMP JUMPDEST PUSH0 DUP3 DUP3 MSTORE PUSH1 0x20 DUP3 ADD SWAP1 POP SWAP3 SWAP2 POP POP JUMP JUMPDEST DUP3 DUP2 DUP4 MCOPY PUSH0 DUP4 DUP4 ADD MSTORE POP POP POP JUMP JUMPDEST PUSH0 PUSH1 0x1F NOT PUSH1 0x1F DUP4 ADD AND SWAP1 POP SWAP2 SWAP1 POP JUMP JUMPDEST PUSH0 PUSH2 0x6A4 DUP3 PUSH2 0x662 JUMP JUMPDEST PUSH2 0x6AE DUP2 DUP6 PUSH2 0x66C JUMP JUMPDEST SWAP4 POP PUSH2 0x6BE DUP2 DUP6 PUSH1 0x20 DUP7 ADD PUSH2 0x67C JUMP JUMPDEST PUSH2 0x6C7 DUP2 PUSH2 0x68A JUMP JUMPDEST DUP5 ADD SWAP2 POP POP SWAP3 SWAP2 POP POP JUMP JUMPDEST PUSH0 PUSH2 0xFFFF DUP3 AND SWAP1 POP SWAP2 SWAP1 POP JUMP JUMPDEST PUSH2 0x6E8 DUP2 PUSH2 0x6D2 JUMP JUMPDEST DUP3 MSTORE POP POP JUMP JUMPDEST PUSH0 PUSH1 0xA0 DUP3 ADD SWAP1 POP PUSH2 0x701 PUSH0 DUP4 ADD DUP9 PUSH2 0x5C8 JUMP JUMPDEST PUSH2 0x70E PUSH1 0x20 DUP4 ADD DUP8 PUSH2 0x5C8 JUMP JUMPDEST PUSH2 0x71B PUSH1 0x40 DUP4 ADD DUP7 PUSH2 0x5D7 JUMP JUMPDEST DUP2 DUP2 SUB PUSH1 0x60 DUP4 ADD MSTORE PUSH2 0x72D DUP2 DUP6 PUSH2 0x69A JUMP JUMPDEST SWAP1 POP PUSH2 0x73C PUSH1 0x80 DUP4 ADD DUP5 PUSH2 0x6DF JUMP JUMPDEST SWAP7 SWAP6 POP POP POP POP POP POP JUMP INVALID LOG2 PUSH5 0x6970667358 0x22 SLT KECCAK256 CALLDATASIZE 0xC7 SELFDESTRUCT PUSH2 0x1AE5 CALLDATASIZE 0x25 0xCB PUSH2 0xE2BA CALLER SWAP4 ISZERO 0x2F BLOCKHASH 0xE9 SHR PUSH7 0x647F86C75169F3 CALLER SWAP13 GASLIMIT STOP 0xE0 PUSH5 0x736F6C6343 STOP ADDMOD BYTE STOP CALLER "
				},
				"gasEstimates": {
					"creation": {
						"codeDepositCost": "383200",
						"executionCost": "infinite",
						"totalCost": "infinite"
					},
					"external": {
						"ADDRESSES_PROVIDER()": "infinite",
						"POOL()": "infinite",
						"RequestFlashLoan(address,uint256)": "infinite",
						"executeOperation(address,uint256,uint256,address,bytes)": "infinite"
					}
				},
				"methodIdentifiers": {
					"ADDRESSES_PROVIDER()": "0542975c",
					"POOL()": "7535d246",
					"RequestFlashLoan(address,uint256)": "ff7cf483",
					"executeOperation(address,uint256,uint256,address,bytes)": "1b11d0ff"
				}
			},
			"storageLayout": {
				"storage": [
					{
						"astId": 8,
						"contract": "contracts/FlashLoan/flashloan.sol:SimpleFlashLoan",
						"label": "owner",
						"offset": 0,
						"slot": "0",
						"type": "t_address_payable"
					}
				],
				"types": {
					"t_address_payable": {
						"encoding": "inplace",
						"label": "address payable",
						"numberOfBytes": "20"
					}
				}
			},
			"userdoc": {
				"kind": "user",
				"methods": {
					"executeOperation(address,uint256,uint256,address,bytes)": {
						"notice": "Executes an operation after receiving the flash-borrowed asset"
					}
				},
				"version": 1
			}
		}
	}
}